{
	"hackaton/OrganMatching.sol": {
		"OrganMatching": {
			"abi": [
				{
					"inputs": [
						{
							"internalType": "address",
							"name": "_transplantRegistryAddress",
							"type": "address"
						}
					],
					"stateMutability": "nonpayable",
					"type": "constructor"
				},
				{
					"anonymous": false,
					"inputs": [
						{
							"indexed": false,
							"internalType": "uint256",
							"name": "id",
							"type": "uint256"
						},
						{
							"indexed": false,
							"internalType": "string",
							"name": "name",
							"type": "string"
						},
						{
							"indexed": false,
							"internalType": "string",
							"name": "bloodType",
							"type": "string"
						}
					],
					"name": "DonorRegistered",
					"type": "event"
				},
				{
					"anonymous": false,
					"inputs": [
						{
							"indexed": false,
							"internalType": "uint256",
							"name": "patientId",
							"type": "uint256"
						},
						{
							"indexed": false,
							"internalType": "string",
							"name": "patientName",
							"type": "string"
						},
						{
							"indexed": false,
							"internalType": "uint256",
							"name": "donorId",
							"type": "uint256"
						},
						{
							"indexed": false,
							"internalType": "string",
							"name": "donorName",
							"type": "string"
						}
					],
					"name": "MatchFound",
					"type": "event"
				},
				{
					"anonymous": false,
					"inputs": [
						{
							"indexed": false,
							"internalType": "uint256",
							"name": "patientId",
							"type": "uint256"
						},
						{
							"indexed": false,
							"internalType": "uint256",
							"name": "donorId",
							"type": "uint256"
						}
					],
					"name": "TransplantConfirmed",
					"type": "event"
				},
				{
					"inputs": [],
					"name": "donorCount",
					"outputs": [
						{
							"internalType": "uint256",
							"name": "",
							"type": "uint256"
						}
					],
					"stateMutability": "view",
					"type": "function"
				},
				{
					"inputs": [
						{
							"internalType": "uint256",
							"name": "",
							"type": "uint256"
						}
					],
					"name": "donors",
					"outputs": [
						{
							"internalType": "uint256",
							"name": "id",
							"type": "uint256"
						},
						{
							"internalType": "string",
							"name": "name",
							"type": "string"
						},
						{
							"internalType": "string",
							"name": "bloodType",
							"type": "string"
						},
						{
							"internalType": "bool",
							"name": "available",
							"type": "bool"
						}
					],
					"stateMutability": "view",
					"type": "function"
				},
				{
					"inputs": [
						{
							"internalType": "uint256",
							"name": "donorId",
							"type": "uint256"
						}
					],
					"name": "findMatch",
					"outputs": [
						{
							"internalType": "uint256",
							"name": "",
							"type": "uint256"
						}
					],
					"stateMutability": "nonpayable",
					"type": "function"
				},
				{
					"inputs": [
						{
							"internalType": "uint256",
							"name": "patientId",
							"type": "uint256"
						}
					],
					"name": "getTransplantInfo",
					"outputs": [
						{
							"internalType": "uint256",
							"name": "donorId",
							"type": "uint256"
						},
						{
							"internalType": "string",
							"name": "donorName",
							"type": "string"
						},
						{
							"internalType": "string",
							"name": "donorBlood",
							"type": "string"
						}
					],
					"stateMutability": "view",
					"type": "function"
				},
				{
					"inputs": [],
					"name": "owner",
					"outputs": [
						{
							"internalType": "address",
							"name": "",
							"type": "address"
						}
					],
					"stateMutability": "view",
					"type": "function"
				},
				{
					"inputs": [
						{
							"internalType": "string",
							"name": "_name",
							"type": "string"
						},
						{
							"internalType": "string",
							"name": "_bloodType",
							"type": "string"
						}
					],
					"name": "registerDonor",
					"outputs": [],
					"stateMutability": "nonpayable",
					"type": "function"
				},
				{
					"inputs": [],
					"name": "transplantRegistry",
					"outputs": [
						{
							"internalType": "contract TransplantRegistry",
							"name": "",
							"type": "address"
						}
					],
					"stateMutability": "view",
					"type": "function"
				},
				{
					"inputs": [
						{
							"internalType": "uint256",
							"name": "",
							"type": "uint256"
						}
					],
					"name": "transplants",
					"outputs": [
						{
							"internalType": "uint256",
							"name": "",
							"type": "uint256"
						}
					],
					"stateMutability": "view",
					"type": "function"
				}
			],
			"devdoc": {
				"kind": "dev",
				"methods": {},
				"version": 1
			},
			"evm": {
				"assembly": "    /* \"hackaton/OrganMatching.sol\":93:2638  contract OrganMatching {... */\n  mstore(0x40, 0x80)\n    /* \"hackaton/OrganMatching.sol\":288:289  0 */\n  0x00\n    /* \"hackaton/OrganMatching.sol\":263:289  uint public donorCount = 0 */\n  0x01\n  sstore\n    /* \"hackaton/OrganMatching.sol\":802:962  constructor(address _transplantRegistryAddress) {... */\n  callvalue\n  dup1\n  iszero\n  tag_1\n  jumpi\n  0x00\n  dup1\n  revert\ntag_1:\n  pop\n  mload(0x40)\n  sub(codesize, bytecodeSize)\n  dup1\n  bytecodeSize\n  dup4\n  codecopy\n  dup2\n  dup2\n  add\n  0x40\n  mstore\n  dup2\n  add\n  swap1\n  tag_2\n  swap2\n  swap1\n  tag_3\n  jump\t// in\ntag_2:\n    /* \"hackaton/OrganMatching.sol\":900:926  _transplantRegistryAddress */\n  dup1\n    /* \"hackaton/OrganMatching.sol\":860:878  transplantRegistry */\n  0x04\n  0x00\n    /* \"hackaton/OrganMatching.sol\":860:927  transplantRegistry = TransplantRegistry(_transplantRegistryAddress) */\n  0x0100\n  exp\n  dup2\n  sload\n  dup2\n  0xffffffffffffffffffffffffffffffffffffffff\n  mul\n  not\n  and\n  swap1\n  dup4\n  0xffffffffffffffffffffffffffffffffffffffff\n  and\n  mul\n  or\n  swap1\n  sstore\n  pop\n    /* \"hackaton/OrganMatching.sol\":945:955  msg.sender */\n  caller\n    /* \"hackaton/OrganMatching.sol\":937:942  owner */\n  0x00\n  dup1\n    /* \"hackaton/OrganMatching.sol\":937:955  owner = msg.sender */\n  0x0100\n  exp\n  dup2\n  sload\n  dup2\n  0xffffffffffffffffffffffffffffffffffffffff\n  mul\n  not\n  and\n  swap1\n  dup4\n  0xffffffffffffffffffffffffffffffffffffffff\n  and\n  mul\n  or\n  swap1\n  sstore\n  pop\n    /* \"hackaton/OrganMatching.sol\":802:962  constructor(address _transplantRegistryAddress) {... */\n  pop\n    /* \"hackaton/OrganMatching.sol\":93:2638  contract OrganMatching {... */\n  jump(tag_6)\n    /* \"#utility.yul\":88:205   */\ntag_8:\n    /* \"#utility.yul\":197:198   */\n  0x00\n    /* \"#utility.yul\":194:195   */\n  dup1\n    /* \"#utility.yul\":187:199   */\n  revert\n    /* \"#utility.yul\":334:460   */\ntag_10:\n    /* \"#utility.yul\":371:378   */\n  0x00\n    /* \"#utility.yul\":411:453   */\n  0xffffffffffffffffffffffffffffffffffffffff\n    /* \"#utility.yul\":404:409   */\n  dup3\n    /* \"#utility.yul\":400:454   */\n  and\n    /* \"#utility.yul\":389:454   */\n  swap1\n  pop\n    /* \"#utility.yul\":334:460   */\n  swap2\n  swap1\n  pop\n  jump\t// out\n    /* \"#utility.yul\":466:562   */\ntag_11:\n    /* \"#utility.yul\":503:510   */\n  0x00\n    /* \"#utility.yul\":532:556   */\n  tag_20\n    /* \"#utility.yul\":550:555   */\n  dup3\n    /* \"#utility.yul\":532:556   */\n  tag_10\n  jump\t// in\ntag_20:\n    /* \"#utility.yul\":521:556   */\n  swap1\n  pop\n    /* \"#utility.yul\":466:562   */\n  swap2\n  swap1\n  pop\n  jump\t// out\n    /* \"#utility.yul\":568:690   */\ntag_12:\n    /* \"#utility.yul\":641:665   */\n  tag_22\n    /* \"#utility.yul\":659:664   */\n  dup2\n    /* \"#utility.yul\":641:665   */\n  tag_11\n  jump\t// in\ntag_22:\n    /* \"#utility.yul\":634:639   */\n  dup2\n    /* \"#utility.yul\":631:666   */\n  eq\n    /* \"#utility.yul\":621:684   */\n  tag_23\n  jumpi\n    /* \"#utility.yul\":680:681   */\n  0x00\n    /* \"#utility.yul\":677:678   */\n  dup1\n    /* \"#utility.yul\":670:682   */\n  revert\n    /* \"#utility.yul\":621:684   */\ntag_23:\n    /* \"#utility.yul\":568:690   */\n  pop\n  jump\t// out\n    /* \"#utility.yul\":696:839   */\ntag_13:\n    /* \"#utility.yul\":753:758   */\n  0x00\n    /* \"#utility.yul\":784:790   */\n  dup2\n    /* \"#utility.yul\":778:791   */\n  mload\n    /* \"#utility.yul\":769:791   */\n  swap1\n  pop\n    /* \"#utility.yul\":800:833   */\n  tag_25\n    /* \"#utility.yul\":827:832   */\n  dup2\n    /* \"#utility.yul\":800:833   */\n  tag_12\n  jump\t// in\ntag_25:\n    /* \"#utility.yul\":696:839   */\n  swap3\n  swap2\n  pop\n  pop\n  jump\t// out\n    /* \"#utility.yul\":845:1196   */\ntag_3:\n    /* \"#utility.yul\":915:921   */\n  0x00\n    /* \"#utility.yul\":964:966   */\n  0x20\n    /* \"#utility.yul\":952:961   */\n  dup3\n    /* \"#utility.yul\":943:950   */\n  dup5\n    /* \"#utility.yul\":939:962   */\n  sub\n    /* \"#utility.yul\":935:967   */\n  slt\n    /* \"#utility.yul\":932:1051   */\n  iszero\n  tag_27\n  jumpi\n    /* \"#utility.yul\":970:1049   */\n  tag_28\n  tag_8\n  jump\t// in\ntag_28:\n    /* \"#utility.yul\":932:1051   */\ntag_27:\n    /* \"#utility.yul\":1090:1091   */\n  0x00\n    /* \"#utility.yul\":1115:1179   */\n  tag_29\n    /* \"#utility.yul\":1171:1178   */\n  dup5\n    /* \"#utility.yul\":1162:1168   */\n  dup3\n    /* \"#utility.yul\":1151:1160   */\n  dup6\n    /* \"#utility.yul\":1147:1169   */\n  add\n    /* \"#utility.yul\":1115:1179   */\n  tag_13\n  jump\t// in\ntag_29:\n    /* \"#utility.yul\":1105:1179   */\n  swap2\n  pop\n    /* \"#utility.yul\":1061:1189   */\n  pop\n    /* \"#utility.yul\":845:1196   */\n  swap3\n  swap2\n  pop\n  pop\n  jump\t// out\n    /* \"hackaton/OrganMatching.sol\":93:2638  contract OrganMatching {... */\ntag_6:\n  dataSize(sub_0)\n  dup1\n  dataOffset(sub_0)\n  0x00\n  codecopy\n  0x00\n  return\nstop\n\nsub_0: assembly {\n        /* \"hackaton/OrganMatching.sol\":93:2638  contract OrganMatching {... */\n      mstore(0x40, 0x80)\n      callvalue\n      dup1\n      iszero\n      tag_1\n      jumpi\n      0x00\n      dup1\n      revert\n    tag_1:\n      pop\n      jumpi(tag_2, lt(calldatasize, 0x04))\n      shr(0xe0, calldataload(0x00))\n      dup1\n      0x8da5cb5b\n      gt\n      tag_11\n      jumpi\n      dup1\n      0x8da5cb5b\n      eq\n      tag_7\n      jumpi\n      dup1\n      0x9a34ee92\n      eq\n      tag_8\n      jumpi\n      dup1\n      0xa577589e\n      eq\n      tag_9\n      jumpi\n      dup1\n      0xc407670f\n      eq\n      tag_10\n      jumpi\n      jump(tag_2)\n    tag_11:\n      dup1\n      0x2145efcb\n      eq\n      tag_3\n      jumpi\n      dup1\n      0x3b478249\n      eq\n      tag_4\n      jumpi\n      dup1\n      0x4abfa163\n      eq\n      tag_5\n      jumpi\n      dup1\n      0x693231a4\n      eq\n      tag_6\n      jumpi\n    tag_2:\n      0x00\n      dup1\n      revert\n        /* \"hackaton/OrganMatching.sol\":338:378  mapping(uint => uint) public transplants */\n    tag_3:\n      tag_12\n      0x04\n      dup1\n      calldatasize\n      sub\n      dup2\n      add\n      swap1\n      tag_13\n      swap2\n      swap1\n      tag_14\n      jump\t// in\n    tag_13:\n      tag_15\n      jump\t// in\n    tag_12:\n      mload(0x40)\n      tag_16\n      swap2\n      swap1\n      tag_17\n      jump\t// in\n    tag_16:\n      mload(0x40)\n      dup1\n      swap2\n      sub\n      swap1\n      return\n        /* \"hackaton/OrganMatching.sol\":1321:2235  function findMatch(uint donorId) public onlyOwner returns (uint) {... */\n    tag_4:\n      tag_18\n      0x04\n      dup1\n      calldatasize\n      sub\n      dup2\n      add\n      swap1\n      tag_19\n      swap2\n      swap1\n      tag_14\n      jump\t// in\n    tag_19:\n      tag_20\n      jump\t// in\n    tag_18:\n      mload(0x40)\n      tag_21\n      swap2\n      swap1\n      tag_17\n      jump\t// in\n    tag_21:\n      mload(0x40)\n      dup1\n      swap2\n      sub\n      swap1\n      return\n        /* \"hackaton/OrganMatching.sol\":296:332  mapping(uint => Donor) public donors */\n    tag_5:\n      tag_22\n      0x04\n      dup1\n      calldatasize\n      sub\n      dup2\n      add\n      swap1\n      tag_23\n      swap2\n      swap1\n      tag_14\n      jump\t// in\n    tag_23:\n      tag_24\n      jump\t// in\n    tag_22:\n      mload(0x40)\n      tag_25\n      swap5\n      swap4\n      swap3\n      swap2\n      swap1\n      tag_26\n      jump\t// in\n    tag_25:\n      mload(0x40)\n      dup1\n      swap2\n      sub\n      swap1\n      return\n        /* \"hackaton/OrganMatching.sol\":2254:2630  function getTransplantInfo(uint patientId) public view returns (uint donorId, string memory donorName, string memory donorBlood) {... */\n    tag_6:\n      tag_27\n      0x04\n      dup1\n      calldatasize\n      sub\n      dup2\n      add\n      swap1\n      tag_28\n      swap2\n      swap1\n      tag_14\n      jump\t// in\n    tag_28:\n      tag_29\n      jump\t// in\n    tag_27:\n      mload(0x40)\n      tag_30\n      swap4\n      swap3\n      swap2\n      swap1\n      tag_31\n      jump\t// in\n    tag_30:\n      mload(0x40)\n      dup1\n      swap2\n      sub\n      swap1\n      return\n        /* \"hackaton/OrganMatching.sol\":237:257  address public owner */\n    tag_7:\n      tag_32\n      tag_33\n      jump\t// in\n    tag_32:\n      mload(0x40)\n      tag_34\n      swap2\n      swap1\n      tag_35\n      jump\t// in\n    tag_34:\n      mload(0x40)\n      dup1\n      swap2\n      sub\n      swap1\n      return\n        /* \"hackaton/OrganMatching.sol\":409:453  TransplantRegistry public transplantRegistry */\n    tag_8:\n      tag_36\n      tag_37\n      jump\t// in\n    tag_36:\n      mload(0x40)\n      tag_38\n      swap2\n      swap1\n      tag_39\n      jump\t// in\n    tag_38:\n      mload(0x40)\n      dup1\n      swap2\n      sub\n      swap1\n      return\n        /* \"hackaton/OrganMatching.sol\":1002:1252  function registerDonor(string memory _name, string memory _bloodType) public onlyOwner {... */\n    tag_9:\n      tag_40\n      0x04\n      dup1\n      calldatasize\n      sub\n      dup2\n      add\n      swap1\n      tag_41\n      swap2\n      swap1\n      tag_42\n      jump\t// in\n    tag_41:\n      tag_43\n      jump\t// in\n    tag_40:\n      stop\n        /* \"hackaton/OrganMatching.sol\":263:289  uint public donorCount = 0 */\n    tag_10:\n      tag_44\n      tag_45\n      jump\t// in\n    tag_44:\n      mload(0x40)\n      tag_46\n      swap2\n      swap1\n      tag_17\n      jump\t// in\n    tag_46:\n      mload(0x40)\n      dup1\n      swap2\n      sub\n      swap1\n      return\n        /* \"hackaton/OrganMatching.sol\":338:378  mapping(uint => uint) public transplants */\n    tag_15:\n      mstore(0x20, 0x03)\n      dup1\n      0x00\n      mstore\n      keccak256(0x00, 0x40)\n      0x00\n      swap2\n      pop\n      swap1\n      pop\n      sload\n      dup2\n      jump\t// out\n        /* \"hackaton/OrganMatching.sol\":1321:2235  function findMatch(uint donorId) public onlyOwner returns (uint) {... */\n    tag_20:\n        /* \"hackaton/OrganMatching.sol\":1380:1384  uint */\n      0x00\n        /* \"hackaton/OrganMatching.sol\":732:737  owner */\n      dup1\n      0x00\n      swap1\n      sload\n      swap1\n      0x0100\n      exp\n      swap1\n      div\n      0xffffffffffffffffffffffffffffffffffffffff\n      and\n        /* \"hackaton/OrganMatching.sol\":718:737  msg.sender == owner */\n      0xffffffffffffffffffffffffffffffffffffffff\n      and\n        /* \"hackaton/OrganMatching.sol\":718:728  msg.sender */\n      caller\n        /* \"hackaton/OrganMatching.sol\":718:737  msg.sender == owner */\n      0xffffffffffffffffffffffffffffffffffffffff\n      and\n      eq\n        /* \"hackaton/OrganMatching.sol\":710:778  require(msg.sender == owner, \"Doar owner-ul poate modifica datele!\") */\n      tag_48\n      jumpi\n      mload(0x40)\n      0x08c379a000000000000000000000000000000000000000000000000000000000\n      dup2\n      mstore\n      0x04\n      add\n      tag_49\n      swap1\n      tag_50\n      jump\t// in\n    tag_49:\n      mload(0x40)\n      dup1\n      swap2\n      sub\n      swap1\n      revert\n    tag_48:\n        /* \"hackaton/OrganMatching.sol\":1414:1415  0 */\n      0x00\n        /* \"hackaton/OrganMatching.sol\":1404:1411  donorId */\n      dup3\n        /* \"hackaton/OrganMatching.sol\":1404:1415  donorId > 0 */\n      gt\n        /* \"hackaton/OrganMatching.sol\":1404:1440  donorId > 0 && donorId <= donorCount */\n      dup1\n      iszero\n      tag_52\n      jumpi\n      pop\n        /* \"hackaton/OrganMatching.sol\":1430:1440  donorCount */\n      sload(0x01)\n        /* \"hackaton/OrganMatching.sol\":1419:1426  donorId */\n      dup3\n        /* \"hackaton/OrganMatching.sol\":1419:1440  donorId <= donorCount */\n      gt\n      iszero\n        /* \"hackaton/OrganMatching.sol\":1404:1440  donorId > 0 && donorId <= donorCount */\n    tag_52:\n        /* \"hackaton/OrganMatching.sol\":1396:1464  require(donorId > 0 && donorId <= donorCount, \"Donator inexistent!\") */\n      tag_53\n      jumpi\n      mload(0x40)\n      0x08c379a000000000000000000000000000000000000000000000000000000000\n      dup2\n      mstore\n      0x04\n      add\n      tag_54\n      swap1\n      tag_55\n      jump\t// in\n    tag_54:\n      mload(0x40)\n      dup1\n      swap2\n      sub\n      swap1\n      revert\n    tag_53:\n        /* \"hackaton/OrganMatching.sol\":1482:1488  donors */\n      0x02\n        /* \"hackaton/OrganMatching.sol\":1482:1497  donors[donorId] */\n      0x00\n        /* \"hackaton/OrganMatching.sol\":1489:1496  donorId */\n      dup4\n        /* \"hackaton/OrganMatching.sol\":1482:1497  donors[donorId] */\n      dup2\n      mstore\n      0x20\n      add\n      swap1\n      dup2\n      mstore\n      0x20\n      add\n      0x00\n      keccak256\n        /* \"hackaton/OrganMatching.sol\":1482:1507  donors[donorId].available */\n      0x03\n      add\n      0x00\n      swap1\n      sload\n      swap1\n      0x0100\n      exp\n      swap1\n      div\n      0xff\n      and\n        /* \"hackaton/OrganMatching.sol\":1474:1539  require(donors[donorId].available, \"Donator nu este disponibil!\") */\n      tag_56\n      jumpi\n      mload(0x40)\n      0x08c379a000000000000000000000000000000000000000000000000000000000\n      dup2\n      mstore\n      0x04\n      add\n      tag_57\n      swap1\n      tag_58\n      jump\t// in\n    tag_57:\n      mload(0x40)\n      dup1\n      swap2\n      sub\n      swap1\n      revert\n    tag_56:\n        /* \"hackaton/OrganMatching.sol\":1555:1561  uint i */\n      0x00\n        /* \"hackaton/OrganMatching.sol\":1564:1565  1 */\n      0x01\n        /* \"hackaton/OrganMatching.sol\":1555:1565  uint i = 1 */\n      swap1\n      pop\n        /* \"hackaton/OrganMatching.sol\":1550:2185  for (uint i = 1; i <= transplantRegistry.patientCount(); i++) {... */\n    tag_59:\n        /* \"hackaton/OrganMatching.sol\":1572:1590  transplantRegistry */\n      0x04\n      0x00\n      swap1\n      sload\n      swap1\n      0x0100\n      exp\n      swap1\n      div\n      0xffffffffffffffffffffffffffffffffffffffff\n      and\n        /* \"hackaton/OrganMatching.sol\":1572:1603  transplantRegistry.patientCount */\n      0xffffffffffffffffffffffffffffffffffffffff\n      and\n      0xa0303c41\n        /* \"hackaton/OrganMatching.sol\":1572:1605  transplantRegistry.patientCount() */\n      mload(0x40)\n      dup2\n      0xffffffff\n      and\n      0xe0\n      shl\n      dup2\n      mstore\n      0x04\n      add\n      0x20\n      mload(0x40)\n      dup1\n      dup4\n      sub\n      dup2\n      dup7\n      gas\n      staticcall\n      iszero\n      dup1\n      iszero\n      tag_63\n      jumpi\n      returndatasize\n      0x00\n      dup1\n      returndatacopy\n      revert(0x00, returndatasize)\n    tag_63:\n      pop\n      pop\n      pop\n      pop\n      mload(0x40)\n      returndatasize\n      not(0x1f)\n      0x1f\n      dup3\n      add\n      and\n      dup3\n      add\n      dup1\n      0x40\n      mstore\n      pop\n      dup2\n      add\n      swap1\n      tag_64\n      swap2\n      swap1\n      tag_65\n      jump\t// in\n    tag_64:\n        /* \"hackaton/OrganMatching.sol\":1567:1568  i */\n      dup2\n        /* \"hackaton/OrganMatching.sol\":1567:1605  i <= transplantRegistry.patientCount() */\n      gt\n        /* \"hackaton/OrganMatching.sol\":1550:2185  for (uint i = 1; i <= transplantRegistry.patientCount(); i++) {... */\n      tag_60\n      jumpi\n        /* \"hackaton/OrganMatching.sol\":1627:1652  string memory patientName */\n      0x00\n        /* \"hackaton/OrganMatching.sol\":1654:1680  string memory patientBlood */\n      dup1\n        /* \"hackaton/OrganMatching.sol\":1682:1694  uint urgency */\n      0x00\n        /* \"hackaton/OrganMatching.sol\":1700:1718  transplantRegistry */\n      0x04\n      0x00\n      swap1\n      sload\n      swap1\n      0x0100\n      exp\n      swap1\n      div\n      0xffffffffffffffffffffffffffffffffffffffff\n      and\n        /* \"hackaton/OrganMatching.sol\":1700:1729  transplantRegistry.getPatient */\n      0xffffffffffffffffffffffffffffffffffffffff\n      and\n      0x7d3a6796\n        /* \"hackaton/OrganMatching.sol\":1730:1731  i */\n      dup6\n        /* \"hackaton/OrganMatching.sol\":1700:1732  transplantRegistry.getPatient(i) */\n      mload(0x40)\n      dup3\n      0xffffffff\n      and\n      0xe0\n      shl\n      dup2\n      mstore\n      0x04\n      add\n      tag_66\n      swap2\n      swap1\n      tag_17\n      jump\t// in\n    tag_66:\n      0x00\n      mload(0x40)\n      dup1\n      dup4\n      sub\n      dup2\n      dup7\n      gas\n      staticcall\n      iszero\n      dup1\n      iszero\n      tag_68\n      jumpi\n      returndatasize\n      0x00\n      dup1\n      returndatacopy\n      revert(0x00, returndatasize)\n    tag_68:\n      pop\n      pop\n      pop\n      pop\n      mload(0x40)\n      returndatasize\n      0x00\n      dup3\n      returndatacopy\n      returndatasize\n      not(0x1f)\n      0x1f\n      dup3\n      add\n      and\n      dup3\n      add\n      dup1\n      0x40\n      mstore\n      pop\n      dup2\n      add\n      swap1\n      tag_69\n      swap2\n      swap1\n      tag_70\n      jump\t// in\n    tag_69:\n        /* \"hackaton/OrganMatching.sol\":1626:1732  (string memory patientName, string memory patientBlood, uint urgency, ) = transplantRegistry.getPatient(i) */\n      pop\n      swap3\n      pop\n      swap3\n      pop\n      swap3\n      pop\n        /* \"hackaton/OrganMatching.sol\":1835:1841  donors */\n      0x02\n        /* \"hackaton/OrganMatching.sol\":1835:1850  donors[donorId] */\n      0x00\n        /* \"hackaton/OrganMatching.sol\":1842:1849  donorId */\n      dup8\n        /* \"hackaton/OrganMatching.sol\":1835:1850  donors[donorId] */\n      dup2\n      mstore\n      0x20\n      add\n      swap1\n      dup2\n      mstore\n      0x20\n      add\n      0x00\n      keccak256\n        /* \"hackaton/OrganMatching.sol\":1835:1860  donors[donorId].bloodType */\n      0x02\n      add\n        /* \"hackaton/OrganMatching.sol\":1818:1861  abi.encodePacked(donors[donorId].bloodType) */\n      add(0x20, mload(0x40))\n      tag_71\n      swap2\n      swap1\n      tag_72\n      jump\t// in\n    tag_71:\n      mload(0x40)\n      0x20\n      dup2\n      dup4\n      sub\n      sub\n      dup2\n      mstore\n      swap1\n      0x40\n      mstore\n        /* \"hackaton/OrganMatching.sol\":1808:1862  keccak256(abi.encodePacked(donors[donorId].bloodType)) */\n      dup1\n      mload\n      swap1\n      0x20\n      add\n      keccak256\n        /* \"hackaton/OrganMatching.sol\":1790:1802  patientBlood */\n      dup3\n        /* \"hackaton/OrganMatching.sol\":1773:1803  abi.encodePacked(patientBlood) */\n      add(0x20, mload(0x40))\n      tag_73\n      swap2\n      swap1\n      tag_74\n      jump\t// in\n    tag_73:\n      mload(0x40)\n      0x20\n      dup2\n      dup4\n      sub\n      sub\n      dup2\n      mstore\n      swap1\n      0x40\n      mstore\n        /* \"hackaton/OrganMatching.sol\":1763:1804  keccak256(abi.encodePacked(patientBlood)) */\n      dup1\n      mload\n      swap1\n      0x20\n      add\n      keccak256\n        /* \"hackaton/OrganMatching.sol\":1763:1862  keccak256(abi.encodePacked(patientBlood)) == keccak256(abi.encodePacked(donors[donorId].bloodType)) */\n      sub\n        /* \"hackaton/OrganMatching.sol\":1759:2175  if (keccak256(abi.encodePacked(patientBlood)) == keccak256(abi.encodePacked(donors[donorId].bloodType))) {... */\n      tag_75\n      jumpi\n        /* \"hackaton/OrganMatching.sol\":1910:1915  false */\n      0x00\n        /* \"hackaton/OrganMatching.sol\":1882:1888  donors */\n      0x02\n        /* \"hackaton/OrganMatching.sol\":1882:1897  donors[donorId] */\n      0x00\n        /* \"hackaton/OrganMatching.sol\":1889:1896  donorId */\n      dup9\n        /* \"hackaton/OrganMatching.sol\":1882:1897  donors[donorId] */\n      dup2\n      mstore\n      0x20\n      add\n      swap1\n      dup2\n      mstore\n      0x20\n      add\n      0x00\n      keccak256\n        /* \"hackaton/OrganMatching.sol\":1882:1907  donors[donorId].available */\n      0x03\n      add\n      0x00\n        /* \"hackaton/OrganMatching.sol\":1882:1915  donors[donorId].available = false */\n      0x0100\n      exp\n      dup2\n      sload\n      dup2\n      0xff\n      mul\n      not\n      and\n      swap1\n      dup4\n      iszero\n      iszero\n      mul\n      or\n      swap1\n      sstore\n      pop\n        /* \"hackaton/OrganMatching.sol\":1981:1988  donorId */\n      dup6\n        /* \"hackaton/OrganMatching.sol\":1964:1975  transplants */\n      0x03\n        /* \"hackaton/OrganMatching.sol\":1964:1978  transplants[i] */\n      0x00\n        /* \"hackaton/OrganMatching.sol\":1976:1977  i */\n      dup7\n        /* \"hackaton/OrganMatching.sol\":1964:1978  transplants[i] */\n      dup2\n      mstore\n      0x20\n      add\n      swap1\n      dup2\n      mstore\n      0x20\n      add\n      0x00\n      keccak256\n        /* \"hackaton/OrganMatching.sol\":1964:1988  transplants[i] = donorId */\n      dup2\n      swap1\n      sstore\n      pop\n        /* \"hackaton/OrganMatching.sol\":2033:2090  MatchFound(i, patientName, donorId, donors[donorId].name) */\n      0xd29b4a0c1b4f845b0c433d5f0b9bd408514b149d1aa7ce14cd1530b4b3486a6a\n        /* \"hackaton/OrganMatching.sol\":2044:2045  i */\n      dup5\n        /* \"hackaton/OrganMatching.sol\":2047:2058  patientName */\n      dup5\n        /* \"hackaton/OrganMatching.sol\":2060:2067  donorId */\n      dup9\n        /* \"hackaton/OrganMatching.sol\":2069:2075  donors */\n      0x02\n        /* \"hackaton/OrganMatching.sol\":2069:2084  donors[donorId] */\n      0x00\n        /* \"hackaton/OrganMatching.sol\":2076:2083  donorId */\n      dup12\n        /* \"hackaton/OrganMatching.sol\":2069:2084  donors[donorId] */\n      dup2\n      mstore\n      0x20\n      add\n      swap1\n      dup2\n      mstore\n      0x20\n      add\n      0x00\n      keccak256\n        /* \"hackaton/OrganMatching.sol\":2069:2089  donors[donorId].name */\n      0x01\n      add\n        /* \"hackaton/OrganMatching.sol\":2033:2090  MatchFound(i, patientName, donorId, donors[donorId].name) */\n      mload(0x40)\n      tag_76\n      swap5\n      swap4\n      swap3\n      swap2\n      swap1\n      tag_77\n      jump\t// in\n    tag_76:\n      mload(0x40)\n      dup1\n      swap2\n      sub\n      swap1\n      log1\n        /* \"hackaton/OrganMatching.sol\":2115:2116  i */\n      dup4\n        /* \"hackaton/OrganMatching.sol\":2108:2116  return i */\n      swap5\n      pop\n      pop\n      pop\n      pop\n      pop\n      jump(tag_51)\n        /* \"hackaton/OrganMatching.sol\":1759:2175  if (keccak256(abi.encodePacked(patientBlood)) == keccak256(abi.encodePacked(donors[donorId].bloodType))) {... */\n    tag_75:\n        /* \"hackaton/OrganMatching.sol\":1612:2185  {... */\n      pop\n      pop\n      pop\n        /* \"hackaton/OrganMatching.sol\":1607:1610  i++ */\n      dup1\n      dup1\n      tag_78\n      swap1\n      tag_79\n      jump\t// in\n    tag_78:\n      swap2\n      pop\n      pop\n        /* \"hackaton/OrganMatching.sol\":1550:2185  for (uint i = 1; i <= transplantRegistry.patientCount(); i++) {... */\n      jump(tag_59)\n    tag_60:\n      pop\n        /* \"hackaton/OrganMatching.sol\":2195:2228  revert(\"Nicio potrivire gasita!\") */\n      mload(0x40)\n      0x08c379a000000000000000000000000000000000000000000000000000000000\n      dup2\n      mstore\n      0x04\n      add\n      tag_80\n      swap1\n      tag_81\n      jump\t// in\n    tag_80:\n      mload(0x40)\n      dup1\n      swap2\n      sub\n      swap1\n      revert\n        /* \"hackaton/OrganMatching.sol\":788:789  _ */\n    tag_51:\n        /* \"hackaton/OrganMatching.sol\":1321:2235  function findMatch(uint donorId) public onlyOwner returns (uint) {... */\n      swap2\n      swap1\n      pop\n      jump\t// out\n        /* \"hackaton/OrganMatching.sol\":296:332  mapping(uint => Donor) public donors */\n    tag_24:\n      mstore(0x20, 0x02)\n      dup1\n      0x00\n      mstore\n      keccak256(0x00, 0x40)\n      0x00\n      swap2\n      pop\n      swap1\n      pop\n      dup1\n      0x00\n      add\n      sload\n      swap1\n      dup1\n      0x01\n      add\n      dup1\n      sload\n      tag_82\n      swap1\n      tag_83\n      jump\t// in\n    tag_82:\n      dup1\n      0x1f\n      add\n      0x20\n      dup1\n      swap2\n      div\n      mul\n      0x20\n      add\n      mload(0x40)\n      swap1\n      dup2\n      add\n      0x40\n      mstore\n      dup1\n      swap3\n      swap2\n      swap1\n      dup2\n      dup2\n      mstore\n      0x20\n      add\n      dup3\n      dup1\n      sload\n      tag_84\n      swap1\n      tag_83\n      jump\t// in\n    tag_84:\n      dup1\n      iszero\n      tag_85\n      jumpi\n      dup1\n      0x1f\n      lt\n      tag_86\n      jumpi\n      0x0100\n      dup1\n      dup4\n      sload\n      div\n      mul\n      dup4\n      mstore\n      swap2\n      0x20\n      add\n      swap2\n      jump(tag_85)\n    tag_86:\n      dup3\n      add\n      swap2\n      swap1\n      0x00\n      mstore\n      keccak256(0x00, 0x20)\n      swap1\n    tag_87:\n      dup2\n      sload\n      dup2\n      mstore\n      swap1\n      0x01\n      add\n      swap1\n      0x20\n      add\n      dup1\n      dup4\n      gt\n      tag_87\n      jumpi\n      dup3\n      swap1\n      sub\n      0x1f\n      and\n      dup3\n      add\n      swap2\n    tag_85:\n      pop\n      pop\n      pop\n      pop\n      pop\n      swap1\n      dup1\n      0x02\n      add\n      dup1\n      sload\n      tag_88\n      swap1\n      tag_83\n      jump\t// in\n    tag_88:\n      dup1\n      0x1f\n      add\n      0x20\n      dup1\n      swap2\n      div\n      mul\n      0x20\n      add\n      mload(0x40)\n      swap1\n      dup2\n      add\n      0x40\n      mstore\n      dup1\n      swap3\n      swap2\n      swap1\n      dup2\n      dup2\n      mstore\n      0x20\n      add\n      dup3\n      dup1\n      sload\n      tag_89\n      swap1\n      tag_83\n      jump\t// in\n    tag_89:\n      dup1\n      iszero\n      tag_90\n      jumpi\n      dup1\n      0x1f\n      lt\n      tag_91\n      jumpi\n      0x0100\n      dup1\n      dup4\n      sload\n      div\n      mul\n      dup4\n      mstore\n      swap2\n      0x20\n      add\n      swap2\n      jump(tag_90)\n    tag_91:\n      dup3\n      add\n      swap2\n      swap1\n      0x00\n      mstore\n      keccak256(0x00, 0x20)\n      swap1\n    tag_92:\n      dup2\n      sload\n      dup2\n      mstore\n      swap1\n      0x01\n      add\n      swap1\n      0x20\n      add\n      dup1\n      dup4\n      gt\n      tag_92\n      jumpi\n      dup3\n      swap1\n      sub\n      0x1f\n      and\n      dup3\n      add\n      swap2\n    tag_90:\n      pop\n      pop\n      pop\n      pop\n      pop\n      swap1\n      dup1\n      0x03\n      add\n      0x00\n      swap1\n      sload\n      swap1\n      0x0100\n      exp\n      swap1\n      div\n      0xff\n      and\n      swap1\n      pop\n      dup5\n      jump\t// out\n        /* \"hackaton/OrganMatching.sol\":2254:2630  function getTransplantInfo(uint patientId) public view returns (uint donorId, string memory donorName, string memory donorBlood) {... */\n    tag_29:\n        /* \"hackaton/OrganMatching.sol\":2318:2330  uint donorId */\n      0x00\n        /* \"hackaton/OrganMatching.sol\":2332:2355  string memory donorName */\n      0x60\n        /* \"hackaton/OrganMatching.sol\":2357:2381  string memory donorBlood */\n      dup1\n        /* \"hackaton/OrganMatching.sol\":2427:2428  0 */\n      0x00\n        /* \"hackaton/OrganMatching.sol\":2401:2412  transplants */\n      0x03\n        /* \"hackaton/OrganMatching.sol\":2401:2423  transplants[patientId] */\n      0x00\n        /* \"hackaton/OrganMatching.sol\":2413:2422  patientId */\n      dup7\n        /* \"hackaton/OrganMatching.sol\":2401:2423  transplants[patientId] */\n      dup2\n      mstore\n      0x20\n      add\n      swap1\n      dup2\n      mstore\n      0x20\n      add\n      0x00\n      keccak256\n      sload\n        /* \"hackaton/OrganMatching.sol\":2401:2428  transplants[patientId] != 0 */\n      sub\n        /* \"hackaton/OrganMatching.sol\":2393:2469  require(transplants[patientId] != 0, \"Pacientul nu a primit un transplant!\") */\n      tag_94\n      jumpi\n      mload(0x40)\n      0x08c379a000000000000000000000000000000000000000000000000000000000\n      dup2\n      mstore\n      0x04\n      add\n      tag_95\n      swap1\n      tag_96\n      jump\t// in\n    tag_95:\n      mload(0x40)\n      dup1\n      swap2\n      sub\n      swap1\n      revert\n    tag_94:\n        /* \"hackaton/OrganMatching.sol\":2498:2509  transplants */\n      0x03\n        /* \"hackaton/OrganMatching.sol\":2498:2520  transplants[patientId] */\n      0x00\n        /* \"hackaton/OrganMatching.sol\":2510:2519  patientId */\n      dup6\n        /* \"hackaton/OrganMatching.sol\":2498:2520  transplants[patientId] */\n      dup2\n      mstore\n      0x20\n      add\n      swap1\n      dup2\n      mstore\n      0x20\n      add\n      0x00\n      keccak256\n      sload\n        /* \"hackaton/OrganMatching.sol\":2488:2520  donorId = transplants[patientId] */\n      swap3\n      pop\n        /* \"hackaton/OrganMatching.sol\":2530:2548  Donor memory donor */\n      0x00\n        /* \"hackaton/OrganMatching.sol\":2551:2557  donors */\n      0x02\n        /* \"hackaton/OrganMatching.sol\":2551:2566  donors[donorId] */\n      0x00\n        /* \"hackaton/OrganMatching.sol\":2558:2565  donorId */\n      dup6\n        /* \"hackaton/OrganMatching.sol\":2551:2566  donors[donorId] */\n      dup2\n      mstore\n      0x20\n      add\n      swap1\n      dup2\n      mstore\n      0x20\n      add\n      0x00\n      keccak256\n        /* \"hackaton/OrganMatching.sol\":2530:2566  Donor memory donor = donors[donorId] */\n      mload(0x40)\n      dup1\n      0x80\n      add\n      0x40\n      mstore\n      swap1\n      dup2\n      0x00\n      dup3\n      add\n      sload\n      dup2\n      mstore\n      0x20\n      add\n      0x01\n      dup3\n      add\n      dup1\n      sload\n      tag_97\n      swap1\n      tag_83\n      jump\t// in\n    tag_97:\n      dup1\n      0x1f\n      add\n      0x20\n      dup1\n      swap2\n      div\n      mul\n      0x20\n      add\n      mload(0x40)\n      swap1\n      dup2\n      add\n      0x40\n      mstore\n      dup1\n      swap3\n      swap2\n      swap1\n      dup2\n      dup2\n      mstore\n      0x20\n      add\n      dup3\n      dup1\n      sload\n      tag_98\n      swap1\n      tag_83\n      jump\t// in\n    tag_98:\n      dup1\n      iszero\n      tag_99\n      jumpi\n      dup1\n      0x1f\n      lt\n      tag_100\n      jumpi\n      0x0100\n      dup1\n      dup4\n      sload\n      div\n      mul\n      dup4\n      mstore\n      swap2\n      0x20\n      add\n      swap2\n      jump(tag_99)\n    tag_100:\n      dup3\n      add\n      swap2\n      swap1\n      0x00\n      mstore\n      keccak256(0x00, 0x20)\n      swap1\n    tag_101:\n      dup2\n      sload\n      dup2\n      mstore\n      swap1\n      0x01\n      add\n      swap1\n      0x20\n      add\n      dup1\n      dup4\n      gt\n      tag_101\n      jumpi\n      dup3\n      swap1\n      sub\n      0x1f\n      and\n      dup3\n      add\n      swap2\n    tag_99:\n      pop\n      pop\n      pop\n      pop\n      pop\n      dup2\n      mstore\n      0x20\n      add\n      0x02\n      dup3\n      add\n      dup1\n      sload\n      tag_102\n      swap1\n      tag_83\n      jump\t// in\n    tag_102:\n      dup1\n      0x1f\n      add\n      0x20\n      dup1\n      swap2\n      div\n      mul\n      0x20\n      add\n      mload(0x40)\n      swap1\n      dup2\n      add\n      0x40\n      mstore\n      dup1\n      swap3\n      swap2\n      swap1\n      dup2\n      dup2\n      mstore\n      0x20\n      add\n      dup3\n      dup1\n      sload\n      tag_103\n      swap1\n      tag_83\n      jump\t// in\n    tag_103:\n      dup1\n      iszero\n      tag_104\n      jumpi\n      dup1\n      0x1f\n      lt\n      tag_105\n      jumpi\n      0x0100\n      dup1\n      dup4\n      sload\n      div\n      mul\n      dup4\n      mstore\n      swap2\n      0x20\n      add\n      swap2\n      jump(tag_104)\n    tag_105:\n      dup3\n      add\n      swap2\n      swap1\n      0x00\n      mstore\n      keccak256(0x00, 0x20)\n      swap1\n    tag_106:\n      dup2\n      sload\n      dup2\n      mstore\n      swap1\n      0x01\n      add\n      swap1\n      0x20\n      add\n      dup1\n      dup4\n      gt\n      tag_106\n      jumpi\n      dup3\n      swap1\n      sub\n      0x1f\n      and\n      dup3\n      add\n      swap2\n    tag_104:\n      pop\n      pop\n      pop\n      pop\n      pop\n      dup2\n      mstore\n      0x20\n      add\n      0x03\n      dup3\n      add\n      0x00\n      swap1\n      sload\n      swap1\n      0x0100\n      exp\n      swap1\n      div\n      0xff\n      and\n      iszero\n      iszero\n      iszero\n      iszero\n      dup2\n      mstore\n      pop\n      pop\n      swap1\n      pop\n        /* \"hackaton/OrganMatching.sol\":2585:2590  donor */\n      dup1\n        /* \"hackaton/OrganMatching.sol\":2585:2593  donor.id */\n      0x00\n      add\n      mload\n        /* \"hackaton/OrganMatching.sol\":2595:2600  donor */\n      dup2\n        /* \"hackaton/OrganMatching.sol\":2595:2605  donor.name */\n      0x20\n      add\n      mload\n        /* \"hackaton/OrganMatching.sol\":2607:2612  donor */\n      dup3\n        /* \"hackaton/OrganMatching.sol\":2607:2622  donor.bloodType */\n      0x40\n      add\n      mload\n        /* \"hackaton/OrganMatching.sol\":2577:2623  return (donor.id, donor.name, donor.bloodType) */\n      swap4\n      pop\n      swap4\n      pop\n      swap4\n      pop\n      pop\n        /* \"hackaton/OrganMatching.sol\":2254:2630  function getTransplantInfo(uint patientId) public view returns (uint donorId, string memory donorName, string memory donorBlood) {... */\n      swap2\n      swap4\n      swap1\n      swap3\n      pop\n      jump\t// out\n        /* \"hackaton/OrganMatching.sol\":237:257  address public owner */\n    tag_33:\n      0x00\n      dup1\n      sload\n      swap1\n      0x0100\n      exp\n      swap1\n      div\n      0xffffffffffffffffffffffffffffffffffffffff\n      and\n      dup2\n      jump\t// out\n        /* \"hackaton/OrganMatching.sol\":409:453  TransplantRegistry public transplantRegistry */\n    tag_37:\n      0x04\n      0x00\n      swap1\n      sload\n      swap1\n      0x0100\n      exp\n      swap1\n      div\n      0xffffffffffffffffffffffffffffffffffffffff\n      and\n      dup2\n      jump\t// out\n        /* \"hackaton/OrganMatching.sol\":1002:1252  function registerDonor(string memory _name, string memory _bloodType) public onlyOwner {... */\n    tag_43:\n        /* \"hackaton/OrganMatching.sol\":732:737  owner */\n      0x00\n      dup1\n      sload\n      swap1\n      0x0100\n      exp\n      swap1\n      div\n      0xffffffffffffffffffffffffffffffffffffffff\n      and\n        /* \"hackaton/OrganMatching.sol\":718:737  msg.sender == owner */\n      0xffffffffffffffffffffffffffffffffffffffff\n      and\n        /* \"hackaton/OrganMatching.sol\":718:728  msg.sender */\n      caller\n        /* \"hackaton/OrganMatching.sol\":718:737  msg.sender == owner */\n      0xffffffffffffffffffffffffffffffffffffffff\n      and\n      eq\n        /* \"hackaton/OrganMatching.sol\":710:778  require(msg.sender == owner, \"Doar owner-ul poate modifica datele!\") */\n      tag_108\n      jumpi\n      mload(0x40)\n      0x08c379a000000000000000000000000000000000000000000000000000000000\n      dup2\n      mstore\n      0x04\n      add\n      tag_109\n      swap1\n      tag_50\n      jump\t// in\n    tag_109:\n      mload(0x40)\n      dup1\n      swap2\n      sub\n      swap1\n      revert\n    tag_108:\n        /* \"hackaton/OrganMatching.sol\":1099:1109  donorCount */\n      0x01\n      0x00\n        /* \"hackaton/OrganMatching.sol\":1099:1111  donorCount++ */\n      dup2\n      sload\n      dup1\n      swap3\n      swap2\n      swap1\n      tag_111\n      swap1\n      tag_79\n      jump\t// in\n    tag_111:\n      swap2\n      swap1\n      pop\n      sstore\n      pop\n        /* \"hackaton/OrganMatching.sol\":1142:1184  Donor(donorCount, _name, _bloodType, true) */\n      mload(0x40)\n      dup1\n      0x80\n      add\n      0x40\n      mstore\n      dup1\n        /* \"hackaton/OrganMatching.sol\":1148:1158  donorCount */\n      sload(0x01)\n        /* \"hackaton/OrganMatching.sol\":1142:1184  Donor(donorCount, _name, _bloodType, true) */\n      dup2\n      mstore\n      0x20\n      add\n        /* \"hackaton/OrganMatching.sol\":1160:1165  _name */\n      dup4\n        /* \"hackaton/OrganMatching.sol\":1142:1184  Donor(donorCount, _name, _bloodType, true) */\n      dup2\n      mstore\n      0x20\n      add\n        /* \"hackaton/OrganMatching.sol\":1167:1177  _bloodType */\n      dup3\n        /* \"hackaton/OrganMatching.sol\":1142:1184  Donor(donorCount, _name, _bloodType, true) */\n      dup2\n      mstore\n      0x20\n      add\n        /* \"hackaton/OrganMatching.sol\":1179:1183  true */\n      0x01\n        /* \"hackaton/OrganMatching.sol\":1142:1184  Donor(donorCount, _name, _bloodType, true) */\n      iszero\n      iszero\n      dup2\n      mstore\n      pop\n        /* \"hackaton/OrganMatching.sol\":1121:1127  donors */\n      0x02\n        /* \"hackaton/OrganMatching.sol\":1121:1139  donors[donorCount] */\n      0x00\n        /* \"hackaton/OrganMatching.sol\":1128:1138  donorCount */\n      sload(0x01)\n        /* \"hackaton/OrganMatching.sol\":1121:1139  donors[donorCount] */\n      dup2\n      mstore\n      0x20\n      add\n      swap1\n      dup2\n      mstore\n      0x20\n      add\n      0x00\n      keccak256\n        /* \"hackaton/OrganMatching.sol\":1121:1184  donors[donorCount] = Donor(donorCount, _name, _bloodType, true) */\n      0x00\n      dup3\n      add\n      mload\n      dup2\n      0x00\n      add\n      sstore\n      0x20\n      dup3\n      add\n      mload\n      dup2\n      0x01\n      add\n      swap1\n      dup2\n      tag_112\n      swap2\n      swap1\n      tag_113\n      jump\t// in\n    tag_112:\n      pop\n      0x40\n      dup3\n      add\n      mload\n      dup2\n      0x02\n      add\n      swap1\n      dup2\n      tag_114\n      swap2\n      swap1\n      tag_113\n      jump\t// in\n    tag_114:\n      pop\n      0x60\n      dup3\n      add\n      mload\n      dup2\n      0x03\n      add\n      exp(0x0100, 0x00)\n      dup2\n      sload\n      dup2\n      0xff\n      mul\n      not\n      and\n      swap1\n      dup4\n      iszero\n      iszero\n      mul\n      or\n      swap1\n      sstore\n      pop\n      swap1\n      pop\n      pop\n        /* \"hackaton/OrganMatching.sol\":1199:1245  DonorRegistered(donorCount, _name, _bloodType) */\n      0x13f1476aa61e2107f46e6bc435eb6d18b382646af69e8591ea83e348641b6e7c\n        /* \"hackaton/OrganMatching.sol\":1215:1225  donorCount */\n      sload(0x01)\n        /* \"hackaton/OrganMatching.sol\":1227:1232  _name */\n      dup4\n        /* \"hackaton/OrganMatching.sol\":1234:1244  _bloodType */\n      dup4\n        /* \"hackaton/OrganMatching.sol\":1199:1245  DonorRegistered(donorCount, _name, _bloodType) */\n      mload(0x40)\n      tag_115\n      swap4\n      swap3\n      swap2\n      swap1\n      tag_31\n      jump\t// in\n    tag_115:\n      mload(0x40)\n      dup1\n      swap2\n      sub\n      swap1\n      log1\n        /* \"hackaton/OrganMatching.sol\":1002:1252  function registerDonor(string memory _name, string memory _bloodType) public onlyOwner {... */\n      pop\n      pop\n      jump\t// out\n        /* \"hackaton/OrganMatching.sol\":263:289  uint public donorCount = 0 */\n    tag_45:\n      sload(0x01)\n      dup2\n      jump\t// out\n        /* \"#utility.yul\":7:82   */\n    tag_116:\n        /* \"#utility.yul\":40:46   */\n      0x00\n        /* \"#utility.yul\":73:75   */\n      0x40\n        /* \"#utility.yul\":67:76   */\n      mload\n        /* \"#utility.yul\":57:76   */\n      swap1\n      pop\n        /* \"#utility.yul\":7:82   */\n      swap1\n      jump\t// out\n        /* \"#utility.yul\":88:205   */\n    tag_117:\n        /* \"#utility.yul\":197:198   */\n      0x00\n        /* \"#utility.yul\":194:195   */\n      dup1\n        /* \"#utility.yul\":187:199   */\n      revert\n        /* \"#utility.yul\":211:328   */\n    tag_118:\n        /* \"#utility.yul\":320:321   */\n      0x00\n        /* \"#utility.yul\":317:318   */\n      dup1\n        /* \"#utility.yul\":310:322   */\n      revert\n        /* \"#utility.yul\":334:411   */\n    tag_119:\n        /* \"#utility.yul\":371:378   */\n      0x00\n        /* \"#utility.yul\":400:405   */\n      dup2\n        /* \"#utility.yul\":389:405   */\n      swap1\n      pop\n        /* \"#utility.yul\":334:411   */\n      swap2\n      swap1\n      pop\n      jump\t// out\n        /* \"#utility.yul\":417:539   */\n    tag_120:\n        /* \"#utility.yul\":490:514   */\n      tag_186\n        /* \"#utility.yul\":508:513   */\n      dup2\n        /* \"#utility.yul\":490:514   */\n      tag_119\n      jump\t// in\n    tag_186:\n        /* \"#utility.yul\":483:488   */\n      dup2\n        /* \"#utility.yul\":480:515   */\n      eq\n        /* \"#utility.yul\":470:533   */\n      tag_187\n      jumpi\n        /* \"#utility.yul\":529:530   */\n      0x00\n        /* \"#utility.yul\":526:527   */\n      dup1\n        /* \"#utility.yul\":519:531   */\n      revert\n        /* \"#utility.yul\":470:533   */\n    tag_187:\n        /* \"#utility.yul\":417:539   */\n      pop\n      jump\t// out\n        /* \"#utility.yul\":545:684   */\n    tag_121:\n        /* \"#utility.yul\":591:596   */\n      0x00\n        /* \"#utility.yul\":629:635   */\n      dup2\n        /* \"#utility.yul\":616:636   */\n      calldataload\n        /* \"#utility.yul\":607:636   */\n      swap1\n      pop\n        /* \"#utility.yul\":645:678   */\n      tag_189\n        /* \"#utility.yul\":672:677   */\n      dup2\n        /* \"#utility.yul\":645:678   */\n      tag_120\n      jump\t// in\n    tag_189:\n        /* \"#utility.yul\":545:684   */\n      swap3\n      swap2\n      pop\n      pop\n      jump\t// out\n        /* \"#utility.yul\":690:1019   */\n    tag_14:\n        /* \"#utility.yul\":749:755   */\n      0x00\n        /* \"#utility.yul\":798:800   */\n      0x20\n        /* \"#utility.yul\":786:795   */\n      dup3\n        /* \"#utility.yul\":777:784   */\n      dup5\n        /* \"#utility.yul\":773:796   */\n      sub\n        /* \"#utility.yul\":769:801   */\n      slt\n        /* \"#utility.yul\":766:885   */\n      iszero\n      tag_191\n      jumpi\n        /* \"#utility.yul\":804:883   */\n      tag_192\n      tag_117\n      jump\t// in\n    tag_192:\n        /* \"#utility.yul\":766:885   */\n    tag_191:\n        /* \"#utility.yul\":924:925   */\n      0x00\n        /* \"#utility.yul\":949:1002   */\n      tag_193\n        /* \"#utility.yul\":994:1001   */\n      dup5\n        /* \"#utility.yul\":985:991   */\n      dup3\n        /* \"#utility.yul\":974:983   */\n      dup6\n        /* \"#utility.yul\":970:992   */\n      add\n        /* \"#utility.yul\":949:1002   */\n      tag_121\n      jump\t// in\n    tag_193:\n        /* \"#utility.yul\":939:1002   */\n      swap2\n      pop\n        /* \"#utility.yul\":895:1012   */\n      pop\n        /* \"#utility.yul\":690:1019   */\n      swap3\n      swap2\n      pop\n      pop\n      jump\t// out\n        /* \"#utility.yul\":1025:1143   */\n    tag_122:\n        /* \"#utility.yul\":1112:1136   */\n      tag_195\n        /* \"#utility.yul\":1130:1135   */\n      dup2\n        /* \"#utility.yul\":1112:1136   */\n      tag_119\n      jump\t// in\n    tag_195:\n        /* \"#utility.yul\":1107:1110   */\n      dup3\n        /* \"#utility.yul\":1100:1137   */\n      mstore\n        /* \"#utility.yul\":1025:1143   */\n      pop\n      pop\n      jump\t// out\n        /* \"#utility.yul\":1149:1371   */\n    tag_17:\n        /* \"#utility.yul\":1242:1246   */\n      0x00\n        /* \"#utility.yul\":1280:1282   */\n      0x20\n        /* \"#utility.yul\":1269:1278   */\n      dup3\n        /* \"#utility.yul\":1265:1283   */\n      add\n        /* \"#utility.yul\":1257:1283   */\n      swap1\n      pop\n        /* \"#utility.yul\":1293:1364   */\n      tag_197\n        /* \"#utility.yul\":1361:1362   */\n      0x00\n        /* \"#utility.yul\":1350:1359   */\n      dup4\n        /* \"#utility.yul\":1346:1363   */\n      add\n        /* \"#utility.yul\":1337:1343   */\n      dup5\n        /* \"#utility.yul\":1293:1364   */\n      tag_122\n      jump\t// in\n    tag_197:\n        /* \"#utility.yul\":1149:1371   */\n      swap3\n      swap2\n      pop\n      pop\n      jump\t// out\n        /* \"#utility.yul\":1377:1476   */\n    tag_123:\n        /* \"#utility.yul\":1429:1435   */\n      0x00\n        /* \"#utility.yul\":1463:1468   */\n      dup2\n        /* \"#utility.yul\":1457:1469   */\n      mload\n        /* \"#utility.yul\":1447:1469   */\n      swap1\n      pop\n        /* \"#utility.yul\":1377:1476   */\n      swap2\n      swap1\n      pop\n      jump\t// out\n        /* \"#utility.yul\":1482:1651   */\n    tag_124:\n        /* \"#utility.yul\":1566:1577   */\n      0x00\n        /* \"#utility.yul\":1600:1606   */\n      dup3\n        /* \"#utility.yul\":1595:1598   */\n      dup3\n        /* \"#utility.yul\":1588:1607   */\n      mstore\n        /* \"#utility.yul\":1640:1644   */\n      0x20\n        /* \"#utility.yul\":1635:1638   */\n      dup3\n        /* \"#utility.yul\":1631:1645   */\n      add\n        /* \"#utility.yul\":1616:1645   */\n      swap1\n      pop\n        /* \"#utility.yul\":1482:1651   */\n      swap3\n      swap2\n      pop\n      pop\n      jump\t// out\n        /* \"#utility.yul\":1657:1796   */\n    tag_125:\n        /* \"#utility.yul\":1746:1752   */\n      dup3\n        /* \"#utility.yul\":1741:1744   */\n      dup2\n        /* \"#utility.yul\":1736:1739   */\n      dup4\n        /* \"#utility.yul\":1730:1753   */\n      mcopy\n        /* \"#utility.yul\":1787:1788   */\n      0x00\n        /* \"#utility.yul\":1778:1784   */\n      dup4\n        /* \"#utility.yul\":1773:1776   */\n      dup4\n        /* \"#utility.yul\":1769:1785   */\n      add\n        /* \"#utility.yul\":1762:1789   */\n      mstore\n        /* \"#utility.yul\":1657:1796   */\n      pop\n      pop\n      pop\n      jump\t// out\n        /* \"#utility.yul\":1802:1904   */\n    tag_126:\n        /* \"#utility.yul\":1843:1849   */\n      0x00\n        /* \"#utility.yul\":1894:1896   */\n      0x1f\n        /* \"#utility.yul\":1890:1897   */\n      not\n        /* \"#utility.yul\":1885:1887   */\n      0x1f\n        /* \"#utility.yul\":1878:1883   */\n      dup4\n        /* \"#utility.yul\":1874:1888   */\n      add\n        /* \"#utility.yul\":1870:1898   */\n      and\n        /* \"#utility.yul\":1860:1898   */\n      swap1\n      pop\n        /* \"#utility.yul\":1802:1904   */\n      swap2\n      swap1\n      pop\n      jump\t// out\n        /* \"#utility.yul\":1910:2287   */\n    tag_127:\n        /* \"#utility.yul\":1998:2001   */\n      0x00\n        /* \"#utility.yul\":2026:2065   */\n      tag_203\n        /* \"#utility.yul\":2059:2064   */\n      dup3\n        /* \"#utility.yul\":2026:2065   */\n      tag_123\n      jump\t// in\n    tag_203:\n        /* \"#utility.yul\":2081:2152   */\n      tag_204\n        /* \"#utility.yul\":2145:2151   */\n      dup2\n        /* \"#utility.yul\":2140:2143   */\n      dup6\n        /* \"#utility.yul\":2081:2152   */\n      tag_124\n      jump\t// in\n    tag_204:\n        /* \"#utility.yul\":2074:2152   */\n      swap4\n      pop\n        /* \"#utility.yul\":2161:2226   */\n      tag_205\n        /* \"#utility.yul\":2219:2225   */\n      dup2\n        /* \"#utility.yul\":2214:2217   */\n      dup6\n        /* \"#utility.yul\":2207:2211   */\n      0x20\n        /* \"#utility.yul\":2200:2205   */\n      dup7\n        /* \"#utility.yul\":2196:2212   */\n      add\n        /* \"#utility.yul\":2161:2226   */\n      tag_125\n      jump\t// in\n    tag_205:\n        /* \"#utility.yul\":2251:2280   */\n      tag_206\n        /* \"#utility.yul\":2273:2279   */\n      dup2\n        /* \"#utility.yul\":2251:2280   */\n      tag_126\n      jump\t// in\n    tag_206:\n        /* \"#utility.yul\":2246:2249   */\n      dup5\n        /* \"#utility.yul\":2242:2281   */\n      add\n        /* \"#utility.yul\":2235:2281   */\n      swap2\n      pop\n        /* \"#utility.yul\":2002:2287   */\n      pop\n        /* \"#utility.yul\":1910:2287   */\n      swap3\n      swap2\n      pop\n      pop\n      jump\t// out\n        /* \"#utility.yul\":2293:2383   */\n    tag_128:\n        /* \"#utility.yul\":2327:2334   */\n      0x00\n        /* \"#utility.yul\":2370:2375   */\n      dup2\n        /* \"#utility.yul\":2363:2376   */\n      iszero\n        /* \"#utility.yul\":2356:2377   */\n      iszero\n        /* \"#utility.yul\":2345:2377   */\n      swap1\n      pop\n        /* \"#utility.yul\":2293:2383   */\n      swap2\n      swap1\n      pop\n      jump\t// out\n        /* \"#utility.yul\":2389:2498   */\n    tag_129:\n        /* \"#utility.yul\":2470:2491   */\n      tag_209\n        /* \"#utility.yul\":2485:2490   */\n      dup2\n        /* \"#utility.yul\":2470:2491   */\n      tag_128\n      jump\t// in\n    tag_209:\n        /* \"#utility.yul\":2465:2468   */\n      dup3\n        /* \"#utility.yul\":2458:2492   */\n      mstore\n        /* \"#utility.yul\":2389:2498   */\n      pop\n      pop\n      jump\t// out\n        /* \"#utility.yul\":2504:3227   */\n    tag_26:\n        /* \"#utility.yul\":2715:2719   */\n      0x00\n        /* \"#utility.yul\":2753:2756   */\n      0x80\n        /* \"#utility.yul\":2742:2751   */\n      dup3\n        /* \"#utility.yul\":2738:2757   */\n      add\n        /* \"#utility.yul\":2730:2757   */\n      swap1\n      pop\n        /* \"#utility.yul\":2767:2838   */\n      tag_211\n        /* \"#utility.yul\":2835:2836   */\n      0x00\n        /* \"#utility.yul\":2824:2833   */\n      dup4\n        /* \"#utility.yul\":2820:2837   */\n      add\n        /* \"#utility.yul\":2811:2817   */\n      dup8\n        /* \"#utility.yul\":2767:2838   */\n      tag_122\n      jump\t// in\n    tag_211:\n        /* \"#utility.yul\":2885:2894   */\n      dup2\n        /* \"#utility.yul\":2879:2883   */\n      dup2\n        /* \"#utility.yul\":2875:2895   */\n      sub\n        /* \"#utility.yul\":2870:2872   */\n      0x20\n        /* \"#utility.yul\":2859:2868   */\n      dup4\n        /* \"#utility.yul\":2855:2873   */\n      add\n        /* \"#utility.yul\":2848:2896   */\n      mstore\n        /* \"#utility.yul\":2913:2991   */\n      tag_212\n        /* \"#utility.yul\":2986:2990   */\n      dup2\n        /* \"#utility.yul\":2977:2983   */\n      dup7\n        /* \"#utility.yul\":2913:2991   */\n      tag_127\n      jump\t// in\n    tag_212:\n        /* \"#utility.yul\":2905:2991   */\n      swap1\n      pop\n        /* \"#utility.yul\":3038:3047   */\n      dup2\n        /* \"#utility.yul\":3032:3036   */\n      dup2\n        /* \"#utility.yul\":3028:3048   */\n      sub\n        /* \"#utility.yul\":3023:3025   */\n      0x40\n        /* \"#utility.yul\":3012:3021   */\n      dup4\n        /* \"#utility.yul\":3008:3026   */\n      add\n        /* \"#utility.yul\":3001:3049   */\n      mstore\n        /* \"#utility.yul\":3066:3144   */\n      tag_213\n        /* \"#utility.yul\":3139:3143   */\n      dup2\n        /* \"#utility.yul\":3130:3136   */\n      dup6\n        /* \"#utility.yul\":3066:3144   */\n      tag_127\n      jump\t// in\n    tag_213:\n        /* \"#utility.yul\":3058:3144   */\n      swap1\n      pop\n        /* \"#utility.yul\":3154:3220   */\n      tag_214\n        /* \"#utility.yul\":3216:3218   */\n      0x60\n        /* \"#utility.yul\":3205:3214   */\n      dup4\n        /* \"#utility.yul\":3201:3219   */\n      add\n        /* \"#utility.yul\":3192:3198   */\n      dup5\n        /* \"#utility.yul\":3154:3220   */\n      tag_129\n      jump\t// in\n    tag_214:\n        /* \"#utility.yul\":2504:3227   */\n      swap6\n      swap5\n      pop\n      pop\n      pop\n      pop\n      pop\n      jump\t// out\n        /* \"#utility.yul\":3233:3857   */\n    tag_31:\n        /* \"#utility.yul\":3422:3426   */\n      0x00\n        /* \"#utility.yul\":3460:3462   */\n      0x60\n        /* \"#utility.yul\":3449:3458   */\n      dup3\n        /* \"#utility.yul\":3445:3463   */\n      add\n        /* \"#utility.yul\":3437:3463   */\n      swap1\n      pop\n        /* \"#utility.yul\":3473:3544   */\n      tag_216\n        /* \"#utility.yul\":3541:3542   */\n      0x00\n        /* \"#utility.yul\":3530:3539   */\n      dup4\n        /* \"#utility.yul\":3526:3543   */\n      add\n        /* \"#utility.yul\":3517:3523   */\n      dup7\n        /* \"#utility.yul\":3473:3544   */\n      tag_122\n      jump\t// in\n    tag_216:\n        /* \"#utility.yul\":3591:3600   */\n      dup2\n        /* \"#utility.yul\":3585:3589   */\n      dup2\n        /* \"#utility.yul\":3581:3601   */\n      sub\n        /* \"#utility.yul\":3576:3578   */\n      0x20\n        /* \"#utility.yul\":3565:3574   */\n      dup4\n        /* \"#utility.yul\":3561:3579   */\n      add\n        /* \"#utility.yul\":3554:3602   */\n      mstore\n        /* \"#utility.yul\":3619:3697   */\n      tag_217\n        /* \"#utility.yul\":3692:3696   */\n      dup2\n        /* \"#utility.yul\":3683:3689   */\n      dup6\n        /* \"#utility.yul\":3619:3697   */\n      tag_127\n      jump\t// in\n    tag_217:\n        /* \"#utility.yul\":3611:3697   */\n      swap1\n      pop\n        /* \"#utility.yul\":3744:3753   */\n      dup2\n        /* \"#utility.yul\":3738:3742   */\n      dup2\n        /* \"#utility.yul\":3734:3754   */\n      sub\n        /* \"#utility.yul\":3729:3731   */\n      0x40\n        /* \"#utility.yul\":3718:3727   */\n      dup4\n        /* \"#utility.yul\":3714:3732   */\n      add\n        /* \"#utility.yul\":3707:3755   */\n      mstore\n        /* \"#utility.yul\":3772:3850   */\n      tag_218\n        /* \"#utility.yul\":3845:3849   */\n      dup2\n        /* \"#utility.yul\":3836:3842   */\n      dup5\n        /* \"#utility.yul\":3772:3850   */\n      tag_127\n      jump\t// in\n    tag_218:\n        /* \"#utility.yul\":3764:3850   */\n      swap1\n      pop\n        /* \"#utility.yul\":3233:3857   */\n      swap5\n      swap4\n      pop\n      pop\n      pop\n      pop\n      jump\t// out\n        /* \"#utility.yul\":3863:3989   */\n    tag_130:\n        /* \"#utility.yul\":3900:3907   */\n      0x00\n        /* \"#utility.yul\":3940:3982   */\n      0xffffffffffffffffffffffffffffffffffffffff\n        /* \"#utility.yul\":3933:3938   */\n      dup3\n        /* \"#utility.yul\":3929:3983   */\n      and\n        /* \"#utility.yul\":3918:3983   */\n      swap1\n      pop\n        /* \"#utility.yul\":3863:3989   */\n      swap2\n      swap1\n      pop\n      jump\t// out\n        /* \"#utility.yul\":3995:4091   */\n    tag_131:\n        /* \"#utility.yul\":4032:4039   */\n      0x00\n        /* \"#utility.yul\":4061:4085   */\n      tag_221\n        /* \"#utility.yul\":4079:4084   */\n      dup3\n        /* \"#utility.yul\":4061:4085   */\n      tag_130\n      jump\t// in\n    tag_221:\n        /* \"#utility.yul\":4050:4085   */\n      swap1\n      pop\n        /* \"#utility.yul\":3995:4091   */\n      swap2\n      swap1\n      pop\n      jump\t// out\n        /* \"#utility.yul\":4097:4215   */\n    tag_132:\n        /* \"#utility.yul\":4184:4208   */\n      tag_223\n        /* \"#utility.yul\":4202:4207   */\n      dup2\n        /* \"#utility.yul\":4184:4208   */\n      tag_131\n      jump\t// in\n    tag_223:\n        /* \"#utility.yul\":4179:4182   */\n      dup3\n        /* \"#utility.yul\":4172:4209   */\n      mstore\n        /* \"#utility.yul\":4097:4215   */\n      pop\n      pop\n      jump\t// out\n        /* \"#utility.yul\":4221:4443   */\n    tag_35:\n        /* \"#utility.yul\":4314:4318   */\n      0x00\n        /* \"#utility.yul\":4352:4354   */\n      0x20\n        /* \"#utility.yul\":4341:4350   */\n      dup3\n        /* \"#utility.yul\":4337:4355   */\n      add\n        /* \"#utility.yul\":4329:4355   */\n      swap1\n      pop\n        /* \"#utility.yul\":4365:4436   */\n      tag_225\n        /* \"#utility.yul\":4433:4434   */\n      0x00\n        /* \"#utility.yul\":4422:4431   */\n      dup4\n        /* \"#utility.yul\":4418:4435   */\n      add\n        /* \"#utility.yul\":4409:4415   */\n      dup5\n        /* \"#utility.yul\":4365:4436   */\n      tag_132\n      jump\t// in\n    tag_225:\n        /* \"#utility.yul\":4221:4443   */\n      swap3\n      swap2\n      pop\n      pop\n      jump\t// out\n        /* \"#utility.yul\":4449:4509   */\n    tag_133:\n        /* \"#utility.yul\":4477:4480   */\n      0x00\n        /* \"#utility.yul\":4498:4503   */\n      dup2\n        /* \"#utility.yul\":4491:4503   */\n      swap1\n      pop\n        /* \"#utility.yul\":4449:4509   */\n      swap2\n      swap1\n      pop\n      jump\t// out\n        /* \"#utility.yul\":4515:4657   */\n    tag_134:\n        /* \"#utility.yul\":4565:4574   */\n      0x00\n        /* \"#utility.yul\":4598:4651   */\n      tag_228\n        /* \"#utility.yul\":4616:4650   */\n      tag_229\n        /* \"#utility.yul\":4625:4649   */\n      tag_230\n        /* \"#utility.yul\":4643:4648   */\n      dup5\n        /* \"#utility.yul\":4625:4649   */\n      tag_130\n      jump\t// in\n    tag_230:\n        /* \"#utility.yul\":4616:4650   */\n      tag_133\n      jump\t// in\n    tag_229:\n        /* \"#utility.yul\":4598:4651   */\n      tag_130\n      jump\t// in\n    tag_228:\n        /* \"#utility.yul\":4585:4651   */\n      swap1\n      pop\n        /* \"#utility.yul\":4515:4657   */\n      swap2\n      swap1\n      pop\n      jump\t// out\n        /* \"#utility.yul\":4663:4789   */\n    tag_135:\n        /* \"#utility.yul\":4713:4722   */\n      0x00\n        /* \"#utility.yul\":4746:4783   */\n      tag_232\n        /* \"#utility.yul\":4777:4782   */\n      dup3\n        /* \"#utility.yul\":4746:4783   */\n      tag_134\n      jump\t// in\n    tag_232:\n        /* \"#utility.yul\":4733:4783   */\n      swap1\n      pop\n        /* \"#utility.yul\":4663:4789   */\n      swap2\n      swap1\n      pop\n      jump\t// out\n        /* \"#utility.yul\":4795:4947   */\n    tag_136:\n        /* \"#utility.yul\":4871:4880   */\n      0x00\n        /* \"#utility.yul\":4904:4941   */\n      tag_234\n        /* \"#utility.yul\":4935:4940   */\n      dup3\n        /* \"#utility.yul\":4904:4941   */\n      tag_135\n      jump\t// in\n    tag_234:\n        /* \"#utility.yul\":4891:4941   */\n      swap1\n      pop\n        /* \"#utility.yul\":4795:4947   */\n      swap2\n      swap1\n      pop\n      jump\t// out\n        /* \"#utility.yul\":4953:5136   */\n    tag_137:\n        /* \"#utility.yul\":5066:5129   */\n      tag_236\n        /* \"#utility.yul\":5123:5128   */\n      dup2\n        /* \"#utility.yul\":5066:5129   */\n      tag_136\n      jump\t// in\n    tag_236:\n        /* \"#utility.yul\":5061:5064   */\n      dup3\n        /* \"#utility.yul\":5054:5130   */\n      mstore\n        /* \"#utility.yul\":4953:5136   */\n      pop\n      pop\n      jump\t// out\n        /* \"#utility.yul\":5142:5416   */\n    tag_39:\n        /* \"#utility.yul\":5261:5265   */\n      0x00\n        /* \"#utility.yul\":5299:5301   */\n      0x20\n        /* \"#utility.yul\":5288:5297   */\n      dup3\n        /* \"#utility.yul\":5284:5302   */\n      add\n        /* \"#utility.yul\":5276:5302   */\n      swap1\n      pop\n        /* \"#utility.yul\":5312:5409   */\n      tag_238\n        /* \"#utility.yul\":5406:5407   */\n      0x00\n        /* \"#utility.yul\":5395:5404   */\n      dup4\n        /* \"#utility.yul\":5391:5408   */\n      add\n        /* \"#utility.yul\":5382:5388   */\n      dup5\n        /* \"#utility.yul\":5312:5409   */\n      tag_137\n      jump\t// in\n    tag_238:\n        /* \"#utility.yul\":5142:5416   */\n      swap3\n      swap2\n      pop\n      pop\n      jump\t// out\n        /* \"#utility.yul\":5422:5539   */\n    tag_138:\n        /* \"#utility.yul\":5531:5532   */\n      0x00\n        /* \"#utility.yul\":5528:5529   */\n      dup1\n        /* \"#utility.yul\":5521:5533   */\n      revert\n        /* \"#utility.yul\":5545:5662   */\n    tag_139:\n        /* \"#utility.yul\":5654:5655   */\n      0x00\n        /* \"#utility.yul\":5651:5652   */\n      dup1\n        /* \"#utility.yul\":5644:5656   */\n      revert\n        /* \"#utility.yul\":5668:5848   */\n    tag_140:\n        /* \"#utility.yul\":5716:5793   */\n      0x4e487b7100000000000000000000000000000000000000000000000000000000\n        /* \"#utility.yul\":5713:5714   */\n      0x00\n        /* \"#utility.yul\":5706:5794   */\n      mstore\n        /* \"#utility.yul\":5813:5817   */\n      0x41\n        /* \"#utility.yul\":5810:5811   */\n      0x04\n        /* \"#utility.yul\":5803:5818   */\n      mstore\n        /* \"#utility.yul\":5837:5841   */\n      0x24\n        /* \"#utility.yul\":5834:5835   */\n      0x00\n        /* \"#utility.yul\":5827:5842   */\n      revert\n        /* \"#utility.yul\":5854:6135   */\n    tag_141:\n        /* \"#utility.yul\":5937:5964   */\n      tag_243\n        /* \"#utility.yul\":5959:5963   */\n      dup3\n        /* \"#utility.yul\":5937:5964   */\n      tag_126\n      jump\t// in\n    tag_243:\n        /* \"#utility.yul\":5929:5935   */\n      dup2\n        /* \"#utility.yul\":5925:5965   */\n      add\n        /* \"#utility.yul\":6067:6073   */\n      dup2\n        /* \"#utility.yul\":6055:6065   */\n      dup2\n        /* \"#utility.yul\":6052:6074   */\n      lt\n        /* \"#utility.yul\":6031:6049   */\n      0xffffffffffffffff\n        /* \"#utility.yul\":6019:6029   */\n      dup3\n        /* \"#utility.yul\":6016:6050   */\n      gt\n        /* \"#utility.yul\":6013:6075   */\n      or\n        /* \"#utility.yul\":6010:6098   */\n      iszero\n      tag_244\n      jumpi\n        /* \"#utility.yul\":6078:6096   */\n      tag_245\n      tag_140\n      jump\t// in\n    tag_245:\n        /* \"#utility.yul\":6010:6098   */\n    tag_244:\n        /* \"#utility.yul\":6118:6128   */\n      dup1\n        /* \"#utility.yul\":6114:6116   */\n      0x40\n        /* \"#utility.yul\":6107:6129   */\n      mstore\n        /* \"#utility.yul\":5897:6135   */\n      pop\n        /* \"#utility.yul\":5854:6135   */\n      pop\n      pop\n      jump\t// out\n        /* \"#utility.yul\":6141:6270   */\n    tag_142:\n        /* \"#utility.yul\":6175:6181   */\n      0x00\n        /* \"#utility.yul\":6202:6222   */\n      tag_247\n      tag_116\n      jump\t// in\n    tag_247:\n        /* \"#utility.yul\":6192:6222   */\n      swap1\n      pop\n        /* \"#utility.yul\":6231:6264   */\n      tag_248\n        /* \"#utility.yul\":6259:6263   */\n      dup3\n        /* \"#utility.yul\":6251:6257   */\n      dup3\n        /* \"#utility.yul\":6231:6264   */\n      tag_141\n      jump\t// in\n    tag_248:\n        /* \"#utility.yul\":6141:6270   */\n      swap2\n      swap1\n      pop\n      jump\t// out\n        /* \"#utility.yul\":6276:6584   */\n    tag_143:\n        /* \"#utility.yul\":6338:6342   */\n      0x00\n        /* \"#utility.yul\":6428:6446   */\n      0xffffffffffffffff\n        /* \"#utility.yul\":6420:6426   */\n      dup3\n        /* \"#utility.yul\":6417:6447   */\n      gt\n        /* \"#utility.yul\":6414:6470   */\n      iszero\n      tag_250\n      jumpi\n        /* \"#utility.yul\":6450:6468   */\n      tag_251\n      tag_140\n      jump\t// in\n    tag_251:\n        /* \"#utility.yul\":6414:6470   */\n    tag_250:\n        /* \"#utility.yul\":6488:6517   */\n      tag_252\n        /* \"#utility.yul\":6510:6516   */\n      dup3\n        /* \"#utility.yul\":6488:6517   */\n      tag_126\n      jump\t// in\n    tag_252:\n        /* \"#utility.yul\":6480:6517   */\n      swap1\n      pop\n        /* \"#utility.yul\":6572:6576   */\n      0x20\n        /* \"#utility.yul\":6566:6570   */\n      dup2\n        /* \"#utility.yul\":6562:6577   */\n      add\n        /* \"#utility.yul\":6554:6577   */\n      swap1\n      pop\n        /* \"#utility.yul\":6276:6584   */\n      swap2\n      swap1\n      pop\n      jump\t// out\n        /* \"#utility.yul\":6590:6738   */\n    tag_144:\n        /* \"#utility.yul\":6688:6694   */\n      dup3\n        /* \"#utility.yul\":6683:6686   */\n      dup2\n        /* \"#utility.yul\":6678:6681   */\n      dup4\n        /* \"#utility.yul\":6665:6695   */\n      calldatacopy\n        /* \"#utility.yul\":6729:6730   */\n      0x00\n        /* \"#utility.yul\":6720:6726   */\n      dup4\n        /* \"#utility.yul\":6715:6718   */\n      dup4\n        /* \"#utility.yul\":6711:6727   */\n      add\n        /* \"#utility.yul\":6704:6731   */\n      mstore\n        /* \"#utility.yul\":6590:6738   */\n      pop\n      pop\n      pop\n      jump\t// out\n        /* \"#utility.yul\":6744:7169   */\n    tag_145:\n        /* \"#utility.yul\":6822:6827   */\n      0x00\n        /* \"#utility.yul\":6847:6913   */\n      tag_255\n        /* \"#utility.yul\":6863:6912   */\n      tag_256\n        /* \"#utility.yul\":6905:6911   */\n      dup5\n        /* \"#utility.yul\":6863:6912   */\n      tag_143\n      jump\t// in\n    tag_256:\n        /* \"#utility.yul\":6847:6913   */\n      tag_142\n      jump\t// in\n    tag_255:\n        /* \"#utility.yul\":6838:6913   */\n      swap1\n      pop\n        /* \"#utility.yul\":6936:6942   */\n      dup3\n        /* \"#utility.yul\":6929:6934   */\n      dup2\n        /* \"#utility.yul\":6922:6943   */\n      mstore\n        /* \"#utility.yul\":6974:6978   */\n      0x20\n        /* \"#utility.yul\":6967:6972   */\n      dup2\n        /* \"#utility.yul\":6963:6979   */\n      add\n        /* \"#utility.yul\":7012:7015   */\n      dup5\n        /* \"#utility.yul\":7003:7009   */\n      dup5\n        /* \"#utility.yul\":6998:7001   */\n      dup5\n        /* \"#utility.yul\":6994:7010   */\n      add\n        /* \"#utility.yul\":6991:7016   */\n      gt\n        /* \"#utility.yul\":6988:7100   */\n      iszero\n      tag_257\n      jumpi\n        /* \"#utility.yul\":7019:7098   */\n      tag_258\n      tag_139\n      jump\t// in\n    tag_258:\n        /* \"#utility.yul\":6988:7100   */\n    tag_257:\n        /* \"#utility.yul\":7109:7163   */\n      tag_259\n        /* \"#utility.yul\":7156:7162   */\n      dup5\n        /* \"#utility.yul\":7151:7154   */\n      dup3\n        /* \"#utility.yul\":7146:7149   */\n      dup6\n        /* \"#utility.yul\":7109:7163   */\n      tag_144\n      jump\t// in\n    tag_259:\n        /* \"#utility.yul\":6828:7169   */\n      pop\n        /* \"#utility.yul\":6744:7169   */\n      swap4\n      swap3\n      pop\n      pop\n      pop\n      jump\t// out\n        /* \"#utility.yul\":7189:7529   */\n    tag_146:\n        /* \"#utility.yul\":7245:7250   */\n      0x00\n        /* \"#utility.yul\":7294:7297   */\n      dup3\n        /* \"#utility.yul\":7287:7291   */\n      0x1f\n        /* \"#utility.yul\":7279:7285   */\n      dup4\n        /* \"#utility.yul\":7275:7292   */\n      add\n        /* \"#utility.yul\":7271:7298   */\n      slt\n        /* \"#utility.yul\":7261:7383   */\n      tag_261\n      jumpi\n        /* \"#utility.yul\":7302:7381   */\n      tag_262\n      tag_138\n      jump\t// in\n    tag_262:\n        /* \"#utility.yul\":7261:7383   */\n    tag_261:\n        /* \"#utility.yul\":7419:7425   */\n      dup2\n        /* \"#utility.yul\":7406:7426   */\n      calldataload\n        /* \"#utility.yul\":7444:7523   */\n      tag_263\n        /* \"#utility.yul\":7519:7522   */\n      dup5\n        /* \"#utility.yul\":7511:7517   */\n      dup3\n        /* \"#utility.yul\":7504:7508   */\n      0x20\n        /* \"#utility.yul\":7496:7502   */\n      dup7\n        /* \"#utility.yul\":7492:7509   */\n      add\n        /* \"#utility.yul\":7444:7523   */\n      tag_145\n      jump\t// in\n    tag_263:\n        /* \"#utility.yul\":7435:7523   */\n      swap2\n      pop\n        /* \"#utility.yul\":7251:7529   */\n      pop\n        /* \"#utility.yul\":7189:7529   */\n      swap3\n      swap2\n      pop\n      pop\n      jump\t// out\n        /* \"#utility.yul\":7535:8369   */\n    tag_42:\n        /* \"#utility.yul\":7623:7629   */\n      0x00\n        /* \"#utility.yul\":7631:7637   */\n      dup1\n        /* \"#utility.yul\":7680:7682   */\n      0x40\n        /* \"#utility.yul\":7668:7677   */\n      dup4\n        /* \"#utility.yul\":7659:7666   */\n      dup6\n        /* \"#utility.yul\":7655:7678   */\n      sub\n        /* \"#utility.yul\":7651:7683   */\n      slt\n        /* \"#utility.yul\":7648:7767   */\n      iszero\n      tag_265\n      jumpi\n        /* \"#utility.yul\":7686:7765   */\n      tag_266\n      tag_117\n      jump\t// in\n    tag_266:\n        /* \"#utility.yul\":7648:7767   */\n    tag_265:\n        /* \"#utility.yul\":7834:7835   */\n      0x00\n        /* \"#utility.yul\":7823:7832   */\n      dup4\n        /* \"#utility.yul\":7819:7836   */\n      add\n        /* \"#utility.yul\":7806:7837   */\n      calldataload\n        /* \"#utility.yul\":7864:7882   */\n      0xffffffffffffffff\n        /* \"#utility.yul\":7856:7862   */\n      dup2\n        /* \"#utility.yul\":7853:7883   */\n      gt\n        /* \"#utility.yul\":7850:7967   */\n      iszero\n      tag_267\n      jumpi\n        /* \"#utility.yul\":7886:7965   */\n      tag_268\n      tag_118\n      jump\t// in\n    tag_268:\n        /* \"#utility.yul\":7850:7967   */\n    tag_267:\n        /* \"#utility.yul\":7991:8054   */\n      tag_269\n        /* \"#utility.yul\":8046:8053   */\n      dup6\n        /* \"#utility.yul\":8037:8043   */\n      dup3\n        /* \"#utility.yul\":8026:8035   */\n      dup7\n        /* \"#utility.yul\":8022:8044   */\n      add\n        /* \"#utility.yul\":7991:8054   */\n      tag_146\n      jump\t// in\n    tag_269:\n        /* \"#utility.yul\":7981:8054   */\n      swap3\n      pop\n        /* \"#utility.yul\":7777:8064   */\n      pop\n        /* \"#utility.yul\":8131:8133   */\n      0x20\n        /* \"#utility.yul\":8120:8129   */\n      dup4\n        /* \"#utility.yul\":8116:8134   */\n      add\n        /* \"#utility.yul\":8103:8135   */\n      calldataload\n        /* \"#utility.yul\":8162:8180   */\n      0xffffffffffffffff\n        /* \"#utility.yul\":8154:8160   */\n      dup2\n        /* \"#utility.yul\":8151:8181   */\n      gt\n        /* \"#utility.yul\":8148:8265   */\n      iszero\n      tag_270\n      jumpi\n        /* \"#utility.yul\":8184:8263   */\n      tag_271\n      tag_118\n      jump\t// in\n    tag_271:\n        /* \"#utility.yul\":8148:8265   */\n    tag_270:\n        /* \"#utility.yul\":8289:8352   */\n      tag_272\n        /* \"#utility.yul\":8344:8351   */\n      dup6\n        /* \"#utility.yul\":8335:8341   */\n      dup3\n        /* \"#utility.yul\":8324:8333   */\n      dup7\n        /* \"#utility.yul\":8320:8342   */\n      add\n        /* \"#utility.yul\":8289:8352   */\n      tag_146\n      jump\t// in\n    tag_272:\n        /* \"#utility.yul\":8279:8352   */\n      swap2\n      pop\n        /* \"#utility.yul\":8074:8362   */\n      pop\n        /* \"#utility.yul\":7535:8369   */\n      swap3\n      pop\n      swap3\n      swap1\n      pop\n      jump\t// out\n        /* \"#utility.yul\":8375:8598   */\n    tag_147:\n        /* \"#utility.yul\":8515:8549   */\n      0x446f6172206f776e65722d756c20706f617465206d6f64696669636120646174\n        /* \"#utility.yul\":8511:8512   */\n      0x00\n        /* \"#utility.yul\":8503:8509   */\n      dup3\n        /* \"#utility.yul\":8499:8513   */\n      add\n        /* \"#utility.yul\":8492:8550   */\n      mstore\n        /* \"#utility.yul\":8584:8590   */\n      0x656c652100000000000000000000000000000000000000000000000000000000\n        /* \"#utility.yul\":8579:8581   */\n      0x20\n        /* \"#utility.yul\":8571:8577   */\n      dup3\n        /* \"#utility.yul\":8567:8582   */\n      add\n        /* \"#utility.yul\":8560:8591   */\n      mstore\n        /* \"#utility.yul\":8375:8598   */\n      pop\n      jump\t// out\n        /* \"#utility.yul\":8604:8970   */\n    tag_148:\n        /* \"#utility.yul\":8746:8749   */\n      0x00\n        /* \"#utility.yul\":8767:8834   */\n      tag_275\n        /* \"#utility.yul\":8831:8833   */\n      0x24\n        /* \"#utility.yul\":8826:8829   */\n      dup4\n        /* \"#utility.yul\":8767:8834   */\n      tag_124\n      jump\t// in\n    tag_275:\n        /* \"#utility.yul\":8760:8834   */\n      swap2\n      pop\n        /* \"#utility.yul\":8843:8936   */\n      tag_276\n        /* \"#utility.yul\":8932:8935   */\n      dup3\n        /* \"#utility.yul\":8843:8936   */\n      tag_147\n      jump\t// in\n    tag_276:\n        /* \"#utility.yul\":8961:8963   */\n      0x40\n        /* \"#utility.yul\":8956:8959   */\n      dup3\n        /* \"#utility.yul\":8952:8964   */\n      add\n        /* \"#utility.yul\":8945:8964   */\n      swap1\n      pop\n        /* \"#utility.yul\":8604:8970   */\n      swap2\n      swap1\n      pop\n      jump\t// out\n        /* \"#utility.yul\":8976:9395   */\n    tag_50:\n        /* \"#utility.yul\":9142:9146   */\n      0x00\n        /* \"#utility.yul\":9180:9182   */\n      0x20\n        /* \"#utility.yul\":9169:9178   */\n      dup3\n        /* \"#utility.yul\":9165:9183   */\n      add\n        /* \"#utility.yul\":9157:9183   */\n      swap1\n      pop\n        /* \"#utility.yul\":9229:9238   */\n      dup2\n        /* \"#utility.yul\":9223:9227   */\n      dup2\n        /* \"#utility.yul\":9219:9239   */\n      sub\n        /* \"#utility.yul\":9215:9216   */\n      0x00\n        /* \"#utility.yul\":9204:9213   */\n      dup4\n        /* \"#utility.yul\":9200:9217   */\n      add\n        /* \"#utility.yul\":9193:9240   */\n      mstore\n        /* \"#utility.yul\":9257:9388   */\n      tag_278\n        /* \"#utility.yul\":9383:9387   */\n      dup2\n        /* \"#utility.yul\":9257:9388   */\n      tag_148\n      jump\t// in\n    tag_278:\n        /* \"#utility.yul\":9249:9388   */\n      swap1\n      pop\n        /* \"#utility.yul\":8976:9395   */\n      swap2\n      swap1\n      pop\n      jump\t// out\n        /* \"#utility.yul\":9401:9570   */\n    tag_149:\n        /* \"#utility.yul\":9541:9562   */\n      0x446f6e61746f7220696e6578697374656e742100000000000000000000000000\n        /* \"#utility.yul\":9537:9538   */\n      0x00\n        /* \"#utility.yul\":9529:9535   */\n      dup3\n        /* \"#utility.yul\":9525:9539   */\n      add\n        /* \"#utility.yul\":9518:9563   */\n      mstore\n        /* \"#utility.yul\":9401:9570   */\n      pop\n      jump\t// out\n        /* \"#utility.yul\":9576:9942   */\n    tag_150:\n        /* \"#utility.yul\":9718:9721   */\n      0x00\n        /* \"#utility.yul\":9739:9806   */\n      tag_281\n        /* \"#utility.yul\":9803:9805   */\n      0x13\n        /* \"#utility.yul\":9798:9801   */\n      dup4\n        /* \"#utility.yul\":9739:9806   */\n      tag_124\n      jump\t// in\n    tag_281:\n        /* \"#utility.yul\":9732:9806   */\n      swap2\n      pop\n        /* \"#utility.yul\":9815:9908   */\n      tag_282\n        /* \"#utility.yul\":9904:9907   */\n      dup3\n        /* \"#utility.yul\":9815:9908   */\n      tag_149\n      jump\t// in\n    tag_282:\n        /* \"#utility.yul\":9933:9935   */\n      0x20\n        /* \"#utility.yul\":9928:9931   */\n      dup3\n        /* \"#utility.yul\":9924:9936   */\n      add\n        /* \"#utility.yul\":9917:9936   */\n      swap1\n      pop\n        /* \"#utility.yul\":9576:9942   */\n      swap2\n      swap1\n      pop\n      jump\t// out\n        /* \"#utility.yul\":9948:10367   */\n    tag_55:\n        /* \"#utility.yul\":10114:10118   */\n      0x00\n        /* \"#utility.yul\":10152:10154   */\n      0x20\n        /* \"#utility.yul\":10141:10150   */\n      dup3\n        /* \"#utility.yul\":10137:10155   */\n      add\n        /* \"#utility.yul\":10129:10155   */\n      swap1\n      pop\n        /* \"#utility.yul\":10201:10210   */\n      dup2\n        /* \"#utility.yul\":10195:10199   */\n      dup2\n        /* \"#utility.yul\":10191:10211   */\n      sub\n        /* \"#utility.yul\":10187:10188   */\n      0x00\n        /* \"#utility.yul\":10176:10185   */\n      dup4\n        /* \"#utility.yul\":10172:10189   */\n      add\n        /* \"#utility.yul\":10165:10212   */\n      mstore\n        /* \"#utility.yul\":10229:10360   */\n      tag_284\n        /* \"#utility.yul\":10355:10359   */\n      dup2\n        /* \"#utility.yul\":10229:10360   */\n      tag_150\n      jump\t// in\n    tag_284:\n        /* \"#utility.yul\":10221:10360   */\n      swap1\n      pop\n        /* \"#utility.yul\":9948:10367   */\n      swap2\n      swap1\n      pop\n      jump\t// out\n        /* \"#utility.yul\":10373:10550   */\n    tag_151:\n        /* \"#utility.yul\":10513:10542   */\n      0x446f6e61746f72206e75206573746520646973706f6e6962696c210000000000\n        /* \"#utility.yul\":10509:10510   */\n      0x00\n        /* \"#utility.yul\":10501:10507   */\n      dup3\n        /* \"#utility.yul\":10497:10511   */\n      add\n        /* \"#utility.yul\":10490:10543   */\n      mstore\n        /* \"#utility.yul\":10373:10550   */\n      pop\n      jump\t// out\n        /* \"#utility.yul\":10556:10922   */\n    tag_152:\n        /* \"#utility.yul\":10698:10701   */\n      0x00\n        /* \"#utility.yul\":10719:10786   */\n      tag_287\n        /* \"#utility.yul\":10783:10785   */\n      0x1b\n        /* \"#utility.yul\":10778:10781   */\n      dup4\n        /* \"#utility.yul\":10719:10786   */\n      tag_124\n      jump\t// in\n    tag_287:\n        /* \"#utility.yul\":10712:10786   */\n      swap2\n      pop\n        /* \"#utility.yul\":10795:10888   */\n      tag_288\n        /* \"#utility.yul\":10884:10887   */\n      dup3\n        /* \"#utility.yul\":10795:10888   */\n      tag_151\n      jump\t// in\n    tag_288:\n        /* \"#utility.yul\":10913:10915   */\n      0x20\n        /* \"#utility.yul\":10908:10911   */\n      dup3\n        /* \"#utility.yul\":10904:10916   */\n      add\n        /* \"#utility.yul\":10897:10916   */\n      swap1\n      pop\n        /* \"#utility.yul\":10556:10922   */\n      swap2\n      swap1\n      pop\n      jump\t// out\n        /* \"#utility.yul\":10928:11347   */\n    tag_58:\n        /* \"#utility.yul\":11094:11098   */\n      0x00\n        /* \"#utility.yul\":11132:11134   */\n      0x20\n        /* \"#utility.yul\":11121:11130   */\n      dup3\n        /* \"#utility.yul\":11117:11135   */\n      add\n        /* \"#utility.yul\":11109:11135   */\n      swap1\n      pop\n        /* \"#utility.yul\":11181:11190   */\n      dup2\n        /* \"#utility.yul\":11175:11179   */\n      dup2\n        /* \"#utility.yul\":11171:11191   */\n      sub\n        /* \"#utility.yul\":11167:11168   */\n      0x00\n        /* \"#utility.yul\":11156:11165   */\n      dup4\n        /* \"#utility.yul\":11152:11169   */\n      add\n        /* \"#utility.yul\":11145:11192   */\n      mstore\n        /* \"#utility.yul\":11209:11340   */\n      tag_290\n        /* \"#utility.yul\":11335:11339   */\n      dup2\n        /* \"#utility.yul\":11209:11340   */\n      tag_152\n      jump\t// in\n    tag_290:\n        /* \"#utility.yul\":11201:11340   */\n      swap1\n      pop\n        /* \"#utility.yul\":10928:11347   */\n      swap2\n      swap1\n      pop\n      jump\t// out\n        /* \"#utility.yul\":11353:11496   */\n    tag_153:\n        /* \"#utility.yul\":11410:11415   */\n      0x00\n        /* \"#utility.yul\":11441:11447   */\n      dup2\n        /* \"#utility.yul\":11435:11448   */\n      mload\n        /* \"#utility.yul\":11426:11448   */\n      swap1\n      pop\n        /* \"#utility.yul\":11457:11490   */\n      tag_292\n        /* \"#utility.yul\":11484:11489   */\n      dup2\n        /* \"#utility.yul\":11457:11490   */\n      tag_120\n      jump\t// in\n    tag_292:\n        /* \"#utility.yul\":11353:11496   */\n      swap3\n      swap2\n      pop\n      pop\n      jump\t// out\n        /* \"#utility.yul\":11502:11853   */\n    tag_65:\n        /* \"#utility.yul\":11572:11578   */\n      0x00\n        /* \"#utility.yul\":11621:11623   */\n      0x20\n        /* \"#utility.yul\":11609:11618   */\n      dup3\n        /* \"#utility.yul\":11600:11607   */\n      dup5\n        /* \"#utility.yul\":11596:11619   */\n      sub\n        /* \"#utility.yul\":11592:11624   */\n      slt\n        /* \"#utility.yul\":11589:11708   */\n      iszero\n      tag_294\n      jumpi\n        /* \"#utility.yul\":11627:11706   */\n      tag_295\n      tag_117\n      jump\t// in\n    tag_295:\n        /* \"#utility.yul\":11589:11708   */\n    tag_294:\n        /* \"#utility.yul\":11747:11748   */\n      0x00\n        /* \"#utility.yul\":11772:11836   */\n      tag_296\n        /* \"#utility.yul\":11828:11835   */\n      dup5\n        /* \"#utility.yul\":11819:11825   */\n      dup3\n        /* \"#utility.yul\":11808:11817   */\n      dup6\n        /* \"#utility.yul\":11804:11826   */\n      add\n        /* \"#utility.yul\":11772:11836   */\n      tag_153\n      jump\t// in\n    tag_296:\n        /* \"#utility.yul\":11762:11836   */\n      swap2\n      pop\n        /* \"#utility.yul\":11718:11846   */\n      pop\n        /* \"#utility.yul\":11502:11853   */\n      swap3\n      swap2\n      pop\n      pop\n      jump\t// out\n        /* \"#utility.yul\":11859:12293   */\n    tag_154:\n        /* \"#utility.yul\":11948:11953   */\n      0x00\n        /* \"#utility.yul\":11973:12039   */\n      tag_298\n        /* \"#utility.yul\":11989:12038   */\n      tag_299\n        /* \"#utility.yul\":12031:12037   */\n      dup5\n        /* \"#utility.yul\":11989:12038   */\n      tag_143\n      jump\t// in\n    tag_299:\n        /* \"#utility.yul\":11973:12039   */\n      tag_142\n      jump\t// in\n    tag_298:\n        /* \"#utility.yul\":11964:12039   */\n      swap1\n      pop\n        /* \"#utility.yul\":12062:12068   */\n      dup3\n        /* \"#utility.yul\":12055:12060   */\n      dup2\n        /* \"#utility.yul\":12048:12069   */\n      mstore\n        /* \"#utility.yul\":12100:12104   */\n      0x20\n        /* \"#utility.yul\":12093:12098   */\n      dup2\n        /* \"#utility.yul\":12089:12105   */\n      add\n        /* \"#utility.yul\":12138:12141   */\n      dup5\n        /* \"#utility.yul\":12129:12135   */\n      dup5\n        /* \"#utility.yul\":12124:12127   */\n      dup5\n        /* \"#utility.yul\":12120:12136   */\n      add\n        /* \"#utility.yul\":12117:12142   */\n      gt\n        /* \"#utility.yul\":12114:12226   */\n      iszero\n      tag_300\n      jumpi\n        /* \"#utility.yul\":12145:12224   */\n      tag_301\n      tag_139\n      jump\t// in\n    tag_301:\n        /* \"#utility.yul\":12114:12226   */\n    tag_300:\n        /* \"#utility.yul\":12235:12287   */\n      tag_302\n        /* \"#utility.yul\":12280:12286   */\n      dup5\n        /* \"#utility.yul\":12275:12278   */\n      dup3\n        /* \"#utility.yul\":12270:12273   */\n      dup6\n        /* \"#utility.yul\":12235:12287   */\n      tag_125\n      jump\t// in\n    tag_302:\n        /* \"#utility.yul\":11954:12293   */\n      pop\n        /* \"#utility.yul\":11859:12293   */\n      swap4\n      swap3\n      pop\n      pop\n      pop\n      jump\t// out\n        /* \"#utility.yul\":12313:12668   */\n    tag_155:\n        /* \"#utility.yul\":12380:12385   */\n      0x00\n        /* \"#utility.yul\":12429:12432   */\n      dup3\n        /* \"#utility.yul\":12422:12426   */\n      0x1f\n        /* \"#utility.yul\":12414:12420   */\n      dup4\n        /* \"#utility.yul\":12410:12427   */\n      add\n        /* \"#utility.yul\":12406:12433   */\n      slt\n        /* \"#utility.yul\":12396:12518   */\n      tag_304\n      jumpi\n        /* \"#utility.yul\":12437:12516   */\n      tag_305\n      tag_138\n      jump\t// in\n    tag_305:\n        /* \"#utility.yul\":12396:12518   */\n    tag_304:\n        /* \"#utility.yul\":12547:12553   */\n      dup2\n        /* \"#utility.yul\":12541:12554   */\n      mload\n        /* \"#utility.yul\":12572:12662   */\n      tag_306\n        /* \"#utility.yul\":12658:12661   */\n      dup5\n        /* \"#utility.yul\":12650:12656   */\n      dup3\n        /* \"#utility.yul\":12643:12647   */\n      0x20\n        /* \"#utility.yul\":12635:12641   */\n      dup7\n        /* \"#utility.yul\":12631:12648   */\n      add\n        /* \"#utility.yul\":12572:12662   */\n      tag_154\n      jump\t// in\n    tag_306:\n        /* \"#utility.yul\":12563:12662   */\n      swap2\n      pop\n        /* \"#utility.yul\":12386:12668   */\n      pop\n        /* \"#utility.yul\":12313:12668   */\n      swap3\n      swap2\n      pop\n      pop\n      jump\t// out\n        /* \"#utility.yul\":12674:13840   */\n    tag_70:\n        /* \"#utility.yul\":12791:12797   */\n      0x00\n        /* \"#utility.yul\":12799:12805   */\n      dup1\n        /* \"#utility.yul\":12807:12813   */\n      0x00\n        /* \"#utility.yul\":12815:12821   */\n      dup1\n        /* \"#utility.yul\":12864:12867   */\n      0x80\n        /* \"#utility.yul\":12852:12861   */\n      dup6\n        /* \"#utility.yul\":12843:12850   */\n      dup8\n        /* \"#utility.yul\":12839:12862   */\n      sub\n        /* \"#utility.yul\":12835:12868   */\n      slt\n        /* \"#utility.yul\":12832:12952   */\n      iszero\n      tag_308\n      jumpi\n        /* \"#utility.yul\":12871:12950   */\n      tag_309\n      tag_117\n      jump\t// in\n    tag_309:\n        /* \"#utility.yul\":12832:12952   */\n    tag_308:\n        /* \"#utility.yul\":13012:13013   */\n      0x00\n        /* \"#utility.yul\":13001:13010   */\n      dup6\n        /* \"#utility.yul\":12997:13014   */\n      add\n        /* \"#utility.yul\":12991:13015   */\n      mload\n        /* \"#utility.yul\":13042:13060   */\n      0xffffffffffffffff\n        /* \"#utility.yul\":13034:13040   */\n      dup2\n        /* \"#utility.yul\":13031:13061   */\n      gt\n        /* \"#utility.yul\":13028:13145   */\n      iszero\n      tag_310\n      jumpi\n        /* \"#utility.yul\":13064:13143   */\n      tag_311\n      tag_118\n      jump\t// in\n    tag_311:\n        /* \"#utility.yul\":13028:13145   */\n    tag_310:\n        /* \"#utility.yul\":13169:13243   */\n      tag_312\n        /* \"#utility.yul\":13235:13242   */\n      dup8\n        /* \"#utility.yul\":13226:13232   */\n      dup3\n        /* \"#utility.yul\":13215:13224   */\n      dup9\n        /* \"#utility.yul\":13211:13233   */\n      add\n        /* \"#utility.yul\":13169:13243   */\n      tag_155\n      jump\t// in\n    tag_312:\n        /* \"#utility.yul\":13159:13243   */\n      swap5\n      pop\n        /* \"#utility.yul\":12962:13253   */\n      pop\n        /* \"#utility.yul\":13313:13315   */\n      0x20\n        /* \"#utility.yul\":13302:13311   */\n      dup6\n        /* \"#utility.yul\":13298:13316   */\n      add\n        /* \"#utility.yul\":13292:13317   */\n      mload\n        /* \"#utility.yul\":13344:13362   */\n      0xffffffffffffffff\n        /* \"#utility.yul\":13336:13342   */\n      dup2\n        /* \"#utility.yul\":13333:13363   */\n      gt\n        /* \"#utility.yul\":13330:13447   */\n      iszero\n      tag_313\n      jumpi\n        /* \"#utility.yul\":13366:13445   */\n      tag_314\n      tag_118\n      jump\t// in\n    tag_314:\n        /* \"#utility.yul\":13330:13447   */\n    tag_313:\n        /* \"#utility.yul\":13471:13545   */\n      tag_315\n        /* \"#utility.yul\":13537:13544   */\n      dup8\n        /* \"#utility.yul\":13528:13534   */\n      dup3\n        /* \"#utility.yul\":13517:13526   */\n      dup9\n        /* \"#utility.yul\":13513:13535   */\n      add\n        /* \"#utility.yul\":13471:13545   */\n      tag_155\n      jump\t// in\n    tag_315:\n        /* \"#utility.yul\":13461:13545   */\n      swap4\n      pop\n        /* \"#utility.yul\":13263:13555   */\n      pop\n        /* \"#utility.yul\":13594:13596   */\n      0x40\n        /* \"#utility.yul\":13620:13684   */\n      tag_316\n        /* \"#utility.yul\":13676:13683   */\n      dup8\n        /* \"#utility.yul\":13667:13673   */\n      dup3\n        /* \"#utility.yul\":13656:13665   */\n      dup9\n        /* \"#utility.yul\":13652:13674   */\n      add\n        /* \"#utility.yul\":13620:13684   */\n      tag_153\n      jump\t// in\n    tag_316:\n        /* \"#utility.yul\":13610:13684   */\n      swap3\n      pop\n        /* \"#utility.yul\":13565:13694   */\n      pop\n        /* \"#utility.yul\":13733:13735   */\n      0x60\n        /* \"#utility.yul\":13759:13823   */\n      tag_317\n        /* \"#utility.yul\":13815:13822   */\n      dup8\n        /* \"#utility.yul\":13806:13812   */\n      dup3\n        /* \"#utility.yul\":13795:13804   */\n      dup9\n        /* \"#utility.yul\":13791:13813   */\n      add\n        /* \"#utility.yul\":13759:13823   */\n      tag_153\n      jump\t// in\n    tag_317:\n        /* \"#utility.yul\":13749:13823   */\n      swap2\n      pop\n        /* \"#utility.yul\":13704:13833   */\n      pop\n        /* \"#utility.yul\":12674:13840   */\n      swap3\n      swap6\n      swap2\n      swap5\n      pop\n      swap3\n      pop\n      jump\t// out\n        /* \"#utility.yul\":13846:14026   */\n    tag_156:\n        /* \"#utility.yul\":13894:13971   */\n      0x4e487b7100000000000000000000000000000000000000000000000000000000\n        /* \"#utility.yul\":13891:13892   */\n      0x00\n        /* \"#utility.yul\":13884:13972   */\n      mstore\n        /* \"#utility.yul\":13991:13995   */\n      0x22\n        /* \"#utility.yul\":13988:13989   */\n      0x04\n        /* \"#utility.yul\":13981:13996   */\n      mstore\n        /* \"#utility.yul\":14015:14019   */\n      0x24\n        /* \"#utility.yul\":14012:14013   */\n      0x00\n        /* \"#utility.yul\":14005:14020   */\n      revert\n        /* \"#utility.yul\":14032:14352   */\n    tag_83:\n        /* \"#utility.yul\":14076:14082   */\n      0x00\n        /* \"#utility.yul\":14113:14114   */\n      0x02\n        /* \"#utility.yul\":14107:14111   */\n      dup3\n        /* \"#utility.yul\":14103:14115   */\n      div\n        /* \"#utility.yul\":14093:14115   */\n      swap1\n      pop\n        /* \"#utility.yul\":14160:14161   */\n      0x01\n        /* \"#utility.yul\":14154:14158   */\n      dup3\n        /* \"#utility.yul\":14150:14162   */\n      and\n        /* \"#utility.yul\":14181:14199   */\n      dup1\n        /* \"#utility.yul\":14171:14252   */\n      tag_320\n      jumpi\n        /* \"#utility.yul\":14237:14241   */\n      0x7f\n        /* \"#utility.yul\":14229:14235   */\n      dup3\n        /* \"#utility.yul\":14225:14242   */\n      and\n        /* \"#utility.yul\":14215:14242   */\n      swap2\n      pop\n        /* \"#utility.yul\":14171:14252   */\n    tag_320:\n        /* \"#utility.yul\":14299:14301   */\n      0x20\n        /* \"#utility.yul\":14291:14297   */\n      dup3\n        /* \"#utility.yul\":14288:14302   */\n      lt\n        /* \"#utility.yul\":14268:14286   */\n      dup2\n        /* \"#utility.yul\":14265:14303   */\n      sub\n        /* \"#utility.yul\":14262:14346   */\n      tag_321\n      jumpi\n        /* \"#utility.yul\":14318:14336   */\n      tag_322\n      tag_156\n      jump\t// in\n    tag_322:\n        /* \"#utility.yul\":14262:14346   */\n    tag_321:\n        /* \"#utility.yul\":14083:14352   */\n      pop\n        /* \"#utility.yul\":14032:14352   */\n      swap2\n      swap1\n      pop\n      jump\t// out\n        /* \"#utility.yul\":14358:14506   */\n    tag_157:\n        /* \"#utility.yul\":14460:14471   */\n      0x00\n        /* \"#utility.yul\":14497:14500   */\n      dup2\n        /* \"#utility.yul\":14482:14500   */\n      swap1\n      pop\n        /* \"#utility.yul\":14358:14506   */\n      swap3\n      swap2\n      pop\n      pop\n      jump\t// out\n        /* \"#utility.yul\":14512:14653   */\n    tag_158:\n        /* \"#utility.yul\":14561:14565   */\n      0x00\n        /* \"#utility.yul\":14584:14587   */\n      dup2\n        /* \"#utility.yul\":14576:14587   */\n      swap1\n      pop\n        /* \"#utility.yul\":14607:14610   */\n      dup2\n        /* \"#utility.yul\":14604:14605   */\n      0x00\n        /* \"#utility.yul\":14597:14611   */\n      mstore\n        /* \"#utility.yul\":14641:14645   */\n      0x20\n        /* \"#utility.yul\":14638:14639   */\n      0x00\n        /* \"#utility.yul\":14628:14646   */\n      keccak256\n        /* \"#utility.yul\":14620:14646   */\n      swap1\n      pop\n        /* \"#utility.yul\":14512:14653   */\n      swap2\n      swap1\n      pop\n      jump\t// out\n        /* \"#utility.yul\":14683:15557   */\n    tag_159:\n        /* \"#utility.yul\":14786:14789   */\n      0x00\n        /* \"#utility.yul\":14823:14828   */\n      dup2\n        /* \"#utility.yul\":14817:14829   */\n      sload\n        /* \"#utility.yul\":14852:14888   */\n      tag_326\n        /* \"#utility.yul\":14878:14887   */\n      dup2\n        /* \"#utility.yul\":14852:14888   */\n      tag_83\n      jump\t// in\n    tag_326:\n        /* \"#utility.yul\":14904:14993   */\n      tag_327\n        /* \"#utility.yul\":14986:14992   */\n      dup2\n        /* \"#utility.yul\":14981:14984   */\n      dup7\n        /* \"#utility.yul\":14904:14993   */\n      tag_157\n      jump\t// in\n    tag_327:\n        /* \"#utility.yul\":14897:14993   */\n      swap5\n      pop\n        /* \"#utility.yul\":15024:15025   */\n      0x01\n        /* \"#utility.yul\":15013:15022   */\n      dup3\n        /* \"#utility.yul\":15009:15026   */\n      and\n        /* \"#utility.yul\":15040:15041   */\n      0x00\n        /* \"#utility.yul\":15035:15201   */\n      dup2\n      eq\n      tag_329\n      jumpi\n        /* \"#utility.yul\":15215:15216   */\n      0x01\n        /* \"#utility.yul\":15210:15551   */\n      dup2\n      eq\n      tag_330\n      jumpi\n        /* \"#utility.yul\":15002:15551   */\n      jump(tag_328)\n        /* \"#utility.yul\":15035:15201   */\n    tag_329:\n        /* \"#utility.yul\":15119:15123   */\n      0xff\n        /* \"#utility.yul\":15115:15124   */\n      not\n        /* \"#utility.yul\":15104:15113   */\n      dup4\n        /* \"#utility.yul\":15100:15125   */\n      and\n        /* \"#utility.yul\":15095:15098   */\n      dup7\n        /* \"#utility.yul\":15088:15126   */\n      mstore\n        /* \"#utility.yul\":15181:15187   */\n      dup2\n        /* \"#utility.yul\":15174:15188   */\n      iszero\n        /* \"#utility.yul\":15167:15189   */\n      iszero\n        /* \"#utility.yul\":15159:15165   */\n      dup3\n        /* \"#utility.yul\":15155:15190   */\n      mul\n        /* \"#utility.yul\":15150:15153   */\n      dup7\n        /* \"#utility.yul\":15146:15191   */\n      add\n        /* \"#utility.yul\":15139:15191   */\n      swap4\n      pop\n        /* \"#utility.yul\":15035:15201   */\n      jump(tag_328)\n        /* \"#utility.yul\":15210:15551   */\n    tag_330:\n        /* \"#utility.yul\":15277:15315   */\n      tag_331\n        /* \"#utility.yul\":15309:15314   */\n      dup6\n        /* \"#utility.yul\":15277:15315   */\n      tag_158\n      jump\t// in\n    tag_331:\n        /* \"#utility.yul\":15337:15338   */\n      0x00\n        /* \"#utility.yul\":15351:15505   */\n    tag_332:\n        /* \"#utility.yul\":15365:15371   */\n      dup4\n        /* \"#utility.yul\":15362:15363   */\n      dup2\n        /* \"#utility.yul\":15359:15372   */\n      lt\n        /* \"#utility.yul\":15351:15505   */\n      iszero\n      tag_334\n      jumpi\n        /* \"#utility.yul\":15439:15446   */\n      dup2\n        /* \"#utility.yul\":15433:15447   */\n      sload\n        /* \"#utility.yul\":15429:15430   */\n      dup2\n        /* \"#utility.yul\":15424:15427   */\n      dup10\n        /* \"#utility.yul\":15420:15431   */\n      add\n        /* \"#utility.yul\":15413:15448   */\n      mstore\n        /* \"#utility.yul\":15489:15490   */\n      0x01\n        /* \"#utility.yul\":15480:15487   */\n      dup3\n        /* \"#utility.yul\":15476:15491   */\n      add\n        /* \"#utility.yul\":15465:15491   */\n      swap2\n      pop\n        /* \"#utility.yul\":15387:15391   */\n      0x20\n        /* \"#utility.yul\":15384:15385   */\n      dup2\n        /* \"#utility.yul\":15380:15392   */\n      add\n        /* \"#utility.yul\":15375:15392   */\n      swap1\n      pop\n        /* \"#utility.yul\":15351:15505   */\n      jump(tag_332)\n    tag_334:\n        /* \"#utility.yul\":15534:15540   */\n      dup4\n        /* \"#utility.yul\":15529:15532   */\n      dup9\n        /* \"#utility.yul\":15525:15541   */\n      add\n        /* \"#utility.yul\":15518:15541   */\n      swap6\n      pop\n        /* \"#utility.yul\":15217:15551   */\n      pop\n      pop\n        /* \"#utility.yul\":15002:15551   */\n    tag_328:\n      pop\n        /* \"#utility.yul\":14790:15557   */\n      pop\n      pop\n        /* \"#utility.yul\":14683:15557   */\n      swap3\n      swap2\n      pop\n      pop\n      jump\t// out\n        /* \"#utility.yul\":15563:15832   */\n    tag_72:\n        /* \"#utility.yul\":15692:15695   */\n      0x00\n        /* \"#utility.yul\":15714:15806   */\n      tag_336\n        /* \"#utility.yul\":15802:15805   */\n      dup3\n        /* \"#utility.yul\":15793:15799   */\n      dup5\n        /* \"#utility.yul\":15714:15806   */\n      tag_159\n      jump\t// in\n    tag_336:\n        /* \"#utility.yul\":15707:15806   */\n      swap2\n      pop\n        /* \"#utility.yul\":15823:15826   */\n      dup2\n        /* \"#utility.yul\":15816:15826   */\n      swap1\n      pop\n        /* \"#utility.yul\":15563:15832   */\n      swap3\n      swap2\n      pop\n      pop\n      jump\t// out\n        /* \"#utility.yul\":15838:16228   */\n    tag_160:\n        /* \"#utility.yul\":15944:15947   */\n      0x00\n        /* \"#utility.yul\":15972:16011   */\n      tag_338\n        /* \"#utility.yul\":16005:16010   */\n      dup3\n        /* \"#utility.yul\":15972:16011   */\n      tag_123\n      jump\t// in\n    tag_338:\n        /* \"#utility.yul\":16027:16116   */\n      tag_339\n        /* \"#utility.yul\":16109:16115   */\n      dup2\n        /* \"#utility.yul\":16104:16107   */\n      dup6\n        /* \"#utility.yul\":16027:16116   */\n      tag_157\n      jump\t// in\n    tag_339:\n        /* \"#utility.yul\":16020:16116   */\n      swap4\n      pop\n        /* \"#utility.yul\":16125:16190   */\n      tag_340\n        /* \"#utility.yul\":16183:16189   */\n      dup2\n        /* \"#utility.yul\":16178:16181   */\n      dup6\n        /* \"#utility.yul\":16171:16175   */\n      0x20\n        /* \"#utility.yul\":16164:16169   */\n      dup7\n        /* \"#utility.yul\":16160:16176   */\n      add\n        /* \"#utility.yul\":16125:16190   */\n      tag_125\n      jump\t// in\n    tag_340:\n        /* \"#utility.yul\":16215:16221   */\n      dup1\n        /* \"#utility.yul\":16210:16213   */\n      dup5\n        /* \"#utility.yul\":16206:16222   */\n      add\n        /* \"#utility.yul\":16199:16222   */\n      swap2\n      pop\n        /* \"#utility.yul\":15948:16228   */\n      pop\n        /* \"#utility.yul\":15838:16228   */\n      swap3\n      swap2\n      pop\n      pop\n      jump\t// out\n        /* \"#utility.yul\":16234:16509   */\n    tag_74:\n        /* \"#utility.yul\":16366:16369   */\n      0x00\n        /* \"#utility.yul\":16388:16483   */\n      tag_342\n        /* \"#utility.yul\":16479:16482   */\n      dup3\n        /* \"#utility.yul\":16470:16476   */\n      dup5\n        /* \"#utility.yul\":16388:16483   */\n      tag_160\n      jump\t// in\n    tag_342:\n        /* \"#utility.yul\":16381:16483   */\n      swap2\n      pop\n        /* \"#utility.yul\":16500:16503   */\n      dup2\n        /* \"#utility.yul\":16493:16503   */\n      swap1\n      pop\n        /* \"#utility.yul\":16234:16509   */\n      swap3\n      swap2\n      pop\n      pop\n      jump\t// out\n        /* \"#utility.yul\":16539:17370   */\n    tag_161:\n        /* \"#utility.yul\":16624:16627   */\n      0x00\n        /* \"#utility.yul\":16661:16666   */\n      dup2\n        /* \"#utility.yul\":16655:16667   */\n      sload\n        /* \"#utility.yul\":16690:16726   */\n      tag_344\n        /* \"#utility.yul\":16716:16725   */\n      dup2\n        /* \"#utility.yul\":16690:16726   */\n      tag_83\n      jump\t// in\n    tag_344:\n        /* \"#utility.yul\":16742:16813   */\n      tag_345\n        /* \"#utility.yul\":16806:16812   */\n      dup2\n        /* \"#utility.yul\":16801:16804   */\n      dup7\n        /* \"#utility.yul\":16742:16813   */\n      tag_124\n      jump\t// in\n    tag_345:\n        /* \"#utility.yul\":16735:16813   */\n      swap5\n      pop\n        /* \"#utility.yul\":16844:16845   */\n      0x01\n        /* \"#utility.yul\":16833:16842   */\n      dup3\n        /* \"#utility.yul\":16829:16846   */\n      and\n        /* \"#utility.yul\":16860:16861   */\n      0x00\n        /* \"#utility.yul\":16855:17019   */\n      dup2\n      eq\n      tag_347\n      jumpi\n        /* \"#utility.yul\":17033:17034   */\n      0x01\n        /* \"#utility.yul\":17028:17364   */\n      dup2\n      eq\n      tag_348\n      jumpi\n        /* \"#utility.yul\":16822:17364   */\n      jump(tag_346)\n        /* \"#utility.yul\":16855:17019   */\n    tag_347:\n        /* \"#utility.yul\":16939:16943   */\n      0xff\n        /* \"#utility.yul\":16935:16944   */\n      not\n        /* \"#utility.yul\":16924:16933   */\n      dup4\n        /* \"#utility.yul\":16920:16945   */\n      and\n        /* \"#utility.yul\":16915:16918   */\n      dup7\n        /* \"#utility.yul\":16908:16946   */\n      mstore\n        /* \"#utility.yul\":16999:17005   */\n      dup2\n        /* \"#utility.yul\":16992:17006   */\n      iszero\n        /* \"#utility.yul\":16985:17007   */\n      iszero\n        /* \"#utility.yul\":16979:16983   */\n      0x20\n        /* \"#utility.yul\":16975:17008   */\n      mul\n        /* \"#utility.yul\":16970:16973   */\n      dup7\n        /* \"#utility.yul\":16966:17009   */\n      add\n        /* \"#utility.yul\":16959:17009   */\n      swap4\n      pop\n        /* \"#utility.yul\":16855:17019   */\n      jump(tag_346)\n        /* \"#utility.yul\":17028:17364   */\n    tag_348:\n        /* \"#utility.yul\":17095:17133   */\n      tag_349\n        /* \"#utility.yul\":17127:17132   */\n      dup6\n        /* \"#utility.yul\":17095:17133   */\n      tag_158\n      jump\t// in\n    tag_349:\n        /* \"#utility.yul\":17155:17156   */\n      0x00\n        /* \"#utility.yul\":17169:17323   */\n    tag_350:\n        /* \"#utility.yul\":17183:17189   */\n      dup4\n        /* \"#utility.yul\":17180:17181   */\n      dup2\n        /* \"#utility.yul\":17177:17190   */\n      lt\n        /* \"#utility.yul\":17169:17323   */\n      iszero\n      tag_352\n      jumpi\n        /* \"#utility.yul\":17257:17264   */\n      dup2\n        /* \"#utility.yul\":17251:17265   */\n      sload\n        /* \"#utility.yul\":17247:17248   */\n      dup2\n        /* \"#utility.yul\":17242:17245   */\n      dup10\n        /* \"#utility.yul\":17238:17249   */\n      add\n        /* \"#utility.yul\":17231:17266   */\n      mstore\n        /* \"#utility.yul\":17307:17308   */\n      0x01\n        /* \"#utility.yul\":17298:17305   */\n      dup3\n        /* \"#utility.yul\":17294:17309   */\n      add\n        /* \"#utility.yul\":17283:17309   */\n      swap2\n      pop\n        /* \"#utility.yul\":17205:17209   */\n      0x20\n        /* \"#utility.yul\":17202:17203   */\n      dup2\n        /* \"#utility.yul\":17198:17210   */\n      add\n        /* \"#utility.yul\":17193:17210   */\n      swap1\n      pop\n        /* \"#utility.yul\":17169:17323   */\n      jump(tag_350)\n    tag_352:\n        /* \"#utility.yul\":17352:17353   */\n      dup1\n        /* \"#utility.yul\":17347:17350   */\n      dup9\n        /* \"#utility.yul\":17343:17354   */\n      add\n        /* \"#utility.yul\":17336:17354   */\n      swap6\n      pop\n        /* \"#utility.yul\":17035:17364   */\n      pop\n      pop\n        /* \"#utility.yul\":16822:17364   */\n    tag_346:\n      pop\n        /* \"#utility.yul\":16628:17370   */\n      pop\n      pop\n        /* \"#utility.yul\":16539:17370   */\n      swap3\n      swap2\n      pop\n      pop\n      jump\t// out\n        /* \"#utility.yul\":17376:18105   */\n    tag_77:\n        /* \"#utility.yul\":17590:17594   */\n      0x00\n        /* \"#utility.yul\":17628:17631   */\n      0x80\n        /* \"#utility.yul\":17617:17626   */\n      dup3\n        /* \"#utility.yul\":17613:17632   */\n      add\n        /* \"#utility.yul\":17605:17632   */\n      swap1\n      pop\n        /* \"#utility.yul\":17642:17713   */\n      tag_354\n        /* \"#utility.yul\":17710:17711   */\n      0x00\n        /* \"#utility.yul\":17699:17708   */\n      dup4\n        /* \"#utility.yul\":17695:17712   */\n      add\n        /* \"#utility.yul\":17686:17692   */\n      dup8\n        /* \"#utility.yul\":17642:17713   */\n      tag_122\n      jump\t// in\n    tag_354:\n        /* \"#utility.yul\":17760:17769   */\n      dup2\n        /* \"#utility.yul\":17754:17758   */\n      dup2\n        /* \"#utility.yul\":17750:17770   */\n      sub\n        /* \"#utility.yul\":17745:17747   */\n      0x20\n        /* \"#utility.yul\":17734:17743   */\n      dup4\n        /* \"#utility.yul\":17730:17748   */\n      add\n        /* \"#utility.yul\":17723:17771   */\n      mstore\n        /* \"#utility.yul\":17788:17866   */\n      tag_355\n        /* \"#utility.yul\":17861:17865   */\n      dup2\n        /* \"#utility.yul\":17852:17858   */\n      dup7\n        /* \"#utility.yul\":17788:17866   */\n      tag_127\n      jump\t// in\n    tag_355:\n        /* \"#utility.yul\":17780:17866   */\n      swap1\n      pop\n        /* \"#utility.yul\":17876:17948   */\n      tag_356\n        /* \"#utility.yul\":17944:17946   */\n      0x40\n        /* \"#utility.yul\":17933:17942   */\n      dup4\n        /* \"#utility.yul\":17929:17947   */\n      add\n        /* \"#utility.yul\":17920:17926   */\n      dup6\n        /* \"#utility.yul\":17876:17948   */\n      tag_122\n      jump\t// in\n    tag_356:\n        /* \"#utility.yul\":17995:18004   */\n      dup2\n        /* \"#utility.yul\":17989:17993   */\n      dup2\n        /* \"#utility.yul\":17985:18005   */\n      sub\n        /* \"#utility.yul\":17980:17982   */\n      0x60\n        /* \"#utility.yul\":17969:17978   */\n      dup4\n        /* \"#utility.yul\":17965:17983   */\n      add\n        /* \"#utility.yul\":17958:18006   */\n      mstore\n        /* \"#utility.yul\":18023:18098   */\n      tag_357\n        /* \"#utility.yul\":18093:18097   */\n      dup2\n        /* \"#utility.yul\":18084:18090   */\n      dup5\n        /* \"#utility.yul\":18023:18098   */\n      tag_161\n      jump\t// in\n    tag_357:\n        /* \"#utility.yul\":18015:18098   */\n      swap1\n      pop\n        /* \"#utility.yul\":17376:18105   */\n      swap6\n      swap5\n      pop\n      pop\n      pop\n      pop\n      pop\n      jump\t// out\n        /* \"#utility.yul\":18111:18291   */\n    tag_162:\n        /* \"#utility.yul\":18159:18236   */\n      0x4e487b7100000000000000000000000000000000000000000000000000000000\n        /* \"#utility.yul\":18156:18157   */\n      0x00\n        /* \"#utility.yul\":18149:18237   */\n      mstore\n        /* \"#utility.yul\":18256:18260   */\n      0x11\n        /* \"#utility.yul\":18253:18254   */\n      0x04\n        /* \"#utility.yul\":18246:18261   */\n      mstore\n        /* \"#utility.yul\":18280:18284   */\n      0x24\n        /* \"#utility.yul\":18277:18278   */\n      0x00\n        /* \"#utility.yul\":18270:18285   */\n      revert\n        /* \"#utility.yul\":18297:18530   */\n    tag_79:\n        /* \"#utility.yul\":18336:18339   */\n      0x00\n        /* \"#utility.yul\":18359:18383   */\n      tag_360\n        /* \"#utility.yul\":18377:18382   */\n      dup3\n        /* \"#utility.yul\":18359:18383   */\n      tag_119\n      jump\t// in\n    tag_360:\n        /* \"#utility.yul\":18350:18383   */\n      swap2\n      pop\n        /* \"#utility.yul\":18405:18471   */\n      0xffffffffffffffffffffffffffffffffffffffffffffffffffffffffffffffff\n        /* \"#utility.yul\":18398:18403   */\n      dup3\n        /* \"#utility.yul\":18395:18472   */\n      sub\n        /* \"#utility.yul\":18392:18495   */\n      tag_361\n      jumpi\n        /* \"#utility.yul\":18475:18493   */\n      tag_362\n      tag_162\n      jump\t// in\n    tag_362:\n        /* \"#utility.yul\":18392:18495   */\n    tag_361:\n        /* \"#utility.yul\":18522:18523   */\n      0x01\n        /* \"#utility.yul\":18515:18520   */\n      dup3\n        /* \"#utility.yul\":18511:18524   */\n      add\n        /* \"#utility.yul\":18504:18524   */\n      swap1\n      pop\n        /* \"#utility.yul\":18297:18530   */\n      swap2\n      swap1\n      pop\n      jump\t// out\n        /* \"#utility.yul\":18536:18709   */\n    tag_163:\n        /* \"#utility.yul\":18676:18701   */\n      0x4e6963696f20706f747269766972652067617369746121000000000000000000\n        /* \"#utility.yul\":18672:18673   */\n      0x00\n        /* \"#utility.yul\":18664:18670   */\n      dup3\n        /* \"#utility.yul\":18660:18674   */\n      add\n        /* \"#utility.yul\":18653:18702   */\n      mstore\n        /* \"#utility.yul\":18536:18709   */\n      pop\n      jump\t// out\n        /* \"#utility.yul\":18715:19081   */\n    tag_164:\n        /* \"#utility.yul\":18857:18860   */\n      0x00\n        /* \"#utility.yul\":18878:18945   */\n      tag_365\n        /* \"#utility.yul\":18942:18944   */\n      0x17\n        /* \"#utility.yul\":18937:18940   */\n      dup4\n        /* \"#utility.yul\":18878:18945   */\n      tag_124\n      jump\t// in\n    tag_365:\n        /* \"#utility.yul\":18871:18945   */\n      swap2\n      pop\n        /* \"#utility.yul\":18954:19047   */\n      tag_366\n        /* \"#utility.yul\":19043:19046   */\n      dup3\n        /* \"#utility.yul\":18954:19047   */\n      tag_163\n      jump\t// in\n    tag_366:\n        /* \"#utility.yul\":19072:19074   */\n      0x20\n        /* \"#utility.yul\":19067:19070   */\n      dup3\n        /* \"#utility.yul\":19063:19075   */\n      add\n        /* \"#utility.yul\":19056:19075   */\n      swap1\n      pop\n        /* \"#utility.yul\":18715:19081   */\n      swap2\n      swap1\n      pop\n      jump\t// out\n        /* \"#utility.yul\":19087:19506   */\n    tag_81:\n        /* \"#utility.yul\":19253:19257   */\n      0x00\n        /* \"#utility.yul\":19291:19293   */\n      0x20\n        /* \"#utility.yul\":19280:19289   */\n      dup3\n        /* \"#utility.yul\":19276:19294   */\n      add\n        /* \"#utility.yul\":19268:19294   */\n      swap1\n      pop\n        /* \"#utility.yul\":19340:19349   */\n      dup2\n        /* \"#utility.yul\":19334:19338   */\n      dup2\n        /* \"#utility.yul\":19330:19350   */\n      sub\n        /* \"#utility.yul\":19326:19327   */\n      0x00\n        /* \"#utility.yul\":19315:19324   */\n      dup4\n        /* \"#utility.yul\":19311:19328   */\n      add\n        /* \"#utility.yul\":19304:19351   */\n      mstore\n        /* \"#utility.yul\":19368:19499   */\n      tag_368\n        /* \"#utility.yul\":19494:19498   */\n      dup2\n        /* \"#utility.yul\":19368:19499   */\n      tag_164\n      jump\t// in\n    tag_368:\n        /* \"#utility.yul\":19360:19499   */\n      swap1\n      pop\n        /* \"#utility.yul\":19087:19506   */\n      swap2\n      swap1\n      pop\n      jump\t// out\n        /* \"#utility.yul\":19512:19735   */\n    tag_165:\n        /* \"#utility.yul\":19652:19686   */\n      0x50616369656e74756c206e752061207072696d697420756e207472616e73706c\n        /* \"#utility.yul\":19648:19649   */\n      0x00\n        /* \"#utility.yul\":19640:19646   */\n      dup3\n        /* \"#utility.yul\":19636:19650   */\n      add\n        /* \"#utility.yul\":19629:19687   */\n      mstore\n        /* \"#utility.yul\":19721:19727   */\n      0x616e742100000000000000000000000000000000000000000000000000000000\n        /* \"#utility.yul\":19716:19718   */\n      0x20\n        /* \"#utility.yul\":19708:19714   */\n      dup3\n        /* \"#utility.yul\":19704:19719   */\n      add\n        /* \"#utility.yul\":19697:19728   */\n      mstore\n        /* \"#utility.yul\":19512:19735   */\n      pop\n      jump\t// out\n        /* \"#utility.yul\":19741:20107   */\n    tag_166:\n        /* \"#utility.yul\":19883:19886   */\n      0x00\n        /* \"#utility.yul\":19904:19971   */\n      tag_371\n        /* \"#utility.yul\":19968:19970   */\n      0x24\n        /* \"#utility.yul\":19963:19966   */\n      dup4\n        /* \"#utility.yul\":19904:19971   */\n      tag_124\n      jump\t// in\n    tag_371:\n        /* \"#utility.yul\":19897:19971   */\n      swap2\n      pop\n        /* \"#utility.yul\":19980:20073   */\n      tag_372\n        /* \"#utility.yul\":20069:20072   */\n      dup3\n        /* \"#utility.yul\":19980:20073   */\n      tag_165\n      jump\t// in\n    tag_372:\n        /* \"#utility.yul\":20098:20100   */\n      0x40\n        /* \"#utility.yul\":20093:20096   */\n      dup3\n        /* \"#utility.yul\":20089:20101   */\n      add\n        /* \"#utility.yul\":20082:20101   */\n      swap1\n      pop\n        /* \"#utility.yul\":19741:20107   */\n      swap2\n      swap1\n      pop\n      jump\t// out\n        /* \"#utility.yul\":20113:20532   */\n    tag_96:\n        /* \"#utility.yul\":20279:20283   */\n      0x00\n        /* \"#utility.yul\":20317:20319   */\n      0x20\n        /* \"#utility.yul\":20306:20315   */\n      dup3\n        /* \"#utility.yul\":20302:20320   */\n      add\n        /* \"#utility.yul\":20294:20320   */\n      swap1\n      pop\n        /* \"#utility.yul\":20366:20375   */\n      dup2\n        /* \"#utility.yul\":20360:20364   */\n      dup2\n        /* \"#utility.yul\":20356:20376   */\n      sub\n        /* \"#utility.yul\":20352:20353   */\n      0x00\n        /* \"#utility.yul\":20341:20350   */\n      dup4\n        /* \"#utility.yul\":20337:20354   */\n      add\n        /* \"#utility.yul\":20330:20377   */\n      mstore\n        /* \"#utility.yul\":20394:20525   */\n      tag_374\n        /* \"#utility.yul\":20520:20524   */\n      dup2\n        /* \"#utility.yul\":20394:20525   */\n      tag_166\n      jump\t// in\n    tag_374:\n        /* \"#utility.yul\":20386:20525   */\n      swap1\n      pop\n        /* \"#utility.yul\":20113:20532   */\n      swap2\n      swap1\n      pop\n      jump\t// out\n        /* \"#utility.yul\":20538:20631   */\n    tag_167:\n        /* \"#utility.yul\":20575:20581   */\n      0x00\n        /* \"#utility.yul\":20622:20624   */\n      0x20\n        /* \"#utility.yul\":20617:20619   */\n      0x1f\n        /* \"#utility.yul\":20610:20615   */\n      dup4\n        /* \"#utility.yul\":20606:20620   */\n      add\n        /* \"#utility.yul\":20602:20625   */\n      div\n        /* \"#utility.yul\":20592:20625   */\n      swap1\n      pop\n        /* \"#utility.yul\":20538:20631   */\n      swap2\n      swap1\n      pop\n      jump\t// out\n        /* \"#utility.yul\":20637:20744   */\n    tag_168:\n        /* \"#utility.yul\":20681:20689   */\n      0x00\n        /* \"#utility.yul\":20731:20736   */\n      dup3\n        /* \"#utility.yul\":20725:20729   */\n      dup3\n        /* \"#utility.yul\":20721:20737   */\n      shl\n        /* \"#utility.yul\":20700:20737   */\n      swap1\n      pop\n        /* \"#utility.yul\":20637:20744   */\n      swap3\n      swap2\n      pop\n      pop\n      jump\t// out\n        /* \"#utility.yul\":20750:21143   */\n    tag_169:\n        /* \"#utility.yul\":20819:20825   */\n      0x00\n        /* \"#utility.yul\":20869:20870   */\n      0x08\n        /* \"#utility.yul\":20857:20867   */\n      dup4\n        /* \"#utility.yul\":20853:20871   */\n      mul\n        /* \"#utility.yul\":20892:20989   */\n      tag_378\n        /* \"#utility.yul\":20922:20988   */\n      0xffffffffffffffffffffffffffffffffffffffffffffffffffffffffffffffff\n        /* \"#utility.yul\":20911:20920   */\n      dup3\n        /* \"#utility.yul\":20892:20989   */\n      tag_168\n      jump\t// in\n    tag_378:\n        /* \"#utility.yul\":21010:21049   */\n      tag_379\n        /* \"#utility.yul\":21040:21048   */\n      dup7\n        /* \"#utility.yul\":21029:21038   */\n      dup4\n        /* \"#utility.yul\":21010:21049   */\n      tag_168\n      jump\t// in\n    tag_379:\n        /* \"#utility.yul\":20998:21049   */\n      swap6\n      pop\n        /* \"#utility.yul\":21082:21086   */\n      dup1\n        /* \"#utility.yul\":21078:21087   */\n      not\n        /* \"#utility.yul\":21071:21076   */\n      dup5\n        /* \"#utility.yul\":21067:21088   */\n      and\n        /* \"#utility.yul\":21058:21088   */\n      swap4\n      pop\n        /* \"#utility.yul\":21131:21135   */\n      dup1\n        /* \"#utility.yul\":21121:21129   */\n      dup7\n        /* \"#utility.yul\":21117:21136   */\n      and\n        /* \"#utility.yul\":21110:21115   */\n      dup5\n        /* \"#utility.yul\":21107:21137   */\n      or\n        /* \"#utility.yul\":21097:21137   */\n      swap3\n      pop\n        /* \"#utility.yul\":20826:21143   */\n      pop\n      pop\n        /* \"#utility.yul\":20750:21143   */\n      swap4\n      swap3\n      pop\n      pop\n      pop\n      jump\t// out\n        /* \"#utility.yul\":21149:21291   */\n    tag_170:\n        /* \"#utility.yul\":21199:21208   */\n      0x00\n        /* \"#utility.yul\":21232:21285   */\n      tag_381\n        /* \"#utility.yul\":21250:21284   */\n      tag_382\n        /* \"#utility.yul\":21259:21283   */\n      tag_383\n        /* \"#utility.yul\":21277:21282   */\n      dup5\n        /* \"#utility.yul\":21259:21283   */\n      tag_119\n      jump\t// in\n    tag_383:\n        /* \"#utility.yul\":21250:21284   */\n      tag_133\n      jump\t// in\n    tag_382:\n        /* \"#utility.yul\":21232:21285   */\n      tag_119\n      jump\t// in\n    tag_381:\n        /* \"#utility.yul\":21219:21285   */\n      swap1\n      pop\n        /* \"#utility.yul\":21149:21291   */\n      swap2\n      swap1\n      pop\n      jump\t// out\n        /* \"#utility.yul\":21297:21372   */\n    tag_171:\n        /* \"#utility.yul\":21340:21343   */\n      0x00\n        /* \"#utility.yul\":21361:21366   */\n      dup2\n        /* \"#utility.yul\":21354:21366   */\n      swap1\n      pop\n        /* \"#utility.yul\":21297:21372   */\n      swap2\n      swap1\n      pop\n      jump\t// out\n        /* \"#utility.yul\":21378:21647   */\n    tag_172:\n        /* \"#utility.yul\":21488:21527   */\n      tag_386\n        /* \"#utility.yul\":21519:21526   */\n      dup4\n        /* \"#utility.yul\":21488:21527   */\n      tag_170\n      jump\t// in\n    tag_386:\n        /* \"#utility.yul\":21549:21640   */\n      tag_387\n        /* \"#utility.yul\":21598:21639   */\n      tag_388\n        /* \"#utility.yul\":21622:21638   */\n      dup3\n        /* \"#utility.yul\":21598:21639   */\n      tag_171\n      jump\t// in\n    tag_388:\n        /* \"#utility.yul\":21590:21596   */\n      dup5\n        /* \"#utility.yul\":21583:21587   */\n      dup5\n        /* \"#utility.yul\":21577:21588   */\n      sload\n        /* \"#utility.yul\":21549:21640   */\n      tag_169\n      jump\t// in\n    tag_387:\n        /* \"#utility.yul\":21543:21547   */\n      dup3\n        /* \"#utility.yul\":21536:21641   */\n      sstore\n        /* \"#utility.yul\":21454:21647   */\n      pop\n        /* \"#utility.yul\":21378:21647   */\n      pop\n      pop\n      pop\n      jump\t// out\n        /* \"#utility.yul\":21653:21726   */\n    tag_173:\n        /* \"#utility.yul\":21698:21701   */\n      0x00\n        /* \"#utility.yul\":21653:21726   */\n      swap1\n      jump\t// out\n        /* \"#utility.yul\":21732:21921   */\n    tag_174:\n        /* \"#utility.yul\":21809:21841   */\n      tag_391\n      tag_173\n      jump\t// in\n    tag_391:\n        /* \"#utility.yul\":21850:21915   */\n      tag_392\n        /* \"#utility.yul\":21908:21914   */\n      dup2\n        /* \"#utility.yul\":21900:21906   */\n      dup5\n        /* \"#utility.yul\":21894:21898   */\n      dup5\n        /* \"#utility.yul\":21850:21915   */\n      tag_172\n      jump\t// in\n    tag_392:\n        /* \"#utility.yul\":21785:21921   */\n      pop\n        /* \"#utility.yul\":21732:21921   */\n      pop\n      pop\n      jump\t// out\n        /* \"#utility.yul\":21927:22113   */\n    tag_175:\n        /* \"#utility.yul\":21987:22107   */\n    tag_394:\n        /* \"#utility.yul\":22004:22007   */\n      dup2\n        /* \"#utility.yul\":21997:22002   */\n      dup2\n        /* \"#utility.yul\":21994:22008   */\n      lt\n        /* \"#utility.yul\":21987:22107   */\n      iszero\n      tag_396\n      jumpi\n        /* \"#utility.yul\":22058:22097   */\n      tag_397\n        /* \"#utility.yul\":22095:22096   */\n      0x00\n        /* \"#utility.yul\":22088:22093   */\n      dup3\n        /* \"#utility.yul\":22058:22097   */\n      tag_174\n      jump\t// in\n    tag_397:\n        /* \"#utility.yul\":22031:22032   */\n      0x01\n        /* \"#utility.yul\":22024:22029   */\n      dup2\n        /* \"#utility.yul\":22020:22033   */\n      add\n        /* \"#utility.yul\":22011:22033   */\n      swap1\n      pop\n        /* \"#utility.yul\":21987:22107   */\n      jump(tag_394)\n    tag_396:\n        /* \"#utility.yul\":21927:22113   */\n      pop\n      pop\n      jump\t// out\n        /* \"#utility.yul\":22119:22662   */\n    tag_176:\n        /* \"#utility.yul\":22220:22222   */\n      0x1f\n        /* \"#utility.yul\":22215:22218   */\n      dup3\n        /* \"#utility.yul\":22212:22223   */\n      gt\n        /* \"#utility.yul\":22209:22655   */\n      iszero\n      tag_399\n      jumpi\n        /* \"#utility.yul\":22254:22292   */\n      tag_400\n        /* \"#utility.yul\":22286:22291   */\n      dup2\n        /* \"#utility.yul\":22254:22292   */\n      tag_158\n      jump\t// in\n    tag_400:\n        /* \"#utility.yul\":22338:22367   */\n      tag_401\n        /* \"#utility.yul\":22356:22366   */\n      dup5\n        /* \"#utility.yul\":22338:22367   */\n      tag_167\n      jump\t// in\n    tag_401:\n        /* \"#utility.yul\":22328:22336   */\n      dup2\n        /* \"#utility.yul\":22324:22368   */\n      add\n        /* \"#utility.yul\":22521:22523   */\n      0x20\n        /* \"#utility.yul\":22509:22519   */\n      dup6\n        /* \"#utility.yul\":22506:22524   */\n      lt\n        /* \"#utility.yul\":22503:22552   */\n      iszero\n      tag_402\n      jumpi\n        /* \"#utility.yul\":22542:22550   */\n      dup2\n        /* \"#utility.yul\":22527:22550   */\n      swap1\n      pop\n        /* \"#utility.yul\":22503:22552   */\n    tag_402:\n        /* \"#utility.yul\":22565:22645   */\n      tag_403\n        /* \"#utility.yul\":22621:22643   */\n      tag_404\n        /* \"#utility.yul\":22639:22642   */\n      dup6\n        /* \"#utility.yul\":22621:22643   */\n      tag_167\n      jump\t// in\n    tag_404:\n        /* \"#utility.yul\":22611:22619   */\n      dup4\n        /* \"#utility.yul\":22607:22644   */\n      add\n        /* \"#utility.yul\":22594:22605   */\n      dup3\n        /* \"#utility.yul\":22565:22645   */\n      tag_175\n      jump\t// in\n    tag_403:\n        /* \"#utility.yul\":22224:22655   */\n      pop\n      pop\n        /* \"#utility.yul\":22209:22655   */\n    tag_399:\n        /* \"#utility.yul\":22119:22662   */\n      pop\n      pop\n      pop\n      jump\t// out\n        /* \"#utility.yul\":22668:22785   */\n    tag_177:\n        /* \"#utility.yul\":22722:22730   */\n      0x00\n        /* \"#utility.yul\":22772:22777   */\n      dup3\n        /* \"#utility.yul\":22766:22770   */\n      dup3\n        /* \"#utility.yul\":22762:22778   */\n      shr\n        /* \"#utility.yul\":22741:22778   */\n      swap1\n      pop\n        /* \"#utility.yul\":22668:22785   */\n      swap3\n      swap2\n      pop\n      pop\n      jump\t// out\n        /* \"#utility.yul\":22791:22960   */\n    tag_178:\n        /* \"#utility.yul\":22835:22841   */\n      0x00\n        /* \"#utility.yul\":22868:22919   */\n      tag_407\n        /* \"#utility.yul\":22916:22917   */\n      0x00\n        /* \"#utility.yul\":22912:22918   */\n      not\n        /* \"#utility.yul\":22904:22909   */\n      dup5\n        /* \"#utility.yul\":22901:22902   */\n      0x08\n        /* \"#utility.yul\":22897:22910   */\n      mul\n        /* \"#utility.yul\":22868:22919   */\n      tag_177\n      jump\t// in\n    tag_407:\n        /* \"#utility.yul\":22864:22920   */\n      not\n        /* \"#utility.yul\":22949:22953   */\n      dup1\n        /* \"#utility.yul\":22943:22947   */\n      dup4\n        /* \"#utility.yul\":22939:22954   */\n      and\n        /* \"#utility.yul\":22929:22954   */\n      swap2\n      pop\n        /* \"#utility.yul\":22842:22960   */\n      pop\n        /* \"#utility.yul\":22791:22960   */\n      swap3\n      swap2\n      pop\n      pop\n      jump\t// out\n        /* \"#utility.yul\":22965:23260   */\n    tag_179:\n        /* \"#utility.yul\":23041:23045   */\n      0x00\n        /* \"#utility.yul\":23187:23216   */\n      tag_409\n        /* \"#utility.yul\":23212:23215   */\n      dup4\n        /* \"#utility.yul\":23206:23210   */\n      dup4\n        /* \"#utility.yul\":23187:23216   */\n      tag_178\n      jump\t// in\n    tag_409:\n        /* \"#utility.yul\":23179:23216   */\n      swap2\n      pop\n        /* \"#utility.yul\":23249:23252   */\n      dup3\n        /* \"#utility.yul\":23246:23247   */\n      0x02\n        /* \"#utility.yul\":23242:23253   */\n      mul\n        /* \"#utility.yul\":23236:23240   */\n      dup3\n        /* \"#utility.yul\":23233:23254   */\n      or\n        /* \"#utility.yul\":23225:23254   */\n      swap1\n      pop\n        /* \"#utility.yul\":22965:23260   */\n      swap3\n      swap2\n      pop\n      pop\n      jump\t// out\n        /* \"#utility.yul\":23265:24660   */\n    tag_113:\n        /* \"#utility.yul\":23382:23419   */\n      tag_411\n        /* \"#utility.yul\":23415:23418   */\n      dup3\n        /* \"#utility.yul\":23382:23419   */\n      tag_123\n      jump\t// in\n    tag_411:\n        /* \"#utility.yul\":23484:23502   */\n      0xffffffffffffffff\n        /* \"#utility.yul\":23476:23482   */\n      dup2\n        /* \"#utility.yul\":23473:23503   */\n      gt\n        /* \"#utility.yul\":23470:23526   */\n      iszero\n      tag_412\n      jumpi\n        /* \"#utility.yul\":23506:23524   */\n      tag_413\n      tag_140\n      jump\t// in\n    tag_413:\n        /* \"#utility.yul\":23470:23526   */\n    tag_412:\n        /* \"#utility.yul\":23550:23588   */\n      tag_414\n        /* \"#utility.yul\":23582:23586   */\n      dup3\n        /* \"#utility.yul\":23576:23587   */\n      sload\n        /* \"#utility.yul\":23550:23588   */\n      tag_83\n      jump\t// in\n    tag_414:\n        /* \"#utility.yul\":23635:23702   */\n      tag_415\n        /* \"#utility.yul\":23695:23701   */\n      dup3\n        /* \"#utility.yul\":23687:23693   */\n      dup3\n        /* \"#utility.yul\":23681:23685   */\n      dup6\n        /* \"#utility.yul\":23635:23702   */\n      tag_176\n      jump\t// in\n    tag_415:\n        /* \"#utility.yul\":23729:23730   */\n      0x00\n        /* \"#utility.yul\":23753:23757   */\n      0x20\n        /* \"#utility.yul\":23740:23757   */\n      swap1\n      pop\n        /* \"#utility.yul\":23785:23787   */\n      0x1f\n        /* \"#utility.yul\":23777:23783   */\n      dup4\n        /* \"#utility.yul\":23774:23788   */\n      gt\n        /* \"#utility.yul\":23802:23803   */\n      0x01\n        /* \"#utility.yul\":23797:24415   */\n      dup2\n      eq\n      tag_417\n      jumpi\n        /* \"#utility.yul\":24459:24460   */\n      0x00\n        /* \"#utility.yul\":24476:24482   */\n      dup5\n        /* \"#utility.yul\":24473:24550   */\n      iszero\n      tag_418\n      jumpi\n        /* \"#utility.yul\":24525:24534   */\n      dup3\n        /* \"#utility.yul\":24520:24523   */\n      dup8\n        /* \"#utility.yul\":24516:24535   */\n      add\n        /* \"#utility.yul\":24510:24536   */\n      mload\n        /* \"#utility.yul\":24501:24536   */\n      swap1\n      pop\n        /* \"#utility.yul\":24473:24550   */\n    tag_418:\n        /* \"#utility.yul\":24576:24643   */\n      tag_419\n        /* \"#utility.yul\":24636:24642   */\n      dup6\n        /* \"#utility.yul\":24629:24634   */\n      dup3\n        /* \"#utility.yul\":24576:24643   */\n      tag_179\n      jump\t// in\n    tag_419:\n        /* \"#utility.yul\":24570:24574   */\n      dup7\n        /* \"#utility.yul\":24563:24644   */\n      sstore\n        /* \"#utility.yul\":24432:24654   */\n      pop\n        /* \"#utility.yul\":23767:24654   */\n      jump(tag_416)\n        /* \"#utility.yul\":23797:24415   */\n    tag_417:\n        /* \"#utility.yul\":23849:23853   */\n      0x1f\n        /* \"#utility.yul\":23845:23854   */\n      not\n        /* \"#utility.yul\":23837:23843   */\n      dup5\n        /* \"#utility.yul\":23833:23855   */\n      and\n        /* \"#utility.yul\":23883:23920   */\n      tag_420\n        /* \"#utility.yul\":23915:23919   */\n      dup7\n        /* \"#utility.yul\":23883:23920   */\n      tag_158\n      jump\t// in\n    tag_420:\n        /* \"#utility.yul\":23942:23943   */\n      0x00\n        /* \"#utility.yul\":23956:24164   */\n    tag_421:\n        /* \"#utility.yul\":23970:23977   */\n      dup3\n        /* \"#utility.yul\":23967:23968   */\n      dup2\n        /* \"#utility.yul\":23964:23978   */\n      lt\n        /* \"#utility.yul\":23956:24164   */\n      iszero\n      tag_423\n      jumpi\n        /* \"#utility.yul\":24049:24058   */\n      dup5\n        /* \"#utility.yul\":24044:24047   */\n      dup10\n        /* \"#utility.yul\":24040:24059   */\n      add\n        /* \"#utility.yul\":24034:24060   */\n      mload\n        /* \"#utility.yul\":24026:24032   */\n      dup3\n        /* \"#utility.yul\":24019:24061   */\n      sstore\n        /* \"#utility.yul\":24100:24101   */\n      0x01\n        /* \"#utility.yul\":24092:24098   */\n      dup3\n        /* \"#utility.yul\":24088:24102   */\n      add\n        /* \"#utility.yul\":24078:24102   */\n      swap2\n      pop\n        /* \"#utility.yul\":24147:24149   */\n      0x20\n        /* \"#utility.yul\":24136:24145   */\n      dup6\n        /* \"#utility.yul\":24132:24150   */\n      add\n        /* \"#utility.yul\":24119:24150   */\n      swap5\n      pop\n        /* \"#utility.yul\":23993:23997   */\n      0x20\n        /* \"#utility.yul\":23990:23991   */\n      dup2\n        /* \"#utility.yul\":23986:23998   */\n      add\n        /* \"#utility.yul\":23981:23998   */\n      swap1\n      pop\n        /* \"#utility.yul\":23956:24164   */\n      jump(tag_421)\n    tag_423:\n        /* \"#utility.yul\":24192:24198   */\n      dup7\n        /* \"#utility.yul\":24183:24190   */\n      dup4\n        /* \"#utility.yul\":24180:24199   */\n      lt\n        /* \"#utility.yul\":24177:24356   */\n      iszero\n      tag_424\n      jumpi\n        /* \"#utility.yul\":24250:24259   */\n      dup5\n        /* \"#utility.yul\":24245:24248   */\n      dup10\n        /* \"#utility.yul\":24241:24260   */\n      add\n        /* \"#utility.yul\":24235:24261   */\n      mload\n        /* \"#utility.yul\":24293:24341   */\n      tag_425\n        /* \"#utility.yul\":24335:24339   */\n      0x1f\n        /* \"#utility.yul\":24327:24333   */\n      dup10\n        /* \"#utility.yul\":24323:24340   */\n      and\n        /* \"#utility.yul\":24312:24321   */\n      dup3\n        /* \"#utility.yul\":24293:24341   */\n      tag_178\n      jump\t// in\n    tag_425:\n        /* \"#utility.yul\":24285:24291   */\n      dup4\n        /* \"#utility.yul\":24278:24342   */\n      sstore\n        /* \"#utility.yul\":24200:24356   */\n      pop\n        /* \"#utility.yul\":24177:24356   */\n    tag_424:\n        /* \"#utility.yul\":24402:24403   */\n      0x01\n        /* \"#utility.yul\":24398:24399   */\n      0x02\n        /* \"#utility.yul\":24390:24396   */\n      dup9\n        /* \"#utility.yul\":24386:24400   */\n      mul\n        /* \"#utility.yul\":24382:24404   */\n      add\n        /* \"#utility.yul\":24376:24380   */\n      dup9\n        /* \"#utility.yul\":24369:24405   */\n      sstore\n        /* \"#utility.yul\":23804:24415   */\n      pop\n      pop\n      pop\n        /* \"#utility.yul\":23767:24654   */\n    tag_416:\n      pop\n        /* \"#utility.yul\":23357:24660   */\n      pop\n      pop\n      pop\n        /* \"#utility.yul\":23265:24660   */\n      pop\n      pop\n      jump\t// out\n\n    auxdata: 0xa264697066735822122097b66a4c9fd07cb979aff306cd107cb36335cffd80dfa385dc95798deffb5c8564736f6c634300081a0033\n}\n",
				"bytecode": {
					"linkReferences": {},
					"object": "60806040525f600155348015610013575f80fd5b506040516118d43803806118d483398181016040528101906100359190610118565b8060045f6101000a81548173ffffffffffffffffffffffffffffffffffffffff021916908373ffffffffffffffffffffffffffffffffffffffff160217905550335f806101000a81548173ffffffffffffffffffffffffffffffffffffffff021916908373ffffffffffffffffffffffffffffffffffffffff16021790555050610143565b5f80fd5b5f73ffffffffffffffffffffffffffffffffffffffff82169050919050565b5f6100e7826100be565b9050919050565b6100f7816100dd565b8114610101575f80fd5b50565b5f81519050610112816100ee565b92915050565b5f6020828403121561012d5761012c6100ba565b5b5f61013a84828501610104565b91505092915050565b611784806101505f395ff3fe608060405234801561000f575f80fd5b5060043610610086575f3560e01c80638da5cb5b116100595780638da5cb5b1461014f5780639a34ee921461016d578063a577589e1461018b578063c407670f146101a757610086565b80632145efcb1461008a5780633b478249146100ba5780634abfa163146100ea578063693231a41461011d575b5f80fd5b6100a4600480360381019061009f9190610ae6565b6101c5565b6040516100b19190610b20565b60405180910390f35b6100d460048036038101906100cf9190610ae6565b6101da565b6040516100e19190610b20565b60405180910390f35b61010460048036038101906100ff9190610ae6565b6105b3565b6040516101149493929190610bc3565b60405180910390f35b61013760048036038101906101329190610ae6565b6106f7565b60405161014693929190610c14565b60405180910390f35b6101576108e0565b6040516101649190610c96565b60405180910390f35b610175610903565b6040516101829190610d0a565b60405180910390f35b6101a560048036038101906101a09190610e4f565b610928565b005b6101af610a9c565b6040516101bc9190610b20565b60405180910390f35b6003602052805f5260405f205f915090505481565b5f805f9054906101000a900473ffffffffffffffffffffffffffffffffffffffff1673ffffffffffffffffffffffffffffffffffffffff163373ffffffffffffffffffffffffffffffffffffffff1614610269576040517f08c379a000000000000000000000000000000000000000000000000000000000815260040161026090610f35565b60405180910390fd5b5f8211801561027a57506001548211155b6102b9576040517f08c379a00000000000000000000000000000000000000000000000000000000081526004016102b090610f9d565b60405180910390fd5b60025f8381526020019081526020015f206003015f9054906101000a900460ff16610319576040517f08c379a000000000000000000000000000000000000000000000000000000000815260040161031090611005565b60405180910390fd5b5f600190505b60045f9054906101000a900473ffffffffffffffffffffffffffffffffffffffff1673ffffffffffffffffffffffffffffffffffffffff1663a0303c416040518163ffffffff1660e01b8152600401602060405180830381865afa158015610389573d5f803e3d5ffd5b505050506040513d601f19601f820116820180604052508101906103ad9190611037565b8111610572575f805f60045f9054906101000a900473ffffffffffffffffffffffffffffffffffffffff1673ffffffffffffffffffffffffffffffffffffffff16637d3a6796856040518263ffffffff1660e01b81526004016104109190610b20565b5f60405180830381865afa15801561042a573d5f803e3d5ffd5b505050506040513d5f823e3d601f19601f8201168201806040525081019061045291906110d0565b5092509250925060025f8781526020019081526020015f2060020160405160200161047d9190611265565b60405160208183030381529060405280519060200120826040516020016104a491906112ab565b604051602081830303815290604052805190602001200361055c575f60025f8881526020019081526020015f206003015f6101000a81548160ff0219169083151502179055508560035f8681526020019081526020015f20819055507fd29b4a0c1b4f845b0c433d5f0b9bd408514b149d1aa7ce14cd1530b4b3486a6a84848860025f8b81526020019081526020015f206001016040516105489493929190611342565b60405180910390a1839450505050506105ae565b505050808061056a906113c0565b91505061031f565b506040517f08c379a00000000000000000000000000000000000000000000000000000000081526004016105a590611451565b60405180910390fd5b919050565b6002602052805f5260405f205f91509050805f0154908060010180546105d890611199565b80601f016020809104026020016040519081016040528092919081815260200182805461060490611199565b801561064f5780601f106106265761010080835404028352916020019161064f565b820191905f5260205f20905b81548152906001019060200180831161063257829003601f168201915b50505050509080600201805461066490611199565b80601f016020809104026020016040519081016040528092919081815260200182805461069090611199565b80156106db5780601f106106b2576101008083540402835291602001916106db565b820191905f5260205f20905b8154815290600101906020018083116106be57829003601f168201915b505050505090806003015f9054906101000a900460ff16905084565b5f6060805f60035f8681526020019081526020015f20540361074e576040517f08c379a0000000000000000000000000000000000000000000000000000000008152600401610745906114df565b60405180910390fd5b60035f8581526020019081526020015f205492505f60025f8581526020019081526020015f206040518060800160405290815f820154815260200160018201805461079890611199565b80601f01602080910402602001604051908101604052809291908181526020018280546107c490611199565b801561080f5780601f106107e65761010080835404028352916020019161080f565b820191905f5260205f20905b8154815290600101906020018083116107f257829003601f168201915b5050505050815260200160028201805461082890611199565b80601f016020809104026020016040519081016040528092919081815260200182805461085490611199565b801561089f5780601f106108765761010080835404028352916020019161089f565b820191905f5260205f20905b81548152906001019060200180831161088257829003601f168201915b50505050508152602001600382015f9054906101000a900460ff1615151515815250509050805f015181602001518260400151935093509350509193909250565b5f8054906101000a900473ffffffffffffffffffffffffffffffffffffffff1681565b60045f9054906101000a900473ffffffffffffffffffffffffffffffffffffffff1681565b5f8054906101000a900473ffffffffffffffffffffffffffffffffffffffff1673ffffffffffffffffffffffffffffffffffffffff163373ffffffffffffffffffffffffffffffffffffffff16146109b5576040517f08c379a00000000000000000000000000000000000000000000000000000000081526004016109ac90610f35565b60405180910390fd5b60015f8154809291906109c7906113c0565b9190505550604051806080016040528060015481526020018381526020018281526020016001151581525060025f60015481526020019081526020015f205f820151815f01556020820151816001019081610a22919061167f565b506040820151816002019081610a38919061167f565b506060820151816003015f6101000a81548160ff0219169083151502179055509050507f13f1476aa61e2107f46e6bc435eb6d18b382646af69e8591ea83e348641b6e7c6001548383604051610a9093929190610c14565b60405180910390a15050565b60015481565b5f604051905090565b5f80fd5b5f80fd5b5f819050919050565b610ac581610ab3565b8114610acf575f80fd5b50565b5f81359050610ae081610abc565b92915050565b5f60208284031215610afb57610afa610aab565b5b5f610b0884828501610ad2565b91505092915050565b610b1a81610ab3565b82525050565b5f602082019050610b335f830184610b11565b92915050565b5f81519050919050565b5f82825260208201905092915050565b8281835e5f83830152505050565b5f601f19601f8301169050919050565b5f610b7b82610b39565b610b858185610b43565b9350610b95818560208601610b53565b610b9e81610b61565b840191505092915050565b5f8115159050919050565b610bbd81610ba9565b82525050565b5f608082019050610bd65f830187610b11565b8181036020830152610be88186610b71565b90508181036040830152610bfc8185610b71565b9050610c0b6060830184610bb4565b95945050505050565b5f606082019050610c275f830186610b11565b8181036020830152610c398185610b71565b90508181036040830152610c4d8184610b71565b9050949350505050565b5f73ffffffffffffffffffffffffffffffffffffffff82169050919050565b5f610c8082610c57565b9050919050565b610c9081610c76565b82525050565b5f602082019050610ca95f830184610c87565b92915050565b5f819050919050565b5f610cd2610ccd610cc884610c57565b610caf565b610c57565b9050919050565b5f610ce382610cb8565b9050919050565b5f610cf482610cd9565b9050919050565b610d0481610cea565b82525050565b5f602082019050610d1d5f830184610cfb565b92915050565b5f80fd5b5f80fd5b7f4e487b71000000000000000000000000000000000000000000000000000000005f52604160045260245ffd5b610d6182610b61565b810181811067ffffffffffffffff82111715610d8057610d7f610d2b565b5b80604052505050565b5f610d92610aa2565b9050610d9e8282610d58565b919050565b5f67ffffffffffffffff821115610dbd57610dbc610d2b565b5b610dc682610b61565b9050602081019050919050565b828183375f83830152505050565b5f610df3610dee84610da3565b610d89565b905082815260208101848484011115610e0f57610e0e610d27565b5b610e1a848285610dd3565b509392505050565b5f82601f830112610e3657610e35610d23565b5b8135610e46848260208601610de1565b91505092915050565b5f8060408385031215610e6557610e64610aab565b5b5f83013567ffffffffffffffff811115610e8257610e81610aaf565b5b610e8e85828601610e22565b925050602083013567ffffffffffffffff811115610eaf57610eae610aaf565b5b610ebb85828601610e22565b9150509250929050565b7f446f6172206f776e65722d756c20706f617465206d6f646966696361206461745f8201527f656c652100000000000000000000000000000000000000000000000000000000602082015250565b5f610f1f602483610b43565b9150610f2a82610ec5565b604082019050919050565b5f6020820190508181035f830152610f4c81610f13565b9050919050565b7f446f6e61746f7220696e6578697374656e7421000000000000000000000000005f82015250565b5f610f87601383610b43565b9150610f9282610f53565b602082019050919050565b5f6020820190508181035f830152610fb481610f7b565b9050919050565b7f446f6e61746f72206e75206573746520646973706f6e6962696c2100000000005f82015250565b5f610fef601b83610b43565b9150610ffa82610fbb565b602082019050919050565b5f6020820190508181035f83015261101c81610fe3565b9050919050565b5f8151905061103181610abc565b92915050565b5f6020828403121561104c5761104b610aab565b5b5f61105984828501611023565b91505092915050565b5f61107461106f84610da3565b610d89565b9050828152602081018484840111156110905761108f610d27565b5b61109b848285610b53565b509392505050565b5f82601f8301126110b7576110b6610d23565b5b81516110c7848260208601611062565b91505092915050565b5f805f80608085870312156110e8576110e7610aab565b5b5f85015167ffffffffffffffff81111561110557611104610aaf565b5b611111878288016110a3565b945050602085015167ffffffffffffffff81111561113257611131610aaf565b5b61113e878288016110a3565b935050604061114f87828801611023565b925050606061116087828801611023565b91505092959194509250565b7f4e487b71000000000000000000000000000000000000000000000000000000005f52602260045260245ffd5b5f60028204905060018216806111b057607f821691505b6020821081036111c3576111c261116c565b5b50919050565b5f81905092915050565b5f819050815f5260205f209050919050565b5f81546111f181611199565b6111fb81866111c9565b9450600182165f8114611215576001811461122a5761125c565b60ff198316865281151582028601935061125c565b611233856111d3565b5f5b8381101561125457815481890152600182019150602081019050611235565b838801955050505b50505092915050565b5f61127082846111e5565b915081905092915050565b5f61128582610b39565b61128f81856111c9565b935061129f818560208601610b53565b80840191505092915050565b5f6112b6828461127b565b915081905092915050565b5f81546112cd81611199565b6112d78186610b43565b9450600182165f81146112f1576001811461130757611339565b60ff198316865281151560200286019350611339565b611310856111d3565b5f5b8381101561133157815481890152600182019150602081019050611312565b808801955050505b50505092915050565b5f6080820190506113555f830187610b11565b81810360208301526113678186610b71565b90506113766040830185610b11565b818103606083015261138881846112c1565b905095945050505050565b7f4e487b71000000000000000000000000000000000000000000000000000000005f52601160045260245ffd5b5f6113ca82610ab3565b91507fffffffffffffffffffffffffffffffffffffffffffffffffffffffffffffffff82036113fc576113fb611393565b5b600182019050919050565b7f4e6963696f20706f7472697669726520676173697461210000000000000000005f82015250565b5f61143b601783610b43565b915061144682611407565b602082019050919050565b5f6020820190508181035f8301526114688161142f565b9050919050565b7f50616369656e74756c206e752061207072696d697420756e207472616e73706c5f8201527f616e742100000000000000000000000000000000000000000000000000000000602082015250565b5f6114c9602483610b43565b91506114d48261146f565b604082019050919050565b5f6020820190508181035f8301526114f6816114bd565b9050919050565b5f6020601f8301049050919050565b5f82821b905092915050565b5f600883026115477fffffffffffffffffffffffffffffffffffffffffffffffffffffffffffffffff8261150c565b611551868361150c565b95508019841693508086168417925050509392505050565b5f61158361157e61157984610ab3565b610caf565b610ab3565b9050919050565b5f819050919050565b61159c83611569565b6115b06115a88261158a565b848454611518565b825550505050565b5f90565b6115c46115b8565b6115cf818484611593565b505050565b5b818110156115f2576115e75f826115bc565b6001810190506115d5565b5050565b601f82111561163757611608816111d3565b611611846114fd565b81016020851015611620578190505b61163461162c856114fd565b8301826115d4565b50505b505050565b5f82821c905092915050565b5f6116575f198460080261163c565b1980831691505092915050565b5f61166f8383611648565b9150826002028217905092915050565b61168882610b39565b67ffffffffffffffff8111156116a1576116a0610d2b565b5b6116ab8254611199565b6116b68282856115f6565b5f60209050601f8311600181146116e7575f84156116d5578287015190505b6116df8582611664565b865550611746565b601f1984166116f5866111d3565b5f5b8281101561171c578489015182556001820191506020850194506020810190506116f7565b868310156117395784890151611735601f891682611648565b8355505b6001600288020188555050505b50505050505056fea264697066735822122097b66a4c9fd07cb979aff306cd107cb36335cffd80dfa385dc95798deffb5c8564736f6c634300081a0033",
					"opcodes": "PUSH1 0x80 PUSH1 0x40 MSTORE PUSH0 PUSH1 0x1 SSTORE CALLVALUE DUP1 ISZERO PUSH2 0x13 JUMPI PUSH0 DUP1 REVERT JUMPDEST POP PUSH1 0x40 MLOAD PUSH2 0x18D4 CODESIZE SUB DUP1 PUSH2 0x18D4 DUP4 CODECOPY DUP2 DUP2 ADD PUSH1 0x40 MSTORE DUP2 ADD SWAP1 PUSH2 0x35 SWAP2 SWAP1 PUSH2 0x118 JUMP JUMPDEST DUP1 PUSH1 0x4 PUSH0 PUSH2 0x100 EXP DUP2 SLOAD DUP2 PUSH20 0xFFFFFFFFFFFFFFFFFFFFFFFFFFFFFFFFFFFFFFFF MUL NOT AND SWAP1 DUP4 PUSH20 0xFFFFFFFFFFFFFFFFFFFFFFFFFFFFFFFFFFFFFFFF AND MUL OR SWAP1 SSTORE POP CALLER PUSH0 DUP1 PUSH2 0x100 EXP DUP2 SLOAD DUP2 PUSH20 0xFFFFFFFFFFFFFFFFFFFFFFFFFFFFFFFFFFFFFFFF MUL NOT AND SWAP1 DUP4 PUSH20 0xFFFFFFFFFFFFFFFFFFFFFFFFFFFFFFFFFFFFFFFF AND MUL OR SWAP1 SSTORE POP POP PUSH2 0x143 JUMP JUMPDEST PUSH0 DUP1 REVERT JUMPDEST PUSH0 PUSH20 0xFFFFFFFFFFFFFFFFFFFFFFFFFFFFFFFFFFFFFFFF DUP3 AND SWAP1 POP SWAP2 SWAP1 POP JUMP JUMPDEST PUSH0 PUSH2 0xE7 DUP3 PUSH2 0xBE JUMP JUMPDEST SWAP1 POP SWAP2 SWAP1 POP JUMP JUMPDEST PUSH2 0xF7 DUP2 PUSH2 0xDD JUMP JUMPDEST DUP2 EQ PUSH2 0x101 JUMPI PUSH0 DUP1 REVERT JUMPDEST POP JUMP JUMPDEST PUSH0 DUP2 MLOAD SWAP1 POP PUSH2 0x112 DUP2 PUSH2 0xEE JUMP JUMPDEST SWAP3 SWAP2 POP POP JUMP JUMPDEST PUSH0 PUSH1 0x20 DUP3 DUP5 SUB SLT ISZERO PUSH2 0x12D JUMPI PUSH2 0x12C PUSH2 0xBA JUMP JUMPDEST JUMPDEST PUSH0 PUSH2 0x13A DUP5 DUP3 DUP6 ADD PUSH2 0x104 JUMP JUMPDEST SWAP2 POP POP SWAP3 SWAP2 POP POP JUMP JUMPDEST PUSH2 0x1784 DUP1 PUSH2 0x150 PUSH0 CODECOPY PUSH0 RETURN INVALID PUSH1 0x80 PUSH1 0x40 MSTORE CALLVALUE DUP1 ISZERO PUSH2 0xF JUMPI PUSH0 DUP1 REVERT JUMPDEST POP PUSH1 0x4 CALLDATASIZE LT PUSH2 0x86 JUMPI PUSH0 CALLDATALOAD PUSH1 0xE0 SHR DUP1 PUSH4 0x8DA5CB5B GT PUSH2 0x59 JUMPI DUP1 PUSH4 0x8DA5CB5B EQ PUSH2 0x14F JUMPI DUP1 PUSH4 0x9A34EE92 EQ PUSH2 0x16D JUMPI DUP1 PUSH4 0xA577589E EQ PUSH2 0x18B JUMPI DUP1 PUSH4 0xC407670F EQ PUSH2 0x1A7 JUMPI PUSH2 0x86 JUMP JUMPDEST DUP1 PUSH4 0x2145EFCB EQ PUSH2 0x8A JUMPI DUP1 PUSH4 0x3B478249 EQ PUSH2 0xBA JUMPI DUP1 PUSH4 0x4ABFA163 EQ PUSH2 0xEA JUMPI DUP1 PUSH4 0x693231A4 EQ PUSH2 0x11D JUMPI JUMPDEST PUSH0 DUP1 REVERT JUMPDEST PUSH2 0xA4 PUSH1 0x4 DUP1 CALLDATASIZE SUB DUP2 ADD SWAP1 PUSH2 0x9F SWAP2 SWAP1 PUSH2 0xAE6 JUMP JUMPDEST PUSH2 0x1C5 JUMP JUMPDEST PUSH1 0x40 MLOAD PUSH2 0xB1 SWAP2 SWAP1 PUSH2 0xB20 JUMP JUMPDEST PUSH1 0x40 MLOAD DUP1 SWAP2 SUB SWAP1 RETURN JUMPDEST PUSH2 0xD4 PUSH1 0x4 DUP1 CALLDATASIZE SUB DUP2 ADD SWAP1 PUSH2 0xCF SWAP2 SWAP1 PUSH2 0xAE6 JUMP JUMPDEST PUSH2 0x1DA JUMP JUMPDEST PUSH1 0x40 MLOAD PUSH2 0xE1 SWAP2 SWAP1 PUSH2 0xB20 JUMP JUMPDEST PUSH1 0x40 MLOAD DUP1 SWAP2 SUB SWAP1 RETURN JUMPDEST PUSH2 0x104 PUSH1 0x4 DUP1 CALLDATASIZE SUB DUP2 ADD SWAP1 PUSH2 0xFF SWAP2 SWAP1 PUSH2 0xAE6 JUMP JUMPDEST PUSH2 0x5B3 JUMP JUMPDEST PUSH1 0x40 MLOAD PUSH2 0x114 SWAP5 SWAP4 SWAP3 SWAP2 SWAP1 PUSH2 0xBC3 JUMP JUMPDEST PUSH1 0x40 MLOAD DUP1 SWAP2 SUB SWAP1 RETURN JUMPDEST PUSH2 0x137 PUSH1 0x4 DUP1 CALLDATASIZE SUB DUP2 ADD SWAP1 PUSH2 0x132 SWAP2 SWAP1 PUSH2 0xAE6 JUMP JUMPDEST PUSH2 0x6F7 JUMP JUMPDEST PUSH1 0x40 MLOAD PUSH2 0x146 SWAP4 SWAP3 SWAP2 SWAP1 PUSH2 0xC14 JUMP JUMPDEST PUSH1 0x40 MLOAD DUP1 SWAP2 SUB SWAP1 RETURN JUMPDEST PUSH2 0x157 PUSH2 0x8E0 JUMP JUMPDEST PUSH1 0x40 MLOAD PUSH2 0x164 SWAP2 SWAP1 PUSH2 0xC96 JUMP JUMPDEST PUSH1 0x40 MLOAD DUP1 SWAP2 SUB SWAP1 RETURN JUMPDEST PUSH2 0x175 PUSH2 0x903 JUMP JUMPDEST PUSH1 0x40 MLOAD PUSH2 0x182 SWAP2 SWAP1 PUSH2 0xD0A JUMP JUMPDEST PUSH1 0x40 MLOAD DUP1 SWAP2 SUB SWAP1 RETURN JUMPDEST PUSH2 0x1A5 PUSH1 0x4 DUP1 CALLDATASIZE SUB DUP2 ADD SWAP1 PUSH2 0x1A0 SWAP2 SWAP1 PUSH2 0xE4F JUMP JUMPDEST PUSH2 0x928 JUMP JUMPDEST STOP JUMPDEST PUSH2 0x1AF PUSH2 0xA9C JUMP JUMPDEST PUSH1 0x40 MLOAD PUSH2 0x1BC SWAP2 SWAP1 PUSH2 0xB20 JUMP JUMPDEST PUSH1 0x40 MLOAD DUP1 SWAP2 SUB SWAP1 RETURN JUMPDEST PUSH1 0x3 PUSH1 0x20 MSTORE DUP1 PUSH0 MSTORE PUSH1 0x40 PUSH0 KECCAK256 PUSH0 SWAP2 POP SWAP1 POP SLOAD DUP2 JUMP JUMPDEST PUSH0 DUP1 PUSH0 SWAP1 SLOAD SWAP1 PUSH2 0x100 EXP SWAP1 DIV PUSH20 0xFFFFFFFFFFFFFFFFFFFFFFFFFFFFFFFFFFFFFFFF AND PUSH20 0xFFFFFFFFFFFFFFFFFFFFFFFFFFFFFFFFFFFFFFFF AND CALLER PUSH20 0xFFFFFFFFFFFFFFFFFFFFFFFFFFFFFFFFFFFFFFFF AND EQ PUSH2 0x269 JUMPI PUSH1 0x40 MLOAD PUSH32 0x8C379A000000000000000000000000000000000000000000000000000000000 DUP2 MSTORE PUSH1 0x4 ADD PUSH2 0x260 SWAP1 PUSH2 0xF35 JUMP JUMPDEST PUSH1 0x40 MLOAD DUP1 SWAP2 SUB SWAP1 REVERT JUMPDEST PUSH0 DUP3 GT DUP1 ISZERO PUSH2 0x27A JUMPI POP PUSH1 0x1 SLOAD DUP3 GT ISZERO JUMPDEST PUSH2 0x2B9 JUMPI PUSH1 0x40 MLOAD PUSH32 0x8C379A000000000000000000000000000000000000000000000000000000000 DUP2 MSTORE PUSH1 0x4 ADD PUSH2 0x2B0 SWAP1 PUSH2 0xF9D JUMP JUMPDEST PUSH1 0x40 MLOAD DUP1 SWAP2 SUB SWAP1 REVERT JUMPDEST PUSH1 0x2 PUSH0 DUP4 DUP2 MSTORE PUSH1 0x20 ADD SWAP1 DUP2 MSTORE PUSH1 0x20 ADD PUSH0 KECCAK256 PUSH1 0x3 ADD PUSH0 SWAP1 SLOAD SWAP1 PUSH2 0x100 EXP SWAP1 DIV PUSH1 0xFF AND PUSH2 0x319 JUMPI PUSH1 0x40 MLOAD PUSH32 0x8C379A000000000000000000000000000000000000000000000000000000000 DUP2 MSTORE PUSH1 0x4 ADD PUSH2 0x310 SWAP1 PUSH2 0x1005 JUMP JUMPDEST PUSH1 0x40 MLOAD DUP1 SWAP2 SUB SWAP1 REVERT JUMPDEST PUSH0 PUSH1 0x1 SWAP1 POP JUMPDEST PUSH1 0x4 PUSH0 SWAP1 SLOAD SWAP1 PUSH2 0x100 EXP SWAP1 DIV PUSH20 0xFFFFFFFFFFFFFFFFFFFFFFFFFFFFFFFFFFFFFFFF AND PUSH20 0xFFFFFFFFFFFFFFFFFFFFFFFFFFFFFFFFFFFFFFFF AND PUSH4 0xA0303C41 PUSH1 0x40 MLOAD DUP2 PUSH4 0xFFFFFFFF AND PUSH1 0xE0 SHL DUP2 MSTORE PUSH1 0x4 ADD PUSH1 0x20 PUSH1 0x40 MLOAD DUP1 DUP4 SUB DUP2 DUP7 GAS STATICCALL ISZERO DUP1 ISZERO PUSH2 0x389 JUMPI RETURNDATASIZE PUSH0 DUP1 RETURNDATACOPY RETURNDATASIZE PUSH0 REVERT JUMPDEST POP POP POP POP PUSH1 0x40 MLOAD RETURNDATASIZE PUSH1 0x1F NOT PUSH1 0x1F DUP3 ADD AND DUP3 ADD DUP1 PUSH1 0x40 MSTORE POP DUP2 ADD SWAP1 PUSH2 0x3AD SWAP2 SWAP1 PUSH2 0x1037 JUMP JUMPDEST DUP2 GT PUSH2 0x572 JUMPI PUSH0 DUP1 PUSH0 PUSH1 0x4 PUSH0 SWAP1 SLOAD SWAP1 PUSH2 0x100 EXP SWAP1 DIV PUSH20 0xFFFFFFFFFFFFFFFFFFFFFFFFFFFFFFFFFFFFFFFF AND PUSH20 0xFFFFFFFFFFFFFFFFFFFFFFFFFFFFFFFFFFFFFFFF AND PUSH4 0x7D3A6796 DUP6 PUSH1 0x40 MLOAD DUP3 PUSH4 0xFFFFFFFF AND PUSH1 0xE0 SHL DUP2 MSTORE PUSH1 0x4 ADD PUSH2 0x410 SWAP2 SWAP1 PUSH2 0xB20 JUMP JUMPDEST PUSH0 PUSH1 0x40 MLOAD DUP1 DUP4 SUB DUP2 DUP7 GAS STATICCALL ISZERO DUP1 ISZERO PUSH2 0x42A JUMPI RETURNDATASIZE PUSH0 DUP1 RETURNDATACOPY RETURNDATASIZE PUSH0 REVERT JUMPDEST POP POP POP POP PUSH1 0x40 MLOAD RETURNDATASIZE PUSH0 DUP3 RETURNDATACOPY RETURNDATASIZE PUSH1 0x1F NOT PUSH1 0x1F DUP3 ADD AND DUP3 ADD DUP1 PUSH1 0x40 MSTORE POP DUP2 ADD SWAP1 PUSH2 0x452 SWAP2 SWAP1 PUSH2 0x10D0 JUMP JUMPDEST POP SWAP3 POP SWAP3 POP SWAP3 POP PUSH1 0x2 PUSH0 DUP8 DUP2 MSTORE PUSH1 0x20 ADD SWAP1 DUP2 MSTORE PUSH1 0x20 ADD PUSH0 KECCAK256 PUSH1 0x2 ADD PUSH1 0x40 MLOAD PUSH1 0x20 ADD PUSH2 0x47D SWAP2 SWAP1 PUSH2 0x1265 JUMP JUMPDEST PUSH1 0x40 MLOAD PUSH1 0x20 DUP2 DUP4 SUB SUB DUP2 MSTORE SWAP1 PUSH1 0x40 MSTORE DUP1 MLOAD SWAP1 PUSH1 0x20 ADD KECCAK256 DUP3 PUSH1 0x40 MLOAD PUSH1 0x20 ADD PUSH2 0x4A4 SWAP2 SWAP1 PUSH2 0x12AB JUMP JUMPDEST PUSH1 0x40 MLOAD PUSH1 0x20 DUP2 DUP4 SUB SUB DUP2 MSTORE SWAP1 PUSH1 0x40 MSTORE DUP1 MLOAD SWAP1 PUSH1 0x20 ADD KECCAK256 SUB PUSH2 0x55C JUMPI PUSH0 PUSH1 0x2 PUSH0 DUP9 DUP2 MSTORE PUSH1 0x20 ADD SWAP1 DUP2 MSTORE PUSH1 0x20 ADD PUSH0 KECCAK256 PUSH1 0x3 ADD PUSH0 PUSH2 0x100 EXP DUP2 SLOAD DUP2 PUSH1 0xFF MUL NOT AND SWAP1 DUP4 ISZERO ISZERO MUL OR SWAP1 SSTORE POP DUP6 PUSH1 0x3 PUSH0 DUP7 DUP2 MSTORE PUSH1 0x20 ADD SWAP1 DUP2 MSTORE PUSH1 0x20 ADD PUSH0 KECCAK256 DUP2 SWAP1 SSTORE POP PUSH32 0xD29B4A0C1B4F845B0C433D5F0B9BD408514B149D1AA7CE14CD1530B4B3486A6A DUP5 DUP5 DUP9 PUSH1 0x2 PUSH0 DUP12 DUP2 MSTORE PUSH1 0x20 ADD SWAP1 DUP2 MSTORE PUSH1 0x20 ADD PUSH0 KECCAK256 PUSH1 0x1 ADD PUSH1 0x40 MLOAD PUSH2 0x548 SWAP5 SWAP4 SWAP3 SWAP2 SWAP1 PUSH2 0x1342 JUMP JUMPDEST PUSH1 0x40 MLOAD DUP1 SWAP2 SUB SWAP1 LOG1 DUP4 SWAP5 POP POP POP POP POP PUSH2 0x5AE JUMP JUMPDEST POP POP POP DUP1 DUP1 PUSH2 0x56A SWAP1 PUSH2 0x13C0 JUMP JUMPDEST SWAP2 POP POP PUSH2 0x31F JUMP JUMPDEST POP PUSH1 0x40 MLOAD PUSH32 0x8C379A000000000000000000000000000000000000000000000000000000000 DUP2 MSTORE PUSH1 0x4 ADD PUSH2 0x5A5 SWAP1 PUSH2 0x1451 JUMP JUMPDEST PUSH1 0x40 MLOAD DUP1 SWAP2 SUB SWAP1 REVERT JUMPDEST SWAP2 SWAP1 POP JUMP JUMPDEST PUSH1 0x2 PUSH1 0x20 MSTORE DUP1 PUSH0 MSTORE PUSH1 0x40 PUSH0 KECCAK256 PUSH0 SWAP2 POP SWAP1 POP DUP1 PUSH0 ADD SLOAD SWAP1 DUP1 PUSH1 0x1 ADD DUP1 SLOAD PUSH2 0x5D8 SWAP1 PUSH2 0x1199 JUMP JUMPDEST DUP1 PUSH1 0x1F ADD PUSH1 0x20 DUP1 SWAP2 DIV MUL PUSH1 0x20 ADD PUSH1 0x40 MLOAD SWAP1 DUP2 ADD PUSH1 0x40 MSTORE DUP1 SWAP3 SWAP2 SWAP1 DUP2 DUP2 MSTORE PUSH1 0x20 ADD DUP3 DUP1 SLOAD PUSH2 0x604 SWAP1 PUSH2 0x1199 JUMP JUMPDEST DUP1 ISZERO PUSH2 0x64F JUMPI DUP1 PUSH1 0x1F LT PUSH2 0x626 JUMPI PUSH2 0x100 DUP1 DUP4 SLOAD DIV MUL DUP4 MSTORE SWAP2 PUSH1 0x20 ADD SWAP2 PUSH2 0x64F JUMP JUMPDEST DUP3 ADD SWAP2 SWAP1 PUSH0 MSTORE PUSH1 0x20 PUSH0 KECCAK256 SWAP1 JUMPDEST DUP2 SLOAD DUP2 MSTORE SWAP1 PUSH1 0x1 ADD SWAP1 PUSH1 0x20 ADD DUP1 DUP4 GT PUSH2 0x632 JUMPI DUP3 SWAP1 SUB PUSH1 0x1F AND DUP3 ADD SWAP2 JUMPDEST POP POP POP POP POP SWAP1 DUP1 PUSH1 0x2 ADD DUP1 SLOAD PUSH2 0x664 SWAP1 PUSH2 0x1199 JUMP JUMPDEST DUP1 PUSH1 0x1F ADD PUSH1 0x20 DUP1 SWAP2 DIV MUL PUSH1 0x20 ADD PUSH1 0x40 MLOAD SWAP1 DUP2 ADD PUSH1 0x40 MSTORE DUP1 SWAP3 SWAP2 SWAP1 DUP2 DUP2 MSTORE PUSH1 0x20 ADD DUP3 DUP1 SLOAD PUSH2 0x690 SWAP1 PUSH2 0x1199 JUMP JUMPDEST DUP1 ISZERO PUSH2 0x6DB JUMPI DUP1 PUSH1 0x1F LT PUSH2 0x6B2 JUMPI PUSH2 0x100 DUP1 DUP4 SLOAD DIV MUL DUP4 MSTORE SWAP2 PUSH1 0x20 ADD SWAP2 PUSH2 0x6DB JUMP JUMPDEST DUP3 ADD SWAP2 SWAP1 PUSH0 MSTORE PUSH1 0x20 PUSH0 KECCAK256 SWAP1 JUMPDEST DUP2 SLOAD DUP2 MSTORE SWAP1 PUSH1 0x1 ADD SWAP1 PUSH1 0x20 ADD DUP1 DUP4 GT PUSH2 0x6BE JUMPI DUP3 SWAP1 SUB PUSH1 0x1F AND DUP3 ADD SWAP2 JUMPDEST POP POP POP POP POP SWAP1 DUP1 PUSH1 0x3 ADD PUSH0 SWAP1 SLOAD SWAP1 PUSH2 0x100 EXP SWAP1 DIV PUSH1 0xFF AND SWAP1 POP DUP5 JUMP JUMPDEST PUSH0 PUSH1 0x60 DUP1 PUSH0 PUSH1 0x3 PUSH0 DUP7 DUP2 MSTORE PUSH1 0x20 ADD SWAP1 DUP2 MSTORE PUSH1 0x20 ADD PUSH0 KECCAK256 SLOAD SUB PUSH2 0x74E JUMPI PUSH1 0x40 MLOAD PUSH32 0x8C379A000000000000000000000000000000000000000000000000000000000 DUP2 MSTORE PUSH1 0x4 ADD PUSH2 0x745 SWAP1 PUSH2 0x14DF JUMP JUMPDEST PUSH1 0x40 MLOAD DUP1 SWAP2 SUB SWAP1 REVERT JUMPDEST PUSH1 0x3 PUSH0 DUP6 DUP2 MSTORE PUSH1 0x20 ADD SWAP1 DUP2 MSTORE PUSH1 0x20 ADD PUSH0 KECCAK256 SLOAD SWAP3 POP PUSH0 PUSH1 0x2 PUSH0 DUP6 DUP2 MSTORE PUSH1 0x20 ADD SWAP1 DUP2 MSTORE PUSH1 0x20 ADD PUSH0 KECCAK256 PUSH1 0x40 MLOAD DUP1 PUSH1 0x80 ADD PUSH1 0x40 MSTORE SWAP1 DUP2 PUSH0 DUP3 ADD SLOAD DUP2 MSTORE PUSH1 0x20 ADD PUSH1 0x1 DUP3 ADD DUP1 SLOAD PUSH2 0x798 SWAP1 PUSH2 0x1199 JUMP JUMPDEST DUP1 PUSH1 0x1F ADD PUSH1 0x20 DUP1 SWAP2 DIV MUL PUSH1 0x20 ADD PUSH1 0x40 MLOAD SWAP1 DUP2 ADD PUSH1 0x40 MSTORE DUP1 SWAP3 SWAP2 SWAP1 DUP2 DUP2 MSTORE PUSH1 0x20 ADD DUP3 DUP1 SLOAD PUSH2 0x7C4 SWAP1 PUSH2 0x1199 JUMP JUMPDEST DUP1 ISZERO PUSH2 0x80F JUMPI DUP1 PUSH1 0x1F LT PUSH2 0x7E6 JUMPI PUSH2 0x100 DUP1 DUP4 SLOAD DIV MUL DUP4 MSTORE SWAP2 PUSH1 0x20 ADD SWAP2 PUSH2 0x80F JUMP JUMPDEST DUP3 ADD SWAP2 SWAP1 PUSH0 MSTORE PUSH1 0x20 PUSH0 KECCAK256 SWAP1 JUMPDEST DUP2 SLOAD DUP2 MSTORE SWAP1 PUSH1 0x1 ADD SWAP1 PUSH1 0x20 ADD DUP1 DUP4 GT PUSH2 0x7F2 JUMPI DUP3 SWAP1 SUB PUSH1 0x1F AND DUP3 ADD SWAP2 JUMPDEST POP POP POP POP POP DUP2 MSTORE PUSH1 0x20 ADD PUSH1 0x2 DUP3 ADD DUP1 SLOAD PUSH2 0x828 SWAP1 PUSH2 0x1199 JUMP JUMPDEST DUP1 PUSH1 0x1F ADD PUSH1 0x20 DUP1 SWAP2 DIV MUL PUSH1 0x20 ADD PUSH1 0x40 MLOAD SWAP1 DUP2 ADD PUSH1 0x40 MSTORE DUP1 SWAP3 SWAP2 SWAP1 DUP2 DUP2 MSTORE PUSH1 0x20 ADD DUP3 DUP1 SLOAD PUSH2 0x854 SWAP1 PUSH2 0x1199 JUMP JUMPDEST DUP1 ISZERO PUSH2 0x89F JUMPI DUP1 PUSH1 0x1F LT PUSH2 0x876 JUMPI PUSH2 0x100 DUP1 DUP4 SLOAD DIV MUL DUP4 MSTORE SWAP2 PUSH1 0x20 ADD SWAP2 PUSH2 0x89F JUMP JUMPDEST DUP3 ADD SWAP2 SWAP1 PUSH0 MSTORE PUSH1 0x20 PUSH0 KECCAK256 SWAP1 JUMPDEST DUP2 SLOAD DUP2 MSTORE SWAP1 PUSH1 0x1 ADD SWAP1 PUSH1 0x20 ADD DUP1 DUP4 GT PUSH2 0x882 JUMPI DUP3 SWAP1 SUB PUSH1 0x1F AND DUP3 ADD SWAP2 JUMPDEST POP POP POP POP POP DUP2 MSTORE PUSH1 0x20 ADD PUSH1 0x3 DUP3 ADD PUSH0 SWAP1 SLOAD SWAP1 PUSH2 0x100 EXP SWAP1 DIV PUSH1 0xFF AND ISZERO ISZERO ISZERO ISZERO DUP2 MSTORE POP POP SWAP1 POP DUP1 PUSH0 ADD MLOAD DUP2 PUSH1 0x20 ADD MLOAD DUP3 PUSH1 0x40 ADD MLOAD SWAP4 POP SWAP4 POP SWAP4 POP POP SWAP2 SWAP4 SWAP1 SWAP3 POP JUMP JUMPDEST PUSH0 DUP1 SLOAD SWAP1 PUSH2 0x100 EXP SWAP1 DIV PUSH20 0xFFFFFFFFFFFFFFFFFFFFFFFFFFFFFFFFFFFFFFFF AND DUP2 JUMP JUMPDEST PUSH1 0x4 PUSH0 SWAP1 SLOAD SWAP1 PUSH2 0x100 EXP SWAP1 DIV PUSH20 0xFFFFFFFFFFFFFFFFFFFFFFFFFFFFFFFFFFFFFFFF AND DUP2 JUMP JUMPDEST PUSH0 DUP1 SLOAD SWAP1 PUSH2 0x100 EXP SWAP1 DIV PUSH20 0xFFFFFFFFFFFFFFFFFFFFFFFFFFFFFFFFFFFFFFFF AND PUSH20 0xFFFFFFFFFFFFFFFFFFFFFFFFFFFFFFFFFFFFFFFF AND CALLER PUSH20 0xFFFFFFFFFFFFFFFFFFFFFFFFFFFFFFFFFFFFFFFF AND EQ PUSH2 0x9B5 JUMPI PUSH1 0x40 MLOAD PUSH32 0x8C379A000000000000000000000000000000000000000000000000000000000 DUP2 MSTORE PUSH1 0x4 ADD PUSH2 0x9AC SWAP1 PUSH2 0xF35 JUMP JUMPDEST PUSH1 0x40 MLOAD DUP1 SWAP2 SUB SWAP1 REVERT JUMPDEST PUSH1 0x1 PUSH0 DUP2 SLOAD DUP1 SWAP3 SWAP2 SWAP1 PUSH2 0x9C7 SWAP1 PUSH2 0x13C0 JUMP JUMPDEST SWAP2 SWAP1 POP SSTORE POP PUSH1 0x40 MLOAD DUP1 PUSH1 0x80 ADD PUSH1 0x40 MSTORE DUP1 PUSH1 0x1 SLOAD DUP2 MSTORE PUSH1 0x20 ADD DUP4 DUP2 MSTORE PUSH1 0x20 ADD DUP3 DUP2 MSTORE PUSH1 0x20 ADD PUSH1 0x1 ISZERO ISZERO DUP2 MSTORE POP PUSH1 0x2 PUSH0 PUSH1 0x1 SLOAD DUP2 MSTORE PUSH1 0x20 ADD SWAP1 DUP2 MSTORE PUSH1 0x20 ADD PUSH0 KECCAK256 PUSH0 DUP3 ADD MLOAD DUP2 PUSH0 ADD SSTORE PUSH1 0x20 DUP3 ADD MLOAD DUP2 PUSH1 0x1 ADD SWAP1 DUP2 PUSH2 0xA22 SWAP2 SWAP1 PUSH2 0x167F JUMP JUMPDEST POP PUSH1 0x40 DUP3 ADD MLOAD DUP2 PUSH1 0x2 ADD SWAP1 DUP2 PUSH2 0xA38 SWAP2 SWAP1 PUSH2 0x167F JUMP JUMPDEST POP PUSH1 0x60 DUP3 ADD MLOAD DUP2 PUSH1 0x3 ADD PUSH0 PUSH2 0x100 EXP DUP2 SLOAD DUP2 PUSH1 0xFF MUL NOT AND SWAP1 DUP4 ISZERO ISZERO MUL OR SWAP1 SSTORE POP SWAP1 POP POP PUSH32 0x13F1476AA61E2107F46E6BC435EB6D18B382646AF69E8591EA83E348641B6E7C PUSH1 0x1 SLOAD DUP4 DUP4 PUSH1 0x40 MLOAD PUSH2 0xA90 SWAP4 SWAP3 SWAP2 SWAP1 PUSH2 0xC14 JUMP JUMPDEST PUSH1 0x40 MLOAD DUP1 SWAP2 SUB SWAP1 LOG1 POP POP JUMP JUMPDEST PUSH1 0x1 SLOAD DUP2 JUMP JUMPDEST PUSH0 PUSH1 0x40 MLOAD SWAP1 POP SWAP1 JUMP JUMPDEST PUSH0 DUP1 REVERT JUMPDEST PUSH0 DUP1 REVERT JUMPDEST PUSH0 DUP2 SWAP1 POP SWAP2 SWAP1 POP JUMP JUMPDEST PUSH2 0xAC5 DUP2 PUSH2 0xAB3 JUMP JUMPDEST DUP2 EQ PUSH2 0xACF JUMPI PUSH0 DUP1 REVERT JUMPDEST POP JUMP JUMPDEST PUSH0 DUP2 CALLDATALOAD SWAP1 POP PUSH2 0xAE0 DUP2 PUSH2 0xABC JUMP JUMPDEST SWAP3 SWAP2 POP POP JUMP JUMPDEST PUSH0 PUSH1 0x20 DUP3 DUP5 SUB SLT ISZERO PUSH2 0xAFB JUMPI PUSH2 0xAFA PUSH2 0xAAB JUMP JUMPDEST JUMPDEST PUSH0 PUSH2 0xB08 DUP5 DUP3 DUP6 ADD PUSH2 0xAD2 JUMP JUMPDEST SWAP2 POP POP SWAP3 SWAP2 POP POP JUMP JUMPDEST PUSH2 0xB1A DUP2 PUSH2 0xAB3 JUMP JUMPDEST DUP3 MSTORE POP POP JUMP JUMPDEST PUSH0 PUSH1 0x20 DUP3 ADD SWAP1 POP PUSH2 0xB33 PUSH0 DUP4 ADD DUP5 PUSH2 0xB11 JUMP JUMPDEST SWAP3 SWAP2 POP POP JUMP JUMPDEST PUSH0 DUP2 MLOAD SWAP1 POP SWAP2 SWAP1 POP JUMP JUMPDEST PUSH0 DUP3 DUP3 MSTORE PUSH1 0x20 DUP3 ADD SWAP1 POP SWAP3 SWAP2 POP POP JUMP JUMPDEST DUP3 DUP2 DUP4 MCOPY PUSH0 DUP4 DUP4 ADD MSTORE POP POP POP JUMP JUMPDEST PUSH0 PUSH1 0x1F NOT PUSH1 0x1F DUP4 ADD AND SWAP1 POP SWAP2 SWAP1 POP JUMP JUMPDEST PUSH0 PUSH2 0xB7B DUP3 PUSH2 0xB39 JUMP JUMPDEST PUSH2 0xB85 DUP2 DUP6 PUSH2 0xB43 JUMP JUMPDEST SWAP4 POP PUSH2 0xB95 DUP2 DUP6 PUSH1 0x20 DUP7 ADD PUSH2 0xB53 JUMP JUMPDEST PUSH2 0xB9E DUP2 PUSH2 0xB61 JUMP JUMPDEST DUP5 ADD SWAP2 POP POP SWAP3 SWAP2 POP POP JUMP JUMPDEST PUSH0 DUP2 ISZERO ISZERO SWAP1 POP SWAP2 SWAP1 POP JUMP JUMPDEST PUSH2 0xBBD DUP2 PUSH2 0xBA9 JUMP JUMPDEST DUP3 MSTORE POP POP JUMP JUMPDEST PUSH0 PUSH1 0x80 DUP3 ADD SWAP1 POP PUSH2 0xBD6 PUSH0 DUP4 ADD DUP8 PUSH2 0xB11 JUMP JUMPDEST DUP2 DUP2 SUB PUSH1 0x20 DUP4 ADD MSTORE PUSH2 0xBE8 DUP2 DUP7 PUSH2 0xB71 JUMP JUMPDEST SWAP1 POP DUP2 DUP2 SUB PUSH1 0x40 DUP4 ADD MSTORE PUSH2 0xBFC DUP2 DUP6 PUSH2 0xB71 JUMP JUMPDEST SWAP1 POP PUSH2 0xC0B PUSH1 0x60 DUP4 ADD DUP5 PUSH2 0xBB4 JUMP JUMPDEST SWAP6 SWAP5 POP POP POP POP POP JUMP JUMPDEST PUSH0 PUSH1 0x60 DUP3 ADD SWAP1 POP PUSH2 0xC27 PUSH0 DUP4 ADD DUP7 PUSH2 0xB11 JUMP JUMPDEST DUP2 DUP2 SUB PUSH1 0x20 DUP4 ADD MSTORE PUSH2 0xC39 DUP2 DUP6 PUSH2 0xB71 JUMP JUMPDEST SWAP1 POP DUP2 DUP2 SUB PUSH1 0x40 DUP4 ADD MSTORE PUSH2 0xC4D DUP2 DUP5 PUSH2 0xB71 JUMP JUMPDEST SWAP1 POP SWAP5 SWAP4 POP POP POP POP JUMP JUMPDEST PUSH0 PUSH20 0xFFFFFFFFFFFFFFFFFFFFFFFFFFFFFFFFFFFFFFFF DUP3 AND SWAP1 POP SWAP2 SWAP1 POP JUMP JUMPDEST PUSH0 PUSH2 0xC80 DUP3 PUSH2 0xC57 JUMP JUMPDEST SWAP1 POP SWAP2 SWAP1 POP JUMP JUMPDEST PUSH2 0xC90 DUP2 PUSH2 0xC76 JUMP JUMPDEST DUP3 MSTORE POP POP JUMP JUMPDEST PUSH0 PUSH1 0x20 DUP3 ADD SWAP1 POP PUSH2 0xCA9 PUSH0 DUP4 ADD DUP5 PUSH2 0xC87 JUMP JUMPDEST SWAP3 SWAP2 POP POP JUMP JUMPDEST PUSH0 DUP2 SWAP1 POP SWAP2 SWAP1 POP JUMP JUMPDEST PUSH0 PUSH2 0xCD2 PUSH2 0xCCD PUSH2 0xCC8 DUP5 PUSH2 0xC57 JUMP JUMPDEST PUSH2 0xCAF JUMP JUMPDEST PUSH2 0xC57 JUMP JUMPDEST SWAP1 POP SWAP2 SWAP1 POP JUMP JUMPDEST PUSH0 PUSH2 0xCE3 DUP3 PUSH2 0xCB8 JUMP JUMPDEST SWAP1 POP SWAP2 SWAP1 POP JUMP JUMPDEST PUSH0 PUSH2 0xCF4 DUP3 PUSH2 0xCD9 JUMP JUMPDEST SWAP1 POP SWAP2 SWAP1 POP JUMP JUMPDEST PUSH2 0xD04 DUP2 PUSH2 0xCEA JUMP JUMPDEST DUP3 MSTORE POP POP JUMP JUMPDEST PUSH0 PUSH1 0x20 DUP3 ADD SWAP1 POP PUSH2 0xD1D PUSH0 DUP4 ADD DUP5 PUSH2 0xCFB JUMP JUMPDEST SWAP3 SWAP2 POP POP JUMP JUMPDEST PUSH0 DUP1 REVERT JUMPDEST PUSH0 DUP1 REVERT JUMPDEST PUSH32 0x4E487B7100000000000000000000000000000000000000000000000000000000 PUSH0 MSTORE PUSH1 0x41 PUSH1 0x4 MSTORE PUSH1 0x24 PUSH0 REVERT JUMPDEST PUSH2 0xD61 DUP3 PUSH2 0xB61 JUMP JUMPDEST DUP2 ADD DUP2 DUP2 LT PUSH8 0xFFFFFFFFFFFFFFFF DUP3 GT OR ISZERO PUSH2 0xD80 JUMPI PUSH2 0xD7F PUSH2 0xD2B JUMP JUMPDEST JUMPDEST DUP1 PUSH1 0x40 MSTORE POP POP POP JUMP JUMPDEST PUSH0 PUSH2 0xD92 PUSH2 0xAA2 JUMP JUMPDEST SWAP1 POP PUSH2 0xD9E DUP3 DUP3 PUSH2 0xD58 JUMP JUMPDEST SWAP2 SWAP1 POP JUMP JUMPDEST PUSH0 PUSH8 0xFFFFFFFFFFFFFFFF DUP3 GT ISZERO PUSH2 0xDBD JUMPI PUSH2 0xDBC PUSH2 0xD2B JUMP JUMPDEST JUMPDEST PUSH2 0xDC6 DUP3 PUSH2 0xB61 JUMP JUMPDEST SWAP1 POP PUSH1 0x20 DUP2 ADD SWAP1 POP SWAP2 SWAP1 POP JUMP JUMPDEST DUP3 DUP2 DUP4 CALLDATACOPY PUSH0 DUP4 DUP4 ADD MSTORE POP POP POP JUMP JUMPDEST PUSH0 PUSH2 0xDF3 PUSH2 0xDEE DUP5 PUSH2 0xDA3 JUMP JUMPDEST PUSH2 0xD89 JUMP JUMPDEST SWAP1 POP DUP3 DUP2 MSTORE PUSH1 0x20 DUP2 ADD DUP5 DUP5 DUP5 ADD GT ISZERO PUSH2 0xE0F JUMPI PUSH2 0xE0E PUSH2 0xD27 JUMP JUMPDEST JUMPDEST PUSH2 0xE1A DUP5 DUP3 DUP6 PUSH2 0xDD3 JUMP JUMPDEST POP SWAP4 SWAP3 POP POP POP JUMP JUMPDEST PUSH0 DUP3 PUSH1 0x1F DUP4 ADD SLT PUSH2 0xE36 JUMPI PUSH2 0xE35 PUSH2 0xD23 JUMP JUMPDEST JUMPDEST DUP2 CALLDATALOAD PUSH2 0xE46 DUP5 DUP3 PUSH1 0x20 DUP7 ADD PUSH2 0xDE1 JUMP JUMPDEST SWAP2 POP POP SWAP3 SWAP2 POP POP JUMP JUMPDEST PUSH0 DUP1 PUSH1 0x40 DUP4 DUP6 SUB SLT ISZERO PUSH2 0xE65 JUMPI PUSH2 0xE64 PUSH2 0xAAB JUMP JUMPDEST JUMPDEST PUSH0 DUP4 ADD CALLDATALOAD PUSH8 0xFFFFFFFFFFFFFFFF DUP2 GT ISZERO PUSH2 0xE82 JUMPI PUSH2 0xE81 PUSH2 0xAAF JUMP JUMPDEST JUMPDEST PUSH2 0xE8E DUP6 DUP3 DUP7 ADD PUSH2 0xE22 JUMP JUMPDEST SWAP3 POP POP PUSH1 0x20 DUP4 ADD CALLDATALOAD PUSH8 0xFFFFFFFFFFFFFFFF DUP2 GT ISZERO PUSH2 0xEAF JUMPI PUSH2 0xEAE PUSH2 0xAAF JUMP JUMPDEST JUMPDEST PUSH2 0xEBB DUP6 DUP3 DUP7 ADD PUSH2 0xE22 JUMP JUMPDEST SWAP2 POP POP SWAP3 POP SWAP3 SWAP1 POP JUMP JUMPDEST PUSH32 0x446F6172206F776E65722D756C20706F617465206D6F64696669636120646174 PUSH0 DUP3 ADD MSTORE PUSH32 0x656C652100000000000000000000000000000000000000000000000000000000 PUSH1 0x20 DUP3 ADD MSTORE POP JUMP JUMPDEST PUSH0 PUSH2 0xF1F PUSH1 0x24 DUP4 PUSH2 0xB43 JUMP JUMPDEST SWAP2 POP PUSH2 0xF2A DUP3 PUSH2 0xEC5 JUMP JUMPDEST PUSH1 0x40 DUP3 ADD SWAP1 POP SWAP2 SWAP1 POP JUMP JUMPDEST PUSH0 PUSH1 0x20 DUP3 ADD SWAP1 POP DUP2 DUP2 SUB PUSH0 DUP4 ADD MSTORE PUSH2 0xF4C DUP2 PUSH2 0xF13 JUMP JUMPDEST SWAP1 POP SWAP2 SWAP1 POP JUMP JUMPDEST PUSH32 0x446F6E61746F7220696E6578697374656E742100000000000000000000000000 PUSH0 DUP3 ADD MSTORE POP JUMP JUMPDEST PUSH0 PUSH2 0xF87 PUSH1 0x13 DUP4 PUSH2 0xB43 JUMP JUMPDEST SWAP2 POP PUSH2 0xF92 DUP3 PUSH2 0xF53 JUMP JUMPDEST PUSH1 0x20 DUP3 ADD SWAP1 POP SWAP2 SWAP1 POP JUMP JUMPDEST PUSH0 PUSH1 0x20 DUP3 ADD SWAP1 POP DUP2 DUP2 SUB PUSH0 DUP4 ADD MSTORE PUSH2 0xFB4 DUP2 PUSH2 0xF7B JUMP JUMPDEST SWAP1 POP SWAP2 SWAP1 POP JUMP JUMPDEST PUSH32 0x446F6E61746F72206E75206573746520646973706F6E6962696C210000000000 PUSH0 DUP3 ADD MSTORE POP JUMP JUMPDEST PUSH0 PUSH2 0xFEF PUSH1 0x1B DUP4 PUSH2 0xB43 JUMP JUMPDEST SWAP2 POP PUSH2 0xFFA DUP3 PUSH2 0xFBB JUMP JUMPDEST PUSH1 0x20 DUP3 ADD SWAP1 POP SWAP2 SWAP1 POP JUMP JUMPDEST PUSH0 PUSH1 0x20 DUP3 ADD SWAP1 POP DUP2 DUP2 SUB PUSH0 DUP4 ADD MSTORE PUSH2 0x101C DUP2 PUSH2 0xFE3 JUMP JUMPDEST SWAP1 POP SWAP2 SWAP1 POP JUMP JUMPDEST PUSH0 DUP2 MLOAD SWAP1 POP PUSH2 0x1031 DUP2 PUSH2 0xABC JUMP JUMPDEST SWAP3 SWAP2 POP POP JUMP JUMPDEST PUSH0 PUSH1 0x20 DUP3 DUP5 SUB SLT ISZERO PUSH2 0x104C JUMPI PUSH2 0x104B PUSH2 0xAAB JUMP JUMPDEST JUMPDEST PUSH0 PUSH2 0x1059 DUP5 DUP3 DUP6 ADD PUSH2 0x1023 JUMP JUMPDEST SWAP2 POP POP SWAP3 SWAP2 POP POP JUMP JUMPDEST PUSH0 PUSH2 0x1074 PUSH2 0x106F DUP5 PUSH2 0xDA3 JUMP JUMPDEST PUSH2 0xD89 JUMP JUMPDEST SWAP1 POP DUP3 DUP2 MSTORE PUSH1 0x20 DUP2 ADD DUP5 DUP5 DUP5 ADD GT ISZERO PUSH2 0x1090 JUMPI PUSH2 0x108F PUSH2 0xD27 JUMP JUMPDEST JUMPDEST PUSH2 0x109B DUP5 DUP3 DUP6 PUSH2 0xB53 JUMP JUMPDEST POP SWAP4 SWAP3 POP POP POP JUMP JUMPDEST PUSH0 DUP3 PUSH1 0x1F DUP4 ADD SLT PUSH2 0x10B7 JUMPI PUSH2 0x10B6 PUSH2 0xD23 JUMP JUMPDEST JUMPDEST DUP2 MLOAD PUSH2 0x10C7 DUP5 DUP3 PUSH1 0x20 DUP7 ADD PUSH2 0x1062 JUMP JUMPDEST SWAP2 POP POP SWAP3 SWAP2 POP POP JUMP JUMPDEST PUSH0 DUP1 PUSH0 DUP1 PUSH1 0x80 DUP6 DUP8 SUB SLT ISZERO PUSH2 0x10E8 JUMPI PUSH2 0x10E7 PUSH2 0xAAB JUMP JUMPDEST JUMPDEST PUSH0 DUP6 ADD MLOAD PUSH8 0xFFFFFFFFFFFFFFFF DUP2 GT ISZERO PUSH2 0x1105 JUMPI PUSH2 0x1104 PUSH2 0xAAF JUMP JUMPDEST JUMPDEST PUSH2 0x1111 DUP8 DUP3 DUP9 ADD PUSH2 0x10A3 JUMP JUMPDEST SWAP5 POP POP PUSH1 0x20 DUP6 ADD MLOAD PUSH8 0xFFFFFFFFFFFFFFFF DUP2 GT ISZERO PUSH2 0x1132 JUMPI PUSH2 0x1131 PUSH2 0xAAF JUMP JUMPDEST JUMPDEST PUSH2 0x113E DUP8 DUP3 DUP9 ADD PUSH2 0x10A3 JUMP JUMPDEST SWAP4 POP POP PUSH1 0x40 PUSH2 0x114F DUP8 DUP3 DUP9 ADD PUSH2 0x1023 JUMP JUMPDEST SWAP3 POP POP PUSH1 0x60 PUSH2 0x1160 DUP8 DUP3 DUP9 ADD PUSH2 0x1023 JUMP JUMPDEST SWAP2 POP POP SWAP3 SWAP6 SWAP2 SWAP5 POP SWAP3 POP JUMP JUMPDEST PUSH32 0x4E487B7100000000000000000000000000000000000000000000000000000000 PUSH0 MSTORE PUSH1 0x22 PUSH1 0x4 MSTORE PUSH1 0x24 PUSH0 REVERT JUMPDEST PUSH0 PUSH1 0x2 DUP3 DIV SWAP1 POP PUSH1 0x1 DUP3 AND DUP1 PUSH2 0x11B0 JUMPI PUSH1 0x7F DUP3 AND SWAP2 POP JUMPDEST PUSH1 0x20 DUP3 LT DUP2 SUB PUSH2 0x11C3 JUMPI PUSH2 0x11C2 PUSH2 0x116C JUMP JUMPDEST JUMPDEST POP SWAP2 SWAP1 POP JUMP JUMPDEST PUSH0 DUP2 SWAP1 POP SWAP3 SWAP2 POP POP JUMP JUMPDEST PUSH0 DUP2 SWAP1 POP DUP2 PUSH0 MSTORE PUSH1 0x20 PUSH0 KECCAK256 SWAP1 POP SWAP2 SWAP1 POP JUMP JUMPDEST PUSH0 DUP2 SLOAD PUSH2 0x11F1 DUP2 PUSH2 0x1199 JUMP JUMPDEST PUSH2 0x11FB DUP2 DUP7 PUSH2 0x11C9 JUMP JUMPDEST SWAP5 POP PUSH1 0x1 DUP3 AND PUSH0 DUP2 EQ PUSH2 0x1215 JUMPI PUSH1 0x1 DUP2 EQ PUSH2 0x122A JUMPI PUSH2 0x125C JUMP JUMPDEST PUSH1 0xFF NOT DUP4 AND DUP7 MSTORE DUP2 ISZERO ISZERO DUP3 MUL DUP7 ADD SWAP4 POP PUSH2 0x125C JUMP JUMPDEST PUSH2 0x1233 DUP6 PUSH2 0x11D3 JUMP JUMPDEST PUSH0 JUMPDEST DUP4 DUP2 LT ISZERO PUSH2 0x1254 JUMPI DUP2 SLOAD DUP2 DUP10 ADD MSTORE PUSH1 0x1 DUP3 ADD SWAP2 POP PUSH1 0x20 DUP2 ADD SWAP1 POP PUSH2 0x1235 JUMP JUMPDEST DUP4 DUP9 ADD SWAP6 POP POP POP JUMPDEST POP POP POP SWAP3 SWAP2 POP POP JUMP JUMPDEST PUSH0 PUSH2 0x1270 DUP3 DUP5 PUSH2 0x11E5 JUMP JUMPDEST SWAP2 POP DUP2 SWAP1 POP SWAP3 SWAP2 POP POP JUMP JUMPDEST PUSH0 PUSH2 0x1285 DUP3 PUSH2 0xB39 JUMP JUMPDEST PUSH2 0x128F DUP2 DUP6 PUSH2 0x11C9 JUMP JUMPDEST SWAP4 POP PUSH2 0x129F DUP2 DUP6 PUSH1 0x20 DUP7 ADD PUSH2 0xB53 JUMP JUMPDEST DUP1 DUP5 ADD SWAP2 POP POP SWAP3 SWAP2 POP POP JUMP JUMPDEST PUSH0 PUSH2 0x12B6 DUP3 DUP5 PUSH2 0x127B JUMP JUMPDEST SWAP2 POP DUP2 SWAP1 POP SWAP3 SWAP2 POP POP JUMP JUMPDEST PUSH0 DUP2 SLOAD PUSH2 0x12CD DUP2 PUSH2 0x1199 JUMP JUMPDEST PUSH2 0x12D7 DUP2 DUP7 PUSH2 0xB43 JUMP JUMPDEST SWAP5 POP PUSH1 0x1 DUP3 AND PUSH0 DUP2 EQ PUSH2 0x12F1 JUMPI PUSH1 0x1 DUP2 EQ PUSH2 0x1307 JUMPI PUSH2 0x1339 JUMP JUMPDEST PUSH1 0xFF NOT DUP4 AND DUP7 MSTORE DUP2 ISZERO ISZERO PUSH1 0x20 MUL DUP7 ADD SWAP4 POP PUSH2 0x1339 JUMP JUMPDEST PUSH2 0x1310 DUP6 PUSH2 0x11D3 JUMP JUMPDEST PUSH0 JUMPDEST DUP4 DUP2 LT ISZERO PUSH2 0x1331 JUMPI DUP2 SLOAD DUP2 DUP10 ADD MSTORE PUSH1 0x1 DUP3 ADD SWAP2 POP PUSH1 0x20 DUP2 ADD SWAP1 POP PUSH2 0x1312 JUMP JUMPDEST DUP1 DUP9 ADD SWAP6 POP POP POP JUMPDEST POP POP POP SWAP3 SWAP2 POP POP JUMP JUMPDEST PUSH0 PUSH1 0x80 DUP3 ADD SWAP1 POP PUSH2 0x1355 PUSH0 DUP4 ADD DUP8 PUSH2 0xB11 JUMP JUMPDEST DUP2 DUP2 SUB PUSH1 0x20 DUP4 ADD MSTORE PUSH2 0x1367 DUP2 DUP7 PUSH2 0xB71 JUMP JUMPDEST SWAP1 POP PUSH2 0x1376 PUSH1 0x40 DUP4 ADD DUP6 PUSH2 0xB11 JUMP JUMPDEST DUP2 DUP2 SUB PUSH1 0x60 DUP4 ADD MSTORE PUSH2 0x1388 DUP2 DUP5 PUSH2 0x12C1 JUMP JUMPDEST SWAP1 POP SWAP6 SWAP5 POP POP POP POP POP JUMP JUMPDEST PUSH32 0x4E487B7100000000000000000000000000000000000000000000000000000000 PUSH0 MSTORE PUSH1 0x11 PUSH1 0x4 MSTORE PUSH1 0x24 PUSH0 REVERT JUMPDEST PUSH0 PUSH2 0x13CA DUP3 PUSH2 0xAB3 JUMP JUMPDEST SWAP2 POP PUSH32 0xFFFFFFFFFFFFFFFFFFFFFFFFFFFFFFFFFFFFFFFFFFFFFFFFFFFFFFFFFFFFFFFF DUP3 SUB PUSH2 0x13FC JUMPI PUSH2 0x13FB PUSH2 0x1393 JUMP JUMPDEST JUMPDEST PUSH1 0x1 DUP3 ADD SWAP1 POP SWAP2 SWAP1 POP JUMP JUMPDEST PUSH32 0x4E6963696F20706F747269766972652067617369746121000000000000000000 PUSH0 DUP3 ADD MSTORE POP JUMP JUMPDEST PUSH0 PUSH2 0x143B PUSH1 0x17 DUP4 PUSH2 0xB43 JUMP JUMPDEST SWAP2 POP PUSH2 0x1446 DUP3 PUSH2 0x1407 JUMP JUMPDEST PUSH1 0x20 DUP3 ADD SWAP1 POP SWAP2 SWAP1 POP JUMP JUMPDEST PUSH0 PUSH1 0x20 DUP3 ADD SWAP1 POP DUP2 DUP2 SUB PUSH0 DUP4 ADD MSTORE PUSH2 0x1468 DUP2 PUSH2 0x142F JUMP JUMPDEST SWAP1 POP SWAP2 SWAP1 POP JUMP JUMPDEST PUSH32 0x50616369656E74756C206E752061207072696D697420756E207472616E73706C PUSH0 DUP3 ADD MSTORE PUSH32 0x616E742100000000000000000000000000000000000000000000000000000000 PUSH1 0x20 DUP3 ADD MSTORE POP JUMP JUMPDEST PUSH0 PUSH2 0x14C9 PUSH1 0x24 DUP4 PUSH2 0xB43 JUMP JUMPDEST SWAP2 POP PUSH2 0x14D4 DUP3 PUSH2 0x146F JUMP JUMPDEST PUSH1 0x40 DUP3 ADD SWAP1 POP SWAP2 SWAP1 POP JUMP JUMPDEST PUSH0 PUSH1 0x20 DUP3 ADD SWAP1 POP DUP2 DUP2 SUB PUSH0 DUP4 ADD MSTORE PUSH2 0x14F6 DUP2 PUSH2 0x14BD JUMP JUMPDEST SWAP1 POP SWAP2 SWAP1 POP JUMP JUMPDEST PUSH0 PUSH1 0x20 PUSH1 0x1F DUP4 ADD DIV SWAP1 POP SWAP2 SWAP1 POP JUMP JUMPDEST PUSH0 DUP3 DUP3 SHL SWAP1 POP SWAP3 SWAP2 POP POP JUMP JUMPDEST PUSH0 PUSH1 0x8 DUP4 MUL PUSH2 0x1547 PUSH32 0xFFFFFFFFFFFFFFFFFFFFFFFFFFFFFFFFFFFFFFFFFFFFFFFFFFFFFFFFFFFFFFFF DUP3 PUSH2 0x150C JUMP JUMPDEST PUSH2 0x1551 DUP7 DUP4 PUSH2 0x150C JUMP JUMPDEST SWAP6 POP DUP1 NOT DUP5 AND SWAP4 POP DUP1 DUP7 AND DUP5 OR SWAP3 POP POP POP SWAP4 SWAP3 POP POP POP JUMP JUMPDEST PUSH0 PUSH2 0x1583 PUSH2 0x157E PUSH2 0x1579 DUP5 PUSH2 0xAB3 JUMP JUMPDEST PUSH2 0xCAF JUMP JUMPDEST PUSH2 0xAB3 JUMP JUMPDEST SWAP1 POP SWAP2 SWAP1 POP JUMP JUMPDEST PUSH0 DUP2 SWAP1 POP SWAP2 SWAP1 POP JUMP JUMPDEST PUSH2 0x159C DUP4 PUSH2 0x1569 JUMP JUMPDEST PUSH2 0x15B0 PUSH2 0x15A8 DUP3 PUSH2 0x158A JUMP JUMPDEST DUP5 DUP5 SLOAD PUSH2 0x1518 JUMP JUMPDEST DUP3 SSTORE POP POP POP POP JUMP JUMPDEST PUSH0 SWAP1 JUMP JUMPDEST PUSH2 0x15C4 PUSH2 0x15B8 JUMP JUMPDEST PUSH2 0x15CF DUP2 DUP5 DUP5 PUSH2 0x1593 JUMP JUMPDEST POP POP POP JUMP JUMPDEST JUMPDEST DUP2 DUP2 LT ISZERO PUSH2 0x15F2 JUMPI PUSH2 0x15E7 PUSH0 DUP3 PUSH2 0x15BC JUMP JUMPDEST PUSH1 0x1 DUP2 ADD SWAP1 POP PUSH2 0x15D5 JUMP JUMPDEST POP POP JUMP JUMPDEST PUSH1 0x1F DUP3 GT ISZERO PUSH2 0x1637 JUMPI PUSH2 0x1608 DUP2 PUSH2 0x11D3 JUMP JUMPDEST PUSH2 0x1611 DUP5 PUSH2 0x14FD JUMP JUMPDEST DUP2 ADD PUSH1 0x20 DUP6 LT ISZERO PUSH2 0x1620 JUMPI DUP2 SWAP1 POP JUMPDEST PUSH2 0x1634 PUSH2 0x162C DUP6 PUSH2 0x14FD JUMP JUMPDEST DUP4 ADD DUP3 PUSH2 0x15D4 JUMP JUMPDEST POP POP JUMPDEST POP POP POP JUMP JUMPDEST PUSH0 DUP3 DUP3 SHR SWAP1 POP SWAP3 SWAP2 POP POP JUMP JUMPDEST PUSH0 PUSH2 0x1657 PUSH0 NOT DUP5 PUSH1 0x8 MUL PUSH2 0x163C JUMP JUMPDEST NOT DUP1 DUP4 AND SWAP2 POP POP SWAP3 SWAP2 POP POP JUMP JUMPDEST PUSH0 PUSH2 0x166F DUP4 DUP4 PUSH2 0x1648 JUMP JUMPDEST SWAP2 POP DUP3 PUSH1 0x2 MUL DUP3 OR SWAP1 POP SWAP3 SWAP2 POP POP JUMP JUMPDEST PUSH2 0x1688 DUP3 PUSH2 0xB39 JUMP JUMPDEST PUSH8 0xFFFFFFFFFFFFFFFF DUP2 GT ISZERO PUSH2 0x16A1 JUMPI PUSH2 0x16A0 PUSH2 0xD2B JUMP JUMPDEST JUMPDEST PUSH2 0x16AB DUP3 SLOAD PUSH2 0x1199 JUMP JUMPDEST PUSH2 0x16B6 DUP3 DUP3 DUP6 PUSH2 0x15F6 JUMP JUMPDEST PUSH0 PUSH1 0x20 SWAP1 POP PUSH1 0x1F DUP4 GT PUSH1 0x1 DUP2 EQ PUSH2 0x16E7 JUMPI PUSH0 DUP5 ISZERO PUSH2 0x16D5 JUMPI DUP3 DUP8 ADD MLOAD SWAP1 POP JUMPDEST PUSH2 0x16DF DUP6 DUP3 PUSH2 0x1664 JUMP JUMPDEST DUP7 SSTORE POP PUSH2 0x1746 JUMP JUMPDEST PUSH1 0x1F NOT DUP5 AND PUSH2 0x16F5 DUP7 PUSH2 0x11D3 JUMP JUMPDEST PUSH0 JUMPDEST DUP3 DUP2 LT ISZERO PUSH2 0x171C JUMPI DUP5 DUP10 ADD MLOAD DUP3 SSTORE PUSH1 0x1 DUP3 ADD SWAP2 POP PUSH1 0x20 DUP6 ADD SWAP5 POP PUSH1 0x20 DUP2 ADD SWAP1 POP PUSH2 0x16F7 JUMP JUMPDEST DUP7 DUP4 LT ISZERO PUSH2 0x1739 JUMPI DUP5 DUP10 ADD MLOAD PUSH2 0x1735 PUSH1 0x1F DUP10 AND DUP3 PUSH2 0x1648 JUMP JUMPDEST DUP4 SSTORE POP JUMPDEST PUSH1 0x1 PUSH1 0x2 DUP9 MUL ADD DUP9 SSTORE POP POP POP JUMPDEST POP POP POP POP POP POP JUMP INVALID LOG2 PUSH5 0x6970667358 0x22 SLT KECCAK256 SWAP8 0xB6 PUSH11 0x4C9FD07CB979AFF306CD10 PUSH29 0xB36335CFFD80DFA385DC95798DEFFB5C8564736F6C634300081A003300 "
				},
				"gasEstimates": {
					"creation": {
						"codeDepositCost": "1204000",
						"executionCost": "infinite",
						"totalCost": "infinite"
					},
					"external": {
						"donorCount()": "2491",
						"donors(uint256)": "infinite",
						"findMatch(uint256)": "infinite",
						"getTransplantInfo(uint256)": "infinite",
						"owner()": "2505",
						"registerDonor(string,string)": "infinite",
						"transplantRegistry()": "infinite",
						"transplants(uint256)": "infinite"
					}
				},
				"methodIdentifiers": {
					"donorCount()": "c407670f",
					"donors(uint256)": "4abfa163",
					"findMatch(uint256)": "3b478249",
					"getTransplantInfo(uint256)": "693231a4",
					"owner()": "8da5cb5b",
					"registerDonor(string,string)": "a577589e",
					"transplantRegistry()": "9a34ee92",
					"transplants(uint256)": "2145efcb"
				}
			},
			"storageLayout": {
				"storage": [
					{
						"astId": 13,
						"contract": "hackaton/OrganMatching.sol:OrganMatching",
						"label": "owner",
						"offset": 0,
						"slot": "0",
						"type": "t_address"
					},
					{
						"astId": 16,
						"contract": "hackaton/OrganMatching.sol:OrganMatching",
						"label": "donorCount",
						"offset": 0,
						"slot": "1",
						"type": "t_uint256"
					},
					{
						"astId": 21,
						"contract": "hackaton/OrganMatching.sol:OrganMatching",
						"label": "donors",
						"offset": 0,
						"slot": "2",
						"type": "t_mapping(t_uint256,t_struct(Donor)11_storage)"
					},
					{
						"astId": 25,
						"contract": "hackaton/OrganMatching.sol:OrganMatching",
						"label": "transplants",
						"offset": 0,
						"slot": "3",
						"type": "t_mapping(t_uint256,t_uint256)"
					},
					{
						"astId": 28,
						"contract": "hackaton/OrganMatching.sol:OrganMatching",
						"label": "transplantRegistry",
						"offset": 0,
						"slot": "4",
						"type": "t_contract(TransplantRegistry)521"
					}
				],
				"types": {
					"t_address": {
						"encoding": "inplace",
						"label": "address",
						"numberOfBytes": "20"
					},
					"t_bool": {
						"encoding": "inplace",
						"label": "bool",
						"numberOfBytes": "1"
					},
					"t_contract(TransplantRegistry)521": {
						"encoding": "inplace",
						"label": "contract TransplantRegistry",
						"numberOfBytes": "20"
					},
					"t_mapping(t_uint256,t_struct(Donor)11_storage)": {
						"encoding": "mapping",
						"key": "t_uint256",
						"label": "mapping(uint256 => struct OrganMatching.Donor)",
						"numberOfBytes": "32",
						"value": "t_struct(Donor)11_storage"
					},
					"t_mapping(t_uint256,t_uint256)": {
						"encoding": "mapping",
						"key": "t_uint256",
						"label": "mapping(uint256 => uint256)",
						"numberOfBytes": "32",
						"value": "t_uint256"
					},
					"t_string_storage": {
						"encoding": "bytes",
						"label": "string",
						"numberOfBytes": "32"
					},
					"t_struct(Donor)11_storage": {
						"encoding": "inplace",
						"label": "struct OrganMatching.Donor",
						"members": [
							{
								"astId": 4,
								"contract": "hackaton/OrganMatching.sol:OrganMatching",
								"label": "id",
								"offset": 0,
								"slot": "0",
								"type": "t_uint256"
							},
							{
								"astId": 6,
								"contract": "hackaton/OrganMatching.sol:OrganMatching",
								"label": "name",
								"offset": 0,
								"slot": "1",
								"type": "t_string_storage"
							},
							{
								"astId": 8,
								"contract": "hackaton/OrganMatching.sol:OrganMatching",
								"label": "bloodType",
								"offset": 0,
								"slot": "2",
								"type": "t_string_storage"
							},
							{
								"astId": 10,
								"contract": "hackaton/OrganMatching.sol:OrganMatching",
								"label": "available",
								"offset": 0,
								"slot": "3",
								"type": "t_bool"
							}
						],
						"numberOfBytes": "128"
					},
					"t_uint256": {
						"encoding": "inplace",
						"label": "uint256",
						"numberOfBytes": "32"
					}
				}
			},
			"userdoc": {
				"kind": "user",
				"methods": {},
				"version": 1
			}
		}
	}
}