{
	"hackaton/TransplantRegistry.sol": {
		"TransplantRegistry": {
			"abi": [
				{
					"inputs": [],
					"stateMutability": "nonpayable",
					"type": "constructor"
				},
				{
					"anonymous": false,
					"inputs": [
						{
							"indexed": false,
							"internalType": "uint256",
							"name": "id",
							"type": "uint256"
						},
						{
							"indexed": false,
							"internalType": "string",
							"name": "name",
							"type": "string"
						},
						{
							"indexed": false,
							"internalType": "string",
							"name": "gender",
							"type": "string"
						},
						{
							"indexed": false,
							"internalType": "string",
							"name": "bloodType",
							"type": "string"
						},
						{
							"indexed": false,
							"internalType": "uint256",
							"name": "urgencyLevel",
							"type": "uint256"
						},
						{
							"indexed": false,
							"internalType": "uint256",
							"name": "waitingSince",
							"type": "uint256"
						}
					],
					"name": "PatientRegistered",
					"type": "event"
				},
				{
					"anonymous": false,
					"inputs": [
						{
							"indexed": false,
							"internalType": "uint256",
							"name": "id",
							"type": "uint256"
						},
						{
							"indexed": false,
							"internalType": "uint256",
							"name": "newUrgencyLevel",
							"type": "uint256"
						}
					],
					"name": "UrgencyLevelCalculated",
					"type": "event"
				},
				{
					"inputs": [],
					"name": "getAllPatientIds",
					"outputs": [
						{
							"internalType": "uint256[]",
							"name": "",
							"type": "uint256[]"
						}
					],
					"stateMutability": "view",
					"type": "function"
				},
				{
					"inputs": [],
					"name": "getAllPatients",
					"outputs": [
						{
							"components": [
								{
									"internalType": "uint256",
									"name": "id",
									"type": "uint256"
								},
								{
									"internalType": "string",
									"name": "name",
									"type": "string"
								},
								{
									"internalType": "string",
									"name": "gender",
									"type": "string"
								},
								{
									"internalType": "string",
									"name": "bloodType",
									"type": "string"
								},
								{
									"internalType": "uint256",
									"name": "urgencyLevel",
									"type": "uint256"
								},
								{
									"internalType": "uint256",
									"name": "waitingSince",
									"type": "uint256"
								}
							],
							"internalType": "struct TransplantRegistry.Patient[]",
							"name": "",
							"type": "tuple[]"
						}
					],
					"stateMutability": "view",
					"type": "function"
				},
				{
					"inputs": [
						{
							"internalType": "uint256",
							"name": "_id",
							"type": "uint256"
						}
					],
					"name": "getPatient",
					"outputs": [
						{
							"internalType": "string",
							"name": "",
							"type": "string"
						},
						{
							"internalType": "string",
							"name": "",
							"type": "string"
						},
						{
							"internalType": "uint256",
							"name": "",
							"type": "uint256"
						},
						{
							"internalType": "uint256",
							"name": "",
							"type": "uint256"
						}
					],
					"stateMutability": "view",
					"type": "function"
				},
				{
					"inputs": [],
					"name": "owner",
					"outputs": [
						{
							"internalType": "address",
							"name": "",
							"type": "address"
						}
					],
					"stateMutability": "view",
					"type": "function"
				},
				{
					"inputs": [],
					"name": "patientCount",
					"outputs": [
						{
							"internalType": "uint256",
							"name": "",
							"type": "uint256"
						}
					],
					"stateMutability": "view",
					"type": "function"
				},
				{
					"inputs": [
						{
							"internalType": "uint256",
							"name": "",
							"type": "uint256"
						}
					],
					"name": "patients",
					"outputs": [
						{
							"internalType": "uint256",
							"name": "id",
							"type": "uint256"
						},
						{
							"internalType": "string",
							"name": "name",
							"type": "string"
						},
						{
							"internalType": "string",
							"name": "gender",
							"type": "string"
						},
						{
							"internalType": "string",
							"name": "bloodType",
							"type": "string"
						},
						{
							"internalType": "uint256",
							"name": "urgencyLevel",
							"type": "uint256"
						},
						{
							"internalType": "uint256",
							"name": "waitingSince",
							"type": "uint256"
						}
					],
					"stateMutability": "view",
					"type": "function"
				},
				{
					"inputs": [
						{
							"internalType": "string",
							"name": "_name",
							"type": "string"
						},
						{
							"internalType": "string",
							"name": "_gender",
							"type": "string"
						},
						{
							"internalType": "string",
							"name": "_bloodType",
							"type": "string"
						}
					],
					"name": "registerPatient",
					"outputs": [],
					"stateMutability": "nonpayable",
					"type": "function"
				}
			],
			"devdoc": {
				"kind": "dev",
				"methods": {},
				"version": 1
			},
			"evm": {
				"assembly": "    /* \"hackaton/TransplantRegistry.sol\":57:3358  contract TransplantRegistry {... */\n  mstore(0x40, 0x80)\n    /* \"hackaton/TransplantRegistry.sol\":622:623  0 */\n  0x00\n    /* \"hackaton/TransplantRegistry.sol\":595:623  uint public patientCount = 0 */\n  0x02\n  sstore\n    /* \"hackaton/TransplantRegistry.sol\":1195:1289  constructor() {... */\n  callvalue\n  dup1\n  iszero\n  tag_1\n  jumpi\n  0x00\n  dup1\n  revert\ntag_1:\n  pop\n    /* \"hackaton/TransplantRegistry.sol\":1227:1237  msg.sender */\n  caller\n    /* \"hackaton/TransplantRegistry.sol\":1219:1224  owner */\n  0x00\n  dup1\n    /* \"hackaton/TransplantRegistry.sol\":1219:1237  owner = msg.sender */\n  0x0100\n  exp\n  dup2\n  sload\n  dup2\n  0xffffffffffffffffffffffffffffffffffffffff\n  mul\n  not\n  and\n  swap1\n  dup4\n  0xffffffffffffffffffffffffffffffffffffffff\n  and\n  mul\n  or\n  swap1\n  sstore\n  pop\n    /* \"hackaton/TransplantRegistry.sol\":57:3358  contract TransplantRegistry {... */\n  dataSize(sub_0)\n  dup1\n  dataOffset(sub_0)\n  0x00\n  codecopy\n  0x00\n  return\nstop\n\nsub_0: assembly {\n        /* \"hackaton/TransplantRegistry.sol\":57:3358  contract TransplantRegistry {... */\n      mstore(0x40, 0x80)\n      callvalue\n      dup1\n      iszero\n      tag_1\n      jumpi\n      0x00\n      dup1\n      revert\n    tag_1:\n      pop\n      jumpi(tag_2, lt(calldatasize, 0x04))\n      shr(0xe0, calldataload(0x00))\n      dup1\n      0x93119a83\n      gt\n      tag_10\n      jumpi\n      dup1\n      0x93119a83\n      eq\n      tag_6\n      jumpi\n      dup1\n      0xa0303c41\n      eq\n      tag_7\n      jumpi\n      dup1\n      0xbe65437a\n      eq\n      tag_8\n      jumpi\n      dup1\n      0xcff0572d\n      eq\n      tag_9\n      jumpi\n      jump(tag_2)\n    tag_10:\n      dup1\n      0x18a231a9\n      eq\n      tag_3\n      jumpi\n      dup1\n      0x7d3a6796\n      eq\n      tag_4\n      jumpi\n      dup1\n      0x8da5cb5b\n      eq\n      tag_5\n      jumpi\n    tag_2:\n      0x00\n      dup1\n      revert\n        /* \"hackaton/TransplantRegistry.sol\":2806:3139  function getAllPatients() public view returns (Patient[] memory) {... */\n    tag_3:\n      tag_11\n      tag_12\n      jump\t// in\n    tag_11:\n      mload(0x40)\n      tag_13\n      swap2\n      swap1\n      tag_14\n      jump\t// in\n    tag_13:\n      mload(0x40)\n      dup1\n      swap2\n      sub\n      swap1\n      return\n        /* \"hackaton/TransplantRegistry.sol\":2056:2428  function getPatient(uint _id) public view returns (string memory, string memory, uint, uint) {... */\n    tag_4:\n      tag_15\n      0x04\n      dup1\n      calldatasize\n      sub\n      dup2\n      add\n      swap1\n      tag_16\n      swap2\n      swap1\n      tag_17\n      jump\t// in\n    tag_16:\n      tag_18\n      jump\t// in\n    tag_15:\n      mload(0x40)\n      tag_19\n      swap5\n      swap4\n      swap3\n      swap2\n      swap1\n      tag_20\n      jump\t// in\n    tag_19:\n      mload(0x40)\n      dup1\n      swap2\n      sub\n      swap1\n      return\n        /* \"hackaton/TransplantRegistry.sol\":389:409  address public owner */\n    tag_5:\n      tag_21\n      tag_22\n      jump\t// in\n    tag_21:\n      mload(0x40)\n      tag_23\n      swap2\n      swap1\n      tag_24\n      jump\t// in\n    tag_23:\n      mload(0x40)\n      dup1\n      swap2\n      sub\n      swap1\n      return\n        /* \"hackaton/TransplantRegistry.sol\":499:539  mapping(uint => Patient) public patients */\n    tag_6:\n      tag_25\n      0x04\n      dup1\n      calldatasize\n      sub\n      dup2\n      add\n      swap1\n      tag_26\n      swap2\n      swap1\n      tag_17\n      jump\t// in\n    tag_26:\n      tag_27\n      jump\t// in\n    tag_25:\n      mload(0x40)\n      tag_28\n      swap7\n      swap6\n      swap5\n      swap4\n      swap3\n      swap2\n      swap1\n      tag_29\n      jump\t// in\n    tag_28:\n      mload(0x40)\n      dup1\n      swap2\n      sub\n      swap1\n      return\n        /* \"hackaton/TransplantRegistry.sol\":595:623  uint public patientCount = 0 */\n    tag_7:\n      tag_30\n      tag_31\n      jump\t// in\n    tag_30:\n      mload(0x40)\n      tag_32\n      swap2\n      swap1\n      tag_33\n      jump\t// in\n    tag_32:\n      mload(0x40)\n      dup1\n      swap2\n      sub\n      swap1\n      return\n        /* \"hackaton/TransplantRegistry.sol\":1369:1992  function registerPatient(string memory _name, string memory _gender, string memory _bloodType) public {... */\n    tag_8:\n      tag_34\n      0x04\n      dup1\n      calldatasize\n      sub\n      dup2\n      add\n      swap1\n      tag_35\n      swap2\n      swap1\n      tag_36\n      jump\t// in\n    tag_35:\n      tag_37\n      jump\t// in\n    tag_34:\n      stop\n        /* \"hackaton/TransplantRegistry.sol\":3145:3354  function getAllPatientIds() public view returns (uint[] memory) {... */\n    tag_9:\n      tag_38\n      tag_39\n      jump\t// in\n    tag_38:\n      mload(0x40)\n      tag_40\n      swap2\n      swap1\n      tag_41\n      jump\t// in\n    tag_40:\n      mload(0x40)\n      dup1\n      swap2\n      sub\n      swap1\n      return\n        /* \"hackaton/TransplantRegistry.sol\":2806:3139  function getAllPatients() public view returns (Patient[] memory) {... */\n    tag_12:\n        /* \"hackaton/TransplantRegistry.sol\":2853:2869  Patient[] memory */\n      0x60\n        /* \"hackaton/TransplantRegistry.sol\":2881:2909  Patient[] memory allPatients */\n      0x00\n        /* \"hackaton/TransplantRegistry.sol\":2926:2938  patientCount */\n      sload(0x02)\n        /* \"hackaton/TransplantRegistry.sol\":2912:2939  new Patient[](patientCount) */\n      0xffffffffffffffff\n      dup2\n      gt\n      iszero\n      tag_43\n      jumpi\n      tag_44\n      tag_45\n      jump\t// in\n    tag_44:\n    tag_43:\n      mload(0x40)\n      swap1\n      dup1\n      dup3\n      mstore\n      dup1\n      0x20\n      mul\n      0x20\n      add\n      dup3\n      add\n      0x40\n      mstore\n      dup1\n      iszero\n      tag_46\n      jumpi\n      dup2\n      0x20\n      add\n    tag_47:\n      tag_48\n      tag_49\n      jump\t// in\n    tag_48:\n      dup2\n      mstore\n      0x20\n      add\n      swap1\n      0x01\n      swap1\n      sub\n      swap1\n      dup2\n      tag_47\n      jumpi\n      swap1\n      pop\n    tag_46:\n      pop\n        /* \"hackaton/TransplantRegistry.sol\":2881:2939  Patient[] memory allPatients = new Patient[](patientCount) */\n      swap1\n      pop\n        /* \"hackaton/TransplantRegistry.sol\":2955:2961  uint i */\n      0x00\n        /* \"hackaton/TransplantRegistry.sol\":2950:3104  for (uint i = 0; i < patientCount; i++) {... */\n    tag_50:\n        /* \"hackaton/TransplantRegistry.sol\":2971:2983  patientCount */\n      sload(0x02)\n        /* \"hackaton/TransplantRegistry.sol\":2967:2968  i */\n      dup2\n        /* \"hackaton/TransplantRegistry.sol\":2967:2983  i < patientCount */\n      lt\n        /* \"hackaton/TransplantRegistry.sol\":2950:3104  for (uint i = 0; i < patientCount; i++) {... */\n      iszero\n      tag_51\n      jumpi\n        /* \"hackaton/TransplantRegistry.sol\":3021:3029  patients */\n      0x01\n        /* \"hackaton/TransplantRegistry.sol\":3021:3036  patients[i + 1] */\n      0x00\n        /* \"hackaton/TransplantRegistry.sol\":3034:3035  1 */\n      0x01\n        /* \"hackaton/TransplantRegistry.sol\":3030:3031  i */\n      dup4\n        /* \"hackaton/TransplantRegistry.sol\":3030:3035  i + 1 */\n      tag_53\n      swap2\n      swap1\n      tag_54\n      jump\t// in\n    tag_53:\n        /* \"hackaton/TransplantRegistry.sol\":3021:3036  patients[i + 1] */\n      dup2\n      mstore\n      0x20\n      add\n      swap1\n      dup2\n      mstore\n      0x20\n      add\n      0x00\n      keccak256\n        /* \"hackaton/TransplantRegistry.sol\":3004:3036  allPatients[i] = patients[i + 1] */\n      mload(0x40)\n      dup1\n      0xc0\n      add\n      0x40\n      mstore\n      swap1\n      dup2\n      0x00\n      dup3\n      add\n      sload\n      dup2\n      mstore\n      0x20\n      add\n      0x01\n      dup3\n      add\n      dup1\n      sload\n      tag_55\n      swap1\n      tag_56\n      jump\t// in\n    tag_55:\n      dup1\n      0x1f\n      add\n      0x20\n      dup1\n      swap2\n      div\n      mul\n      0x20\n      add\n      mload(0x40)\n      swap1\n      dup2\n      add\n      0x40\n      mstore\n      dup1\n      swap3\n      swap2\n      swap1\n      dup2\n      dup2\n      mstore\n      0x20\n      add\n      dup3\n      dup1\n      sload\n      tag_57\n      swap1\n      tag_56\n      jump\t// in\n    tag_57:\n      dup1\n      iszero\n      tag_58\n      jumpi\n      dup1\n      0x1f\n      lt\n      tag_59\n      jumpi\n      0x0100\n      dup1\n      dup4\n      sload\n      div\n      mul\n      dup4\n      mstore\n      swap2\n      0x20\n      add\n      swap2\n      jump(tag_58)\n    tag_59:\n      dup3\n      add\n      swap2\n      swap1\n      0x00\n      mstore\n      keccak256(0x00, 0x20)\n      swap1\n    tag_60:\n      dup2\n      sload\n      dup2\n      mstore\n      swap1\n      0x01\n      add\n      swap1\n      0x20\n      add\n      dup1\n      dup4\n      gt\n      tag_60\n      jumpi\n      dup3\n      swap1\n      sub\n      0x1f\n      and\n      dup3\n      add\n      swap2\n    tag_58:\n      pop\n      pop\n      pop\n      pop\n      pop\n      dup2\n      mstore\n      0x20\n      add\n      0x02\n      dup3\n      add\n      dup1\n      sload\n      tag_61\n      swap1\n      tag_56\n      jump\t// in\n    tag_61:\n      dup1\n      0x1f\n      add\n      0x20\n      dup1\n      swap2\n      div\n      mul\n      0x20\n      add\n      mload(0x40)\n      swap1\n      dup2\n      add\n      0x40\n      mstore\n      dup1\n      swap3\n      swap2\n      swap1\n      dup2\n      dup2\n      mstore\n      0x20\n      add\n      dup3\n      dup1\n      sload\n      tag_62\n      swap1\n      tag_56\n      jump\t// in\n    tag_62:\n      dup1\n      iszero\n      tag_63\n      jumpi\n      dup1\n      0x1f\n      lt\n      tag_64\n      jumpi\n      0x0100\n      dup1\n      dup4\n      sload\n      div\n      mul\n      dup4\n      mstore\n      swap2\n      0x20\n      add\n      swap2\n      jump(tag_63)\n    tag_64:\n      dup3\n      add\n      swap2\n      swap1\n      0x00\n      mstore\n      keccak256(0x00, 0x20)\n      swap1\n    tag_65:\n      dup2\n      sload\n      dup2\n      mstore\n      swap1\n      0x01\n      add\n      swap1\n      0x20\n      add\n      dup1\n      dup4\n      gt\n      tag_65\n      jumpi\n      dup3\n      swap1\n      sub\n      0x1f\n      and\n      dup3\n      add\n      swap2\n    tag_63:\n      pop\n      pop\n      pop\n      pop\n      pop\n      dup2\n      mstore\n      0x20\n      add\n      0x03\n      dup3\n      add\n      dup1\n      sload\n      tag_66\n      swap1\n      tag_56\n      jump\t// in\n    tag_66:\n      dup1\n      0x1f\n      add\n      0x20\n      dup1\n      swap2\n      div\n      mul\n      0x20\n      add\n      mload(0x40)\n      swap1\n      dup2\n      add\n      0x40\n      mstore\n      dup1\n      swap3\n      swap2\n      swap1\n      dup2\n      dup2\n      mstore\n      0x20\n      add\n      dup3\n      dup1\n      sload\n      tag_67\n      swap1\n      tag_56\n      jump\t// in\n    tag_67:\n      dup1\n      iszero\n      tag_68\n      jumpi\n      dup1\n      0x1f\n      lt\n      tag_69\n      jumpi\n      0x0100\n      dup1\n      dup4\n      sload\n      div\n      mul\n      dup4\n      mstore\n      swap2\n      0x20\n      add\n      swap2\n      jump(tag_68)\n    tag_69:\n      dup3\n      add\n      swap2\n      swap1\n      0x00\n      mstore\n      keccak256(0x00, 0x20)\n      swap1\n    tag_70:\n      dup2\n      sload\n      dup2\n      mstore\n      swap1\n      0x01\n      add\n      swap1\n      0x20\n      add\n      dup1\n      dup4\n      gt\n      tag_70\n      jumpi\n      dup3\n      swap1\n      sub\n      0x1f\n      and\n      dup3\n      add\n      swap2\n    tag_68:\n      pop\n      pop\n      pop\n      pop\n      pop\n      dup2\n      mstore\n      0x20\n      add\n      0x04\n      dup3\n      add\n      sload\n      dup2\n      mstore\n      0x20\n      add\n      0x05\n      dup3\n      add\n      sload\n      dup2\n      mstore\n      pop\n      pop\n        /* \"hackaton/TransplantRegistry.sol\":3004:3015  allPatients */\n      dup3\n        /* \"hackaton/TransplantRegistry.sol\":3016:3017  i */\n      dup3\n        /* \"hackaton/TransplantRegistry.sol\":3004:3018  allPatients[i] */\n      dup2\n      mload\n      dup2\n      lt\n      tag_71\n      jumpi\n      tag_72\n      tag_73\n      jump\t// in\n    tag_72:\n    tag_71:\n      0x20\n      mul\n      0x20\n      add\n      add\n        /* \"hackaton/TransplantRegistry.sol\":3004:3036  allPatients[i] = patients[i + 1] */\n      dup2\n      swap1\n      mstore\n      pop\n        /* \"hackaton/TransplantRegistry.sol\":2985:2988  i++ */\n      dup1\n      dup1\n      0x01\n      add\n      swap2\n      pop\n      pop\n        /* \"hackaton/TransplantRegistry.sol\":2950:3104  for (uint i = 0; i < patientCount; i++) {... */\n      jump(tag_50)\n    tag_51:\n      pop\n        /* \"hackaton/TransplantRegistry.sol\":3121:3132  allPatients */\n      dup1\n        /* \"hackaton/TransplantRegistry.sol\":3114:3132  return allPatients */\n      swap2\n      pop\n      pop\n        /* \"hackaton/TransplantRegistry.sol\":2806:3139  function getAllPatients() public view returns (Patient[] memory) {... */\n      swap1\n      jump\t// out\n        /* \"hackaton/TransplantRegistry.sol\":2056:2428  function getPatient(uint _id) public view returns (string memory, string memory, uint, uint) {... */\n    tag_18:\n        /* \"hackaton/TransplantRegistry.sol\":2107:2120  string memory */\n      0x60\n        /* \"hackaton/TransplantRegistry.sol\":2122:2135  string memory */\n      dup1\n        /* \"hackaton/TransplantRegistry.sol\":2137:2141  uint */\n      0x00\n        /* \"hackaton/TransplantRegistry.sol\":2143:2147  uint */\n      dup1\n        /* \"hackaton/TransplantRegistry.sol\":2219:2220  0 */\n      0x00\n        /* \"hackaton/TransplantRegistry.sol\":2213:2216  _id */\n      dup6\n        /* \"hackaton/TransplantRegistry.sol\":2213:2220  _id > 0 */\n      gt\n        /* \"hackaton/TransplantRegistry.sol\":2213:2243  _id > 0 && _id <= patientCount */\n      dup1\n      iszero\n      tag_75\n      jumpi\n      pop\n        /* \"hackaton/TransplantRegistry.sol\":2231:2243  patientCount */\n      sload(0x02)\n        /* \"hackaton/TransplantRegistry.sol\":2224:2227  _id */\n      dup6\n        /* \"hackaton/TransplantRegistry.sol\":2224:2243  _id <= patientCount */\n      gt\n      iszero\n        /* \"hackaton/TransplantRegistry.sol\":2213:2243  _id > 0 && _id <= patientCount */\n    tag_75:\n        /* \"hackaton/TransplantRegistry.sol\":2205:2268  require(_id > 0 && _id <= patientCount, \"Pacientul nu exista!\") */\n      tag_76\n      jumpi\n      mload(0x40)\n      0x08c379a000000000000000000000000000000000000000000000000000000000\n      dup2\n      mstore\n      0x04\n      add\n      tag_77\n      swap1\n      tag_78\n      jump\t// in\n    tag_77:\n      mload(0x40)\n      dup1\n      swap2\n      sub\n      swap1\n      revert\n    tag_76:\n        /* \"hackaton/TransplantRegistry.sol\":2319:2335  Patient memory p */\n      0x00\n        /* \"hackaton/TransplantRegistry.sol\":2338:2346  patients */\n      0x01\n        /* \"hackaton/TransplantRegistry.sol\":2338:2351  patients[_id] */\n      0x00\n        /* \"hackaton/TransplantRegistry.sol\":2347:2350  _id */\n      dup8\n        /* \"hackaton/TransplantRegistry.sol\":2338:2351  patients[_id] */\n      dup2\n      mstore\n      0x20\n      add\n      swap1\n      dup2\n      mstore\n      0x20\n      add\n      0x00\n      keccak256\n        /* \"hackaton/TransplantRegistry.sol\":2319:2351  Patient memory p = patients[_id] */\n      mload(0x40)\n      dup1\n      0xc0\n      add\n      0x40\n      mstore\n      swap1\n      dup2\n      0x00\n      dup3\n      add\n      sload\n      dup2\n      mstore\n      0x20\n      add\n      0x01\n      dup3\n      add\n      dup1\n      sload\n      tag_79\n      swap1\n      tag_56\n      jump\t// in\n    tag_79:\n      dup1\n      0x1f\n      add\n      0x20\n      dup1\n      swap2\n      div\n      mul\n      0x20\n      add\n      mload(0x40)\n      swap1\n      dup2\n      add\n      0x40\n      mstore\n      dup1\n      swap3\n      swap2\n      swap1\n      dup2\n      dup2\n      mstore\n      0x20\n      add\n      dup3\n      dup1\n      sload\n      tag_80\n      swap1\n      tag_56\n      jump\t// in\n    tag_80:\n      dup1\n      iszero\n      tag_81\n      jumpi\n      dup1\n      0x1f\n      lt\n      tag_82\n      jumpi\n      0x0100\n      dup1\n      dup4\n      sload\n      div\n      mul\n      dup4\n      mstore\n      swap2\n      0x20\n      add\n      swap2\n      jump(tag_81)\n    tag_82:\n      dup3\n      add\n      swap2\n      swap1\n      0x00\n      mstore\n      keccak256(0x00, 0x20)\n      swap1\n    tag_83:\n      dup2\n      sload\n      dup2\n      mstore\n      swap1\n      0x01\n      add\n      swap1\n      0x20\n      add\n      dup1\n      dup4\n      gt\n      tag_83\n      jumpi\n      dup3\n      swap1\n      sub\n      0x1f\n      and\n      dup3\n      add\n      swap2\n    tag_81:\n      pop\n      pop\n      pop\n      pop\n      pop\n      dup2\n      mstore\n      0x20\n      add\n      0x02\n      dup3\n      add\n      dup1\n      sload\n      tag_84\n      swap1\n      tag_56\n      jump\t// in\n    tag_84:\n      dup1\n      0x1f\n      add\n      0x20\n      dup1\n      swap2\n      div\n      mul\n      0x20\n      add\n      mload(0x40)\n      swap1\n      dup2\n      add\n      0x40\n      mstore\n      dup1\n      swap3\n      swap2\n      swap1\n      dup2\n      dup2\n      mstore\n      0x20\n      add\n      dup3\n      dup1\n      sload\n      tag_85\n      swap1\n      tag_56\n      jump\t// in\n    tag_85:\n      dup1\n      iszero\n      tag_86\n      jumpi\n      dup1\n      0x1f\n      lt\n      tag_87\n      jumpi\n      0x0100\n      dup1\n      dup4\n      sload\n      div\n      mul\n      dup4\n      mstore\n      swap2\n      0x20\n      add\n      swap2\n      jump(tag_86)\n    tag_87:\n      dup3\n      add\n      swap2\n      swap1\n      0x00\n      mstore\n      keccak256(0x00, 0x20)\n      swap1\n    tag_88:\n      dup2\n      sload\n      dup2\n      mstore\n      swap1\n      0x01\n      add\n      swap1\n      0x20\n      add\n      dup1\n      dup4\n      gt\n      tag_88\n      jumpi\n      dup3\n      swap1\n      sub\n      0x1f\n      and\n      dup3\n      add\n      swap2\n    tag_86:\n      pop\n      pop\n      pop\n      pop\n      pop\n      dup2\n      mstore\n      0x20\n      add\n      0x03\n      dup3\n      add\n      dup1\n      sload\n      tag_89\n      swap1\n      tag_56\n      jump\t// in\n    tag_89:\n      dup1\n      0x1f\n      add\n      0x20\n      dup1\n      swap2\n      div\n      mul\n      0x20\n      add\n      mload(0x40)\n      swap1\n      dup2\n      add\n      0x40\n      mstore\n      dup1\n      swap3\n      swap2\n      swap1\n      dup2\n      dup2\n      mstore\n      0x20\n      add\n      dup3\n      dup1\n      sload\n      tag_90\n      swap1\n      tag_56\n      jump\t// in\n    tag_90:\n      dup1\n      iszero\n      tag_91\n      jumpi\n      dup1\n      0x1f\n      lt\n      tag_92\n      jumpi\n      0x0100\n      dup1\n      dup4\n      sload\n      div\n      mul\n      dup4\n      mstore\n      swap2\n      0x20\n      add\n      swap2\n      jump(tag_91)\n    tag_92:\n      dup3\n      add\n      swap2\n      swap1\n      0x00\n      mstore\n      keccak256(0x00, 0x20)\n      swap1\n    tag_93:\n      dup2\n      sload\n      dup2\n      mstore\n      swap1\n      0x01\n      add\n      swap1\n      0x20\n      add\n      dup1\n      dup4\n      gt\n      tag_93\n      jumpi\n      dup3\n      swap1\n      sub\n      0x1f\n      and\n      dup3\n      add\n      swap2\n    tag_91:\n      pop\n      pop\n      pop\n      pop\n      pop\n      dup2\n      mstore\n      0x20\n      add\n      0x04\n      dup3\n      add\n      sload\n      dup2\n      mstore\n      0x20\n      add\n      0x05\n      dup3\n      add\n      sload\n      dup2\n      mstore\n      pop\n      pop\n      swap1\n      pop\n        /* \"hackaton/TransplantRegistry.sol\":2369:2370  p */\n      dup1\n        /* \"hackaton/TransplantRegistry.sol\":2369:2375  p.name */\n      0x20\n      add\n      mload\n        /* \"hackaton/TransplantRegistry.sol\":2377:2378  p */\n      dup2\n        /* \"hackaton/TransplantRegistry.sol\":2377:2388  p.bloodType */\n      0x60\n      add\n      mload\n        /* \"hackaton/TransplantRegistry.sol\":2390:2391  p */\n      dup3\n        /* \"hackaton/TransplantRegistry.sol\":2390:2404  p.urgencyLevel */\n      0x80\n      add\n      mload\n        /* \"hackaton/TransplantRegistry.sol\":2406:2407  p */\n      dup4\n        /* \"hackaton/TransplantRegistry.sol\":2406:2420  p.waitingSince */\n      0xa0\n      add\n      mload\n        /* \"hackaton/TransplantRegistry.sol\":2361:2421  return (p.name, p.bloodType, p.urgencyLevel, p.waitingSince) */\n      swap5\n      pop\n      swap5\n      pop\n      swap5\n      pop\n      swap5\n      pop\n      pop\n        /* \"hackaton/TransplantRegistry.sol\":2056:2428  function getPatient(uint _id) public view returns (string memory, string memory, uint, uint) {... */\n      swap2\n      swap4\n      pop\n      swap2\n      swap4\n      jump\t// out\n        /* \"hackaton/TransplantRegistry.sol\":389:409  address public owner */\n    tag_22:\n      0x00\n      dup1\n      sload\n      swap1\n      0x0100\n      exp\n      swap1\n      div\n      0xffffffffffffffffffffffffffffffffffffffff\n      and\n      dup2\n      jump\t// out\n        /* \"hackaton/TransplantRegistry.sol\":499:539  mapping(uint => Patient) public patients */\n    tag_27:\n      mstore(0x20, 0x01)\n      dup1\n      0x00\n      mstore\n      keccak256(0x00, 0x40)\n      0x00\n      swap2\n      pop\n      swap1\n      pop\n      dup1\n      0x00\n      add\n      sload\n      swap1\n      dup1\n      0x01\n      add\n      dup1\n      sload\n      tag_94\n      swap1\n      tag_56\n      jump\t// in\n    tag_94:\n      dup1\n      0x1f\n      add\n      0x20\n      dup1\n      swap2\n      div\n      mul\n      0x20\n      add\n      mload(0x40)\n      swap1\n      dup2\n      add\n      0x40\n      mstore\n      dup1\n      swap3\n      swap2\n      swap1\n      dup2\n      dup2\n      mstore\n      0x20\n      add\n      dup3\n      dup1\n      sload\n      tag_95\n      swap1\n      tag_56\n      jump\t// in\n    tag_95:\n      dup1\n      iszero\n      tag_96\n      jumpi\n      dup1\n      0x1f\n      lt\n      tag_97\n      jumpi\n      0x0100\n      dup1\n      dup4\n      sload\n      div\n      mul\n      dup4\n      mstore\n      swap2\n      0x20\n      add\n      swap2\n      jump(tag_96)\n    tag_97:\n      dup3\n      add\n      swap2\n      swap1\n      0x00\n      mstore\n      keccak256(0x00, 0x20)\n      swap1\n    tag_98:\n      dup2\n      sload\n      dup2\n      mstore\n      swap1\n      0x01\n      add\n      swap1\n      0x20\n      add\n      dup1\n      dup4\n      gt\n      tag_98\n      jumpi\n      dup3\n      swap1\n      sub\n      0x1f\n      and\n      dup3\n      add\n      swap2\n    tag_96:\n      pop\n      pop\n      pop\n      pop\n      pop\n      swap1\n      dup1\n      0x02\n      add\n      dup1\n      sload\n      tag_99\n      swap1\n      tag_56\n      jump\t// in\n    tag_99:\n      dup1\n      0x1f\n      add\n      0x20\n      dup1\n      swap2\n      div\n      mul\n      0x20\n      add\n      mload(0x40)\n      swap1\n      dup2\n      add\n      0x40\n      mstore\n      dup1\n      swap3\n      swap2\n      swap1\n      dup2\n      dup2\n      mstore\n      0x20\n      add\n      dup3\n      dup1\n      sload\n      tag_100\n      swap1\n      tag_56\n      jump\t// in\n    tag_100:\n      dup1\n      iszero\n      tag_101\n      jumpi\n      dup1\n      0x1f\n      lt\n      tag_102\n      jumpi\n      0x0100\n      dup1\n      dup4\n      sload\n      div\n      mul\n      dup4\n      mstore\n      swap2\n      0x20\n      add\n      swap2\n      jump(tag_101)\n    tag_102:\n      dup3\n      add\n      swap2\n      swap1\n      0x00\n      mstore\n      keccak256(0x00, 0x20)\n      swap1\n    tag_103:\n      dup2\n      sload\n      dup2\n      mstore\n      swap1\n      0x01\n      add\n      swap1\n      0x20\n      add\n      dup1\n      dup4\n      gt\n      tag_103\n      jumpi\n      dup3\n      swap1\n      sub\n      0x1f\n      and\n      dup3\n      add\n      swap2\n    tag_101:\n      pop\n      pop\n      pop\n      pop\n      pop\n      swap1\n      dup1\n      0x03\n      add\n      dup1\n      sload\n      tag_104\n      swap1\n      tag_56\n      jump\t// in\n    tag_104:\n      dup1\n      0x1f\n      add\n      0x20\n      dup1\n      swap2\n      div\n      mul\n      0x20\n      add\n      mload(0x40)\n      swap1\n      dup2\n      add\n      0x40\n      mstore\n      dup1\n      swap3\n      swap2\n      swap1\n      dup2\n      dup2\n      mstore\n      0x20\n      add\n      dup3\n      dup1\n      sload\n      tag_105\n      swap1\n      tag_56\n      jump\t// in\n    tag_105:\n      dup1\n      iszero\n      tag_106\n      jumpi\n      dup1\n      0x1f\n      lt\n      tag_107\n      jumpi\n      0x0100\n      dup1\n      dup4\n      sload\n      div\n      mul\n      dup4\n      mstore\n      swap2\n      0x20\n      add\n      swap2\n      jump(tag_106)\n    tag_107:\n      dup3\n      add\n      swap2\n      swap1\n      0x00\n      mstore\n      keccak256(0x00, 0x20)\n      swap1\n    tag_108:\n      dup2\n      sload\n      dup2\n      mstore\n      swap1\n      0x01\n      add\n      swap1\n      0x20\n      add\n      dup1\n      dup4\n      gt\n      tag_108\n      jumpi\n      dup3\n      swap1\n      sub\n      0x1f\n      and\n      dup3\n      add\n      swap2\n    tag_106:\n      pop\n      pop\n      pop\n      pop\n      pop\n      swap1\n      dup1\n      0x04\n      add\n      sload\n      swap1\n      dup1\n      0x05\n      add\n      sload\n      swap1\n      pop\n      dup7\n      jump\t// out\n        /* \"hackaton/TransplantRegistry.sol\":595:623  uint public patientCount = 0 */\n    tag_31:\n      sload(0x02)\n      dup2\n      jump\t// out\n        /* \"hackaton/TransplantRegistry.sol\":1369:1992  function registerPatient(string memory _name, string memory _gender, string memory _bloodType) public {... */\n    tag_37:\n        /* \"hackaton/TransplantRegistry.sol\":1481:1493  patientCount */\n      0x02\n      0x00\n        /* \"hackaton/TransplantRegistry.sol\":1481:1495  patientCount++ */\n      dup2\n      sload\n      dup1\n      swap3\n      swap2\n      swap1\n      tag_110\n      swap1\n      tag_111\n      jump\t// in\n    tag_110:\n      swap2\n      swap1\n      pop\n      sstore\n      pop\n        /* \"hackaton/TransplantRegistry.sol\":1505:1517  uint urgency */\n      0x00\n        /* \"hackaton/TransplantRegistry.sol\":1520:1551  _calculateUrgency(patientCount) */\n      tag_112\n        /* \"hackaton/TransplantRegistry.sol\":1538:1550  patientCount */\n      sload(0x02)\n        /* \"hackaton/TransplantRegistry.sol\":1520:1537  _calculateUrgency */\n      tag_113\n        /* \"hackaton/TransplantRegistry.sol\":1520:1551  _calculateUrgency(patientCount) */\n      jump\t// in\n    tag_112:\n        /* \"hackaton/TransplantRegistry.sol\":1505:1551  uint urgency = _calculateUrgency(patientCount) */\n      swap1\n      pop\n        /* \"hackaton/TransplantRegistry.sol\":1628:1703  Patient(patientCount, _name, _gender, _bloodType, urgency, block.timestamp) */\n      mload(0x40)\n      dup1\n      0xc0\n      add\n      0x40\n      mstore\n      dup1\n        /* \"hackaton/TransplantRegistry.sol\":1636:1648  patientCount */\n      sload(0x02)\n        /* \"hackaton/TransplantRegistry.sol\":1628:1703  Patient(patientCount, _name, _gender, _bloodType, urgency, block.timestamp) */\n      dup2\n      mstore\n      0x20\n      add\n        /* \"hackaton/TransplantRegistry.sol\":1650:1655  _name */\n      dup6\n        /* \"hackaton/TransplantRegistry.sol\":1628:1703  Patient(patientCount, _name, _gender, _bloodType, urgency, block.timestamp) */\n      dup2\n      mstore\n      0x20\n      add\n        /* \"hackaton/TransplantRegistry.sol\":1657:1664  _gender */\n      dup5\n        /* \"hackaton/TransplantRegistry.sol\":1628:1703  Patient(patientCount, _name, _gender, _bloodType, urgency, block.timestamp) */\n      dup2\n      mstore\n      0x20\n      add\n        /* \"hackaton/TransplantRegistry.sol\":1666:1676  _bloodType */\n      dup4\n        /* \"hackaton/TransplantRegistry.sol\":1628:1703  Patient(patientCount, _name, _gender, _bloodType, urgency, block.timestamp) */\n      dup2\n      mstore\n      0x20\n      add\n        /* \"hackaton/TransplantRegistry.sol\":1678:1685  urgency */\n      dup3\n        /* \"hackaton/TransplantRegistry.sol\":1628:1703  Patient(patientCount, _name, _gender, _bloodType, urgency, block.timestamp) */\n      dup2\n      mstore\n      0x20\n      add\n        /* \"hackaton/TransplantRegistry.sol\":1687:1702  block.timestamp */\n      timestamp\n        /* \"hackaton/TransplantRegistry.sol\":1628:1703  Patient(patientCount, _name, _gender, _bloodType, urgency, block.timestamp) */\n      dup2\n      mstore\n      pop\n        /* \"hackaton/TransplantRegistry.sol\":1603:1611  patients */\n      0x01\n        /* \"hackaton/TransplantRegistry.sol\":1603:1625  patients[patientCount] */\n      0x00\n        /* \"hackaton/TransplantRegistry.sol\":1612:1624  patientCount */\n      sload(0x02)\n        /* \"hackaton/TransplantRegistry.sol\":1603:1625  patients[patientCount] */\n      dup2\n      mstore\n      0x20\n      add\n      swap1\n      dup2\n      mstore\n      0x20\n      add\n      0x00\n      keccak256\n        /* \"hackaton/TransplantRegistry.sol\":1603:1703  patients[patientCount] = Patient(patientCount, _name, _gender, _bloodType, urgency, block.timestamp) */\n      0x00\n      dup3\n      add\n      mload\n      dup2\n      0x00\n      add\n      sstore\n      0x20\n      dup3\n      add\n      mload\n      dup2\n      0x01\n      add\n      swap1\n      dup2\n      tag_114\n      swap2\n      swap1\n      tag_115\n      jump\t// in\n    tag_114:\n      pop\n      0x40\n      dup3\n      add\n      mload\n      dup2\n      0x02\n      add\n      swap1\n      dup2\n      tag_116\n      swap2\n      swap1\n      tag_115\n      jump\t// in\n    tag_116:\n      pop\n      0x60\n      dup3\n      add\n      mload\n      dup2\n      0x03\n      add\n      swap1\n      dup2\n      tag_117\n      swap2\n      swap1\n      tag_115\n      jump\t// in\n    tag_117:\n      pop\n      0x80\n      dup3\n      add\n      mload\n      dup2\n      0x04\n      add\n      sstore\n      0xa0\n      dup3\n      add\n      mload\n      dup2\n      0x05\n      add\n      sstore\n      swap1\n      pop\n      pop\n        /* \"hackaton/TransplantRegistry.sol\":1770:1855  PatientRegistered(patientCount, _name, _gender, _bloodType, urgency, block.timestamp) */\n      0x3ba748871cc1a0b62a12d27e88ad1ec2dee12e3c49269217680d7be9e45b5e7a\n        /* \"hackaton/TransplantRegistry.sol\":1788:1800  patientCount */\n      sload(0x02)\n        /* \"hackaton/TransplantRegistry.sol\":1802:1807  _name */\n      dup6\n        /* \"hackaton/TransplantRegistry.sol\":1809:1816  _gender */\n      dup6\n        /* \"hackaton/TransplantRegistry.sol\":1818:1828  _bloodType */\n      dup6\n        /* \"hackaton/TransplantRegistry.sol\":1830:1837  urgency */\n      dup6\n        /* \"hackaton/TransplantRegistry.sol\":1839:1854  block.timestamp */\n      timestamp\n        /* \"hackaton/TransplantRegistry.sol\":1770:1855  PatientRegistered(patientCount, _name, _gender, _bloodType, urgency, block.timestamp) */\n      mload(0x40)\n      tag_118\n      swap7\n      swap6\n      swap5\n      swap4\n      swap3\n      swap2\n      swap1\n      tag_29\n      jump\t// in\n    tag_118:\n      mload(0x40)\n      dup1\n      swap2\n      sub\n      swap1\n      log1\n        /* \"hackaton/TransplantRegistry.sol\":1940:1985  UrgencyLevelCalculated(patientCount, urgency) */\n      0xf4e905dcd43d9cffe46a3df00335e24cf2c820f161c4f695211fe1edc00936e3\n        /* \"hackaton/TransplantRegistry.sol\":1963:1975  patientCount */\n      sload(0x02)\n        /* \"hackaton/TransplantRegistry.sol\":1977:1984  urgency */\n      dup3\n        /* \"hackaton/TransplantRegistry.sol\":1940:1985  UrgencyLevelCalculated(patientCount, urgency) */\n      mload(0x40)\n      tag_119\n      swap3\n      swap2\n      swap1\n      tag_120\n      jump\t// in\n    tag_119:\n      mload(0x40)\n      dup1\n      swap2\n      sub\n      swap1\n      log1\n        /* \"hackaton/TransplantRegistry.sol\":1471:1992  {... */\n      pop\n        /* \"hackaton/TransplantRegistry.sol\":1369:1992  function registerPatient(string memory _name, string memory _gender, string memory _bloodType) public {... */\n      pop\n      pop\n      pop\n      jump\t// out\n        /* \"hackaton/TransplantRegistry.sol\":3145:3354  function getAllPatientIds() public view returns (uint[] memory) {... */\n    tag_39:\n        /* \"hackaton/TransplantRegistry.sol\":3194:3207  uint[] memory */\n      0x60\n        /* \"hackaton/TransplantRegistry.sol\":3215:3232  uint[] memory ids */\n      0x00\n        /* \"hackaton/TransplantRegistry.sol\":3246:3258  patientCount */\n      sload(0x02)\n        /* \"hackaton/TransplantRegistry.sol\":3235:3259  new uint[](patientCount) */\n      0xffffffffffffffff\n      dup2\n      gt\n      iszero\n      tag_122\n      jumpi\n      tag_123\n      tag_45\n      jump\t// in\n    tag_123:\n    tag_122:\n      mload(0x40)\n      swap1\n      dup1\n      dup3\n      mstore\n      dup1\n      0x20\n      mul\n      0x20\n      add\n      dup3\n      add\n      0x40\n      mstore\n      dup1\n      iszero\n      tag_124\n      jumpi\n      dup2\n      0x20\n      add\n      0x20\n      dup3\n      mul\n      dup1\n      calldatasize\n      dup4\n      calldatacopy\n      dup1\n      dup3\n      add\n      swap2\n      pop\n      pop\n      swap1\n      pop\n    tag_124:\n      pop\n        /* \"hackaton/TransplantRegistry.sol\":3215:3259  uint[] memory ids = new uint[](patientCount) */\n      swap1\n      pop\n        /* \"hackaton/TransplantRegistry.sol\":3270:3276  uint i */\n      0x00\n        /* \"hackaton/TransplantRegistry.sol\":3265:3336  for (uint i = 0; i < patientCount; i++) {... */\n    tag_125:\n        /* \"hackaton/TransplantRegistry.sol\":3286:3298  patientCount */\n      sload(0x02)\n        /* \"hackaton/TransplantRegistry.sol\":3282:3283  i */\n      dup2\n        /* \"hackaton/TransplantRegistry.sol\":3282:3298  i < patientCount */\n      lt\n        /* \"hackaton/TransplantRegistry.sol\":3265:3336  for (uint i = 0; i < patientCount; i++) {... */\n      iszero\n      tag_126\n      jumpi\n        /* \"hackaton/TransplantRegistry.sol\":3328:3329  1 */\n      0x01\n        /* \"hackaton/TransplantRegistry.sol\":3324:3325  i */\n      dup2\n        /* \"hackaton/TransplantRegistry.sol\":3324:3329  i + 1 */\n      tag_128\n      swap2\n      swap1\n      tag_54\n      jump\t// in\n    tag_128:\n        /* \"hackaton/TransplantRegistry.sol\":3315:3318  ids */\n      dup3\n        /* \"hackaton/TransplantRegistry.sol\":3319:3320  i */\n      dup3\n        /* \"hackaton/TransplantRegistry.sol\":3315:3321  ids[i] */\n      dup2\n      mload\n      dup2\n      lt\n      tag_129\n      jumpi\n      tag_130\n      tag_73\n      jump\t// in\n    tag_130:\n    tag_129:\n      0x20\n      mul\n      0x20\n      add\n      add\n        /* \"hackaton/TransplantRegistry.sol\":3315:3329  ids[i] = i + 1 */\n      dup2\n      dup2\n      mstore\n      pop\n      pop\n        /* \"hackaton/TransplantRegistry.sol\":3300:3303  i++ */\n      dup1\n      dup1\n      0x01\n      add\n      swap2\n      pop\n      pop\n        /* \"hackaton/TransplantRegistry.sol\":3265:3336  for (uint i = 0; i < patientCount; i++) {... */\n      jump(tag_125)\n    tag_126:\n      pop\n        /* \"hackaton/TransplantRegistry.sol\":3348:3351  ids */\n      dup1\n        /* \"hackaton/TransplantRegistry.sol\":3341:3351  return ids */\n      swap2\n      pop\n      pop\n        /* \"hackaton/TransplantRegistry.sol\":3145:3354  function getAllPatientIds() public view returns (uint[] memory) {... */\n      swap1\n      jump\t// out\n        /* \"hackaton/TransplantRegistry.sol\":2486:2735  function _calculateUrgency(uint patientId) private view returns (uint) {... */\n    tag_113:\n        /* \"hackaton/TransplantRegistry.sol\":2551:2555  uint */\n      0x00\n        /* \"hackaton/TransplantRegistry.sol\":2725:2728  100 */\n      0x64\n        /* \"hackaton/TransplantRegistry.sol\":2678:2693  block.timestamp */\n      timestamp\n        /* \"hackaton/TransplantRegistry.sol\":2695:2703  patients */\n      0x01\n        /* \"hackaton/TransplantRegistry.sol\":2695:2714  patients[patientId] */\n      0x00\n        /* \"hackaton/TransplantRegistry.sol\":2704:2713  patientId */\n      dup6\n        /* \"hackaton/TransplantRegistry.sol\":2695:2714  patients[patientId] */\n      dup2\n      mstore\n      0x20\n      add\n      swap1\n      dup2\n      mstore\n      0x20\n      add\n      0x00\n      keccak256\n        /* \"hackaton/TransplantRegistry.sol\":2695:2719  patients[patientId].name */\n      0x01\n      add\n        /* \"hackaton/TransplantRegistry.sol\":2661:2720  abi.encodePacked(block.timestamp, patients[patientId].name) */\n      add(0x20, mload(0x40))\n      tag_132\n      swap3\n      swap2\n      swap1\n      tag_133\n      jump\t// in\n    tag_132:\n      mload(0x40)\n      0x20\n      dup2\n      dup4\n      sub\n      sub\n      dup2\n      mstore\n      swap1\n      0x40\n      mstore\n        /* \"hackaton/TransplantRegistry.sol\":2651:2721  keccak256(abi.encodePacked(block.timestamp, patients[patientId].name)) */\n      dup1\n      mload\n      swap1\n      0x20\n      add\n      keccak256\n        /* \"hackaton/TransplantRegistry.sol\":2646:2722  uint(keccak256(abi.encodePacked(block.timestamp, patients[patientId].name))) */\n      0x00\n      shr\n        /* \"hackaton/TransplantRegistry.sol\":2646:2728  uint(keccak256(abi.encodePacked(block.timestamp, patients[patientId].name))) % 100 */\n      tag_134\n      swap2\n      swap1\n      tag_135\n      jump\t// in\n    tag_134:\n        /* \"hackaton/TransplantRegistry.sol\":2639:2728  return uint(keccak256(abi.encodePacked(block.timestamp, patients[patientId].name))) % 100 */\n      swap1\n      pop\n        /* \"hackaton/TransplantRegistry.sol\":2486:2735  function _calculateUrgency(uint patientId) private view returns (uint) {... */\n      swap2\n      swap1\n      pop\n      jump\t// out\n    tag_49:\n      mload(0x40)\n      dup1\n      0xc0\n      add\n      0x40\n      mstore\n      dup1\n      0x00\n      dup2\n      mstore\n      0x20\n      add\n      0x60\n      dup2\n      mstore\n      0x20\n      add\n      0x60\n      dup2\n      mstore\n      0x20\n      add\n      0x60\n      dup2\n      mstore\n      0x20\n      add\n      0x00\n      dup2\n      mstore\n      0x20\n      add\n      0x00\n      dup2\n      mstore\n      pop\n      swap1\n      jump\t// out\n        /* \"#utility.yul\":7:144   */\n    tag_136:\n        /* \"#utility.yul\":97:103   */\n      0x00\n        /* \"#utility.yul\":131:136   */\n      dup2\n        /* \"#utility.yul\":125:137   */\n      mload\n        /* \"#utility.yul\":115:137   */\n      swap1\n      pop\n        /* \"#utility.yul\":7:144   */\n      swap2\n      swap1\n      pop\n      jump\t// out\n        /* \"#utility.yul\":150:357   */\n    tag_137:\n        /* \"#utility.yul\":272:283   */\n      0x00\n        /* \"#utility.yul\":306:312   */\n      dup3\n        /* \"#utility.yul\":301:304   */\n      dup3\n        /* \"#utility.yul\":294:313   */\n      mstore\n        /* \"#utility.yul\":346:350   */\n      0x20\n        /* \"#utility.yul\":341:344   */\n      dup3\n        /* \"#utility.yul\":337:351   */\n      add\n        /* \"#utility.yul\":322:351   */\n      swap1\n      pop\n        /* \"#utility.yul\":150:357   */\n      swap3\n      swap2\n      pop\n      pop\n      jump\t// out\n        /* \"#utility.yul\":363:518   */\n    tag_138:\n        /* \"#utility.yul\":453:457   */\n      0x00\n        /* \"#utility.yul\":476:479   */\n      dup2\n        /* \"#utility.yul\":468:479   */\n      swap1\n      pop\n        /* \"#utility.yul\":506:510   */\n      0x20\n        /* \"#utility.yul\":501:504   */\n      dup3\n        /* \"#utility.yul\":497:511   */\n      add\n        /* \"#utility.yul\":489:511   */\n      swap1\n      pop\n        /* \"#utility.yul\":363:518   */\n      swap2\n      swap1\n      pop\n      jump\t// out\n        /* \"#utility.yul\":524:601   */\n    tag_139:\n        /* \"#utility.yul\":561:568   */\n      0x00\n        /* \"#utility.yul\":590:595   */\n      dup2\n        /* \"#utility.yul\":579:595   */\n      swap1\n      pop\n        /* \"#utility.yul\":524:601   */\n      swap2\n      swap1\n      pop\n      jump\t// out\n        /* \"#utility.yul\":607:715   */\n    tag_140:\n        /* \"#utility.yul\":684:708   */\n      tag_205\n        /* \"#utility.yul\":702:707   */\n      dup2\n        /* \"#utility.yul\":684:708   */\n      tag_139\n      jump\t// in\n    tag_205:\n        /* \"#utility.yul\":679:682   */\n      dup3\n        /* \"#utility.yul\":672:709   */\n      mstore\n        /* \"#utility.yul\":607:715   */\n      pop\n      pop\n      jump\t// out\n        /* \"#utility.yul\":721:820   */\n    tag_141:\n        /* \"#utility.yul\":773:779   */\n      0x00\n        /* \"#utility.yul\":807:812   */\n      dup2\n        /* \"#utility.yul\":801:813   */\n      mload\n        /* \"#utility.yul\":791:813   */\n      swap1\n      pop\n        /* \"#utility.yul\":721:820   */\n      swap2\n      swap1\n      pop\n      jump\t// out\n        /* \"#utility.yul\":826:985   */\n    tag_142:\n        /* \"#utility.yul\":900:911   */\n      0x00\n        /* \"#utility.yul\":934:940   */\n      dup3\n        /* \"#utility.yul\":929:932   */\n      dup3\n        /* \"#utility.yul\":922:941   */\n      mstore\n        /* \"#utility.yul\":974:978   */\n      0x20\n        /* \"#utility.yul\":969:972   */\n      dup3\n        /* \"#utility.yul\":965:979   */\n      add\n        /* \"#utility.yul\":950:979   */\n      swap1\n      pop\n        /* \"#utility.yul\":826:985   */\n      swap3\n      swap2\n      pop\n      pop\n      jump\t// out\n        /* \"#utility.yul\":991:1130   */\n    tag_143:\n        /* \"#utility.yul\":1080:1086   */\n      dup3\n        /* \"#utility.yul\":1075:1078   */\n      dup2\n        /* \"#utility.yul\":1070:1073   */\n      dup4\n        /* \"#utility.yul\":1064:1087   */\n      mcopy\n        /* \"#utility.yul\":1121:1122   */\n      0x00\n        /* \"#utility.yul\":1112:1118   */\n      dup4\n        /* \"#utility.yul\":1107:1110   */\n      dup4\n        /* \"#utility.yul\":1103:1119   */\n      add\n        /* \"#utility.yul\":1096:1123   */\n      mstore\n        /* \"#utility.yul\":991:1130   */\n      pop\n      pop\n      pop\n      jump\t// out\n        /* \"#utility.yul\":1136:1238   */\n    tag_144:\n        /* \"#utility.yul\":1177:1183   */\n      0x00\n        /* \"#utility.yul\":1228:1230   */\n      0x1f\n        /* \"#utility.yul\":1224:1231   */\n      not\n        /* \"#utility.yul\":1219:1221   */\n      0x1f\n        /* \"#utility.yul\":1212:1217   */\n      dup4\n        /* \"#utility.yul\":1208:1222   */\n      add\n        /* \"#utility.yul\":1204:1232   */\n      and\n        /* \"#utility.yul\":1194:1232   */\n      swap1\n      pop\n        /* \"#utility.yul\":1136:1238   */\n      swap2\n      swap1\n      pop\n      jump\t// out\n        /* \"#utility.yul\":1244:1601   */\n    tag_145:\n        /* \"#utility.yul\":1322:1325   */\n      0x00\n        /* \"#utility.yul\":1350:1389   */\n      tag_211\n        /* \"#utility.yul\":1383:1388   */\n      dup3\n        /* \"#utility.yul\":1350:1389   */\n      tag_141\n      jump\t// in\n    tag_211:\n        /* \"#utility.yul\":1405:1466   */\n      tag_212\n        /* \"#utility.yul\":1459:1465   */\n      dup2\n        /* \"#utility.yul\":1454:1457   */\n      dup6\n        /* \"#utility.yul\":1405:1466   */\n      tag_142\n      jump\t// in\n    tag_212:\n        /* \"#utility.yul\":1398:1466   */\n      swap4\n      pop\n        /* \"#utility.yul\":1475:1540   */\n      tag_213\n        /* \"#utility.yul\":1533:1539   */\n      dup2\n        /* \"#utility.yul\":1528:1531   */\n      dup6\n        /* \"#utility.yul\":1521:1525   */\n      0x20\n        /* \"#utility.yul\":1514:1519   */\n      dup7\n        /* \"#utility.yul\":1510:1526   */\n      add\n        /* \"#utility.yul\":1475:1540   */\n      tag_143\n      jump\t// in\n    tag_213:\n        /* \"#utility.yul\":1565:1594   */\n      tag_214\n        /* \"#utility.yul\":1587:1593   */\n      dup2\n        /* \"#utility.yul\":1565:1594   */\n      tag_144\n      jump\t// in\n    tag_214:\n        /* \"#utility.yul\":1560:1563   */\n      dup5\n        /* \"#utility.yul\":1556:1595   */\n      add\n        /* \"#utility.yul\":1549:1595   */\n      swap2\n      pop\n        /* \"#utility.yul\":1326:1601   */\n      pop\n        /* \"#utility.yul\":1244:1601   */\n      swap3\n      swap2\n      pop\n      pop\n      jump\t// out\n        /* \"#utility.yul\":1685:3136   */\n    tag_146:\n        /* \"#utility.yul\":1790:1793   */\n      0x00\n        /* \"#utility.yul\":1826:1830   */\n      0xc0\n        /* \"#utility.yul\":1821:1824   */\n      dup4\n        /* \"#utility.yul\":1817:1831   */\n      add\n        /* \"#utility.yul\":1911:1915   */\n      0x00\n        /* \"#utility.yul\":1904:1909   */\n      dup4\n        /* \"#utility.yul\":1900:1916   */\n      add\n        /* \"#utility.yul\":1894:1917   */\n      mload\n        /* \"#utility.yul\":1930:1993   */\n      tag_216\n        /* \"#utility.yul\":1987:1991   */\n      0x00\n        /* \"#utility.yul\":1982:1985   */\n      dup7\n        /* \"#utility.yul\":1978:1992   */\n      add\n        /* \"#utility.yul\":1964:1976   */\n      dup3\n        /* \"#utility.yul\":1930:1993   */\n      tag_140\n      jump\t// in\n    tag_216:\n        /* \"#utility.yul\":1841:2003   */\n      pop\n        /* \"#utility.yul\":2085:2089   */\n      0x20\n        /* \"#utility.yul\":2078:2083   */\n      dup4\n        /* \"#utility.yul\":2074:2090   */\n      add\n        /* \"#utility.yul\":2068:2091   */\n      mload\n        /* \"#utility.yul\":2138:2141   */\n      dup5\n        /* \"#utility.yul\":2132:2136   */\n      dup3\n        /* \"#utility.yul\":2128:2142   */\n      sub\n        /* \"#utility.yul\":2121:2125   */\n      0x20\n        /* \"#utility.yul\":2116:2119   */\n      dup7\n        /* \"#utility.yul\":2112:2126   */\n      add\n        /* \"#utility.yul\":2105:2143   */\n      mstore\n        /* \"#utility.yul\":2164:2237   */\n      tag_217\n        /* \"#utility.yul\":2232:2236   */\n      dup3\n        /* \"#utility.yul\":2218:2230   */\n      dup3\n        /* \"#utility.yul\":2164:2237   */\n      tag_145\n      jump\t// in\n    tag_217:\n        /* \"#utility.yul\":2156:2237   */\n      swap2\n      pop\n        /* \"#utility.yul\":2013:2248   */\n      pop\n        /* \"#utility.yul\":2332:2336   */\n      0x40\n        /* \"#utility.yul\":2325:2330   */\n      dup4\n        /* \"#utility.yul\":2321:2337   */\n      add\n        /* \"#utility.yul\":2315:2338   */\n      mload\n        /* \"#utility.yul\":2385:2388   */\n      dup5\n        /* \"#utility.yul\":2379:2383   */\n      dup3\n        /* \"#utility.yul\":2375:2389   */\n      sub\n        /* \"#utility.yul\":2368:2372   */\n      0x40\n        /* \"#utility.yul\":2363:2366   */\n      dup7\n        /* \"#utility.yul\":2359:2373   */\n      add\n        /* \"#utility.yul\":2352:2390   */\n      mstore\n        /* \"#utility.yul\":2411:2484   */\n      tag_218\n        /* \"#utility.yul\":2479:2483   */\n      dup3\n        /* \"#utility.yul\":2465:2477   */\n      dup3\n        /* \"#utility.yul\":2411:2484   */\n      tag_145\n      jump\t// in\n    tag_218:\n        /* \"#utility.yul\":2403:2484   */\n      swap2\n      pop\n        /* \"#utility.yul\":2258:2495   */\n      pop\n        /* \"#utility.yul\":2582:2586   */\n      0x60\n        /* \"#utility.yul\":2575:2580   */\n      dup4\n        /* \"#utility.yul\":2571:2587   */\n      add\n        /* \"#utility.yul\":2565:2588   */\n      mload\n        /* \"#utility.yul\":2635:2638   */\n      dup5\n        /* \"#utility.yul\":2629:2633   */\n      dup3\n        /* \"#utility.yul\":2625:2639   */\n      sub\n        /* \"#utility.yul\":2618:2622   */\n      0x60\n        /* \"#utility.yul\":2613:2616   */\n      dup7\n        /* \"#utility.yul\":2609:2623   */\n      add\n        /* \"#utility.yul\":2602:2640   */\n      mstore\n        /* \"#utility.yul\":2661:2734   */\n      tag_219\n        /* \"#utility.yul\":2729:2733   */\n      dup3\n        /* \"#utility.yul\":2715:2727   */\n      dup3\n        /* \"#utility.yul\":2661:2734   */\n      tag_145\n      jump\t// in\n    tag_219:\n        /* \"#utility.yul\":2653:2734   */\n      swap2\n      pop\n        /* \"#utility.yul\":2505:2745   */\n      pop\n        /* \"#utility.yul\":2835:2839   */\n      0x80\n        /* \"#utility.yul\":2828:2833   */\n      dup4\n        /* \"#utility.yul\":2824:2840   */\n      add\n        /* \"#utility.yul\":2818:2841   */\n      mload\n        /* \"#utility.yul\":2854:2917   */\n      tag_220\n        /* \"#utility.yul\":2911:2915   */\n      0x80\n        /* \"#utility.yul\":2906:2909   */\n      dup7\n        /* \"#utility.yul\":2902:2916   */\n      add\n        /* \"#utility.yul\":2888:2900   */\n      dup3\n        /* \"#utility.yul\":2854:2917   */\n      tag_140\n      jump\t// in\n    tag_220:\n        /* \"#utility.yul\":2755:2927   */\n      pop\n        /* \"#utility.yul\":3017:3021   */\n      0xa0\n        /* \"#utility.yul\":3010:3015   */\n      dup4\n        /* \"#utility.yul\":3006:3022   */\n      add\n        /* \"#utility.yul\":3000:3023   */\n      mload\n        /* \"#utility.yul\":3036:3099   */\n      tag_221\n        /* \"#utility.yul\":3093:3097   */\n      0xa0\n        /* \"#utility.yul\":3088:3091   */\n      dup7\n        /* \"#utility.yul\":3084:3098   */\n      add\n        /* \"#utility.yul\":3070:3082   */\n      dup3\n        /* \"#utility.yul\":3036:3099   */\n      tag_140\n      jump\t// in\n    tag_221:\n        /* \"#utility.yul\":2937:3109   */\n      pop\n        /* \"#utility.yul\":3126:3130   */\n      dup1\n        /* \"#utility.yul\":3119:3130   */\n      swap2\n      pop\n        /* \"#utility.yul\":1795:3136   */\n      pop\n        /* \"#utility.yul\":1685:3136   */\n      swap3\n      swap2\n      pop\n      pop\n      jump\t// out\n        /* \"#utility.yul\":3142:3390   */\n    tag_147:\n        /* \"#utility.yul\":3257:3267   */\n      0x00\n        /* \"#utility.yul\":3292:3384   */\n      tag_223\n        /* \"#utility.yul\":3380:3383   */\n      dup4\n        /* \"#utility.yul\":3372:3378   */\n      dup4\n        /* \"#utility.yul\":3292:3384   */\n      tag_146\n      jump\t// in\n    tag_223:\n        /* \"#utility.yul\":3278:3384   */\n      swap1\n      pop\n        /* \"#utility.yul\":3142:3390   */\n      swap3\n      swap2\n      pop\n      pop\n      jump\t// out\n        /* \"#utility.yul\":3396:3532   */\n    tag_148:\n        /* \"#utility.yul\":3489:3493   */\n      0x00\n        /* \"#utility.yul\":3521:3525   */\n      0x20\n        /* \"#utility.yul\":3516:3519   */\n      dup3\n        /* \"#utility.yul\":3512:3526   */\n      add\n        /* \"#utility.yul\":3504:3526   */\n      swap1\n      pop\n        /* \"#utility.yul\":3396:3532   */\n      swap2\n      swap1\n      pop\n      jump\t// out\n        /* \"#utility.yul\":3620:4715   */\n    tag_149:\n        /* \"#utility.yul\":3785:3788   */\n      0x00\n        /* \"#utility.yul\":3814:3891   */\n      tag_226\n        /* \"#utility.yul\":3885:3890   */\n      dup3\n        /* \"#utility.yul\":3814:3891   */\n      tag_136\n      jump\t// in\n    tag_226:\n        /* \"#utility.yul\":3907:4016   */\n      tag_227\n        /* \"#utility.yul\":4009:4015   */\n      dup2\n        /* \"#utility.yul\":4004:4007   */\n      dup6\n        /* \"#utility.yul\":3907:4016   */\n      tag_137\n      jump\t// in\n    tag_227:\n        /* \"#utility.yul\":3900:4016   */\n      swap4\n      pop\n        /* \"#utility.yul\":4042:4045   */\n      dup4\n        /* \"#utility.yul\":4087:4091   */\n      0x20\n        /* \"#utility.yul\":4079:4085   */\n      dup3\n        /* \"#utility.yul\":4075:4092   */\n      mul\n        /* \"#utility.yul\":4070:4073   */\n      dup6\n        /* \"#utility.yul\":4066:4093   */\n      add\n        /* \"#utility.yul\":4117:4196   */\n      tag_228\n        /* \"#utility.yul\":4190:4195   */\n      dup6\n        /* \"#utility.yul\":4117:4196   */\n      tag_138\n      jump\t// in\n    tag_228:\n        /* \"#utility.yul\":4219:4226   */\n      dup1\n        /* \"#utility.yul\":4250:4251   */\n      0x00\n        /* \"#utility.yul\":4235:4670   */\n    tag_229:\n        /* \"#utility.yul\":4260:4266   */\n      dup6\n        /* \"#utility.yul\":4257:4258   */\n      dup2\n        /* \"#utility.yul\":4254:4267   */\n      lt\n        /* \"#utility.yul\":4235:4670   */\n      iszero\n      tag_231\n      jumpi\n        /* \"#utility.yul\":4331:4340   */\n      dup5\n        /* \"#utility.yul\":4325:4329   */\n      dup5\n        /* \"#utility.yul\":4321:4341   */\n      sub\n        /* \"#utility.yul\":4316:4319   */\n      dup10\n        /* \"#utility.yul\":4309:4342   */\n      mstore\n        /* \"#utility.yul\":4382:4388   */\n      dup2\n        /* \"#utility.yul\":4376:4389   */\n      mload\n        /* \"#utility.yul\":4410:4520   */\n      tag_232\n        /* \"#utility.yul\":4515:4519   */\n      dup6\n        /* \"#utility.yul\":4500:4513   */\n      dup3\n        /* \"#utility.yul\":4410:4520   */\n      tag_147\n      jump\t// in\n    tag_232:\n        /* \"#utility.yul\":4402:4520   */\n      swap5\n      pop\n        /* \"#utility.yul\":4543:4626   */\n      tag_233\n        /* \"#utility.yul\":4619:4625   */\n      dup4\n        /* \"#utility.yul\":4543:4626   */\n      tag_148\n      jump\t// in\n    tag_233:\n        /* \"#utility.yul\":4533:4626   */\n      swap3\n      pop\n        /* \"#utility.yul\":4655:4659   */\n      0x20\n        /* \"#utility.yul\":4650:4653   */\n      dup11\n        /* \"#utility.yul\":4646:4660   */\n      add\n        /* \"#utility.yul\":4639:4660   */\n      swap10\n      pop\n        /* \"#utility.yul\":4295:4670   */\n      pop\n        /* \"#utility.yul\":4282:4283   */\n      0x01\n        /* \"#utility.yul\":4279:4280   */\n      dup2\n        /* \"#utility.yul\":4275:4284   */\n      add\n        /* \"#utility.yul\":4270:4284   */\n      swap1\n      pop\n        /* \"#utility.yul\":4235:4670   */\n      jump(tag_229)\n    tag_231:\n        /* \"#utility.yul\":4239:4253   */\n      pop\n        /* \"#utility.yul\":4686:4690   */\n      dup3\n        /* \"#utility.yul\":4679:4690   */\n      swap8\n      pop\n        /* \"#utility.yul\":4706:4709   */\n      dup8\n        /* \"#utility.yul\":4699:4709   */\n      swap6\n      pop\n        /* \"#utility.yul\":3790:4715   */\n      pop\n      pop\n      pop\n      pop\n      pop\n        /* \"#utility.yul\":3620:4715   */\n      swap3\n      swap2\n      pop\n      pop\n      jump\t// out\n        /* \"#utility.yul\":4721:5186   */\n    tag_14:\n        /* \"#utility.yul\":4910:4914   */\n      0x00\n        /* \"#utility.yul\":4948:4950   */\n      0x20\n        /* \"#utility.yul\":4937:4946   */\n      dup3\n        /* \"#utility.yul\":4933:4951   */\n      add\n        /* \"#utility.yul\":4925:4951   */\n      swap1\n      pop\n        /* \"#utility.yul\":4997:5006   */\n      dup2\n        /* \"#utility.yul\":4991:4995   */\n      dup2\n        /* \"#utility.yul\":4987:5007   */\n      sub\n        /* \"#utility.yul\":4983:4984   */\n      0x00\n        /* \"#utility.yul\":4972:4981   */\n      dup4\n        /* \"#utility.yul\":4968:4985   */\n      add\n        /* \"#utility.yul\":4961:5008   */\n      mstore\n        /* \"#utility.yul\":5025:5179   */\n      tag_235\n        /* \"#utility.yul\":5174:5178   */\n      dup2\n        /* \"#utility.yul\":5165:5171   */\n      dup5\n        /* \"#utility.yul\":5025:5179   */\n      tag_149\n      jump\t// in\n    tag_235:\n        /* \"#utility.yul\":5017:5179   */\n      swap1\n      pop\n        /* \"#utility.yul\":4721:5186   */\n      swap3\n      swap2\n      pop\n      pop\n      jump\t// out\n        /* \"#utility.yul\":5192:5267   */\n    tag_150:\n        /* \"#utility.yul\":5225:5231   */\n      0x00\n        /* \"#utility.yul\":5258:5260   */\n      0x40\n        /* \"#utility.yul\":5252:5261   */\n      mload\n        /* \"#utility.yul\":5242:5261   */\n      swap1\n      pop\n        /* \"#utility.yul\":5192:5267   */\n      swap1\n      jump\t// out\n        /* \"#utility.yul\":5273:5390   */\n    tag_151:\n        /* \"#utility.yul\":5382:5383   */\n      0x00\n        /* \"#utility.yul\":5379:5380   */\n      dup1\n        /* \"#utility.yul\":5372:5384   */\n      revert\n        /* \"#utility.yul\":5396:5513   */\n    tag_152:\n        /* \"#utility.yul\":5505:5506   */\n      0x00\n        /* \"#utility.yul\":5502:5503   */\n      dup1\n        /* \"#utility.yul\":5495:5507   */\n      revert\n        /* \"#utility.yul\":5519:5641   */\n    tag_153:\n        /* \"#utility.yul\":5592:5616   */\n      tag_240\n        /* \"#utility.yul\":5610:5615   */\n      dup2\n        /* \"#utility.yul\":5592:5616   */\n      tag_139\n      jump\t// in\n    tag_240:\n        /* \"#utility.yul\":5585:5590   */\n      dup2\n        /* \"#utility.yul\":5582:5617   */\n      eq\n        /* \"#utility.yul\":5572:5635   */\n      tag_241\n      jumpi\n        /* \"#utility.yul\":5631:5632   */\n      0x00\n        /* \"#utility.yul\":5628:5629   */\n      dup1\n        /* \"#utility.yul\":5621:5633   */\n      revert\n        /* \"#utility.yul\":5572:5635   */\n    tag_241:\n        /* \"#utility.yul\":5519:5641   */\n      pop\n      jump\t// out\n        /* \"#utility.yul\":5647:5786   */\n    tag_154:\n        /* \"#utility.yul\":5693:5698   */\n      0x00\n        /* \"#utility.yul\":5731:5737   */\n      dup2\n        /* \"#utility.yul\":5718:5738   */\n      calldataload\n        /* \"#utility.yul\":5709:5738   */\n      swap1\n      pop\n        /* \"#utility.yul\":5747:5780   */\n      tag_243\n        /* \"#utility.yul\":5774:5779   */\n      dup2\n        /* \"#utility.yul\":5747:5780   */\n      tag_153\n      jump\t// in\n    tag_243:\n        /* \"#utility.yul\":5647:5786   */\n      swap3\n      swap2\n      pop\n      pop\n      jump\t// out\n        /* \"#utility.yul\":5792:6121   */\n    tag_17:\n        /* \"#utility.yul\":5851:5857   */\n      0x00\n        /* \"#utility.yul\":5900:5902   */\n      0x20\n        /* \"#utility.yul\":5888:5897   */\n      dup3\n        /* \"#utility.yul\":5879:5886   */\n      dup5\n        /* \"#utility.yul\":5875:5898   */\n      sub\n        /* \"#utility.yul\":5871:5903   */\n      slt\n        /* \"#utility.yul\":5868:5987   */\n      iszero\n      tag_245\n      jumpi\n        /* \"#utility.yul\":5906:5985   */\n      tag_246\n      tag_151\n      jump\t// in\n    tag_246:\n        /* \"#utility.yul\":5868:5987   */\n    tag_245:\n        /* \"#utility.yul\":6026:6027   */\n      0x00\n        /* \"#utility.yul\":6051:6104   */\n      tag_247\n        /* \"#utility.yul\":6096:6103   */\n      dup5\n        /* \"#utility.yul\":6087:6093   */\n      dup3\n        /* \"#utility.yul\":6076:6085   */\n      dup6\n        /* \"#utility.yul\":6072:6094   */\n      add\n        /* \"#utility.yul\":6051:6104   */\n      tag_154\n      jump\t// in\n    tag_247:\n        /* \"#utility.yul\":6041:6104   */\n      swap2\n      pop\n        /* \"#utility.yul\":5997:6114   */\n      pop\n        /* \"#utility.yul\":5792:6121   */\n      swap3\n      swap2\n      pop\n      pop\n      jump\t// out\n        /* \"#utility.yul\":6127:6296   */\n    tag_155:\n        /* \"#utility.yul\":6211:6222   */\n      0x00\n        /* \"#utility.yul\":6245:6251   */\n      dup3\n        /* \"#utility.yul\":6240:6243   */\n      dup3\n        /* \"#utility.yul\":6233:6252   */\n      mstore\n        /* \"#utility.yul\":6285:6289   */\n      0x20\n        /* \"#utility.yul\":6280:6283   */\n      dup3\n        /* \"#utility.yul\":6276:6290   */\n      add\n        /* \"#utility.yul\":6261:6290   */\n      swap1\n      pop\n        /* \"#utility.yul\":6127:6296   */\n      swap3\n      swap2\n      pop\n      pop\n      jump\t// out\n        /* \"#utility.yul\":6302:6679   */\n    tag_156:\n        /* \"#utility.yul\":6390:6393   */\n      0x00\n        /* \"#utility.yul\":6418:6457   */\n      tag_250\n        /* \"#utility.yul\":6451:6456   */\n      dup3\n        /* \"#utility.yul\":6418:6457   */\n      tag_141\n      jump\t// in\n    tag_250:\n        /* \"#utility.yul\":6473:6544   */\n      tag_251\n        /* \"#utility.yul\":6537:6543   */\n      dup2\n        /* \"#utility.yul\":6532:6535   */\n      dup6\n        /* \"#utility.yul\":6473:6544   */\n      tag_155\n      jump\t// in\n    tag_251:\n        /* \"#utility.yul\":6466:6544   */\n      swap4\n      pop\n        /* \"#utility.yul\":6553:6618   */\n      tag_252\n        /* \"#utility.yul\":6611:6617   */\n      dup2\n        /* \"#utility.yul\":6606:6609   */\n      dup6\n        /* \"#utility.yul\":6599:6603   */\n      0x20\n        /* \"#utility.yul\":6592:6597   */\n      dup7\n        /* \"#utility.yul\":6588:6604   */\n      add\n        /* \"#utility.yul\":6553:6618   */\n      tag_143\n      jump\t// in\n    tag_252:\n        /* \"#utility.yul\":6643:6672   */\n      tag_253\n        /* \"#utility.yul\":6665:6671   */\n      dup2\n        /* \"#utility.yul\":6643:6672   */\n      tag_144\n      jump\t// in\n    tag_253:\n        /* \"#utility.yul\":6638:6641   */\n      dup5\n        /* \"#utility.yul\":6634:6673   */\n      add\n        /* \"#utility.yul\":6627:6673   */\n      swap2\n      pop\n        /* \"#utility.yul\":6394:6679   */\n      pop\n        /* \"#utility.yul\":6302:6679   */\n      swap3\n      swap2\n      pop\n      pop\n      jump\t// out\n        /* \"#utility.yul\":6685:6803   */\n    tag_157:\n        /* \"#utility.yul\":6772:6796   */\n      tag_255\n        /* \"#utility.yul\":6790:6795   */\n      dup2\n        /* \"#utility.yul\":6772:6796   */\n      tag_139\n      jump\t// in\n    tag_255:\n        /* \"#utility.yul\":6767:6770   */\n      dup3\n        /* \"#utility.yul\":6760:6797   */\n      mstore\n        /* \"#utility.yul\":6685:6803   */\n      pop\n      pop\n      jump\t// out\n        /* \"#utility.yul\":6809:7544   */\n    tag_20:\n        /* \"#utility.yul\":7026:7030   */\n      0x00\n        /* \"#utility.yul\":7064:7067   */\n      0x80\n        /* \"#utility.yul\":7053:7062   */\n      dup3\n        /* \"#utility.yul\":7049:7068   */\n      add\n        /* \"#utility.yul\":7041:7068   */\n      swap1\n      pop\n        /* \"#utility.yul\":7114:7123   */\n      dup2\n        /* \"#utility.yul\":7108:7112   */\n      dup2\n        /* \"#utility.yul\":7104:7124   */\n      sub\n        /* \"#utility.yul\":7100:7101   */\n      0x00\n        /* \"#utility.yul\":7089:7098   */\n      dup4\n        /* \"#utility.yul\":7085:7102   */\n      add\n        /* \"#utility.yul\":7078:7125   */\n      mstore\n        /* \"#utility.yul\":7142:7220   */\n      tag_257\n        /* \"#utility.yul\":7215:7219   */\n      dup2\n        /* \"#utility.yul\":7206:7212   */\n      dup8\n        /* \"#utility.yul\":7142:7220   */\n      tag_156\n      jump\t// in\n    tag_257:\n        /* \"#utility.yul\":7134:7220   */\n      swap1\n      pop\n        /* \"#utility.yul\":7267:7276   */\n      dup2\n        /* \"#utility.yul\":7261:7265   */\n      dup2\n        /* \"#utility.yul\":7257:7277   */\n      sub\n        /* \"#utility.yul\":7252:7254   */\n      0x20\n        /* \"#utility.yul\":7241:7250   */\n      dup4\n        /* \"#utility.yul\":7237:7255   */\n      add\n        /* \"#utility.yul\":7230:7278   */\n      mstore\n        /* \"#utility.yul\":7295:7373   */\n      tag_258\n        /* \"#utility.yul\":7368:7372   */\n      dup2\n        /* \"#utility.yul\":7359:7365   */\n      dup7\n        /* \"#utility.yul\":7295:7373   */\n      tag_156\n      jump\t// in\n    tag_258:\n        /* \"#utility.yul\":7287:7373   */\n      swap1\n      pop\n        /* \"#utility.yul\":7383:7455   */\n      tag_259\n        /* \"#utility.yul\":7451:7453   */\n      0x40\n        /* \"#utility.yul\":7440:7449   */\n      dup4\n        /* \"#utility.yul\":7436:7454   */\n      add\n        /* \"#utility.yul\":7427:7433   */\n      dup6\n        /* \"#utility.yul\":7383:7455   */\n      tag_157\n      jump\t// in\n    tag_259:\n        /* \"#utility.yul\":7465:7537   */\n      tag_260\n        /* \"#utility.yul\":7533:7535   */\n      0x60\n        /* \"#utility.yul\":7522:7531   */\n      dup4\n        /* \"#utility.yul\":7518:7536   */\n      add\n        /* \"#utility.yul\":7509:7515   */\n      dup5\n        /* \"#utility.yul\":7465:7537   */\n      tag_157\n      jump\t// in\n    tag_260:\n        /* \"#utility.yul\":6809:7544   */\n      swap6\n      swap5\n      pop\n      pop\n      pop\n      pop\n      pop\n      jump\t// out\n        /* \"#utility.yul\":7550:7676   */\n    tag_158:\n        /* \"#utility.yul\":7587:7594   */\n      0x00\n        /* \"#utility.yul\":7627:7669   */\n      0xffffffffffffffffffffffffffffffffffffffff\n        /* \"#utility.yul\":7620:7625   */\n      dup3\n        /* \"#utility.yul\":7616:7670   */\n      and\n        /* \"#utility.yul\":7605:7670   */\n      swap1\n      pop\n        /* \"#utility.yul\":7550:7676   */\n      swap2\n      swap1\n      pop\n      jump\t// out\n        /* \"#utility.yul\":7682:7778   */\n    tag_159:\n        /* \"#utility.yul\":7719:7726   */\n      0x00\n        /* \"#utility.yul\":7748:7772   */\n      tag_263\n        /* \"#utility.yul\":7766:7771   */\n      dup3\n        /* \"#utility.yul\":7748:7772   */\n      tag_158\n      jump\t// in\n    tag_263:\n        /* \"#utility.yul\":7737:7772   */\n      swap1\n      pop\n        /* \"#utility.yul\":7682:7778   */\n      swap2\n      swap1\n      pop\n      jump\t// out\n        /* \"#utility.yul\":7784:7902   */\n    tag_160:\n        /* \"#utility.yul\":7871:7895   */\n      tag_265\n        /* \"#utility.yul\":7889:7894   */\n      dup2\n        /* \"#utility.yul\":7871:7895   */\n      tag_159\n      jump\t// in\n    tag_265:\n        /* \"#utility.yul\":7866:7869   */\n      dup3\n        /* \"#utility.yul\":7859:7896   */\n      mstore\n        /* \"#utility.yul\":7784:7902   */\n      pop\n      pop\n      jump\t// out\n        /* \"#utility.yul\":7908:8130   */\n    tag_24:\n        /* \"#utility.yul\":8001:8005   */\n      0x00\n        /* \"#utility.yul\":8039:8041   */\n      0x20\n        /* \"#utility.yul\":8028:8037   */\n      dup3\n        /* \"#utility.yul\":8024:8042   */\n      add\n        /* \"#utility.yul\":8016:8042   */\n      swap1\n      pop\n        /* \"#utility.yul\":8052:8123   */\n      tag_267\n        /* \"#utility.yul\":8120:8121   */\n      0x00\n        /* \"#utility.yul\":8109:8118   */\n      dup4\n        /* \"#utility.yul\":8105:8122   */\n      add\n        /* \"#utility.yul\":8096:8102   */\n      dup5\n        /* \"#utility.yul\":8052:8123   */\n      tag_160\n      jump\t// in\n    tag_267:\n        /* \"#utility.yul\":7908:8130   */\n      swap3\n      swap2\n      pop\n      pop\n      jump\t// out\n        /* \"#utility.yul\":8136:9184   */\n    tag_29:\n        /* \"#utility.yul\":8429:8433   */\n      0x00\n        /* \"#utility.yul\":8467:8470   */\n      0xc0\n        /* \"#utility.yul\":8456:8465   */\n      dup3\n        /* \"#utility.yul\":8452:8471   */\n      add\n        /* \"#utility.yul\":8444:8471   */\n      swap1\n      pop\n        /* \"#utility.yul\":8481:8552   */\n      tag_269\n        /* \"#utility.yul\":8549:8550   */\n      0x00\n        /* \"#utility.yul\":8538:8547   */\n      dup4\n        /* \"#utility.yul\":8534:8551   */\n      add\n        /* \"#utility.yul\":8525:8531   */\n      dup10\n        /* \"#utility.yul\":8481:8552   */\n      tag_157\n      jump\t// in\n    tag_269:\n        /* \"#utility.yul\":8599:8608   */\n      dup2\n        /* \"#utility.yul\":8593:8597   */\n      dup2\n        /* \"#utility.yul\":8589:8609   */\n      sub\n        /* \"#utility.yul\":8584:8586   */\n      0x20\n        /* \"#utility.yul\":8573:8582   */\n      dup4\n        /* \"#utility.yul\":8569:8587   */\n      add\n        /* \"#utility.yul\":8562:8610   */\n      mstore\n        /* \"#utility.yul\":8627:8705   */\n      tag_270\n        /* \"#utility.yul\":8700:8704   */\n      dup2\n        /* \"#utility.yul\":8691:8697   */\n      dup9\n        /* \"#utility.yul\":8627:8705   */\n      tag_156\n      jump\t// in\n    tag_270:\n        /* \"#utility.yul\":8619:8705   */\n      swap1\n      pop\n        /* \"#utility.yul\":8752:8761   */\n      dup2\n        /* \"#utility.yul\":8746:8750   */\n      dup2\n        /* \"#utility.yul\":8742:8762   */\n      sub\n        /* \"#utility.yul\":8737:8739   */\n      0x40\n        /* \"#utility.yul\":8726:8735   */\n      dup4\n        /* \"#utility.yul\":8722:8740   */\n      add\n        /* \"#utility.yul\":8715:8763   */\n      mstore\n        /* \"#utility.yul\":8780:8858   */\n      tag_271\n        /* \"#utility.yul\":8853:8857   */\n      dup2\n        /* \"#utility.yul\":8844:8850   */\n      dup8\n        /* \"#utility.yul\":8780:8858   */\n      tag_156\n      jump\t// in\n    tag_271:\n        /* \"#utility.yul\":8772:8858   */\n      swap1\n      pop\n        /* \"#utility.yul\":8905:8914   */\n      dup2\n        /* \"#utility.yul\":8899:8903   */\n      dup2\n        /* \"#utility.yul\":8895:8915   */\n      sub\n        /* \"#utility.yul\":8890:8892   */\n      0x60\n        /* \"#utility.yul\":8879:8888   */\n      dup4\n        /* \"#utility.yul\":8875:8893   */\n      add\n        /* \"#utility.yul\":8868:8916   */\n      mstore\n        /* \"#utility.yul\":8933:9011   */\n      tag_272\n        /* \"#utility.yul\":9006:9010   */\n      dup2\n        /* \"#utility.yul\":8997:9003   */\n      dup7\n        /* \"#utility.yul\":8933:9011   */\n      tag_156\n      jump\t// in\n    tag_272:\n        /* \"#utility.yul\":8925:9011   */\n      swap1\n      pop\n        /* \"#utility.yul\":9021:9094   */\n      tag_273\n        /* \"#utility.yul\":9089:9092   */\n      0x80\n        /* \"#utility.yul\":9078:9087   */\n      dup4\n        /* \"#utility.yul\":9074:9093   */\n      add\n        /* \"#utility.yul\":9065:9071   */\n      dup6\n        /* \"#utility.yul\":9021:9094   */\n      tag_157\n      jump\t// in\n    tag_273:\n        /* \"#utility.yul\":9104:9177   */\n      tag_274\n        /* \"#utility.yul\":9172:9175   */\n      0xa0\n        /* \"#utility.yul\":9161:9170   */\n      dup4\n        /* \"#utility.yul\":9157:9176   */\n      add\n        /* \"#utility.yul\":9148:9154   */\n      dup5\n        /* \"#utility.yul\":9104:9177   */\n      tag_157\n      jump\t// in\n    tag_274:\n        /* \"#utility.yul\":8136:9184   */\n      swap8\n      swap7\n      pop\n      pop\n      pop\n      pop\n      pop\n      pop\n      pop\n      jump\t// out\n        /* \"#utility.yul\":9190:9412   */\n    tag_33:\n        /* \"#utility.yul\":9283:9287   */\n      0x00\n        /* \"#utility.yul\":9321:9323   */\n      0x20\n        /* \"#utility.yul\":9310:9319   */\n      dup3\n        /* \"#utility.yul\":9306:9324   */\n      add\n        /* \"#utility.yul\":9298:9324   */\n      swap1\n      pop\n        /* \"#utility.yul\":9334:9405   */\n      tag_276\n        /* \"#utility.yul\":9402:9403   */\n      0x00\n        /* \"#utility.yul\":9391:9400   */\n      dup4\n        /* \"#utility.yul\":9387:9404   */\n      add\n        /* \"#utility.yul\":9378:9384   */\n      dup5\n        /* \"#utility.yul\":9334:9405   */\n      tag_157\n      jump\t// in\n    tag_276:\n        /* \"#utility.yul\":9190:9412   */\n      swap3\n      swap2\n      pop\n      pop\n      jump\t// out\n        /* \"#utility.yul\":9418:9535   */\n    tag_161:\n        /* \"#utility.yul\":9527:9528   */\n      0x00\n        /* \"#utility.yul\":9524:9525   */\n      dup1\n        /* \"#utility.yul\":9517:9529   */\n      revert\n        /* \"#utility.yul\":9541:9658   */\n    tag_162:\n        /* \"#utility.yul\":9650:9651   */\n      0x00\n        /* \"#utility.yul\":9647:9648   */\n      dup1\n        /* \"#utility.yul\":9640:9652   */\n      revert\n        /* \"#utility.yul\":9664:9844   */\n    tag_45:\n        /* \"#utility.yul\":9712:9789   */\n      0x4e487b7100000000000000000000000000000000000000000000000000000000\n        /* \"#utility.yul\":9709:9710   */\n      0x00\n        /* \"#utility.yul\":9702:9790   */\n      mstore\n        /* \"#utility.yul\":9809:9813   */\n      0x41\n        /* \"#utility.yul\":9806:9807   */\n      0x04\n        /* \"#utility.yul\":9799:9814   */\n      mstore\n        /* \"#utility.yul\":9833:9837   */\n      0x24\n        /* \"#utility.yul\":9830:9831   */\n      0x00\n        /* \"#utility.yul\":9823:9838   */\n      revert\n        /* \"#utility.yul\":9850:10131   */\n    tag_163:\n        /* \"#utility.yul\":9933:9960   */\n      tag_281\n        /* \"#utility.yul\":9955:9959   */\n      dup3\n        /* \"#utility.yul\":9933:9960   */\n      tag_144\n      jump\t// in\n    tag_281:\n        /* \"#utility.yul\":9925:9931   */\n      dup2\n        /* \"#utility.yul\":9921:9961   */\n      add\n        /* \"#utility.yul\":10063:10069   */\n      dup2\n        /* \"#utility.yul\":10051:10061   */\n      dup2\n        /* \"#utility.yul\":10048:10070   */\n      lt\n        /* \"#utility.yul\":10027:10045   */\n      0xffffffffffffffff\n        /* \"#utility.yul\":10015:10025   */\n      dup3\n        /* \"#utility.yul\":10012:10046   */\n      gt\n        /* \"#utility.yul\":10009:10071   */\n      or\n        /* \"#utility.yul\":10006:10094   */\n      iszero\n      tag_282\n      jumpi\n        /* \"#utility.yul\":10074:10092   */\n      tag_283\n      tag_45\n      jump\t// in\n    tag_283:\n        /* \"#utility.yul\":10006:10094   */\n    tag_282:\n        /* \"#utility.yul\":10114:10124   */\n      dup1\n        /* \"#utility.yul\":10110:10112   */\n      0x40\n        /* \"#utility.yul\":10103:10125   */\n      mstore\n        /* \"#utility.yul\":9893:10131   */\n      pop\n        /* \"#utility.yul\":9850:10131   */\n      pop\n      pop\n      jump\t// out\n        /* \"#utility.yul\":10137:10266   */\n    tag_164:\n        /* \"#utility.yul\":10171:10177   */\n      0x00\n        /* \"#utility.yul\":10198:10218   */\n      tag_285\n      tag_150\n      jump\t// in\n    tag_285:\n        /* \"#utility.yul\":10188:10218   */\n      swap1\n      pop\n        /* \"#utility.yul\":10227:10260   */\n      tag_286\n        /* \"#utility.yul\":10255:10259   */\n      dup3\n        /* \"#utility.yul\":10247:10253   */\n      dup3\n        /* \"#utility.yul\":10227:10260   */\n      tag_163\n      jump\t// in\n    tag_286:\n        /* \"#utility.yul\":10137:10266   */\n      swap2\n      swap1\n      pop\n      jump\t// out\n        /* \"#utility.yul\":10272:10580   */\n    tag_165:\n        /* \"#utility.yul\":10334:10338   */\n      0x00\n        /* \"#utility.yul\":10424:10442   */\n      0xffffffffffffffff\n        /* \"#utility.yul\":10416:10422   */\n      dup3\n        /* \"#utility.yul\":10413:10443   */\n      gt\n        /* \"#utility.yul\":10410:10466   */\n      iszero\n      tag_288\n      jumpi\n        /* \"#utility.yul\":10446:10464   */\n      tag_289\n      tag_45\n      jump\t// in\n    tag_289:\n        /* \"#utility.yul\":10410:10466   */\n    tag_288:\n        /* \"#utility.yul\":10484:10513   */\n      tag_290\n        /* \"#utility.yul\":10506:10512   */\n      dup3\n        /* \"#utility.yul\":10484:10513   */\n      tag_144\n      jump\t// in\n    tag_290:\n        /* \"#utility.yul\":10476:10513   */\n      swap1\n      pop\n        /* \"#utility.yul\":10568:10572   */\n      0x20\n        /* \"#utility.yul\":10562:10566   */\n      dup2\n        /* \"#utility.yul\":10558:10573   */\n      add\n        /* \"#utility.yul\":10550:10573   */\n      swap1\n      pop\n        /* \"#utility.yul\":10272:10580   */\n      swap2\n      swap1\n      pop\n      jump\t// out\n        /* \"#utility.yul\":10586:10734   */\n    tag_166:\n        /* \"#utility.yul\":10684:10690   */\n      dup3\n        /* \"#utility.yul\":10679:10682   */\n      dup2\n        /* \"#utility.yul\":10674:10677   */\n      dup4\n        /* \"#utility.yul\":10661:10691   */\n      calldatacopy\n        /* \"#utility.yul\":10725:10726   */\n      0x00\n        /* \"#utility.yul\":10716:10722   */\n      dup4\n        /* \"#utility.yul\":10711:10714   */\n      dup4\n        /* \"#utility.yul\":10707:10723   */\n      add\n        /* \"#utility.yul\":10700:10727   */\n      mstore\n        /* \"#utility.yul\":10586:10734   */\n      pop\n      pop\n      pop\n      jump\t// out\n        /* \"#utility.yul\":10740:11165   */\n    tag_167:\n        /* \"#utility.yul\":10818:10823   */\n      0x00\n        /* \"#utility.yul\":10843:10909   */\n      tag_293\n        /* \"#utility.yul\":10859:10908   */\n      tag_294\n        /* \"#utility.yul\":10901:10907   */\n      dup5\n        /* \"#utility.yul\":10859:10908   */\n      tag_165\n      jump\t// in\n    tag_294:\n        /* \"#utility.yul\":10843:10909   */\n      tag_164\n      jump\t// in\n    tag_293:\n        /* \"#utility.yul\":10834:10909   */\n      swap1\n      pop\n        /* \"#utility.yul\":10932:10938   */\n      dup3\n        /* \"#utility.yul\":10925:10930   */\n      dup2\n        /* \"#utility.yul\":10918:10939   */\n      mstore\n        /* \"#utility.yul\":10970:10974   */\n      0x20\n        /* \"#utility.yul\":10963:10968   */\n      dup2\n        /* \"#utility.yul\":10959:10975   */\n      add\n        /* \"#utility.yul\":11008:11011   */\n      dup5\n        /* \"#utility.yul\":10999:11005   */\n      dup5\n        /* \"#utility.yul\":10994:10997   */\n      dup5\n        /* \"#utility.yul\":10990:11006   */\n      add\n        /* \"#utility.yul\":10987:11012   */\n      gt\n        /* \"#utility.yul\":10984:11096   */\n      iszero\n      tag_295\n      jumpi\n        /* \"#utility.yul\":11015:11094   */\n      tag_296\n      tag_162\n      jump\t// in\n    tag_296:\n        /* \"#utility.yul\":10984:11096   */\n    tag_295:\n        /* \"#utility.yul\":11105:11159   */\n      tag_297\n        /* \"#utility.yul\":11152:11158   */\n      dup5\n        /* \"#utility.yul\":11147:11150   */\n      dup3\n        /* \"#utility.yul\":11142:11145   */\n      dup6\n        /* \"#utility.yul\":11105:11159   */\n      tag_166\n      jump\t// in\n    tag_297:\n        /* \"#utility.yul\":10824:11165   */\n      pop\n        /* \"#utility.yul\":10740:11165   */\n      swap4\n      swap3\n      pop\n      pop\n      pop\n      jump\t// out\n        /* \"#utility.yul\":11185:11525   */\n    tag_168:\n        /* \"#utility.yul\":11241:11246   */\n      0x00\n        /* \"#utility.yul\":11290:11293   */\n      dup3\n        /* \"#utility.yul\":11283:11287   */\n      0x1f\n        /* \"#utility.yul\":11275:11281   */\n      dup4\n        /* \"#utility.yul\":11271:11288   */\n      add\n        /* \"#utility.yul\":11267:11294   */\n      slt\n        /* \"#utility.yul\":11257:11379   */\n      tag_299\n      jumpi\n        /* \"#utility.yul\":11298:11377   */\n      tag_300\n      tag_161\n      jump\t// in\n    tag_300:\n        /* \"#utility.yul\":11257:11379   */\n    tag_299:\n        /* \"#utility.yul\":11415:11421   */\n      dup2\n        /* \"#utility.yul\":11402:11422   */\n      calldataload\n        /* \"#utility.yul\":11440:11519   */\n      tag_301\n        /* \"#utility.yul\":11515:11518   */\n      dup5\n        /* \"#utility.yul\":11507:11513   */\n      dup3\n        /* \"#utility.yul\":11500:11504   */\n      0x20\n        /* \"#utility.yul\":11492:11498   */\n      dup7\n        /* \"#utility.yul\":11488:11505   */\n      add\n        /* \"#utility.yul\":11440:11519   */\n      tag_167\n      jump\t// in\n    tag_301:\n        /* \"#utility.yul\":11431:11519   */\n      swap2\n      pop\n        /* \"#utility.yul\":11247:11525   */\n      pop\n        /* \"#utility.yul\":11185:11525   */\n      swap3\n      swap2\n      pop\n      pop\n      jump\t// out\n        /* \"#utility.yul\":11531:12690   */\n    tag_36:\n        /* \"#utility.yul\":11638:11644   */\n      0x00\n        /* \"#utility.yul\":11646:11652   */\n      dup1\n        /* \"#utility.yul\":11654:11660   */\n      0x00\n        /* \"#utility.yul\":11703:11705   */\n      0x60\n        /* \"#utility.yul\":11691:11700   */\n      dup5\n        /* \"#utility.yul\":11682:11689   */\n      dup7\n        /* \"#utility.yul\":11678:11701   */\n      sub\n        /* \"#utility.yul\":11674:11706   */\n      slt\n        /* \"#utility.yul\":11671:11790   */\n      iszero\n      tag_303\n      jumpi\n        /* \"#utility.yul\":11709:11788   */\n      tag_304\n      tag_151\n      jump\t// in\n    tag_304:\n        /* \"#utility.yul\":11671:11790   */\n    tag_303:\n        /* \"#utility.yul\":11857:11858   */\n      0x00\n        /* \"#utility.yul\":11846:11855   */\n      dup5\n        /* \"#utility.yul\":11842:11859   */\n      add\n        /* \"#utility.yul\":11829:11860   */\n      calldataload\n        /* \"#utility.yul\":11887:11905   */\n      0xffffffffffffffff\n        /* \"#utility.yul\":11879:11885   */\n      dup2\n        /* \"#utility.yul\":11876:11906   */\n      gt\n        /* \"#utility.yul\":11873:11990   */\n      iszero\n      tag_305\n      jumpi\n        /* \"#utility.yul\":11909:11988   */\n      tag_306\n      tag_152\n      jump\t// in\n    tag_306:\n        /* \"#utility.yul\":11873:11990   */\n    tag_305:\n        /* \"#utility.yul\":12014:12077   */\n      tag_307\n        /* \"#utility.yul\":12069:12076   */\n      dup7\n        /* \"#utility.yul\":12060:12066   */\n      dup3\n        /* \"#utility.yul\":12049:12058   */\n      dup8\n        /* \"#utility.yul\":12045:12067   */\n      add\n        /* \"#utility.yul\":12014:12077   */\n      tag_168\n      jump\t// in\n    tag_307:\n        /* \"#utility.yul\":12004:12077   */\n      swap4\n      pop\n        /* \"#utility.yul\":11800:12087   */\n      pop\n        /* \"#utility.yul\":12154:12156   */\n      0x20\n        /* \"#utility.yul\":12143:12152   */\n      dup5\n        /* \"#utility.yul\":12139:12157   */\n      add\n        /* \"#utility.yul\":12126:12158   */\n      calldataload\n        /* \"#utility.yul\":12185:12203   */\n      0xffffffffffffffff\n        /* \"#utility.yul\":12177:12183   */\n      dup2\n        /* \"#utility.yul\":12174:12204   */\n      gt\n        /* \"#utility.yul\":12171:12288   */\n      iszero\n      tag_308\n      jumpi\n        /* \"#utility.yul\":12207:12286   */\n      tag_309\n      tag_152\n      jump\t// in\n    tag_309:\n        /* \"#utility.yul\":12171:12288   */\n    tag_308:\n        /* \"#utility.yul\":12312:12375   */\n      tag_310\n        /* \"#utility.yul\":12367:12374   */\n      dup7\n        /* \"#utility.yul\":12358:12364   */\n      dup3\n        /* \"#utility.yul\":12347:12356   */\n      dup8\n        /* \"#utility.yul\":12343:12365   */\n      add\n        /* \"#utility.yul\":12312:12375   */\n      tag_168\n      jump\t// in\n    tag_310:\n        /* \"#utility.yul\":12302:12375   */\n      swap3\n      pop\n        /* \"#utility.yul\":12097:12385   */\n      pop\n        /* \"#utility.yul\":12452:12454   */\n      0x40\n        /* \"#utility.yul\":12441:12450   */\n      dup5\n        /* \"#utility.yul\":12437:12455   */\n      add\n        /* \"#utility.yul\":12424:12456   */\n      calldataload\n        /* \"#utility.yul\":12483:12501   */\n      0xffffffffffffffff\n        /* \"#utility.yul\":12475:12481   */\n      dup2\n        /* \"#utility.yul\":12472:12502   */\n      gt\n        /* \"#utility.yul\":12469:12586   */\n      iszero\n      tag_311\n      jumpi\n        /* \"#utility.yul\":12505:12584   */\n      tag_312\n      tag_152\n      jump\t// in\n    tag_312:\n        /* \"#utility.yul\":12469:12586   */\n    tag_311:\n        /* \"#utility.yul\":12610:12673   */\n      tag_313\n        /* \"#utility.yul\":12665:12672   */\n      dup7\n        /* \"#utility.yul\":12656:12662   */\n      dup3\n        /* \"#utility.yul\":12645:12654   */\n      dup8\n        /* \"#utility.yul\":12641:12663   */\n      add\n        /* \"#utility.yul\":12610:12673   */\n      tag_168\n      jump\t// in\n    tag_313:\n        /* \"#utility.yul\":12600:12673   */\n      swap2\n      pop\n        /* \"#utility.yul\":12395:12683   */\n      pop\n        /* \"#utility.yul\":11531:12690   */\n      swap3\n      pop\n      swap3\n      pop\n      swap3\n      jump\t// out\n        /* \"#utility.yul\":12696:12810   */\n    tag_169:\n        /* \"#utility.yul\":12763:12769   */\n      0x00\n        /* \"#utility.yul\":12797:12802   */\n      dup2\n        /* \"#utility.yul\":12791:12803   */\n      mload\n        /* \"#utility.yul\":12781:12803   */\n      swap1\n      pop\n        /* \"#utility.yul\":12696:12810   */\n      swap2\n      swap1\n      pop\n      jump\t// out\n        /* \"#utility.yul\":12816:13000   */\n    tag_170:\n        /* \"#utility.yul\":12915:12926   */\n      0x00\n        /* \"#utility.yul\":12949:12955   */\n      dup3\n        /* \"#utility.yul\":12944:12947   */\n      dup3\n        /* \"#utility.yul\":12937:12956   */\n      mstore\n        /* \"#utility.yul\":12989:12993   */\n      0x20\n        /* \"#utility.yul\":12984:12987   */\n      dup3\n        /* \"#utility.yul\":12980:12994   */\n      add\n        /* \"#utility.yul\":12965:12994   */\n      swap1\n      pop\n        /* \"#utility.yul\":12816:13000   */\n      swap3\n      swap2\n      pop\n      pop\n      jump\t// out\n        /* \"#utility.yul\":13006:13138   */\n    tag_171:\n        /* \"#utility.yul\":13073:13077   */\n      0x00\n        /* \"#utility.yul\":13096:13099   */\n      dup2\n        /* \"#utility.yul\":13088:13099   */\n      swap1\n      pop\n        /* \"#utility.yul\":13126:13130   */\n      0x20\n        /* \"#utility.yul\":13121:13124   */\n      dup3\n        /* \"#utility.yul\":13117:13131   */\n      add\n        /* \"#utility.yul\":13109:13131   */\n      swap1\n      pop\n        /* \"#utility.yul\":13006:13138   */\n      swap2\n      swap1\n      pop\n      jump\t// out\n        /* \"#utility.yul\":13144:13323   */\n    tag_172:\n        /* \"#utility.yul\":13213:13223   */\n      0x00\n        /* \"#utility.yul\":13234:13280   */\n      tag_318\n        /* \"#utility.yul\":13276:13279   */\n      dup4\n        /* \"#utility.yul\":13268:13274   */\n      dup4\n        /* \"#utility.yul\":13234:13280   */\n      tag_140\n      jump\t// in\n    tag_318:\n        /* \"#utility.yul\":13312:13316   */\n      0x20\n        /* \"#utility.yul\":13307:13310   */\n      dup4\n        /* \"#utility.yul\":13303:13317   */\n      add\n        /* \"#utility.yul\":13289:13317   */\n      swap1\n      pop\n        /* \"#utility.yul\":13144:13323   */\n      swap3\n      swap2\n      pop\n      pop\n      jump\t// out\n        /* \"#utility.yul\":13329:13442   */\n    tag_173:\n        /* \"#utility.yul\":13399:13403   */\n      0x00\n        /* \"#utility.yul\":13431:13435   */\n      0x20\n        /* \"#utility.yul\":13426:13429   */\n      dup3\n        /* \"#utility.yul\":13422:13436   */\n      add\n        /* \"#utility.yul\":13414:13436   */\n      swap1\n      pop\n        /* \"#utility.yul\":13329:13442   */\n      swap2\n      swap1\n      pop\n      jump\t// out\n        /* \"#utility.yul\":13478:14210   */\n    tag_174:\n        /* \"#utility.yul\":13597:13600   */\n      0x00\n        /* \"#utility.yul\":13626:13680   */\n      tag_321\n        /* \"#utility.yul\":13674:13679   */\n      dup3\n        /* \"#utility.yul\":13626:13680   */\n      tag_169\n      jump\t// in\n    tag_321:\n        /* \"#utility.yul\":13696:13782   */\n      tag_322\n        /* \"#utility.yul\":13775:13781   */\n      dup2\n        /* \"#utility.yul\":13770:13773   */\n      dup6\n        /* \"#utility.yul\":13696:13782   */\n      tag_170\n      jump\t// in\n    tag_322:\n        /* \"#utility.yul\":13689:13782   */\n      swap4\n      pop\n        /* \"#utility.yul\":13806:13862   */\n      tag_323\n        /* \"#utility.yul\":13856:13861   */\n      dup4\n        /* \"#utility.yul\":13806:13862   */\n      tag_171\n      jump\t// in\n    tag_323:\n        /* \"#utility.yul\":13885:13892   */\n      dup1\n        /* \"#utility.yul\":13916:13917   */\n      0x00\n        /* \"#utility.yul\":13901:14185   */\n    tag_324:\n        /* \"#utility.yul\":13926:13932   */\n      dup4\n        /* \"#utility.yul\":13923:13924   */\n      dup2\n        /* \"#utility.yul\":13920:13933   */\n      lt\n        /* \"#utility.yul\":13901:14185   */\n      iszero\n      tag_326\n      jumpi\n        /* \"#utility.yul\":14002:14008   */\n      dup2\n        /* \"#utility.yul\":13996:14009   */\n      mload\n        /* \"#utility.yul\":14029:14092   */\n      tag_327\n        /* \"#utility.yul\":14088:14091   */\n      dup9\n        /* \"#utility.yul\":14073:14086   */\n      dup3\n        /* \"#utility.yul\":14029:14092   */\n      tag_172\n      jump\t// in\n    tag_327:\n        /* \"#utility.yul\":14022:14092   */\n      swap8\n      pop\n        /* \"#utility.yul\":14115:14175   */\n      tag_328\n        /* \"#utility.yul\":14168:14174   */\n      dup4\n        /* \"#utility.yul\":14115:14175   */\n      tag_173\n      jump\t// in\n    tag_328:\n        /* \"#utility.yul\":14105:14175   */\n      swap3\n      pop\n        /* \"#utility.yul\":13961:14185   */\n      pop\n        /* \"#utility.yul\":13948:13949   */\n      0x01\n        /* \"#utility.yul\":13945:13946   */\n      dup2\n        /* \"#utility.yul\":13941:13950   */\n      add\n        /* \"#utility.yul\":13936:13950   */\n      swap1\n      pop\n        /* \"#utility.yul\":13901:14185   */\n      jump(tag_324)\n    tag_326:\n        /* \"#utility.yul\":13905:13919   */\n      pop\n        /* \"#utility.yul\":14201:14204   */\n      dup6\n        /* \"#utility.yul\":14194:14204   */\n      swap4\n      pop\n        /* \"#utility.yul\":13602:14210   */\n      pop\n      pop\n      pop\n        /* \"#utility.yul\":13478:14210   */\n      swap3\n      swap2\n      pop\n      pop\n      jump\t// out\n        /* \"#utility.yul\":14216:14589   */\n    tag_41:\n        /* \"#utility.yul\":14359:14363   */\n      0x00\n        /* \"#utility.yul\":14397:14399   */\n      0x20\n        /* \"#utility.yul\":14386:14395   */\n      dup3\n        /* \"#utility.yul\":14382:14400   */\n      add\n        /* \"#utility.yul\":14374:14400   */\n      swap1\n      pop\n        /* \"#utility.yul\":14446:14455   */\n      dup2\n        /* \"#utility.yul\":14440:14444   */\n      dup2\n        /* \"#utility.yul\":14436:14456   */\n      sub\n        /* \"#utility.yul\":14432:14433   */\n      0x00\n        /* \"#utility.yul\":14421:14430   */\n      dup4\n        /* \"#utility.yul\":14417:14434   */\n      add\n        /* \"#utility.yul\":14410:14457   */\n      mstore\n        /* \"#utility.yul\":14474:14582   */\n      tag_330\n        /* \"#utility.yul\":14577:14581   */\n      dup2\n        /* \"#utility.yul\":14568:14574   */\n      dup5\n        /* \"#utility.yul\":14474:14582   */\n      tag_174\n      jump\t// in\n    tag_330:\n        /* \"#utility.yul\":14466:14582   */\n      swap1\n      pop\n        /* \"#utility.yul\":14216:14589   */\n      swap3\n      swap2\n      pop\n      pop\n      jump\t// out\n        /* \"#utility.yul\":14595:14775   */\n    tag_175:\n        /* \"#utility.yul\":14643:14720   */\n      0x4e487b7100000000000000000000000000000000000000000000000000000000\n        /* \"#utility.yul\":14640:14641   */\n      0x00\n        /* \"#utility.yul\":14633:14721   */\n      mstore\n        /* \"#utility.yul\":14740:14744   */\n      0x11\n        /* \"#utility.yul\":14737:14738   */\n      0x04\n        /* \"#utility.yul\":14730:14745   */\n      mstore\n        /* \"#utility.yul\":14764:14768   */\n      0x24\n        /* \"#utility.yul\":14761:14762   */\n      0x00\n        /* \"#utility.yul\":14754:14769   */\n      revert\n        /* \"#utility.yul\":14781:14972   */\n    tag_54:\n        /* \"#utility.yul\":14821:14824   */\n      0x00\n        /* \"#utility.yul\":14840:14860   */\n      tag_333\n        /* \"#utility.yul\":14858:14859   */\n      dup3\n        /* \"#utility.yul\":14840:14860   */\n      tag_139\n      jump\t// in\n    tag_333:\n        /* \"#utility.yul\":14835:14860   */\n      swap2\n      pop\n        /* \"#utility.yul\":14874:14894   */\n      tag_334\n        /* \"#utility.yul\":14892:14893   */\n      dup4\n        /* \"#utility.yul\":14874:14894   */\n      tag_139\n      jump\t// in\n    tag_334:\n        /* \"#utility.yul\":14869:14894   */\n      swap3\n      pop\n        /* \"#utility.yul\":14917:14918   */\n      dup3\n        /* \"#utility.yul\":14914:14915   */\n      dup3\n        /* \"#utility.yul\":14910:14919   */\n      add\n        /* \"#utility.yul\":14903:14919   */\n      swap1\n      pop\n        /* \"#utility.yul\":14938:14941   */\n      dup1\n        /* \"#utility.yul\":14935:14936   */\n      dup3\n        /* \"#utility.yul\":14932:14942   */\n      gt\n        /* \"#utility.yul\":14929:14965   */\n      iszero\n      tag_335\n      jumpi\n        /* \"#utility.yul\":14945:14963   */\n      tag_336\n      tag_175\n      jump\t// in\n    tag_336:\n        /* \"#utility.yul\":14929:14965   */\n    tag_335:\n        /* \"#utility.yul\":14781:14972   */\n      swap3\n      swap2\n      pop\n      pop\n      jump\t// out\n        /* \"#utility.yul\":14978:15158   */\n    tag_176:\n        /* \"#utility.yul\":15026:15103   */\n      0x4e487b7100000000000000000000000000000000000000000000000000000000\n        /* \"#utility.yul\":15023:15024   */\n      0x00\n        /* \"#utility.yul\":15016:15104   */\n      mstore\n        /* \"#utility.yul\":15123:15127   */\n      0x22\n        /* \"#utility.yul\":15120:15121   */\n      0x04\n        /* \"#utility.yul\":15113:15128   */\n      mstore\n        /* \"#utility.yul\":15147:15151   */\n      0x24\n        /* \"#utility.yul\":15144:15145   */\n      0x00\n        /* \"#utility.yul\":15137:15152   */\n      revert\n        /* \"#utility.yul\":15164:15484   */\n    tag_56:\n        /* \"#utility.yul\":15208:15214   */\n      0x00\n        /* \"#utility.yul\":15245:15246   */\n      0x02\n        /* \"#utility.yul\":15239:15243   */\n      dup3\n        /* \"#utility.yul\":15235:15247   */\n      div\n        /* \"#utility.yul\":15225:15247   */\n      swap1\n      pop\n        /* \"#utility.yul\":15292:15293   */\n      0x01\n        /* \"#utility.yul\":15286:15290   */\n      dup3\n        /* \"#utility.yul\":15282:15294   */\n      and\n        /* \"#utility.yul\":15313:15331   */\n      dup1\n        /* \"#utility.yul\":15303:15384   */\n      tag_339\n      jumpi\n        /* \"#utility.yul\":15369:15373   */\n      0x7f\n        /* \"#utility.yul\":15361:15367   */\n      dup3\n        /* \"#utility.yul\":15357:15374   */\n      and\n        /* \"#utility.yul\":15347:15374   */\n      swap2\n      pop\n        /* \"#utility.yul\":15303:15384   */\n    tag_339:\n        /* \"#utility.yul\":15431:15433   */\n      0x20\n        /* \"#utility.yul\":15423:15429   */\n      dup3\n        /* \"#utility.yul\":15420:15434   */\n      lt\n        /* \"#utility.yul\":15400:15418   */\n      dup2\n        /* \"#utility.yul\":15397:15435   */\n      sub\n        /* \"#utility.yul\":15394:15478   */\n      tag_340\n      jumpi\n        /* \"#utility.yul\":15450:15468   */\n      tag_341\n      tag_176\n      jump\t// in\n    tag_341:\n        /* \"#utility.yul\":15394:15478   */\n    tag_340:\n        /* \"#utility.yul\":15215:15484   */\n      pop\n        /* \"#utility.yul\":15164:15484   */\n      swap2\n      swap1\n      pop\n      jump\t// out\n        /* \"#utility.yul\":15490:15670   */\n    tag_73:\n        /* \"#utility.yul\":15538:15615   */\n      0x4e487b7100000000000000000000000000000000000000000000000000000000\n        /* \"#utility.yul\":15535:15536   */\n      0x00\n        /* \"#utility.yul\":15528:15616   */\n      mstore\n        /* \"#utility.yul\":15635:15639   */\n      0x32\n        /* \"#utility.yul\":15632:15633   */\n      0x04\n        /* \"#utility.yul\":15625:15640   */\n      mstore\n        /* \"#utility.yul\":15659:15663   */\n      0x24\n        /* \"#utility.yul\":15656:15657   */\n      0x00\n        /* \"#utility.yul\":15649:15664   */\n      revert\n        /* \"#utility.yul\":15676:15846   */\n    tag_177:\n        /* \"#utility.yul\":15816:15838   */\n      0x50616369656e74756c206e752065786973746121000000000000000000000000\n        /* \"#utility.yul\":15812:15813   */\n      0x00\n        /* \"#utility.yul\":15804:15810   */\n      dup3\n        /* \"#utility.yul\":15800:15814   */\n      add\n        /* \"#utility.yul\":15793:15839   */\n      mstore\n        /* \"#utility.yul\":15676:15846   */\n      pop\n      jump\t// out\n        /* \"#utility.yul\":15852:16218   */\n    tag_178:\n        /* \"#utility.yul\":15994:15997   */\n      0x00\n        /* \"#utility.yul\":16015:16082   */\n      tag_345\n        /* \"#utility.yul\":16079:16081   */\n      0x14\n        /* \"#utility.yul\":16074:16077   */\n      dup4\n        /* \"#utility.yul\":16015:16082   */\n      tag_155\n      jump\t// in\n    tag_345:\n        /* \"#utility.yul\":16008:16082   */\n      swap2\n      pop\n        /* \"#utility.yul\":16091:16184   */\n      tag_346\n        /* \"#utility.yul\":16180:16183   */\n      dup3\n        /* \"#utility.yul\":16091:16184   */\n      tag_177\n      jump\t// in\n    tag_346:\n        /* \"#utility.yul\":16209:16211   */\n      0x20\n        /* \"#utility.yul\":16204:16207   */\n      dup3\n        /* \"#utility.yul\":16200:16212   */\n      add\n        /* \"#utility.yul\":16193:16212   */\n      swap1\n      pop\n        /* \"#utility.yul\":15852:16218   */\n      swap2\n      swap1\n      pop\n      jump\t// out\n        /* \"#utility.yul\":16224:16643   */\n    tag_78:\n        /* \"#utility.yul\":16390:16394   */\n      0x00\n        /* \"#utility.yul\":16428:16430   */\n      0x20\n        /* \"#utility.yul\":16417:16426   */\n      dup3\n        /* \"#utility.yul\":16413:16431   */\n      add\n        /* \"#utility.yul\":16405:16431   */\n      swap1\n      pop\n        /* \"#utility.yul\":16477:16486   */\n      dup2\n        /* \"#utility.yul\":16471:16475   */\n      dup2\n        /* \"#utility.yul\":16467:16487   */\n      sub\n        /* \"#utility.yul\":16463:16464   */\n      0x00\n        /* \"#utility.yul\":16452:16461   */\n      dup4\n        /* \"#utility.yul\":16448:16465   */\n      add\n        /* \"#utility.yul\":16441:16488   */\n      mstore\n        /* \"#utility.yul\":16505:16636   */\n      tag_348\n        /* \"#utility.yul\":16631:16635   */\n      dup2\n        /* \"#utility.yul\":16505:16636   */\n      tag_178\n      jump\t// in\n    tag_348:\n        /* \"#utility.yul\":16497:16636   */\n      swap1\n      pop\n        /* \"#utility.yul\":16224:16643   */\n      swap2\n      swap1\n      pop\n      jump\t// out\n        /* \"#utility.yul\":16649:16882   */\n    tag_111:\n        /* \"#utility.yul\":16688:16691   */\n      0x00\n        /* \"#utility.yul\":16711:16735   */\n      tag_350\n        /* \"#utility.yul\":16729:16734   */\n      dup3\n        /* \"#utility.yul\":16711:16735   */\n      tag_139\n      jump\t// in\n    tag_350:\n        /* \"#utility.yul\":16702:16735   */\n      swap2\n      pop\n        /* \"#utility.yul\":16757:16823   */\n      0xffffffffffffffffffffffffffffffffffffffffffffffffffffffffffffffff\n        /* \"#utility.yul\":16750:16755   */\n      dup3\n        /* \"#utility.yul\":16747:16824   */\n      sub\n        /* \"#utility.yul\":16744:16847   */\n      tag_351\n      jumpi\n        /* \"#utility.yul\":16827:16845   */\n      tag_352\n      tag_175\n      jump\t// in\n    tag_352:\n        /* \"#utility.yul\":16744:16847   */\n    tag_351:\n        /* \"#utility.yul\":16874:16875   */\n      0x01\n        /* \"#utility.yul\":16867:16872   */\n      dup3\n        /* \"#utility.yul\":16863:16876   */\n      add\n        /* \"#utility.yul\":16856:16876   */\n      swap1\n      pop\n        /* \"#utility.yul\":16649:16882   */\n      swap2\n      swap1\n      pop\n      jump\t// out\n        /* \"#utility.yul\":16888:17029   */\n    tag_179:\n        /* \"#utility.yul\":16937:16941   */\n      0x00\n        /* \"#utility.yul\":16960:16963   */\n      dup2\n        /* \"#utility.yul\":16952:16963   */\n      swap1\n      pop\n        /* \"#utility.yul\":16983:16986   */\n      dup2\n        /* \"#utility.yul\":16980:16981   */\n      0x00\n        /* \"#utility.yul\":16973:16987   */\n      mstore\n        /* \"#utility.yul\":17017:17021   */\n      0x20\n        /* \"#utility.yul\":17014:17015   */\n      0x00\n        /* \"#utility.yul\":17004:17022   */\n      keccak256\n        /* \"#utility.yul\":16996:17022   */\n      swap1\n      pop\n        /* \"#utility.yul\":16888:17029   */\n      swap2\n      swap1\n      pop\n      jump\t// out\n        /* \"#utility.yul\":17035:17128   */\n    tag_180:\n        /* \"#utility.yul\":17072:17078   */\n      0x00\n        /* \"#utility.yul\":17119:17121   */\n      0x20\n        /* \"#utility.yul\":17114:17116   */\n      0x1f\n        /* \"#utility.yul\":17107:17112   */\n      dup4\n        /* \"#utility.yul\":17103:17117   */\n      add\n        /* \"#utility.yul\":17099:17122   */\n      div\n        /* \"#utility.yul\":17089:17122   */\n      swap1\n      pop\n        /* \"#utility.yul\":17035:17128   */\n      swap2\n      swap1\n      pop\n      jump\t// out\n        /* \"#utility.yul\":17134:17241   */\n    tag_181:\n        /* \"#utility.yul\":17178:17186   */\n      0x00\n        /* \"#utility.yul\":17228:17233   */\n      dup3\n        /* \"#utility.yul\":17222:17226   */\n      dup3\n        /* \"#utility.yul\":17218:17234   */\n      shl\n        /* \"#utility.yul\":17197:17234   */\n      swap1\n      pop\n        /* \"#utility.yul\":17134:17241   */\n      swap3\n      swap2\n      pop\n      pop\n      jump\t// out\n        /* \"#utility.yul\":17247:17640   */\n    tag_182:\n        /* \"#utility.yul\":17316:17322   */\n      0x00\n        /* \"#utility.yul\":17366:17367   */\n      0x08\n        /* \"#utility.yul\":17354:17364   */\n      dup4\n        /* \"#utility.yul\":17350:17368   */\n      mul\n        /* \"#utility.yul\":17389:17486   */\n      tag_357\n        /* \"#utility.yul\":17419:17485   */\n      0xffffffffffffffffffffffffffffffffffffffffffffffffffffffffffffffff\n        /* \"#utility.yul\":17408:17417   */\n      dup3\n        /* \"#utility.yul\":17389:17486   */\n      tag_181\n      jump\t// in\n    tag_357:\n        /* \"#utility.yul\":17507:17546   */\n      tag_358\n        /* \"#utility.yul\":17537:17545   */\n      dup7\n        /* \"#utility.yul\":17526:17535   */\n      dup4\n        /* \"#utility.yul\":17507:17546   */\n      tag_181\n      jump\t// in\n    tag_358:\n        /* \"#utility.yul\":17495:17546   */\n      swap6\n      pop\n        /* \"#utility.yul\":17579:17583   */\n      dup1\n        /* \"#utility.yul\":17575:17584   */\n      not\n        /* \"#utility.yul\":17568:17573   */\n      dup5\n        /* \"#utility.yul\":17564:17585   */\n      and\n        /* \"#utility.yul\":17555:17585   */\n      swap4\n      pop\n        /* \"#utility.yul\":17628:17632   */\n      dup1\n        /* \"#utility.yul\":17618:17626   */\n      dup7\n        /* \"#utility.yul\":17614:17633   */\n      and\n        /* \"#utility.yul\":17607:17612   */\n      dup5\n        /* \"#utility.yul\":17604:17634   */\n      or\n        /* \"#utility.yul\":17594:17634   */\n      swap3\n      pop\n        /* \"#utility.yul\":17323:17640   */\n      pop\n      pop\n        /* \"#utility.yul\":17247:17640   */\n      swap4\n      swap3\n      pop\n      pop\n      pop\n      jump\t// out\n        /* \"#utility.yul\":17646:17706   */\n    tag_183:\n        /* \"#utility.yul\":17674:17677   */\n      0x00\n        /* \"#utility.yul\":17695:17700   */\n      dup2\n        /* \"#utility.yul\":17688:17700   */\n      swap1\n      pop\n        /* \"#utility.yul\":17646:17706   */\n      swap2\n      swap1\n      pop\n      jump\t// out\n        /* \"#utility.yul\":17712:17854   */\n    tag_184:\n        /* \"#utility.yul\":17762:17771   */\n      0x00\n        /* \"#utility.yul\":17795:17848   */\n      tag_361\n        /* \"#utility.yul\":17813:17847   */\n      tag_362\n        /* \"#utility.yul\":17822:17846   */\n      tag_363\n        /* \"#utility.yul\":17840:17845   */\n      dup5\n        /* \"#utility.yul\":17822:17846   */\n      tag_139\n      jump\t// in\n    tag_363:\n        /* \"#utility.yul\":17813:17847   */\n      tag_183\n      jump\t// in\n    tag_362:\n        /* \"#utility.yul\":17795:17848   */\n      tag_139\n      jump\t// in\n    tag_361:\n        /* \"#utility.yul\":17782:17848   */\n      swap1\n      pop\n        /* \"#utility.yul\":17712:17854   */\n      swap2\n      swap1\n      pop\n      jump\t// out\n        /* \"#utility.yul\":17860:17935   */\n    tag_185:\n        /* \"#utility.yul\":17903:17906   */\n      0x00\n        /* \"#utility.yul\":17924:17929   */\n      dup2\n        /* \"#utility.yul\":17917:17929   */\n      swap1\n      pop\n        /* \"#utility.yul\":17860:17935   */\n      swap2\n      swap1\n      pop\n      jump\t// out\n        /* \"#utility.yul\":17941:18210   */\n    tag_186:\n        /* \"#utility.yul\":18051:18090   */\n      tag_366\n        /* \"#utility.yul\":18082:18089   */\n      dup4\n        /* \"#utility.yul\":18051:18090   */\n      tag_184\n      jump\t// in\n    tag_366:\n        /* \"#utility.yul\":18112:18203   */\n      tag_367\n        /* \"#utility.yul\":18161:18202   */\n      tag_368\n        /* \"#utility.yul\":18185:18201   */\n      dup3\n        /* \"#utility.yul\":18161:18202   */\n      tag_185\n      jump\t// in\n    tag_368:\n        /* \"#utility.yul\":18153:18159   */\n      dup5\n        /* \"#utility.yul\":18146:18150   */\n      dup5\n        /* \"#utility.yul\":18140:18151   */\n      sload\n        /* \"#utility.yul\":18112:18203   */\n      tag_182\n      jump\t// in\n    tag_367:\n        /* \"#utility.yul\":18106:18110   */\n      dup3\n        /* \"#utility.yul\":18099:18204   */\n      sstore\n        /* \"#utility.yul\":18017:18210   */\n      pop\n        /* \"#utility.yul\":17941:18210   */\n      pop\n      pop\n      pop\n      jump\t// out\n        /* \"#utility.yul\":18216:18289   */\n    tag_187:\n        /* \"#utility.yul\":18261:18264   */\n      0x00\n        /* \"#utility.yul\":18216:18289   */\n      swap1\n      jump\t// out\n        /* \"#utility.yul\":18295:18484   */\n    tag_188:\n        /* \"#utility.yul\":18372:18404   */\n      tag_371\n      tag_187\n      jump\t// in\n    tag_371:\n        /* \"#utility.yul\":18413:18478   */\n      tag_372\n        /* \"#utility.yul\":18471:18477   */\n      dup2\n        /* \"#utility.yul\":18463:18469   */\n      dup5\n        /* \"#utility.yul\":18457:18461   */\n      dup5\n        /* \"#utility.yul\":18413:18478   */\n      tag_186\n      jump\t// in\n    tag_372:\n        /* \"#utility.yul\":18348:18484   */\n      pop\n        /* \"#utility.yul\":18295:18484   */\n      pop\n      pop\n      jump\t// out\n        /* \"#utility.yul\":18490:18676   */\n    tag_189:\n        /* \"#utility.yul\":18550:18670   */\n    tag_374:\n        /* \"#utility.yul\":18567:18570   */\n      dup2\n        /* \"#utility.yul\":18560:18565   */\n      dup2\n        /* \"#utility.yul\":18557:18571   */\n      lt\n        /* \"#utility.yul\":18550:18670   */\n      iszero\n      tag_376\n      jumpi\n        /* \"#utility.yul\":18621:18660   */\n      tag_377\n        /* \"#utility.yul\":18658:18659   */\n      0x00\n        /* \"#utility.yul\":18651:18656   */\n      dup3\n        /* \"#utility.yul\":18621:18660   */\n      tag_188\n      jump\t// in\n    tag_377:\n        /* \"#utility.yul\":18594:18595   */\n      0x01\n        /* \"#utility.yul\":18587:18592   */\n      dup2\n        /* \"#utility.yul\":18583:18596   */\n      add\n        /* \"#utility.yul\":18574:18596   */\n      swap1\n      pop\n        /* \"#utility.yul\":18550:18670   */\n      jump(tag_374)\n    tag_376:\n        /* \"#utility.yul\":18490:18676   */\n      pop\n      pop\n      jump\t// out\n        /* \"#utility.yul\":18682:19225   */\n    tag_190:\n        /* \"#utility.yul\":18783:18785   */\n      0x1f\n        /* \"#utility.yul\":18778:18781   */\n      dup3\n        /* \"#utility.yul\":18775:18786   */\n      gt\n        /* \"#utility.yul\":18772:19218   */\n      iszero\n      tag_379\n      jumpi\n        /* \"#utility.yul\":18817:18855   */\n      tag_380\n        /* \"#utility.yul\":18849:18854   */\n      dup2\n        /* \"#utility.yul\":18817:18855   */\n      tag_179\n      jump\t// in\n    tag_380:\n        /* \"#utility.yul\":18901:18930   */\n      tag_381\n        /* \"#utility.yul\":18919:18929   */\n      dup5\n        /* \"#utility.yul\":18901:18930   */\n      tag_180\n      jump\t// in\n    tag_381:\n        /* \"#utility.yul\":18891:18899   */\n      dup2\n        /* \"#utility.yul\":18887:18931   */\n      add\n        /* \"#utility.yul\":19084:19086   */\n      0x20\n        /* \"#utility.yul\":19072:19082   */\n      dup6\n        /* \"#utility.yul\":19069:19087   */\n      lt\n        /* \"#utility.yul\":19066:19115   */\n      iszero\n      tag_382\n      jumpi\n        /* \"#utility.yul\":19105:19113   */\n      dup2\n        /* \"#utility.yul\":19090:19113   */\n      swap1\n      pop\n        /* \"#utility.yul\":19066:19115   */\n    tag_382:\n        /* \"#utility.yul\":19128:19208   */\n      tag_383\n        /* \"#utility.yul\":19184:19206   */\n      tag_384\n        /* \"#utility.yul\":19202:19205   */\n      dup6\n        /* \"#utility.yul\":19184:19206   */\n      tag_180\n      jump\t// in\n    tag_384:\n        /* \"#utility.yul\":19174:19182   */\n      dup4\n        /* \"#utility.yul\":19170:19207   */\n      add\n        /* \"#utility.yul\":19157:19168   */\n      dup3\n        /* \"#utility.yul\":19128:19208   */\n      tag_189\n      jump\t// in\n    tag_383:\n        /* \"#utility.yul\":18787:19218   */\n      pop\n      pop\n        /* \"#utility.yul\":18772:19218   */\n    tag_379:\n        /* \"#utility.yul\":18682:19225   */\n      pop\n      pop\n      pop\n      jump\t// out\n        /* \"#utility.yul\":19231:19348   */\n    tag_191:\n        /* \"#utility.yul\":19285:19293   */\n      0x00\n        /* \"#utility.yul\":19335:19340   */\n      dup3\n        /* \"#utility.yul\":19329:19333   */\n      dup3\n        /* \"#utility.yul\":19325:19341   */\n      shr\n        /* \"#utility.yul\":19304:19341   */\n      swap1\n      pop\n        /* \"#utility.yul\":19231:19348   */\n      swap3\n      swap2\n      pop\n      pop\n      jump\t// out\n        /* \"#utility.yul\":19354:19523   */\n    tag_192:\n        /* \"#utility.yul\":19398:19404   */\n      0x00\n        /* \"#utility.yul\":19431:19482   */\n      tag_387\n        /* \"#utility.yul\":19479:19480   */\n      0x00\n        /* \"#utility.yul\":19475:19481   */\n      not\n        /* \"#utility.yul\":19467:19472   */\n      dup5\n        /* \"#utility.yul\":19464:19465   */\n      0x08\n        /* \"#utility.yul\":19460:19473   */\n      mul\n        /* \"#utility.yul\":19431:19482   */\n      tag_191\n      jump\t// in\n    tag_387:\n        /* \"#utility.yul\":19427:19483   */\n      not\n        /* \"#utility.yul\":19512:19516   */\n      dup1\n        /* \"#utility.yul\":19506:19510   */\n      dup4\n        /* \"#utility.yul\":19502:19517   */\n      and\n        /* \"#utility.yul\":19492:19517   */\n      swap2\n      pop\n        /* \"#utility.yul\":19405:19523   */\n      pop\n        /* \"#utility.yul\":19354:19523   */\n      swap3\n      swap2\n      pop\n      pop\n      jump\t// out\n        /* \"#utility.yul\":19528:19823   */\n    tag_193:\n        /* \"#utility.yul\":19604:19608   */\n      0x00\n        /* \"#utility.yul\":19750:19779   */\n      tag_389\n        /* \"#utility.yul\":19775:19778   */\n      dup4\n        /* \"#utility.yul\":19769:19773   */\n      dup4\n        /* \"#utility.yul\":19750:19779   */\n      tag_192\n      jump\t// in\n    tag_389:\n        /* \"#utility.yul\":19742:19779   */\n      swap2\n      pop\n        /* \"#utility.yul\":19812:19815   */\n      dup3\n        /* \"#utility.yul\":19809:19810   */\n      0x02\n        /* \"#utility.yul\":19805:19816   */\n      mul\n        /* \"#utility.yul\":19799:19803   */\n      dup3\n        /* \"#utility.yul\":19796:19817   */\n      or\n        /* \"#utility.yul\":19788:19817   */\n      swap1\n      pop\n        /* \"#utility.yul\":19528:19823   */\n      swap3\n      swap2\n      pop\n      pop\n      jump\t// out\n        /* \"#utility.yul\":19828:21223   */\n    tag_115:\n        /* \"#utility.yul\":19945:19982   */\n      tag_391\n        /* \"#utility.yul\":19978:19981   */\n      dup3\n        /* \"#utility.yul\":19945:19982   */\n      tag_141\n      jump\t// in\n    tag_391:\n        /* \"#utility.yul\":20047:20065   */\n      0xffffffffffffffff\n        /* \"#utility.yul\":20039:20045   */\n      dup2\n        /* \"#utility.yul\":20036:20066   */\n      gt\n        /* \"#utility.yul\":20033:20089   */\n      iszero\n      tag_392\n      jumpi\n        /* \"#utility.yul\":20069:20087   */\n      tag_393\n      tag_45\n      jump\t// in\n    tag_393:\n        /* \"#utility.yul\":20033:20089   */\n    tag_392:\n        /* \"#utility.yul\":20113:20151   */\n      tag_394\n        /* \"#utility.yul\":20145:20149   */\n      dup3\n        /* \"#utility.yul\":20139:20150   */\n      sload\n        /* \"#utility.yul\":20113:20151   */\n      tag_56\n      jump\t// in\n    tag_394:\n        /* \"#utility.yul\":20198:20265   */\n      tag_395\n        /* \"#utility.yul\":20258:20264   */\n      dup3\n        /* \"#utility.yul\":20250:20256   */\n      dup3\n        /* \"#utility.yul\":20244:20248   */\n      dup6\n        /* \"#utility.yul\":20198:20265   */\n      tag_190\n      jump\t// in\n    tag_395:\n        /* \"#utility.yul\":20292:20293   */\n      0x00\n        /* \"#utility.yul\":20316:20320   */\n      0x20\n        /* \"#utility.yul\":20303:20320   */\n      swap1\n      pop\n        /* \"#utility.yul\":20348:20350   */\n      0x1f\n        /* \"#utility.yul\":20340:20346   */\n      dup4\n        /* \"#utility.yul\":20337:20351   */\n      gt\n        /* \"#utility.yul\":20365:20366   */\n      0x01\n        /* \"#utility.yul\":20360:20978   */\n      dup2\n      eq\n      tag_397\n      jumpi\n        /* \"#utility.yul\":21022:21023   */\n      0x00\n        /* \"#utility.yul\":21039:21045   */\n      dup5\n        /* \"#utility.yul\":21036:21113   */\n      iszero\n      tag_398\n      jumpi\n        /* \"#utility.yul\":21088:21097   */\n      dup3\n        /* \"#utility.yul\":21083:21086   */\n      dup8\n        /* \"#utility.yul\":21079:21098   */\n      add\n        /* \"#utility.yul\":21073:21099   */\n      mload\n        /* \"#utility.yul\":21064:21099   */\n      swap1\n      pop\n        /* \"#utility.yul\":21036:21113   */\n    tag_398:\n        /* \"#utility.yul\":21139:21206   */\n      tag_399\n        /* \"#utility.yul\":21199:21205   */\n      dup6\n        /* \"#utility.yul\":21192:21197   */\n      dup3\n        /* \"#utility.yul\":21139:21206   */\n      tag_193\n      jump\t// in\n    tag_399:\n        /* \"#utility.yul\":21133:21137   */\n      dup7\n        /* \"#utility.yul\":21126:21207   */\n      sstore\n        /* \"#utility.yul\":20995:21217   */\n      pop\n        /* \"#utility.yul\":20330:21217   */\n      jump(tag_396)\n        /* \"#utility.yul\":20360:20978   */\n    tag_397:\n        /* \"#utility.yul\":20412:20416   */\n      0x1f\n        /* \"#utility.yul\":20408:20417   */\n      not\n        /* \"#utility.yul\":20400:20406   */\n      dup5\n        /* \"#utility.yul\":20396:20418   */\n      and\n        /* \"#utility.yul\":20446:20483   */\n      tag_400\n        /* \"#utility.yul\":20478:20482   */\n      dup7\n        /* \"#utility.yul\":20446:20483   */\n      tag_179\n      jump\t// in\n    tag_400:\n        /* \"#utility.yul\":20505:20506   */\n      0x00\n        /* \"#utility.yul\":20519:20727   */\n    tag_401:\n        /* \"#utility.yul\":20533:20540   */\n      dup3\n        /* \"#utility.yul\":20530:20531   */\n      dup2\n        /* \"#utility.yul\":20527:20541   */\n      lt\n        /* \"#utility.yul\":20519:20727   */\n      iszero\n      tag_403\n      jumpi\n        /* \"#utility.yul\":20612:20621   */\n      dup5\n        /* \"#utility.yul\":20607:20610   */\n      dup10\n        /* \"#utility.yul\":20603:20622   */\n      add\n        /* \"#utility.yul\":20597:20623   */\n      mload\n        /* \"#utility.yul\":20589:20595   */\n      dup3\n        /* \"#utility.yul\":20582:20624   */\n      sstore\n        /* \"#utility.yul\":20663:20664   */\n      0x01\n        /* \"#utility.yul\":20655:20661   */\n      dup3\n        /* \"#utility.yul\":20651:20665   */\n      add\n        /* \"#utility.yul\":20641:20665   */\n      swap2\n      pop\n        /* \"#utility.yul\":20710:20712   */\n      0x20\n        /* \"#utility.yul\":20699:20708   */\n      dup6\n        /* \"#utility.yul\":20695:20713   */\n      add\n        /* \"#utility.yul\":20682:20713   */\n      swap5\n      pop\n        /* \"#utility.yul\":20556:20560   */\n      0x20\n        /* \"#utility.yul\":20553:20554   */\n      dup2\n        /* \"#utility.yul\":20549:20561   */\n      add\n        /* \"#utility.yul\":20544:20561   */\n      swap1\n      pop\n        /* \"#utility.yul\":20519:20727   */\n      jump(tag_401)\n    tag_403:\n        /* \"#utility.yul\":20755:20761   */\n      dup7\n        /* \"#utility.yul\":20746:20753   */\n      dup4\n        /* \"#utility.yul\":20743:20762   */\n      lt\n        /* \"#utility.yul\":20740:20919   */\n      iszero\n      tag_404\n      jumpi\n        /* \"#utility.yul\":20813:20822   */\n      dup5\n        /* \"#utility.yul\":20808:20811   */\n      dup10\n        /* \"#utility.yul\":20804:20823   */\n      add\n        /* \"#utility.yul\":20798:20824   */\n      mload\n        /* \"#utility.yul\":20856:20904   */\n      tag_405\n        /* \"#utility.yul\":20898:20902   */\n      0x1f\n        /* \"#utility.yul\":20890:20896   */\n      dup10\n        /* \"#utility.yul\":20886:20903   */\n      and\n        /* \"#utility.yul\":20875:20884   */\n      dup3\n        /* \"#utility.yul\":20856:20904   */\n      tag_192\n      jump\t// in\n    tag_405:\n        /* \"#utility.yul\":20848:20854   */\n      dup4\n        /* \"#utility.yul\":20841:20905   */\n      sstore\n        /* \"#utility.yul\":20763:20919   */\n      pop\n        /* \"#utility.yul\":20740:20919   */\n    tag_404:\n        /* \"#utility.yul\":20965:20966   */\n      0x01\n        /* \"#utility.yul\":20961:20962   */\n      0x02\n        /* \"#utility.yul\":20953:20959   */\n      dup9\n        /* \"#utility.yul\":20949:20963   */\n      mul\n        /* \"#utility.yul\":20945:20967   */\n      add\n        /* \"#utility.yul\":20939:20943   */\n      dup9\n        /* \"#utility.yul\":20932:20968   */\n      sstore\n        /* \"#utility.yul\":20367:20978   */\n      pop\n      pop\n      pop\n        /* \"#utility.yul\":20330:21217   */\n    tag_396:\n      pop\n        /* \"#utility.yul\":19920:21223   */\n      pop\n      pop\n      pop\n        /* \"#utility.yul\":19828:21223   */\n      pop\n      pop\n      jump\t// out\n        /* \"#utility.yul\":21229:21561   */\n    tag_120:\n        /* \"#utility.yul\":21350:21354   */\n      0x00\n        /* \"#utility.yul\":21388:21390   */\n      0x40\n        /* \"#utility.yul\":21377:21386   */\n      dup3\n        /* \"#utility.yul\":21373:21391   */\n      add\n        /* \"#utility.yul\":21365:21391   */\n      swap1\n      pop\n        /* \"#utility.yul\":21401:21472   */\n      tag_407\n        /* \"#utility.yul\":21469:21470   */\n      0x00\n        /* \"#utility.yul\":21458:21467   */\n      dup4\n        /* \"#utility.yul\":21454:21471   */\n      add\n        /* \"#utility.yul\":21445:21451   */\n      dup6\n        /* \"#utility.yul\":21401:21472   */\n      tag_157\n      jump\t// in\n    tag_407:\n        /* \"#utility.yul\":21482:21554   */\n      tag_408\n        /* \"#utility.yul\":21550:21552   */\n      0x20\n        /* \"#utility.yul\":21539:21548   */\n      dup4\n        /* \"#utility.yul\":21535:21553   */\n      add\n        /* \"#utility.yul\":21526:21532   */\n      dup5\n        /* \"#utility.yul\":21482:21554   */\n      tag_157\n      jump\t// in\n    tag_408:\n        /* \"#utility.yul\":21229:21561   */\n      swap4\n      swap3\n      pop\n      pop\n      pop\n      jump\t// out\n        /* \"#utility.yul\":21567:21646   */\n    tag_194:\n        /* \"#utility.yul\":21606:21613   */\n      0x00\n        /* \"#utility.yul\":21635:21640   */\n      dup2\n        /* \"#utility.yul\":21624:21640   */\n      swap1\n      pop\n        /* \"#utility.yul\":21567:21646   */\n      swap2\n      swap1\n      pop\n      jump\t// out\n        /* \"#utility.yul\":21652:21809   */\n    tag_195:\n        /* \"#utility.yul\":21757:21802   */\n      tag_411\n        /* \"#utility.yul\":21777:21801   */\n      tag_412\n        /* \"#utility.yul\":21795:21800   */\n      dup3\n        /* \"#utility.yul\":21777:21801   */\n      tag_139\n      jump\t// in\n    tag_412:\n        /* \"#utility.yul\":21757:21802   */\n      tag_194\n      jump\t// in\n    tag_411:\n        /* \"#utility.yul\":21752:21755   */\n      dup3\n        /* \"#utility.yul\":21745:21803   */\n      mstore\n        /* \"#utility.yul\":21652:21809   */\n      pop\n      pop\n      jump\t// out\n        /* \"#utility.yul\":21815:21963   */\n    tag_196:\n        /* \"#utility.yul\":21917:21928   */\n      0x00\n        /* \"#utility.yul\":21954:21957   */\n      dup2\n        /* \"#utility.yul\":21939:21957   */\n      swap1\n      pop\n        /* \"#utility.yul\":21815:21963   */\n      swap3\n      swap2\n      pop\n      pop\n      jump\t// out\n        /* \"#utility.yul\":21993:22867   */\n    tag_197:\n        /* \"#utility.yul\":22096:22099   */\n      0x00\n        /* \"#utility.yul\":22133:22138   */\n      dup2\n        /* \"#utility.yul\":22127:22139   */\n      sload\n        /* \"#utility.yul\":22162:22198   */\n      tag_415\n        /* \"#utility.yul\":22188:22197   */\n      dup2\n        /* \"#utility.yul\":22162:22198   */\n      tag_56\n      jump\t// in\n    tag_415:\n        /* \"#utility.yul\":22214:22303   */\n      tag_416\n        /* \"#utility.yul\":22296:22302   */\n      dup2\n        /* \"#utility.yul\":22291:22294   */\n      dup7\n        /* \"#utility.yul\":22214:22303   */\n      tag_196\n      jump\t// in\n    tag_416:\n        /* \"#utility.yul\":22207:22303   */\n      swap5\n      pop\n        /* \"#utility.yul\":22334:22335   */\n      0x01\n        /* \"#utility.yul\":22323:22332   */\n      dup3\n        /* \"#utility.yul\":22319:22336   */\n      and\n        /* \"#utility.yul\":22350:22351   */\n      0x00\n        /* \"#utility.yul\":22345:22511   */\n      dup2\n      eq\n      tag_418\n      jumpi\n        /* \"#utility.yul\":22525:22526   */\n      0x01\n        /* \"#utility.yul\":22520:22861   */\n      dup2\n      eq\n      tag_419\n      jumpi\n        /* \"#utility.yul\":22312:22861   */\n      jump(tag_417)\n        /* \"#utility.yul\":22345:22511   */\n    tag_418:\n        /* \"#utility.yul\":22429:22433   */\n      0xff\n        /* \"#utility.yul\":22425:22434   */\n      not\n        /* \"#utility.yul\":22414:22423   */\n      dup4\n        /* \"#utility.yul\":22410:22435   */\n      and\n        /* \"#utility.yul\":22405:22408   */\n      dup7\n        /* \"#utility.yul\":22398:22436   */\n      mstore\n        /* \"#utility.yul\":22491:22497   */\n      dup2\n        /* \"#utility.yul\":22484:22498   */\n      iszero\n        /* \"#utility.yul\":22477:22499   */\n      iszero\n        /* \"#utility.yul\":22469:22475   */\n      dup3\n        /* \"#utility.yul\":22465:22500   */\n      mul\n        /* \"#utility.yul\":22460:22463   */\n      dup7\n        /* \"#utility.yul\":22456:22501   */\n      add\n        /* \"#utility.yul\":22449:22501   */\n      swap4\n      pop\n        /* \"#utility.yul\":22345:22511   */\n      jump(tag_417)\n        /* \"#utility.yul\":22520:22861   */\n    tag_419:\n        /* \"#utility.yul\":22587:22625   */\n      tag_420\n        /* \"#utility.yul\":22619:22624   */\n      dup6\n        /* \"#utility.yul\":22587:22625   */\n      tag_179\n      jump\t// in\n    tag_420:\n        /* \"#utility.yul\":22647:22648   */\n      0x00\n        /* \"#utility.yul\":22661:22815   */\n    tag_421:\n        /* \"#utility.yul\":22675:22681   */\n      dup4\n        /* \"#utility.yul\":22672:22673   */\n      dup2\n        /* \"#utility.yul\":22669:22682   */\n      lt\n        /* \"#utility.yul\":22661:22815   */\n      iszero\n      tag_423\n      jumpi\n        /* \"#utility.yul\":22749:22756   */\n      dup2\n        /* \"#utility.yul\":22743:22757   */\n      sload\n        /* \"#utility.yul\":22739:22740   */\n      dup2\n        /* \"#utility.yul\":22734:22737   */\n      dup10\n        /* \"#utility.yul\":22730:22741   */\n      add\n        /* \"#utility.yul\":22723:22758   */\n      mstore\n        /* \"#utility.yul\":22799:22800   */\n      0x01\n        /* \"#utility.yul\":22790:22797   */\n      dup3\n        /* \"#utility.yul\":22786:22801   */\n      add\n        /* \"#utility.yul\":22775:22801   */\n      swap2\n      pop\n        /* \"#utility.yul\":22697:22701   */\n      0x20\n        /* \"#utility.yul\":22694:22695   */\n      dup2\n        /* \"#utility.yul\":22690:22702   */\n      add\n        /* \"#utility.yul\":22685:22702   */\n      swap1\n      pop\n        /* \"#utility.yul\":22661:22815   */\n      jump(tag_421)\n    tag_423:\n        /* \"#utility.yul\":22844:22850   */\n      dup4\n        /* \"#utility.yul\":22839:22842   */\n      dup9\n        /* \"#utility.yul\":22835:22851   */\n      add\n        /* \"#utility.yul\":22828:22851   */\n      swap6\n      pop\n        /* \"#utility.yul\":22527:22861   */\n      pop\n      pop\n        /* \"#utility.yul\":22312:22861   */\n    tag_417:\n      pop\n        /* \"#utility.yul\":22100:22867   */\n      pop\n      pop\n        /* \"#utility.yul\":21993:22867   */\n      swap3\n      swap2\n      pop\n      pop\n      jump\t// out\n        /* \"#utility.yul\":22873:23283   */\n    tag_133:\n        /* \"#utility.yul\":23030:23033   */\n      0x00\n        /* \"#utility.yul\":23045:23120   */\n      tag_425\n        /* \"#utility.yul\":23116:23119   */\n      dup3\n        /* \"#utility.yul\":23107:23113   */\n      dup6\n        /* \"#utility.yul\":23045:23120   */\n      tag_195\n      jump\t// in\n    tag_425:\n        /* \"#utility.yul\":23145:23147   */\n      0x20\n        /* \"#utility.yul\":23140:23143   */\n      dup3\n        /* \"#utility.yul\":23136:23148   */\n      add\n        /* \"#utility.yul\":23129:23148   */\n      swap2\n      pop\n        /* \"#utility.yul\":23165:23257   */\n      tag_426\n        /* \"#utility.yul\":23253:23256   */\n      dup3\n        /* \"#utility.yul\":23244:23250   */\n      dup5\n        /* \"#utility.yul\":23165:23257   */\n      tag_197\n      jump\t// in\n    tag_426:\n        /* \"#utility.yul\":23158:23257   */\n      swap2\n      pop\n        /* \"#utility.yul\":23274:23277   */\n      dup2\n        /* \"#utility.yul\":23267:23277   */\n      swap1\n      pop\n        /* \"#utility.yul\":22873:23283   */\n      swap4\n      swap3\n      pop\n      pop\n      pop\n      jump\t// out\n        /* \"#utility.yul\":23289:23469   */\n    tag_198:\n        /* \"#utility.yul\":23337:23414   */\n      0x4e487b7100000000000000000000000000000000000000000000000000000000\n        /* \"#utility.yul\":23334:23335   */\n      0x00\n        /* \"#utility.yul\":23327:23415   */\n      mstore\n        /* \"#utility.yul\":23434:23438   */\n      0x12\n        /* \"#utility.yul\":23431:23432   */\n      0x04\n        /* \"#utility.yul\":23424:23439   */\n      mstore\n        /* \"#utility.yul\":23458:23462   */\n      0x24\n        /* \"#utility.yul\":23455:23456   */\n      0x00\n        /* \"#utility.yul\":23448:23463   */\n      revert\n        /* \"#utility.yul\":23475:23651   */\n    tag_135:\n        /* \"#utility.yul\":23507:23508   */\n      0x00\n        /* \"#utility.yul\":23524:23544   */\n      tag_429\n        /* \"#utility.yul\":23542:23543   */\n      dup3\n        /* \"#utility.yul\":23524:23544   */\n      tag_139\n      jump\t// in\n    tag_429:\n        /* \"#utility.yul\":23519:23544   */\n      swap2\n      pop\n        /* \"#utility.yul\":23558:23578   */\n      tag_430\n        /* \"#utility.yul\":23576:23577   */\n      dup4\n        /* \"#utility.yul\":23558:23578   */\n      tag_139\n      jump\t// in\n    tag_430:\n        /* \"#utility.yul\":23553:23578   */\n      swap3\n      pop\n        /* \"#utility.yul\":23597:23598   */\n      dup3\n        /* \"#utility.yul\":23587:23622   */\n      tag_431\n      jumpi\n        /* \"#utility.yul\":23602:23620   */\n      tag_432\n      tag_198\n      jump\t// in\n    tag_432:\n        /* \"#utility.yul\":23587:23622   */\n    tag_431:\n        /* \"#utility.yul\":23643:23644   */\n      dup3\n        /* \"#utility.yul\":23640:23641   */\n      dup3\n        /* \"#utility.yul\":23636:23645   */\n      mod\n        /* \"#utility.yul\":23631:23645   */\n      swap1\n      pop\n        /* \"#utility.yul\":23475:23651   */\n      swap3\n      swap2\n      pop\n      pop\n      jump\t// out\n\n    auxdata: 0xa2646970667358221220653b211192437481ca6cd44b1e462b4f41932b11b74f40c61242d2e1f3df30c564736f6c634300081a0033\n}\n",
				"bytecode": {
					"linkReferences": {},
					"object": "60806040525f6002553480156012575f80fd5b50335f806101000a81548173ffffffffffffffffffffffffffffffffffffffff021916908373ffffffffffffffffffffffffffffffffffffffff1602179055506116e28061005f5f395ff3fe608060405234801561000f575f80fd5b506004361061007b575f3560e01c806393119a831161005957806393119a83146100ee578063a0303c4114610123578063be65437a14610141578063cff0572d1461015d5761007b565b806318a231a91461007f5780637d3a67961461009d5780638da5cb5b146100d0575b5f80fd5b61008761017b565b6040516100949190610ca7565b60405180910390f35b6100b760048036038101906100b29190610d02565b61040a565b6040516100c79493929190610d84565b60405180910390f35b6100d861066f565b6040516100e59190610e14565b60405180910390f35b61010860048036038101906101039190610d02565b610692565b60405161011a96959493929190610e2d565b60405180910390f35b61012b61085c565b6040516101389190610ea1565b60405180910390f35b61015b60048036038101906101569190610fe6565b610862565b005b6101656109ae565b6040516101729190611132565b60405180910390f35b60605f60025467ffffffffffffffff81111561019a57610199610ec2565b5b6040519080825280602002602001820160405280156101d357816020015b6101c0610a9d565b8152602001906001900390816101b85790505b5090505f5b6002548110156104025760015f6001836101f2919061117f565b81526020019081526020015f206040518060c00160405290815f8201548152602001600182018054610223906111df565b80601f016020809104026020016040519081016040528092919081815260200182805461024f906111df565b801561029a5780601f106102715761010080835404028352916020019161029a565b820191905f5260205f20905b81548152906001019060200180831161027d57829003601f168201915b505050505081526020016002820180546102b3906111df565b80601f01602080910402602001604051908101604052809291908181526020018280546102df906111df565b801561032a5780601f106103015761010080835404028352916020019161032a565b820191905f5260205f20905b81548152906001019060200180831161030d57829003601f168201915b50505050508152602001600382018054610343906111df565b80601f016020809104026020016040519081016040528092919081815260200182805461036f906111df565b80156103ba5780601f10610391576101008083540402835291602001916103ba565b820191905f5260205f20905b81548152906001019060200180831161039d57829003601f168201915b50505050508152602001600482015481526020016005820154815250508282815181106103ea576103e961120f565b5b602002602001018190525080806001019150506101d8565b508091505090565b6060805f805f8511801561042057506002548511155b61045f576040517f08c379a000000000000000000000000000000000000000000000000000000000815260040161045690611286565b60405180910390fd5b5f60015f8781526020019081526020015f206040518060c00160405290815f8201548152602001600182018054610495906111df565b80601f01602080910402602001604051908101604052809291908181526020018280546104c1906111df565b801561050c5780601f106104e35761010080835404028352916020019161050c565b820191905f5260205f20905b8154815290600101906020018083116104ef57829003601f168201915b50505050508152602001600282018054610525906111df565b80601f0160208091040260200160405190810160405280929190818152602001828054610551906111df565b801561059c5780601f106105735761010080835404028352916020019161059c565b820191905f5260205f20905b81548152906001019060200180831161057f57829003601f168201915b505050505081526020016003820180546105b5906111df565b80601f01602080910402602001604051908101604052809291908181526020018280546105e1906111df565b801561062c5780601f106106035761010080835404028352916020019161062c565b820191905f5260205f20905b81548152906001019060200180831161060f57829003601f168201915b505050505081526020016004820154815260200160058201548152505090508060200151816060015182608001518360a001519450945094509450509193509193565b5f8054906101000a900473ffffffffffffffffffffffffffffffffffffffff1681565b6001602052805f5260405f205f91509050805f0154908060010180546106b7906111df565b80601f01602080910402602001604051908101604052809291908181526020018280546106e3906111df565b801561072e5780601f106107055761010080835404028352916020019161072e565b820191905f5260205f20905b81548152906001019060200180831161071157829003601f168201915b505050505090806002018054610743906111df565b80601f016020809104026020016040519081016040528092919081815260200182805461076f906111df565b80156107ba5780601f10610791576101008083540402835291602001916107ba565b820191905f5260205f20905b81548152906001019060200180831161079d57829003601f168201915b5050505050908060030180546107cf906111df565b80601f01602080910402602001604051908101604052809291908181526020018280546107fb906111df565b80156108465780601f1061081d57610100808354040283529160200191610846565b820191905f5260205f20905b81548152906001019060200180831161082957829003601f168201915b5050505050908060040154908060050154905086565b60025481565b60025f815480929190610874906112a4565b91905055505f610885600254610a4b565b90506040518060c0016040528060025481526020018581526020018481526020018381526020018281526020014281525060015f60025481526020019081526020015f205f820151815f015560208201518160010190816108e69190611488565b5060408201518160020190816108fc9190611488565b5060608201518160030190816109129190611488565b506080820151816004015560a082015181600501559050507f3ba748871cc1a0b62a12d27e88ad1ec2dee12e3c49269217680d7be9e45b5e7a600254858585854260405161096596959493929190610e2d565b60405180910390a17ff4e905dcd43d9cffe46a3df00335e24cf2c820f161c4f695211fe1edc00936e3600254826040516109a0929190611557565b60405180910390a150505050565b60605f60025467ffffffffffffffff8111156109cd576109cc610ec2565b5b6040519080825280602002602001820160405280156109fb5781602001602082028036833780820191505090505b5090505f5b600254811015610a4357600181610a17919061117f565b828281518110610a2a57610a2961120f565b5b6020026020010181815250508080600101915050610a00565b508091505090565b5f60644260015f8581526020019081526020015f20600101604051602001610a74929190611628565b604051602081830303815290604052805190602001205f1c610a96919061167c565b9050919050565b6040518060c001604052805f81526020016060815260200160608152602001606081526020015f81526020015f81525090565b5f81519050919050565b5f82825260208201905092915050565b5f819050602082019050919050565b5f819050919050565b610b0b81610af9565b82525050565b5f81519050919050565b5f82825260208201905092915050565b8281835e5f83830152505050565b5f601f19601f8301169050919050565b5f610b5382610b11565b610b5d8185610b1b565b9350610b6d818560208601610b2b565b610b7681610b39565b840191505092915050565b5f60c083015f830151610b965f860182610b02565b5060208301518482036020860152610bae8282610b49565b91505060408301518482036040860152610bc88282610b49565b91505060608301518482036060860152610be28282610b49565b9150506080830151610bf76080860182610b02565b5060a0830151610c0a60a0860182610b02565b508091505092915050565b5f610c208383610b81565b905092915050565b5f602082019050919050565b5f610c3e82610ad0565b610c488185610ada565b935083602082028501610c5a85610aea565b805f5b85811015610c955784840389528151610c768582610c15565b9450610c8183610c28565b925060208a01995050600181019050610c5d565b50829750879550505050505092915050565b5f6020820190508181035f830152610cbf8184610c34565b905092915050565b5f604051905090565b5f80fd5b5f80fd5b610ce181610af9565b8114610ceb575f80fd5b50565b5f81359050610cfc81610cd8565b92915050565b5f60208284031215610d1757610d16610cd0565b5b5f610d2484828501610cee565b91505092915050565b5f82825260208201905092915050565b5f610d4782610b11565b610d518185610d2d565b9350610d61818560208601610b2b565b610d6a81610b39565b840191505092915050565b610d7e81610af9565b82525050565b5f6080820190508181035f830152610d9c8187610d3d565b90508181036020830152610db08186610d3d565b9050610dbf6040830185610d75565b610dcc6060830184610d75565b95945050505050565b5f73ffffffffffffffffffffffffffffffffffffffff82169050919050565b5f610dfe82610dd5565b9050919050565b610e0e81610df4565b82525050565b5f602082019050610e275f830184610e05565b92915050565b5f60c082019050610e405f830189610d75565b8181036020830152610e528188610d3d565b90508181036040830152610e668187610d3d565b90508181036060830152610e7a8186610d3d565b9050610e896080830185610d75565b610e9660a0830184610d75565b979650505050505050565b5f602082019050610eb45f830184610d75565b92915050565b5f80fd5b5f80fd5b7f4e487b71000000000000000000000000000000000000000000000000000000005f52604160045260245ffd5b610ef882610b39565b810181811067ffffffffffffffff82111715610f1757610f16610ec2565b5b80604052505050565b5f610f29610cc7565b9050610f358282610eef565b919050565b5f67ffffffffffffffff821115610f5457610f53610ec2565b5b610f5d82610b39565b9050602081019050919050565b828183375f83830152505050565b5f610f8a610f8584610f3a565b610f20565b905082815260208101848484011115610fa657610fa5610ebe565b5b610fb1848285610f6a565b509392505050565b5f82601f830112610fcd57610fcc610eba565b5b8135610fdd848260208601610f78565b91505092915050565b5f805f60608486031215610ffd57610ffc610cd0565b5b5f84013567ffffffffffffffff81111561101a57611019610cd4565b5b61102686828701610fb9565b935050602084013567ffffffffffffffff81111561104757611046610cd4565b5b61105386828701610fb9565b925050604084013567ffffffffffffffff81111561107457611073610cd4565b5b61108086828701610fb9565b9150509250925092565b5f81519050919050565b5f82825260208201905092915050565b5f819050602082019050919050565b5f6110be8383610b02565b60208301905092915050565b5f602082019050919050565b5f6110e08261108a565b6110ea8185611094565b93506110f5836110a4565b805f5b8381101561112557815161110c88826110b3565b9750611117836110ca565b9250506001810190506110f8565b5085935050505092915050565b5f6020820190508181035f83015261114a81846110d6565b905092915050565b7f4e487b71000000000000000000000000000000000000000000000000000000005f52601160045260245ffd5b5f61118982610af9565b915061119483610af9565b92508282019050808211156111ac576111ab611152565b5b92915050565b7f4e487b71000000000000000000000000000000000000000000000000000000005f52602260045260245ffd5b5f60028204905060018216806111f657607f821691505b602082108103611209576112086111b2565b5b50919050565b7f4e487b71000000000000000000000000000000000000000000000000000000005f52603260045260245ffd5b7f50616369656e74756c206e7520657869737461210000000000000000000000005f82015250565b5f611270601483610d2d565b915061127b8261123c565b602082019050919050565b5f6020820190508181035f83015261129d81611264565b9050919050565b5f6112ae82610af9565b91507fffffffffffffffffffffffffffffffffffffffffffffffffffffffffffffffff82036112e0576112df611152565b5b600182019050919050565b5f819050815f5260205f209050919050565b5f6020601f8301049050919050565b5f82821b905092915050565b5f600883026113477fffffffffffffffffffffffffffffffffffffffffffffffffffffffffffffffff8261130c565b611351868361130c565b95508019841693508086168417925050509392505050565b5f819050919050565b5f61138c61138761138284610af9565b611369565b610af9565b9050919050565b5f819050919050565b6113a583611372565b6113b96113b182611393565b848454611318565b825550505050565b5f90565b6113cd6113c1565b6113d881848461139c565b505050565b5b818110156113fb576113f05f826113c5565b6001810190506113de565b5050565b601f82111561144057611411816112eb565b61141a846112fd565b81016020851015611429578190505b61143d611435856112fd565b8301826113dd565b50505b505050565b5f82821c905092915050565b5f6114605f1984600802611445565b1980831691505092915050565b5f6114788383611451565b9150826002028217905092915050565b61149182610b11565b67ffffffffffffffff8111156114aa576114a9610ec2565b5b6114b482546111df565b6114bf8282856113ff565b5f60209050601f8311600181146114f0575f84156114de578287015190505b6114e8858261146d565b86555061154f565b601f1984166114fe866112eb565b5f5b8281101561152557848901518255600182019150602085019450602081019050611500565b86831015611542578489015161153e601f891682611451565b8355505b6001600288020188555050505b505050505050565b5f60408201905061156a5f830185610d75565b6115776020830184610d75565b9392505050565b5f819050919050565b61159861159382610af9565b61157e565b82525050565b5f81905092915050565b5f81546115b4816111df565b6115be818661159e565b9450600182165f81146115d857600181146115ed5761161f565b60ff198316865281151582028601935061161f565b6115f6856112eb565b5f5b83811015611617578154818901526001820191506020810190506115f8565b838801955050505b50505092915050565b5f6116338285611587565b60208201915061164382846115a8565b91508190509392505050565b7f4e487b71000000000000000000000000000000000000000000000000000000005f52601260045260245ffd5b5f61168682610af9565b915061169183610af9565b9250826116a1576116a061164f565b5b82820690509291505056fea2646970667358221220653b211192437481ca6cd44b1e462b4f41932b11b74f40c61242d2e1f3df30c564736f6c634300081a0033",
					"opcodes": "PUSH1 0x80 PUSH1 0x40 MSTORE PUSH0 PUSH1 0x2 SSTORE CALLVALUE DUP1 ISZERO PUSH1 0x12 JUMPI PUSH0 DUP1 REVERT JUMPDEST POP CALLER PUSH0 DUP1 PUSH2 0x100 EXP DUP2 SLOAD DUP2 PUSH20 0xFFFFFFFFFFFFFFFFFFFFFFFFFFFFFFFFFFFFFFFF MUL NOT AND SWAP1 DUP4 PUSH20 0xFFFFFFFFFFFFFFFFFFFFFFFFFFFFFFFFFFFFFFFF AND MUL OR SWAP1 SSTORE POP PUSH2 0x16E2 DUP1 PUSH2 0x5F PUSH0 CODECOPY PUSH0 RETURN INVALID PUSH1 0x80 PUSH1 0x40 MSTORE CALLVALUE DUP1 ISZERO PUSH2 0xF JUMPI PUSH0 DUP1 REVERT JUMPDEST POP PUSH1 0x4 CALLDATASIZE LT PUSH2 0x7B JUMPI PUSH0 CALLDATALOAD PUSH1 0xE0 SHR DUP1 PUSH4 0x93119A83 GT PUSH2 0x59 JUMPI DUP1 PUSH4 0x93119A83 EQ PUSH2 0xEE JUMPI DUP1 PUSH4 0xA0303C41 EQ PUSH2 0x123 JUMPI DUP1 PUSH4 0xBE65437A EQ PUSH2 0x141 JUMPI DUP1 PUSH4 0xCFF0572D EQ PUSH2 0x15D JUMPI PUSH2 0x7B JUMP JUMPDEST DUP1 PUSH4 0x18A231A9 EQ PUSH2 0x7F JUMPI DUP1 PUSH4 0x7D3A6796 EQ PUSH2 0x9D JUMPI DUP1 PUSH4 0x8DA5CB5B EQ PUSH2 0xD0 JUMPI JUMPDEST PUSH0 DUP1 REVERT JUMPDEST PUSH2 0x87 PUSH2 0x17B JUMP JUMPDEST PUSH1 0x40 MLOAD PUSH2 0x94 SWAP2 SWAP1 PUSH2 0xCA7 JUMP JUMPDEST PUSH1 0x40 MLOAD DUP1 SWAP2 SUB SWAP1 RETURN JUMPDEST PUSH2 0xB7 PUSH1 0x4 DUP1 CALLDATASIZE SUB DUP2 ADD SWAP1 PUSH2 0xB2 SWAP2 SWAP1 PUSH2 0xD02 JUMP JUMPDEST PUSH2 0x40A JUMP JUMPDEST PUSH1 0x40 MLOAD PUSH2 0xC7 SWAP5 SWAP4 SWAP3 SWAP2 SWAP1 PUSH2 0xD84 JUMP JUMPDEST PUSH1 0x40 MLOAD DUP1 SWAP2 SUB SWAP1 RETURN JUMPDEST PUSH2 0xD8 PUSH2 0x66F JUMP JUMPDEST PUSH1 0x40 MLOAD PUSH2 0xE5 SWAP2 SWAP1 PUSH2 0xE14 JUMP JUMPDEST PUSH1 0x40 MLOAD DUP1 SWAP2 SUB SWAP1 RETURN JUMPDEST PUSH2 0x108 PUSH1 0x4 DUP1 CALLDATASIZE SUB DUP2 ADD SWAP1 PUSH2 0x103 SWAP2 SWAP1 PUSH2 0xD02 JUMP JUMPDEST PUSH2 0x692 JUMP JUMPDEST PUSH1 0x40 MLOAD PUSH2 0x11A SWAP7 SWAP6 SWAP5 SWAP4 SWAP3 SWAP2 SWAP1 PUSH2 0xE2D JUMP JUMPDEST PUSH1 0x40 MLOAD DUP1 SWAP2 SUB SWAP1 RETURN JUMPDEST PUSH2 0x12B PUSH2 0x85C JUMP JUMPDEST PUSH1 0x40 MLOAD PUSH2 0x138 SWAP2 SWAP1 PUSH2 0xEA1 JUMP JUMPDEST PUSH1 0x40 MLOAD DUP1 SWAP2 SUB SWAP1 RETURN JUMPDEST PUSH2 0x15B PUSH1 0x4 DUP1 CALLDATASIZE SUB DUP2 ADD SWAP1 PUSH2 0x156 SWAP2 SWAP1 PUSH2 0xFE6 JUMP JUMPDEST PUSH2 0x862 JUMP JUMPDEST STOP JUMPDEST PUSH2 0x165 PUSH2 0x9AE JUMP JUMPDEST PUSH1 0x40 MLOAD PUSH2 0x172 SWAP2 SWAP1 PUSH2 0x1132 JUMP JUMPDEST PUSH1 0x40 MLOAD DUP1 SWAP2 SUB SWAP1 RETURN JUMPDEST PUSH1 0x60 PUSH0 PUSH1 0x2 SLOAD PUSH8 0xFFFFFFFFFFFFFFFF DUP2 GT ISZERO PUSH2 0x19A JUMPI PUSH2 0x199 PUSH2 0xEC2 JUMP JUMPDEST JUMPDEST PUSH1 0x40 MLOAD SWAP1 DUP1 DUP3 MSTORE DUP1 PUSH1 0x20 MUL PUSH1 0x20 ADD DUP3 ADD PUSH1 0x40 MSTORE DUP1 ISZERO PUSH2 0x1D3 JUMPI DUP2 PUSH1 0x20 ADD JUMPDEST PUSH2 0x1C0 PUSH2 0xA9D JUMP JUMPDEST DUP2 MSTORE PUSH1 0x20 ADD SWAP1 PUSH1 0x1 SWAP1 SUB SWAP1 DUP2 PUSH2 0x1B8 JUMPI SWAP1 POP JUMPDEST POP SWAP1 POP PUSH0 JUMPDEST PUSH1 0x2 SLOAD DUP2 LT ISZERO PUSH2 0x402 JUMPI PUSH1 0x1 PUSH0 PUSH1 0x1 DUP4 PUSH2 0x1F2 SWAP2 SWAP1 PUSH2 0x117F JUMP JUMPDEST DUP2 MSTORE PUSH1 0x20 ADD SWAP1 DUP2 MSTORE PUSH1 0x20 ADD PUSH0 KECCAK256 PUSH1 0x40 MLOAD DUP1 PUSH1 0xC0 ADD PUSH1 0x40 MSTORE SWAP1 DUP2 PUSH0 DUP3 ADD SLOAD DUP2 MSTORE PUSH1 0x20 ADD PUSH1 0x1 DUP3 ADD DUP1 SLOAD PUSH2 0x223 SWAP1 PUSH2 0x11DF JUMP JUMPDEST DUP1 PUSH1 0x1F ADD PUSH1 0x20 DUP1 SWAP2 DIV MUL PUSH1 0x20 ADD PUSH1 0x40 MLOAD SWAP1 DUP2 ADD PUSH1 0x40 MSTORE DUP1 SWAP3 SWAP2 SWAP1 DUP2 DUP2 MSTORE PUSH1 0x20 ADD DUP3 DUP1 SLOAD PUSH2 0x24F SWAP1 PUSH2 0x11DF JUMP JUMPDEST DUP1 ISZERO PUSH2 0x29A JUMPI DUP1 PUSH1 0x1F LT PUSH2 0x271 JUMPI PUSH2 0x100 DUP1 DUP4 SLOAD DIV MUL DUP4 MSTORE SWAP2 PUSH1 0x20 ADD SWAP2 PUSH2 0x29A JUMP JUMPDEST DUP3 ADD SWAP2 SWAP1 PUSH0 MSTORE PUSH1 0x20 PUSH0 KECCAK256 SWAP1 JUMPDEST DUP2 SLOAD DUP2 MSTORE SWAP1 PUSH1 0x1 ADD SWAP1 PUSH1 0x20 ADD DUP1 DUP4 GT PUSH2 0x27D JUMPI DUP3 SWAP1 SUB PUSH1 0x1F AND DUP3 ADD SWAP2 JUMPDEST POP POP POP POP POP DUP2 MSTORE PUSH1 0x20 ADD PUSH1 0x2 DUP3 ADD DUP1 SLOAD PUSH2 0x2B3 SWAP1 PUSH2 0x11DF JUMP JUMPDEST DUP1 PUSH1 0x1F ADD PUSH1 0x20 DUP1 SWAP2 DIV MUL PUSH1 0x20 ADD PUSH1 0x40 MLOAD SWAP1 DUP2 ADD PUSH1 0x40 MSTORE DUP1 SWAP3 SWAP2 SWAP1 DUP2 DUP2 MSTORE PUSH1 0x20 ADD DUP3 DUP1 SLOAD PUSH2 0x2DF SWAP1 PUSH2 0x11DF JUMP JUMPDEST DUP1 ISZERO PUSH2 0x32A JUMPI DUP1 PUSH1 0x1F LT PUSH2 0x301 JUMPI PUSH2 0x100 DUP1 DUP4 SLOAD DIV MUL DUP4 MSTORE SWAP2 PUSH1 0x20 ADD SWAP2 PUSH2 0x32A JUMP JUMPDEST DUP3 ADD SWAP2 SWAP1 PUSH0 MSTORE PUSH1 0x20 PUSH0 KECCAK256 SWAP1 JUMPDEST DUP2 SLOAD DUP2 MSTORE SWAP1 PUSH1 0x1 ADD SWAP1 PUSH1 0x20 ADD DUP1 DUP4 GT PUSH2 0x30D JUMPI DUP3 SWAP1 SUB PUSH1 0x1F AND DUP3 ADD SWAP2 JUMPDEST POP POP POP POP POP DUP2 MSTORE PUSH1 0x20 ADD PUSH1 0x3 DUP3 ADD DUP1 SLOAD PUSH2 0x343 SWAP1 PUSH2 0x11DF JUMP JUMPDEST DUP1 PUSH1 0x1F ADD PUSH1 0x20 DUP1 SWAP2 DIV MUL PUSH1 0x20 ADD PUSH1 0x40 MLOAD SWAP1 DUP2 ADD PUSH1 0x40 MSTORE DUP1 SWAP3 SWAP2 SWAP1 DUP2 DUP2 MSTORE PUSH1 0x20 ADD DUP3 DUP1 SLOAD PUSH2 0x36F SWAP1 PUSH2 0x11DF JUMP JUMPDEST DUP1 ISZERO PUSH2 0x3BA JUMPI DUP1 PUSH1 0x1F LT PUSH2 0x391 JUMPI PUSH2 0x100 DUP1 DUP4 SLOAD DIV MUL DUP4 MSTORE SWAP2 PUSH1 0x20 ADD SWAP2 PUSH2 0x3BA JUMP JUMPDEST DUP3 ADD SWAP2 SWAP1 PUSH0 MSTORE PUSH1 0x20 PUSH0 KECCAK256 SWAP1 JUMPDEST DUP2 SLOAD DUP2 MSTORE SWAP1 PUSH1 0x1 ADD SWAP1 PUSH1 0x20 ADD DUP1 DUP4 GT PUSH2 0x39D JUMPI DUP3 SWAP1 SUB PUSH1 0x1F AND DUP3 ADD SWAP2 JUMPDEST POP POP POP POP POP DUP2 MSTORE PUSH1 0x20 ADD PUSH1 0x4 DUP3 ADD SLOAD DUP2 MSTORE PUSH1 0x20 ADD PUSH1 0x5 DUP3 ADD SLOAD DUP2 MSTORE POP POP DUP3 DUP3 DUP2 MLOAD DUP2 LT PUSH2 0x3EA JUMPI PUSH2 0x3E9 PUSH2 0x120F JUMP JUMPDEST JUMPDEST PUSH1 0x20 MUL PUSH1 0x20 ADD ADD DUP2 SWAP1 MSTORE POP DUP1 DUP1 PUSH1 0x1 ADD SWAP2 POP POP PUSH2 0x1D8 JUMP JUMPDEST POP DUP1 SWAP2 POP POP SWAP1 JUMP JUMPDEST PUSH1 0x60 DUP1 PUSH0 DUP1 PUSH0 DUP6 GT DUP1 ISZERO PUSH2 0x420 JUMPI POP PUSH1 0x2 SLOAD DUP6 GT ISZERO JUMPDEST PUSH2 0x45F JUMPI PUSH1 0x40 MLOAD PUSH32 0x8C379A000000000000000000000000000000000000000000000000000000000 DUP2 MSTORE PUSH1 0x4 ADD PUSH2 0x456 SWAP1 PUSH2 0x1286 JUMP JUMPDEST PUSH1 0x40 MLOAD DUP1 SWAP2 SUB SWAP1 REVERT JUMPDEST PUSH0 PUSH1 0x1 PUSH0 DUP8 DUP2 MSTORE PUSH1 0x20 ADD SWAP1 DUP2 MSTORE PUSH1 0x20 ADD PUSH0 KECCAK256 PUSH1 0x40 MLOAD DUP1 PUSH1 0xC0 ADD PUSH1 0x40 MSTORE SWAP1 DUP2 PUSH0 DUP3 ADD SLOAD DUP2 MSTORE PUSH1 0x20 ADD PUSH1 0x1 DUP3 ADD DUP1 SLOAD PUSH2 0x495 SWAP1 PUSH2 0x11DF JUMP JUMPDEST DUP1 PUSH1 0x1F ADD PUSH1 0x20 DUP1 SWAP2 DIV MUL PUSH1 0x20 ADD PUSH1 0x40 MLOAD SWAP1 DUP2 ADD PUSH1 0x40 MSTORE DUP1 SWAP3 SWAP2 SWAP1 DUP2 DUP2 MSTORE PUSH1 0x20 ADD DUP3 DUP1 SLOAD PUSH2 0x4C1 SWAP1 PUSH2 0x11DF JUMP JUMPDEST DUP1 ISZERO PUSH2 0x50C JUMPI DUP1 PUSH1 0x1F LT PUSH2 0x4E3 JUMPI PUSH2 0x100 DUP1 DUP4 SLOAD DIV MUL DUP4 MSTORE SWAP2 PUSH1 0x20 ADD SWAP2 PUSH2 0x50C JUMP JUMPDEST DUP3 ADD SWAP2 SWAP1 PUSH0 MSTORE PUSH1 0x20 PUSH0 KECCAK256 SWAP1 JUMPDEST DUP2 SLOAD DUP2 MSTORE SWAP1 PUSH1 0x1 ADD SWAP1 PUSH1 0x20 ADD DUP1 DUP4 GT PUSH2 0x4EF JUMPI DUP3 SWAP1 SUB PUSH1 0x1F AND DUP3 ADD SWAP2 JUMPDEST POP POP POP POP POP DUP2 MSTORE PUSH1 0x20 ADD PUSH1 0x2 DUP3 ADD DUP1 SLOAD PUSH2 0x525 SWAP1 PUSH2 0x11DF JUMP JUMPDEST DUP1 PUSH1 0x1F ADD PUSH1 0x20 DUP1 SWAP2 DIV MUL PUSH1 0x20 ADD PUSH1 0x40 MLOAD SWAP1 DUP2 ADD PUSH1 0x40 MSTORE DUP1 SWAP3 SWAP2 SWAP1 DUP2 DUP2 MSTORE PUSH1 0x20 ADD DUP3 DUP1 SLOAD PUSH2 0x551 SWAP1 PUSH2 0x11DF JUMP JUMPDEST DUP1 ISZERO PUSH2 0x59C JUMPI DUP1 PUSH1 0x1F LT PUSH2 0x573 JUMPI PUSH2 0x100 DUP1 DUP4 SLOAD DIV MUL DUP4 MSTORE SWAP2 PUSH1 0x20 ADD SWAP2 PUSH2 0x59C JUMP JUMPDEST DUP3 ADD SWAP2 SWAP1 PUSH0 MSTORE PUSH1 0x20 PUSH0 KECCAK256 SWAP1 JUMPDEST DUP2 SLOAD DUP2 MSTORE SWAP1 PUSH1 0x1 ADD SWAP1 PUSH1 0x20 ADD DUP1 DUP4 GT PUSH2 0x57F JUMPI DUP3 SWAP1 SUB PUSH1 0x1F AND DUP3 ADD SWAP2 JUMPDEST POP POP POP POP POP DUP2 MSTORE PUSH1 0x20 ADD PUSH1 0x3 DUP3 ADD DUP1 SLOAD PUSH2 0x5B5 SWAP1 PUSH2 0x11DF JUMP JUMPDEST DUP1 PUSH1 0x1F ADD PUSH1 0x20 DUP1 SWAP2 DIV MUL PUSH1 0x20 ADD PUSH1 0x40 MLOAD SWAP1 DUP2 ADD PUSH1 0x40 MSTORE DUP1 SWAP3 SWAP2 SWAP1 DUP2 DUP2 MSTORE PUSH1 0x20 ADD DUP3 DUP1 SLOAD PUSH2 0x5E1 SWAP1 PUSH2 0x11DF JUMP JUMPDEST DUP1 ISZERO PUSH2 0x62C JUMPI DUP1 PUSH1 0x1F LT PUSH2 0x603 JUMPI PUSH2 0x100 DUP1 DUP4 SLOAD DIV MUL DUP4 MSTORE SWAP2 PUSH1 0x20 ADD SWAP2 PUSH2 0x62C JUMP JUMPDEST DUP3 ADD SWAP2 SWAP1 PUSH0 MSTORE PUSH1 0x20 PUSH0 KECCAK256 SWAP1 JUMPDEST DUP2 SLOAD DUP2 MSTORE SWAP1 PUSH1 0x1 ADD SWAP1 PUSH1 0x20 ADD DUP1 DUP4 GT PUSH2 0x60F JUMPI DUP3 SWAP1 SUB PUSH1 0x1F AND DUP3 ADD SWAP2 JUMPDEST POP POP POP POP POP DUP2 MSTORE PUSH1 0x20 ADD PUSH1 0x4 DUP3 ADD SLOAD DUP2 MSTORE PUSH1 0x20 ADD PUSH1 0x5 DUP3 ADD SLOAD DUP2 MSTORE POP POP SWAP1 POP DUP1 PUSH1 0x20 ADD MLOAD DUP2 PUSH1 0x60 ADD MLOAD DUP3 PUSH1 0x80 ADD MLOAD DUP4 PUSH1 0xA0 ADD MLOAD SWAP5 POP SWAP5 POP SWAP5 POP SWAP5 POP POP SWAP2 SWAP4 POP SWAP2 SWAP4 JUMP JUMPDEST PUSH0 DUP1 SLOAD SWAP1 PUSH2 0x100 EXP SWAP1 DIV PUSH20 0xFFFFFFFFFFFFFFFFFFFFFFFFFFFFFFFFFFFFFFFF AND DUP2 JUMP JUMPDEST PUSH1 0x1 PUSH1 0x20 MSTORE DUP1 PUSH0 MSTORE PUSH1 0x40 PUSH0 KECCAK256 PUSH0 SWAP2 POP SWAP1 POP DUP1 PUSH0 ADD SLOAD SWAP1 DUP1 PUSH1 0x1 ADD DUP1 SLOAD PUSH2 0x6B7 SWAP1 PUSH2 0x11DF JUMP JUMPDEST DUP1 PUSH1 0x1F ADD PUSH1 0x20 DUP1 SWAP2 DIV MUL PUSH1 0x20 ADD PUSH1 0x40 MLOAD SWAP1 DUP2 ADD PUSH1 0x40 MSTORE DUP1 SWAP3 SWAP2 SWAP1 DUP2 DUP2 MSTORE PUSH1 0x20 ADD DUP3 DUP1 SLOAD PUSH2 0x6E3 SWAP1 PUSH2 0x11DF JUMP JUMPDEST DUP1 ISZERO PUSH2 0x72E JUMPI DUP1 PUSH1 0x1F LT PUSH2 0x705 JUMPI PUSH2 0x100 DUP1 DUP4 SLOAD DIV MUL DUP4 MSTORE SWAP2 PUSH1 0x20 ADD SWAP2 PUSH2 0x72E JUMP JUMPDEST DUP3 ADD SWAP2 SWAP1 PUSH0 MSTORE PUSH1 0x20 PUSH0 KECCAK256 SWAP1 JUMPDEST DUP2 SLOAD DUP2 MSTORE SWAP1 PUSH1 0x1 ADD SWAP1 PUSH1 0x20 ADD DUP1 DUP4 GT PUSH2 0x711 JUMPI DUP3 SWAP1 SUB PUSH1 0x1F AND DUP3 ADD SWAP2 JUMPDEST POP POP POP POP POP SWAP1 DUP1 PUSH1 0x2 ADD DUP1 SLOAD PUSH2 0x743 SWAP1 PUSH2 0x11DF JUMP JUMPDEST DUP1 PUSH1 0x1F ADD PUSH1 0x20 DUP1 SWAP2 DIV MUL PUSH1 0x20 ADD PUSH1 0x40 MLOAD SWAP1 DUP2 ADD PUSH1 0x40 MSTORE DUP1 SWAP3 SWAP2 SWAP1 DUP2 DUP2 MSTORE PUSH1 0x20 ADD DUP3 DUP1 SLOAD PUSH2 0x76F SWAP1 PUSH2 0x11DF JUMP JUMPDEST DUP1 ISZERO PUSH2 0x7BA JUMPI DUP1 PUSH1 0x1F LT PUSH2 0x791 JUMPI PUSH2 0x100 DUP1 DUP4 SLOAD DIV MUL DUP4 MSTORE SWAP2 PUSH1 0x20 ADD SWAP2 PUSH2 0x7BA JUMP JUMPDEST DUP3 ADD SWAP2 SWAP1 PUSH0 MSTORE PUSH1 0x20 PUSH0 KECCAK256 SWAP1 JUMPDEST DUP2 SLOAD DUP2 MSTORE SWAP1 PUSH1 0x1 ADD SWAP1 PUSH1 0x20 ADD DUP1 DUP4 GT PUSH2 0x79D JUMPI DUP3 SWAP1 SUB PUSH1 0x1F AND DUP3 ADD SWAP2 JUMPDEST POP POP POP POP POP SWAP1 DUP1 PUSH1 0x3 ADD DUP1 SLOAD PUSH2 0x7CF SWAP1 PUSH2 0x11DF JUMP JUMPDEST DUP1 PUSH1 0x1F ADD PUSH1 0x20 DUP1 SWAP2 DIV MUL PUSH1 0x20 ADD PUSH1 0x40 MLOAD SWAP1 DUP2 ADD PUSH1 0x40 MSTORE DUP1 SWAP3 SWAP2 SWAP1 DUP2 DUP2 MSTORE PUSH1 0x20 ADD DUP3 DUP1 SLOAD PUSH2 0x7FB SWAP1 PUSH2 0x11DF JUMP JUMPDEST DUP1 ISZERO PUSH2 0x846 JUMPI DUP1 PUSH1 0x1F LT PUSH2 0x81D JUMPI PUSH2 0x100 DUP1 DUP4 SLOAD DIV MUL DUP4 MSTORE SWAP2 PUSH1 0x20 ADD SWAP2 PUSH2 0x846 JUMP JUMPDEST DUP3 ADD SWAP2 SWAP1 PUSH0 MSTORE PUSH1 0x20 PUSH0 KECCAK256 SWAP1 JUMPDEST DUP2 SLOAD DUP2 MSTORE SWAP1 PUSH1 0x1 ADD SWAP1 PUSH1 0x20 ADD DUP1 DUP4 GT PUSH2 0x829 JUMPI DUP3 SWAP1 SUB PUSH1 0x1F AND DUP3 ADD SWAP2 JUMPDEST POP POP POP POP POP SWAP1 DUP1 PUSH1 0x4 ADD SLOAD SWAP1 DUP1 PUSH1 0x5 ADD SLOAD SWAP1 POP DUP7 JUMP JUMPDEST PUSH1 0x2 SLOAD DUP2 JUMP JUMPDEST PUSH1 0x2 PUSH0 DUP2 SLOAD DUP1 SWAP3 SWAP2 SWAP1 PUSH2 0x874 SWAP1 PUSH2 0x12A4 JUMP JUMPDEST SWAP2 SWAP1 POP SSTORE POP PUSH0 PUSH2 0x885 PUSH1 0x2 SLOAD PUSH2 0xA4B JUMP JUMPDEST SWAP1 POP PUSH1 0x40 MLOAD DUP1 PUSH1 0xC0 ADD PUSH1 0x40 MSTORE DUP1 PUSH1 0x2 SLOAD DUP2 MSTORE PUSH1 0x20 ADD DUP6 DUP2 MSTORE PUSH1 0x20 ADD DUP5 DUP2 MSTORE PUSH1 0x20 ADD DUP4 DUP2 MSTORE PUSH1 0x20 ADD DUP3 DUP2 MSTORE PUSH1 0x20 ADD TIMESTAMP DUP2 MSTORE POP PUSH1 0x1 PUSH0 PUSH1 0x2 SLOAD DUP2 MSTORE PUSH1 0x20 ADD SWAP1 DUP2 MSTORE PUSH1 0x20 ADD PUSH0 KECCAK256 PUSH0 DUP3 ADD MLOAD DUP2 PUSH0 ADD SSTORE PUSH1 0x20 DUP3 ADD MLOAD DUP2 PUSH1 0x1 ADD SWAP1 DUP2 PUSH2 0x8E6 SWAP2 SWAP1 PUSH2 0x1488 JUMP JUMPDEST POP PUSH1 0x40 DUP3 ADD MLOAD DUP2 PUSH1 0x2 ADD SWAP1 DUP2 PUSH2 0x8FC SWAP2 SWAP1 PUSH2 0x1488 JUMP JUMPDEST POP PUSH1 0x60 DUP3 ADD MLOAD DUP2 PUSH1 0x3 ADD SWAP1 DUP2 PUSH2 0x912 SWAP2 SWAP1 PUSH2 0x1488 JUMP JUMPDEST POP PUSH1 0x80 DUP3 ADD MLOAD DUP2 PUSH1 0x4 ADD SSTORE PUSH1 0xA0 DUP3 ADD MLOAD DUP2 PUSH1 0x5 ADD SSTORE SWAP1 POP POP PUSH32 0x3BA748871CC1A0B62A12D27E88AD1EC2DEE12E3C49269217680D7BE9E45B5E7A PUSH1 0x2 SLOAD DUP6 DUP6 DUP6 DUP6 TIMESTAMP PUSH1 0x40 MLOAD PUSH2 0x965 SWAP7 SWAP6 SWAP5 SWAP4 SWAP3 SWAP2 SWAP1 PUSH2 0xE2D JUMP JUMPDEST PUSH1 0x40 MLOAD DUP1 SWAP2 SUB SWAP1 LOG1 PUSH32 0xF4E905DCD43D9CFFE46A3DF00335E24CF2C820F161C4F695211FE1EDC00936E3 PUSH1 0x2 SLOAD DUP3 PUSH1 0x40 MLOAD PUSH2 0x9A0 SWAP3 SWAP2 SWAP1 PUSH2 0x1557 JUMP JUMPDEST PUSH1 0x40 MLOAD DUP1 SWAP2 SUB SWAP1 LOG1 POP POP POP POP JUMP JUMPDEST PUSH1 0x60 PUSH0 PUSH1 0x2 SLOAD PUSH8 0xFFFFFFFFFFFFFFFF DUP2 GT ISZERO PUSH2 0x9CD JUMPI PUSH2 0x9CC PUSH2 0xEC2 JUMP JUMPDEST JUMPDEST PUSH1 0x40 MLOAD SWAP1 DUP1 DUP3 MSTORE DUP1 PUSH1 0x20 MUL PUSH1 0x20 ADD DUP3 ADD PUSH1 0x40 MSTORE DUP1 ISZERO PUSH2 0x9FB JUMPI DUP2 PUSH1 0x20 ADD PUSH1 0x20 DUP3 MUL DUP1 CALLDATASIZE DUP4 CALLDATACOPY DUP1 DUP3 ADD SWAP2 POP POP SWAP1 POP JUMPDEST POP SWAP1 POP PUSH0 JUMPDEST PUSH1 0x2 SLOAD DUP2 LT ISZERO PUSH2 0xA43 JUMPI PUSH1 0x1 DUP2 PUSH2 0xA17 SWAP2 SWAP1 PUSH2 0x117F JUMP JUMPDEST DUP3 DUP3 DUP2 MLOAD DUP2 LT PUSH2 0xA2A JUMPI PUSH2 0xA29 PUSH2 0x120F JUMP JUMPDEST JUMPDEST PUSH1 0x20 MUL PUSH1 0x20 ADD ADD DUP2 DUP2 MSTORE POP POP DUP1 DUP1 PUSH1 0x1 ADD SWAP2 POP POP PUSH2 0xA00 JUMP JUMPDEST POP DUP1 SWAP2 POP POP SWAP1 JUMP JUMPDEST PUSH0 PUSH1 0x64 TIMESTAMP PUSH1 0x1 PUSH0 DUP6 DUP2 MSTORE PUSH1 0x20 ADD SWAP1 DUP2 MSTORE PUSH1 0x20 ADD PUSH0 KECCAK256 PUSH1 0x1 ADD PUSH1 0x40 MLOAD PUSH1 0x20 ADD PUSH2 0xA74 SWAP3 SWAP2 SWAP1 PUSH2 0x1628 JUMP JUMPDEST PUSH1 0x40 MLOAD PUSH1 0x20 DUP2 DUP4 SUB SUB DUP2 MSTORE SWAP1 PUSH1 0x40 MSTORE DUP1 MLOAD SWAP1 PUSH1 0x20 ADD KECCAK256 PUSH0 SHR PUSH2 0xA96 SWAP2 SWAP1 PUSH2 0x167C JUMP JUMPDEST SWAP1 POP SWAP2 SWAP1 POP JUMP JUMPDEST PUSH1 0x40 MLOAD DUP1 PUSH1 0xC0 ADD PUSH1 0x40 MSTORE DUP1 PUSH0 DUP2 MSTORE PUSH1 0x20 ADD PUSH1 0x60 DUP2 MSTORE PUSH1 0x20 ADD PUSH1 0x60 DUP2 MSTORE PUSH1 0x20 ADD PUSH1 0x60 DUP2 MSTORE PUSH1 0x20 ADD PUSH0 DUP2 MSTORE PUSH1 0x20 ADD PUSH0 DUP2 MSTORE POP SWAP1 JUMP JUMPDEST PUSH0 DUP2 MLOAD SWAP1 POP SWAP2 SWAP1 POP JUMP JUMPDEST PUSH0 DUP3 DUP3 MSTORE PUSH1 0x20 DUP3 ADD SWAP1 POP SWAP3 SWAP2 POP POP JUMP JUMPDEST PUSH0 DUP2 SWAP1 POP PUSH1 0x20 DUP3 ADD SWAP1 POP SWAP2 SWAP1 POP JUMP JUMPDEST PUSH0 DUP2 SWAP1 POP SWAP2 SWAP1 POP JUMP JUMPDEST PUSH2 0xB0B DUP2 PUSH2 0xAF9 JUMP JUMPDEST DUP3 MSTORE POP POP JUMP JUMPDEST PUSH0 DUP2 MLOAD SWAP1 POP SWAP2 SWAP1 POP JUMP JUMPDEST PUSH0 DUP3 DUP3 MSTORE PUSH1 0x20 DUP3 ADD SWAP1 POP SWAP3 SWAP2 POP POP JUMP JUMPDEST DUP3 DUP2 DUP4 MCOPY PUSH0 DUP4 DUP4 ADD MSTORE POP POP POP JUMP JUMPDEST PUSH0 PUSH1 0x1F NOT PUSH1 0x1F DUP4 ADD AND SWAP1 POP SWAP2 SWAP1 POP JUMP JUMPDEST PUSH0 PUSH2 0xB53 DUP3 PUSH2 0xB11 JUMP JUMPDEST PUSH2 0xB5D DUP2 DUP6 PUSH2 0xB1B JUMP JUMPDEST SWAP4 POP PUSH2 0xB6D DUP2 DUP6 PUSH1 0x20 DUP7 ADD PUSH2 0xB2B JUMP JUMPDEST PUSH2 0xB76 DUP2 PUSH2 0xB39 JUMP JUMPDEST DUP5 ADD SWAP2 POP POP SWAP3 SWAP2 POP POP JUMP JUMPDEST PUSH0 PUSH1 0xC0 DUP4 ADD PUSH0 DUP4 ADD MLOAD PUSH2 0xB96 PUSH0 DUP7 ADD DUP3 PUSH2 0xB02 JUMP JUMPDEST POP PUSH1 0x20 DUP4 ADD MLOAD DUP5 DUP3 SUB PUSH1 0x20 DUP7 ADD MSTORE PUSH2 0xBAE DUP3 DUP3 PUSH2 0xB49 JUMP JUMPDEST SWAP2 POP POP PUSH1 0x40 DUP4 ADD MLOAD DUP5 DUP3 SUB PUSH1 0x40 DUP7 ADD MSTORE PUSH2 0xBC8 DUP3 DUP3 PUSH2 0xB49 JUMP JUMPDEST SWAP2 POP POP PUSH1 0x60 DUP4 ADD MLOAD DUP5 DUP3 SUB PUSH1 0x60 DUP7 ADD MSTORE PUSH2 0xBE2 DUP3 DUP3 PUSH2 0xB49 JUMP JUMPDEST SWAP2 POP POP PUSH1 0x80 DUP4 ADD MLOAD PUSH2 0xBF7 PUSH1 0x80 DUP7 ADD DUP3 PUSH2 0xB02 JUMP JUMPDEST POP PUSH1 0xA0 DUP4 ADD MLOAD PUSH2 0xC0A PUSH1 0xA0 DUP7 ADD DUP3 PUSH2 0xB02 JUMP JUMPDEST POP DUP1 SWAP2 POP POP SWAP3 SWAP2 POP POP JUMP JUMPDEST PUSH0 PUSH2 0xC20 DUP4 DUP4 PUSH2 0xB81 JUMP JUMPDEST SWAP1 POP SWAP3 SWAP2 POP POP JUMP JUMPDEST PUSH0 PUSH1 0x20 DUP3 ADD SWAP1 POP SWAP2 SWAP1 POP JUMP JUMPDEST PUSH0 PUSH2 0xC3E DUP3 PUSH2 0xAD0 JUMP JUMPDEST PUSH2 0xC48 DUP2 DUP6 PUSH2 0xADA JUMP JUMPDEST SWAP4 POP DUP4 PUSH1 0x20 DUP3 MUL DUP6 ADD PUSH2 0xC5A DUP6 PUSH2 0xAEA JUMP JUMPDEST DUP1 PUSH0 JUMPDEST DUP6 DUP2 LT ISZERO PUSH2 0xC95 JUMPI DUP5 DUP5 SUB DUP10 MSTORE DUP2 MLOAD PUSH2 0xC76 DUP6 DUP3 PUSH2 0xC15 JUMP JUMPDEST SWAP5 POP PUSH2 0xC81 DUP4 PUSH2 0xC28 JUMP JUMPDEST SWAP3 POP PUSH1 0x20 DUP11 ADD SWAP10 POP POP PUSH1 0x1 DUP2 ADD SWAP1 POP PUSH2 0xC5D JUMP JUMPDEST POP DUP3 SWAP8 POP DUP8 SWAP6 POP POP POP POP POP POP SWAP3 SWAP2 POP POP JUMP JUMPDEST PUSH0 PUSH1 0x20 DUP3 ADD SWAP1 POP DUP2 DUP2 SUB PUSH0 DUP4 ADD MSTORE PUSH2 0xCBF DUP2 DUP5 PUSH2 0xC34 JUMP JUMPDEST SWAP1 POP SWAP3 SWAP2 POP POP JUMP JUMPDEST PUSH0 PUSH1 0x40 MLOAD SWAP1 POP SWAP1 JUMP JUMPDEST PUSH0 DUP1 REVERT JUMPDEST PUSH0 DUP1 REVERT JUMPDEST PUSH2 0xCE1 DUP2 PUSH2 0xAF9 JUMP JUMPDEST DUP2 EQ PUSH2 0xCEB JUMPI PUSH0 DUP1 REVERT JUMPDEST POP JUMP JUMPDEST PUSH0 DUP2 CALLDATALOAD SWAP1 POP PUSH2 0xCFC DUP2 PUSH2 0xCD8 JUMP JUMPDEST SWAP3 SWAP2 POP POP JUMP JUMPDEST PUSH0 PUSH1 0x20 DUP3 DUP5 SUB SLT ISZERO PUSH2 0xD17 JUMPI PUSH2 0xD16 PUSH2 0xCD0 JUMP JUMPDEST JUMPDEST PUSH0 PUSH2 0xD24 DUP5 DUP3 DUP6 ADD PUSH2 0xCEE JUMP JUMPDEST SWAP2 POP POP SWAP3 SWAP2 POP POP JUMP JUMPDEST PUSH0 DUP3 DUP3 MSTORE PUSH1 0x20 DUP3 ADD SWAP1 POP SWAP3 SWAP2 POP POP JUMP JUMPDEST PUSH0 PUSH2 0xD47 DUP3 PUSH2 0xB11 JUMP JUMPDEST PUSH2 0xD51 DUP2 DUP6 PUSH2 0xD2D JUMP JUMPDEST SWAP4 POP PUSH2 0xD61 DUP2 DUP6 PUSH1 0x20 DUP7 ADD PUSH2 0xB2B JUMP JUMPDEST PUSH2 0xD6A DUP2 PUSH2 0xB39 JUMP JUMPDEST DUP5 ADD SWAP2 POP POP SWAP3 SWAP2 POP POP JUMP JUMPDEST PUSH2 0xD7E DUP2 PUSH2 0xAF9 JUMP JUMPDEST DUP3 MSTORE POP POP JUMP JUMPDEST PUSH0 PUSH1 0x80 DUP3 ADD SWAP1 POP DUP2 DUP2 SUB PUSH0 DUP4 ADD MSTORE PUSH2 0xD9C DUP2 DUP8 PUSH2 0xD3D JUMP JUMPDEST SWAP1 POP DUP2 DUP2 SUB PUSH1 0x20 DUP4 ADD MSTORE PUSH2 0xDB0 DUP2 DUP7 PUSH2 0xD3D JUMP JUMPDEST SWAP1 POP PUSH2 0xDBF PUSH1 0x40 DUP4 ADD DUP6 PUSH2 0xD75 JUMP JUMPDEST PUSH2 0xDCC PUSH1 0x60 DUP4 ADD DUP5 PUSH2 0xD75 JUMP JUMPDEST SWAP6 SWAP5 POP POP POP POP POP JUMP JUMPDEST PUSH0 PUSH20 0xFFFFFFFFFFFFFFFFFFFFFFFFFFFFFFFFFFFFFFFF DUP3 AND SWAP1 POP SWAP2 SWAP1 POP JUMP JUMPDEST PUSH0 PUSH2 0xDFE DUP3 PUSH2 0xDD5 JUMP JUMPDEST SWAP1 POP SWAP2 SWAP1 POP JUMP JUMPDEST PUSH2 0xE0E DUP2 PUSH2 0xDF4 JUMP JUMPDEST DUP3 MSTORE POP POP JUMP JUMPDEST PUSH0 PUSH1 0x20 DUP3 ADD SWAP1 POP PUSH2 0xE27 PUSH0 DUP4 ADD DUP5 PUSH2 0xE05 JUMP JUMPDEST SWAP3 SWAP2 POP POP JUMP JUMPDEST PUSH0 PUSH1 0xC0 DUP3 ADD SWAP1 POP PUSH2 0xE40 PUSH0 DUP4 ADD DUP10 PUSH2 0xD75 JUMP JUMPDEST DUP2 DUP2 SUB PUSH1 0x20 DUP4 ADD MSTORE PUSH2 0xE52 DUP2 DUP9 PUSH2 0xD3D JUMP JUMPDEST SWAP1 POP DUP2 DUP2 SUB PUSH1 0x40 DUP4 ADD MSTORE PUSH2 0xE66 DUP2 DUP8 PUSH2 0xD3D JUMP JUMPDEST SWAP1 POP DUP2 DUP2 SUB PUSH1 0x60 DUP4 ADD MSTORE PUSH2 0xE7A DUP2 DUP7 PUSH2 0xD3D JUMP JUMPDEST SWAP1 POP PUSH2 0xE89 PUSH1 0x80 DUP4 ADD DUP6 PUSH2 0xD75 JUMP JUMPDEST PUSH2 0xE96 PUSH1 0xA0 DUP4 ADD DUP5 PUSH2 0xD75 JUMP JUMPDEST SWAP8 SWAP7 POP POP POP POP POP POP POP JUMP JUMPDEST PUSH0 PUSH1 0x20 DUP3 ADD SWAP1 POP PUSH2 0xEB4 PUSH0 DUP4 ADD DUP5 PUSH2 0xD75 JUMP JUMPDEST SWAP3 SWAP2 POP POP JUMP JUMPDEST PUSH0 DUP1 REVERT JUMPDEST PUSH0 DUP1 REVERT JUMPDEST PUSH32 0x4E487B7100000000000000000000000000000000000000000000000000000000 PUSH0 MSTORE PUSH1 0x41 PUSH1 0x4 MSTORE PUSH1 0x24 PUSH0 REVERT JUMPDEST PUSH2 0xEF8 DUP3 PUSH2 0xB39 JUMP JUMPDEST DUP2 ADD DUP2 DUP2 LT PUSH8 0xFFFFFFFFFFFFFFFF DUP3 GT OR ISZERO PUSH2 0xF17 JUMPI PUSH2 0xF16 PUSH2 0xEC2 JUMP JUMPDEST JUMPDEST DUP1 PUSH1 0x40 MSTORE POP POP POP JUMP JUMPDEST PUSH0 PUSH2 0xF29 PUSH2 0xCC7 JUMP JUMPDEST SWAP1 POP PUSH2 0xF35 DUP3 DUP3 PUSH2 0xEEF JUMP JUMPDEST SWAP2 SWAP1 POP JUMP JUMPDEST PUSH0 PUSH8 0xFFFFFFFFFFFFFFFF DUP3 GT ISZERO PUSH2 0xF54 JUMPI PUSH2 0xF53 PUSH2 0xEC2 JUMP JUMPDEST JUMPDEST PUSH2 0xF5D DUP3 PUSH2 0xB39 JUMP JUMPDEST SWAP1 POP PUSH1 0x20 DUP2 ADD SWAP1 POP SWAP2 SWAP1 POP JUMP JUMPDEST DUP3 DUP2 DUP4 CALLDATACOPY PUSH0 DUP4 DUP4 ADD MSTORE POP POP POP JUMP JUMPDEST PUSH0 PUSH2 0xF8A PUSH2 0xF85 DUP5 PUSH2 0xF3A JUMP JUMPDEST PUSH2 0xF20 JUMP JUMPDEST SWAP1 POP DUP3 DUP2 MSTORE PUSH1 0x20 DUP2 ADD DUP5 DUP5 DUP5 ADD GT ISZERO PUSH2 0xFA6 JUMPI PUSH2 0xFA5 PUSH2 0xEBE JUMP JUMPDEST JUMPDEST PUSH2 0xFB1 DUP5 DUP3 DUP6 PUSH2 0xF6A JUMP JUMPDEST POP SWAP4 SWAP3 POP POP POP JUMP JUMPDEST PUSH0 DUP3 PUSH1 0x1F DUP4 ADD SLT PUSH2 0xFCD JUMPI PUSH2 0xFCC PUSH2 0xEBA JUMP JUMPDEST JUMPDEST DUP2 CALLDATALOAD PUSH2 0xFDD DUP5 DUP3 PUSH1 0x20 DUP7 ADD PUSH2 0xF78 JUMP JUMPDEST SWAP2 POP POP SWAP3 SWAP2 POP POP JUMP JUMPDEST PUSH0 DUP1 PUSH0 PUSH1 0x60 DUP5 DUP7 SUB SLT ISZERO PUSH2 0xFFD JUMPI PUSH2 0xFFC PUSH2 0xCD0 JUMP JUMPDEST JUMPDEST PUSH0 DUP5 ADD CALLDATALOAD PUSH8 0xFFFFFFFFFFFFFFFF DUP2 GT ISZERO PUSH2 0x101A JUMPI PUSH2 0x1019 PUSH2 0xCD4 JUMP JUMPDEST JUMPDEST PUSH2 0x1026 DUP7 DUP3 DUP8 ADD PUSH2 0xFB9 JUMP JUMPDEST SWAP4 POP POP PUSH1 0x20 DUP5 ADD CALLDATALOAD PUSH8 0xFFFFFFFFFFFFFFFF DUP2 GT ISZERO PUSH2 0x1047 JUMPI PUSH2 0x1046 PUSH2 0xCD4 JUMP JUMPDEST JUMPDEST PUSH2 0x1053 DUP7 DUP3 DUP8 ADD PUSH2 0xFB9 JUMP JUMPDEST SWAP3 POP POP PUSH1 0x40 DUP5 ADD CALLDATALOAD PUSH8 0xFFFFFFFFFFFFFFFF DUP2 GT ISZERO PUSH2 0x1074 JUMPI PUSH2 0x1073 PUSH2 0xCD4 JUMP JUMPDEST JUMPDEST PUSH2 0x1080 DUP7 DUP3 DUP8 ADD PUSH2 0xFB9 JUMP JUMPDEST SWAP2 POP POP SWAP3 POP SWAP3 POP SWAP3 JUMP JUMPDEST PUSH0 DUP2 MLOAD SWAP1 POP SWAP2 SWAP1 POP JUMP JUMPDEST PUSH0 DUP3 DUP3 MSTORE PUSH1 0x20 DUP3 ADD SWAP1 POP SWAP3 SWAP2 POP POP JUMP JUMPDEST PUSH0 DUP2 SWAP1 POP PUSH1 0x20 DUP3 ADD SWAP1 POP SWAP2 SWAP1 POP JUMP JUMPDEST PUSH0 PUSH2 0x10BE DUP4 DUP4 PUSH2 0xB02 JUMP JUMPDEST PUSH1 0x20 DUP4 ADD SWAP1 POP SWAP3 SWAP2 POP POP JUMP JUMPDEST PUSH0 PUSH1 0x20 DUP3 ADD SWAP1 POP SWAP2 SWAP1 POP JUMP JUMPDEST PUSH0 PUSH2 0x10E0 DUP3 PUSH2 0x108A JUMP JUMPDEST PUSH2 0x10EA DUP2 DUP6 PUSH2 0x1094 JUMP JUMPDEST SWAP4 POP PUSH2 0x10F5 DUP4 PUSH2 0x10A4 JUMP JUMPDEST DUP1 PUSH0 JUMPDEST DUP4 DUP2 LT ISZERO PUSH2 0x1125 JUMPI DUP2 MLOAD PUSH2 0x110C DUP9 DUP3 PUSH2 0x10B3 JUMP JUMPDEST SWAP8 POP PUSH2 0x1117 DUP4 PUSH2 0x10CA JUMP JUMPDEST SWAP3 POP POP PUSH1 0x1 DUP2 ADD SWAP1 POP PUSH2 0x10F8 JUMP JUMPDEST POP DUP6 SWAP4 POP POP POP POP SWAP3 SWAP2 POP POP JUMP JUMPDEST PUSH0 PUSH1 0x20 DUP3 ADD SWAP1 POP DUP2 DUP2 SUB PUSH0 DUP4 ADD MSTORE PUSH2 0x114A DUP2 DUP5 PUSH2 0x10D6 JUMP JUMPDEST SWAP1 POP SWAP3 SWAP2 POP POP JUMP JUMPDEST PUSH32 0x4E487B7100000000000000000000000000000000000000000000000000000000 PUSH0 MSTORE PUSH1 0x11 PUSH1 0x4 MSTORE PUSH1 0x24 PUSH0 REVERT JUMPDEST PUSH0 PUSH2 0x1189 DUP3 PUSH2 0xAF9 JUMP JUMPDEST SWAP2 POP PUSH2 0x1194 DUP4 PUSH2 0xAF9 JUMP JUMPDEST SWAP3 POP DUP3 DUP3 ADD SWAP1 POP DUP1 DUP3 GT ISZERO PUSH2 0x11AC JUMPI PUSH2 0x11AB PUSH2 0x1152 JUMP JUMPDEST JUMPDEST SWAP3 SWAP2 POP POP JUMP JUMPDEST PUSH32 0x4E487B7100000000000000000000000000000000000000000000000000000000 PUSH0 MSTORE PUSH1 0x22 PUSH1 0x4 MSTORE PUSH1 0x24 PUSH0 REVERT JUMPDEST PUSH0 PUSH1 0x2 DUP3 DIV SWAP1 POP PUSH1 0x1 DUP3 AND DUP1 PUSH2 0x11F6 JUMPI PUSH1 0x7F DUP3 AND SWAP2 POP JUMPDEST PUSH1 0x20 DUP3 LT DUP2 SUB PUSH2 0x1209 JUMPI PUSH2 0x1208 PUSH2 0x11B2 JUMP JUMPDEST JUMPDEST POP SWAP2 SWAP1 POP JUMP JUMPDEST PUSH32 0x4E487B7100000000000000000000000000000000000000000000000000000000 PUSH0 MSTORE PUSH1 0x32 PUSH1 0x4 MSTORE PUSH1 0x24 PUSH0 REVERT JUMPDEST PUSH32 0x50616369656E74756C206E752065786973746121000000000000000000000000 PUSH0 DUP3 ADD MSTORE POP JUMP JUMPDEST PUSH0 PUSH2 0x1270 PUSH1 0x14 DUP4 PUSH2 0xD2D JUMP JUMPDEST SWAP2 POP PUSH2 0x127B DUP3 PUSH2 0x123C JUMP JUMPDEST PUSH1 0x20 DUP3 ADD SWAP1 POP SWAP2 SWAP1 POP JUMP JUMPDEST PUSH0 PUSH1 0x20 DUP3 ADD SWAP1 POP DUP2 DUP2 SUB PUSH0 DUP4 ADD MSTORE PUSH2 0x129D DUP2 PUSH2 0x1264 JUMP JUMPDEST SWAP1 POP SWAP2 SWAP1 POP JUMP JUMPDEST PUSH0 PUSH2 0x12AE DUP3 PUSH2 0xAF9 JUMP JUMPDEST SWAP2 POP PUSH32 0xFFFFFFFFFFFFFFFFFFFFFFFFFFFFFFFFFFFFFFFFFFFFFFFFFFFFFFFFFFFFFFFF DUP3 SUB PUSH2 0x12E0 JUMPI PUSH2 0x12DF PUSH2 0x1152 JUMP JUMPDEST JUMPDEST PUSH1 0x1 DUP3 ADD SWAP1 POP SWAP2 SWAP1 POP JUMP JUMPDEST PUSH0 DUP2 SWAP1 POP DUP2 PUSH0 MSTORE PUSH1 0x20 PUSH0 KECCAK256 SWAP1 POP SWAP2 SWAP1 POP JUMP JUMPDEST PUSH0 PUSH1 0x20 PUSH1 0x1F DUP4 ADD DIV SWAP1 POP SWAP2 SWAP1 POP JUMP JUMPDEST PUSH0 DUP3 DUP3 SHL SWAP1 POP SWAP3 SWAP2 POP POP JUMP JUMPDEST PUSH0 PUSH1 0x8 DUP4 MUL PUSH2 0x1347 PUSH32 0xFFFFFFFFFFFFFFFFFFFFFFFFFFFFFFFFFFFFFFFFFFFFFFFFFFFFFFFFFFFFFFFF DUP3 PUSH2 0x130C JUMP JUMPDEST PUSH2 0x1351 DUP7 DUP4 PUSH2 0x130C JUMP JUMPDEST SWAP6 POP DUP1 NOT DUP5 AND SWAP4 POP DUP1 DUP7 AND DUP5 OR SWAP3 POP POP POP SWAP4 SWAP3 POP POP POP JUMP JUMPDEST PUSH0 DUP2 SWAP1 POP SWAP2 SWAP1 POP JUMP JUMPDEST PUSH0 PUSH2 0x138C PUSH2 0x1387 PUSH2 0x1382 DUP5 PUSH2 0xAF9 JUMP JUMPDEST PUSH2 0x1369 JUMP JUMPDEST PUSH2 0xAF9 JUMP JUMPDEST SWAP1 POP SWAP2 SWAP1 POP JUMP JUMPDEST PUSH0 DUP2 SWAP1 POP SWAP2 SWAP1 POP JUMP JUMPDEST PUSH2 0x13A5 DUP4 PUSH2 0x1372 JUMP JUMPDEST PUSH2 0x13B9 PUSH2 0x13B1 DUP3 PUSH2 0x1393 JUMP JUMPDEST DUP5 DUP5 SLOAD PUSH2 0x1318 JUMP JUMPDEST DUP3 SSTORE POP POP POP POP JUMP JUMPDEST PUSH0 SWAP1 JUMP JUMPDEST PUSH2 0x13CD PUSH2 0x13C1 JUMP JUMPDEST PUSH2 0x13D8 DUP2 DUP5 DUP5 PUSH2 0x139C JUMP JUMPDEST POP POP POP JUMP JUMPDEST JUMPDEST DUP2 DUP2 LT ISZERO PUSH2 0x13FB JUMPI PUSH2 0x13F0 PUSH0 DUP3 PUSH2 0x13C5 JUMP JUMPDEST PUSH1 0x1 DUP2 ADD SWAP1 POP PUSH2 0x13DE JUMP JUMPDEST POP POP JUMP JUMPDEST PUSH1 0x1F DUP3 GT ISZERO PUSH2 0x1440 JUMPI PUSH2 0x1411 DUP2 PUSH2 0x12EB JUMP JUMPDEST PUSH2 0x141A DUP5 PUSH2 0x12FD JUMP JUMPDEST DUP2 ADD PUSH1 0x20 DUP6 LT ISZERO PUSH2 0x1429 JUMPI DUP2 SWAP1 POP JUMPDEST PUSH2 0x143D PUSH2 0x1435 DUP6 PUSH2 0x12FD JUMP JUMPDEST DUP4 ADD DUP3 PUSH2 0x13DD JUMP JUMPDEST POP POP JUMPDEST POP POP POP JUMP JUMPDEST PUSH0 DUP3 DUP3 SHR SWAP1 POP SWAP3 SWAP2 POP POP JUMP JUMPDEST PUSH0 PUSH2 0x1460 PUSH0 NOT DUP5 PUSH1 0x8 MUL PUSH2 0x1445 JUMP JUMPDEST NOT DUP1 DUP4 AND SWAP2 POP POP SWAP3 SWAP2 POP POP JUMP JUMPDEST PUSH0 PUSH2 0x1478 DUP4 DUP4 PUSH2 0x1451 JUMP JUMPDEST SWAP2 POP DUP3 PUSH1 0x2 MUL DUP3 OR SWAP1 POP SWAP3 SWAP2 POP POP JUMP JUMPDEST PUSH2 0x1491 DUP3 PUSH2 0xB11 JUMP JUMPDEST PUSH8 0xFFFFFFFFFFFFFFFF DUP2 GT ISZERO PUSH2 0x14AA JUMPI PUSH2 0x14A9 PUSH2 0xEC2 JUMP JUMPDEST JUMPDEST PUSH2 0x14B4 DUP3 SLOAD PUSH2 0x11DF JUMP JUMPDEST PUSH2 0x14BF DUP3 DUP3 DUP6 PUSH2 0x13FF JUMP JUMPDEST PUSH0 PUSH1 0x20 SWAP1 POP PUSH1 0x1F DUP4 GT PUSH1 0x1 DUP2 EQ PUSH2 0x14F0 JUMPI PUSH0 DUP5 ISZERO PUSH2 0x14DE JUMPI DUP3 DUP8 ADD MLOAD SWAP1 POP JUMPDEST PUSH2 0x14E8 DUP6 DUP3 PUSH2 0x146D JUMP JUMPDEST DUP7 SSTORE POP PUSH2 0x154F JUMP JUMPDEST PUSH1 0x1F NOT DUP5 AND PUSH2 0x14FE DUP7 PUSH2 0x12EB JUMP JUMPDEST PUSH0 JUMPDEST DUP3 DUP2 LT ISZERO PUSH2 0x1525 JUMPI DUP5 DUP10 ADD MLOAD DUP3 SSTORE PUSH1 0x1 DUP3 ADD SWAP2 POP PUSH1 0x20 DUP6 ADD SWAP5 POP PUSH1 0x20 DUP2 ADD SWAP1 POP PUSH2 0x1500 JUMP JUMPDEST DUP7 DUP4 LT ISZERO PUSH2 0x1542 JUMPI DUP5 DUP10 ADD MLOAD PUSH2 0x153E PUSH1 0x1F DUP10 AND DUP3 PUSH2 0x1451 JUMP JUMPDEST DUP4 SSTORE POP JUMPDEST PUSH1 0x1 PUSH1 0x2 DUP9 MUL ADD DUP9 SSTORE POP POP POP JUMPDEST POP POP POP POP POP POP JUMP JUMPDEST PUSH0 PUSH1 0x40 DUP3 ADD SWAP1 POP PUSH2 0x156A PUSH0 DUP4 ADD DUP6 PUSH2 0xD75 JUMP JUMPDEST PUSH2 0x1577 PUSH1 0x20 DUP4 ADD DUP5 PUSH2 0xD75 JUMP JUMPDEST SWAP4 SWAP3 POP POP POP JUMP JUMPDEST PUSH0 DUP2 SWAP1 POP SWAP2 SWAP1 POP JUMP JUMPDEST PUSH2 0x1598 PUSH2 0x1593 DUP3 PUSH2 0xAF9 JUMP JUMPDEST PUSH2 0x157E JUMP JUMPDEST DUP3 MSTORE POP POP JUMP JUMPDEST PUSH0 DUP2 SWAP1 POP SWAP3 SWAP2 POP POP JUMP JUMPDEST PUSH0 DUP2 SLOAD PUSH2 0x15B4 DUP2 PUSH2 0x11DF JUMP JUMPDEST PUSH2 0x15BE DUP2 DUP7 PUSH2 0x159E JUMP JUMPDEST SWAP5 POP PUSH1 0x1 DUP3 AND PUSH0 DUP2 EQ PUSH2 0x15D8 JUMPI PUSH1 0x1 DUP2 EQ PUSH2 0x15ED JUMPI PUSH2 0x161F JUMP JUMPDEST PUSH1 0xFF NOT DUP4 AND DUP7 MSTORE DUP2 ISZERO ISZERO DUP3 MUL DUP7 ADD SWAP4 POP PUSH2 0x161F JUMP JUMPDEST PUSH2 0x15F6 DUP6 PUSH2 0x12EB JUMP JUMPDEST PUSH0 JUMPDEST DUP4 DUP2 LT ISZERO PUSH2 0x1617 JUMPI DUP2 SLOAD DUP2 DUP10 ADD MSTORE PUSH1 0x1 DUP3 ADD SWAP2 POP PUSH1 0x20 DUP2 ADD SWAP1 POP PUSH2 0x15F8 JUMP JUMPDEST DUP4 DUP9 ADD SWAP6 POP POP POP JUMPDEST POP POP POP SWAP3 SWAP2 POP POP JUMP JUMPDEST PUSH0 PUSH2 0x1633 DUP3 DUP6 PUSH2 0x1587 JUMP JUMPDEST PUSH1 0x20 DUP3 ADD SWAP2 POP PUSH2 0x1643 DUP3 DUP5 PUSH2 0x15A8 JUMP JUMPDEST SWAP2 POP DUP2 SWAP1 POP SWAP4 SWAP3 POP POP POP JUMP JUMPDEST PUSH32 0x4E487B7100000000000000000000000000000000000000000000000000000000 PUSH0 MSTORE PUSH1 0x12 PUSH1 0x4 MSTORE PUSH1 0x24 PUSH0 REVERT JUMPDEST PUSH0 PUSH2 0x1686 DUP3 PUSH2 0xAF9 JUMP JUMPDEST SWAP2 POP PUSH2 0x1691 DUP4 PUSH2 0xAF9 JUMP JUMPDEST SWAP3 POP DUP3 PUSH2 0x16A1 JUMPI PUSH2 0x16A0 PUSH2 0x164F JUMP JUMPDEST JUMPDEST DUP3 DUP3 MOD SWAP1 POP SWAP3 SWAP2 POP POP JUMP INVALID LOG2 PUSH5 0x6970667358 0x22 SLT KECCAK256 PUSH6 0x3B2111924374 DUP2 0xCA PUSH13 0xD44B1E462B4F41932B11B74F40 0xC6 SLT TIMESTAMP 0xD2 0xE1 RETURN 0xDF ADDRESS 0xC5 PUSH5 0x736F6C6343 STOP ADDMOD BYTE STOP CALLER "
				},
				"gasEstimates": {
					"creation": {
						"codeDepositCost": "1171600",
						"executionCost": "30489",
						"totalCost": "1202089"
					},
					"external": {
						"getAllPatientIds()": "infinite",
						"getAllPatients()": "infinite",
						"getPatient(uint256)": "infinite",
						"owner()": "2550",
						"patientCount()": "2447",
						"patients(uint256)": "infinite",
						"registerPatient(string,string,string)": "infinite"
					},
					"internal": {
						"_calculateUrgency(uint256)": "infinite"
					}
				},
				"methodIdentifiers": {
					"getAllPatientIds()": "cff0572d",
					"getAllPatients()": "18a231a9",
					"getPatient(uint256)": "7d3a6796",
					"owner()": "8da5cb5b",
					"patientCount()": "a0303c41",
					"patients(uint256)": "93119a83",
					"registerPatient(string,string,string)": "be65437a"
				}
			},
			"storageLayout": {
				"storage": [
					{
						"astId": 16,
						"contract": "hackaton/TransplantRegistry.sol:TransplantRegistry",
						"label": "owner",
						"offset": 0,
						"slot": "0",
						"type": "t_address"
					},
					{
						"astId": 21,
						"contract": "hackaton/TransplantRegistry.sol:TransplantRegistry",
						"label": "patients",
						"offset": 0,
						"slot": "1",
						"type": "t_mapping(t_uint256,t_struct(Patient)14_storage)"
					},
					{
						"astId": 24,
						"contract": "hackaton/TransplantRegistry.sol:TransplantRegistry",
						"label": "patientCount",
						"offset": 0,
						"slot": "2",
						"type": "t_uint256"
					}
				],
				"types": {
					"t_address": {
						"encoding": "inplace",
						"label": "address",
						"numberOfBytes": "20"
					},
					"t_mapping(t_uint256,t_struct(Patient)14_storage)": {
						"encoding": "mapping",
						"key": "t_uint256",
						"label": "mapping(uint256 => struct TransplantRegistry.Patient)",
						"numberOfBytes": "32",
						"value": "t_struct(Patient)14_storage"
					},
					"t_string_storage": {
						"encoding": "bytes",
						"label": "string",
						"numberOfBytes": "32"
					},
					"t_struct(Patient)14_storage": {
						"encoding": "inplace",
						"label": "struct TransplantRegistry.Patient",
						"members": [
							{
								"astId": 3,
								"contract": "hackaton/TransplantRegistry.sol:TransplantRegistry",
								"label": "id",
								"offset": 0,
								"slot": "0",
								"type": "t_uint256"
							},
							{
								"astId": 5,
								"contract": "hackaton/TransplantRegistry.sol:TransplantRegistry",
								"label": "name",
								"offset": 0,
								"slot": "1",
								"type": "t_string_storage"
							},
							{
								"astId": 7,
								"contract": "hackaton/TransplantRegistry.sol:TransplantRegistry",
								"label": "gender",
								"offset": 0,
								"slot": "2",
								"type": "t_string_storage"
							},
							{
								"astId": 9,
								"contract": "hackaton/TransplantRegistry.sol:TransplantRegistry",
								"label": "bloodType",
								"offset": 0,
								"slot": "3",
								"type": "t_string_storage"
							},
							{
								"astId": 11,
								"contract": "hackaton/TransplantRegistry.sol:TransplantRegistry",
								"label": "urgencyLevel",
								"offset": 0,
								"slot": "4",
								"type": "t_uint256"
							},
							{
								"astId": 13,
								"contract": "hackaton/TransplantRegistry.sol:TransplantRegistry",
								"label": "waitingSince",
								"offset": 0,
								"slot": "5",
								"type": "t_uint256"
							}
						],
						"numberOfBytes": "192"
					},
					"t_uint256": {
						"encoding": "inplace",
						"label": "uint256",
						"numberOfBytes": "32"
					}
				}
			},
			"userdoc": {
				"kind": "user",
				"methods": {},
				"version": 1
			}
		}
	}
}