{
	"data": {
		"bytecode": {
			"linkReferences": {},
			"object": "6080604052348015600e575f80fd5b506106178061001c5f395ff3fe608060405234801561000f575f80fd5b506004361061004a575f3560e01c80630ee291eb1461004e57806312ad1c371461006c5780636d263ceb1461008a57806393119a83146100a6575b5f80fd5b6100566100d6565b60405161006391906102fe565b60405180910390f35b610074610199565b60405161008191906103ce565b60405180910390f35b6100a4600480360381019061009f919061041c565b610223565b005b6100c060048036038101906100bb919061047a565b610285565b6040516100cd91906102fe565b60405180910390f35b5f805f805490501161011d576040517f08c379a0000000000000000000000000000000000000000000000000000000008152600401610114906104ff565b60405180910390fd5b5f808054905042604051602001610134919061053d565b604051602081830303815290604052805190602001205f1c6101569190610584565b90505f818154811061016b5761016a6105b4565b5b905f5260205f20015f9054906101000a900473ffffffffffffffffffffffffffffffffffffffff1691505090565b60605f80548060200260200160405190810160405280929190818152602001828054801561021957602002820191905f5260205f20905b815f9054906101000a900473ffffffffffffffffffffffffffffffffffffffff1673ffffffffffffffffffffffffffffffffffffffff16815260200190600101908083116101d0575b5050505050905090565b5f81908060018154018082558091505060019003905f5260205f20015f9091909190916101000a81548173ffffffffffffffffffffffffffffffffffffffff021916908373ffffffffffffffffffffffffffffffffffffffff16021790555050565b5f8181548110610293575f80fd5b905f5260205f20015f915054906101000a900473ffffffffffffffffffffffffffffffffffffffff1681565b5f73ffffffffffffffffffffffffffffffffffffffff82169050919050565b5f6102e8826102bf565b9050919050565b6102f8816102de565b82525050565b5f6020820190506103115f8301846102ef565b92915050565b5f81519050919050565b5f82825260208201905092915050565b5f819050602082019050919050565b610349816102de565b82525050565b5f61035a8383610340565b60208301905092915050565b5f602082019050919050565b5f61037c82610317565b6103868185610321565b935061039183610331565b805f5b838110156103c15781516103a8888261034f565b97506103b383610366565b925050600181019050610394565b5085935050505092915050565b5f6020820190508181035f8301526103e68184610372565b905092915050565b5f80fd5b6103fb816102de565b8114610405575f80fd5b50565b5f81359050610416816103f2565b92915050565b5f60208284031215610431576104306103ee565b5b5f61043e84828501610408565b91505092915050565b5f819050919050565b61045981610447565b8114610463575f80fd5b50565b5f8135905061047481610450565b92915050565b5f6020828403121561048f5761048e6103ee565b5b5f61049c84828501610466565b91505092915050565b5f82825260208201905092915050565b7f4e6f2070617469656e747320696e2077616974696e67206c69737400000000005f82015250565b5f6104e9601b836104a5565b91506104f4826104b5565b602082019050919050565b5f6020820190508181035f830152610516816104dd565b9050919050565b5f819050919050565b61053761053282610447565b61051d565b82525050565b5f6105488284610526565b60208201915081905092915050565b7f4e487b71000000000000000000000000000000000000000000000000000000005f52601260045260245ffd5b5f61058e82610447565b915061059983610447565b9250826105a9576105a8610557565b5b828206905092915050565b7f4e487b71000000000000000000000000000000000000000000000000000000005f52603260045260245ffdfea2646970667358221220f19a1699cf23af8a778c31a2a2da3ae8dde326b789fb8b7721119b8f9083832264736f6c634300081a0033",
			"opcodes": "PUSH1 0x80 PUSH1 0x40 MSTORE CALLVALUE DUP1 ISZERO PUSH1 0xE JUMPI PUSH0 DUP1 REVERT JUMPDEST POP PUSH2 0x617 DUP1 PUSH2 0x1C PUSH0 CODECOPY PUSH0 RETURN INVALID PUSH1 0x80 PUSH1 0x40 MSTORE CALLVALUE DUP1 ISZERO PUSH2 0xF JUMPI PUSH0 DUP1 REVERT JUMPDEST POP PUSH1 0x4 CALLDATASIZE LT PUSH2 0x4A JUMPI PUSH0 CALLDATALOAD PUSH1 0xE0 SHR DUP1 PUSH4 0xEE291EB EQ PUSH2 0x4E JUMPI DUP1 PUSH4 0x12AD1C37 EQ PUSH2 0x6C JUMPI DUP1 PUSH4 0x6D263CEB EQ PUSH2 0x8A JUMPI DUP1 PUSH4 0x93119A83 EQ PUSH2 0xA6 JUMPI JUMPDEST PUSH0 DUP1 REVERT JUMPDEST PUSH2 0x56 PUSH2 0xD6 JUMP JUMPDEST PUSH1 0x40 MLOAD PUSH2 0x63 SWAP2 SWAP1 PUSH2 0x2FE JUMP JUMPDEST PUSH1 0x40 MLOAD DUP1 SWAP2 SUB SWAP1 RETURN JUMPDEST PUSH2 0x74 PUSH2 0x199 JUMP JUMPDEST PUSH1 0x40 MLOAD PUSH2 0x81 SWAP2 SWAP1 PUSH2 0x3CE JUMP JUMPDEST PUSH1 0x40 MLOAD DUP1 SWAP2 SUB SWAP1 RETURN JUMPDEST PUSH2 0xA4 PUSH1 0x4 DUP1 CALLDATASIZE SUB DUP2 ADD SWAP1 PUSH2 0x9F SWAP2 SWAP1 PUSH2 0x41C JUMP JUMPDEST PUSH2 0x223 JUMP JUMPDEST STOP JUMPDEST PUSH2 0xC0 PUSH1 0x4 DUP1 CALLDATASIZE SUB DUP2 ADD SWAP1 PUSH2 0xBB SWAP2 SWAP1 PUSH2 0x47A JUMP JUMPDEST PUSH2 0x285 JUMP JUMPDEST PUSH1 0x40 MLOAD PUSH2 0xCD SWAP2 SWAP1 PUSH2 0x2FE JUMP JUMPDEST PUSH1 0x40 MLOAD DUP1 SWAP2 SUB SWAP1 RETURN JUMPDEST PUSH0 DUP1 PUSH0 DUP1 SLOAD SWAP1 POP GT PUSH2 0x11D JUMPI PUSH1 0x40 MLOAD PUSH32 0x8C379A000000000000000000000000000000000000000000000000000000000 DUP2 MSTORE PUSH1 0x4 ADD PUSH2 0x114 SWAP1 PUSH2 0x4FF JUMP JUMPDEST PUSH1 0x40 MLOAD DUP1 SWAP2 SUB SWAP1 REVERT JUMPDEST PUSH0 DUP1 DUP1 SLOAD SWAP1 POP TIMESTAMP PUSH1 0x40 MLOAD PUSH1 0x20 ADD PUSH2 0x134 SWAP2 SWAP1 PUSH2 0x53D JUMP JUMPDEST PUSH1 0x40 MLOAD PUSH1 0x20 DUP2 DUP4 SUB SUB DUP2 MSTORE SWAP1 PUSH1 0x40 MSTORE DUP1 MLOAD SWAP1 PUSH1 0x20 ADD KECCAK256 PUSH0 SHR PUSH2 0x156 SWAP2 SWAP1 PUSH2 0x584 JUMP JUMPDEST SWAP1 POP PUSH0 DUP2 DUP2 SLOAD DUP2 LT PUSH2 0x16B JUMPI PUSH2 0x16A PUSH2 0x5B4 JUMP JUMPDEST JUMPDEST SWAP1 PUSH0 MSTORE PUSH1 0x20 PUSH0 KECCAK256 ADD PUSH0 SWAP1 SLOAD SWAP1 PUSH2 0x100 EXP SWAP1 DIV PUSH20 0xFFFFFFFFFFFFFFFFFFFFFFFFFFFFFFFFFFFFFFFF AND SWAP2 POP POP SWAP1 JUMP JUMPDEST PUSH1 0x60 PUSH0 DUP1 SLOAD DUP1 PUSH1 0x20 MUL PUSH1 0x20 ADD PUSH1 0x40 MLOAD SWAP1 DUP2 ADD PUSH1 0x40 MSTORE DUP1 SWAP3 SWAP2 SWAP1 DUP2 DUP2 MSTORE PUSH1 0x20 ADD DUP3 DUP1 SLOAD DUP1 ISZERO PUSH2 0x219 JUMPI PUSH1 0x20 MUL DUP3 ADD SWAP2 SWAP1 PUSH0 MSTORE PUSH1 0x20 PUSH0 KECCAK256 SWAP1 JUMPDEST DUP2 PUSH0 SWAP1 SLOAD SWAP1 PUSH2 0x100 EXP SWAP1 DIV PUSH20 0xFFFFFFFFFFFFFFFFFFFFFFFFFFFFFFFFFFFFFFFF AND PUSH20 0xFFFFFFFFFFFFFFFFFFFFFFFFFFFFFFFFFFFFFFFF AND DUP2 MSTORE PUSH1 0x20 ADD SWAP1 PUSH1 0x1 ADD SWAP1 DUP1 DUP4 GT PUSH2 0x1D0 JUMPI JUMPDEST POP POP POP POP POP SWAP1 POP SWAP1 JUMP JUMPDEST PUSH0 DUP2 SWAP1 DUP1 PUSH1 0x1 DUP2 SLOAD ADD DUP1 DUP3 SSTORE DUP1 SWAP2 POP POP PUSH1 0x1 SWAP1 SUB SWAP1 PUSH0 MSTORE PUSH1 0x20 PUSH0 KECCAK256 ADD PUSH0 SWAP1 SWAP2 SWAP1 SWAP2 SWAP1 SWAP2 PUSH2 0x100 EXP DUP2 SLOAD DUP2 PUSH20 0xFFFFFFFFFFFFFFFFFFFFFFFFFFFFFFFFFFFFFFFF MUL NOT AND SWAP1 DUP4 PUSH20 0xFFFFFFFFFFFFFFFFFFFFFFFFFFFFFFFFFFFFFFFF AND MUL OR SWAP1 SSTORE POP POP JUMP JUMPDEST PUSH0 DUP2 DUP2 SLOAD DUP2 LT PUSH2 0x293 JUMPI PUSH0 DUP1 REVERT JUMPDEST SWAP1 PUSH0 MSTORE PUSH1 0x20 PUSH0 KECCAK256 ADD PUSH0 SWAP2 POP SLOAD SWAP1 PUSH2 0x100 EXP SWAP1 DIV PUSH20 0xFFFFFFFFFFFFFFFFFFFFFFFFFFFFFFFFFFFFFFFF AND DUP2 JUMP JUMPDEST PUSH0 PUSH20 0xFFFFFFFFFFFFFFFFFFFFFFFFFFFFFFFFFFFFFFFF DUP3 AND SWAP1 POP SWAP2 SWAP1 POP JUMP JUMPDEST PUSH0 PUSH2 0x2E8 DUP3 PUSH2 0x2BF JUMP JUMPDEST SWAP1 POP SWAP2 SWAP1 POP JUMP JUMPDEST PUSH2 0x2F8 DUP2 PUSH2 0x2DE JUMP JUMPDEST DUP3 MSTORE POP POP JUMP JUMPDEST PUSH0 PUSH1 0x20 DUP3 ADD SWAP1 POP PUSH2 0x311 PUSH0 DUP4 ADD DUP5 PUSH2 0x2EF JUMP JUMPDEST SWAP3 SWAP2 POP POP JUMP JUMPDEST PUSH0 DUP2 MLOAD SWAP1 POP SWAP2 SWAP1 POP JUMP JUMPDEST PUSH0 DUP3 DUP3 MSTORE PUSH1 0x20 DUP3 ADD SWAP1 POP SWAP3 SWAP2 POP POP JUMP JUMPDEST PUSH0 DUP2 SWAP1 POP PUSH1 0x20 DUP3 ADD SWAP1 POP SWAP2 SWAP1 POP JUMP JUMPDEST PUSH2 0x349 DUP2 PUSH2 0x2DE JUMP JUMPDEST DUP3 MSTORE POP POP JUMP JUMPDEST PUSH0 PUSH2 0x35A DUP4 DUP4 PUSH2 0x340 JUMP JUMPDEST PUSH1 0x20 DUP4 ADD SWAP1 POP SWAP3 SWAP2 POP POP JUMP JUMPDEST PUSH0 PUSH1 0x20 DUP3 ADD SWAP1 POP SWAP2 SWAP1 POP JUMP JUMPDEST PUSH0 PUSH2 0x37C DUP3 PUSH2 0x317 JUMP JUMPDEST PUSH2 0x386 DUP2 DUP6 PUSH2 0x321 JUMP JUMPDEST SWAP4 POP PUSH2 0x391 DUP4 PUSH2 0x331 JUMP JUMPDEST DUP1 PUSH0 JUMPDEST DUP4 DUP2 LT ISZERO PUSH2 0x3C1 JUMPI DUP2 MLOAD PUSH2 0x3A8 DUP9 DUP3 PUSH2 0x34F JUMP JUMPDEST SWAP8 POP PUSH2 0x3B3 DUP4 PUSH2 0x366 JUMP JUMPDEST SWAP3 POP POP PUSH1 0x1 DUP2 ADD SWAP1 POP PUSH2 0x394 JUMP JUMPDEST POP DUP6 SWAP4 POP POP POP POP SWAP3 SWAP2 POP POP JUMP JUMPDEST PUSH0 PUSH1 0x20 DUP3 ADD SWAP1 POP DUP2 DUP2 SUB PUSH0 DUP4 ADD MSTORE PUSH2 0x3E6 DUP2 DUP5 PUSH2 0x372 JUMP JUMPDEST SWAP1 POP SWAP3 SWAP2 POP POP JUMP JUMPDEST PUSH0 DUP1 REVERT JUMPDEST PUSH2 0x3FB DUP2 PUSH2 0x2DE JUMP JUMPDEST DUP2 EQ PUSH2 0x405 JUMPI PUSH0 DUP1 REVERT JUMPDEST POP JUMP JUMPDEST PUSH0 DUP2 CALLDATALOAD SWAP1 POP PUSH2 0x416 DUP2 PUSH2 0x3F2 JUMP JUMPDEST SWAP3 SWAP2 POP POP JUMP JUMPDEST PUSH0 PUSH1 0x20 DUP3 DUP5 SUB SLT ISZERO PUSH2 0x431 JUMPI PUSH2 0x430 PUSH2 0x3EE JUMP JUMPDEST JUMPDEST PUSH0 PUSH2 0x43E DUP5 DUP3 DUP6 ADD PUSH2 0x408 JUMP JUMPDEST SWAP2 POP POP SWAP3 SWAP2 POP POP JUMP JUMPDEST PUSH0 DUP2 SWAP1 POP SWAP2 SWAP1 POP JUMP JUMPDEST PUSH2 0x459 DUP2 PUSH2 0x447 JUMP JUMPDEST DUP2 EQ PUSH2 0x463 JUMPI PUSH0 DUP1 REVERT JUMPDEST POP JUMP JUMPDEST PUSH0 DUP2 CALLDATALOAD SWAP1 POP PUSH2 0x474 DUP2 PUSH2 0x450 JUMP JUMPDEST SWAP3 SWAP2 POP POP JUMP JUMPDEST PUSH0 PUSH1 0x20 DUP3 DUP5 SUB SLT ISZERO PUSH2 0x48F JUMPI PUSH2 0x48E PUSH2 0x3EE JUMP JUMPDEST JUMPDEST PUSH0 PUSH2 0x49C DUP5 DUP3 DUP6 ADD PUSH2 0x466 JUMP JUMPDEST SWAP2 POP POP SWAP3 SWAP2 POP POP JUMP JUMPDEST PUSH0 DUP3 DUP3 MSTORE PUSH1 0x20 DUP3 ADD SWAP1 POP SWAP3 SWAP2 POP POP JUMP JUMPDEST PUSH32 0x4E6F2070617469656E747320696E2077616974696E67206C6973740000000000 PUSH0 DUP3 ADD MSTORE POP JUMP JUMPDEST PUSH0 PUSH2 0x4E9 PUSH1 0x1B DUP4 PUSH2 0x4A5 JUMP JUMPDEST SWAP2 POP PUSH2 0x4F4 DUP3 PUSH2 0x4B5 JUMP JUMPDEST PUSH1 0x20 DUP3 ADD SWAP1 POP SWAP2 SWAP1 POP JUMP JUMPDEST PUSH0 PUSH1 0x20 DUP3 ADD SWAP1 POP DUP2 DUP2 SUB PUSH0 DUP4 ADD MSTORE PUSH2 0x516 DUP2 PUSH2 0x4DD JUMP JUMPDEST SWAP1 POP SWAP2 SWAP1 POP JUMP JUMPDEST PUSH0 DUP2 SWAP1 POP SWAP2 SWAP1 POP JUMP JUMPDEST PUSH2 0x537 PUSH2 0x532 DUP3 PUSH2 0x447 JUMP JUMPDEST PUSH2 0x51D JUMP JUMPDEST DUP3 MSTORE POP POP JUMP JUMPDEST PUSH0 PUSH2 0x548 DUP3 DUP5 PUSH2 0x526 JUMP JUMPDEST PUSH1 0x20 DUP3 ADD SWAP2 POP DUP2 SWAP1 POP SWAP3 SWAP2 POP POP JUMP JUMPDEST PUSH32 0x4E487B7100000000000000000000000000000000000000000000000000000000 PUSH0 MSTORE PUSH1 0x12 PUSH1 0x4 MSTORE PUSH1 0x24 PUSH0 REVERT JUMPDEST PUSH0 PUSH2 0x58E DUP3 PUSH2 0x447 JUMP JUMPDEST SWAP2 POP PUSH2 0x599 DUP4 PUSH2 0x447 JUMP JUMPDEST SWAP3 POP DUP3 PUSH2 0x5A9 JUMPI PUSH2 0x5A8 PUSH2 0x557 JUMP JUMPDEST JUMPDEST DUP3 DUP3 MOD SWAP1 POP SWAP3 SWAP2 POP POP JUMP JUMPDEST PUSH32 0x4E487B7100000000000000000000000000000000000000000000000000000000 PUSH0 MSTORE PUSH1 0x32 PUSH1 0x4 MSTORE PUSH1 0x24 PUSH0 REVERT INVALID LOG2 PUSH5 0x6970667358 0x22 SLT KECCAK256 CALL SWAP11 AND SWAP10 0xCF 0x23 0xAF DUP11 PUSH24 0x8C31A2A2DA3AE8DDE326B789FB8B7721119B8F9083832264 PUSH20 0x6F6C634300081A00330000000000000000000000 "
		},
		"gasEstimates": {
			"creation": {
				"codeDepositCost": "311800",
				"executionCost": "347",
				"totalCost": "312147"
			},
			"external": {
				"addPatient(address)": "49046",
				"getPatients()": "infinite",
				"patients(uint256)": "4987",
				"selectRandomPatient()": "infinite"
			}
		},
		"methodIdentifiers": {
			"addPatient(address)": "6d263ceb",
			"getPatients()": "12ad1c37",
			"patients(uint256)": "93119a83",
			"selectRandomPatient()": "0ee291eb"
		}
	},
	"abi": [
		{
			"inputs": [
				{
					"internalType": "address",
					"name": "patient",
					"type": "address"
				}
			],
			"name": "addPatient",
			"outputs": [],
			"stateMutability": "nonpayable",
			"type": "function"
		},
		{
			"inputs": [],
			"name": "getPatients",
			"outputs": [
				{
					"internalType": "address[]",
					"name": "",
					"type": "address[]"
				}
			],
			"stateMutability": "view",
			"type": "function"
		},
		{
			"inputs": [
				{
					"internalType": "uint256",
					"name": "",
					"type": "uint256"
				}
			],
			"name": "patients",
			"outputs": [
				{
					"internalType": "address",
					"name": "",
					"type": "address"
				}
			],
			"stateMutability": "view",
			"type": "function"
		},
		{
			"inputs": [],
			"name": "selectRandomPatient",
			"outputs": [
				{
					"internalType": "address",
					"name": "",
					"type": "address"
				}
			],
			"stateMutability": "view",
			"type": "function"
		}
	]
}