{
	"estate/Escrow.sol": {
		"Escrow": {
			"abi": [
				{
					"inputs": [
						{
							"internalType": "address",
							"name": "_nftAddress",
							"type": "address"
						},
						{
							"internalType": "address payable",
							"name": "_seller",
							"type": "address"
						},
						{
							"internalType": "address",
							"name": "_lender",
							"type": "address"
						},
						{
							"internalType": "address",
							"name": "_inspector",
							"type": "address"
						}
					],
					"stateMutability": "nonpayable",
					"type": "constructor"
				},
				{
					"inputs": [
						{
							"internalType": "uint256",
							"name": "",
							"type": "uint256"
						},
						{
							"internalType": "address",
							"name": "",
							"type": "address"
						}
					],
					"name": "approval",
					"outputs": [
						{
							"internalType": "bool",
							"name": "",
							"type": "bool"
						}
					],
					"stateMutability": "view",
					"type": "function"
				},
				{
					"inputs": [
						{
							"internalType": "uint256",
							"name": "_nftID",
							"type": "uint256"
						}
					],
					"name": "approveSale",
					"outputs": [],
					"stateMutability": "nonpayable",
					"type": "function"
				},
				{
					"inputs": [
						{
							"internalType": "uint256",
							"name": "",
							"type": "uint256"
						}
					],
					"name": "buyer",
					"outputs": [
						{
							"internalType": "address",
							"name": "",
							"type": "address"
						}
					],
					"stateMutability": "view",
					"type": "function"
				},
				{
					"inputs": [
						{
							"internalType": "uint256",
							"name": "_nftID",
							"type": "uint256"
						}
					],
					"name": "cancelSale",
					"outputs": [],
					"stateMutability": "nonpayable",
					"type": "function"
				},
				{
					"inputs": [],
					"name": "deposit",
					"outputs": [],
					"stateMutability": "payable",
					"type": "function"
				},
				{
					"inputs": [
						{
							"internalType": "uint256",
							"name": "_nftID",
							"type": "uint256"
						}
					],
					"name": "depositEarnest",
					"outputs": [],
					"stateMutability": "payable",
					"type": "function"
				},
				{
					"inputs": [
						{
							"internalType": "address",
							"name": "",
							"type": "address"
						}
					],
					"name": "deposits",
					"outputs": [
						{
							"internalType": "uint256",
							"name": "",
							"type": "uint256"
						}
					],
					"stateMutability": "view",
					"type": "function"
				},
				{
					"inputs": [
						{
							"internalType": "uint256",
							"name": "",
							"type": "uint256"
						}
					],
					"name": "escrowAmount",
					"outputs": [
						{
							"internalType": "uint256",
							"name": "",
							"type": "uint256"
						}
					],
					"stateMutability": "view",
					"type": "function"
				},
				{
					"inputs": [
						{
							"internalType": "uint256",
							"name": "_nftID",
							"type": "uint256"
						}
					],
					"name": "finalizeSale",
					"outputs": [],
					"stateMutability": "nonpayable",
					"type": "function"
				},
				{
					"inputs": [],
					"name": "getBalance",
					"outputs": [
						{
							"internalType": "uint256",
							"name": "",
							"type": "uint256"
						}
					],
					"stateMutability": "view",
					"type": "function"
				},
				{
					"inputs": [
						{
							"internalType": "uint256",
							"name": "",
							"type": "uint256"
						}
					],
					"name": "inspectionPassed",
					"outputs": [
						{
							"internalType": "bool",
							"name": "",
							"type": "bool"
						}
					],
					"stateMutability": "view",
					"type": "function"
				},
				{
					"inputs": [],
					"name": "inspector",
					"outputs": [
						{
							"internalType": "address",
							"name": "",
							"type": "address"
						}
					],
					"stateMutability": "view",
					"type": "function"
				},
				{
					"inputs": [
						{
							"internalType": "uint256",
							"name": "",
							"type": "uint256"
						}
					],
					"name": "isListed",
					"outputs": [
						{
							"internalType": "bool",
							"name": "",
							"type": "bool"
						}
					],
					"stateMutability": "view",
					"type": "function"
				},
				{
					"inputs": [],
					"name": "lender",
					"outputs": [
						{
							"internalType": "address",
							"name": "",
							"type": "address"
						}
					],
					"stateMutability": "view",
					"type": "function"
				},
				{
					"inputs": [
						{
							"internalType": "uint256",
							"name": "_nftID",
							"type": "uint256"
						},
						{
							"internalType": "address",
							"name": "_buyer",
							"type": "address"
						},
						{
							"internalType": "uint256",
							"name": "_purchasePrice",
							"type": "uint256"
						},
						{
							"internalType": "uint256",
							"name": "_escrowAmount",
							"type": "uint256"
						}
					],
					"name": "list",
					"outputs": [],
					"stateMutability": "payable",
					"type": "function"
				},
				{
					"inputs": [],
					"name": "nftAddress",
					"outputs": [
						{
							"internalType": "address",
							"name": "",
							"type": "address"
						}
					],
					"stateMutability": "view",
					"type": "function"
				},
				{
					"inputs": [
						{
							"internalType": "uint256",
							"name": "",
							"type": "uint256"
						}
					],
					"name": "purchasePrice",
					"outputs": [
						{
							"internalType": "uint256",
							"name": "",
							"type": "uint256"
						}
					],
					"stateMutability": "view",
					"type": "function"
				},
				{
					"inputs": [],
					"name": "seller",
					"outputs": [
						{
							"internalType": "address payable",
							"name": "",
							"type": "address"
						}
					],
					"stateMutability": "view",
					"type": "function"
				},
				{
					"inputs": [
						{
							"internalType": "uint256",
							"name": "_nftID",
							"type": "uint256"
						},
						{
							"internalType": "bool",
							"name": "_passed",
							"type": "bool"
						}
					],
					"name": "updateInspectionStatus",
					"outputs": [],
					"stateMutability": "nonpayable",
					"type": "function"
				},
				{
					"stateMutability": "payable",
					"type": "receive"
				}
			],
			"devdoc": {
				"kind": "dev",
				"methods": {},
				"version": 1
			},
			"evm": {
				"assembly": "    /* \"estate/Escrow.sol\":192:4174  contract Escrow {... */\n  mstore(0x40, 0x80)\n    /* \"estate/Escrow.sol\":795:1052  constructor(... */\n  callvalue\n  dup1\n  iszero\n  tag_1\n  jumpi\n  0x00\n  dup1\n  revert\ntag_1:\n  pop\n  mload(0x40)\n  sub(codesize, bytecodeSize)\n  dup1\n  bytecodeSize\n  dup4\n  codecopy\n  dup2\n  dup2\n  add\n  0x40\n  mstore\n  dup2\n  add\n  swap1\n  tag_2\n  swap2\n  swap1\n  tag_3\n  jump\t// in\ntag_2:\n    /* \"estate/Escrow.sol\":950:961  _nftAddress */\n  dup4\n    /* \"estate/Escrow.sol\":937:947  nftAddress */\n  0x00\n  dup1\n    /* \"estate/Escrow.sol\":937:961  nftAddress = _nftAddress */\n  0x0100\n  exp\n  dup2\n  sload\n  dup2\n  0xffffffffffffffffffffffffffffffffffffffff\n  mul\n  not\n  and\n  swap1\n  dup4\n  0xffffffffffffffffffffffffffffffffffffffff\n  and\n  mul\n  or\n  swap1\n  sstore\n  pop\n    /* \"estate/Escrow.sol\":980:987  _seller */\n  dup3\n    /* \"estate/Escrow.sol\":971:977  seller */\n  0x01\n  0x00\n    /* \"estate/Escrow.sol\":971:987  seller = _seller */\n  0x0100\n  exp\n  dup2\n  sload\n  dup2\n  0xffffffffffffffffffffffffffffffffffffffff\n  mul\n  not\n  and\n  swap1\n  dup4\n  0xffffffffffffffffffffffffffffffffffffffff\n  and\n  mul\n  or\n  swap1\n  sstore\n  pop\n    /* \"estate/Escrow.sol\":1006:1013  _lender */\n  dup2\n    /* \"estate/Escrow.sol\":997:1003  lender */\n  0x02\n  0x00\n    /* \"estate/Escrow.sol\":997:1013  lender = _lender */\n  0x0100\n  exp\n  dup2\n  sload\n  dup2\n  0xffffffffffffffffffffffffffffffffffffffff\n  mul\n  not\n  and\n  swap1\n  dup4\n  0xffffffffffffffffffffffffffffffffffffffff\n  and\n  mul\n  or\n  swap1\n  sstore\n  pop\n    /* \"estate/Escrow.sol\":1035:1045  _inspector */\n  dup1\n    /* \"estate/Escrow.sol\":1023:1032  inspector */\n  0x03\n  0x00\n    /* \"estate/Escrow.sol\":1023:1045  inspector = _inspector */\n  0x0100\n  exp\n  dup2\n  sload\n  dup2\n  0xffffffffffffffffffffffffffffffffffffffff\n  mul\n  not\n  and\n  swap1\n  dup4\n  0xffffffffffffffffffffffffffffffffffffffff\n  and\n  mul\n  or\n  swap1\n  sstore\n  pop\n    /* \"estate/Escrow.sol\":795:1052  constructor(... */\n  pop\n  pop\n  pop\n  pop\n    /* \"estate/Escrow.sol\":192:4174  contract Escrow {... */\n  jump(tag_6)\n    /* \"#utility.yul\":88:205   */\ntag_8:\n    /* \"#utility.yul\":197:198   */\n  0x00\n    /* \"#utility.yul\":194:195   */\n  dup1\n    /* \"#utility.yul\":187:199   */\n  revert\n    /* \"#utility.yul\":334:460   */\ntag_10:\n    /* \"#utility.yul\":371:378   */\n  0x00\n    /* \"#utility.yul\":411:453   */\n  0xffffffffffffffffffffffffffffffffffffffff\n    /* \"#utility.yul\":404:409   */\n  dup3\n    /* \"#utility.yul\":400:454   */\n  and\n    /* \"#utility.yul\":389:454   */\n  swap1\n  pop\n    /* \"#utility.yul\":334:460   */\n  swap2\n  swap1\n  pop\n  jump\t// out\n    /* \"#utility.yul\":466:562   */\ntag_11:\n    /* \"#utility.yul\":503:510   */\n  0x00\n    /* \"#utility.yul\":532:556   */\n  tag_23\n    /* \"#utility.yul\":550:555   */\n  dup3\n    /* \"#utility.yul\":532:556   */\n  tag_10\n  jump\t// in\ntag_23:\n    /* \"#utility.yul\":521:556   */\n  swap1\n  pop\n    /* \"#utility.yul\":466:562   */\n  swap2\n  swap1\n  pop\n  jump\t// out\n    /* \"#utility.yul\":568:690   */\ntag_12:\n    /* \"#utility.yul\":641:665   */\n  tag_25\n    /* \"#utility.yul\":659:664   */\n  dup2\n    /* \"#utility.yul\":641:665   */\n  tag_11\n  jump\t// in\ntag_25:\n    /* \"#utility.yul\":634:639   */\n  dup2\n    /* \"#utility.yul\":631:666   */\n  eq\n    /* \"#utility.yul\":621:684   */\n  tag_26\n  jumpi\n    /* \"#utility.yul\":680:681   */\n  0x00\n    /* \"#utility.yul\":677:678   */\n  dup1\n    /* \"#utility.yul\":670:682   */\n  revert\n    /* \"#utility.yul\":621:684   */\ntag_26:\n    /* \"#utility.yul\":568:690   */\n  pop\n  jump\t// out\n    /* \"#utility.yul\":696:839   */\ntag_13:\n    /* \"#utility.yul\":753:758   */\n  0x00\n    /* \"#utility.yul\":784:790   */\n  dup2\n    /* \"#utility.yul\":778:791   */\n  mload\n    /* \"#utility.yul\":769:791   */\n  swap1\n  pop\n    /* \"#utility.yul\":800:833   */\n  tag_28\n    /* \"#utility.yul\":827:832   */\n  dup2\n    /* \"#utility.yul\":800:833   */\n  tag_12\n  jump\t// in\ntag_28:\n    /* \"#utility.yul\":696:839   */\n  swap3\n  swap2\n  pop\n  pop\n  jump\t// out\n    /* \"#utility.yul\":845:949   */\ntag_14:\n    /* \"#utility.yul\":890:897   */\n  0x00\n    /* \"#utility.yul\":919:943   */\n  tag_30\n    /* \"#utility.yul\":937:942   */\n  dup3\n    /* \"#utility.yul\":919:943   */\n  tag_10\n  jump\t// in\ntag_30:\n    /* \"#utility.yul\":908:943   */\n  swap1\n  pop\n    /* \"#utility.yul\":845:949   */\n  swap2\n  swap1\n  pop\n  jump\t// out\n    /* \"#utility.yul\":955:1093   */\ntag_15:\n    /* \"#utility.yul\":1036:1068   */\n  tag_32\n    /* \"#utility.yul\":1062:1067   */\n  dup2\n    /* \"#utility.yul\":1036:1068   */\n  tag_14\n  jump\t// in\ntag_32:\n    /* \"#utility.yul\":1029:1034   */\n  dup2\n    /* \"#utility.yul\":1026:1069   */\n  eq\n    /* \"#utility.yul\":1016:1087   */\n  tag_33\n  jumpi\n    /* \"#utility.yul\":1083:1084   */\n  0x00\n    /* \"#utility.yul\":1080:1081   */\n  dup1\n    /* \"#utility.yul\":1073:1085   */\n  revert\n    /* \"#utility.yul\":1016:1087   */\ntag_33:\n    /* \"#utility.yul\":955:1093   */\n  pop\n  jump\t// out\n    /* \"#utility.yul\":1099:1258   */\ntag_16:\n    /* \"#utility.yul\":1164:1169   */\n  0x00\n    /* \"#utility.yul\":1195:1201   */\n  dup2\n    /* \"#utility.yul\":1189:1202   */\n  mload\n    /* \"#utility.yul\":1180:1202   */\n  swap1\n  pop\n    /* \"#utility.yul\":1211:1252   */\n  tag_35\n    /* \"#utility.yul\":1246:1251   */\n  dup2\n    /* \"#utility.yul\":1211:1252   */\n  tag_15\n  jump\t// in\ntag_35:\n    /* \"#utility.yul\":1099:1258   */\n  swap3\n  swap2\n  pop\n  pop\n  jump\t// out\n    /* \"#utility.yul\":1264:2100   */\ntag_3:\n    /* \"#utility.yul\":1369:1375   */\n  0x00\n    /* \"#utility.yul\":1377:1383   */\n  dup1\n    /* \"#utility.yul\":1385:1391   */\n  0x00\n    /* \"#utility.yul\":1393:1399   */\n  dup1\n    /* \"#utility.yul\":1442:1445   */\n  0x80\n    /* \"#utility.yul\":1430:1439   */\n  dup6\n    /* \"#utility.yul\":1421:1428   */\n  dup8\n    /* \"#utility.yul\":1417:1440   */\n  sub\n    /* \"#utility.yul\":1413:1446   */\n  slt\n    /* \"#utility.yul\":1410:1530   */\n  iszero\n  tag_37\n  jumpi\n    /* \"#utility.yul\":1449:1528   */\n  tag_38\n  tag_8\n  jump\t// in\ntag_38:\n    /* \"#utility.yul\":1410:1530   */\ntag_37:\n    /* \"#utility.yul\":1569:1570   */\n  0x00\n    /* \"#utility.yul\":1594:1658   */\n  tag_39\n    /* \"#utility.yul\":1650:1657   */\n  dup8\n    /* \"#utility.yul\":1641:1647   */\n  dup3\n    /* \"#utility.yul\":1630:1639   */\n  dup9\n    /* \"#utility.yul\":1626:1648   */\n  add\n    /* \"#utility.yul\":1594:1658   */\n  tag_13\n  jump\t// in\ntag_39:\n    /* \"#utility.yul\":1584:1658   */\n  swap5\n  pop\n    /* \"#utility.yul\":1540:1668   */\n  pop\n    /* \"#utility.yul\":1707:1709   */\n  0x20\n    /* \"#utility.yul\":1733:1805   */\n  tag_40\n    /* \"#utility.yul\":1797:1804   */\n  dup8\n    /* \"#utility.yul\":1788:1794   */\n  dup3\n    /* \"#utility.yul\":1777:1786   */\n  dup9\n    /* \"#utility.yul\":1773:1795   */\n  add\n    /* \"#utility.yul\":1733:1805   */\n  tag_16\n  jump\t// in\ntag_40:\n    /* \"#utility.yul\":1723:1805   */\n  swap4\n  pop\n    /* \"#utility.yul\":1678:1815   */\n  pop\n    /* \"#utility.yul\":1854:1856   */\n  0x40\n    /* \"#utility.yul\":1880:1944   */\n  tag_41\n    /* \"#utility.yul\":1936:1943   */\n  dup8\n    /* \"#utility.yul\":1927:1933   */\n  dup3\n    /* \"#utility.yul\":1916:1925   */\n  dup9\n    /* \"#utility.yul\":1912:1934   */\n  add\n    /* \"#utility.yul\":1880:1944   */\n  tag_13\n  jump\t// in\ntag_41:\n    /* \"#utility.yul\":1870:1944   */\n  swap3\n  pop\n    /* \"#utility.yul\":1825:1954   */\n  pop\n    /* \"#utility.yul\":1993:1995   */\n  0x60\n    /* \"#utility.yul\":2019:2083   */\n  tag_42\n    /* \"#utility.yul\":2075:2082   */\n  dup8\n    /* \"#utility.yul\":2066:2072   */\n  dup3\n    /* \"#utility.yul\":2055:2064   */\n  dup9\n    /* \"#utility.yul\":2051:2073   */\n  add\n    /* \"#utility.yul\":2019:2083   */\n  tag_13\n  jump\t// in\ntag_42:\n    /* \"#utility.yul\":2009:2083   */\n  swap2\n  pop\n    /* \"#utility.yul\":1964:2093   */\n  pop\n    /* \"#utility.yul\":1264:2100   */\n  swap3\n  swap6\n  swap2\n  swap5\n  pop\n  swap3\n  pop\n  jump\t// out\n    /* \"estate/Escrow.sol\":192:4174  contract Escrow {... */\ntag_6:\n  dataSize(sub_0)\n  dup1\n  dataOffset(sub_0)\n  0x00\n  codecopy\n  0x00\n  return\nstop\n\nsub_0: assembly {\n        /* \"estate/Escrow.sol\":192:4174  contract Escrow {... */\n      mstore(0x40, 0x80)\n      jumpi(tag_1, lt(calldatasize, 0x04))\n      shr(0xe0, calldataload(0x00))\n      dup1\n      0xaa929380\n      gt\n      tag_22\n      jumpi\n      dup1\n      0xd0e30db0\n      gt\n      tag_23\n      jumpi\n      dup1\n      0xd0e30db0\n      eq\n      tag_17\n      jumpi\n      dup1\n      0xe740f770\n      eq\n      tag_18\n      jumpi\n      dup1\n      0xed2cee9e\n      eq\n      tag_19\n      jumpi\n      dup1\n      0xfc7e286d\n      eq\n      tag_20\n      jumpi\n      dup1\n      0xfcce4883\n      eq\n      tag_21\n      jumpi\n      jump(tag_2)\n    tag_23:\n      dup1\n      0xaa929380\n      eq\n      tag_12\n      jumpi\n      dup1\n      0xb848de35\n      eq\n      tag_13\n      jumpi\n      dup1\n      0xbcead63e\n      eq\n      tag_14\n      jumpi\n      dup1\n      0xbd94b005\n      eq\n      tag_15\n      jumpi\n      dup1\n      0xc9f0ec7e\n      eq\n      tag_16\n      jumpi\n      jump(tag_2)\n    tag_22:\n      dup1\n      0x5bf8633a\n      gt\n      tag_24\n      jumpi\n      dup1\n      0x5bf8633a\n      eq\n      tag_7\n      jumpi\n      dup1\n      0x5d19e56c\n      eq\n      tag_8\n      jumpi\n      dup1\n      0x5eed5fff\n      eq\n      tag_9\n      jumpi\n      dup1\n      0x77fbc4ae\n      eq\n      tag_10\n      jumpi\n      dup1\n      0x9d0e5fd6\n      eq\n      tag_11\n      jumpi\n      jump(tag_2)\n    tag_24:\n      dup1\n      0x08551a53\n      eq\n      tag_3\n      jumpi\n      dup1\n      0x12065fe0\n      eq\n      tag_4\n      jumpi\n      dup1\n      0x14a72feb\n      eq\n      tag_5\n      jumpi\n      dup1\n      0x4dd4acaf\n      eq\n      tag_6\n      jumpi\n      jump(tag_2)\n    tag_1:\n      jumpi(tag_2, calldatasize)\n      stop\n    tag_2:\n      0x00\n      dup1\n      revert\n        /* \"estate/Escrow.sol\":245:274  address payable public seller */\n    tag_3:\n      callvalue\n      dup1\n      iszero\n      tag_27\n      jumpi\n      0x00\n      dup1\n      revert\n    tag_27:\n      pop\n      tag_28\n      tag_29\n      jump\t// in\n    tag_28:\n      mload(0x40)\n      tag_30\n      swap2\n      swap1\n      tag_31\n      jump\t// in\n    tag_30:\n      mload(0x40)\n      dup1\n      swap2\n      sub\n      swap1\n      return\n        /* \"estate/Escrow.sol\":4076:4171  function getBalance() public view returns(uint256){... */\n    tag_4:\n      callvalue\n      dup1\n      iszero\n      tag_32\n      jumpi\n      0x00\n      dup1\n      revert\n    tag_32:\n      pop\n      tag_33\n      tag_34\n      jump\t// in\n    tag_33:\n      mload(0x40)\n      tag_35\n      swap2\n      swap1\n      tag_36\n      jump\t// in\n    tag_35:\n      mload(0x40)\n      dup1\n      swap2\n      sub\n      swap1\n      return\n        /* \"estate/Escrow.sol\":2544:2640  function approveSale(uint256 _nftID) public {... */\n    tag_5:\n      callvalue\n      dup1\n      iszero\n      tag_37\n      jumpi\n      0x00\n      dup1\n      revert\n    tag_37:\n      pop\n      tag_38\n      0x04\n      dup1\n      calldatasize\n      sub\n      dup2\n      add\n      swap1\n      tag_39\n      swap2\n      swap1\n      tag_40\n      jump\t// in\n    tag_39:\n      tag_41\n      jump\t// in\n    tag_38:\n      stop\n        /* \"estate/Escrow.sol\":491:531  mapping(uint256 => address) public buyer */\n    tag_6:\n      callvalue\n      dup1\n      iszero\n      tag_42\n      jumpi\n      0x00\n      dup1\n      revert\n    tag_42:\n      pop\n      tag_43\n      0x04\n      dup1\n      calldatasize\n      sub\n      dup2\n      add\n      swap1\n      tag_44\n      swap2\n      swap1\n      tag_40\n      jump\t// in\n    tag_44:\n      tag_45\n      jump\t// in\n    tag_43:\n      mload(0x40)\n      tag_46\n      swap2\n      swap1\n      tag_47\n      jump\t// in\n    tag_46:\n      mload(0x40)\n      dup1\n      swap2\n      sub\n      swap1\n      return\n        /* \"estate/Escrow.sol\":214:239  address public nftAddress */\n    tag_7:\n      callvalue\n      dup1\n      iszero\n      tag_48\n      jumpi\n      0x00\n      dup1\n      revert\n    tag_48:\n      pop\n      tag_49\n      tag_50\n      jump\t// in\n    tag_49:\n      mload(0x40)\n      tag_51\n      swap2\n      swap1\n      tag_47\n      jump\t// in\n    tag_51:\n      mload(0x40)\n      dup1\n      swap2\n      sub\n      swap1\n      return\n        /* \"estate/Escrow.sol\":438:485  mapping(uint256 => uint256) public escrowAmount */\n    tag_8:\n      callvalue\n      dup1\n      iszero\n      tag_52\n      jumpi\n      0x00\n      dup1\n      revert\n    tag_52:\n      pop\n      tag_53\n      0x04\n      dup1\n      calldatasize\n      sub\n      dup2\n      add\n      swap1\n      tag_54\n      swap2\n      swap1\n      tag_40\n      jump\t// in\n    tag_54:\n      tag_55\n      jump\t// in\n    tag_53:\n      mload(0x40)\n      tag_56\n      swap2\n      swap1\n      tag_36\n      jump\t// in\n    tag_56:\n      mload(0x40)\n      dup1\n      swap2\n      sub\n      swap1\n      return\n        /* \"estate/Escrow.sol\":537:585  mapping(uint256 => bool) public inspectionPassed */\n    tag_9:\n      callvalue\n      dup1\n      iszero\n      tag_57\n      jumpi\n      0x00\n      dup1\n      revert\n    tag_57:\n      pop\n      tag_58\n      0x04\n      dup1\n      calldatasize\n      sub\n      dup2\n      add\n      swap1\n      tag_59\n      swap2\n      swap1\n      tag_40\n      jump\t// in\n    tag_59:\n      tag_60\n      jump\t// in\n    tag_58:\n      mload(0x40)\n      tag_61\n      swap2\n      swap1\n      tag_62\n      jump\t// in\n    tag_61:\n      mload(0x40)\n      dup1\n      swap2\n      sub\n      swap1\n      return\n        /* \"estate/Escrow.sol\":384:432  mapping(uint256 => uint256) public purchasePrice */\n    tag_10:\n      callvalue\n      dup1\n      iszero\n      tag_63\n      jumpi\n      0x00\n      dup1\n      revert\n    tag_63:\n      pop\n      tag_64\n      0x04\n      dup1\n      calldatasize\n      sub\n      dup2\n      add\n      swap1\n      tag_65\n      swap2\n      swap1\n      tag_40\n      jump\t// in\n    tag_65:\n      tag_66\n      jump\t// in\n    tag_64:\n      mload(0x40)\n      tag_67\n      swap2\n      swap1\n      tag_36\n      jump\t// in\n    tag_67:\n      mload(0x40)\n      dup1\n      swap2\n      sub\n      swap1\n      return\n        /* \"estate/Escrow.sol\":2387:2520  function updateInspectionStatus(uint256 _nftID, bool _passed) public onlyInspector{... */\n    tag_11:\n      callvalue\n      dup1\n      iszero\n      tag_68\n      jumpi\n      0x00\n      dup1\n      revert\n    tag_68:\n      pop\n      tag_69\n      0x04\n      dup1\n      calldatasize\n      sub\n      dup2\n      add\n      swap1\n      tag_70\n      swap2\n      swap1\n      tag_71\n      jump\t// in\n    tag_70:\n      tag_72\n      jump\t// in\n    tag_69:\n      stop\n        /* \"estate/Escrow.sol\":2870:3502  function finalizeSale (uint256 _nftID) public {... */\n    tag_12:\n      callvalue\n      dup1\n      iszero\n      tag_73\n      jumpi\n      0x00\n      dup1\n      revert\n    tag_73:\n      pop\n      tag_74\n      0x04\n      dup1\n      calldatasize\n      sub\n      dup2\n      add\n      swap1\n      tag_75\n      swap2\n      swap1\n      tag_40\n      jump\t// in\n    tag_75:\n      tag_76\n      jump\t// in\n    tag_74:\n      stop\n        /* \"estate/Escrow.sol\":678:738  mapping(uint256 => mapping(address => bool)) public approval */\n    tag_13:\n      callvalue\n      dup1\n      iszero\n      tag_77\n      jumpi\n      0x00\n      dup1\n      revert\n    tag_77:\n      pop\n      tag_78\n      0x04\n      dup1\n      calldatasize\n      sub\n      dup2\n      add\n      swap1\n      tag_79\n      swap2\n      swap1\n      tag_80\n      jump\t// in\n    tag_79:\n      tag_81\n      jump\t// in\n    tag_78:\n      mload(0x40)\n      tag_82\n      swap2\n      swap1\n      tag_62\n      jump\t// in\n    tag_82:\n      mload(0x40)\n      dup1\n      swap2\n      sub\n      swap1\n      return\n        /* \"estate/Escrow.sol\":280:301  address public lender */\n    tag_14:\n      callvalue\n      dup1\n      iszero\n      tag_83\n      jumpi\n      0x00\n      dup1\n      revert\n    tag_83:\n      pop\n      tag_84\n      tag_85\n      jump\t// in\n    tag_84:\n      mload(0x40)\n      tag_86\n      swap2\n      swap1\n      tag_47\n      jump\t// in\n    tag_86:\n      mload(0x40)\n      dup1\n      swap2\n      sub\n      swap1\n      return\n        /* \"estate/Escrow.sol\":3636:4036  function cancelSale(uint256 _nftID) public{... */\n    tag_15:\n      callvalue\n      dup1\n      iszero\n      tag_87\n      jumpi\n      0x00\n      dup1\n      revert\n    tag_87:\n      pop\n      tag_88\n      0x04\n      dup1\n      calldatasize\n      sub\n      dup2\n      add\n      swap1\n      tag_89\n      swap2\n      swap1\n      tag_40\n      jump\t// in\n    tag_89:\n      tag_90\n      jump\t// in\n    tag_88:\n      stop\n        /* \"estate/Escrow.sol\":1464:2009  function list(... */\n    tag_16:\n      tag_91\n      0x04\n      dup1\n      calldatasize\n      sub\n      dup2\n      add\n      swap1\n      tag_92\n      swap2\n      swap1\n      tag_93\n      jump\t// in\n    tag_92:\n      tag_94\n      jump\t// in\n    tag_91:\n      stop\n        /* \"estate/Escrow.sol\":2016:2096  function deposit() public payable {... */\n    tag_17:\n      tag_95\n      tag_96\n      jump\t// in\n    tag_95:\n      stop\n        /* \"estate/Escrow.sol\":2179:2333  function depositEarnest(uint256 _nftID) public payable onlyBuyer(_nftID) {... */\n    tag_18:\n      tag_97\n      0x04\n      dup1\n      calldatasize\n      sub\n      dup2\n      add\n      swap1\n      tag_98\n      swap2\n      swap1\n      tag_40\n      jump\t// in\n    tag_98:\n      tag_99\n      jump\t// in\n    tag_97:\n      stop\n        /* \"estate/Escrow.sol\":307:331  address public inspector */\n    tag_19:\n      callvalue\n      dup1\n      iszero\n      tag_100\n      jumpi\n      0x00\n      dup1\n      revert\n    tag_100:\n      pop\n      tag_101\n      tag_102\n      jump\t// in\n    tag_101:\n      mload(0x40)\n      tag_103\n      swap2\n      swap1\n      tag_47\n      jump\t// in\n    tag_103:\n      mload(0x40)\n      dup1\n      swap2\n      sub\n      swap1\n      return\n        /* \"estate/Escrow.sol\":744:787  mapping(address => uint256) public deposits */\n    tag_20:\n      callvalue\n      dup1\n      iszero\n      tag_104\n      jumpi\n      0x00\n      dup1\n      revert\n    tag_104:\n      pop\n      tag_105\n      0x04\n      dup1\n      calldatasize\n      sub\n      dup2\n      add\n      swap1\n      tag_106\n      swap2\n      swap1\n      tag_107\n      jump\t// in\n    tag_106:\n      tag_108\n      jump\t// in\n    tag_105:\n      mload(0x40)\n      tag_109\n      swap2\n      swap1\n      tag_36\n      jump\t// in\n    tag_109:\n      mload(0x40)\n      dup1\n      swap2\n      sub\n      swap1\n      return\n        /* \"estate/Escrow.sol\":338:378  mapping(uint256 => bool) public isListed */\n    tag_21:\n      callvalue\n      dup1\n      iszero\n      tag_110\n      jumpi\n      0x00\n      dup1\n      revert\n    tag_110:\n      pop\n      tag_111\n      0x04\n      dup1\n      calldatasize\n      sub\n      dup2\n      add\n      swap1\n      tag_112\n      swap2\n      swap1\n      tag_40\n      jump\t// in\n    tag_112:\n      tag_113\n      jump\t// in\n    tag_111:\n      mload(0x40)\n      tag_114\n      swap2\n      swap1\n      tag_62\n      jump\t// in\n    tag_114:\n      mload(0x40)\n      dup1\n      swap2\n      sub\n      swap1\n      return\n        /* \"estate/Escrow.sol\":245:274  address payable public seller */\n    tag_29:\n      0x01\n      0x00\n      swap1\n      sload\n      swap1\n      0x0100\n      exp\n      swap1\n      div\n      0xffffffffffffffffffffffffffffffffffffffff\n      and\n      dup2\n      jump\t// out\n        /* \"estate/Escrow.sol\":4076:4171  function getBalance() public view returns(uint256){... */\n    tag_34:\n        /* \"estate/Escrow.sol\":4118:4125  uint256 */\n      0x00\n        /* \"estate/Escrow.sol\":4143:4164  address(this).balance */\n      selfbalance\n        /* \"estate/Escrow.sol\":4136:4164  return address(this).balance */\n      swap1\n      pop\n        /* \"estate/Escrow.sol\":4076:4171  function getBalance() public view returns(uint256){... */\n      swap1\n      jump\t// out\n        /* \"estate/Escrow.sol\":2544:2640  function approveSale(uint256 _nftID) public {... */\n    tag_41:\n        /* \"estate/Escrow.sol\":2629:2633  true */\n      0x01\n        /* \"estate/Escrow.sol\":2598:2606  approval */\n      0x09\n        /* \"estate/Escrow.sol\":2598:2614  approval[_nftID] */\n      0x00\n        /* \"estate/Escrow.sol\":2607:2613  _nftID */\n      dup4\n        /* \"estate/Escrow.sol\":2598:2614  approval[_nftID] */\n      dup2\n      mstore\n      0x20\n      add\n      swap1\n      dup2\n      mstore\n      0x20\n      add\n      0x00\n      keccak256\n        /* \"estate/Escrow.sol\":2598:2626  approval[_nftID][msg.sender] */\n      0x00\n        /* \"estate/Escrow.sol\":2615:2625  msg.sender */\n      caller\n        /* \"estate/Escrow.sol\":2598:2626  approval[_nftID][msg.sender] */\n      0xffffffffffffffffffffffffffffffffffffffff\n      and\n      0xffffffffffffffffffffffffffffffffffffffff\n      and\n      dup2\n      mstore\n      0x20\n      add\n      swap1\n      dup2\n      mstore\n      0x20\n      add\n      0x00\n      keccak256\n      0x00\n        /* \"estate/Escrow.sol\":2598:2633  approval[_nftID][msg.sender] = true */\n      0x0100\n      exp\n      dup2\n      sload\n      dup2\n      0xff\n      mul\n      not\n      and\n      swap1\n      dup4\n      iszero\n      iszero\n      mul\n      or\n      swap1\n      sstore\n      pop\n        /* \"estate/Escrow.sol\":2544:2640  function approveSale(uint256 _nftID) public {... */\n      pop\n      jump\t// out\n        /* \"estate/Escrow.sol\":491:531  mapping(uint256 => address) public buyer */\n    tag_45:\n      mstore(0x20, 0x07)\n      dup1\n      0x00\n      mstore\n      keccak256(0x00, 0x40)\n      0x00\n      swap2\n      pop\n      sload\n      swap1\n      0x0100\n      exp\n      swap1\n      div\n      0xffffffffffffffffffffffffffffffffffffffff\n      and\n      dup2\n      jump\t// out\n        /* \"estate/Escrow.sol\":214:239  address public nftAddress */\n    tag_50:\n      0x00\n      dup1\n      sload\n      swap1\n      0x0100\n      exp\n      swap1\n      div\n      0xffffffffffffffffffffffffffffffffffffffff\n      and\n      dup2\n      jump\t// out\n        /* \"estate/Escrow.sol\":438:485  mapping(uint256 => uint256) public escrowAmount */\n    tag_55:\n      mstore(0x20, 0x06)\n      dup1\n      0x00\n      mstore\n      keccak256(0x00, 0x40)\n      0x00\n      swap2\n      pop\n      swap1\n      pop\n      sload\n      dup2\n      jump\t// out\n        /* \"estate/Escrow.sol\":537:585  mapping(uint256 => bool) public inspectionPassed */\n    tag_60:\n      mstore(0x20, 0x08)\n      dup1\n      0x00\n      mstore\n      keccak256(0x00, 0x40)\n      0x00\n      swap2\n      pop\n      sload\n      swap1\n      0x0100\n      exp\n      swap1\n      div\n      0xff\n      and\n      dup2\n      jump\t// out\n        /* \"estate/Escrow.sol\":384:432  mapping(uint256 => uint256) public purchasePrice */\n    tag_66:\n      mstore(0x20, 0x05)\n      dup1\n      0x00\n      mstore\n      keccak256(0x00, 0x40)\n      0x00\n      swap2\n      pop\n      swap1\n      pop\n      sload\n      dup2\n      jump\t// out\n        /* \"estate/Escrow.sol\":2387:2520  function updateInspectionStatus(uint256 _nftID, bool _passed) public onlyInspector{... */\n    tag_72:\n        /* \"estate/Escrow.sol\":1391:1400  inspector */\n      0x03\n      0x00\n      swap1\n      sload\n      swap1\n      0x0100\n      exp\n      swap1\n      div\n      0xffffffffffffffffffffffffffffffffffffffff\n      and\n        /* \"estate/Escrow.sol\":1377:1400  msg.sender == inspector */\n      0xffffffffffffffffffffffffffffffffffffffff\n      and\n        /* \"estate/Escrow.sol\":1377:1387  msg.sender */\n      caller\n        /* \"estate/Escrow.sol\":1377:1400  msg.sender == inspector */\n      0xffffffffffffffffffffffffffffffffffffffff\n      and\n      eq\n        /* \"estate/Escrow.sol\":1369:1440  require(msg.sender == inspector, \"Only inspector can call this method\") */\n      tag_118\n      jumpi\n      mload(0x40)\n      0x08c379a000000000000000000000000000000000000000000000000000000000\n      dup2\n      mstore\n      0x04\n      add\n      tag_119\n      swap1\n      tag_120\n      jump\t// in\n    tag_119:\n      mload(0x40)\n      dup1\n      swap2\n      sub\n      swap1\n      revert\n    tag_118:\n        /* \"estate/Escrow.sol\":2506:2513  _passed */\n      dup1\n        /* \"estate/Escrow.sol\":2479:2495  inspectionPassed */\n      0x08\n        /* \"estate/Escrow.sol\":2479:2503  inspectionPassed[_nftID] */\n      0x00\n        /* \"estate/Escrow.sol\":2496:2502  _nftID */\n      dup5\n        /* \"estate/Escrow.sol\":2479:2503  inspectionPassed[_nftID] */\n      dup2\n      mstore\n      0x20\n      add\n      swap1\n      dup2\n      mstore\n      0x20\n      add\n      0x00\n      keccak256\n      0x00\n        /* \"estate/Escrow.sol\":2479:2513  inspectionPassed[_nftID] = _passed */\n      0x0100\n      exp\n      dup2\n      sload\n      dup2\n      0xff\n      mul\n      not\n      and\n      swap1\n      dup4\n      iszero\n      iszero\n      mul\n      or\n      swap1\n      sstore\n      pop\n        /* \"estate/Escrow.sol\":2387:2520  function updateInspectionStatus(uint256 _nftID, bool _passed) public onlyInspector{... */\n      pop\n      pop\n      jump\t// out\n        /* \"estate/Escrow.sol\":2870:3502  function finalizeSale (uint256 _nftID) public {... */\n    tag_76:\n        /* \"estate/Escrow.sol\":2934:2950  inspectionPassed */\n      0x08\n        /* \"estate/Escrow.sol\":2934:2958  inspectionPassed[_nftID] */\n      0x00\n        /* \"estate/Escrow.sol\":2951:2957  _nftID */\n      dup3\n        /* \"estate/Escrow.sol\":2934:2958  inspectionPassed[_nftID] */\n      dup2\n      mstore\n      0x20\n      add\n      swap1\n      dup2\n      mstore\n      0x20\n      add\n      0x00\n      keccak256\n      0x00\n      swap1\n      sload\n      swap1\n      0x0100\n      exp\n      swap1\n      div\n      0xff\n      and\n        /* \"estate/Escrow.sol\":2926:2959  require(inspectionPassed[_nftID]) */\n      tag_123\n      jumpi\n      0x00\n      dup1\n      revert\n    tag_123:\n        /* \"estate/Escrow.sol\":2978:2986  approval */\n      0x09\n        /* \"estate/Escrow.sol\":2978:2994  approval[_nftID] */\n      0x00\n        /* \"estate/Escrow.sol\":2987:2993  _nftID */\n      dup3\n        /* \"estate/Escrow.sol\":2978:2994  approval[_nftID] */\n      dup2\n      mstore\n      0x20\n      add\n      swap1\n      dup2\n      mstore\n      0x20\n      add\n      0x00\n      keccak256\n        /* \"estate/Escrow.sol\":2978:3009  approval[_nftID][buyer[_nftID]] */\n      0x00\n        /* \"estate/Escrow.sol\":2995:3000  buyer */\n      0x07\n        /* \"estate/Escrow.sol\":2995:3008  buyer[_nftID] */\n      0x00\n        /* \"estate/Escrow.sol\":3001:3007  _nftID */\n      dup5\n        /* \"estate/Escrow.sol\":2995:3008  buyer[_nftID] */\n      dup2\n      mstore\n      0x20\n      add\n      swap1\n      dup2\n      mstore\n      0x20\n      add\n      0x00\n      keccak256\n      0x00\n      swap1\n      sload\n      swap1\n      0x0100\n      exp\n      swap1\n      div\n      0xffffffffffffffffffffffffffffffffffffffff\n      and\n        /* \"estate/Escrow.sol\":2978:3009  approval[_nftID][buyer[_nftID]] */\n      0xffffffffffffffffffffffffffffffffffffffff\n      and\n      0xffffffffffffffffffffffffffffffffffffffff\n      and\n      dup2\n      mstore\n      0x20\n      add\n      swap1\n      dup2\n      mstore\n      0x20\n      add\n      0x00\n      keccak256\n      0x00\n      swap1\n      sload\n      swap1\n      0x0100\n      exp\n      swap1\n      div\n      0xff\n      and\n        /* \"estate/Escrow.sol\":2970:3010  require(approval[_nftID][buyer[_nftID]]) */\n      tag_124\n      jumpi\n      0x00\n      dup1\n      revert\n    tag_124:\n        /* \"estate/Escrow.sol\":3028:3036  approval */\n      0x09\n        /* \"estate/Escrow.sol\":3028:3044  approval[_nftID] */\n      0x00\n        /* \"estate/Escrow.sol\":3037:3043  _nftID */\n      dup3\n        /* \"estate/Escrow.sol\":3028:3044  approval[_nftID] */\n      dup2\n      mstore\n      0x20\n      add\n      swap1\n      dup2\n      mstore\n      0x20\n      add\n      0x00\n      keccak256\n        /* \"estate/Escrow.sol\":3028:3052  approval[_nftID][seller] */\n      0x00\n        /* \"estate/Escrow.sol\":3045:3051  seller */\n      0x01\n      0x00\n      swap1\n      sload\n      swap1\n      0x0100\n      exp\n      swap1\n      div\n      0xffffffffffffffffffffffffffffffffffffffff\n      and\n        /* \"estate/Escrow.sol\":3028:3052  approval[_nftID][seller] */\n      0xffffffffffffffffffffffffffffffffffffffff\n      and\n      0xffffffffffffffffffffffffffffffffffffffff\n      and\n      dup2\n      mstore\n      0x20\n      add\n      swap1\n      dup2\n      mstore\n      0x20\n      add\n      0x00\n      keccak256\n      0x00\n      swap1\n      sload\n      swap1\n      0x0100\n      exp\n      swap1\n      div\n      0xff\n      and\n        /* \"estate/Escrow.sol\":3020:3053  require(approval[_nftID][seller]) */\n      tag_125\n      jumpi\n      0x00\n      dup1\n      revert\n    tag_125:\n        /* \"estate/Escrow.sol\":3071:3079  approval */\n      0x09\n        /* \"estate/Escrow.sol\":3071:3087  approval[_nftID] */\n      0x00\n        /* \"estate/Escrow.sol\":3080:3086  _nftID */\n      dup3\n        /* \"estate/Escrow.sol\":3071:3087  approval[_nftID] */\n      dup2\n      mstore\n      0x20\n      add\n      swap1\n      dup2\n      mstore\n      0x20\n      add\n      0x00\n      keccak256\n        /* \"estate/Escrow.sol\":3071:3095  approval[_nftID][lender] */\n      0x00\n        /* \"estate/Escrow.sol\":3088:3094  lender */\n      0x02\n      0x00\n      swap1\n      sload\n      swap1\n      0x0100\n      exp\n      swap1\n      div\n      0xffffffffffffffffffffffffffffffffffffffff\n      and\n        /* \"estate/Escrow.sol\":3071:3095  approval[_nftID][lender] */\n      0xffffffffffffffffffffffffffffffffffffffff\n      and\n      0xffffffffffffffffffffffffffffffffffffffff\n      and\n      dup2\n      mstore\n      0x20\n      add\n      swap1\n      dup2\n      mstore\n      0x20\n      add\n      0x00\n      keccak256\n      0x00\n      swap1\n      sload\n      swap1\n      0x0100\n      exp\n      swap1\n      div\n      0xff\n      and\n        /* \"estate/Escrow.sol\":3063:3096  require(approval[_nftID][lender]) */\n      tag_126\n      jumpi\n      0x00\n      dup1\n      revert\n    tag_126:\n        /* \"estate/Escrow.sol\":3126:3131  false */\n      0x00\n        /* \"estate/Escrow.sol\":3107:3115  isListed */\n      0x04\n        /* \"estate/Escrow.sol\":3107:3123  isListed[_nftID] */\n      0x00\n        /* \"estate/Escrow.sol\":3116:3122  _nftID */\n      dup4\n        /* \"estate/Escrow.sol\":3107:3123  isListed[_nftID] */\n      dup2\n      mstore\n      0x20\n      add\n      swap1\n      dup2\n      mstore\n      0x20\n      add\n      0x00\n      keccak256\n      0x00\n        /* \"estate/Escrow.sol\":3107:3131  isListed[_nftID] = false */\n      0x0100\n      exp\n      dup2\n      sload\n      dup2\n      0xff\n      mul\n      not\n      and\n      swap1\n      dup4\n      iszero\n      iszero\n      mul\n      or\n      swap1\n      sstore\n      pop\n        /* \"estate/Escrow.sol\":3252:3265  purchasePrice */\n      0x05\n        /* \"estate/Escrow.sol\":3252:3273  purchasePrice[_nftID] */\n      0x00\n        /* \"estate/Escrow.sol\":3266:3272  _nftID */\n      dup3\n        /* \"estate/Escrow.sol\":3252:3273  purchasePrice[_nftID] */\n      dup2\n      mstore\n      0x20\n      add\n      swap1\n      dup2\n      mstore\n      0x20\n      add\n      0x00\n      keccak256\n      sload\n        /* \"estate/Escrow.sol\":3227:3248  address(this).balance */\n      selfbalance\n        /* \"estate/Escrow.sol\":3227:3273  address(this).balance >= purchasePrice[_nftID] */\n      lt\n      iszero\n        /* \"estate/Escrow.sol\":3219:3305  require(address(this).balance >= purchasePrice[_nftID], \"Insufficient funds - Escrow\") */\n      tag_127\n      jumpi\n      mload(0x40)\n      0x08c379a000000000000000000000000000000000000000000000000000000000\n      dup2\n      mstore\n      0x04\n      add\n      tag_128\n      swap1\n      tag_129\n      jump\t// in\n    tag_128:\n      mload(0x40)\n      dup1\n      swap2\n      sub\n      swap1\n      revert\n    tag_127:\n        /* \"estate/Escrow.sol\":3316:3328  bool success */\n      0x00\n        /* \"estate/Escrow.sol\":3342:3348  seller */\n      0x01\n      0x00\n      swap1\n      sload\n      swap1\n      0x0100\n      exp\n      swap1\n      div\n      0xffffffffffffffffffffffffffffffffffffffff\n      and\n        /* \"estate/Escrow.sol\":3334:3354  payable(seller).call */\n      0xffffffffffffffffffffffffffffffffffffffff\n      and\n        /* \"estate/Escrow.sol\":3362:3383  address(this).balance */\n      selfbalance\n        /* \"estate/Escrow.sol\":3334:3389  payable(seller).call{value: address(this).balance}(\" \") */\n      mload(0x40)\n      tag_130\n      swap1\n      tag_131\n      jump\t// in\n    tag_130:\n      0x00\n      mload(0x40)\n      dup1\n      dup4\n      sub\n      dup2\n      dup6\n      dup8\n      gas\n      call\n      swap3\n      pop\n      pop\n      pop\n      returndatasize\n      dup1\n      0x00\n      dup2\n      eq\n      tag_134\n      jumpi\n      mload(0x40)\n      swap2\n      pop\n      and(add(returndatasize, 0x3f), not(0x1f))\n      dup3\n      add\n      0x40\n      mstore\n      returndatasize\n      dup3\n      mstore\n      returndatasize\n      0x00\n      0x20\n      dup5\n      add\n      returndatacopy\n      jump(tag_133)\n    tag_134:\n      0x60\n      swap2\n      pop\n    tag_133:\n      pop\n        /* \"estate/Escrow.sol\":3315:3389  (bool success, ) = payable(seller).call{value: address(this).balance}(\" \") */\n      pop\n      swap1\n      pop\n        /* \"estate/Escrow.sol\":3406:3413  success */\n      dup1\n        /* \"estate/Escrow.sol\":3398:3414  require(success) */\n      tag_135\n      jumpi\n      0x00\n      dup1\n      revert\n    tag_135:\n        /* \"estate/Escrow.sol\":3433:3443  nftAddress */\n      0x00\n      dup1\n      sload\n      swap1\n      0x0100\n      exp\n      swap1\n      div\n      0xffffffffffffffffffffffffffffffffffffffff\n      and\n        /* \"estate/Escrow.sol\":3425:3457  IERC721(nftAddress).transferFrom */\n      0xffffffffffffffffffffffffffffffffffffffff\n      and\n      0x23b872dd\n        /* \"estate/Escrow.sol\":3466:3470  this */\n      address\n        /* \"estate/Escrow.sol\":3473:3478  buyer */\n      0x07\n        /* \"estate/Escrow.sol\":3473:3486  buyer[_nftID] */\n      0x00\n        /* \"estate/Escrow.sol\":3479:3485  _nftID */\n      dup7\n        /* \"estate/Escrow.sol\":3473:3486  buyer[_nftID] */\n      dup2\n      mstore\n      0x20\n      add\n      swap1\n      dup2\n      mstore\n      0x20\n      add\n      0x00\n      keccak256\n      0x00\n      swap1\n      sload\n      swap1\n      0x0100\n      exp\n      swap1\n      div\n      0xffffffffffffffffffffffffffffffffffffffff\n      and\n        /* \"estate/Escrow.sol\":3488:3494  _nftID */\n      dup6\n        /* \"estate/Escrow.sol\":3425:3495  IERC721(nftAddress).transferFrom(address(this), buyer[_nftID], _nftID) */\n      mload(0x40)\n      dup5\n      0xffffffff\n      and\n      0xe0\n      shl\n      dup2\n      mstore\n      0x04\n      add\n      tag_136\n      swap4\n      swap3\n      swap2\n      swap1\n      tag_137\n      jump\t// in\n    tag_136:\n      0x00\n      mload(0x40)\n      dup1\n      dup4\n      sub\n      dup2\n      0x00\n      dup8\n      dup1\n      extcodesize\n      iszero\n      dup1\n      iszero\n      tag_138\n      jumpi\n      0x00\n      dup1\n      revert\n    tag_138:\n      pop\n      gas\n      call\n      iszero\n      dup1\n      iszero\n      tag_140\n      jumpi\n      returndatasize\n      0x00\n      dup1\n      returndatacopy\n      revert(0x00, returndatasize)\n    tag_140:\n      pop\n      pop\n      pop\n      pop\n        /* \"estate/Escrow.sol\":2916:3502  {... */\n      pop\n        /* \"estate/Escrow.sol\":2870:3502  function finalizeSale (uint256 _nftID) public {... */\n      pop\n      jump\t// out\n        /* \"estate/Escrow.sol\":678:738  mapping(uint256 => mapping(address => bool)) public approval */\n    tag_81:\n      mstore(0x20, 0x09)\n      dup2\n      0x00\n      mstore\n      mstore(0x20, keccak256(0x00, 0x40))\n      dup1\n      0x00\n      mstore\n      keccak256(0x00, 0x40)\n      0x00\n      swap2\n      pop\n      swap2\n      pop\n      swap1\n      sload\n      swap1\n      0x0100\n      exp\n      swap1\n      div\n      0xff\n      and\n      dup2\n      jump\t// out\n        /* \"estate/Escrow.sol\":280:301  address public lender */\n    tag_85:\n      0x02\n      0x00\n      swap1\n      sload\n      swap1\n      0x0100\n      exp\n      swap1\n      div\n      0xffffffffffffffffffffffffffffffffffffffff\n      and\n      dup2\n      jump\t// out\n        /* \"estate/Escrow.sol\":3636:4036  function cancelSale(uint256 _nftID) public{... */\n    tag_90:\n        /* \"estate/Escrow.sol\":3723:3728  false */\n      0x00\n        /* \"estate/Escrow.sol\":3695:3728  inspectionPassed[_nftID] == false */\n      iszero\n      iszero\n        /* \"estate/Escrow.sol\":3695:3711  inspectionPassed */\n      0x08\n        /* \"estate/Escrow.sol\":3695:3719  inspectionPassed[_nftID] */\n      0x00\n        /* \"estate/Escrow.sol\":3712:3718  _nftID */\n      dup4\n        /* \"estate/Escrow.sol\":3695:3719  inspectionPassed[_nftID] */\n      dup2\n      mstore\n      0x20\n      add\n      swap1\n      dup2\n      mstore\n      0x20\n      add\n      0x00\n      keccak256\n      0x00\n      swap1\n      sload\n      swap1\n      0x0100\n      exp\n      swap1\n      div\n      0xff\n      and\n        /* \"estate/Escrow.sol\":3695:3728  inspectionPassed[_nftID] == false */\n      iszero\n      iszero\n      sub\n        /* \"estate/Escrow.sol\":3692:4026  if(inspectionPassed[_nftID] == false){... */\n      tag_142\n      jumpi\n        /* \"estate/Escrow.sol\":3747:3767  uint256 refundAmount */\n      0x00\n        /* \"estate/Escrow.sol\":3770:3778  deposits */\n      0x0a\n        /* \"estate/Escrow.sol\":3770:3793  deposits[buyer[_nftID]] */\n      0x00\n        /* \"estate/Escrow.sol\":3779:3784  buyer */\n      0x07\n        /* \"estate/Escrow.sol\":3779:3792  buyer[_nftID] */\n      0x00\n        /* \"estate/Escrow.sol\":3785:3791  _nftID */\n      dup6\n        /* \"estate/Escrow.sol\":3779:3792  buyer[_nftID] */\n      dup2\n      mstore\n      0x20\n      add\n      swap1\n      dup2\n      mstore\n      0x20\n      add\n      0x00\n      keccak256\n      0x00\n      swap1\n      sload\n      swap1\n      0x0100\n      exp\n      swap1\n      div\n      0xffffffffffffffffffffffffffffffffffffffff\n      and\n        /* \"estate/Escrow.sol\":3770:3793  deposits[buyer[_nftID]] */\n      0xffffffffffffffffffffffffffffffffffffffff\n      and\n      0xffffffffffffffffffffffffffffffffffffffff\n      and\n      dup2\n      mstore\n      0x20\n      add\n      swap1\n      dup2\n      mstore\n      0x20\n      add\n      0x00\n      keccak256\n      sload\n        /* \"estate/Escrow.sol\":3747:3793  uint256 refundAmount = deposits[buyer[_nftID]] */\n      swap1\n      pop\n        /* \"estate/Escrow.sol\":3837:3838  0 */\n      0x00\n        /* \"estate/Escrow.sol\":3811:3819  deposits */\n      0x0a\n        /* \"estate/Escrow.sol\":3811:3834  deposits[buyer[_nftID]] */\n      0x00\n        /* \"estate/Escrow.sol\":3820:3825  buyer */\n      0x07\n        /* \"estate/Escrow.sol\":3820:3833  buyer[_nftID] */\n      0x00\n        /* \"estate/Escrow.sol\":3826:3832  _nftID */\n      dup7\n        /* \"estate/Escrow.sol\":3820:3833  buyer[_nftID] */\n      dup2\n      mstore\n      0x20\n      add\n      swap1\n      dup2\n      mstore\n      0x20\n      add\n      0x00\n      keccak256\n      0x00\n      swap1\n      sload\n      swap1\n      0x0100\n      exp\n      swap1\n      div\n      0xffffffffffffffffffffffffffffffffffffffff\n      and\n        /* \"estate/Escrow.sol\":3811:3834  deposits[buyer[_nftID]] */\n      0xffffffffffffffffffffffffffffffffffffffff\n      and\n      0xffffffffffffffffffffffffffffffffffffffff\n      and\n      dup2\n      mstore\n      0x20\n      add\n      swap1\n      dup2\n      mstore\n      0x20\n      add\n      0x00\n      keccak256\n        /* \"estate/Escrow.sol\":3811:3838  deposits[buyer[_nftID]] = 0 */\n      dup2\n      swap1\n      sstore\n      pop\n        /* \"estate/Escrow.sol\":3888:3893  buyer */\n      0x07\n        /* \"estate/Escrow.sol\":3888:3901  buyer[_nftID] */\n      0x00\n        /* \"estate/Escrow.sol\":3894:3900  _nftID */\n      dup4\n        /* \"estate/Escrow.sol\":3888:3901  buyer[_nftID] */\n      dup2\n      mstore\n      0x20\n      add\n      swap1\n      dup2\n      mstore\n      0x20\n      add\n      0x00\n      keccak256\n      0x00\n      swap1\n      sload\n      swap1\n      0x0100\n      exp\n      swap1\n      div\n      0xffffffffffffffffffffffffffffffffffffffff\n      and\n        /* \"estate/Escrow.sol\":3880:3911  payable(buyer[_nftID]).transfer */\n      0xffffffffffffffffffffffffffffffffffffffff\n      and\n        /* \"estate/Escrow.sol\":3880:3925  payable(buyer[_nftID]).transfer(refundAmount) */\n      0x08fc\n        /* \"estate/Escrow.sol\":3912:3924  refundAmount */\n      dup3\n        /* \"estate/Escrow.sol\":3880:3925  payable(buyer[_nftID]).transfer(refundAmount) */\n      swap1\n      dup2\n      iszero\n      mul\n      swap1\n      mload(0x40)\n      0x00\n      mload(0x40)\n      dup1\n      dup4\n      sub\n      dup2\n      dup6\n      dup9\n      dup9\n      call\n      swap4\n      pop\n      pop\n      pop\n      pop\n      iszero\n      dup1\n      iszero\n      tag_144\n      jumpi\n      returndatasize\n      0x00\n      dup1\n      returndatacopy\n      revert(0x00, returndatasize)\n    tag_144:\n      pop\n        /* \"estate/Escrow.sol\":3729:3940  {... */\n      pop\n        /* \"estate/Escrow.sol\":3692:4026  if(inspectionPassed[_nftID] == false){... */\n      jump(tag_145)\n    tag_142:\n        /* \"estate/Escrow.sol\":3972:3978  seller */\n      0x01\n      0x00\n      swap1\n      sload\n      swap1\n      0x0100\n      exp\n      swap1\n      div\n      0xffffffffffffffffffffffffffffffffffffffff\n      and\n        /* \"estate/Escrow.sol\":3964:3988  payable(seller).transfer */\n      0xffffffffffffffffffffffffffffffffffffffff\n      and\n        /* \"estate/Escrow.sol\":3964:4011  payable(seller).transfer(address(this).balance) */\n      0x08fc\n        /* \"estate/Escrow.sol\":3989:4010  address(this).balance */\n      selfbalance\n        /* \"estate/Escrow.sol\":3964:4011  payable(seller).transfer(address(this).balance) */\n      swap1\n      dup2\n      iszero\n      mul\n      swap1\n      mload(0x40)\n      0x00\n      mload(0x40)\n      dup1\n      dup4\n      sub\n      dup2\n      dup6\n      dup9\n      dup9\n      call\n      swap4\n      pop\n      pop\n      pop\n      pop\n      iszero\n      dup1\n      iszero\n      tag_147\n      jumpi\n      returndatasize\n      0x00\n      dup1\n      returndatacopy\n      revert(0x00, returndatasize)\n    tag_147:\n      pop\n        /* \"estate/Escrow.sol\":3692:4026  if(inspectionPassed[_nftID] == false){... */\n    tag_145:\n        /* \"estate/Escrow.sol\":3636:4036  function cancelSale(uint256 _nftID) public{... */\n      pop\n      jump\t// out\n        /* \"estate/Escrow.sol\":1464:2009  function list(... */\n    tag_94:\n        /* \"estate/Escrow.sol\":1112:1118  seller */\n      0x01\n      0x00\n      swap1\n      sload\n      swap1\n      0x0100\n      exp\n      swap1\n      div\n      0xffffffffffffffffffffffffffffffffffffffff\n      and\n        /* \"estate/Escrow.sol\":1098:1118  msg.sender == seller */\n      0xffffffffffffffffffffffffffffffffffffffff\n      and\n        /* \"estate/Escrow.sol\":1098:1108  msg.sender */\n      caller\n        /* \"estate/Escrow.sol\":1098:1118  msg.sender == seller */\n      0xffffffffffffffffffffffffffffffffffffffff\n      and\n      eq\n        /* \"estate/Escrow.sol\":1090:1156  require(msg.sender == seller, \"Only seller cand call this method\") */\n      tag_149\n      jumpi\n      mload(0x40)\n      0x08c379a000000000000000000000000000000000000000000000000000000000\n      dup2\n      mstore\n      0x04\n      add\n      tag_150\n      swap1\n      tag_151\n      jump\t// in\n    tag_150:\n      mload(0x40)\n      dup1\n      swap2\n      sub\n      swap1\n      revert\n    tag_149:\n        /* \"estate/Escrow.sol\":1783:1793  nftAddress */\n      0x00\n      dup1\n      sload\n      swap1\n      0x0100\n      exp\n      swap1\n      div\n      0xffffffffffffffffffffffffffffffffffffffff\n      and\n        /* \"estate/Escrow.sol\":1775:1807  IERC721(nftAddress).transferFrom */\n      0xffffffffffffffffffffffffffffffffffffffff\n      and\n      0x23b872dd\n        /* \"estate/Escrow.sol\":1808:1818  msg.sender */\n      caller\n        /* \"estate/Escrow.sol\":1828:1832  this */\n      address\n        /* \"estate/Escrow.sol\":1835:1841  _nftID */\n      dup8\n        /* \"estate/Escrow.sol\":1775:1842  IERC721(nftAddress).transferFrom(msg.sender, address(this), _nftID) */\n      mload(0x40)\n      dup5\n      0xffffffff\n      and\n      0xe0\n      shl\n      dup2\n      mstore\n      0x04\n      add\n      tag_153\n      swap4\n      swap3\n      swap2\n      swap1\n      tag_137\n      jump\t// in\n    tag_153:\n      0x00\n      mload(0x40)\n      dup1\n      dup4\n      sub\n      dup2\n      0x00\n      dup8\n      dup1\n      extcodesize\n      iszero\n      dup1\n      iszero\n      tag_154\n      jumpi\n      0x00\n      dup1\n      revert\n    tag_154:\n      pop\n      gas\n      call\n      iszero\n      dup1\n      iszero\n      tag_156\n      jumpi\n      returndatasize\n      0x00\n      dup1\n      returndatacopy\n      revert(0x00, returndatasize)\n    tag_156:\n      pop\n      pop\n      pop\n      pop\n        /* \"estate/Escrow.sol\":1872:1876  true */\n      0x01\n        /* \"estate/Escrow.sol\":1853:1861  isListed */\n      0x04\n        /* \"estate/Escrow.sol\":1853:1869  isListed[_nftID] */\n      0x00\n        /* \"estate/Escrow.sol\":1862:1868  _nftID */\n      dup7\n        /* \"estate/Escrow.sol\":1853:1869  isListed[_nftID] */\n      dup2\n      mstore\n      0x20\n      add\n      swap1\n      dup2\n      mstore\n      0x20\n      add\n      0x00\n      keccak256\n      0x00\n        /* \"estate/Escrow.sol\":1853:1876  isListed[_nftID] = true */\n      0x0100\n      exp\n      dup2\n      sload\n      dup2\n      0xff\n      mul\n      not\n      and\n      swap1\n      dup4\n      iszero\n      iszero\n      mul\n      or\n      swap1\n      sstore\n      pop\n        /* \"estate/Escrow.sol\":1910:1924  _purchasePrice */\n      dup2\n        /* \"estate/Escrow.sol\":1886:1899  purchasePrice */\n      0x05\n        /* \"estate/Escrow.sol\":1886:1907  purchasePrice[_nftID] */\n      0x00\n        /* \"estate/Escrow.sol\":1900:1906  _nftID */\n      dup7\n        /* \"estate/Escrow.sol\":1886:1907  purchasePrice[_nftID] */\n      dup2\n      mstore\n      0x20\n      add\n      swap1\n      dup2\n      mstore\n      0x20\n      add\n      0x00\n      keccak256\n        /* \"estate/Escrow.sol\":1886:1924  purchasePrice[_nftID] = _purchasePrice */\n      dup2\n      swap1\n      sstore\n      pop\n        /* \"estate/Escrow.sol\":1957:1970  _escrowAmount */\n      dup1\n        /* \"estate/Escrow.sol\":1934:1946  escrowAmount */\n      0x06\n        /* \"estate/Escrow.sol\":1934:1954  escrowAmount[_nftID] */\n      0x00\n        /* \"estate/Escrow.sol\":1947:1953  _nftID */\n      dup7\n        /* \"estate/Escrow.sol\":1934:1954  escrowAmount[_nftID] */\n      dup2\n      mstore\n      0x20\n      add\n      swap1\n      dup2\n      mstore\n      0x20\n      add\n      0x00\n      keccak256\n        /* \"estate/Escrow.sol\":1934:1970  escrowAmount[_nftID] = _escrowAmount */\n      dup2\n      swap1\n      sstore\n      pop\n        /* \"estate/Escrow.sol\":1996:2002  _buyer */\n      dup3\n        /* \"estate/Escrow.sol\":1980:1985  buyer */\n      0x07\n        /* \"estate/Escrow.sol\":1980:1993  buyer[_nftID] */\n      0x00\n        /* \"estate/Escrow.sol\":1986:1992  _nftID */\n      dup7\n        /* \"estate/Escrow.sol\":1980:1993  buyer[_nftID] */\n      dup2\n      mstore\n      0x20\n      add\n      swap1\n      dup2\n      mstore\n      0x20\n      add\n      0x00\n      keccak256\n      0x00\n        /* \"estate/Escrow.sol\":1980:2002  buyer[_nftID] = _buyer */\n      0x0100\n      exp\n      dup2\n      sload\n      dup2\n      0xffffffffffffffffffffffffffffffffffffffff\n      mul\n      not\n      and\n      swap1\n      dup4\n      0xffffffffffffffffffffffffffffffffffffffff\n      and\n      mul\n      or\n      swap1\n      sstore\n      pop\n        /* \"estate/Escrow.sol\":1464:2009  function list(... */\n      pop\n      pop\n      pop\n      pop\n      jump\t// out\n        /* \"estate/Escrow.sol\":2016:2096  function deposit() public payable {... */\n    tag_96:\n        /* \"estate/Escrow.sol\":2080:2089  msg.value */\n      callvalue\n        /* \"estate/Escrow.sol\":2056:2064  deposits */\n      0x0a\n        /* \"estate/Escrow.sol\":2056:2076  deposits[msg.sender] */\n      0x00\n        /* \"estate/Escrow.sol\":2065:2075  msg.sender */\n      caller\n        /* \"estate/Escrow.sol\":2056:2076  deposits[msg.sender] */\n      0xffffffffffffffffffffffffffffffffffffffff\n      and\n      0xffffffffffffffffffffffffffffffffffffffff\n      and\n      dup2\n      mstore\n      0x20\n      add\n      swap1\n      dup2\n      mstore\n      0x20\n      add\n      0x00\n      keccak256\n      0x00\n        /* \"estate/Escrow.sol\":2056:2089  deposits[msg.sender] += msg.value */\n      dup3\n      dup3\n      sload\n      tag_158\n      swap2\n      swap1\n      tag_159\n      jump\t// in\n    tag_158:\n      swap3\n      pop\n      pop\n      dup2\n      swap1\n      sstore\n      pop\n        /* \"estate/Escrow.sol\":2016:2096  function deposit() public payable {... */\n      jump\t// out\n        /* \"estate/Escrow.sol\":2179:2333  function depositEarnest(uint256 _nftID) public payable onlyBuyer(_nftID) {... */\n    tag_99:\n        /* \"estate/Escrow.sol\":2244:2250  _nftID */\n      dup1\n        /* \"estate/Escrow.sol\":1247:1252  buyer */\n      0x07\n        /* \"estate/Escrow.sol\":1247:1260  buyer[_nftID] */\n      0x00\n        /* \"estate/Escrow.sol\":1253:1259  _nftID */\n      dup3\n        /* \"estate/Escrow.sol\":1247:1260  buyer[_nftID] */\n      dup2\n      mstore\n      0x20\n      add\n      swap1\n      dup2\n      mstore\n      0x20\n      add\n      0x00\n      keccak256\n      0x00\n      swap1\n      sload\n      swap1\n      0x0100\n      exp\n      swap1\n      div\n      0xffffffffffffffffffffffffffffffffffffffff\n      and\n        /* \"estate/Escrow.sol\":1233:1260  msg.sender == buyer[_nftID] */\n      0xffffffffffffffffffffffffffffffffffffffff\n      and\n        /* \"estate/Escrow.sol\":1233:1243  msg.sender */\n      caller\n        /* \"estate/Escrow.sol\":1233:1260  msg.sender == buyer[_nftID] */\n      0xffffffffffffffffffffffffffffffffffffffff\n      and\n      eq\n        /* \"estate/Escrow.sol\":1225:1310  require(msg.sender == buyer[_nftID], \"Only buyer can call this method(down payment)\") */\n      tag_161\n      jumpi\n      mload(0x40)\n      0x08c379a000000000000000000000000000000000000000000000000000000000\n      dup2\n      mstore\n      0x04\n      add\n      tag_162\n      swap1\n      tag_163\n      jump\t// in\n    tag_162:\n      mload(0x40)\n      dup1\n      swap2\n      sub\n      swap1\n      revert\n    tag_161:\n        /* \"estate/Escrow.sol\":2283:2295  escrowAmount */\n      0x06\n        /* \"estate/Escrow.sol\":2283:2303  escrowAmount[_nftID] */\n      0x00\n        /* \"estate/Escrow.sol\":2296:2302  _nftID */\n      dup4\n        /* \"estate/Escrow.sol\":2283:2303  escrowAmount[_nftID] */\n      dup2\n      mstore\n      0x20\n      add\n      swap1\n      dup2\n      mstore\n      0x20\n      add\n      0x00\n      keccak256\n      sload\n        /* \"estate/Escrow.sol\":2270:2279  msg.value */\n      callvalue\n        /* \"estate/Escrow.sol\":2270:2303  msg.value >= escrowAmount[_nftID] */\n      lt\n      iszero\n        /* \"estate/Escrow.sol\":2262:2326  require(msg.value >= escrowAmount[_nftID], \"Insufficient Funds\") */\n      tag_165\n      jumpi\n      mload(0x40)\n      0x08c379a000000000000000000000000000000000000000000000000000000000\n      dup2\n      mstore\n      0x04\n      add\n      tag_166\n      swap1\n      tag_167\n      jump\t// in\n    tag_166:\n      mload(0x40)\n      dup1\n      swap2\n      sub\n      swap1\n      revert\n    tag_165:\n        /* \"estate/Escrow.sol\":2179:2333  function depositEarnest(uint256 _nftID) public payable onlyBuyer(_nftID) {... */\n      pop\n      pop\n      jump\t// out\n        /* \"estate/Escrow.sol\":307:331  address public inspector */\n    tag_102:\n      0x03\n      0x00\n      swap1\n      sload\n      swap1\n      0x0100\n      exp\n      swap1\n      div\n      0xffffffffffffffffffffffffffffffffffffffff\n      and\n      dup2\n      jump\t// out\n        /* \"estate/Escrow.sol\":744:787  mapping(address => uint256) public deposits */\n    tag_108:\n      mstore(0x20, 0x0a)\n      dup1\n      0x00\n      mstore\n      keccak256(0x00, 0x40)\n      0x00\n      swap2\n      pop\n      swap1\n      pop\n      sload\n      dup2\n      jump\t// out\n        /* \"estate/Escrow.sol\":338:378  mapping(uint256 => bool) public isListed */\n    tag_113:\n      mstore(0x20, 0x04)\n      dup1\n      0x00\n      mstore\n      keccak256(0x00, 0x40)\n      0x00\n      swap2\n      pop\n      sload\n      swap1\n      0x0100\n      exp\n      swap1\n      div\n      0xff\n      and\n      dup2\n      jump\t// out\n        /* \"#utility.yul\":7:133   */\n    tag_168:\n        /* \"#utility.yul\":44:51   */\n      0x00\n        /* \"#utility.yul\":84:126   */\n      0xffffffffffffffffffffffffffffffffffffffff\n        /* \"#utility.yul\":77:82   */\n      dup3\n        /* \"#utility.yul\":73:127   */\n      and\n        /* \"#utility.yul\":62:127   */\n      swap1\n      pop\n        /* \"#utility.yul\":7:133   */\n      swap2\n      swap1\n      pop\n      jump\t// out\n        /* \"#utility.yul\":139:243   */\n    tag_169:\n        /* \"#utility.yul\":184:191   */\n      0x00\n        /* \"#utility.yul\":213:237   */\n      tag_204\n        /* \"#utility.yul\":231:236   */\n      dup3\n        /* \"#utility.yul\":213:237   */\n      tag_168\n      jump\t// in\n    tag_204:\n        /* \"#utility.yul\":202:237   */\n      swap1\n      pop\n        /* \"#utility.yul\":139:243   */\n      swap2\n      swap1\n      pop\n      jump\t// out\n        /* \"#utility.yul\":249:391   */\n    tag_170:\n        /* \"#utility.yul\":352:384   */\n      tag_206\n        /* \"#utility.yul\":378:383   */\n      dup2\n        /* \"#utility.yul\":352:384   */\n      tag_169\n      jump\t// in\n    tag_206:\n        /* \"#utility.yul\":347:350   */\n      dup3\n        /* \"#utility.yul\":340:385   */\n      mstore\n        /* \"#utility.yul\":249:391   */\n      pop\n      pop\n      jump\t// out\n        /* \"#utility.yul\":397:651   */\n    tag_31:\n        /* \"#utility.yul\":506:510   */\n      0x00\n        /* \"#utility.yul\":544:546   */\n      0x20\n        /* \"#utility.yul\":533:542   */\n      dup3\n        /* \"#utility.yul\":529:547   */\n      add\n        /* \"#utility.yul\":521:547   */\n      swap1\n      pop\n        /* \"#utility.yul\":557:644   */\n      tag_208\n        /* \"#utility.yul\":641:642   */\n      0x00\n        /* \"#utility.yul\":630:639   */\n      dup4\n        /* \"#utility.yul\":626:643   */\n      add\n        /* \"#utility.yul\":617:623   */\n      dup5\n        /* \"#utility.yul\":557:644   */\n      tag_170\n      jump\t// in\n    tag_208:\n        /* \"#utility.yul\":397:651   */\n      swap3\n      swap2\n      pop\n      pop\n      jump\t// out\n        /* \"#utility.yul\":657:734   */\n    tag_171:\n        /* \"#utility.yul\":694:701   */\n      0x00\n        /* \"#utility.yul\":723:728   */\n      dup2\n        /* \"#utility.yul\":712:728   */\n      swap1\n      pop\n        /* \"#utility.yul\":657:734   */\n      swap2\n      swap1\n      pop\n      jump\t// out\n        /* \"#utility.yul\":740:858   */\n    tag_172:\n        /* \"#utility.yul\":827:851   */\n      tag_211\n        /* \"#utility.yul\":845:850   */\n      dup2\n        /* \"#utility.yul\":827:851   */\n      tag_171\n      jump\t// in\n    tag_211:\n        /* \"#utility.yul\":822:825   */\n      dup3\n        /* \"#utility.yul\":815:852   */\n      mstore\n        /* \"#utility.yul\":740:858   */\n      pop\n      pop\n      jump\t// out\n        /* \"#utility.yul\":864:1086   */\n    tag_36:\n        /* \"#utility.yul\":957:961   */\n      0x00\n        /* \"#utility.yul\":995:997   */\n      0x20\n        /* \"#utility.yul\":984:993   */\n      dup3\n        /* \"#utility.yul\":980:998   */\n      add\n        /* \"#utility.yul\":972:998   */\n      swap1\n      pop\n        /* \"#utility.yul\":1008:1079   */\n      tag_213\n        /* \"#utility.yul\":1076:1077   */\n      0x00\n        /* \"#utility.yul\":1065:1074   */\n      dup4\n        /* \"#utility.yul\":1061:1078   */\n      add\n        /* \"#utility.yul\":1052:1058   */\n      dup5\n        /* \"#utility.yul\":1008:1079   */\n      tag_172\n      jump\t// in\n    tag_213:\n        /* \"#utility.yul\":864:1086   */\n      swap3\n      swap2\n      pop\n      pop\n      jump\t// out\n        /* \"#utility.yul\":1173:1290   */\n    tag_174:\n        /* \"#utility.yul\":1282:1283   */\n      0x00\n        /* \"#utility.yul\":1279:1280   */\n      dup1\n        /* \"#utility.yul\":1272:1284   */\n      revert\n        /* \"#utility.yul\":1419:1541   */\n    tag_176:\n        /* \"#utility.yul\":1492:1516   */\n      tag_218\n        /* \"#utility.yul\":1510:1515   */\n      dup2\n        /* \"#utility.yul\":1492:1516   */\n      tag_171\n      jump\t// in\n    tag_218:\n        /* \"#utility.yul\":1485:1490   */\n      dup2\n        /* \"#utility.yul\":1482:1517   */\n      eq\n        /* \"#utility.yul\":1472:1535   */\n      tag_219\n      jumpi\n        /* \"#utility.yul\":1531:1532   */\n      0x00\n        /* \"#utility.yul\":1528:1529   */\n      dup1\n        /* \"#utility.yul\":1521:1533   */\n      revert\n        /* \"#utility.yul\":1472:1535   */\n    tag_219:\n        /* \"#utility.yul\":1419:1541   */\n      pop\n      jump\t// out\n        /* \"#utility.yul\":1547:1686   */\n    tag_177:\n        /* \"#utility.yul\":1593:1598   */\n      0x00\n        /* \"#utility.yul\":1631:1637   */\n      dup2\n        /* \"#utility.yul\":1618:1638   */\n      calldataload\n        /* \"#utility.yul\":1609:1638   */\n      swap1\n      pop\n        /* \"#utility.yul\":1647:1680   */\n      tag_221\n        /* \"#utility.yul\":1674:1679   */\n      dup2\n        /* \"#utility.yul\":1647:1680   */\n      tag_176\n      jump\t// in\n    tag_221:\n        /* \"#utility.yul\":1547:1686   */\n      swap3\n      swap2\n      pop\n      pop\n      jump\t// out\n        /* \"#utility.yul\":1692:2021   */\n    tag_40:\n        /* \"#utility.yul\":1751:1757   */\n      0x00\n        /* \"#utility.yul\":1800:1802   */\n      0x20\n        /* \"#utility.yul\":1788:1797   */\n      dup3\n        /* \"#utility.yul\":1779:1786   */\n      dup5\n        /* \"#utility.yul\":1775:1798   */\n      sub\n        /* \"#utility.yul\":1771:1803   */\n      slt\n        /* \"#utility.yul\":1768:1887   */\n      iszero\n      tag_223\n      jumpi\n        /* \"#utility.yul\":1806:1885   */\n      tag_224\n      tag_174\n      jump\t// in\n    tag_224:\n        /* \"#utility.yul\":1768:1887   */\n    tag_223:\n        /* \"#utility.yul\":1926:1927   */\n      0x00\n        /* \"#utility.yul\":1951:2004   */\n      tag_225\n        /* \"#utility.yul\":1996:2003   */\n      dup5\n        /* \"#utility.yul\":1987:1993   */\n      dup3\n        /* \"#utility.yul\":1976:1985   */\n      dup6\n        /* \"#utility.yul\":1972:1994   */\n      add\n        /* \"#utility.yul\":1951:2004   */\n      tag_177\n      jump\t// in\n    tag_225:\n        /* \"#utility.yul\":1941:2004   */\n      swap2\n      pop\n        /* \"#utility.yul\":1897:2014   */\n      pop\n        /* \"#utility.yul\":1692:2021   */\n      swap3\n      swap2\n      pop\n      pop\n      jump\t// out\n        /* \"#utility.yul\":2027:2123   */\n    tag_178:\n        /* \"#utility.yul\":2064:2071   */\n      0x00\n        /* \"#utility.yul\":2093:2117   */\n      tag_227\n        /* \"#utility.yul\":2111:2116   */\n      dup3\n        /* \"#utility.yul\":2093:2117   */\n      tag_168\n      jump\t// in\n    tag_227:\n        /* \"#utility.yul\":2082:2117   */\n      swap1\n      pop\n        /* \"#utility.yul\":2027:2123   */\n      swap2\n      swap1\n      pop\n      jump\t// out\n        /* \"#utility.yul\":2129:2247   */\n    tag_179:\n        /* \"#utility.yul\":2216:2240   */\n      tag_229\n        /* \"#utility.yul\":2234:2239   */\n      dup2\n        /* \"#utility.yul\":2216:2240   */\n      tag_178\n      jump\t// in\n    tag_229:\n        /* \"#utility.yul\":2211:2214   */\n      dup3\n        /* \"#utility.yul\":2204:2241   */\n      mstore\n        /* \"#utility.yul\":2129:2247   */\n      pop\n      pop\n      jump\t// out\n        /* \"#utility.yul\":2253:2475   */\n    tag_47:\n        /* \"#utility.yul\":2346:2350   */\n      0x00\n        /* \"#utility.yul\":2384:2386   */\n      0x20\n        /* \"#utility.yul\":2373:2382   */\n      dup3\n        /* \"#utility.yul\":2369:2387   */\n      add\n        /* \"#utility.yul\":2361:2387   */\n      swap1\n      pop\n        /* \"#utility.yul\":2397:2468   */\n      tag_231\n        /* \"#utility.yul\":2465:2466   */\n      0x00\n        /* \"#utility.yul\":2454:2463   */\n      dup4\n        /* \"#utility.yul\":2450:2467   */\n      add\n        /* \"#utility.yul\":2441:2447   */\n      dup5\n        /* \"#utility.yul\":2397:2468   */\n      tag_179\n      jump\t// in\n    tag_231:\n        /* \"#utility.yul\":2253:2475   */\n      swap3\n      swap2\n      pop\n      pop\n      jump\t// out\n        /* \"#utility.yul\":2481:2571   */\n    tag_180:\n        /* \"#utility.yul\":2515:2522   */\n      0x00\n        /* \"#utility.yul\":2558:2563   */\n      dup2\n        /* \"#utility.yul\":2551:2564   */\n      iszero\n        /* \"#utility.yul\":2544:2565   */\n      iszero\n        /* \"#utility.yul\":2533:2565   */\n      swap1\n      pop\n        /* \"#utility.yul\":2481:2571   */\n      swap2\n      swap1\n      pop\n      jump\t// out\n        /* \"#utility.yul\":2577:2686   */\n    tag_181:\n        /* \"#utility.yul\":2658:2679   */\n      tag_234\n        /* \"#utility.yul\":2673:2678   */\n      dup2\n        /* \"#utility.yul\":2658:2679   */\n      tag_180\n      jump\t// in\n    tag_234:\n        /* \"#utility.yul\":2653:2656   */\n      dup3\n        /* \"#utility.yul\":2646:2680   */\n      mstore\n        /* \"#utility.yul\":2577:2686   */\n      pop\n      pop\n      jump\t// out\n        /* \"#utility.yul\":2692:2902   */\n    tag_62:\n        /* \"#utility.yul\":2779:2783   */\n      0x00\n        /* \"#utility.yul\":2817:2819   */\n      0x20\n        /* \"#utility.yul\":2806:2815   */\n      dup3\n        /* \"#utility.yul\":2802:2820   */\n      add\n        /* \"#utility.yul\":2794:2820   */\n      swap1\n      pop\n        /* \"#utility.yul\":2830:2895   */\n      tag_236\n        /* \"#utility.yul\":2892:2893   */\n      0x00\n        /* \"#utility.yul\":2881:2890   */\n      dup4\n        /* \"#utility.yul\":2877:2894   */\n      add\n        /* \"#utility.yul\":2868:2874   */\n      dup5\n        /* \"#utility.yul\":2830:2895   */\n      tag_181\n      jump\t// in\n    tag_236:\n        /* \"#utility.yul\":2692:2902   */\n      swap3\n      swap2\n      pop\n      pop\n      jump\t// out\n        /* \"#utility.yul\":2908:3024   */\n    tag_182:\n        /* \"#utility.yul\":2978:2999   */\n      tag_238\n        /* \"#utility.yul\":2993:2998   */\n      dup2\n        /* \"#utility.yul\":2978:2999   */\n      tag_180\n      jump\t// in\n    tag_238:\n        /* \"#utility.yul\":2971:2976   */\n      dup2\n        /* \"#utility.yul\":2968:3000   */\n      eq\n        /* \"#utility.yul\":2958:3018   */\n      tag_239\n      jumpi\n        /* \"#utility.yul\":3014:3015   */\n      0x00\n        /* \"#utility.yul\":3011:3012   */\n      dup1\n        /* \"#utility.yul\":3004:3016   */\n      revert\n        /* \"#utility.yul\":2958:3018   */\n    tag_239:\n        /* \"#utility.yul\":2908:3024   */\n      pop\n      jump\t// out\n        /* \"#utility.yul\":3030:3163   */\n    tag_183:\n        /* \"#utility.yul\":3073:3078   */\n      0x00\n        /* \"#utility.yul\":3111:3117   */\n      dup2\n        /* \"#utility.yul\":3098:3118   */\n      calldataload\n        /* \"#utility.yul\":3089:3118   */\n      swap1\n      pop\n        /* \"#utility.yul\":3127:3157   */\n      tag_241\n        /* \"#utility.yul\":3151:3156   */\n      dup2\n        /* \"#utility.yul\":3127:3157   */\n      tag_182\n      jump\t// in\n    tag_241:\n        /* \"#utility.yul\":3030:3163   */\n      swap3\n      swap2\n      pop\n      pop\n      jump\t// out\n        /* \"#utility.yul\":3169:3637   */\n    tag_71:\n        /* \"#utility.yul\":3234:3240   */\n      0x00\n        /* \"#utility.yul\":3242:3248   */\n      dup1\n        /* \"#utility.yul\":3291:3293   */\n      0x40\n        /* \"#utility.yul\":3279:3288   */\n      dup4\n        /* \"#utility.yul\":3270:3277   */\n      dup6\n        /* \"#utility.yul\":3266:3289   */\n      sub\n        /* \"#utility.yul\":3262:3294   */\n      slt\n        /* \"#utility.yul\":3259:3378   */\n      iszero\n      tag_243\n      jumpi\n        /* \"#utility.yul\":3297:3376   */\n      tag_244\n      tag_174\n      jump\t// in\n    tag_244:\n        /* \"#utility.yul\":3259:3378   */\n    tag_243:\n        /* \"#utility.yul\":3417:3418   */\n      0x00\n        /* \"#utility.yul\":3442:3495   */\n      tag_245\n        /* \"#utility.yul\":3487:3494   */\n      dup6\n        /* \"#utility.yul\":3478:3484   */\n      dup3\n        /* \"#utility.yul\":3467:3476   */\n      dup7\n        /* \"#utility.yul\":3463:3485   */\n      add\n        /* \"#utility.yul\":3442:3495   */\n      tag_177\n      jump\t// in\n    tag_245:\n        /* \"#utility.yul\":3432:3495   */\n      swap3\n      pop\n        /* \"#utility.yul\":3388:3505   */\n      pop\n        /* \"#utility.yul\":3544:3546   */\n      0x20\n        /* \"#utility.yul\":3570:3620   */\n      tag_246\n        /* \"#utility.yul\":3612:3619   */\n      dup6\n        /* \"#utility.yul\":3603:3609   */\n      dup3\n        /* \"#utility.yul\":3592:3601   */\n      dup7\n        /* \"#utility.yul\":3588:3610   */\n      add\n        /* \"#utility.yul\":3570:3620   */\n      tag_183\n      jump\t// in\n    tag_246:\n        /* \"#utility.yul\":3560:3620   */\n      swap2\n      pop\n        /* \"#utility.yul\":3515:3630   */\n      pop\n        /* \"#utility.yul\":3169:3637   */\n      swap3\n      pop\n      swap3\n      swap1\n      pop\n      jump\t// out\n        /* \"#utility.yul\":3643:3765   */\n    tag_184:\n        /* \"#utility.yul\":3716:3740   */\n      tag_248\n        /* \"#utility.yul\":3734:3739   */\n      dup2\n        /* \"#utility.yul\":3716:3740   */\n      tag_178\n      jump\t// in\n    tag_248:\n        /* \"#utility.yul\":3709:3714   */\n      dup2\n        /* \"#utility.yul\":3706:3741   */\n      eq\n        /* \"#utility.yul\":3696:3759   */\n      tag_249\n      jumpi\n        /* \"#utility.yul\":3755:3756   */\n      0x00\n        /* \"#utility.yul\":3752:3753   */\n      dup1\n        /* \"#utility.yul\":3745:3757   */\n      revert\n        /* \"#utility.yul\":3696:3759   */\n    tag_249:\n        /* \"#utility.yul\":3643:3765   */\n      pop\n      jump\t// out\n        /* \"#utility.yul\":3771:3910   */\n    tag_185:\n        /* \"#utility.yul\":3817:3822   */\n      0x00\n        /* \"#utility.yul\":3855:3861   */\n      dup2\n        /* \"#utility.yul\":3842:3862   */\n      calldataload\n        /* \"#utility.yul\":3833:3862   */\n      swap1\n      pop\n        /* \"#utility.yul\":3871:3904   */\n      tag_251\n        /* \"#utility.yul\":3898:3903   */\n      dup2\n        /* \"#utility.yul\":3871:3904   */\n      tag_184\n      jump\t// in\n    tag_251:\n        /* \"#utility.yul\":3771:3910   */\n      swap3\n      swap2\n      pop\n      pop\n      jump\t// out\n        /* \"#utility.yul\":3916:4390   */\n    tag_80:\n        /* \"#utility.yul\":3984:3990   */\n      0x00\n        /* \"#utility.yul\":3992:3998   */\n      dup1\n        /* \"#utility.yul\":4041:4043   */\n      0x40\n        /* \"#utility.yul\":4029:4038   */\n      dup4\n        /* \"#utility.yul\":4020:4027   */\n      dup6\n        /* \"#utility.yul\":4016:4039   */\n      sub\n        /* \"#utility.yul\":4012:4044   */\n      slt\n        /* \"#utility.yul\":4009:4128   */\n      iszero\n      tag_253\n      jumpi\n        /* \"#utility.yul\":4047:4126   */\n      tag_254\n      tag_174\n      jump\t// in\n    tag_254:\n        /* \"#utility.yul\":4009:4128   */\n    tag_253:\n        /* \"#utility.yul\":4167:4168   */\n      0x00\n        /* \"#utility.yul\":4192:4245   */\n      tag_255\n        /* \"#utility.yul\":4237:4244   */\n      dup6\n        /* \"#utility.yul\":4228:4234   */\n      dup3\n        /* \"#utility.yul\":4217:4226   */\n      dup7\n        /* \"#utility.yul\":4213:4235   */\n      add\n        /* \"#utility.yul\":4192:4245   */\n      tag_177\n      jump\t// in\n    tag_255:\n        /* \"#utility.yul\":4182:4245   */\n      swap3\n      pop\n        /* \"#utility.yul\":4138:4255   */\n      pop\n        /* \"#utility.yul\":4294:4296   */\n      0x20\n        /* \"#utility.yul\":4320:4373   */\n      tag_256\n        /* \"#utility.yul\":4365:4372   */\n      dup6\n        /* \"#utility.yul\":4356:4362   */\n      dup3\n        /* \"#utility.yul\":4345:4354   */\n      dup7\n        /* \"#utility.yul\":4341:4363   */\n      add\n        /* \"#utility.yul\":4320:4373   */\n      tag_185\n      jump\t// in\n    tag_256:\n        /* \"#utility.yul\":4310:4373   */\n      swap2\n      pop\n        /* \"#utility.yul\":4265:4383   */\n      pop\n        /* \"#utility.yul\":3916:4390   */\n      swap3\n      pop\n      swap3\n      swap1\n      pop\n      jump\t// out\n        /* \"#utility.yul\":4396:5161   */\n    tag_93:\n        /* \"#utility.yul\":4482:4488   */\n      0x00\n        /* \"#utility.yul\":4490:4496   */\n      dup1\n        /* \"#utility.yul\":4498:4504   */\n      0x00\n        /* \"#utility.yul\":4506:4512   */\n      dup1\n        /* \"#utility.yul\":4555:4558   */\n      0x80\n        /* \"#utility.yul\":4543:4552   */\n      dup6\n        /* \"#utility.yul\":4534:4541   */\n      dup8\n        /* \"#utility.yul\":4530:4553   */\n      sub\n        /* \"#utility.yul\":4526:4559   */\n      slt\n        /* \"#utility.yul\":4523:4643   */\n      iszero\n      tag_258\n      jumpi\n        /* \"#utility.yul\":4562:4641   */\n      tag_259\n      tag_174\n      jump\t// in\n    tag_259:\n        /* \"#utility.yul\":4523:4643   */\n    tag_258:\n        /* \"#utility.yul\":4682:4683   */\n      0x00\n        /* \"#utility.yul\":4707:4760   */\n      tag_260\n        /* \"#utility.yul\":4752:4759   */\n      dup8\n        /* \"#utility.yul\":4743:4749   */\n      dup3\n        /* \"#utility.yul\":4732:4741   */\n      dup9\n        /* \"#utility.yul\":4728:4750   */\n      add\n        /* \"#utility.yul\":4707:4760   */\n      tag_177\n      jump\t// in\n    tag_260:\n        /* \"#utility.yul\":4697:4760   */\n      swap5\n      pop\n        /* \"#utility.yul\":4653:4770   */\n      pop\n        /* \"#utility.yul\":4809:4811   */\n      0x20\n        /* \"#utility.yul\":4835:4888   */\n      tag_261\n        /* \"#utility.yul\":4880:4887   */\n      dup8\n        /* \"#utility.yul\":4871:4877   */\n      dup3\n        /* \"#utility.yul\":4860:4869   */\n      dup9\n        /* \"#utility.yul\":4856:4878   */\n      add\n        /* \"#utility.yul\":4835:4888   */\n      tag_185\n      jump\t// in\n    tag_261:\n        /* \"#utility.yul\":4825:4888   */\n      swap4\n      pop\n        /* \"#utility.yul\":4780:4898   */\n      pop\n        /* \"#utility.yul\":4937:4939   */\n      0x40\n        /* \"#utility.yul\":4963:5016   */\n      tag_262\n        /* \"#utility.yul\":5008:5015   */\n      dup8\n        /* \"#utility.yul\":4999:5005   */\n      dup3\n        /* \"#utility.yul\":4988:4997   */\n      dup9\n        /* \"#utility.yul\":4984:5006   */\n      add\n        /* \"#utility.yul\":4963:5016   */\n      tag_177\n      jump\t// in\n    tag_262:\n        /* \"#utility.yul\":4953:5016   */\n      swap3\n      pop\n        /* \"#utility.yul\":4908:5026   */\n      pop\n        /* \"#utility.yul\":5065:5067   */\n      0x60\n        /* \"#utility.yul\":5091:5144   */\n      tag_263\n        /* \"#utility.yul\":5136:5143   */\n      dup8\n        /* \"#utility.yul\":5127:5133   */\n      dup3\n        /* \"#utility.yul\":5116:5125   */\n      dup9\n        /* \"#utility.yul\":5112:5134   */\n      add\n        /* \"#utility.yul\":5091:5144   */\n      tag_177\n      jump\t// in\n    tag_263:\n        /* \"#utility.yul\":5081:5144   */\n      swap2\n      pop\n        /* \"#utility.yul\":5036:5154   */\n      pop\n        /* \"#utility.yul\":4396:5161   */\n      swap3\n      swap6\n      swap2\n      swap5\n      pop\n      swap3\n      pop\n      jump\t// out\n        /* \"#utility.yul\":5167:5496   */\n    tag_107:\n        /* \"#utility.yul\":5226:5232   */\n      0x00\n        /* \"#utility.yul\":5275:5277   */\n      0x20\n        /* \"#utility.yul\":5263:5272   */\n      dup3\n        /* \"#utility.yul\":5254:5261   */\n      dup5\n        /* \"#utility.yul\":5250:5273   */\n      sub\n        /* \"#utility.yul\":5246:5278   */\n      slt\n        /* \"#utility.yul\":5243:5362   */\n      iszero\n      tag_265\n      jumpi\n        /* \"#utility.yul\":5281:5360   */\n      tag_266\n      tag_174\n      jump\t// in\n    tag_266:\n        /* \"#utility.yul\":5243:5362   */\n    tag_265:\n        /* \"#utility.yul\":5401:5402   */\n      0x00\n        /* \"#utility.yul\":5426:5479   */\n      tag_267\n        /* \"#utility.yul\":5471:5478   */\n      dup5\n        /* \"#utility.yul\":5462:5468   */\n      dup3\n        /* \"#utility.yul\":5451:5460   */\n      dup6\n        /* \"#utility.yul\":5447:5469   */\n      add\n        /* \"#utility.yul\":5426:5479   */\n      tag_185\n      jump\t// in\n    tag_267:\n        /* \"#utility.yul\":5416:5479   */\n      swap2\n      pop\n        /* \"#utility.yul\":5372:5489   */\n      pop\n        /* \"#utility.yul\":5167:5496   */\n      swap3\n      swap2\n      pop\n      pop\n      jump\t// out\n        /* \"#utility.yul\":5502:5671   */\n    tag_186:\n        /* \"#utility.yul\":5586:5597   */\n      0x00\n        /* \"#utility.yul\":5620:5626   */\n      dup3\n        /* \"#utility.yul\":5615:5618   */\n      dup3\n        /* \"#utility.yul\":5608:5627   */\n      mstore\n        /* \"#utility.yul\":5660:5664   */\n      0x20\n        /* \"#utility.yul\":5655:5658   */\n      dup3\n        /* \"#utility.yul\":5651:5665   */\n      add\n        /* \"#utility.yul\":5636:5665   */\n      swap1\n      pop\n        /* \"#utility.yul\":5502:5671   */\n      swap3\n      swap2\n      pop\n      pop\n      jump\t// out\n        /* \"#utility.yul\":5677:5899   */\n    tag_187:\n        /* \"#utility.yul\":5817:5851   */\n      0x4f6e6c7920696e73706563746f722063616e2063616c6c2074686973206d6574\n        /* \"#utility.yul\":5813:5814   */\n      0x00\n        /* \"#utility.yul\":5805:5811   */\n      dup3\n        /* \"#utility.yul\":5801:5815   */\n      add\n        /* \"#utility.yul\":5794:5852   */\n      mstore\n        /* \"#utility.yul\":5886:5891   */\n      0x686f640000000000000000000000000000000000000000000000000000000000\n        /* \"#utility.yul\":5881:5883   */\n      0x20\n        /* \"#utility.yul\":5873:5879   */\n      dup3\n        /* \"#utility.yul\":5869:5884   */\n      add\n        /* \"#utility.yul\":5862:5892   */\n      mstore\n        /* \"#utility.yul\":5677:5899   */\n      pop\n      jump\t// out\n        /* \"#utility.yul\":5905:6271   */\n    tag_188:\n        /* \"#utility.yul\":6047:6050   */\n      0x00\n        /* \"#utility.yul\":6068:6135   */\n      tag_271\n        /* \"#utility.yul\":6132:6134   */\n      0x23\n        /* \"#utility.yul\":6127:6130   */\n      dup4\n        /* \"#utility.yul\":6068:6135   */\n      tag_186\n      jump\t// in\n    tag_271:\n        /* \"#utility.yul\":6061:6135   */\n      swap2\n      pop\n        /* \"#utility.yul\":6144:6237   */\n      tag_272\n        /* \"#utility.yul\":6233:6236   */\n      dup3\n        /* \"#utility.yul\":6144:6237   */\n      tag_187\n      jump\t// in\n    tag_272:\n        /* \"#utility.yul\":6262:6264   */\n      0x40\n        /* \"#utility.yul\":6257:6260   */\n      dup3\n        /* \"#utility.yul\":6253:6265   */\n      add\n        /* \"#utility.yul\":6246:6265   */\n      swap1\n      pop\n        /* \"#utility.yul\":5905:6271   */\n      swap2\n      swap1\n      pop\n      jump\t// out\n        /* \"#utility.yul\":6277:6696   */\n    tag_120:\n        /* \"#utility.yul\":6443:6447   */\n      0x00\n        /* \"#utility.yul\":6481:6483   */\n      0x20\n        /* \"#utility.yul\":6470:6479   */\n      dup3\n        /* \"#utility.yul\":6466:6484   */\n      add\n        /* \"#utility.yul\":6458:6484   */\n      swap1\n      pop\n        /* \"#utility.yul\":6530:6539   */\n      dup2\n        /* \"#utility.yul\":6524:6528   */\n      dup2\n        /* \"#utility.yul\":6520:6540   */\n      sub\n        /* \"#utility.yul\":6516:6517   */\n      0x00\n        /* \"#utility.yul\":6505:6514   */\n      dup4\n        /* \"#utility.yul\":6501:6518   */\n      add\n        /* \"#utility.yul\":6494:6541   */\n      mstore\n        /* \"#utility.yul\":6558:6689   */\n      tag_274\n        /* \"#utility.yul\":6684:6688   */\n      dup2\n        /* \"#utility.yul\":6558:6689   */\n      tag_188\n      jump\t// in\n    tag_274:\n        /* \"#utility.yul\":6550:6689   */\n      swap1\n      pop\n        /* \"#utility.yul\":6277:6696   */\n      swap2\n      swap1\n      pop\n      jump\t// out\n        /* \"#utility.yul\":6702:6879   */\n    tag_189:\n        /* \"#utility.yul\":6842:6871   */\n      0x496e73756666696369656e742066756e6473202d20457363726f770000000000\n        /* \"#utility.yul\":6838:6839   */\n      0x00\n        /* \"#utility.yul\":6830:6836   */\n      dup3\n        /* \"#utility.yul\":6826:6840   */\n      add\n        /* \"#utility.yul\":6819:6872   */\n      mstore\n        /* \"#utility.yul\":6702:6879   */\n      pop\n      jump\t// out\n        /* \"#utility.yul\":6885:7251   */\n    tag_190:\n        /* \"#utility.yul\":7027:7030   */\n      0x00\n        /* \"#utility.yul\":7048:7115   */\n      tag_277\n        /* \"#utility.yul\":7112:7114   */\n      0x1b\n        /* \"#utility.yul\":7107:7110   */\n      dup4\n        /* \"#utility.yul\":7048:7115   */\n      tag_186\n      jump\t// in\n    tag_277:\n        /* \"#utility.yul\":7041:7115   */\n      swap2\n      pop\n        /* \"#utility.yul\":7124:7217   */\n      tag_278\n        /* \"#utility.yul\":7213:7216   */\n      dup3\n        /* \"#utility.yul\":7124:7217   */\n      tag_189\n      jump\t// in\n    tag_278:\n        /* \"#utility.yul\":7242:7244   */\n      0x20\n        /* \"#utility.yul\":7237:7240   */\n      dup3\n        /* \"#utility.yul\":7233:7245   */\n      add\n        /* \"#utility.yul\":7226:7245   */\n      swap1\n      pop\n        /* \"#utility.yul\":6885:7251   */\n      swap2\n      swap1\n      pop\n      jump\t// out\n        /* \"#utility.yul\":7257:7676   */\n    tag_129:\n        /* \"#utility.yul\":7423:7427   */\n      0x00\n        /* \"#utility.yul\":7461:7463   */\n      0x20\n        /* \"#utility.yul\":7450:7459   */\n      dup3\n        /* \"#utility.yul\":7446:7464   */\n      add\n        /* \"#utility.yul\":7438:7464   */\n      swap1\n      pop\n        /* \"#utility.yul\":7510:7519   */\n      dup2\n        /* \"#utility.yul\":7504:7508   */\n      dup2\n        /* \"#utility.yul\":7500:7520   */\n      sub\n        /* \"#utility.yul\":7496:7497   */\n      0x00\n        /* \"#utility.yul\":7485:7494   */\n      dup4\n        /* \"#utility.yul\":7481:7498   */\n      add\n        /* \"#utility.yul\":7474:7521   */\n      mstore\n        /* \"#utility.yul\":7538:7669   */\n      tag_280\n        /* \"#utility.yul\":7664:7668   */\n      dup2\n        /* \"#utility.yul\":7538:7669   */\n      tag_190\n      jump\t// in\n    tag_280:\n        /* \"#utility.yul\":7530:7669   */\n      swap1\n      pop\n        /* \"#utility.yul\":7257:7676   */\n      swap2\n      swap1\n      pop\n      jump\t// out\n        /* \"#utility.yul\":7682:7829   */\n    tag_191:\n        /* \"#utility.yul\":7783:7794   */\n      0x00\n        /* \"#utility.yul\":7820:7823   */\n      dup2\n        /* \"#utility.yul\":7805:7823   */\n      swap1\n      pop\n        /* \"#utility.yul\":7682:7829   */\n      swap3\n      swap2\n      pop\n      pop\n      jump\t// out\n        /* \"#utility.yul\":7835:7986   */\n    tag_192:\n        /* \"#utility.yul\":7975:7978   */\n      0x2000000000000000000000000000000000000000000000000000000000000000\n        /* \"#utility.yul\":7971:7972   */\n      0x00\n        /* \"#utility.yul\":7963:7969   */\n      dup3\n        /* \"#utility.yul\":7959:7973   */\n      add\n        /* \"#utility.yul\":7952:7979   */\n      mstore\n        /* \"#utility.yul\":7835:7986   */\n      pop\n      jump\t// out\n        /* \"#utility.yul\":7992:8390   */\n    tag_193:\n        /* \"#utility.yul\":8151:8154   */\n      0x00\n        /* \"#utility.yul\":8172:8255   */\n      tag_284\n        /* \"#utility.yul\":8253:8254   */\n      0x01\n        /* \"#utility.yul\":8248:8251   */\n      dup4\n        /* \"#utility.yul\":8172:8255   */\n      tag_191\n      jump\t// in\n    tag_284:\n        /* \"#utility.yul\":8165:8255   */\n      swap2\n      pop\n        /* \"#utility.yul\":8264:8357   */\n      tag_285\n        /* \"#utility.yul\":8353:8356   */\n      dup3\n        /* \"#utility.yul\":8264:8357   */\n      tag_192\n      jump\t// in\n    tag_285:\n        /* \"#utility.yul\":8382:8383   */\n      0x01\n        /* \"#utility.yul\":8377:8380   */\n      dup3\n        /* \"#utility.yul\":8373:8384   */\n      add\n        /* \"#utility.yul\":8366:8384   */\n      swap1\n      pop\n        /* \"#utility.yul\":7992:8390   */\n      swap2\n      swap1\n      pop\n      jump\t// out\n        /* \"#utility.yul\":8396:8775   */\n    tag_131:\n        /* \"#utility.yul\":8580:8583   */\n      0x00\n        /* \"#utility.yul\":8602:8749   */\n      tag_287\n        /* \"#utility.yul\":8745:8748   */\n      dup3\n        /* \"#utility.yul\":8602:8749   */\n      tag_193\n      jump\t// in\n    tag_287:\n        /* \"#utility.yul\":8595:8749   */\n      swap2\n      pop\n        /* \"#utility.yul\":8766:8769   */\n      dup2\n        /* \"#utility.yul\":8759:8769   */\n      swap1\n      pop\n        /* \"#utility.yul\":8396:8775   */\n      swap2\n      swap1\n      pop\n      jump\t// out\n        /* \"#utility.yul\":8781:9223   */\n    tag_137:\n        /* \"#utility.yul\":8930:8934   */\n      0x00\n        /* \"#utility.yul\":8968:8970   */\n      0x60\n        /* \"#utility.yul\":8957:8966   */\n      dup3\n        /* \"#utility.yul\":8953:8971   */\n      add\n        /* \"#utility.yul\":8945:8971   */\n      swap1\n      pop\n        /* \"#utility.yul\":8981:9052   */\n      tag_289\n        /* \"#utility.yul\":9049:9050   */\n      0x00\n        /* \"#utility.yul\":9038:9047   */\n      dup4\n        /* \"#utility.yul\":9034:9051   */\n      add\n        /* \"#utility.yul\":9025:9031   */\n      dup7\n        /* \"#utility.yul\":8981:9052   */\n      tag_179\n      jump\t// in\n    tag_289:\n        /* \"#utility.yul\":9062:9134   */\n      tag_290\n        /* \"#utility.yul\":9130:9132   */\n      0x20\n        /* \"#utility.yul\":9119:9128   */\n      dup4\n        /* \"#utility.yul\":9115:9133   */\n      add\n        /* \"#utility.yul\":9106:9112   */\n      dup6\n        /* \"#utility.yul\":9062:9134   */\n      tag_179\n      jump\t// in\n    tag_290:\n        /* \"#utility.yul\":9144:9216   */\n      tag_291\n        /* \"#utility.yul\":9212:9214   */\n      0x40\n        /* \"#utility.yul\":9201:9210   */\n      dup4\n        /* \"#utility.yul\":9197:9215   */\n      add\n        /* \"#utility.yul\":9188:9194   */\n      dup5\n        /* \"#utility.yul\":9144:9216   */\n      tag_172\n      jump\t// in\n    tag_291:\n        /* \"#utility.yul\":8781:9223   */\n      swap5\n      swap4\n      pop\n      pop\n      pop\n      pop\n      jump\t// out\n        /* \"#utility.yul\":9229:9449   */\n    tag_194:\n        /* \"#utility.yul\":9369:9403   */\n      0x4f6e6c792073656c6c65722063616e642063616c6c2074686973206d6574686f\n        /* \"#utility.yul\":9365:9366   */\n      0x00\n        /* \"#utility.yul\":9357:9363   */\n      dup3\n        /* \"#utility.yul\":9353:9367   */\n      add\n        /* \"#utility.yul\":9346:9404   */\n      mstore\n        /* \"#utility.yul\":9438:9441   */\n      0x6400000000000000000000000000000000000000000000000000000000000000\n        /* \"#utility.yul\":9433:9435   */\n      0x20\n        /* \"#utility.yul\":9425:9431   */\n      dup3\n        /* \"#utility.yul\":9421:9436   */\n      add\n        /* \"#utility.yul\":9414:9442   */\n      mstore\n        /* \"#utility.yul\":9229:9449   */\n      pop\n      jump\t// out\n        /* \"#utility.yul\":9455:9821   */\n    tag_195:\n        /* \"#utility.yul\":9597:9600   */\n      0x00\n        /* \"#utility.yul\":9618:9685   */\n      tag_294\n        /* \"#utility.yul\":9682:9684   */\n      0x21\n        /* \"#utility.yul\":9677:9680   */\n      dup4\n        /* \"#utility.yul\":9618:9685   */\n      tag_186\n      jump\t// in\n    tag_294:\n        /* \"#utility.yul\":9611:9685   */\n      swap2\n      pop\n        /* \"#utility.yul\":9694:9787   */\n      tag_295\n        /* \"#utility.yul\":9783:9786   */\n      dup3\n        /* \"#utility.yul\":9694:9787   */\n      tag_194\n      jump\t// in\n    tag_295:\n        /* \"#utility.yul\":9812:9814   */\n      0x40\n        /* \"#utility.yul\":9807:9810   */\n      dup3\n        /* \"#utility.yul\":9803:9815   */\n      add\n        /* \"#utility.yul\":9796:9815   */\n      swap1\n      pop\n        /* \"#utility.yul\":9455:9821   */\n      swap2\n      swap1\n      pop\n      jump\t// out\n        /* \"#utility.yul\":9827:10246   */\n    tag_151:\n        /* \"#utility.yul\":9993:9997   */\n      0x00\n        /* \"#utility.yul\":10031:10033   */\n      0x20\n        /* \"#utility.yul\":10020:10029   */\n      dup3\n        /* \"#utility.yul\":10016:10034   */\n      add\n        /* \"#utility.yul\":10008:10034   */\n      swap1\n      pop\n        /* \"#utility.yul\":10080:10089   */\n      dup2\n        /* \"#utility.yul\":10074:10078   */\n      dup2\n        /* \"#utility.yul\":10070:10090   */\n      sub\n        /* \"#utility.yul\":10066:10067   */\n      0x00\n        /* \"#utility.yul\":10055:10064   */\n      dup4\n        /* \"#utility.yul\":10051:10068   */\n      add\n        /* \"#utility.yul\":10044:10091   */\n      mstore\n        /* \"#utility.yul\":10108:10239   */\n      tag_297\n        /* \"#utility.yul\":10234:10238   */\n      dup2\n        /* \"#utility.yul\":10108:10239   */\n      tag_195\n      jump\t// in\n    tag_297:\n        /* \"#utility.yul\":10100:10239   */\n      swap1\n      pop\n        /* \"#utility.yul\":9827:10246   */\n      swap2\n      swap1\n      pop\n      jump\t// out\n        /* \"#utility.yul\":10252:10432   */\n    tag_196:\n        /* \"#utility.yul\":10300:10377   */\n      0x4e487b7100000000000000000000000000000000000000000000000000000000\n        /* \"#utility.yul\":10297:10298   */\n      0x00\n        /* \"#utility.yul\":10290:10378   */\n      mstore\n        /* \"#utility.yul\":10397:10401   */\n      0x11\n        /* \"#utility.yul\":10394:10395   */\n      0x04\n        /* \"#utility.yul\":10387:10402   */\n      mstore\n        /* \"#utility.yul\":10421:10425   */\n      0x24\n        /* \"#utility.yul\":10418:10419   */\n      0x00\n        /* \"#utility.yul\":10411:10426   */\n      revert\n        /* \"#utility.yul\":10438:10629   */\n    tag_159:\n        /* \"#utility.yul\":10478:10481   */\n      0x00\n        /* \"#utility.yul\":10497:10517   */\n      tag_300\n        /* \"#utility.yul\":10515:10516   */\n      dup3\n        /* \"#utility.yul\":10497:10517   */\n      tag_171\n      jump\t// in\n    tag_300:\n        /* \"#utility.yul\":10492:10517   */\n      swap2\n      pop\n        /* \"#utility.yul\":10531:10551   */\n      tag_301\n        /* \"#utility.yul\":10549:10550   */\n      dup4\n        /* \"#utility.yul\":10531:10551   */\n      tag_171\n      jump\t// in\n    tag_301:\n        /* \"#utility.yul\":10526:10551   */\n      swap3\n      pop\n        /* \"#utility.yul\":10574:10575   */\n      dup3\n        /* \"#utility.yul\":10571:10572   */\n      dup3\n        /* \"#utility.yul\":10567:10576   */\n      add\n        /* \"#utility.yul\":10560:10576   */\n      swap1\n      pop\n        /* \"#utility.yul\":10595:10598   */\n      dup1\n        /* \"#utility.yul\":10592:10593   */\n      dup3\n        /* \"#utility.yul\":10589:10599   */\n      gt\n        /* \"#utility.yul\":10586:10622   */\n      iszero\n      tag_302\n      jumpi\n        /* \"#utility.yul\":10602:10620   */\n      tag_303\n      tag_196\n      jump\t// in\n    tag_303:\n        /* \"#utility.yul\":10586:10622   */\n    tag_302:\n        /* \"#utility.yul\":10438:10629   */\n      swap3\n      swap2\n      pop\n      pop\n      jump\t// out\n        /* \"#utility.yul\":10635:10867   */\n    tag_197:\n        /* \"#utility.yul\":10775:10809   */\n      0x4f6e6c792062757965722063616e2063616c6c2074686973206d6574686f6428\n        /* \"#utility.yul\":10771:10772   */\n      0x00\n        /* \"#utility.yul\":10763:10769   */\n      dup3\n        /* \"#utility.yul\":10759:10773   */\n      add\n        /* \"#utility.yul\":10752:10810   */\n      mstore\n        /* \"#utility.yul\":10844:10859   */\n      0x646f776e207061796d656e742900000000000000000000000000000000000000\n        /* \"#utility.yul\":10839:10841   */\n      0x20\n        /* \"#utility.yul\":10831:10837   */\n      dup3\n        /* \"#utility.yul\":10827:10842   */\n      add\n        /* \"#utility.yul\":10820:10860   */\n      mstore\n        /* \"#utility.yul\":10635:10867   */\n      pop\n      jump\t// out\n        /* \"#utility.yul\":10873:11239   */\n    tag_198:\n        /* \"#utility.yul\":11015:11018   */\n      0x00\n        /* \"#utility.yul\":11036:11103   */\n      tag_306\n        /* \"#utility.yul\":11100:11102   */\n      0x2d\n        /* \"#utility.yul\":11095:11098   */\n      dup4\n        /* \"#utility.yul\":11036:11103   */\n      tag_186\n      jump\t// in\n    tag_306:\n        /* \"#utility.yul\":11029:11103   */\n      swap2\n      pop\n        /* \"#utility.yul\":11112:11205   */\n      tag_307\n        /* \"#utility.yul\":11201:11204   */\n      dup3\n        /* \"#utility.yul\":11112:11205   */\n      tag_197\n      jump\t// in\n    tag_307:\n        /* \"#utility.yul\":11230:11232   */\n      0x40\n        /* \"#utility.yul\":11225:11228   */\n      dup3\n        /* \"#utility.yul\":11221:11233   */\n      add\n        /* \"#utility.yul\":11214:11233   */\n      swap1\n      pop\n        /* \"#utility.yul\":10873:11239   */\n      swap2\n      swap1\n      pop\n      jump\t// out\n        /* \"#utility.yul\":11245:11664   */\n    tag_163:\n        /* \"#utility.yul\":11411:11415   */\n      0x00\n        /* \"#utility.yul\":11449:11451   */\n      0x20\n        /* \"#utility.yul\":11438:11447   */\n      dup3\n        /* \"#utility.yul\":11434:11452   */\n      add\n        /* \"#utility.yul\":11426:11452   */\n      swap1\n      pop\n        /* \"#utility.yul\":11498:11507   */\n      dup2\n        /* \"#utility.yul\":11492:11496   */\n      dup2\n        /* \"#utility.yul\":11488:11508   */\n      sub\n        /* \"#utility.yul\":11484:11485   */\n      0x00\n        /* \"#utility.yul\":11473:11482   */\n      dup4\n        /* \"#utility.yul\":11469:11486   */\n      add\n        /* \"#utility.yul\":11462:11509   */\n      mstore\n        /* \"#utility.yul\":11526:11657   */\n      tag_309\n        /* \"#utility.yul\":11652:11656   */\n      dup2\n        /* \"#utility.yul\":11526:11657   */\n      tag_198\n      jump\t// in\n    tag_309:\n        /* \"#utility.yul\":11518:11657   */\n      swap1\n      pop\n        /* \"#utility.yul\":11245:11664   */\n      swap2\n      swap1\n      pop\n      jump\t// out\n        /* \"#utility.yul\":11670:11838   */\n    tag_199:\n        /* \"#utility.yul\":11810:11830   */\n      0x496e73756666696369656e742046756e64730000000000000000000000000000\n        /* \"#utility.yul\":11806:11807   */\n      0x00\n        /* \"#utility.yul\":11798:11804   */\n      dup3\n        /* \"#utility.yul\":11794:11808   */\n      add\n        /* \"#utility.yul\":11787:11831   */\n      mstore\n        /* \"#utility.yul\":11670:11838   */\n      pop\n      jump\t// out\n        /* \"#utility.yul\":11844:12210   */\n    tag_200:\n        /* \"#utility.yul\":11986:11989   */\n      0x00\n        /* \"#utility.yul\":12007:12074   */\n      tag_312\n        /* \"#utility.yul\":12071:12073   */\n      0x12\n        /* \"#utility.yul\":12066:12069   */\n      dup4\n        /* \"#utility.yul\":12007:12074   */\n      tag_186\n      jump\t// in\n    tag_312:\n        /* \"#utility.yul\":12000:12074   */\n      swap2\n      pop\n        /* \"#utility.yul\":12083:12176   */\n      tag_313\n        /* \"#utility.yul\":12172:12175   */\n      dup3\n        /* \"#utility.yul\":12083:12176   */\n      tag_199\n      jump\t// in\n    tag_313:\n        /* \"#utility.yul\":12201:12203   */\n      0x20\n        /* \"#utility.yul\":12196:12199   */\n      dup3\n        /* \"#utility.yul\":12192:12204   */\n      add\n        /* \"#utility.yul\":12185:12204   */\n      swap1\n      pop\n        /* \"#utility.yul\":11844:12210   */\n      swap2\n      swap1\n      pop\n      jump\t// out\n        /* \"#utility.yul\":12216:12635   */\n    tag_167:\n        /* \"#utility.yul\":12382:12386   */\n      0x00\n        /* \"#utility.yul\":12420:12422   */\n      0x20\n        /* \"#utility.yul\":12409:12418   */\n      dup3\n        /* \"#utility.yul\":12405:12423   */\n      add\n        /* \"#utility.yul\":12397:12423   */\n      swap1\n      pop\n        /* \"#utility.yul\":12469:12478   */\n      dup2\n        /* \"#utility.yul\":12463:12467   */\n      dup2\n        /* \"#utility.yul\":12459:12479   */\n      sub\n        /* \"#utility.yul\":12455:12456   */\n      0x00\n        /* \"#utility.yul\":12444:12453   */\n      dup4\n        /* \"#utility.yul\":12440:12457   */\n      add\n        /* \"#utility.yul\":12433:12480   */\n      mstore\n        /* \"#utility.yul\":12497:12628   */\n      tag_315\n        /* \"#utility.yul\":12623:12627   */\n      dup2\n        /* \"#utility.yul\":12497:12628   */\n      tag_200\n      jump\t// in\n    tag_315:\n        /* \"#utility.yul\":12489:12628   */\n      swap1\n      pop\n        /* \"#utility.yul\":12216:12635   */\n      swap2\n      swap1\n      pop\n      jump\t// out\n\n    auxdata: 0xa2646970667358221220c8206f094178e237cf24938b60c4b2d825922658ae692b4eb727be09f951613f64736f6c634300081a0033\n}\n",
				"bytecode": {
					"linkReferences": {},
					"object": "608060405234801561000f575f80fd5b50604051611837380380611837833981810160405281019061003191906101d2565b835f806101000a81548173ffffffffffffffffffffffffffffffffffffffff021916908373ffffffffffffffffffffffffffffffffffffffff1602179055508260015f6101000a81548173ffffffffffffffffffffffffffffffffffffffff021916908373ffffffffffffffffffffffffffffffffffffffff1602179055508160025f6101000a81548173ffffffffffffffffffffffffffffffffffffffff021916908373ffffffffffffffffffffffffffffffffffffffff1602179055508060035f6101000a81548173ffffffffffffffffffffffffffffffffffffffff021916908373ffffffffffffffffffffffffffffffffffffffff16021790555050505050610236565b5f80fd5b5f73ffffffffffffffffffffffffffffffffffffffff82169050919050565b5f6101668261013d565b9050919050565b6101768161015c565b8114610180575f80fd5b50565b5f815190506101918161016d565b92915050565b5f6101a18261013d565b9050919050565b6101b181610197565b81146101bb575f80fd5b50565b5f815190506101cc816101a8565b92915050565b5f805f80608085870312156101ea576101e9610139565b5b5f6101f787828801610183565b9450506020610208878288016101be565b935050604061021987828801610183565b925050606061022a87828801610183565b91505092959194509250565b6115f4806102435f395ff3fe608060405260043610610117575f3560e01c8063aa9293801161009f578063d0e30db011610063578063d0e30db0146103b2578063e740f770146103bc578063ed2cee9e146103d8578063fc7e286d14610402578063fcce48831461043e5761011e565b8063aa929380146102e0578063b848de3514610308578063bcead63e14610344578063bd94b0051461036e578063c9f0ec7e146103965761011e565b80635bf8633a116100e65780635bf8633a146101da5780635d19e56c146102045780635eed5fff1461024057806377fbc4ae1461027c5780639d0e5fd6146102b85761011e565b806308551a531461012257806312065fe01461014c57806314a72feb146101765780634dd4acaf1461019e5761011e565b3661011e57005b5f80fd5b34801561012d575f80fd5b5061013661047a565b6040516101439190610fc9565b60405180910390f35b348015610157575f80fd5b5061016061049f565b60405161016d9190610ffa565b60405180910390f35b348015610181575f80fd5b5061019c60048036038101906101979190611041565b6104a6565b005b3480156101a9575f80fd5b506101c460048036038101906101bf9190611041565b61050d565b6040516101d1919061108c565b60405180910390f35b3480156101e5575f80fd5b506101ee61053d565b6040516101fb919061108c565b60405180910390f35b34801561020f575f80fd5b5061022a60048036038101906102259190611041565b610560565b6040516102379190610ffa565b60405180910390f35b34801561024b575f80fd5b5061026660048036038101906102619190611041565b610575565b60405161027391906110bf565b60405180910390f35b348015610287575f80fd5b506102a2600480360381019061029d9190611041565b610592565b6040516102af9190610ffa565b60405180910390f35b3480156102c3575f80fd5b506102de60048036038101906102d99190611102565b6105a7565b005b3480156102eb575f80fd5b5061030660048036038101906103019190611041565b610662565b005b348015610313575f80fd5b5061032e6004803603810190610329919061116a565b6109e8565b60405161033b91906110bf565b60405180910390f35b34801561034f575f80fd5b50610358610a12565b604051610365919061108c565b60405180910390f35b348015610379575f80fd5b50610394600480360381019061038f9190611041565b610a37565b005b6103b060048036038101906103ab91906111a8565b610c25565b005b6103ba610de7565b005b6103d660048036038101906103d19190611041565b610e3c565b005b3480156103e3575f80fd5b506103ec610f33565b6040516103f9919061108c565b60405180910390f35b34801561040d575f80fd5b506104286004803603810190610423919061120c565b610f58565b6040516104359190610ffa565b60405180910390f35b348015610449575f80fd5b50610464600480360381019061045f9190611041565b610f6d565b60405161047191906110bf565b60405180910390f35b60015f9054906101000a900473ffffffffffffffffffffffffffffffffffffffff1681565b5f47905090565b600160095f8381526020019081526020015f205f3373ffffffffffffffffffffffffffffffffffffffff1673ffffffffffffffffffffffffffffffffffffffff1681526020019081526020015f205f6101000a81548160ff02191690831515021790555050565b6007602052805f5260405f205f915054906101000a900473ffffffffffffffffffffffffffffffffffffffff1681565b5f8054906101000a900473ffffffffffffffffffffffffffffffffffffffff1681565b6006602052805f5260405f205f915090505481565b6008602052805f5260405f205f915054906101000a900460ff1681565b6005602052805f5260405f205f915090505481565b60035f9054906101000a900473ffffffffffffffffffffffffffffffffffffffff1673ffffffffffffffffffffffffffffffffffffffff163373ffffffffffffffffffffffffffffffffffffffff1614610636576040517f08c379a000000000000000000000000000000000000000000000000000000000815260040161062d906112b7565b60405180910390fd5b8060085f8481526020019081526020015f205f6101000a81548160ff0219169083151502179055505050565b60085f8281526020019081526020015f205f9054906101000a900460ff16610688575f80fd5b60095f8281526020019081526020015f205f60075f8481526020019081526020015f205f9054906101000a900473ffffffffffffffffffffffffffffffffffffffff1673ffffffffffffffffffffffffffffffffffffffff1673ffffffffffffffffffffffffffffffffffffffff1681526020019081526020015f205f9054906101000a900460ff16610719575f80fd5b60095f8281526020019081526020015f205f60015f9054906101000a900473ffffffffffffffffffffffffffffffffffffffff1673ffffffffffffffffffffffffffffffffffffffff1673ffffffffffffffffffffffffffffffffffffffff1681526020019081526020015f205f9054906101000a900460ff1661079b575f80fd5b60095f8281526020019081526020015f205f60025f9054906101000a900473ffffffffffffffffffffffffffffffffffffffff1673ffffffffffffffffffffffffffffffffffffffff1673ffffffffffffffffffffffffffffffffffffffff1681526020019081526020015f205f9054906101000a900460ff1661081d575f80fd5b5f60045f8381526020019081526020015f205f6101000a81548160ff02191690831515021790555060055f8281526020019081526020015f2054471015610899576040517f08c379a00000000000000000000000000000000000000000000000000000000081526004016108909061131f565b60405180910390fd5b5f60015f9054906101000a900473ffffffffffffffffffffffffffffffffffffffff1673ffffffffffffffffffffffffffffffffffffffff16476040516108df90611391565b5f6040518083038185875af1925050503d805f8114610919576040519150601f19603f3d011682016040523d82523d5f602084013e61091e565b606091505b505090508061092b575f80fd5b5f8054906101000a900473ffffffffffffffffffffffffffffffffffffffff1673ffffffffffffffffffffffffffffffffffffffff166323b872dd3060075f8681526020019081526020015f205f9054906101000a900473ffffffffffffffffffffffffffffffffffffffff16856040518463ffffffff1660e01b81526004016109b7939291906113a5565b5f604051808303815f87803b1580156109ce575f80fd5b505af11580156109e0573d5f803e3d5ffd5b505050505050565b6009602052815f5260405f20602052805f5260405f205f915091509054906101000a900460ff1681565b60025f9054906101000a900473ffffffffffffffffffffffffffffffffffffffff1681565b5f151560085f8381526020019081526020015f205f9054906101000a900460ff16151503610bbc575f600a5f60075f8581526020019081526020015f205f9054906101000a900473ffffffffffffffffffffffffffffffffffffffff1673ffffffffffffffffffffffffffffffffffffffff1673ffffffffffffffffffffffffffffffffffffffff1681526020019081526020015f205490505f600a5f60075f8681526020019081526020015f205f9054906101000a900473ffffffffffffffffffffffffffffffffffffffff1673ffffffffffffffffffffffffffffffffffffffff1673ffffffffffffffffffffffffffffffffffffffff1681526020019081526020015f208190555060075f8381526020019081526020015f205f9054906101000a900473ffffffffffffffffffffffffffffffffffffffff1673ffffffffffffffffffffffffffffffffffffffff166108fc8290811502906040515f60405180830381858888f19350505050158015610bb5573d5f803e3d5ffd5b5050610c22565b60015f9054906101000a900473ffffffffffffffffffffffffffffffffffffffff1673ffffffffffffffffffffffffffffffffffffffff166108fc4790811502906040515f60405180830381858888f19350505050158015610c20573d5f803e3d5ffd5b505b50565b60015f9054906101000a900473ffffffffffffffffffffffffffffffffffffffff1673ffffffffffffffffffffffffffffffffffffffff163373ffffffffffffffffffffffffffffffffffffffff1614610cb4576040517f08c379a0000000000000000000000000000000000000000000000000000000008152600401610cab9061144a565b60405180910390fd5b5f8054906101000a900473ffffffffffffffffffffffffffffffffffffffff1673ffffffffffffffffffffffffffffffffffffffff166323b872dd3330876040518463ffffffff1660e01b8152600401610d10939291906113a5565b5f604051808303815f87803b158015610d27575f80fd5b505af1158015610d39573d5f803e3d5ffd5b50505050600160045f8681526020019081526020015f205f6101000a81548160ff0219169083151502179055508160055f8681526020019081526020015f20819055508060065f8681526020019081526020015f20819055508260075f8681526020019081526020015f205f6101000a81548173ffffffffffffffffffffffffffffffffffffffff021916908373ffffffffffffffffffffffffffffffffffffffff16021790555050505050565b34600a5f3373ffffffffffffffffffffffffffffffffffffffff1673ffffffffffffffffffffffffffffffffffffffff1681526020019081526020015f205f828254610e339190611495565b92505081905550565b8060075f8281526020019081526020015f205f9054906101000a900473ffffffffffffffffffffffffffffffffffffffff1673ffffffffffffffffffffffffffffffffffffffff163373ffffffffffffffffffffffffffffffffffffffff1614610edb576040517f08c379a0000000000000000000000000000000000000000000000000000000008152600401610ed290611538565b60405180910390fd5b60065f8381526020019081526020015f2054341015610f2f576040517f08c379a0000000000000000000000000000000000000000000000000000000008152600401610f26906115a0565b60405180910390fd5b5050565b60035f9054906101000a900473ffffffffffffffffffffffffffffffffffffffff1681565b600a602052805f5260405f205f915090505481565b6004602052805f5260405f205f915054906101000a900460ff1681565b5f73ffffffffffffffffffffffffffffffffffffffff82169050919050565b5f610fb382610f8a565b9050919050565b610fc381610fa9565b82525050565b5f602082019050610fdc5f830184610fba565b92915050565b5f819050919050565b610ff481610fe2565b82525050565b5f60208201905061100d5f830184610feb565b92915050565b5f80fd5b61102081610fe2565b811461102a575f80fd5b50565b5f8135905061103b81611017565b92915050565b5f6020828403121561105657611055611013565b5b5f6110638482850161102d565b91505092915050565b5f61107682610f8a565b9050919050565b6110868161106c565b82525050565b5f60208201905061109f5f83018461107d565b92915050565b5f8115159050919050565b6110b9816110a5565b82525050565b5f6020820190506110d25f8301846110b0565b92915050565b6110e1816110a5565b81146110eb575f80fd5b50565b5f813590506110fc816110d8565b92915050565b5f806040838503121561111857611117611013565b5b5f6111258582860161102d565b9250506020611136858286016110ee565b9150509250929050565b6111498161106c565b8114611153575f80fd5b50565b5f8135905061116481611140565b92915050565b5f80604083850312156111805761117f611013565b5b5f61118d8582860161102d565b925050602061119e85828601611156565b9150509250929050565b5f805f80608085870312156111c0576111bf611013565b5b5f6111cd8782880161102d565b94505060206111de87828801611156565b93505060406111ef8782880161102d565b92505060606112008782880161102d565b91505092959194509250565b5f6020828403121561122157611220611013565b5b5f61122e84828501611156565b91505092915050565b5f82825260208201905092915050565b7f4f6e6c7920696e73706563746f722063616e2063616c6c2074686973206d65745f8201527f686f640000000000000000000000000000000000000000000000000000000000602082015250565b5f6112a1602383611237565b91506112ac82611247565b604082019050919050565b5f6020820190508181035f8301526112ce81611295565b9050919050565b7f496e73756666696369656e742066756e6473202d20457363726f7700000000005f82015250565b5f611309601b83611237565b9150611314826112d5565b602082019050919050565b5f6020820190508181035f830152611336816112fd565b9050919050565b5f81905092915050565b7f20000000000000000000000000000000000000000000000000000000000000005f82015250565b5f61137b60018361133d565b915061138682611347565b600182019050919050565b5f61139b8261136f565b9150819050919050565b5f6060820190506113b85f83018661107d565b6113c5602083018561107d565b6113d26040830184610feb565b949350505050565b7f4f6e6c792073656c6c65722063616e642063616c6c2074686973206d6574686f5f8201527f6400000000000000000000000000000000000000000000000000000000000000602082015250565b5f611434602183611237565b915061143f826113da565b604082019050919050565b5f6020820190508181035f83015261146181611428565b9050919050565b7f4e487b71000000000000000000000000000000000000000000000000000000005f52601160045260245ffd5b5f61149f82610fe2565b91506114aa83610fe2565b92508282019050808211156114c2576114c1611468565b5b92915050565b7f4f6e6c792062757965722063616e2063616c6c2074686973206d6574686f64285f8201527f646f776e207061796d656e742900000000000000000000000000000000000000602082015250565b5f611522602d83611237565b915061152d826114c8565b604082019050919050565b5f6020820190508181035f83015261154f81611516565b9050919050565b7f496e73756666696369656e742046756e647300000000000000000000000000005f82015250565b5f61158a601283611237565b915061159582611556565b602082019050919050565b5f6020820190508181035f8301526115b78161157e565b905091905056fea2646970667358221220c8206f094178e237cf24938b60c4b2d825922658ae692b4eb727be09f951613f64736f6c634300081a0033",
					"opcodes": "PUSH1 0x80 PUSH1 0x40 MSTORE CALLVALUE DUP1 ISZERO PUSH2 0xF JUMPI PUSH0 DUP1 REVERT JUMPDEST POP PUSH1 0x40 MLOAD PUSH2 0x1837 CODESIZE SUB DUP1 PUSH2 0x1837 DUP4 CODECOPY DUP2 DUP2 ADD PUSH1 0x40 MSTORE DUP2 ADD SWAP1 PUSH2 0x31 SWAP2 SWAP1 PUSH2 0x1D2 JUMP JUMPDEST DUP4 PUSH0 DUP1 PUSH2 0x100 EXP DUP2 SLOAD DUP2 PUSH20 0xFFFFFFFFFFFFFFFFFFFFFFFFFFFFFFFFFFFFFFFF MUL NOT AND SWAP1 DUP4 PUSH20 0xFFFFFFFFFFFFFFFFFFFFFFFFFFFFFFFFFFFFFFFF AND MUL OR SWAP1 SSTORE POP DUP3 PUSH1 0x1 PUSH0 PUSH2 0x100 EXP DUP2 SLOAD DUP2 PUSH20 0xFFFFFFFFFFFFFFFFFFFFFFFFFFFFFFFFFFFFFFFF MUL NOT AND SWAP1 DUP4 PUSH20 0xFFFFFFFFFFFFFFFFFFFFFFFFFFFFFFFFFFFFFFFF AND MUL OR SWAP1 SSTORE POP DUP2 PUSH1 0x2 PUSH0 PUSH2 0x100 EXP DUP2 SLOAD DUP2 PUSH20 0xFFFFFFFFFFFFFFFFFFFFFFFFFFFFFFFFFFFFFFFF MUL NOT AND SWAP1 DUP4 PUSH20 0xFFFFFFFFFFFFFFFFFFFFFFFFFFFFFFFFFFFFFFFF AND MUL OR SWAP1 SSTORE POP DUP1 PUSH1 0x3 PUSH0 PUSH2 0x100 EXP DUP2 SLOAD DUP2 PUSH20 0xFFFFFFFFFFFFFFFFFFFFFFFFFFFFFFFFFFFFFFFF MUL NOT AND SWAP1 DUP4 PUSH20 0xFFFFFFFFFFFFFFFFFFFFFFFFFFFFFFFFFFFFFFFF AND MUL OR SWAP1 SSTORE POP POP POP POP POP PUSH2 0x236 JUMP JUMPDEST PUSH0 DUP1 REVERT JUMPDEST PUSH0 PUSH20 0xFFFFFFFFFFFFFFFFFFFFFFFFFFFFFFFFFFFFFFFF DUP3 AND SWAP1 POP SWAP2 SWAP1 POP JUMP JUMPDEST PUSH0 PUSH2 0x166 DUP3 PUSH2 0x13D JUMP JUMPDEST SWAP1 POP SWAP2 SWAP1 POP JUMP JUMPDEST PUSH2 0x176 DUP2 PUSH2 0x15C JUMP JUMPDEST DUP2 EQ PUSH2 0x180 JUMPI PUSH0 DUP1 REVERT JUMPDEST POP JUMP JUMPDEST PUSH0 DUP2 MLOAD SWAP1 POP PUSH2 0x191 DUP2 PUSH2 0x16D JUMP JUMPDEST SWAP3 SWAP2 POP POP JUMP JUMPDEST PUSH0 PUSH2 0x1A1 DUP3 PUSH2 0x13D JUMP JUMPDEST SWAP1 POP SWAP2 SWAP1 POP JUMP JUMPDEST PUSH2 0x1B1 DUP2 PUSH2 0x197 JUMP JUMPDEST DUP2 EQ PUSH2 0x1BB JUMPI PUSH0 DUP1 REVERT JUMPDEST POP JUMP JUMPDEST PUSH0 DUP2 MLOAD SWAP1 POP PUSH2 0x1CC DUP2 PUSH2 0x1A8 JUMP JUMPDEST SWAP3 SWAP2 POP POP JUMP JUMPDEST PUSH0 DUP1 PUSH0 DUP1 PUSH1 0x80 DUP6 DUP8 SUB SLT ISZERO PUSH2 0x1EA JUMPI PUSH2 0x1E9 PUSH2 0x139 JUMP JUMPDEST JUMPDEST PUSH0 PUSH2 0x1F7 DUP8 DUP3 DUP9 ADD PUSH2 0x183 JUMP JUMPDEST SWAP5 POP POP PUSH1 0x20 PUSH2 0x208 DUP8 DUP3 DUP9 ADD PUSH2 0x1BE JUMP JUMPDEST SWAP4 POP POP PUSH1 0x40 PUSH2 0x219 DUP8 DUP3 DUP9 ADD PUSH2 0x183 JUMP JUMPDEST SWAP3 POP POP PUSH1 0x60 PUSH2 0x22A DUP8 DUP3 DUP9 ADD PUSH2 0x183 JUMP JUMPDEST SWAP2 POP POP SWAP3 SWAP6 SWAP2 SWAP5 POP SWAP3 POP JUMP JUMPDEST PUSH2 0x15F4 DUP1 PUSH2 0x243 PUSH0 CODECOPY PUSH0 RETURN INVALID PUSH1 0x80 PUSH1 0x40 MSTORE PUSH1 0x4 CALLDATASIZE LT PUSH2 0x117 JUMPI PUSH0 CALLDATALOAD PUSH1 0xE0 SHR DUP1 PUSH4 0xAA929380 GT PUSH2 0x9F JUMPI DUP1 PUSH4 0xD0E30DB0 GT PUSH2 0x63 JUMPI DUP1 PUSH4 0xD0E30DB0 EQ PUSH2 0x3B2 JUMPI DUP1 PUSH4 0xE740F770 EQ PUSH2 0x3BC JUMPI DUP1 PUSH4 0xED2CEE9E EQ PUSH2 0x3D8 JUMPI DUP1 PUSH4 0xFC7E286D EQ PUSH2 0x402 JUMPI DUP1 PUSH4 0xFCCE4883 EQ PUSH2 0x43E JUMPI PUSH2 0x11E JUMP JUMPDEST DUP1 PUSH4 0xAA929380 EQ PUSH2 0x2E0 JUMPI DUP1 PUSH4 0xB848DE35 EQ PUSH2 0x308 JUMPI DUP1 PUSH4 0xBCEAD63E EQ PUSH2 0x344 JUMPI DUP1 PUSH4 0xBD94B005 EQ PUSH2 0x36E JUMPI DUP1 PUSH4 0xC9F0EC7E EQ PUSH2 0x396 JUMPI PUSH2 0x11E JUMP JUMPDEST DUP1 PUSH4 0x5BF8633A GT PUSH2 0xE6 JUMPI DUP1 PUSH4 0x5BF8633A EQ PUSH2 0x1DA JUMPI DUP1 PUSH4 0x5D19E56C EQ PUSH2 0x204 JUMPI DUP1 PUSH4 0x5EED5FFF EQ PUSH2 0x240 JUMPI DUP1 PUSH4 0x77FBC4AE EQ PUSH2 0x27C JUMPI DUP1 PUSH4 0x9D0E5FD6 EQ PUSH2 0x2B8 JUMPI PUSH2 0x11E JUMP JUMPDEST DUP1 PUSH4 0x8551A53 EQ PUSH2 0x122 JUMPI DUP1 PUSH4 0x12065FE0 EQ PUSH2 0x14C JUMPI DUP1 PUSH4 0x14A72FEB EQ PUSH2 0x176 JUMPI DUP1 PUSH4 0x4DD4ACAF EQ PUSH2 0x19E JUMPI PUSH2 0x11E JUMP JUMPDEST CALLDATASIZE PUSH2 0x11E JUMPI STOP JUMPDEST PUSH0 DUP1 REVERT JUMPDEST CALLVALUE DUP1 ISZERO PUSH2 0x12D JUMPI PUSH0 DUP1 REVERT JUMPDEST POP PUSH2 0x136 PUSH2 0x47A JUMP JUMPDEST PUSH1 0x40 MLOAD PUSH2 0x143 SWAP2 SWAP1 PUSH2 0xFC9 JUMP JUMPDEST PUSH1 0x40 MLOAD DUP1 SWAP2 SUB SWAP1 RETURN JUMPDEST CALLVALUE DUP1 ISZERO PUSH2 0x157 JUMPI PUSH0 DUP1 REVERT JUMPDEST POP PUSH2 0x160 PUSH2 0x49F JUMP JUMPDEST PUSH1 0x40 MLOAD PUSH2 0x16D SWAP2 SWAP1 PUSH2 0xFFA JUMP JUMPDEST PUSH1 0x40 MLOAD DUP1 SWAP2 SUB SWAP1 RETURN JUMPDEST CALLVALUE DUP1 ISZERO PUSH2 0x181 JUMPI PUSH0 DUP1 REVERT JUMPDEST POP PUSH2 0x19C PUSH1 0x4 DUP1 CALLDATASIZE SUB DUP2 ADD SWAP1 PUSH2 0x197 SWAP2 SWAP1 PUSH2 0x1041 JUMP JUMPDEST PUSH2 0x4A6 JUMP JUMPDEST STOP JUMPDEST CALLVALUE DUP1 ISZERO PUSH2 0x1A9 JUMPI PUSH0 DUP1 REVERT JUMPDEST POP PUSH2 0x1C4 PUSH1 0x4 DUP1 CALLDATASIZE SUB DUP2 ADD SWAP1 PUSH2 0x1BF SWAP2 SWAP1 PUSH2 0x1041 JUMP JUMPDEST PUSH2 0x50D JUMP JUMPDEST PUSH1 0x40 MLOAD PUSH2 0x1D1 SWAP2 SWAP1 PUSH2 0x108C JUMP JUMPDEST PUSH1 0x40 MLOAD DUP1 SWAP2 SUB SWAP1 RETURN JUMPDEST CALLVALUE DUP1 ISZERO PUSH2 0x1E5 JUMPI PUSH0 DUP1 REVERT JUMPDEST POP PUSH2 0x1EE PUSH2 0x53D JUMP JUMPDEST PUSH1 0x40 MLOAD PUSH2 0x1FB SWAP2 SWAP1 PUSH2 0x108C JUMP JUMPDEST PUSH1 0x40 MLOAD DUP1 SWAP2 SUB SWAP1 RETURN JUMPDEST CALLVALUE DUP1 ISZERO PUSH2 0x20F JUMPI PUSH0 DUP1 REVERT JUMPDEST POP PUSH2 0x22A PUSH1 0x4 DUP1 CALLDATASIZE SUB DUP2 ADD SWAP1 PUSH2 0x225 SWAP2 SWAP1 PUSH2 0x1041 JUMP JUMPDEST PUSH2 0x560 JUMP JUMPDEST PUSH1 0x40 MLOAD PUSH2 0x237 SWAP2 SWAP1 PUSH2 0xFFA JUMP JUMPDEST PUSH1 0x40 MLOAD DUP1 SWAP2 SUB SWAP1 RETURN JUMPDEST CALLVALUE DUP1 ISZERO PUSH2 0x24B JUMPI PUSH0 DUP1 REVERT JUMPDEST POP PUSH2 0x266 PUSH1 0x4 DUP1 CALLDATASIZE SUB DUP2 ADD SWAP1 PUSH2 0x261 SWAP2 SWAP1 PUSH2 0x1041 JUMP JUMPDEST PUSH2 0x575 JUMP JUMPDEST PUSH1 0x40 MLOAD PUSH2 0x273 SWAP2 SWAP1 PUSH2 0x10BF JUMP JUMPDEST PUSH1 0x40 MLOAD DUP1 SWAP2 SUB SWAP1 RETURN JUMPDEST CALLVALUE DUP1 ISZERO PUSH2 0x287 JUMPI PUSH0 DUP1 REVERT JUMPDEST POP PUSH2 0x2A2 PUSH1 0x4 DUP1 CALLDATASIZE SUB DUP2 ADD SWAP1 PUSH2 0x29D SWAP2 SWAP1 PUSH2 0x1041 JUMP JUMPDEST PUSH2 0x592 JUMP JUMPDEST PUSH1 0x40 MLOAD PUSH2 0x2AF SWAP2 SWAP1 PUSH2 0xFFA JUMP JUMPDEST PUSH1 0x40 MLOAD DUP1 SWAP2 SUB SWAP1 RETURN JUMPDEST CALLVALUE DUP1 ISZERO PUSH2 0x2C3 JUMPI PUSH0 DUP1 REVERT JUMPDEST POP PUSH2 0x2DE PUSH1 0x4 DUP1 CALLDATASIZE SUB DUP2 ADD SWAP1 PUSH2 0x2D9 SWAP2 SWAP1 PUSH2 0x1102 JUMP JUMPDEST PUSH2 0x5A7 JUMP JUMPDEST STOP JUMPDEST CALLVALUE DUP1 ISZERO PUSH2 0x2EB JUMPI PUSH0 DUP1 REVERT JUMPDEST POP PUSH2 0x306 PUSH1 0x4 DUP1 CALLDATASIZE SUB DUP2 ADD SWAP1 PUSH2 0x301 SWAP2 SWAP1 PUSH2 0x1041 JUMP JUMPDEST PUSH2 0x662 JUMP JUMPDEST STOP JUMPDEST CALLVALUE DUP1 ISZERO PUSH2 0x313 JUMPI PUSH0 DUP1 REVERT JUMPDEST POP PUSH2 0x32E PUSH1 0x4 DUP1 CALLDATASIZE SUB DUP2 ADD SWAP1 PUSH2 0x329 SWAP2 SWAP1 PUSH2 0x116A JUMP JUMPDEST PUSH2 0x9E8 JUMP JUMPDEST PUSH1 0x40 MLOAD PUSH2 0x33B SWAP2 SWAP1 PUSH2 0x10BF JUMP JUMPDEST PUSH1 0x40 MLOAD DUP1 SWAP2 SUB SWAP1 RETURN JUMPDEST CALLVALUE DUP1 ISZERO PUSH2 0x34F JUMPI PUSH0 DUP1 REVERT JUMPDEST POP PUSH2 0x358 PUSH2 0xA12 JUMP JUMPDEST PUSH1 0x40 MLOAD PUSH2 0x365 SWAP2 SWAP1 PUSH2 0x108C JUMP JUMPDEST PUSH1 0x40 MLOAD DUP1 SWAP2 SUB SWAP1 RETURN JUMPDEST CALLVALUE DUP1 ISZERO PUSH2 0x379 JUMPI PUSH0 DUP1 REVERT JUMPDEST POP PUSH2 0x394 PUSH1 0x4 DUP1 CALLDATASIZE SUB DUP2 ADD SWAP1 PUSH2 0x38F SWAP2 SWAP1 PUSH2 0x1041 JUMP JUMPDEST PUSH2 0xA37 JUMP JUMPDEST STOP JUMPDEST PUSH2 0x3B0 PUSH1 0x4 DUP1 CALLDATASIZE SUB DUP2 ADD SWAP1 PUSH2 0x3AB SWAP2 SWAP1 PUSH2 0x11A8 JUMP JUMPDEST PUSH2 0xC25 JUMP JUMPDEST STOP JUMPDEST PUSH2 0x3BA PUSH2 0xDE7 JUMP JUMPDEST STOP JUMPDEST PUSH2 0x3D6 PUSH1 0x4 DUP1 CALLDATASIZE SUB DUP2 ADD SWAP1 PUSH2 0x3D1 SWAP2 SWAP1 PUSH2 0x1041 JUMP JUMPDEST PUSH2 0xE3C JUMP JUMPDEST STOP JUMPDEST CALLVALUE DUP1 ISZERO PUSH2 0x3E3 JUMPI PUSH0 DUP1 REVERT JUMPDEST POP PUSH2 0x3EC PUSH2 0xF33 JUMP JUMPDEST PUSH1 0x40 MLOAD PUSH2 0x3F9 SWAP2 SWAP1 PUSH2 0x108C JUMP JUMPDEST PUSH1 0x40 MLOAD DUP1 SWAP2 SUB SWAP1 RETURN JUMPDEST CALLVALUE DUP1 ISZERO PUSH2 0x40D JUMPI PUSH0 DUP1 REVERT JUMPDEST POP PUSH2 0x428 PUSH1 0x4 DUP1 CALLDATASIZE SUB DUP2 ADD SWAP1 PUSH2 0x423 SWAP2 SWAP1 PUSH2 0x120C JUMP JUMPDEST PUSH2 0xF58 JUMP JUMPDEST PUSH1 0x40 MLOAD PUSH2 0x435 SWAP2 SWAP1 PUSH2 0xFFA JUMP JUMPDEST PUSH1 0x40 MLOAD DUP1 SWAP2 SUB SWAP1 RETURN JUMPDEST CALLVALUE DUP1 ISZERO PUSH2 0x449 JUMPI PUSH0 DUP1 REVERT JUMPDEST POP PUSH2 0x464 PUSH1 0x4 DUP1 CALLDATASIZE SUB DUP2 ADD SWAP1 PUSH2 0x45F SWAP2 SWAP1 PUSH2 0x1041 JUMP JUMPDEST PUSH2 0xF6D JUMP JUMPDEST PUSH1 0x40 MLOAD PUSH2 0x471 SWAP2 SWAP1 PUSH2 0x10BF JUMP JUMPDEST PUSH1 0x40 MLOAD DUP1 SWAP2 SUB SWAP1 RETURN JUMPDEST PUSH1 0x1 PUSH0 SWAP1 SLOAD SWAP1 PUSH2 0x100 EXP SWAP1 DIV PUSH20 0xFFFFFFFFFFFFFFFFFFFFFFFFFFFFFFFFFFFFFFFF AND DUP2 JUMP JUMPDEST PUSH0 SELFBALANCE SWAP1 POP SWAP1 JUMP JUMPDEST PUSH1 0x1 PUSH1 0x9 PUSH0 DUP4 DUP2 MSTORE PUSH1 0x20 ADD SWAP1 DUP2 MSTORE PUSH1 0x20 ADD PUSH0 KECCAK256 PUSH0 CALLER PUSH20 0xFFFFFFFFFFFFFFFFFFFFFFFFFFFFFFFFFFFFFFFF AND PUSH20 0xFFFFFFFFFFFFFFFFFFFFFFFFFFFFFFFFFFFFFFFF AND DUP2 MSTORE PUSH1 0x20 ADD SWAP1 DUP2 MSTORE PUSH1 0x20 ADD PUSH0 KECCAK256 PUSH0 PUSH2 0x100 EXP DUP2 SLOAD DUP2 PUSH1 0xFF MUL NOT AND SWAP1 DUP4 ISZERO ISZERO MUL OR SWAP1 SSTORE POP POP JUMP JUMPDEST PUSH1 0x7 PUSH1 0x20 MSTORE DUP1 PUSH0 MSTORE PUSH1 0x40 PUSH0 KECCAK256 PUSH0 SWAP2 POP SLOAD SWAP1 PUSH2 0x100 EXP SWAP1 DIV PUSH20 0xFFFFFFFFFFFFFFFFFFFFFFFFFFFFFFFFFFFFFFFF AND DUP2 JUMP JUMPDEST PUSH0 DUP1 SLOAD SWAP1 PUSH2 0x100 EXP SWAP1 DIV PUSH20 0xFFFFFFFFFFFFFFFFFFFFFFFFFFFFFFFFFFFFFFFF AND DUP2 JUMP JUMPDEST PUSH1 0x6 PUSH1 0x20 MSTORE DUP1 PUSH0 MSTORE PUSH1 0x40 PUSH0 KECCAK256 PUSH0 SWAP2 POP SWAP1 POP SLOAD DUP2 JUMP JUMPDEST PUSH1 0x8 PUSH1 0x20 MSTORE DUP1 PUSH0 MSTORE PUSH1 0x40 PUSH0 KECCAK256 PUSH0 SWAP2 POP SLOAD SWAP1 PUSH2 0x100 EXP SWAP1 DIV PUSH1 0xFF AND DUP2 JUMP JUMPDEST PUSH1 0x5 PUSH1 0x20 MSTORE DUP1 PUSH0 MSTORE PUSH1 0x40 PUSH0 KECCAK256 PUSH0 SWAP2 POP SWAP1 POP SLOAD DUP2 JUMP JUMPDEST PUSH1 0x3 PUSH0 SWAP1 SLOAD SWAP1 PUSH2 0x100 EXP SWAP1 DIV PUSH20 0xFFFFFFFFFFFFFFFFFFFFFFFFFFFFFFFFFFFFFFFF AND PUSH20 0xFFFFFFFFFFFFFFFFFFFFFFFFFFFFFFFFFFFFFFFF AND CALLER PUSH20 0xFFFFFFFFFFFFFFFFFFFFFFFFFFFFFFFFFFFFFFFF AND EQ PUSH2 0x636 JUMPI PUSH1 0x40 MLOAD PUSH32 0x8C379A000000000000000000000000000000000000000000000000000000000 DUP2 MSTORE PUSH1 0x4 ADD PUSH2 0x62D SWAP1 PUSH2 0x12B7 JUMP JUMPDEST PUSH1 0x40 MLOAD DUP1 SWAP2 SUB SWAP1 REVERT JUMPDEST DUP1 PUSH1 0x8 PUSH0 DUP5 DUP2 MSTORE PUSH1 0x20 ADD SWAP1 DUP2 MSTORE PUSH1 0x20 ADD PUSH0 KECCAK256 PUSH0 PUSH2 0x100 EXP DUP2 SLOAD DUP2 PUSH1 0xFF MUL NOT AND SWAP1 DUP4 ISZERO ISZERO MUL OR SWAP1 SSTORE POP POP POP JUMP JUMPDEST PUSH1 0x8 PUSH0 DUP3 DUP2 MSTORE PUSH1 0x20 ADD SWAP1 DUP2 MSTORE PUSH1 0x20 ADD PUSH0 KECCAK256 PUSH0 SWAP1 SLOAD SWAP1 PUSH2 0x100 EXP SWAP1 DIV PUSH1 0xFF AND PUSH2 0x688 JUMPI PUSH0 DUP1 REVERT JUMPDEST PUSH1 0x9 PUSH0 DUP3 DUP2 MSTORE PUSH1 0x20 ADD SWAP1 DUP2 MSTORE PUSH1 0x20 ADD PUSH0 KECCAK256 PUSH0 PUSH1 0x7 PUSH0 DUP5 DUP2 MSTORE PUSH1 0x20 ADD SWAP1 DUP2 MSTORE PUSH1 0x20 ADD PUSH0 KECCAK256 PUSH0 SWAP1 SLOAD SWAP1 PUSH2 0x100 EXP SWAP1 DIV PUSH20 0xFFFFFFFFFFFFFFFFFFFFFFFFFFFFFFFFFFFFFFFF AND PUSH20 0xFFFFFFFFFFFFFFFFFFFFFFFFFFFFFFFFFFFFFFFF AND PUSH20 0xFFFFFFFFFFFFFFFFFFFFFFFFFFFFFFFFFFFFFFFF AND DUP2 MSTORE PUSH1 0x20 ADD SWAP1 DUP2 MSTORE PUSH1 0x20 ADD PUSH0 KECCAK256 PUSH0 SWAP1 SLOAD SWAP1 PUSH2 0x100 EXP SWAP1 DIV PUSH1 0xFF AND PUSH2 0x719 JUMPI PUSH0 DUP1 REVERT JUMPDEST PUSH1 0x9 PUSH0 DUP3 DUP2 MSTORE PUSH1 0x20 ADD SWAP1 DUP2 MSTORE PUSH1 0x20 ADD PUSH0 KECCAK256 PUSH0 PUSH1 0x1 PUSH0 SWAP1 SLOAD SWAP1 PUSH2 0x100 EXP SWAP1 DIV PUSH20 0xFFFFFFFFFFFFFFFFFFFFFFFFFFFFFFFFFFFFFFFF AND PUSH20 0xFFFFFFFFFFFFFFFFFFFFFFFFFFFFFFFFFFFFFFFF AND PUSH20 0xFFFFFFFFFFFFFFFFFFFFFFFFFFFFFFFFFFFFFFFF AND DUP2 MSTORE PUSH1 0x20 ADD SWAP1 DUP2 MSTORE PUSH1 0x20 ADD PUSH0 KECCAK256 PUSH0 SWAP1 SLOAD SWAP1 PUSH2 0x100 EXP SWAP1 DIV PUSH1 0xFF AND PUSH2 0x79B JUMPI PUSH0 DUP1 REVERT JUMPDEST PUSH1 0x9 PUSH0 DUP3 DUP2 MSTORE PUSH1 0x20 ADD SWAP1 DUP2 MSTORE PUSH1 0x20 ADD PUSH0 KECCAK256 PUSH0 PUSH1 0x2 PUSH0 SWAP1 SLOAD SWAP1 PUSH2 0x100 EXP SWAP1 DIV PUSH20 0xFFFFFFFFFFFFFFFFFFFFFFFFFFFFFFFFFFFFFFFF AND PUSH20 0xFFFFFFFFFFFFFFFFFFFFFFFFFFFFFFFFFFFFFFFF AND PUSH20 0xFFFFFFFFFFFFFFFFFFFFFFFFFFFFFFFFFFFFFFFF AND DUP2 MSTORE PUSH1 0x20 ADD SWAP1 DUP2 MSTORE PUSH1 0x20 ADD PUSH0 KECCAK256 PUSH0 SWAP1 SLOAD SWAP1 PUSH2 0x100 EXP SWAP1 DIV PUSH1 0xFF AND PUSH2 0x81D JUMPI PUSH0 DUP1 REVERT JUMPDEST PUSH0 PUSH1 0x4 PUSH0 DUP4 DUP2 MSTORE PUSH1 0x20 ADD SWAP1 DUP2 MSTORE PUSH1 0x20 ADD PUSH0 KECCAK256 PUSH0 PUSH2 0x100 EXP DUP2 SLOAD DUP2 PUSH1 0xFF MUL NOT AND SWAP1 DUP4 ISZERO ISZERO MUL OR SWAP1 SSTORE POP PUSH1 0x5 PUSH0 DUP3 DUP2 MSTORE PUSH1 0x20 ADD SWAP1 DUP2 MSTORE PUSH1 0x20 ADD PUSH0 KECCAK256 SLOAD SELFBALANCE LT ISZERO PUSH2 0x899 JUMPI PUSH1 0x40 MLOAD PUSH32 0x8C379A000000000000000000000000000000000000000000000000000000000 DUP2 MSTORE PUSH1 0x4 ADD PUSH2 0x890 SWAP1 PUSH2 0x131F JUMP JUMPDEST PUSH1 0x40 MLOAD DUP1 SWAP2 SUB SWAP1 REVERT JUMPDEST PUSH0 PUSH1 0x1 PUSH0 SWAP1 SLOAD SWAP1 PUSH2 0x100 EXP SWAP1 DIV PUSH20 0xFFFFFFFFFFFFFFFFFFFFFFFFFFFFFFFFFFFFFFFF AND PUSH20 0xFFFFFFFFFFFFFFFFFFFFFFFFFFFFFFFFFFFFFFFF AND SELFBALANCE PUSH1 0x40 MLOAD PUSH2 0x8DF SWAP1 PUSH2 0x1391 JUMP JUMPDEST PUSH0 PUSH1 0x40 MLOAD DUP1 DUP4 SUB DUP2 DUP6 DUP8 GAS CALL SWAP3 POP POP POP RETURNDATASIZE DUP1 PUSH0 DUP2 EQ PUSH2 0x919 JUMPI PUSH1 0x40 MLOAD SWAP2 POP PUSH1 0x1F NOT PUSH1 0x3F RETURNDATASIZE ADD AND DUP3 ADD PUSH1 0x40 MSTORE RETURNDATASIZE DUP3 MSTORE RETURNDATASIZE PUSH0 PUSH1 0x20 DUP5 ADD RETURNDATACOPY PUSH2 0x91E JUMP JUMPDEST PUSH1 0x60 SWAP2 POP JUMPDEST POP POP SWAP1 POP DUP1 PUSH2 0x92B JUMPI PUSH0 DUP1 REVERT JUMPDEST PUSH0 DUP1 SLOAD SWAP1 PUSH2 0x100 EXP SWAP1 DIV PUSH20 0xFFFFFFFFFFFFFFFFFFFFFFFFFFFFFFFFFFFFFFFF AND PUSH20 0xFFFFFFFFFFFFFFFFFFFFFFFFFFFFFFFFFFFFFFFF AND PUSH4 0x23B872DD ADDRESS PUSH1 0x7 PUSH0 DUP7 DUP2 MSTORE PUSH1 0x20 ADD SWAP1 DUP2 MSTORE PUSH1 0x20 ADD PUSH0 KECCAK256 PUSH0 SWAP1 SLOAD SWAP1 PUSH2 0x100 EXP SWAP1 DIV PUSH20 0xFFFFFFFFFFFFFFFFFFFFFFFFFFFFFFFFFFFFFFFF AND DUP6 PUSH1 0x40 MLOAD DUP5 PUSH4 0xFFFFFFFF AND PUSH1 0xE0 SHL DUP2 MSTORE PUSH1 0x4 ADD PUSH2 0x9B7 SWAP4 SWAP3 SWAP2 SWAP1 PUSH2 0x13A5 JUMP JUMPDEST PUSH0 PUSH1 0x40 MLOAD DUP1 DUP4 SUB DUP2 PUSH0 DUP8 DUP1 EXTCODESIZE ISZERO DUP1 ISZERO PUSH2 0x9CE JUMPI PUSH0 DUP1 REVERT JUMPDEST POP GAS CALL ISZERO DUP1 ISZERO PUSH2 0x9E0 JUMPI RETURNDATASIZE PUSH0 DUP1 RETURNDATACOPY RETURNDATASIZE PUSH0 REVERT JUMPDEST POP POP POP POP POP POP JUMP JUMPDEST PUSH1 0x9 PUSH1 0x20 MSTORE DUP2 PUSH0 MSTORE PUSH1 0x40 PUSH0 KECCAK256 PUSH1 0x20 MSTORE DUP1 PUSH0 MSTORE PUSH1 0x40 PUSH0 KECCAK256 PUSH0 SWAP2 POP SWAP2 POP SWAP1 SLOAD SWAP1 PUSH2 0x100 EXP SWAP1 DIV PUSH1 0xFF AND DUP2 JUMP JUMPDEST PUSH1 0x2 PUSH0 SWAP1 SLOAD SWAP1 PUSH2 0x100 EXP SWAP1 DIV PUSH20 0xFFFFFFFFFFFFFFFFFFFFFFFFFFFFFFFFFFFFFFFF AND DUP2 JUMP JUMPDEST PUSH0 ISZERO ISZERO PUSH1 0x8 PUSH0 DUP4 DUP2 MSTORE PUSH1 0x20 ADD SWAP1 DUP2 MSTORE PUSH1 0x20 ADD PUSH0 KECCAK256 PUSH0 SWAP1 SLOAD SWAP1 PUSH2 0x100 EXP SWAP1 DIV PUSH1 0xFF AND ISZERO ISZERO SUB PUSH2 0xBBC JUMPI PUSH0 PUSH1 0xA PUSH0 PUSH1 0x7 PUSH0 DUP6 DUP2 MSTORE PUSH1 0x20 ADD SWAP1 DUP2 MSTORE PUSH1 0x20 ADD PUSH0 KECCAK256 PUSH0 SWAP1 SLOAD SWAP1 PUSH2 0x100 EXP SWAP1 DIV PUSH20 0xFFFFFFFFFFFFFFFFFFFFFFFFFFFFFFFFFFFFFFFF AND PUSH20 0xFFFFFFFFFFFFFFFFFFFFFFFFFFFFFFFFFFFFFFFF AND PUSH20 0xFFFFFFFFFFFFFFFFFFFFFFFFFFFFFFFFFFFFFFFF AND DUP2 MSTORE PUSH1 0x20 ADD SWAP1 DUP2 MSTORE PUSH1 0x20 ADD PUSH0 KECCAK256 SLOAD SWAP1 POP PUSH0 PUSH1 0xA PUSH0 PUSH1 0x7 PUSH0 DUP7 DUP2 MSTORE PUSH1 0x20 ADD SWAP1 DUP2 MSTORE PUSH1 0x20 ADD PUSH0 KECCAK256 PUSH0 SWAP1 SLOAD SWAP1 PUSH2 0x100 EXP SWAP1 DIV PUSH20 0xFFFFFFFFFFFFFFFFFFFFFFFFFFFFFFFFFFFFFFFF AND PUSH20 0xFFFFFFFFFFFFFFFFFFFFFFFFFFFFFFFFFFFFFFFF AND PUSH20 0xFFFFFFFFFFFFFFFFFFFFFFFFFFFFFFFFFFFFFFFF AND DUP2 MSTORE PUSH1 0x20 ADD SWAP1 DUP2 MSTORE PUSH1 0x20 ADD PUSH0 KECCAK256 DUP2 SWAP1 SSTORE POP PUSH1 0x7 PUSH0 DUP4 DUP2 MSTORE PUSH1 0x20 ADD SWAP1 DUP2 MSTORE PUSH1 0x20 ADD PUSH0 KECCAK256 PUSH0 SWAP1 SLOAD SWAP1 PUSH2 0x100 EXP SWAP1 DIV PUSH20 0xFFFFFFFFFFFFFFFFFFFFFFFFFFFFFFFFFFFFFFFF AND PUSH20 0xFFFFFFFFFFFFFFFFFFFFFFFFFFFFFFFFFFFFFFFF AND PUSH2 0x8FC DUP3 SWAP1 DUP2 ISZERO MUL SWAP1 PUSH1 0x40 MLOAD PUSH0 PUSH1 0x40 MLOAD DUP1 DUP4 SUB DUP2 DUP6 DUP9 DUP9 CALL SWAP4 POP POP POP POP ISZERO DUP1 ISZERO PUSH2 0xBB5 JUMPI RETURNDATASIZE PUSH0 DUP1 RETURNDATACOPY RETURNDATASIZE PUSH0 REVERT JUMPDEST POP POP PUSH2 0xC22 JUMP JUMPDEST PUSH1 0x1 PUSH0 SWAP1 SLOAD SWAP1 PUSH2 0x100 EXP SWAP1 DIV PUSH20 0xFFFFFFFFFFFFFFFFFFFFFFFFFFFFFFFFFFFFFFFF AND PUSH20 0xFFFFFFFFFFFFFFFFFFFFFFFFFFFFFFFFFFFFFFFF AND PUSH2 0x8FC SELFBALANCE SWAP1 DUP2 ISZERO MUL SWAP1 PUSH1 0x40 MLOAD PUSH0 PUSH1 0x40 MLOAD DUP1 DUP4 SUB DUP2 DUP6 DUP9 DUP9 CALL SWAP4 POP POP POP POP ISZERO DUP1 ISZERO PUSH2 0xC20 JUMPI RETURNDATASIZE PUSH0 DUP1 RETURNDATACOPY RETURNDATASIZE PUSH0 REVERT JUMPDEST POP JUMPDEST POP JUMP JUMPDEST PUSH1 0x1 PUSH0 SWAP1 SLOAD SWAP1 PUSH2 0x100 EXP SWAP1 DIV PUSH20 0xFFFFFFFFFFFFFFFFFFFFFFFFFFFFFFFFFFFFFFFF AND PUSH20 0xFFFFFFFFFFFFFFFFFFFFFFFFFFFFFFFFFFFFFFFF AND CALLER PUSH20 0xFFFFFFFFFFFFFFFFFFFFFFFFFFFFFFFFFFFFFFFF AND EQ PUSH2 0xCB4 JUMPI PUSH1 0x40 MLOAD PUSH32 0x8C379A000000000000000000000000000000000000000000000000000000000 DUP2 MSTORE PUSH1 0x4 ADD PUSH2 0xCAB SWAP1 PUSH2 0x144A JUMP JUMPDEST PUSH1 0x40 MLOAD DUP1 SWAP2 SUB SWAP1 REVERT JUMPDEST PUSH0 DUP1 SLOAD SWAP1 PUSH2 0x100 EXP SWAP1 DIV PUSH20 0xFFFFFFFFFFFFFFFFFFFFFFFFFFFFFFFFFFFFFFFF AND PUSH20 0xFFFFFFFFFFFFFFFFFFFFFFFFFFFFFFFFFFFFFFFF AND PUSH4 0x23B872DD CALLER ADDRESS DUP8 PUSH1 0x40 MLOAD DUP5 PUSH4 0xFFFFFFFF AND PUSH1 0xE0 SHL DUP2 MSTORE PUSH1 0x4 ADD PUSH2 0xD10 SWAP4 SWAP3 SWAP2 SWAP1 PUSH2 0x13A5 JUMP JUMPDEST PUSH0 PUSH1 0x40 MLOAD DUP1 DUP4 SUB DUP2 PUSH0 DUP8 DUP1 EXTCODESIZE ISZERO DUP1 ISZERO PUSH2 0xD27 JUMPI PUSH0 DUP1 REVERT JUMPDEST POP GAS CALL ISZERO DUP1 ISZERO PUSH2 0xD39 JUMPI RETURNDATASIZE PUSH0 DUP1 RETURNDATACOPY RETURNDATASIZE PUSH0 REVERT JUMPDEST POP POP POP POP PUSH1 0x1 PUSH1 0x4 PUSH0 DUP7 DUP2 MSTORE PUSH1 0x20 ADD SWAP1 DUP2 MSTORE PUSH1 0x20 ADD PUSH0 KECCAK256 PUSH0 PUSH2 0x100 EXP DUP2 SLOAD DUP2 PUSH1 0xFF MUL NOT AND SWAP1 DUP4 ISZERO ISZERO MUL OR SWAP1 SSTORE POP DUP2 PUSH1 0x5 PUSH0 DUP7 DUP2 MSTORE PUSH1 0x20 ADD SWAP1 DUP2 MSTORE PUSH1 0x20 ADD PUSH0 KECCAK256 DUP2 SWAP1 SSTORE POP DUP1 PUSH1 0x6 PUSH0 DUP7 DUP2 MSTORE PUSH1 0x20 ADD SWAP1 DUP2 MSTORE PUSH1 0x20 ADD PUSH0 KECCAK256 DUP2 SWAP1 SSTORE POP DUP3 PUSH1 0x7 PUSH0 DUP7 DUP2 MSTORE PUSH1 0x20 ADD SWAP1 DUP2 MSTORE PUSH1 0x20 ADD PUSH0 KECCAK256 PUSH0 PUSH2 0x100 EXP DUP2 SLOAD DUP2 PUSH20 0xFFFFFFFFFFFFFFFFFFFFFFFFFFFFFFFFFFFFFFFF MUL NOT AND SWAP1 DUP4 PUSH20 0xFFFFFFFFFFFFFFFFFFFFFFFFFFFFFFFFFFFFFFFF AND MUL OR SWAP1 SSTORE POP POP POP POP POP JUMP JUMPDEST CALLVALUE PUSH1 0xA PUSH0 CALLER PUSH20 0xFFFFFFFFFFFFFFFFFFFFFFFFFFFFFFFFFFFFFFFF AND PUSH20 0xFFFFFFFFFFFFFFFFFFFFFFFFFFFFFFFFFFFFFFFF AND DUP2 MSTORE PUSH1 0x20 ADD SWAP1 DUP2 MSTORE PUSH1 0x20 ADD PUSH0 KECCAK256 PUSH0 DUP3 DUP3 SLOAD PUSH2 0xE33 SWAP2 SWAP1 PUSH2 0x1495 JUMP JUMPDEST SWAP3 POP POP DUP2 SWAP1 SSTORE POP JUMP JUMPDEST DUP1 PUSH1 0x7 PUSH0 DUP3 DUP2 MSTORE PUSH1 0x20 ADD SWAP1 DUP2 MSTORE PUSH1 0x20 ADD PUSH0 KECCAK256 PUSH0 SWAP1 SLOAD SWAP1 PUSH2 0x100 EXP SWAP1 DIV PUSH20 0xFFFFFFFFFFFFFFFFFFFFFFFFFFFFFFFFFFFFFFFF AND PUSH20 0xFFFFFFFFFFFFFFFFFFFFFFFFFFFFFFFFFFFFFFFF AND CALLER PUSH20 0xFFFFFFFFFFFFFFFFFFFFFFFFFFFFFFFFFFFFFFFF AND EQ PUSH2 0xEDB JUMPI PUSH1 0x40 MLOAD PUSH32 0x8C379A000000000000000000000000000000000000000000000000000000000 DUP2 MSTORE PUSH1 0x4 ADD PUSH2 0xED2 SWAP1 PUSH2 0x1538 JUMP JUMPDEST PUSH1 0x40 MLOAD DUP1 SWAP2 SUB SWAP1 REVERT JUMPDEST PUSH1 0x6 PUSH0 DUP4 DUP2 MSTORE PUSH1 0x20 ADD SWAP1 DUP2 MSTORE PUSH1 0x20 ADD PUSH0 KECCAK256 SLOAD CALLVALUE LT ISZERO PUSH2 0xF2F JUMPI PUSH1 0x40 MLOAD PUSH32 0x8C379A000000000000000000000000000000000000000000000000000000000 DUP2 MSTORE PUSH1 0x4 ADD PUSH2 0xF26 SWAP1 PUSH2 0x15A0 JUMP JUMPDEST PUSH1 0x40 MLOAD DUP1 SWAP2 SUB SWAP1 REVERT JUMPDEST POP POP JUMP JUMPDEST PUSH1 0x3 PUSH0 SWAP1 SLOAD SWAP1 PUSH2 0x100 EXP SWAP1 DIV PUSH20 0xFFFFFFFFFFFFFFFFFFFFFFFFFFFFFFFFFFFFFFFF AND DUP2 JUMP JUMPDEST PUSH1 0xA PUSH1 0x20 MSTORE DUP1 PUSH0 MSTORE PUSH1 0x40 PUSH0 KECCAK256 PUSH0 SWAP2 POP SWAP1 POP SLOAD DUP2 JUMP JUMPDEST PUSH1 0x4 PUSH1 0x20 MSTORE DUP1 PUSH0 MSTORE PUSH1 0x40 PUSH0 KECCAK256 PUSH0 SWAP2 POP SLOAD SWAP1 PUSH2 0x100 EXP SWAP1 DIV PUSH1 0xFF AND DUP2 JUMP JUMPDEST PUSH0 PUSH20 0xFFFFFFFFFFFFFFFFFFFFFFFFFFFFFFFFFFFFFFFF DUP3 AND SWAP1 POP SWAP2 SWAP1 POP JUMP JUMPDEST PUSH0 PUSH2 0xFB3 DUP3 PUSH2 0xF8A JUMP JUMPDEST SWAP1 POP SWAP2 SWAP1 POP JUMP JUMPDEST PUSH2 0xFC3 DUP2 PUSH2 0xFA9 JUMP JUMPDEST DUP3 MSTORE POP POP JUMP JUMPDEST PUSH0 PUSH1 0x20 DUP3 ADD SWAP1 POP PUSH2 0xFDC PUSH0 DUP4 ADD DUP5 PUSH2 0xFBA JUMP JUMPDEST SWAP3 SWAP2 POP POP JUMP JUMPDEST PUSH0 DUP2 SWAP1 POP SWAP2 SWAP1 POP JUMP JUMPDEST PUSH2 0xFF4 DUP2 PUSH2 0xFE2 JUMP JUMPDEST DUP3 MSTORE POP POP JUMP JUMPDEST PUSH0 PUSH1 0x20 DUP3 ADD SWAP1 POP PUSH2 0x100D PUSH0 DUP4 ADD DUP5 PUSH2 0xFEB JUMP JUMPDEST SWAP3 SWAP2 POP POP JUMP JUMPDEST PUSH0 DUP1 REVERT JUMPDEST PUSH2 0x1020 DUP2 PUSH2 0xFE2 JUMP JUMPDEST DUP2 EQ PUSH2 0x102A JUMPI PUSH0 DUP1 REVERT JUMPDEST POP JUMP JUMPDEST PUSH0 DUP2 CALLDATALOAD SWAP1 POP PUSH2 0x103B DUP2 PUSH2 0x1017 JUMP JUMPDEST SWAP3 SWAP2 POP POP JUMP JUMPDEST PUSH0 PUSH1 0x20 DUP3 DUP5 SUB SLT ISZERO PUSH2 0x1056 JUMPI PUSH2 0x1055 PUSH2 0x1013 JUMP JUMPDEST JUMPDEST PUSH0 PUSH2 0x1063 DUP5 DUP3 DUP6 ADD PUSH2 0x102D JUMP JUMPDEST SWAP2 POP POP SWAP3 SWAP2 POP POP JUMP JUMPDEST PUSH0 PUSH2 0x1076 DUP3 PUSH2 0xF8A JUMP JUMPDEST SWAP1 POP SWAP2 SWAP1 POP JUMP JUMPDEST PUSH2 0x1086 DUP2 PUSH2 0x106C JUMP JUMPDEST DUP3 MSTORE POP POP JUMP JUMPDEST PUSH0 PUSH1 0x20 DUP3 ADD SWAP1 POP PUSH2 0x109F PUSH0 DUP4 ADD DUP5 PUSH2 0x107D JUMP JUMPDEST SWAP3 SWAP2 POP POP JUMP JUMPDEST PUSH0 DUP2 ISZERO ISZERO SWAP1 POP SWAP2 SWAP1 POP JUMP JUMPDEST PUSH2 0x10B9 DUP2 PUSH2 0x10A5 JUMP JUMPDEST DUP3 MSTORE POP POP JUMP JUMPDEST PUSH0 PUSH1 0x20 DUP3 ADD SWAP1 POP PUSH2 0x10D2 PUSH0 DUP4 ADD DUP5 PUSH2 0x10B0 JUMP JUMPDEST SWAP3 SWAP2 POP POP JUMP JUMPDEST PUSH2 0x10E1 DUP2 PUSH2 0x10A5 JUMP JUMPDEST DUP2 EQ PUSH2 0x10EB JUMPI PUSH0 DUP1 REVERT JUMPDEST POP JUMP JUMPDEST PUSH0 DUP2 CALLDATALOAD SWAP1 POP PUSH2 0x10FC DUP2 PUSH2 0x10D8 JUMP JUMPDEST SWAP3 SWAP2 POP POP JUMP JUMPDEST PUSH0 DUP1 PUSH1 0x40 DUP4 DUP6 SUB SLT ISZERO PUSH2 0x1118 JUMPI PUSH2 0x1117 PUSH2 0x1013 JUMP JUMPDEST JUMPDEST PUSH0 PUSH2 0x1125 DUP6 DUP3 DUP7 ADD PUSH2 0x102D JUMP JUMPDEST SWAP3 POP POP PUSH1 0x20 PUSH2 0x1136 DUP6 DUP3 DUP7 ADD PUSH2 0x10EE JUMP JUMPDEST SWAP2 POP POP SWAP3 POP SWAP3 SWAP1 POP JUMP JUMPDEST PUSH2 0x1149 DUP2 PUSH2 0x106C JUMP JUMPDEST DUP2 EQ PUSH2 0x1153 JUMPI PUSH0 DUP1 REVERT JUMPDEST POP JUMP JUMPDEST PUSH0 DUP2 CALLDATALOAD SWAP1 POP PUSH2 0x1164 DUP2 PUSH2 0x1140 JUMP JUMPDEST SWAP3 SWAP2 POP POP JUMP JUMPDEST PUSH0 DUP1 PUSH1 0x40 DUP4 DUP6 SUB SLT ISZERO PUSH2 0x1180 JUMPI PUSH2 0x117F PUSH2 0x1013 JUMP JUMPDEST JUMPDEST PUSH0 PUSH2 0x118D DUP6 DUP3 DUP7 ADD PUSH2 0x102D JUMP JUMPDEST SWAP3 POP POP PUSH1 0x20 PUSH2 0x119E DUP6 DUP3 DUP7 ADD PUSH2 0x1156 JUMP JUMPDEST SWAP2 POP POP SWAP3 POP SWAP3 SWAP1 POP JUMP JUMPDEST PUSH0 DUP1 PUSH0 DUP1 PUSH1 0x80 DUP6 DUP8 SUB SLT ISZERO PUSH2 0x11C0 JUMPI PUSH2 0x11BF PUSH2 0x1013 JUMP JUMPDEST JUMPDEST PUSH0 PUSH2 0x11CD DUP8 DUP3 DUP9 ADD PUSH2 0x102D JUMP JUMPDEST SWAP5 POP POP PUSH1 0x20 PUSH2 0x11DE DUP8 DUP3 DUP9 ADD PUSH2 0x1156 JUMP JUMPDEST SWAP4 POP POP PUSH1 0x40 PUSH2 0x11EF DUP8 DUP3 DUP9 ADD PUSH2 0x102D JUMP JUMPDEST SWAP3 POP POP PUSH1 0x60 PUSH2 0x1200 DUP8 DUP3 DUP9 ADD PUSH2 0x102D JUMP JUMPDEST SWAP2 POP POP SWAP3 SWAP6 SWAP2 SWAP5 POP SWAP3 POP JUMP JUMPDEST PUSH0 PUSH1 0x20 DUP3 DUP5 SUB SLT ISZERO PUSH2 0x1221 JUMPI PUSH2 0x1220 PUSH2 0x1013 JUMP JUMPDEST JUMPDEST PUSH0 PUSH2 0x122E DUP5 DUP3 DUP6 ADD PUSH2 0x1156 JUMP JUMPDEST SWAP2 POP POP SWAP3 SWAP2 POP POP JUMP JUMPDEST PUSH0 DUP3 DUP3 MSTORE PUSH1 0x20 DUP3 ADD SWAP1 POP SWAP3 SWAP2 POP POP JUMP JUMPDEST PUSH32 0x4F6E6C7920696E73706563746F722063616E2063616C6C2074686973206D6574 PUSH0 DUP3 ADD MSTORE PUSH32 0x686F640000000000000000000000000000000000000000000000000000000000 PUSH1 0x20 DUP3 ADD MSTORE POP JUMP JUMPDEST PUSH0 PUSH2 0x12A1 PUSH1 0x23 DUP4 PUSH2 0x1237 JUMP JUMPDEST SWAP2 POP PUSH2 0x12AC DUP3 PUSH2 0x1247 JUMP JUMPDEST PUSH1 0x40 DUP3 ADD SWAP1 POP SWAP2 SWAP1 POP JUMP JUMPDEST PUSH0 PUSH1 0x20 DUP3 ADD SWAP1 POP DUP2 DUP2 SUB PUSH0 DUP4 ADD MSTORE PUSH2 0x12CE DUP2 PUSH2 0x1295 JUMP JUMPDEST SWAP1 POP SWAP2 SWAP1 POP JUMP JUMPDEST PUSH32 0x496E73756666696369656E742066756E6473202D20457363726F770000000000 PUSH0 DUP3 ADD MSTORE POP JUMP JUMPDEST PUSH0 PUSH2 0x1309 PUSH1 0x1B DUP4 PUSH2 0x1237 JUMP JUMPDEST SWAP2 POP PUSH2 0x1314 DUP3 PUSH2 0x12D5 JUMP JUMPDEST PUSH1 0x20 DUP3 ADD SWAP1 POP SWAP2 SWAP1 POP JUMP JUMPDEST PUSH0 PUSH1 0x20 DUP3 ADD SWAP1 POP DUP2 DUP2 SUB PUSH0 DUP4 ADD MSTORE PUSH2 0x1336 DUP2 PUSH2 0x12FD JUMP JUMPDEST SWAP1 POP SWAP2 SWAP1 POP JUMP JUMPDEST PUSH0 DUP2 SWAP1 POP SWAP3 SWAP2 POP POP JUMP JUMPDEST PUSH32 0x2000000000000000000000000000000000000000000000000000000000000000 PUSH0 DUP3 ADD MSTORE POP JUMP JUMPDEST PUSH0 PUSH2 0x137B PUSH1 0x1 DUP4 PUSH2 0x133D JUMP JUMPDEST SWAP2 POP PUSH2 0x1386 DUP3 PUSH2 0x1347 JUMP JUMPDEST PUSH1 0x1 DUP3 ADD SWAP1 POP SWAP2 SWAP1 POP JUMP JUMPDEST PUSH0 PUSH2 0x139B DUP3 PUSH2 0x136F JUMP JUMPDEST SWAP2 POP DUP2 SWAP1 POP SWAP2 SWAP1 POP JUMP JUMPDEST PUSH0 PUSH1 0x60 DUP3 ADD SWAP1 POP PUSH2 0x13B8 PUSH0 DUP4 ADD DUP7 PUSH2 0x107D JUMP JUMPDEST PUSH2 0x13C5 PUSH1 0x20 DUP4 ADD DUP6 PUSH2 0x107D JUMP JUMPDEST PUSH2 0x13D2 PUSH1 0x40 DUP4 ADD DUP5 PUSH2 0xFEB JUMP JUMPDEST SWAP5 SWAP4 POP POP POP POP JUMP JUMPDEST PUSH32 0x4F6E6C792073656C6C65722063616E642063616C6C2074686973206D6574686F PUSH0 DUP3 ADD MSTORE PUSH32 0x6400000000000000000000000000000000000000000000000000000000000000 PUSH1 0x20 DUP3 ADD MSTORE POP JUMP JUMPDEST PUSH0 PUSH2 0x1434 PUSH1 0x21 DUP4 PUSH2 0x1237 JUMP JUMPDEST SWAP2 POP PUSH2 0x143F DUP3 PUSH2 0x13DA JUMP JUMPDEST PUSH1 0x40 DUP3 ADD SWAP1 POP SWAP2 SWAP1 POP JUMP JUMPDEST PUSH0 PUSH1 0x20 DUP3 ADD SWAP1 POP DUP2 DUP2 SUB PUSH0 DUP4 ADD MSTORE PUSH2 0x1461 DUP2 PUSH2 0x1428 JUMP JUMPDEST SWAP1 POP SWAP2 SWAP1 POP JUMP JUMPDEST PUSH32 0x4E487B7100000000000000000000000000000000000000000000000000000000 PUSH0 MSTORE PUSH1 0x11 PUSH1 0x4 MSTORE PUSH1 0x24 PUSH0 REVERT JUMPDEST PUSH0 PUSH2 0x149F DUP3 PUSH2 0xFE2 JUMP JUMPDEST SWAP2 POP PUSH2 0x14AA DUP4 PUSH2 0xFE2 JUMP JUMPDEST SWAP3 POP DUP3 DUP3 ADD SWAP1 POP DUP1 DUP3 GT ISZERO PUSH2 0x14C2 JUMPI PUSH2 0x14C1 PUSH2 0x1468 JUMP JUMPDEST JUMPDEST SWAP3 SWAP2 POP POP JUMP JUMPDEST PUSH32 0x4F6E6C792062757965722063616E2063616C6C2074686973206D6574686F6428 PUSH0 DUP3 ADD MSTORE PUSH32 0x646F776E207061796D656E742900000000000000000000000000000000000000 PUSH1 0x20 DUP3 ADD MSTORE POP JUMP JUMPDEST PUSH0 PUSH2 0x1522 PUSH1 0x2D DUP4 PUSH2 0x1237 JUMP JUMPDEST SWAP2 POP PUSH2 0x152D DUP3 PUSH2 0x14C8 JUMP JUMPDEST PUSH1 0x40 DUP3 ADD SWAP1 POP SWAP2 SWAP1 POP JUMP JUMPDEST PUSH0 PUSH1 0x20 DUP3 ADD SWAP1 POP DUP2 DUP2 SUB PUSH0 DUP4 ADD MSTORE PUSH2 0x154F DUP2 PUSH2 0x1516 JUMP JUMPDEST SWAP1 POP SWAP2 SWAP1 POP JUMP JUMPDEST PUSH32 0x496E73756666696369656E742046756E64730000000000000000000000000000 PUSH0 DUP3 ADD MSTORE POP JUMP JUMPDEST PUSH0 PUSH2 0x158A PUSH1 0x12 DUP4 PUSH2 0x1237 JUMP JUMPDEST SWAP2 POP PUSH2 0x1595 DUP3 PUSH2 0x1556 JUMP JUMPDEST PUSH1 0x20 DUP3 ADD SWAP1 POP SWAP2 SWAP1 POP JUMP JUMPDEST PUSH0 PUSH1 0x20 DUP3 ADD SWAP1 POP DUP2 DUP2 SUB PUSH0 DUP4 ADD MSTORE PUSH2 0x15B7 DUP2 PUSH2 0x157E JUMP JUMPDEST SWAP1 POP SWAP2 SWAP1 POP JUMP INVALID LOG2 PUSH5 0x6970667358 0x22 SLT KECCAK256 0xC8 KECCAK256 PUSH16 0x94178E237CF24938B60C4B2D8259226 PC 0xAE PUSH10 0x2B4EB727BE09F951613F PUSH5 0x736F6C6343 STOP ADDMOD BYTE STOP CALLER "
				},
				"gasEstimates": {
					"creation": {
						"codeDepositCost": "1124000",
						"executionCost": "infinite",
						"totalCost": "infinite"
					},
					"external": {
						"approval(uint256,address)": "3116",
						"approveSale(uint256)": "24898",
						"buyer(uint256)": "2917",
						"cancelSale(uint256)": "infinite",
						"deposit()": "infinite",
						"depositEarnest(uint256)": "5152",
						"deposits(address)": "2890",
						"escrowAmount(uint256)": "infinite",
						"finalizeSale(uint256)": "infinite",
						"getBalance()": "380",
						"inspectionPassed(uint256)": "2852",
						"inspector()": "2574",
						"isListed(uint256)": "2895",
						"lender()": "2575",
						"list(uint256,address,uint256,uint256)": "infinite",
						"nftAddress()": "2528",
						"purchasePrice(uint256)": "infinite",
						"seller()": "2532",
						"updateInspectionStatus(uint256,bool)": "27200"
					}
				},
				"methodIdentifiers": {
					"approval(uint256,address)": "b848de35",
					"approveSale(uint256)": "14a72feb",
					"buyer(uint256)": "4dd4acaf",
					"cancelSale(uint256)": "bd94b005",
					"deposit()": "d0e30db0",
					"depositEarnest(uint256)": "e740f770",
					"deposits(address)": "fc7e286d",
					"escrowAmount(uint256)": "5d19e56c",
					"finalizeSale(uint256)": "aa929380",
					"getBalance()": "12065fe0",
					"inspectionPassed(uint256)": "5eed5fff",
					"inspector()": "ed2cee9e",
					"isListed(uint256)": "fcce4883",
					"lender()": "bcead63e",
					"list(uint256,address,uint256,uint256)": "c9f0ec7e",
					"nftAddress()": "5bf8633a",
					"purchasePrice(uint256)": "77fbc4ae",
					"seller()": "08551a53",
					"updateInspectionStatus(uint256,bool)": "9d0e5fd6"
				}
			},
			"storageLayout": {
				"storage": [
					{
						"astId": 13,
						"contract": "estate/Escrow.sol:Escrow",
						"label": "nftAddress",
						"offset": 0,
						"slot": "0",
						"type": "t_address"
					},
					{
						"astId": 15,
						"contract": "estate/Escrow.sol:Escrow",
						"label": "seller",
						"offset": 0,
						"slot": "1",
						"type": "t_address_payable"
					},
					{
						"astId": 17,
						"contract": "estate/Escrow.sol:Escrow",
						"label": "lender",
						"offset": 0,
						"slot": "2",
						"type": "t_address"
					},
					{
						"astId": 19,
						"contract": "estate/Escrow.sol:Escrow",
						"label": "inspector",
						"offset": 0,
						"slot": "3",
						"type": "t_address"
					},
					{
						"astId": 23,
						"contract": "estate/Escrow.sol:Escrow",
						"label": "isListed",
						"offset": 0,
						"slot": "4",
						"type": "t_mapping(t_uint256,t_bool)"
					},
					{
						"astId": 27,
						"contract": "estate/Escrow.sol:Escrow",
						"label": "purchasePrice",
						"offset": 0,
						"slot": "5",
						"type": "t_mapping(t_uint256,t_uint256)"
					},
					{
						"astId": 31,
						"contract": "estate/Escrow.sol:Escrow",
						"label": "escrowAmount",
						"offset": 0,
						"slot": "6",
						"type": "t_mapping(t_uint256,t_uint256)"
					},
					{
						"astId": 35,
						"contract": "estate/Escrow.sol:Escrow",
						"label": "buyer",
						"offset": 0,
						"slot": "7",
						"type": "t_mapping(t_uint256,t_address)"
					},
					{
						"astId": 39,
						"contract": "estate/Escrow.sol:Escrow",
						"label": "inspectionPassed",
						"offset": 0,
						"slot": "8",
						"type": "t_mapping(t_uint256,t_bool)"
					},
					{
						"astId": 45,
						"contract": "estate/Escrow.sol:Escrow",
						"label": "approval",
						"offset": 0,
						"slot": "9",
						"type": "t_mapping(t_uint256,t_mapping(t_address,t_bool))"
					},
					{
						"astId": 49,
						"contract": "estate/Escrow.sol:Escrow",
						"label": "deposits",
						"offset": 0,
						"slot": "10",
						"type": "t_mapping(t_address,t_uint256)"
					}
				],
				"types": {
					"t_address": {
						"encoding": "inplace",
						"label": "address",
						"numberOfBytes": "20"
					},
					"t_address_payable": {
						"encoding": "inplace",
						"label": "address payable",
						"numberOfBytes": "20"
					},
					"t_bool": {
						"encoding": "inplace",
						"label": "bool",
						"numberOfBytes": "1"
					},
					"t_mapping(t_address,t_bool)": {
						"encoding": "mapping",
						"key": "t_address",
						"label": "mapping(address => bool)",
						"numberOfBytes": "32",
						"value": "t_bool"
					},
					"t_mapping(t_address,t_uint256)": {
						"encoding": "mapping",
						"key": "t_address",
						"label": "mapping(address => uint256)",
						"numberOfBytes": "32",
						"value": "t_uint256"
					},
					"t_mapping(t_uint256,t_address)": {
						"encoding": "mapping",
						"key": "t_uint256",
						"label": "mapping(uint256 => address)",
						"numberOfBytes": "32",
						"value": "t_address"
					},
					"t_mapping(t_uint256,t_bool)": {
						"encoding": "mapping",
						"key": "t_uint256",
						"label": "mapping(uint256 => bool)",
						"numberOfBytes": "32",
						"value": "t_bool"
					},
					"t_mapping(t_uint256,t_mapping(t_address,t_bool))": {
						"encoding": "mapping",
						"key": "t_uint256",
						"label": "mapping(uint256 => mapping(address => bool))",
						"numberOfBytes": "32",
						"value": "t_mapping(t_address,t_bool)"
					},
					"t_mapping(t_uint256,t_uint256)": {
						"encoding": "mapping",
						"key": "t_uint256",
						"label": "mapping(uint256 => uint256)",
						"numberOfBytes": "32",
						"value": "t_uint256"
					},
					"t_uint256": {
						"encoding": "inplace",
						"label": "uint256",
						"numberOfBytes": "32"
					}
				}
			},
			"userdoc": {
				"kind": "user",
				"methods": {},
				"version": 1
			}
		}
	}
}