{
	"data": {
		"bytecode": {
			"linkReferences": {},
			"object": "608060405234801561000f575f80fd5b506040516122bd3803806122bd83398181016040528101906100319190610114565b3360085f6101000a81548173ffffffffffffffffffffffffffffffffffffffff021916908373ffffffffffffffffffffffffffffffffffffffff160217905550805f806101000a81548173ffffffffffffffffffffffffffffffffffffffff021916908373ffffffffffffffffffffffffffffffffffffffff1602179055505061013f565b5f80fd5b5f73ffffffffffffffffffffffffffffffffffffffff82169050919050565b5f6100e3826100ba565b9050919050565b6100f3816100d9565b81146100fd575f80fd5b50565b5f8151905061010e816100ea565b92915050565b5f60208284031215610129576101286100b6565b5b5f61013684828501610100565b91505092915050565b6121718061014c5f395ff3fe608060405234801561000f575f80fd5b50600436106100e8575f3560e01c806377942c6e1161008a578063958b80c211610064578063958b80c21461028e578063996440c6146102aa578063b3b4712e146102da578063ff8e704f146102f6576100e8565b806377942c6e1461021e5780638da5cb5b1461023a57806393119a8314610258576100e8565b80634b1cfea8116100c65780634b1cfea8146101855780635ae84377146101a15780636efb1b84146101d1578063756ecf1314610202576100e8565b80630246220b146100ec5780632145efcb1461011c5780634abfa1631461014f575b5f80fd5b61010660048036038101906101019190611556565b610312565b604051610113919061159b565b60405180910390f35b61013660048036038101906101319190611556565b61032f565b6040516101469493929190611602565b60405180910390f35b61016960048036038101906101649190611556565b610396565b60405161017c97969594939291906116b5565b60405180910390f35b61019f600480360381019061019a9190611768565b610646565b005b6101bb60048036038101906101b69190611556565b610798565b6040516101c8919061159b565b60405180910390f35b6101eb60048036038101906101e69190611556565b6107b5565b6040516101f99291906117a6565b60405180910390f35b61021c60048036038101906102179190611900565b610889565b005b61023860048036038101906102339190611768565b610a1c565b005b610242610b6f565b60405161024f91906119d4565b60405180910390f35b610272600480360381019061026d9190611556565b610b94565b60405161028597969594939291906116b5565b60405180910390f35b6102a860048036038101906102a391906119ed565b610e44565b005b6102c460048036038101906102bf9190611a47565b610fdb565b6040516102d1919061159b565b60405180910390f35b6102f460048036038101906102ef9190611a72565b610ff8565b005b610310600480360381019061030b9190611900565b61137f565b005b6007602052805f5260405f205f915054906101000a900460ff1681565b6004818154811061033e575f80fd5b905f5260205f2090600302015f91509050805f015490806001015490806002015f9054906101000a900473ffffffffffffffffffffffffffffffffffffffff16908060020160149054906101000a900460ff16905084565b600281815481106103a5575f80fd5b905f5260205f2090600602015f91509050805f0180546103c490611add565b80601f01602080910402602001604051908101604052809291908181526020018280546103f090611add565b801561043b5780601f106104125761010080835404028352916020019161043b565b820191905f5260205f20905b81548152906001019060200180831161041e57829003601f168201915b50505050509080600101805461045090611add565b80601f016020809104026020016040519081016040528092919081815260200182805461047c90611add565b80156104c75780601f1061049e576101008083540402835291602001916104c7565b820191905f5260205f20905b8154815290600101906020018083116104aa57829003601f168201915b5050505050908060020180546104dc90611add565b80601f016020809104026020016040519081016040528092919081815260200182805461050890611add565b80156105535780601f1061052a57610100808354040283529160200191610553565b820191905f5260205f20905b81548152906001019060200180831161053657829003601f168201915b50505050509080600301805461056890611add565b80601f016020809104026020016040519081016040528092919081815260200182805461059490611add565b80156105df5780601f106105b6576101008083540402835291602001916105df565b820191905f5260205f20905b8154815290600101906020018083116105c257829003601f168201915b505050505090806004015f9054906101000a900460ff16908060040160019054906101000a900473ffffffffffffffffffffffffffffffffffffffff1690806005015f9054906101000a900473ffffffffffffffffffffffffffffffffffffffff16905087565b60055f3373ffffffffffffffffffffffffffffffffffffffff1673ffffffffffffffffffffffffffffffffffffffff1681526020019081526020015f205f9054906101000a900460ff166106cf576040517f08c379a00000000000000000000000000000000000000000000000000000000081526004016106c690611b7d565b60405180910390fd5b60018083815481106106e4576106e3611b9b565b5b905f5260205f2090600602016004015f6101000a81548160ff021916908315150217905550806001838154811061071e5761071d611b9b565b5b905f5260205f20906006020160040160016101000a81548173ffffffffffffffffffffffffffffffffffffffff021916908373ffffffffffffffffffffffffffffffffffffffff160217905550600160065f8481526020019081526020015f205f6101000a81548160ff0219169083151502179055505050565b6006602052805f5260405f205f915054906101000a900460ff1681565b600381815481106107c4575f80fd5b905f5260205f2090600202015f91509050805f0180546107e390611add565b80601f016020809104026020016040519081016040528092919081815260200182805461080f90611add565b801561085a5780601f106108315761010080835404028352916020019161085a565b820191905f5260205f20905b81548152906001019060200180831161083d57829003601f168201915b505050505090806001015f9054906101000a900473ffffffffffffffffffffffffffffffffffffffff16905082565b60026040518060e001604052808681526020018581526020018481526020018381526020015f151581526020015f73ffffffffffffffffffffffffffffffffffffffff1681526020013373ffffffffffffffffffffffffffffffffffffffff16815250908060018154018082558091505060019003905f5260205f2090600602015f909190919091505f820151815f0190816109259190611d65565b50602082015181600101908161093b9190611d65565b5060408201518160020190816109519190611d65565b5060608201518160030190816109679190611d65565b506080820151816004015f6101000a81548160ff02191690831515021790555060a08201518160040160016101000a81548173ffffffffffffffffffffffffffffffffffffffff021916908373ffffffffffffffffffffffffffffffffffffffff16021790555060c0820151816005015f6101000a81548173ffffffffffffffffffffffffffffffffffffffff021916908373ffffffffffffffffffffffffffffffffffffffff160217905550505050505050565b60055f3373ffffffffffffffffffffffffffffffffffffffff1673ffffffffffffffffffffffffffffffffffffffff1681526020019081526020015f205f9054906101000a900460ff16610aa5576040517f08c379a0000000000000000000000000000000000000000000000000000000008152600401610a9c90611e7e565b60405180910390fd5b600160028381548110610abb57610aba611b9b565b5b905f5260205f2090600602016004015f6101000a81548160ff0219169083151502179055508060028381548110610af557610af4611b9b565b5b905f5260205f20906006020160040160016101000a81548173ffffffffffffffffffffffffffffffffffffffff021916908373ffffffffffffffffffffffffffffffffffffffff160217905550600160075f8481526020019081526020015f205f6101000a81548160ff0219169083151502179055505050565b60085f9054906101000a900473ffffffffffffffffffffffffffffffffffffffff1681565b60018181548110610ba3575f80fd5b905f5260205f2090600602015f91509050805f018054610bc290611add565b80601f0160208091040260200160405190810160405280929190818152602001828054610bee90611add565b8015610c395780601f10610c1057610100808354040283529160200191610c39565b820191905f5260205f20905b815481529060010190602001808311610c1c57829003601f168201915b505050505090806001018054610c4e90611add565b80601f0160208091040260200160405190810160405280929190818152602001828054610c7a90611add565b8015610cc55780601f10610c9c57610100808354040283529160200191610cc5565b820191905f5260205f20905b815481529060010190602001808311610ca857829003601f168201915b505050505090806002018054610cda90611add565b80601f0160208091040260200160405190810160405280929190818152602001828054610d0690611add565b8015610d515780601f10610d2857610100808354040283529160200191610d51565b820191905f5260205f20905b815481529060010190602001808311610d3457829003601f168201915b505050505090806003018054610d6690611add565b80601f0160208091040260200160405190810160405280929190818152602001828054610d9290611add565b8015610ddd5780601f10610db457610100808354040283529160200191610ddd565b820191905f5260205f20905b815481529060010190602001808311610dc057829003601f168201915b505050505090806004015f9054906101000a900460ff16908060040160019054906101000a900473ffffffffffffffffffffffffffffffffffffffff1690806005015f9054906101000a900473ffffffffffffffffffffffffffffffffffffffff16905087565b60085f9054906101000a900473ffffffffffffffffffffffffffffffffffffffff1673ffffffffffffffffffffffffffffffffffffffff163373ffffffffffffffffffffffffffffffffffffffff1614610ed3576040517f08c379a0000000000000000000000000000000000000000000000000000000008152600401610eca90611f0c565b60405180910390fd5b600360405180604001604052808481526020018373ffffffffffffffffffffffffffffffffffffffff16815250908060018154018082558091505060019003905f5260205f2090600202015f909190919091505f820151815f019081610f399190611d65565b506020820151816001015f6101000a81548173ffffffffffffffffffffffffffffffffffffffff021916908373ffffffffffffffffffffffffffffffffffffffff1602179055505050600160055f8373ffffffffffffffffffffffffffffffffffffffff1673ffffffffffffffffffffffffffffffffffffffff1681526020019081526020015f205f6101000a81548160ff0219169083151502179055505050565b6005602052805f5260405f205f915054906101000a900460ff1681565b6001828154811061100c5761100b611b9b565b5b905f5260205f2090600602016004015f9054906101000a900460ff16801561106057506002818154811061104357611042611b9b565b5b905f5260205f2090600602016004015f9054906101000a900460ff165b61109f576040517f08c379a000000000000000000000000000000000000000000000000000000000815260040161109690611f9a565b60405180910390fd5b60055f3373ffffffffffffffffffffffffffffffffffffffff1673ffffffffffffffffffffffffffffffffffffffff1681526020019081526020015f205f9054906101000a900460ff16611128576040517f08c379a000000000000000000000000000000000000000000000000000000000815260040161111f90612028565b60405180910390fd5b6001828154811061113c5761113b611b9b565b5b905f5260205f2090600602016005015f9054906101000a900473ffffffffffffffffffffffffffffffffffffffff1673ffffffffffffffffffffffffffffffffffffffff165f8054906101000a900473ffffffffffffffffffffffffffffffffffffffff1673ffffffffffffffffffffffffffffffffffffffff1663081812fc836040518263ffffffff1660e01b81526004016111d99190612046565b602060405180830381865afa1580156111f4573d5f803e3d5ffd5b505050506040513d601f19601f820116820180604052508101906112189190612073565b73ffffffffffffffffffffffffffffffffffffffff161461126e576040517f08c379a0000000000000000000000000000000000000000000000000000000008152600401611265906120e8565b60405180910390fd5b5f8054906101000a900473ffffffffffffffffffffffffffffffffffffffff1673ffffffffffffffffffffffffffffffffffffffff166342842e0e600283815481106112bd576112bc611b9b565b5b905f5260205f2090600602016005015f9054906101000a900473ffffffffffffffffffffffffffffffffffffffff1660018581548110611300576112ff611b9b565b5b905f5260205f2090600602016005015f9054906101000a900473ffffffffffffffffffffffffffffffffffffffff16846040518463ffffffff1660e01b815260040161134e93929190612106565b5f604051808303815f87803b158015611365575f80fd5b505af1158015611377573d5f803e3d5ffd5b505050505050565b60016040518060e001604052808681526020018581526020018481526020018381526020015f151581526020015f73ffffffffffffffffffffffffffffffffffffffff1681526020013373ffffffffffffffffffffffffffffffffffffffff16815250908060018154018082558091505060019003905f5260205f2090600602015f909190919091505f820151815f01908161141b9190611d65565b5060208201518160010190816114319190611d65565b5060408201518160020190816114479190611d65565b50606082015181600301908161145d9190611d65565b506080820151816004015f6101000a81548160ff02191690831515021790555060a08201518160040160016101000a81548173ffffffffffffffffffffffffffffffffffffffff021916908373ffffffffffffffffffffffffffffffffffffffff16021790555060c0820151816005015f6101000a81548173ffffffffffffffffffffffffffffffffffffffff021916908373ffffffffffffffffffffffffffffffffffffffff160217905550505050505050565b5f604051905090565b5f80fd5b5f80fd5b5f819050919050565b61153581611523565b811461153f575f80fd5b50565b5f813590506115508161152c565b92915050565b5f6020828403121561156b5761156a61151b565b5b5f61157884828501611542565b91505092915050565b5f8115159050919050565b61159581611581565b82525050565b5f6020820190506115ae5f83018461158c565b92915050565b6115bd81611523565b82525050565b5f73ffffffffffffffffffffffffffffffffffffffff82169050919050565b5f6115ec826115c3565b9050919050565b6115fc816115e2565b82525050565b5f6080820190506116155f8301876115b4565b61162260208301866115b4565b61162f60408301856115f3565b61163c606083018461158c565b95945050505050565b5f81519050919050565b5f82825260208201905092915050565b8281835e5f83830152505050565b5f601f19601f8301169050919050565b5f61168782611645565b611691818561164f565b93506116a181856020860161165f565b6116aa8161166d565b840191505092915050565b5f60e0820190508181035f8301526116cd818a61167d565b905081810360208301526116e1818961167d565b905081810360408301526116f5818861167d565b90508181036060830152611709818761167d565b9050611718608083018661158c565b61172560a08301856115f3565b61173260c08301846115f3565b98975050505050505050565b611747816115e2565b8114611751575f80fd5b50565b5f813590506117628161173e565b92915050565b5f806040838503121561177e5761177d61151b565b5b5f61178b85828601611542565b925050602061179c85828601611754565b9150509250929050565b5f6040820190508181035f8301526117be818561167d565b90506117cd60208301846115f3565b9392505050565b5f80fd5b5f80fd5b7f4e487b71000000000000000000000000000000000000000000000000000000005f52604160045260245ffd5b6118128261166d565b810181811067ffffffffffffffff82111715611831576118306117dc565b5b80604052505050565b5f611843611512565b905061184f8282611809565b919050565b5f67ffffffffffffffff82111561186e5761186d6117dc565b5b6118778261166d565b9050602081019050919050565b828183375f83830152505050565b5f6118a461189f84611854565b61183a565b9050828152602081018484840111156118c0576118bf6117d8565b5b6118cb848285611884565b509392505050565b5f82601f8301126118e7576118e66117d4565b5b81356118f7848260208601611892565b91505092915050565b5f805f80608085870312156119185761191761151b565b5b5f85013567ffffffffffffffff8111156119355761193461151f565b5b611941878288016118d3565b945050602085013567ffffffffffffffff8111156119625761196161151f565b5b61196e878288016118d3565b935050604085013567ffffffffffffffff81111561198f5761198e61151f565b5b61199b878288016118d3565b925050606085013567ffffffffffffffff8111156119bc576119bb61151f565b5b6119c8878288016118d3565b91505092959194509250565b5f6020820190506119e75f8301846115f3565b92915050565b5f8060408385031215611a0357611a0261151b565b5b5f83013567ffffffffffffffff811115611a2057611a1f61151f565b5b611a2c858286016118d3565b9250506020611a3d85828601611754565b9150509250929050565b5f60208284031215611a5c57611a5b61151b565b5b5f611a6984828501611754565b91505092915050565b5f8060408385031215611a8857611a8761151b565b5b5f611a9585828601611542565b9250506020611aa685828601611542565b9150509250929050565b7f4e487b71000000000000000000000000000000000000000000000000000000005f52602260045260245ffd5b5f6002820490506001821680611af457607f821691505b602082108103611b0757611b06611ab0565b5b50919050565b7f4f6e6c7920646f63746f72732063616e20617070726f76652070617469656e745f8201527f732e000000000000000000000000000000000000000000000000000000000000602082015250565b5f611b6760228361164f565b9150611b7282611b0d565b604082019050919050565b5f6020820190508181035f830152611b9481611b5b565b9050919050565b7f4e487b71000000000000000000000000000000000000000000000000000000005f52603260045260245ffd5b5f819050815f5260205f209050919050565b5f6020601f8301049050919050565b5f82821b905092915050565b5f60088302611c247fffffffffffffffffffffffffffffffffffffffffffffffffffffffffffffffff82611be9565b611c2e8683611be9565b95508019841693508086168417925050509392505050565b5f819050919050565b5f611c69611c64611c5f84611523565b611c46565b611523565b9050919050565b5f819050919050565b611c8283611c4f565b611c96611c8e82611c70565b848454611bf5565b825550505050565b5f90565b611caa611c9e565b611cb5818484611c79565b505050565b5b81811015611cd857611ccd5f82611ca2565b600181019050611cbb565b5050565b601f821115611d1d57611cee81611bc8565b611cf784611bda565b81016020851015611d06578190505b611d1a611d1285611bda565b830182611cba565b50505b505050565b5f82821c905092915050565b5f611d3d5f1984600802611d22565b1980831691505092915050565b5f611d558383611d2e565b9150826002028217905092915050565b611d6e82611645565b67ffffffffffffffff811115611d8757611d866117dc565b5b611d918254611add565b611d9c828285611cdc565b5f60209050601f831160018114611dcd575f8415611dbb578287015190505b611dc58582611d4a565b865550611e2c565b601f198416611ddb86611bc8565b5f5b82811015611e0257848901518255600182019150602085019450602081019050611ddd565b86831015611e1f5784890151611e1b601f891682611d2e565b8355505b6001600288020188555050505b505050505050565b7f4f6e6c7920646f63746f72732063616e20617070726f766520646f6e6f72732e5f82015250565b5f611e6860208361164f565b9150611e7382611e34565b602082019050919050565b5f6020820190508181035f830152611e9581611e5c565b9050919050565b7f4f6e6c79206f776e65722063616e2063616c6c20746869732066756e6374696f5f8201527f6e2e000000000000000000000000000000000000000000000000000000000000602082015250565b5f611ef660228361164f565b9150611f0182611e9c565b604082019050919050565b5f6020820190508181035f830152611f2381611eea565b9050919050565b7f426f74682070617469656e7420616e6420646f6e6f72206d75737420626520615f8201527f7070726f7665642e000000000000000000000000000000000000000000000000602082015250565b5f611f8460288361164f565b9150611f8f82611f2a565b604082019050919050565b5f6020820190508181035f830152611fb181611f78565b9050919050565b7f4f6e6c7920646f63746f72732063616e20617070726f7665207472616e73706c5f8201527f616e742e00000000000000000000000000000000000000000000000000000000602082015250565b5f61201260248361164f565b915061201d82611fb8565b604082019050919050565b5f6020820190508181035f83015261203f81612006565b9050919050565b5f6020820190506120595f8301846115b4565b92915050565b5f8151905061206d8161173e565b92915050565b5f602082840312156120885761208761151b565b5b5f6120958482850161205f565b91505092915050565b7f446f6e6f72206d75737420617070726f7665207472616e736665722e000000005f82015250565b5f6120d2601c8361164f565b91506120dd8261209e565b602082019050919050565b5f6020820190508181035f8301526120ff816120c6565b9050919050565b5f6060820190506121195f8301866115f3565b61212660208301856115f3565b61213360408301846115b4565b94935050505056fea264697066735822122050542459f2efd3df9305b06c4cff94c9dfa6565800b2f9298e4dead2ab0bcb6c64736f6c634300081a0033",
			"opcodes": "PUSH1 0x80 PUSH1 0x40 MSTORE CALLVALUE DUP1 ISZERO PUSH2 0xF JUMPI PUSH0 DUP1 REVERT JUMPDEST POP PUSH1 0x40 MLOAD PUSH2 0x22BD CODESIZE SUB DUP1 PUSH2 0x22BD DUP4 CODECOPY DUP2 DUP2 ADD PUSH1 0x40 MSTORE DUP2 ADD SWAP1 PUSH2 0x31 SWAP2 SWAP1 PUSH2 0x114 JUMP JUMPDEST CALLER PUSH1 0x8 PUSH0 PUSH2 0x100 EXP DUP2 SLOAD DUP2 PUSH20 0xFFFFFFFFFFFFFFFFFFFFFFFFFFFFFFFFFFFFFFFF MUL NOT AND SWAP1 DUP4 PUSH20 0xFFFFFFFFFFFFFFFFFFFFFFFFFFFFFFFFFFFFFFFF AND MUL OR SWAP1 SSTORE POP DUP1 PUSH0 DUP1 PUSH2 0x100 EXP DUP2 SLOAD DUP2 PUSH20 0xFFFFFFFFFFFFFFFFFFFFFFFFFFFFFFFFFFFFFFFF MUL NOT AND SWAP1 DUP4 PUSH20 0xFFFFFFFFFFFFFFFFFFFFFFFFFFFFFFFFFFFFFFFF AND MUL OR SWAP1 SSTORE POP POP PUSH2 0x13F JUMP JUMPDEST PUSH0 DUP1 REVERT JUMPDEST PUSH0 PUSH20 0xFFFFFFFFFFFFFFFFFFFFFFFFFFFFFFFFFFFFFFFF DUP3 AND SWAP1 POP SWAP2 SWAP1 POP JUMP JUMPDEST PUSH0 PUSH2 0xE3 DUP3 PUSH2 0xBA JUMP JUMPDEST SWAP1 POP SWAP2 SWAP1 POP JUMP JUMPDEST PUSH2 0xF3 DUP2 PUSH2 0xD9 JUMP JUMPDEST DUP2 EQ PUSH2 0xFD JUMPI PUSH0 DUP1 REVERT JUMPDEST POP JUMP JUMPDEST PUSH0 DUP2 MLOAD SWAP1 POP PUSH2 0x10E DUP2 PUSH2 0xEA JUMP JUMPDEST SWAP3 SWAP2 POP POP JUMP JUMPDEST PUSH0 PUSH1 0x20 DUP3 DUP5 SUB SLT ISZERO PUSH2 0x129 JUMPI PUSH2 0x128 PUSH2 0xB6 JUMP JUMPDEST JUMPDEST PUSH0 PUSH2 0x136 DUP5 DUP3 DUP6 ADD PUSH2 0x100 JUMP JUMPDEST SWAP2 POP POP SWAP3 SWAP2 POP POP JUMP JUMPDEST PUSH2 0x2171 DUP1 PUSH2 0x14C PUSH0 CODECOPY PUSH0 RETURN INVALID PUSH1 0x80 PUSH1 0x40 MSTORE CALLVALUE DUP1 ISZERO PUSH2 0xF JUMPI PUSH0 DUP1 REVERT JUMPDEST POP PUSH1 0x4 CALLDATASIZE LT PUSH2 0xE8 JUMPI PUSH0 CALLDATALOAD PUSH1 0xE0 SHR DUP1 PUSH4 0x77942C6E GT PUSH2 0x8A JUMPI DUP1 PUSH4 0x958B80C2 GT PUSH2 0x64 JUMPI DUP1 PUSH4 0x958B80C2 EQ PUSH2 0x28E JUMPI DUP1 PUSH4 0x996440C6 EQ PUSH2 0x2AA JUMPI DUP1 PUSH4 0xB3B4712E EQ PUSH2 0x2DA JUMPI DUP1 PUSH4 0xFF8E704F EQ PUSH2 0x2F6 JUMPI PUSH2 0xE8 JUMP JUMPDEST DUP1 PUSH4 0x77942C6E EQ PUSH2 0x21E JUMPI DUP1 PUSH4 0x8DA5CB5B EQ PUSH2 0x23A JUMPI DUP1 PUSH4 0x93119A83 EQ PUSH2 0x258 JUMPI PUSH2 0xE8 JUMP JUMPDEST DUP1 PUSH4 0x4B1CFEA8 GT PUSH2 0xC6 JUMPI DUP1 PUSH4 0x4B1CFEA8 EQ PUSH2 0x185 JUMPI DUP1 PUSH4 0x5AE84377 EQ PUSH2 0x1A1 JUMPI DUP1 PUSH4 0x6EFB1B84 EQ PUSH2 0x1D1 JUMPI DUP1 PUSH4 0x756ECF13 EQ PUSH2 0x202 JUMPI PUSH2 0xE8 JUMP JUMPDEST DUP1 PUSH4 0x246220B EQ PUSH2 0xEC JUMPI DUP1 PUSH4 0x2145EFCB EQ PUSH2 0x11C JUMPI DUP1 PUSH4 0x4ABFA163 EQ PUSH2 0x14F JUMPI JUMPDEST PUSH0 DUP1 REVERT JUMPDEST PUSH2 0x106 PUSH1 0x4 DUP1 CALLDATASIZE SUB DUP2 ADD SWAP1 PUSH2 0x101 SWAP2 SWAP1 PUSH2 0x1556 JUMP JUMPDEST PUSH2 0x312 JUMP JUMPDEST PUSH1 0x40 MLOAD PUSH2 0x113 SWAP2 SWAP1 PUSH2 0x159B JUMP JUMPDEST PUSH1 0x40 MLOAD DUP1 SWAP2 SUB SWAP1 RETURN JUMPDEST PUSH2 0x136 PUSH1 0x4 DUP1 CALLDATASIZE SUB DUP2 ADD SWAP1 PUSH2 0x131 SWAP2 SWAP1 PUSH2 0x1556 JUMP JUMPDEST PUSH2 0x32F JUMP JUMPDEST PUSH1 0x40 MLOAD PUSH2 0x146 SWAP5 SWAP4 SWAP3 SWAP2 SWAP1 PUSH2 0x1602 JUMP JUMPDEST PUSH1 0x40 MLOAD DUP1 SWAP2 SUB SWAP1 RETURN JUMPDEST PUSH2 0x169 PUSH1 0x4 DUP1 CALLDATASIZE SUB DUP2 ADD SWAP1 PUSH2 0x164 SWAP2 SWAP1 PUSH2 0x1556 JUMP JUMPDEST PUSH2 0x396 JUMP JUMPDEST PUSH1 0x40 MLOAD PUSH2 0x17C SWAP8 SWAP7 SWAP6 SWAP5 SWAP4 SWAP3 SWAP2 SWAP1 PUSH2 0x16B5 JUMP JUMPDEST PUSH1 0x40 MLOAD DUP1 SWAP2 SUB SWAP1 RETURN JUMPDEST PUSH2 0x19F PUSH1 0x4 DUP1 CALLDATASIZE SUB DUP2 ADD SWAP1 PUSH2 0x19A SWAP2 SWAP1 PUSH2 0x1768 JUMP JUMPDEST PUSH2 0x646 JUMP JUMPDEST STOP JUMPDEST PUSH2 0x1BB PUSH1 0x4 DUP1 CALLDATASIZE SUB DUP2 ADD SWAP1 PUSH2 0x1B6 SWAP2 SWAP1 PUSH2 0x1556 JUMP JUMPDEST PUSH2 0x798 JUMP JUMPDEST PUSH1 0x40 MLOAD PUSH2 0x1C8 SWAP2 SWAP1 PUSH2 0x159B JUMP JUMPDEST PUSH1 0x40 MLOAD DUP1 SWAP2 SUB SWAP1 RETURN JUMPDEST PUSH2 0x1EB PUSH1 0x4 DUP1 CALLDATASIZE SUB DUP2 ADD SWAP1 PUSH2 0x1E6 SWAP2 SWAP1 PUSH2 0x1556 JUMP JUMPDEST PUSH2 0x7B5 JUMP JUMPDEST PUSH1 0x40 MLOAD PUSH2 0x1F9 SWAP3 SWAP2 SWAP1 PUSH2 0x17A6 JUMP JUMPDEST PUSH1 0x40 MLOAD DUP1 SWAP2 SUB SWAP1 RETURN JUMPDEST PUSH2 0x21C PUSH1 0x4 DUP1 CALLDATASIZE SUB DUP2 ADD SWAP1 PUSH2 0x217 SWAP2 SWAP1 PUSH2 0x1900 JUMP JUMPDEST PUSH2 0x889 JUMP JUMPDEST STOP JUMPDEST PUSH2 0x238 PUSH1 0x4 DUP1 CALLDATASIZE SUB DUP2 ADD SWAP1 PUSH2 0x233 SWAP2 SWAP1 PUSH2 0x1768 JUMP JUMPDEST PUSH2 0xA1C JUMP JUMPDEST STOP JUMPDEST PUSH2 0x242 PUSH2 0xB6F JUMP JUMPDEST PUSH1 0x40 MLOAD PUSH2 0x24F SWAP2 SWAP1 PUSH2 0x19D4 JUMP JUMPDEST PUSH1 0x40 MLOAD DUP1 SWAP2 SUB SWAP1 RETURN JUMPDEST PUSH2 0x272 PUSH1 0x4 DUP1 CALLDATASIZE SUB DUP2 ADD SWAP1 PUSH2 0x26D SWAP2 SWAP1 PUSH2 0x1556 JUMP JUMPDEST PUSH2 0xB94 JUMP JUMPDEST PUSH1 0x40 MLOAD PUSH2 0x285 SWAP8 SWAP7 SWAP6 SWAP5 SWAP4 SWAP3 SWAP2 SWAP1 PUSH2 0x16B5 JUMP JUMPDEST PUSH1 0x40 MLOAD DUP1 SWAP2 SUB SWAP1 RETURN JUMPDEST PUSH2 0x2A8 PUSH1 0x4 DUP1 CALLDATASIZE SUB DUP2 ADD SWAP1 PUSH2 0x2A3 SWAP2 SWAP1 PUSH2 0x19ED JUMP JUMPDEST PUSH2 0xE44 JUMP JUMPDEST STOP JUMPDEST PUSH2 0x2C4 PUSH1 0x4 DUP1 CALLDATASIZE SUB DUP2 ADD SWAP1 PUSH2 0x2BF SWAP2 SWAP1 PUSH2 0x1A47 JUMP JUMPDEST PUSH2 0xFDB JUMP JUMPDEST PUSH1 0x40 MLOAD PUSH2 0x2D1 SWAP2 SWAP1 PUSH2 0x159B JUMP JUMPDEST PUSH1 0x40 MLOAD DUP1 SWAP2 SUB SWAP1 RETURN JUMPDEST PUSH2 0x2F4 PUSH1 0x4 DUP1 CALLDATASIZE SUB DUP2 ADD SWAP1 PUSH2 0x2EF SWAP2 SWAP1 PUSH2 0x1A72 JUMP JUMPDEST PUSH2 0xFF8 JUMP JUMPDEST STOP JUMPDEST PUSH2 0x310 PUSH1 0x4 DUP1 CALLDATASIZE SUB DUP2 ADD SWAP1 PUSH2 0x30B SWAP2 SWAP1 PUSH2 0x1900 JUMP JUMPDEST PUSH2 0x137F JUMP JUMPDEST STOP JUMPDEST PUSH1 0x7 PUSH1 0x20 MSTORE DUP1 PUSH0 MSTORE PUSH1 0x40 PUSH0 KECCAK256 PUSH0 SWAP2 POP SLOAD SWAP1 PUSH2 0x100 EXP SWAP1 DIV PUSH1 0xFF AND DUP2 JUMP JUMPDEST PUSH1 0x4 DUP2 DUP2 SLOAD DUP2 LT PUSH2 0x33E JUMPI PUSH0 DUP1 REVERT JUMPDEST SWAP1 PUSH0 MSTORE PUSH1 0x20 PUSH0 KECCAK256 SWAP1 PUSH1 0x3 MUL ADD PUSH0 SWAP2 POP SWAP1 POP DUP1 PUSH0 ADD SLOAD SWAP1 DUP1 PUSH1 0x1 ADD SLOAD SWAP1 DUP1 PUSH1 0x2 ADD PUSH0 SWAP1 SLOAD SWAP1 PUSH2 0x100 EXP SWAP1 DIV PUSH20 0xFFFFFFFFFFFFFFFFFFFFFFFFFFFFFFFFFFFFFFFF AND SWAP1 DUP1 PUSH1 0x2 ADD PUSH1 0x14 SWAP1 SLOAD SWAP1 PUSH2 0x100 EXP SWAP1 DIV PUSH1 0xFF AND SWAP1 POP DUP5 JUMP JUMPDEST PUSH1 0x2 DUP2 DUP2 SLOAD DUP2 LT PUSH2 0x3A5 JUMPI PUSH0 DUP1 REVERT JUMPDEST SWAP1 PUSH0 MSTORE PUSH1 0x20 PUSH0 KECCAK256 SWAP1 PUSH1 0x6 MUL ADD PUSH0 SWAP2 POP SWAP1 POP DUP1 PUSH0 ADD DUP1 SLOAD PUSH2 0x3C4 SWAP1 PUSH2 0x1ADD JUMP JUMPDEST DUP1 PUSH1 0x1F ADD PUSH1 0x20 DUP1 SWAP2 DIV MUL PUSH1 0x20 ADD PUSH1 0x40 MLOAD SWAP1 DUP2 ADD PUSH1 0x40 MSTORE DUP1 SWAP3 SWAP2 SWAP1 DUP2 DUP2 MSTORE PUSH1 0x20 ADD DUP3 DUP1 SLOAD PUSH2 0x3F0 SWAP1 PUSH2 0x1ADD JUMP JUMPDEST DUP1 ISZERO PUSH2 0x43B JUMPI DUP1 PUSH1 0x1F LT PUSH2 0x412 JUMPI PUSH2 0x100 DUP1 DUP4 SLOAD DIV MUL DUP4 MSTORE SWAP2 PUSH1 0x20 ADD SWAP2 PUSH2 0x43B JUMP JUMPDEST DUP3 ADD SWAP2 SWAP1 PUSH0 MSTORE PUSH1 0x20 PUSH0 KECCAK256 SWAP1 JUMPDEST DUP2 SLOAD DUP2 MSTORE SWAP1 PUSH1 0x1 ADD SWAP1 PUSH1 0x20 ADD DUP1 DUP4 GT PUSH2 0x41E JUMPI DUP3 SWAP1 SUB PUSH1 0x1F AND DUP3 ADD SWAP2 JUMPDEST POP POP POP POP POP SWAP1 DUP1 PUSH1 0x1 ADD DUP1 SLOAD PUSH2 0x450 SWAP1 PUSH2 0x1ADD JUMP JUMPDEST DUP1 PUSH1 0x1F ADD PUSH1 0x20 DUP1 SWAP2 DIV MUL PUSH1 0x20 ADD PUSH1 0x40 MLOAD SWAP1 DUP2 ADD PUSH1 0x40 MSTORE DUP1 SWAP3 SWAP2 SWAP1 DUP2 DUP2 MSTORE PUSH1 0x20 ADD DUP3 DUP1 SLOAD PUSH2 0x47C SWAP1 PUSH2 0x1ADD JUMP JUMPDEST DUP1 ISZERO PUSH2 0x4C7 JUMPI DUP1 PUSH1 0x1F LT PUSH2 0x49E JUMPI PUSH2 0x100 DUP1 DUP4 SLOAD DIV MUL DUP4 MSTORE SWAP2 PUSH1 0x20 ADD SWAP2 PUSH2 0x4C7 JUMP JUMPDEST DUP3 ADD SWAP2 SWAP1 PUSH0 MSTORE PUSH1 0x20 PUSH0 KECCAK256 SWAP1 JUMPDEST DUP2 SLOAD DUP2 MSTORE SWAP1 PUSH1 0x1 ADD SWAP1 PUSH1 0x20 ADD DUP1 DUP4 GT PUSH2 0x4AA JUMPI DUP3 SWAP1 SUB PUSH1 0x1F AND DUP3 ADD SWAP2 JUMPDEST POP POP POP POP POP SWAP1 DUP1 PUSH1 0x2 ADD DUP1 SLOAD PUSH2 0x4DC SWAP1 PUSH2 0x1ADD JUMP JUMPDEST DUP1 PUSH1 0x1F ADD PUSH1 0x20 DUP1 SWAP2 DIV MUL PUSH1 0x20 ADD PUSH1 0x40 MLOAD SWAP1 DUP2 ADD PUSH1 0x40 MSTORE DUP1 SWAP3 SWAP2 SWAP1 DUP2 DUP2 MSTORE PUSH1 0x20 ADD DUP3 DUP1 SLOAD PUSH2 0x508 SWAP1 PUSH2 0x1ADD JUMP JUMPDEST DUP1 ISZERO PUSH2 0x553 JUMPI DUP1 PUSH1 0x1F LT PUSH2 0x52A JUMPI PUSH2 0x100 DUP1 DUP4 SLOAD DIV MUL DUP4 MSTORE SWAP2 PUSH1 0x20 ADD SWAP2 PUSH2 0x553 JUMP JUMPDEST DUP3 ADD SWAP2 SWAP1 PUSH0 MSTORE PUSH1 0x20 PUSH0 KECCAK256 SWAP1 JUMPDEST DUP2 SLOAD DUP2 MSTORE SWAP1 PUSH1 0x1 ADD SWAP1 PUSH1 0x20 ADD DUP1 DUP4 GT PUSH2 0x536 JUMPI DUP3 SWAP1 SUB PUSH1 0x1F AND DUP3 ADD SWAP2 JUMPDEST POP POP POP POP POP SWAP1 DUP1 PUSH1 0x3 ADD DUP1 SLOAD PUSH2 0x568 SWAP1 PUSH2 0x1ADD JUMP JUMPDEST DUP1 PUSH1 0x1F ADD PUSH1 0x20 DUP1 SWAP2 DIV MUL PUSH1 0x20 ADD PUSH1 0x40 MLOAD SWAP1 DUP2 ADD PUSH1 0x40 MSTORE DUP1 SWAP3 SWAP2 SWAP1 DUP2 DUP2 MSTORE PUSH1 0x20 ADD DUP3 DUP1 SLOAD PUSH2 0x594 SWAP1 PUSH2 0x1ADD JUMP JUMPDEST DUP1 ISZERO PUSH2 0x5DF JUMPI DUP1 PUSH1 0x1F LT PUSH2 0x5B6 JUMPI PUSH2 0x100 DUP1 DUP4 SLOAD DIV MUL DUP4 MSTORE SWAP2 PUSH1 0x20 ADD SWAP2 PUSH2 0x5DF JUMP JUMPDEST DUP3 ADD SWAP2 SWAP1 PUSH0 MSTORE PUSH1 0x20 PUSH0 KECCAK256 SWAP1 JUMPDEST DUP2 SLOAD DUP2 MSTORE SWAP1 PUSH1 0x1 ADD SWAP1 PUSH1 0x20 ADD DUP1 DUP4 GT PUSH2 0x5C2 JUMPI DUP3 SWAP1 SUB PUSH1 0x1F AND DUP3 ADD SWAP2 JUMPDEST POP POP POP POP POP SWAP1 DUP1 PUSH1 0x4 ADD PUSH0 SWAP1 SLOAD SWAP1 PUSH2 0x100 EXP SWAP1 DIV PUSH1 0xFF AND SWAP1 DUP1 PUSH1 0x4 ADD PUSH1 0x1 SWAP1 SLOAD SWAP1 PUSH2 0x100 EXP SWAP1 DIV PUSH20 0xFFFFFFFFFFFFFFFFFFFFFFFFFFFFFFFFFFFFFFFF AND SWAP1 DUP1 PUSH1 0x5 ADD PUSH0 SWAP1 SLOAD SWAP1 PUSH2 0x100 EXP SWAP1 DIV PUSH20 0xFFFFFFFFFFFFFFFFFFFFFFFFFFFFFFFFFFFFFFFF AND SWAP1 POP DUP8 JUMP JUMPDEST PUSH1 0x5 PUSH0 CALLER PUSH20 0xFFFFFFFFFFFFFFFFFFFFFFFFFFFFFFFFFFFFFFFF AND PUSH20 0xFFFFFFFFFFFFFFFFFFFFFFFFFFFFFFFFFFFFFFFF AND DUP2 MSTORE PUSH1 0x20 ADD SWAP1 DUP2 MSTORE PUSH1 0x20 ADD PUSH0 KECCAK256 PUSH0 SWAP1 SLOAD SWAP1 PUSH2 0x100 EXP SWAP1 DIV PUSH1 0xFF AND PUSH2 0x6CF JUMPI PUSH1 0x40 MLOAD PUSH32 0x8C379A000000000000000000000000000000000000000000000000000000000 DUP2 MSTORE PUSH1 0x4 ADD PUSH2 0x6C6 SWAP1 PUSH2 0x1B7D JUMP JUMPDEST PUSH1 0x40 MLOAD DUP1 SWAP2 SUB SWAP1 REVERT JUMPDEST PUSH1 0x1 DUP1 DUP4 DUP2 SLOAD DUP2 LT PUSH2 0x6E4 JUMPI PUSH2 0x6E3 PUSH2 0x1B9B JUMP JUMPDEST JUMPDEST SWAP1 PUSH0 MSTORE PUSH1 0x20 PUSH0 KECCAK256 SWAP1 PUSH1 0x6 MUL ADD PUSH1 0x4 ADD PUSH0 PUSH2 0x100 EXP DUP2 SLOAD DUP2 PUSH1 0xFF MUL NOT AND SWAP1 DUP4 ISZERO ISZERO MUL OR SWAP1 SSTORE POP DUP1 PUSH1 0x1 DUP4 DUP2 SLOAD DUP2 LT PUSH2 0x71E JUMPI PUSH2 0x71D PUSH2 0x1B9B JUMP JUMPDEST JUMPDEST SWAP1 PUSH0 MSTORE PUSH1 0x20 PUSH0 KECCAK256 SWAP1 PUSH1 0x6 MUL ADD PUSH1 0x4 ADD PUSH1 0x1 PUSH2 0x100 EXP DUP2 SLOAD DUP2 PUSH20 0xFFFFFFFFFFFFFFFFFFFFFFFFFFFFFFFFFFFFFFFF MUL NOT AND SWAP1 DUP4 PUSH20 0xFFFFFFFFFFFFFFFFFFFFFFFFFFFFFFFFFFFFFFFF AND MUL OR SWAP1 SSTORE POP PUSH1 0x1 PUSH1 0x6 PUSH0 DUP5 DUP2 MSTORE PUSH1 0x20 ADD SWAP1 DUP2 MSTORE PUSH1 0x20 ADD PUSH0 KECCAK256 PUSH0 PUSH2 0x100 EXP DUP2 SLOAD DUP2 PUSH1 0xFF MUL NOT AND SWAP1 DUP4 ISZERO ISZERO MUL OR SWAP1 SSTORE POP POP POP JUMP JUMPDEST PUSH1 0x6 PUSH1 0x20 MSTORE DUP1 PUSH0 MSTORE PUSH1 0x40 PUSH0 KECCAK256 PUSH0 SWAP2 POP SLOAD SWAP1 PUSH2 0x100 EXP SWAP1 DIV PUSH1 0xFF AND DUP2 JUMP JUMPDEST PUSH1 0x3 DUP2 DUP2 SLOAD DUP2 LT PUSH2 0x7C4 JUMPI PUSH0 DUP1 REVERT JUMPDEST SWAP1 PUSH0 MSTORE PUSH1 0x20 PUSH0 KECCAK256 SWAP1 PUSH1 0x2 MUL ADD PUSH0 SWAP2 POP SWAP1 POP DUP1 PUSH0 ADD DUP1 SLOAD PUSH2 0x7E3 SWAP1 PUSH2 0x1ADD JUMP JUMPDEST DUP1 PUSH1 0x1F ADD PUSH1 0x20 DUP1 SWAP2 DIV MUL PUSH1 0x20 ADD PUSH1 0x40 MLOAD SWAP1 DUP2 ADD PUSH1 0x40 MSTORE DUP1 SWAP3 SWAP2 SWAP1 DUP2 DUP2 MSTORE PUSH1 0x20 ADD DUP3 DUP1 SLOAD PUSH2 0x80F SWAP1 PUSH2 0x1ADD JUMP JUMPDEST DUP1 ISZERO PUSH2 0x85A JUMPI DUP1 PUSH1 0x1F LT PUSH2 0x831 JUMPI PUSH2 0x100 DUP1 DUP4 SLOAD DIV MUL DUP4 MSTORE SWAP2 PUSH1 0x20 ADD SWAP2 PUSH2 0x85A JUMP JUMPDEST DUP3 ADD SWAP2 SWAP1 PUSH0 MSTORE PUSH1 0x20 PUSH0 KECCAK256 SWAP1 JUMPDEST DUP2 SLOAD DUP2 MSTORE SWAP1 PUSH1 0x1 ADD SWAP1 PUSH1 0x20 ADD DUP1 DUP4 GT PUSH2 0x83D JUMPI DUP3 SWAP1 SUB PUSH1 0x1F AND DUP3 ADD SWAP2 JUMPDEST POP POP POP POP POP SWAP1 DUP1 PUSH1 0x1 ADD PUSH0 SWAP1 SLOAD SWAP1 PUSH2 0x100 EXP SWAP1 DIV PUSH20 0xFFFFFFFFFFFFFFFFFFFFFFFFFFFFFFFFFFFFFFFF AND SWAP1 POP DUP3 JUMP JUMPDEST PUSH1 0x2 PUSH1 0x40 MLOAD DUP1 PUSH1 0xE0 ADD PUSH1 0x40 MSTORE DUP1 DUP7 DUP2 MSTORE PUSH1 0x20 ADD DUP6 DUP2 MSTORE PUSH1 0x20 ADD DUP5 DUP2 MSTORE PUSH1 0x20 ADD DUP4 DUP2 MSTORE PUSH1 0x20 ADD PUSH0 ISZERO ISZERO DUP2 MSTORE PUSH1 0x20 ADD PUSH0 PUSH20 0xFFFFFFFFFFFFFFFFFFFFFFFFFFFFFFFFFFFFFFFF AND DUP2 MSTORE PUSH1 0x20 ADD CALLER PUSH20 0xFFFFFFFFFFFFFFFFFFFFFFFFFFFFFFFFFFFFFFFF AND DUP2 MSTORE POP SWAP1 DUP1 PUSH1 0x1 DUP2 SLOAD ADD DUP1 DUP3 SSTORE DUP1 SWAP2 POP POP PUSH1 0x1 SWAP1 SUB SWAP1 PUSH0 MSTORE PUSH1 0x20 PUSH0 KECCAK256 SWAP1 PUSH1 0x6 MUL ADD PUSH0 SWAP1 SWAP2 SWAP1 SWAP2 SWAP1 SWAP2 POP PUSH0 DUP3 ADD MLOAD DUP2 PUSH0 ADD SWAP1 DUP2 PUSH2 0x925 SWAP2 SWAP1 PUSH2 0x1D65 JUMP JUMPDEST POP PUSH1 0x20 DUP3 ADD MLOAD DUP2 PUSH1 0x1 ADD SWAP1 DUP2 PUSH2 0x93B SWAP2 SWAP1 PUSH2 0x1D65 JUMP JUMPDEST POP PUSH1 0x40 DUP3 ADD MLOAD DUP2 PUSH1 0x2 ADD SWAP1 DUP2 PUSH2 0x951 SWAP2 SWAP1 PUSH2 0x1D65 JUMP JUMPDEST POP PUSH1 0x60 DUP3 ADD MLOAD DUP2 PUSH1 0x3 ADD SWAP1 DUP2 PUSH2 0x967 SWAP2 SWAP1 PUSH2 0x1D65 JUMP JUMPDEST POP PUSH1 0x80 DUP3 ADD MLOAD DUP2 PUSH1 0x4 ADD PUSH0 PUSH2 0x100 EXP DUP2 SLOAD DUP2 PUSH1 0xFF MUL NOT AND SWAP1 DUP4 ISZERO ISZERO MUL OR SWAP1 SSTORE POP PUSH1 0xA0 DUP3 ADD MLOAD DUP2 PUSH1 0x4 ADD PUSH1 0x1 PUSH2 0x100 EXP DUP2 SLOAD DUP2 PUSH20 0xFFFFFFFFFFFFFFFFFFFFFFFFFFFFFFFFFFFFFFFF MUL NOT AND SWAP1 DUP4 PUSH20 0xFFFFFFFFFFFFFFFFFFFFFFFFFFFFFFFFFFFFFFFF AND MUL OR SWAP1 SSTORE POP PUSH1 0xC0 DUP3 ADD MLOAD DUP2 PUSH1 0x5 ADD PUSH0 PUSH2 0x100 EXP DUP2 SLOAD DUP2 PUSH20 0xFFFFFFFFFFFFFFFFFFFFFFFFFFFFFFFFFFFFFFFF MUL NOT AND SWAP1 DUP4 PUSH20 0xFFFFFFFFFFFFFFFFFFFFFFFFFFFFFFFFFFFFFFFF AND MUL OR SWAP1 SSTORE POP POP POP POP POP POP POP JUMP JUMPDEST PUSH1 0x5 PUSH0 CALLER PUSH20 0xFFFFFFFFFFFFFFFFFFFFFFFFFFFFFFFFFFFFFFFF AND PUSH20 0xFFFFFFFFFFFFFFFFFFFFFFFFFFFFFFFFFFFFFFFF AND DUP2 MSTORE PUSH1 0x20 ADD SWAP1 DUP2 MSTORE PUSH1 0x20 ADD PUSH0 KECCAK256 PUSH0 SWAP1 SLOAD SWAP1 PUSH2 0x100 EXP SWAP1 DIV PUSH1 0xFF AND PUSH2 0xAA5 JUMPI PUSH1 0x40 MLOAD PUSH32 0x8C379A000000000000000000000000000000000000000000000000000000000 DUP2 MSTORE PUSH1 0x4 ADD PUSH2 0xA9C SWAP1 PUSH2 0x1E7E JUMP JUMPDEST PUSH1 0x40 MLOAD DUP1 SWAP2 SUB SWAP1 REVERT JUMPDEST PUSH1 0x1 PUSH1 0x2 DUP4 DUP2 SLOAD DUP2 LT PUSH2 0xABB JUMPI PUSH2 0xABA PUSH2 0x1B9B JUMP JUMPDEST JUMPDEST SWAP1 PUSH0 MSTORE PUSH1 0x20 PUSH0 KECCAK256 SWAP1 PUSH1 0x6 MUL ADD PUSH1 0x4 ADD PUSH0 PUSH2 0x100 EXP DUP2 SLOAD DUP2 PUSH1 0xFF MUL NOT AND SWAP1 DUP4 ISZERO ISZERO MUL OR SWAP1 SSTORE POP DUP1 PUSH1 0x2 DUP4 DUP2 SLOAD DUP2 LT PUSH2 0xAF5 JUMPI PUSH2 0xAF4 PUSH2 0x1B9B JUMP JUMPDEST JUMPDEST SWAP1 PUSH0 MSTORE PUSH1 0x20 PUSH0 KECCAK256 SWAP1 PUSH1 0x6 MUL ADD PUSH1 0x4 ADD PUSH1 0x1 PUSH2 0x100 EXP DUP2 SLOAD DUP2 PUSH20 0xFFFFFFFFFFFFFFFFFFFFFFFFFFFFFFFFFFFFFFFF MUL NOT AND SWAP1 DUP4 PUSH20 0xFFFFFFFFFFFFFFFFFFFFFFFFFFFFFFFFFFFFFFFF AND MUL OR SWAP1 SSTORE POP PUSH1 0x1 PUSH1 0x7 PUSH0 DUP5 DUP2 MSTORE PUSH1 0x20 ADD SWAP1 DUP2 MSTORE PUSH1 0x20 ADD PUSH0 KECCAK256 PUSH0 PUSH2 0x100 EXP DUP2 SLOAD DUP2 PUSH1 0xFF MUL NOT AND SWAP1 DUP4 ISZERO ISZERO MUL OR SWAP1 SSTORE POP POP POP JUMP JUMPDEST PUSH1 0x8 PUSH0 SWAP1 SLOAD SWAP1 PUSH2 0x100 EXP SWAP1 DIV PUSH20 0xFFFFFFFFFFFFFFFFFFFFFFFFFFFFFFFFFFFFFFFF AND DUP2 JUMP JUMPDEST PUSH1 0x1 DUP2 DUP2 SLOAD DUP2 LT PUSH2 0xBA3 JUMPI PUSH0 DUP1 REVERT JUMPDEST SWAP1 PUSH0 MSTORE PUSH1 0x20 PUSH0 KECCAK256 SWAP1 PUSH1 0x6 MUL ADD PUSH0 SWAP2 POP SWAP1 POP DUP1 PUSH0 ADD DUP1 SLOAD PUSH2 0xBC2 SWAP1 PUSH2 0x1ADD JUMP JUMPDEST DUP1 PUSH1 0x1F ADD PUSH1 0x20 DUP1 SWAP2 DIV MUL PUSH1 0x20 ADD PUSH1 0x40 MLOAD SWAP1 DUP2 ADD PUSH1 0x40 MSTORE DUP1 SWAP3 SWAP2 SWAP1 DUP2 DUP2 MSTORE PUSH1 0x20 ADD DUP3 DUP1 SLOAD PUSH2 0xBEE SWAP1 PUSH2 0x1ADD JUMP JUMPDEST DUP1 ISZERO PUSH2 0xC39 JUMPI DUP1 PUSH1 0x1F LT PUSH2 0xC10 JUMPI PUSH2 0x100 DUP1 DUP4 SLOAD DIV MUL DUP4 MSTORE SWAP2 PUSH1 0x20 ADD SWAP2 PUSH2 0xC39 JUMP JUMPDEST DUP3 ADD SWAP2 SWAP1 PUSH0 MSTORE PUSH1 0x20 PUSH0 KECCAK256 SWAP1 JUMPDEST DUP2 SLOAD DUP2 MSTORE SWAP1 PUSH1 0x1 ADD SWAP1 PUSH1 0x20 ADD DUP1 DUP4 GT PUSH2 0xC1C JUMPI DUP3 SWAP1 SUB PUSH1 0x1F AND DUP3 ADD SWAP2 JUMPDEST POP POP POP POP POP SWAP1 DUP1 PUSH1 0x1 ADD DUP1 SLOAD PUSH2 0xC4E SWAP1 PUSH2 0x1ADD JUMP JUMPDEST DUP1 PUSH1 0x1F ADD PUSH1 0x20 DUP1 SWAP2 DIV MUL PUSH1 0x20 ADD PUSH1 0x40 MLOAD SWAP1 DUP2 ADD PUSH1 0x40 MSTORE DUP1 SWAP3 SWAP2 SWAP1 DUP2 DUP2 MSTORE PUSH1 0x20 ADD DUP3 DUP1 SLOAD PUSH2 0xC7A SWAP1 PUSH2 0x1ADD JUMP JUMPDEST DUP1 ISZERO PUSH2 0xCC5 JUMPI DUP1 PUSH1 0x1F LT PUSH2 0xC9C JUMPI PUSH2 0x100 DUP1 DUP4 SLOAD DIV MUL DUP4 MSTORE SWAP2 PUSH1 0x20 ADD SWAP2 PUSH2 0xCC5 JUMP JUMPDEST DUP3 ADD SWAP2 SWAP1 PUSH0 MSTORE PUSH1 0x20 PUSH0 KECCAK256 SWAP1 JUMPDEST DUP2 SLOAD DUP2 MSTORE SWAP1 PUSH1 0x1 ADD SWAP1 PUSH1 0x20 ADD DUP1 DUP4 GT PUSH2 0xCA8 JUMPI DUP3 SWAP1 SUB PUSH1 0x1F AND DUP3 ADD SWAP2 JUMPDEST POP POP POP POP POP SWAP1 DUP1 PUSH1 0x2 ADD DUP1 SLOAD PUSH2 0xCDA SWAP1 PUSH2 0x1ADD JUMP JUMPDEST DUP1 PUSH1 0x1F ADD PUSH1 0x20 DUP1 SWAP2 DIV MUL PUSH1 0x20 ADD PUSH1 0x40 MLOAD SWAP1 DUP2 ADD PUSH1 0x40 MSTORE DUP1 SWAP3 SWAP2 SWAP1 DUP2 DUP2 MSTORE PUSH1 0x20 ADD DUP3 DUP1 SLOAD PUSH2 0xD06 SWAP1 PUSH2 0x1ADD JUMP JUMPDEST DUP1 ISZERO PUSH2 0xD51 JUMPI DUP1 PUSH1 0x1F LT PUSH2 0xD28 JUMPI PUSH2 0x100 DUP1 DUP4 SLOAD DIV MUL DUP4 MSTORE SWAP2 PUSH1 0x20 ADD SWAP2 PUSH2 0xD51 JUMP JUMPDEST DUP3 ADD SWAP2 SWAP1 PUSH0 MSTORE PUSH1 0x20 PUSH0 KECCAK256 SWAP1 JUMPDEST DUP2 SLOAD DUP2 MSTORE SWAP1 PUSH1 0x1 ADD SWAP1 PUSH1 0x20 ADD DUP1 DUP4 GT PUSH2 0xD34 JUMPI DUP3 SWAP1 SUB PUSH1 0x1F AND DUP3 ADD SWAP2 JUMPDEST POP POP POP POP POP SWAP1 DUP1 PUSH1 0x3 ADD DUP1 SLOAD PUSH2 0xD66 SWAP1 PUSH2 0x1ADD JUMP JUMPDEST DUP1 PUSH1 0x1F ADD PUSH1 0x20 DUP1 SWAP2 DIV MUL PUSH1 0x20 ADD PUSH1 0x40 MLOAD SWAP1 DUP2 ADD PUSH1 0x40 MSTORE DUP1 SWAP3 SWAP2 SWAP1 DUP2 DUP2 MSTORE PUSH1 0x20 ADD DUP3 DUP1 SLOAD PUSH2 0xD92 SWAP1 PUSH2 0x1ADD JUMP JUMPDEST DUP1 ISZERO PUSH2 0xDDD JUMPI DUP1 PUSH1 0x1F LT PUSH2 0xDB4 JUMPI PUSH2 0x100 DUP1 DUP4 SLOAD DIV MUL DUP4 MSTORE SWAP2 PUSH1 0x20 ADD SWAP2 PUSH2 0xDDD JUMP JUMPDEST DUP3 ADD SWAP2 SWAP1 PUSH0 MSTORE PUSH1 0x20 PUSH0 KECCAK256 SWAP1 JUMPDEST DUP2 SLOAD DUP2 MSTORE SWAP1 PUSH1 0x1 ADD SWAP1 PUSH1 0x20 ADD DUP1 DUP4 GT PUSH2 0xDC0 JUMPI DUP3 SWAP1 SUB PUSH1 0x1F AND DUP3 ADD SWAP2 JUMPDEST POP POP POP POP POP SWAP1 DUP1 PUSH1 0x4 ADD PUSH0 SWAP1 SLOAD SWAP1 PUSH2 0x100 EXP SWAP1 DIV PUSH1 0xFF AND SWAP1 DUP1 PUSH1 0x4 ADD PUSH1 0x1 SWAP1 SLOAD SWAP1 PUSH2 0x100 EXP SWAP1 DIV PUSH20 0xFFFFFFFFFFFFFFFFFFFFFFFFFFFFFFFFFFFFFFFF AND SWAP1 DUP1 PUSH1 0x5 ADD PUSH0 SWAP1 SLOAD SWAP1 PUSH2 0x100 EXP SWAP1 DIV PUSH20 0xFFFFFFFFFFFFFFFFFFFFFFFFFFFFFFFFFFFFFFFF AND SWAP1 POP DUP8 JUMP JUMPDEST PUSH1 0x8 PUSH0 SWAP1 SLOAD SWAP1 PUSH2 0x100 EXP SWAP1 DIV PUSH20 0xFFFFFFFFFFFFFFFFFFFFFFFFFFFFFFFFFFFFFFFF AND PUSH20 0xFFFFFFFFFFFFFFFFFFFFFFFFFFFFFFFFFFFFFFFF AND CALLER PUSH20 0xFFFFFFFFFFFFFFFFFFFFFFFFFFFFFFFFFFFFFFFF AND EQ PUSH2 0xED3 JUMPI PUSH1 0x40 MLOAD PUSH32 0x8C379A000000000000000000000000000000000000000000000000000000000 DUP2 MSTORE PUSH1 0x4 ADD PUSH2 0xECA SWAP1 PUSH2 0x1F0C JUMP JUMPDEST PUSH1 0x40 MLOAD DUP1 SWAP2 SUB SWAP1 REVERT JUMPDEST PUSH1 0x3 PUSH1 0x40 MLOAD DUP1 PUSH1 0x40 ADD PUSH1 0x40 MSTORE DUP1 DUP5 DUP2 MSTORE PUSH1 0x20 ADD DUP4 PUSH20 0xFFFFFFFFFFFFFFFFFFFFFFFFFFFFFFFFFFFFFFFF AND DUP2 MSTORE POP SWAP1 DUP1 PUSH1 0x1 DUP2 SLOAD ADD DUP1 DUP3 SSTORE DUP1 SWAP2 POP POP PUSH1 0x1 SWAP1 SUB SWAP1 PUSH0 MSTORE PUSH1 0x20 PUSH0 KECCAK256 SWAP1 PUSH1 0x2 MUL ADD PUSH0 SWAP1 SWAP2 SWAP1 SWAP2 SWAP1 SWAP2 POP PUSH0 DUP3 ADD MLOAD DUP2 PUSH0 ADD SWAP1 DUP2 PUSH2 0xF39 SWAP2 SWAP1 PUSH2 0x1D65 JUMP JUMPDEST POP PUSH1 0x20 DUP3 ADD MLOAD DUP2 PUSH1 0x1 ADD PUSH0 PUSH2 0x100 EXP DUP2 SLOAD DUP2 PUSH20 0xFFFFFFFFFFFFFFFFFFFFFFFFFFFFFFFFFFFFFFFF MUL NOT AND SWAP1 DUP4 PUSH20 0xFFFFFFFFFFFFFFFFFFFFFFFFFFFFFFFFFFFFFFFF AND MUL OR SWAP1 SSTORE POP POP POP PUSH1 0x1 PUSH1 0x5 PUSH0 DUP4 PUSH20 0xFFFFFFFFFFFFFFFFFFFFFFFFFFFFFFFFFFFFFFFF AND PUSH20 0xFFFFFFFFFFFFFFFFFFFFFFFFFFFFFFFFFFFFFFFF AND DUP2 MSTORE PUSH1 0x20 ADD SWAP1 DUP2 MSTORE PUSH1 0x20 ADD PUSH0 KECCAK256 PUSH0 PUSH2 0x100 EXP DUP2 SLOAD DUP2 PUSH1 0xFF MUL NOT AND SWAP1 DUP4 ISZERO ISZERO MUL OR SWAP1 SSTORE POP POP POP JUMP JUMPDEST PUSH1 0x5 PUSH1 0x20 MSTORE DUP1 PUSH0 MSTORE PUSH1 0x40 PUSH0 KECCAK256 PUSH0 SWAP2 POP SLOAD SWAP1 PUSH2 0x100 EXP SWAP1 DIV PUSH1 0xFF AND DUP2 JUMP JUMPDEST PUSH1 0x1 DUP3 DUP2 SLOAD DUP2 LT PUSH2 0x100C JUMPI PUSH2 0x100B PUSH2 0x1B9B JUMP JUMPDEST JUMPDEST SWAP1 PUSH0 MSTORE PUSH1 0x20 PUSH0 KECCAK256 SWAP1 PUSH1 0x6 MUL ADD PUSH1 0x4 ADD PUSH0 SWAP1 SLOAD SWAP1 PUSH2 0x100 EXP SWAP1 DIV PUSH1 0xFF AND DUP1 ISZERO PUSH2 0x1060 JUMPI POP PUSH1 0x2 DUP2 DUP2 SLOAD DUP2 LT PUSH2 0x1043 JUMPI PUSH2 0x1042 PUSH2 0x1B9B JUMP JUMPDEST JUMPDEST SWAP1 PUSH0 MSTORE PUSH1 0x20 PUSH0 KECCAK256 SWAP1 PUSH1 0x6 MUL ADD PUSH1 0x4 ADD PUSH0 SWAP1 SLOAD SWAP1 PUSH2 0x100 EXP SWAP1 DIV PUSH1 0xFF AND JUMPDEST PUSH2 0x109F JUMPI PUSH1 0x40 MLOAD PUSH32 0x8C379A000000000000000000000000000000000000000000000000000000000 DUP2 MSTORE PUSH1 0x4 ADD PUSH2 0x1096 SWAP1 PUSH2 0x1F9A JUMP JUMPDEST PUSH1 0x40 MLOAD DUP1 SWAP2 SUB SWAP1 REVERT JUMPDEST PUSH1 0x5 PUSH0 CALLER PUSH20 0xFFFFFFFFFFFFFFFFFFFFFFFFFFFFFFFFFFFFFFFF AND PUSH20 0xFFFFFFFFFFFFFFFFFFFFFFFFFFFFFFFFFFFFFFFF AND DUP2 MSTORE PUSH1 0x20 ADD SWAP1 DUP2 MSTORE PUSH1 0x20 ADD PUSH0 KECCAK256 PUSH0 SWAP1 SLOAD SWAP1 PUSH2 0x100 EXP SWAP1 DIV PUSH1 0xFF AND PUSH2 0x1128 JUMPI PUSH1 0x40 MLOAD PUSH32 0x8C379A000000000000000000000000000000000000000000000000000000000 DUP2 MSTORE PUSH1 0x4 ADD PUSH2 0x111F SWAP1 PUSH2 0x2028 JUMP JUMPDEST PUSH1 0x40 MLOAD DUP1 SWAP2 SUB SWAP1 REVERT JUMPDEST PUSH1 0x1 DUP3 DUP2 SLOAD DUP2 LT PUSH2 0x113C JUMPI PUSH2 0x113B PUSH2 0x1B9B JUMP JUMPDEST JUMPDEST SWAP1 PUSH0 MSTORE PUSH1 0x20 PUSH0 KECCAK256 SWAP1 PUSH1 0x6 MUL ADD PUSH1 0x5 ADD PUSH0 SWAP1 SLOAD SWAP1 PUSH2 0x100 EXP SWAP1 DIV PUSH20 0xFFFFFFFFFFFFFFFFFFFFFFFFFFFFFFFFFFFFFFFF AND PUSH20 0xFFFFFFFFFFFFFFFFFFFFFFFFFFFFFFFFFFFFFFFF AND PUSH0 DUP1 SLOAD SWAP1 PUSH2 0x100 EXP SWAP1 DIV PUSH20 0xFFFFFFFFFFFFFFFFFFFFFFFFFFFFFFFFFFFFFFFF AND PUSH20 0xFFFFFFFFFFFFFFFFFFFFFFFFFFFFFFFFFFFFFFFF AND PUSH4 0x81812FC DUP4 PUSH1 0x40 MLOAD DUP3 PUSH4 0xFFFFFFFF AND PUSH1 0xE0 SHL DUP2 MSTORE PUSH1 0x4 ADD PUSH2 0x11D9 SWAP2 SWAP1 PUSH2 0x2046 JUMP JUMPDEST PUSH1 0x20 PUSH1 0x40 MLOAD DUP1 DUP4 SUB DUP2 DUP7 GAS STATICCALL ISZERO DUP1 ISZERO PUSH2 0x11F4 JUMPI RETURNDATASIZE PUSH0 DUP1 RETURNDATACOPY RETURNDATASIZE PUSH0 REVERT JUMPDEST POP POP POP POP PUSH1 0x40 MLOAD RETURNDATASIZE PUSH1 0x1F NOT PUSH1 0x1F DUP3 ADD AND DUP3 ADD DUP1 PUSH1 0x40 MSTORE POP DUP2 ADD SWAP1 PUSH2 0x1218 SWAP2 SWAP1 PUSH2 0x2073 JUMP JUMPDEST PUSH20 0xFFFFFFFFFFFFFFFFFFFFFFFFFFFFFFFFFFFFFFFF AND EQ PUSH2 0x126E JUMPI PUSH1 0x40 MLOAD PUSH32 0x8C379A000000000000000000000000000000000000000000000000000000000 DUP2 MSTORE PUSH1 0x4 ADD PUSH2 0x1265 SWAP1 PUSH2 0x20E8 JUMP JUMPDEST PUSH1 0x40 MLOAD DUP1 SWAP2 SUB SWAP1 REVERT JUMPDEST PUSH0 DUP1 SLOAD SWAP1 PUSH2 0x100 EXP SWAP1 DIV PUSH20 0xFFFFFFFFFFFFFFFFFFFFFFFFFFFFFFFFFFFFFFFF AND PUSH20 0xFFFFFFFFFFFFFFFFFFFFFFFFFFFFFFFFFFFFFFFF AND PUSH4 0x42842E0E PUSH1 0x2 DUP4 DUP2 SLOAD DUP2 LT PUSH2 0x12BD JUMPI PUSH2 0x12BC PUSH2 0x1B9B JUMP JUMPDEST JUMPDEST SWAP1 PUSH0 MSTORE PUSH1 0x20 PUSH0 KECCAK256 SWAP1 PUSH1 0x6 MUL ADD PUSH1 0x5 ADD PUSH0 SWAP1 SLOAD SWAP1 PUSH2 0x100 EXP SWAP1 DIV PUSH20 0xFFFFFFFFFFFFFFFFFFFFFFFFFFFFFFFFFFFFFFFF AND PUSH1 0x1 DUP6 DUP2 SLOAD DUP2 LT PUSH2 0x1300 JUMPI PUSH2 0x12FF PUSH2 0x1B9B JUMP JUMPDEST JUMPDEST SWAP1 PUSH0 MSTORE PUSH1 0x20 PUSH0 KECCAK256 SWAP1 PUSH1 0x6 MUL ADD PUSH1 0x5 ADD PUSH0 SWAP1 SLOAD SWAP1 PUSH2 0x100 EXP SWAP1 DIV PUSH20 0xFFFFFFFFFFFFFFFFFFFFFFFFFFFFFFFFFFFFFFFF AND DUP5 PUSH1 0x40 MLOAD DUP5 PUSH4 0xFFFFFFFF AND PUSH1 0xE0 SHL DUP2 MSTORE PUSH1 0x4 ADD PUSH2 0x134E SWAP4 SWAP3 SWAP2 SWAP1 PUSH2 0x2106 JUMP JUMPDEST PUSH0 PUSH1 0x40 MLOAD DUP1 DUP4 SUB DUP2 PUSH0 DUP8 DUP1 EXTCODESIZE ISZERO DUP1 ISZERO PUSH2 0x1365 JUMPI PUSH0 DUP1 REVERT JUMPDEST POP GAS CALL ISZERO DUP1 ISZERO PUSH2 0x1377 JUMPI RETURNDATASIZE PUSH0 DUP1 RETURNDATACOPY RETURNDATASIZE PUSH0 REVERT JUMPDEST POP POP POP POP POP POP JUMP JUMPDEST PUSH1 0x1 PUSH1 0x40 MLOAD DUP1 PUSH1 0xE0 ADD PUSH1 0x40 MSTORE DUP1 DUP7 DUP2 MSTORE PUSH1 0x20 ADD DUP6 DUP2 MSTORE PUSH1 0x20 ADD DUP5 DUP2 MSTORE PUSH1 0x20 ADD DUP4 DUP2 MSTORE PUSH1 0x20 ADD PUSH0 ISZERO ISZERO DUP2 MSTORE PUSH1 0x20 ADD PUSH0 PUSH20 0xFFFFFFFFFFFFFFFFFFFFFFFFFFFFFFFFFFFFFFFF AND DUP2 MSTORE PUSH1 0x20 ADD CALLER PUSH20 0xFFFFFFFFFFFFFFFFFFFFFFFFFFFFFFFFFFFFFFFF AND DUP2 MSTORE POP SWAP1 DUP1 PUSH1 0x1 DUP2 SLOAD ADD DUP1 DUP3 SSTORE DUP1 SWAP2 POP POP PUSH1 0x1 SWAP1 SUB SWAP1 PUSH0 MSTORE PUSH1 0x20 PUSH0 KECCAK256 SWAP1 PUSH1 0x6 MUL ADD PUSH0 SWAP1 SWAP2 SWAP1 SWAP2 SWAP1 SWAP2 POP PUSH0 DUP3 ADD MLOAD DUP2 PUSH0 ADD SWAP1 DUP2 PUSH2 0x141B SWAP2 SWAP1 PUSH2 0x1D65 JUMP JUMPDEST POP PUSH1 0x20 DUP3 ADD MLOAD DUP2 PUSH1 0x1 ADD SWAP1 DUP2 PUSH2 0x1431 SWAP2 SWAP1 PUSH2 0x1D65 JUMP JUMPDEST POP PUSH1 0x40 DUP3 ADD MLOAD DUP2 PUSH1 0x2 ADD SWAP1 DUP2 PUSH2 0x1447 SWAP2 SWAP1 PUSH2 0x1D65 JUMP JUMPDEST POP PUSH1 0x60 DUP3 ADD MLOAD DUP2 PUSH1 0x3 ADD SWAP1 DUP2 PUSH2 0x145D SWAP2 SWAP1 PUSH2 0x1D65 JUMP JUMPDEST POP PUSH1 0x80 DUP3 ADD MLOAD DUP2 PUSH1 0x4 ADD PUSH0 PUSH2 0x100 EXP DUP2 SLOAD DUP2 PUSH1 0xFF MUL NOT AND SWAP1 DUP4 ISZERO ISZERO MUL OR SWAP1 SSTORE POP PUSH1 0xA0 DUP3 ADD MLOAD DUP2 PUSH1 0x4 ADD PUSH1 0x1 PUSH2 0x100 EXP DUP2 SLOAD DUP2 PUSH20 0xFFFFFFFFFFFFFFFFFFFFFFFFFFFFFFFFFFFFFFFF MUL NOT AND SWAP1 DUP4 PUSH20 0xFFFFFFFFFFFFFFFFFFFFFFFFFFFFFFFFFFFFFFFF AND MUL OR SWAP1 SSTORE POP PUSH1 0xC0 DUP3 ADD MLOAD DUP2 PUSH1 0x5 ADD PUSH0 PUSH2 0x100 EXP DUP2 SLOAD DUP2 PUSH20 0xFFFFFFFFFFFFFFFFFFFFFFFFFFFFFFFFFFFFFFFF MUL NOT AND SWAP1 DUP4 PUSH20 0xFFFFFFFFFFFFFFFFFFFFFFFFFFFFFFFFFFFFFFFF AND MUL OR SWAP1 SSTORE POP POP POP POP POP POP POP JUMP JUMPDEST PUSH0 PUSH1 0x40 MLOAD SWAP1 POP SWAP1 JUMP JUMPDEST PUSH0 DUP1 REVERT JUMPDEST PUSH0 DUP1 REVERT JUMPDEST PUSH0 DUP2 SWAP1 POP SWAP2 SWAP1 POP JUMP JUMPDEST PUSH2 0x1535 DUP2 PUSH2 0x1523 JUMP JUMPDEST DUP2 EQ PUSH2 0x153F JUMPI PUSH0 DUP1 REVERT JUMPDEST POP JUMP JUMPDEST PUSH0 DUP2 CALLDATALOAD SWAP1 POP PUSH2 0x1550 DUP2 PUSH2 0x152C JUMP JUMPDEST SWAP3 SWAP2 POP POP JUMP JUMPDEST PUSH0 PUSH1 0x20 DUP3 DUP5 SUB SLT ISZERO PUSH2 0x156B JUMPI PUSH2 0x156A PUSH2 0x151B JUMP JUMPDEST JUMPDEST PUSH0 PUSH2 0x1578 DUP5 DUP3 DUP6 ADD PUSH2 0x1542 JUMP JUMPDEST SWAP2 POP POP SWAP3 SWAP2 POP POP JUMP JUMPDEST PUSH0 DUP2 ISZERO ISZERO SWAP1 POP SWAP2 SWAP1 POP JUMP JUMPDEST PUSH2 0x1595 DUP2 PUSH2 0x1581 JUMP JUMPDEST DUP3 MSTORE POP POP JUMP JUMPDEST PUSH0 PUSH1 0x20 DUP3 ADD SWAP1 POP PUSH2 0x15AE PUSH0 DUP4 ADD DUP5 PUSH2 0x158C JUMP JUMPDEST SWAP3 SWAP2 POP POP JUMP JUMPDEST PUSH2 0x15BD DUP2 PUSH2 0x1523 JUMP JUMPDEST DUP3 MSTORE POP POP JUMP JUMPDEST PUSH0 PUSH20 0xFFFFFFFFFFFFFFFFFFFFFFFFFFFFFFFFFFFFFFFF DUP3 AND SWAP1 POP SWAP2 SWAP1 POP JUMP JUMPDEST PUSH0 PUSH2 0x15EC DUP3 PUSH2 0x15C3 JUMP JUMPDEST SWAP1 POP SWAP2 SWAP1 POP JUMP JUMPDEST PUSH2 0x15FC DUP2 PUSH2 0x15E2 JUMP JUMPDEST DUP3 MSTORE POP POP JUMP JUMPDEST PUSH0 PUSH1 0x80 DUP3 ADD SWAP1 POP PUSH2 0x1615 PUSH0 DUP4 ADD DUP8 PUSH2 0x15B4 JUMP JUMPDEST PUSH2 0x1622 PUSH1 0x20 DUP4 ADD DUP7 PUSH2 0x15B4 JUMP JUMPDEST PUSH2 0x162F PUSH1 0x40 DUP4 ADD DUP6 PUSH2 0x15F3 JUMP JUMPDEST PUSH2 0x163C PUSH1 0x60 DUP4 ADD DUP5 PUSH2 0x158C JUMP JUMPDEST SWAP6 SWAP5 POP POP POP POP POP JUMP JUMPDEST PUSH0 DUP2 MLOAD SWAP1 POP SWAP2 SWAP1 POP JUMP JUMPDEST PUSH0 DUP3 DUP3 MSTORE PUSH1 0x20 DUP3 ADD SWAP1 POP SWAP3 SWAP2 POP POP JUMP JUMPDEST DUP3 DUP2 DUP4 MCOPY PUSH0 DUP4 DUP4 ADD MSTORE POP POP POP JUMP JUMPDEST PUSH0 PUSH1 0x1F NOT PUSH1 0x1F DUP4 ADD AND SWAP1 POP SWAP2 SWAP1 POP JUMP JUMPDEST PUSH0 PUSH2 0x1687 DUP3 PUSH2 0x1645 JUMP JUMPDEST PUSH2 0x1691 DUP2 DUP6 PUSH2 0x164F JUMP JUMPDEST SWAP4 POP PUSH2 0x16A1 DUP2 DUP6 PUSH1 0x20 DUP7 ADD PUSH2 0x165F JUMP JUMPDEST PUSH2 0x16AA DUP2 PUSH2 0x166D JUMP JUMPDEST DUP5 ADD SWAP2 POP POP SWAP3 SWAP2 POP POP JUMP JUMPDEST PUSH0 PUSH1 0xE0 DUP3 ADD SWAP1 POP DUP2 DUP2 SUB PUSH0 DUP4 ADD MSTORE PUSH2 0x16CD DUP2 DUP11 PUSH2 0x167D JUMP JUMPDEST SWAP1 POP DUP2 DUP2 SUB PUSH1 0x20 DUP4 ADD MSTORE PUSH2 0x16E1 DUP2 DUP10 PUSH2 0x167D JUMP JUMPDEST SWAP1 POP DUP2 DUP2 SUB PUSH1 0x40 DUP4 ADD MSTORE PUSH2 0x16F5 DUP2 DUP9 PUSH2 0x167D JUMP JUMPDEST SWAP1 POP DUP2 DUP2 SUB PUSH1 0x60 DUP4 ADD MSTORE PUSH2 0x1709 DUP2 DUP8 PUSH2 0x167D JUMP JUMPDEST SWAP1 POP PUSH2 0x1718 PUSH1 0x80 DUP4 ADD DUP7 PUSH2 0x158C JUMP JUMPDEST PUSH2 0x1725 PUSH1 0xA0 DUP4 ADD DUP6 PUSH2 0x15F3 JUMP JUMPDEST PUSH2 0x1732 PUSH1 0xC0 DUP4 ADD DUP5 PUSH2 0x15F3 JUMP JUMPDEST SWAP9 SWAP8 POP POP POP POP POP POP POP POP JUMP JUMPDEST PUSH2 0x1747 DUP2 PUSH2 0x15E2 JUMP JUMPDEST DUP2 EQ PUSH2 0x1751 JUMPI PUSH0 DUP1 REVERT JUMPDEST POP JUMP JUMPDEST PUSH0 DUP2 CALLDATALOAD SWAP1 POP PUSH2 0x1762 DUP2 PUSH2 0x173E JUMP JUMPDEST SWAP3 SWAP2 POP POP JUMP JUMPDEST PUSH0 DUP1 PUSH1 0x40 DUP4 DUP6 SUB SLT ISZERO PUSH2 0x177E JUMPI PUSH2 0x177D PUSH2 0x151B JUMP JUMPDEST JUMPDEST PUSH0 PUSH2 0x178B DUP6 DUP3 DUP7 ADD PUSH2 0x1542 JUMP JUMPDEST SWAP3 POP POP PUSH1 0x20 PUSH2 0x179C DUP6 DUP3 DUP7 ADD PUSH2 0x1754 JUMP JUMPDEST SWAP2 POP POP SWAP3 POP SWAP3 SWAP1 POP JUMP JUMPDEST PUSH0 PUSH1 0x40 DUP3 ADD SWAP1 POP DUP2 DUP2 SUB PUSH0 DUP4 ADD MSTORE PUSH2 0x17BE DUP2 DUP6 PUSH2 0x167D JUMP JUMPDEST SWAP1 POP PUSH2 0x17CD PUSH1 0x20 DUP4 ADD DUP5 PUSH2 0x15F3 JUMP JUMPDEST SWAP4 SWAP3 POP POP POP JUMP JUMPDEST PUSH0 DUP1 REVERT JUMPDEST PUSH0 DUP1 REVERT JUMPDEST PUSH32 0x4E487B7100000000000000000000000000000000000000000000000000000000 PUSH0 MSTORE PUSH1 0x41 PUSH1 0x4 MSTORE PUSH1 0x24 PUSH0 REVERT JUMPDEST PUSH2 0x1812 DUP3 PUSH2 0x166D JUMP JUMPDEST DUP2 ADD DUP2 DUP2 LT PUSH8 0xFFFFFFFFFFFFFFFF DUP3 GT OR ISZERO PUSH2 0x1831 JUMPI PUSH2 0x1830 PUSH2 0x17DC JUMP JUMPDEST JUMPDEST DUP1 PUSH1 0x40 MSTORE POP POP POP JUMP JUMPDEST PUSH0 PUSH2 0x1843 PUSH2 0x1512 JUMP JUMPDEST SWAP1 POP PUSH2 0x184F DUP3 DUP3 PUSH2 0x1809 JUMP JUMPDEST SWAP2 SWAP1 POP JUMP JUMPDEST PUSH0 PUSH8 0xFFFFFFFFFFFFFFFF DUP3 GT ISZERO PUSH2 0x186E JUMPI PUSH2 0x186D PUSH2 0x17DC JUMP JUMPDEST JUMPDEST PUSH2 0x1877 DUP3 PUSH2 0x166D JUMP JUMPDEST SWAP1 POP PUSH1 0x20 DUP2 ADD SWAP1 POP SWAP2 SWAP1 POP JUMP JUMPDEST DUP3 DUP2 DUP4 CALLDATACOPY PUSH0 DUP4 DUP4 ADD MSTORE POP POP POP JUMP JUMPDEST PUSH0 PUSH2 0x18A4 PUSH2 0x189F DUP5 PUSH2 0x1854 JUMP JUMPDEST PUSH2 0x183A JUMP JUMPDEST SWAP1 POP DUP3 DUP2 MSTORE PUSH1 0x20 DUP2 ADD DUP5 DUP5 DUP5 ADD GT ISZERO PUSH2 0x18C0 JUMPI PUSH2 0x18BF PUSH2 0x17D8 JUMP JUMPDEST JUMPDEST PUSH2 0x18CB DUP5 DUP3 DUP6 PUSH2 0x1884 JUMP JUMPDEST POP SWAP4 SWAP3 POP POP POP JUMP JUMPDEST PUSH0 DUP3 PUSH1 0x1F DUP4 ADD SLT PUSH2 0x18E7 JUMPI PUSH2 0x18E6 PUSH2 0x17D4 JUMP JUMPDEST JUMPDEST DUP2 CALLDATALOAD PUSH2 0x18F7 DUP5 DUP3 PUSH1 0x20 DUP7 ADD PUSH2 0x1892 JUMP JUMPDEST SWAP2 POP POP SWAP3 SWAP2 POP POP JUMP JUMPDEST PUSH0 DUP1 PUSH0 DUP1 PUSH1 0x80 DUP6 DUP8 SUB SLT ISZERO PUSH2 0x1918 JUMPI PUSH2 0x1917 PUSH2 0x151B JUMP JUMPDEST JUMPDEST PUSH0 DUP6 ADD CALLDATALOAD PUSH8 0xFFFFFFFFFFFFFFFF DUP2 GT ISZERO PUSH2 0x1935 JUMPI PUSH2 0x1934 PUSH2 0x151F JUMP JUMPDEST JUMPDEST PUSH2 0x1941 DUP8 DUP3 DUP9 ADD PUSH2 0x18D3 JUMP JUMPDEST SWAP5 POP POP PUSH1 0x20 DUP6 ADD CALLDATALOAD PUSH8 0xFFFFFFFFFFFFFFFF DUP2 GT ISZERO PUSH2 0x1962 JUMPI PUSH2 0x1961 PUSH2 0x151F JUMP JUMPDEST JUMPDEST PUSH2 0x196E DUP8 DUP3 DUP9 ADD PUSH2 0x18D3 JUMP JUMPDEST SWAP4 POP POP PUSH1 0x40 DUP6 ADD CALLDATALOAD PUSH8 0xFFFFFFFFFFFFFFFF DUP2 GT ISZERO PUSH2 0x198F JUMPI PUSH2 0x198E PUSH2 0x151F JUMP JUMPDEST JUMPDEST PUSH2 0x199B DUP8 DUP3 DUP9 ADD PUSH2 0x18D3 JUMP JUMPDEST SWAP3 POP POP PUSH1 0x60 DUP6 ADD CALLDATALOAD PUSH8 0xFFFFFFFFFFFFFFFF DUP2 GT ISZERO PUSH2 0x19BC JUMPI PUSH2 0x19BB PUSH2 0x151F JUMP JUMPDEST JUMPDEST PUSH2 0x19C8 DUP8 DUP3 DUP9 ADD PUSH2 0x18D3 JUMP JUMPDEST SWAP2 POP POP SWAP3 SWAP6 SWAP2 SWAP5 POP SWAP3 POP JUMP JUMPDEST PUSH0 PUSH1 0x20 DUP3 ADD SWAP1 POP PUSH2 0x19E7 PUSH0 DUP4 ADD DUP5 PUSH2 0x15F3 JUMP JUMPDEST SWAP3 SWAP2 POP POP JUMP JUMPDEST PUSH0 DUP1 PUSH1 0x40 DUP4 DUP6 SUB SLT ISZERO PUSH2 0x1A03 JUMPI PUSH2 0x1A02 PUSH2 0x151B JUMP JUMPDEST JUMPDEST PUSH0 DUP4 ADD CALLDATALOAD PUSH8 0xFFFFFFFFFFFFFFFF DUP2 GT ISZERO PUSH2 0x1A20 JUMPI PUSH2 0x1A1F PUSH2 0x151F JUMP JUMPDEST JUMPDEST PUSH2 0x1A2C DUP6 DUP3 DUP7 ADD PUSH2 0x18D3 JUMP JUMPDEST SWAP3 POP POP PUSH1 0x20 PUSH2 0x1A3D DUP6 DUP3 DUP7 ADD PUSH2 0x1754 JUMP JUMPDEST SWAP2 POP POP SWAP3 POP SWAP3 SWAP1 POP JUMP JUMPDEST PUSH0 PUSH1 0x20 DUP3 DUP5 SUB SLT ISZERO PUSH2 0x1A5C JUMPI PUSH2 0x1A5B PUSH2 0x151B JUMP JUMPDEST JUMPDEST PUSH0 PUSH2 0x1A69 DUP5 DUP3 DUP6 ADD PUSH2 0x1754 JUMP JUMPDEST SWAP2 POP POP SWAP3 SWAP2 POP POP JUMP JUMPDEST PUSH0 DUP1 PUSH1 0x40 DUP4 DUP6 SUB SLT ISZERO PUSH2 0x1A88 JUMPI PUSH2 0x1A87 PUSH2 0x151B JUMP JUMPDEST JUMPDEST PUSH0 PUSH2 0x1A95 DUP6 DUP3 DUP7 ADD PUSH2 0x1542 JUMP JUMPDEST SWAP3 POP POP PUSH1 0x20 PUSH2 0x1AA6 DUP6 DUP3 DUP7 ADD PUSH2 0x1542 JUMP JUMPDEST SWAP2 POP POP SWAP3 POP SWAP3 SWAP1 POP JUMP JUMPDEST PUSH32 0x4E487B7100000000000000000000000000000000000000000000000000000000 PUSH0 MSTORE PUSH1 0x22 PUSH1 0x4 MSTORE PUSH1 0x24 PUSH0 REVERT JUMPDEST PUSH0 PUSH1 0x2 DUP3 DIV SWAP1 POP PUSH1 0x1 DUP3 AND DUP1 PUSH2 0x1AF4 JUMPI PUSH1 0x7F DUP3 AND SWAP2 POP JUMPDEST PUSH1 0x20 DUP3 LT DUP2 SUB PUSH2 0x1B07 JUMPI PUSH2 0x1B06 PUSH2 0x1AB0 JUMP JUMPDEST JUMPDEST POP SWAP2 SWAP1 POP JUMP JUMPDEST PUSH32 0x4F6E6C7920646F63746F72732063616E20617070726F76652070617469656E74 PUSH0 DUP3 ADD MSTORE PUSH32 0x732E000000000000000000000000000000000000000000000000000000000000 PUSH1 0x20 DUP3 ADD MSTORE POP JUMP JUMPDEST PUSH0 PUSH2 0x1B67 PUSH1 0x22 DUP4 PUSH2 0x164F JUMP JUMPDEST SWAP2 POP PUSH2 0x1B72 DUP3 PUSH2 0x1B0D JUMP JUMPDEST PUSH1 0x40 DUP3 ADD SWAP1 POP SWAP2 SWAP1 POP JUMP JUMPDEST PUSH0 PUSH1 0x20 DUP3 ADD SWAP1 POP DUP2 DUP2 SUB PUSH0 DUP4 ADD MSTORE PUSH2 0x1B94 DUP2 PUSH2 0x1B5B JUMP JUMPDEST SWAP1 POP SWAP2 SWAP1 POP JUMP JUMPDEST PUSH32 0x4E487B7100000000000000000000000000000000000000000000000000000000 PUSH0 MSTORE PUSH1 0x32 PUSH1 0x4 MSTORE PUSH1 0x24 PUSH0 REVERT JUMPDEST PUSH0 DUP2 SWAP1 POP DUP2 PUSH0 MSTORE PUSH1 0x20 PUSH0 KECCAK256 SWAP1 POP SWAP2 SWAP1 POP JUMP JUMPDEST PUSH0 PUSH1 0x20 PUSH1 0x1F DUP4 ADD DIV SWAP1 POP SWAP2 SWAP1 POP JUMP JUMPDEST PUSH0 DUP3 DUP3 SHL SWAP1 POP SWAP3 SWAP2 POP POP JUMP JUMPDEST PUSH0 PUSH1 0x8 DUP4 MUL PUSH2 0x1C24 PUSH32 0xFFFFFFFFFFFFFFFFFFFFFFFFFFFFFFFFFFFFFFFFFFFFFFFFFFFFFFFFFFFFFFFF DUP3 PUSH2 0x1BE9 JUMP JUMPDEST PUSH2 0x1C2E DUP7 DUP4 PUSH2 0x1BE9 JUMP JUMPDEST SWAP6 POP DUP1 NOT DUP5 AND SWAP4 POP DUP1 DUP7 AND DUP5 OR SWAP3 POP POP POP SWAP4 SWAP3 POP POP POP JUMP JUMPDEST PUSH0 DUP2 SWAP1 POP SWAP2 SWAP1 POP JUMP JUMPDEST PUSH0 PUSH2 0x1C69 PUSH2 0x1C64 PUSH2 0x1C5F DUP5 PUSH2 0x1523 JUMP JUMPDEST PUSH2 0x1C46 JUMP JUMPDEST PUSH2 0x1523 JUMP JUMPDEST SWAP1 POP SWAP2 SWAP1 POP JUMP JUMPDEST PUSH0 DUP2 SWAP1 POP SWAP2 SWAP1 POP JUMP JUMPDEST PUSH2 0x1C82 DUP4 PUSH2 0x1C4F JUMP JUMPDEST PUSH2 0x1C96 PUSH2 0x1C8E DUP3 PUSH2 0x1C70 JUMP JUMPDEST DUP5 DUP5 SLOAD PUSH2 0x1BF5 JUMP JUMPDEST DUP3 SSTORE POP POP POP POP JUMP JUMPDEST PUSH0 SWAP1 JUMP JUMPDEST PUSH2 0x1CAA PUSH2 0x1C9E JUMP JUMPDEST PUSH2 0x1CB5 DUP2 DUP5 DUP5 PUSH2 0x1C79 JUMP JUMPDEST POP POP POP JUMP JUMPDEST JUMPDEST DUP2 DUP2 LT ISZERO PUSH2 0x1CD8 JUMPI PUSH2 0x1CCD PUSH0 DUP3 PUSH2 0x1CA2 JUMP JUMPDEST PUSH1 0x1 DUP2 ADD SWAP1 POP PUSH2 0x1CBB JUMP JUMPDEST POP POP JUMP JUMPDEST PUSH1 0x1F DUP3 GT ISZERO PUSH2 0x1D1D JUMPI PUSH2 0x1CEE DUP2 PUSH2 0x1BC8 JUMP JUMPDEST PUSH2 0x1CF7 DUP5 PUSH2 0x1BDA JUMP JUMPDEST DUP2 ADD PUSH1 0x20 DUP6 LT ISZERO PUSH2 0x1D06 JUMPI DUP2 SWAP1 POP JUMPDEST PUSH2 0x1D1A PUSH2 0x1D12 DUP6 PUSH2 0x1BDA JUMP JUMPDEST DUP4 ADD DUP3 PUSH2 0x1CBA JUMP JUMPDEST POP POP JUMPDEST POP POP POP JUMP JUMPDEST PUSH0 DUP3 DUP3 SHR SWAP1 POP SWAP3 SWAP2 POP POP JUMP JUMPDEST PUSH0 PUSH2 0x1D3D PUSH0 NOT DUP5 PUSH1 0x8 MUL PUSH2 0x1D22 JUMP JUMPDEST NOT DUP1 DUP4 AND SWAP2 POP POP SWAP3 SWAP2 POP POP JUMP JUMPDEST PUSH0 PUSH2 0x1D55 DUP4 DUP4 PUSH2 0x1D2E JUMP JUMPDEST SWAP2 POP DUP3 PUSH1 0x2 MUL DUP3 OR SWAP1 POP SWAP3 SWAP2 POP POP JUMP JUMPDEST PUSH2 0x1D6E DUP3 PUSH2 0x1645 JUMP JUMPDEST PUSH8 0xFFFFFFFFFFFFFFFF DUP2 GT ISZERO PUSH2 0x1D87 JUMPI PUSH2 0x1D86 PUSH2 0x17DC JUMP JUMPDEST JUMPDEST PUSH2 0x1D91 DUP3 SLOAD PUSH2 0x1ADD JUMP JUMPDEST PUSH2 0x1D9C DUP3 DUP3 DUP6 PUSH2 0x1CDC JUMP JUMPDEST PUSH0 PUSH1 0x20 SWAP1 POP PUSH1 0x1F DUP4 GT PUSH1 0x1 DUP2 EQ PUSH2 0x1DCD JUMPI PUSH0 DUP5 ISZERO PUSH2 0x1DBB JUMPI DUP3 DUP8 ADD MLOAD SWAP1 POP JUMPDEST PUSH2 0x1DC5 DUP6 DUP3 PUSH2 0x1D4A JUMP JUMPDEST DUP7 SSTORE POP PUSH2 0x1E2C JUMP JUMPDEST PUSH1 0x1F NOT DUP5 AND PUSH2 0x1DDB DUP7 PUSH2 0x1BC8 JUMP JUMPDEST PUSH0 JUMPDEST DUP3 DUP2 LT ISZERO PUSH2 0x1E02 JUMPI DUP5 DUP10 ADD MLOAD DUP3 SSTORE PUSH1 0x1 DUP3 ADD SWAP2 POP PUSH1 0x20 DUP6 ADD SWAP5 POP PUSH1 0x20 DUP2 ADD SWAP1 POP PUSH2 0x1DDD JUMP JUMPDEST DUP7 DUP4 LT ISZERO PUSH2 0x1E1F JUMPI DUP5 DUP10 ADD MLOAD PUSH2 0x1E1B PUSH1 0x1F DUP10 AND DUP3 PUSH2 0x1D2E JUMP JUMPDEST DUP4 SSTORE POP JUMPDEST PUSH1 0x1 PUSH1 0x2 DUP9 MUL ADD DUP9 SSTORE POP POP POP JUMPDEST POP POP POP POP POP POP JUMP JUMPDEST PUSH32 0x4F6E6C7920646F63746F72732063616E20617070726F766520646F6E6F72732E PUSH0 DUP3 ADD MSTORE POP JUMP JUMPDEST PUSH0 PUSH2 0x1E68 PUSH1 0x20 DUP4 PUSH2 0x164F JUMP JUMPDEST SWAP2 POP PUSH2 0x1E73 DUP3 PUSH2 0x1E34 JUMP JUMPDEST PUSH1 0x20 DUP3 ADD SWAP1 POP SWAP2 SWAP1 POP JUMP JUMPDEST PUSH0 PUSH1 0x20 DUP3 ADD SWAP1 POP DUP2 DUP2 SUB PUSH0 DUP4 ADD MSTORE PUSH2 0x1E95 DUP2 PUSH2 0x1E5C JUMP JUMPDEST SWAP1 POP SWAP2 SWAP1 POP JUMP JUMPDEST PUSH32 0x4F6E6C79206F776E65722063616E2063616C6C20746869732066756E6374696F PUSH0 DUP3 ADD MSTORE PUSH32 0x6E2E000000000000000000000000000000000000000000000000000000000000 PUSH1 0x20 DUP3 ADD MSTORE POP JUMP JUMPDEST PUSH0 PUSH2 0x1EF6 PUSH1 0x22 DUP4 PUSH2 0x164F JUMP JUMPDEST SWAP2 POP PUSH2 0x1F01 DUP3 PUSH2 0x1E9C JUMP JUMPDEST PUSH1 0x40 DUP3 ADD SWAP1 POP SWAP2 SWAP1 POP JUMP JUMPDEST PUSH0 PUSH1 0x20 DUP3 ADD SWAP1 POP DUP2 DUP2 SUB PUSH0 DUP4 ADD MSTORE PUSH2 0x1F23 DUP2 PUSH2 0x1EEA JUMP JUMPDEST SWAP1 POP SWAP2 SWAP1 POP JUMP JUMPDEST PUSH32 0x426F74682070617469656E7420616E6420646F6E6F72206D7573742062652061 PUSH0 DUP3 ADD MSTORE PUSH32 0x7070726F7665642E000000000000000000000000000000000000000000000000 PUSH1 0x20 DUP3 ADD MSTORE POP JUMP JUMPDEST PUSH0 PUSH2 0x1F84 PUSH1 0x28 DUP4 PUSH2 0x164F JUMP JUMPDEST SWAP2 POP PUSH2 0x1F8F DUP3 PUSH2 0x1F2A JUMP JUMPDEST PUSH1 0x40 DUP3 ADD SWAP1 POP SWAP2 SWAP1 POP JUMP JUMPDEST PUSH0 PUSH1 0x20 DUP3 ADD SWAP1 POP DUP2 DUP2 SUB PUSH0 DUP4 ADD MSTORE PUSH2 0x1FB1 DUP2 PUSH2 0x1F78 JUMP JUMPDEST SWAP1 POP SWAP2 SWAP1 POP JUMP JUMPDEST PUSH32 0x4F6E6C7920646F63746F72732063616E20617070726F7665207472616E73706C PUSH0 DUP3 ADD MSTORE PUSH32 0x616E742E00000000000000000000000000000000000000000000000000000000 PUSH1 0x20 DUP3 ADD MSTORE POP JUMP JUMPDEST PUSH0 PUSH2 0x2012 PUSH1 0x24 DUP4 PUSH2 0x164F JUMP JUMPDEST SWAP2 POP PUSH2 0x201D DUP3 PUSH2 0x1FB8 JUMP JUMPDEST PUSH1 0x40 DUP3 ADD SWAP1 POP SWAP2 SWAP1 POP JUMP JUMPDEST PUSH0 PUSH1 0x20 DUP3 ADD SWAP1 POP DUP2 DUP2 SUB PUSH0 DUP4 ADD MSTORE PUSH2 0x203F DUP2 PUSH2 0x2006 JUMP JUMPDEST SWAP1 POP SWAP2 SWAP1 POP JUMP JUMPDEST PUSH0 PUSH1 0x20 DUP3 ADD SWAP1 POP PUSH2 0x2059 PUSH0 DUP4 ADD DUP5 PUSH2 0x15B4 JUMP JUMPDEST SWAP3 SWAP2 POP POP JUMP JUMPDEST PUSH0 DUP2 MLOAD SWAP1 POP PUSH2 0x206D DUP2 PUSH2 0x173E JUMP JUMPDEST SWAP3 SWAP2 POP POP JUMP JUMPDEST PUSH0 PUSH1 0x20 DUP3 DUP5 SUB SLT ISZERO PUSH2 0x2088 JUMPI PUSH2 0x2087 PUSH2 0x151B JUMP JUMPDEST JUMPDEST PUSH0 PUSH2 0x2095 DUP5 DUP3 DUP6 ADD PUSH2 0x205F JUMP JUMPDEST SWAP2 POP POP SWAP3 SWAP2 POP POP JUMP JUMPDEST PUSH32 0x446F6E6F72206D75737420617070726F7665207472616E736665722E00000000 PUSH0 DUP3 ADD MSTORE POP JUMP JUMPDEST PUSH0 PUSH2 0x20D2 PUSH1 0x1C DUP4 PUSH2 0x164F JUMP JUMPDEST SWAP2 POP PUSH2 0x20DD DUP3 PUSH2 0x209E JUMP JUMPDEST PUSH1 0x20 DUP3 ADD SWAP1 POP SWAP2 SWAP1 POP JUMP JUMPDEST PUSH0 PUSH1 0x20 DUP3 ADD SWAP1 POP DUP2 DUP2 SUB PUSH0 DUP4 ADD MSTORE PUSH2 0x20FF DUP2 PUSH2 0x20C6 JUMP JUMPDEST SWAP1 POP SWAP2 SWAP1 POP JUMP JUMPDEST PUSH0 PUSH1 0x60 DUP3 ADD SWAP1 POP PUSH2 0x2119 PUSH0 DUP4 ADD DUP7 PUSH2 0x15F3 JUMP JUMPDEST PUSH2 0x2126 PUSH1 0x20 DUP4 ADD DUP6 PUSH2 0x15F3 JUMP JUMPDEST PUSH2 0x2133 PUSH1 0x40 DUP4 ADD DUP5 PUSH2 0x15B4 JUMP JUMPDEST SWAP5 SWAP4 POP POP POP POP JUMP INVALID LOG2 PUSH5 0x6970667358 0x22 SLT KECCAK256 POP SLOAD 0x24 MSIZE CALLCODE 0xEF 0xD3 0xDF SWAP4 SDIV 0xB0 PUSH13 0x4CFF94C9DFA6565800B2F9298E 0x4D 0xEA 0xD2 0xAB SIGNEXTEND 0xCB PUSH13 0x64736F6C634300081A00330000 "
		},
		"gasEstimates": {
			"creation": {
				"codeDepositCost": "1712200",
				"executionCost": "infinite",
				"totalCost": "infinite"
			},
			"external": {
				"addDoctor(string,address)": "infinite",
				"addDonor(string,string,string,string)": "infinite",
				"addPatient(string,string,string,string)": "infinite",
				"approveDonor(uint256,address)": "80197",
				"approvePatient(uint256,address)": "80197",
				"doctors(uint256)": "infinite",
				"donors(uint256)": "infinite",
				"isDoctor(address)": "2877",
				"isDonorApproved(uint256)": "2809",
				"isPatientApproved(uint256)": "2830",
				"owner()": "2553",
				"patients(uint256)": "infinite",
				"transferNFT(uint256,uint256)": "infinite",
				"transplants(uint256)": "infinite"
			}
		},
		"methodIdentifiers": {
			"addDoctor(string,address)": "958b80c2",
			"addDonor(string,string,string,string)": "756ecf13",
			"addPatient(string,string,string,string)": "ff8e704f",
			"approveDonor(uint256,address)": "77942c6e",
			"approvePatient(uint256,address)": "4b1cfea8",
			"doctors(uint256)": "6efb1b84",
			"donors(uint256)": "4abfa163",
			"isDoctor(address)": "996440c6",
			"isDonorApproved(uint256)": "0246220b",
			"isPatientApproved(uint256)": "5ae84377",
			"owner()": "8da5cb5b",
			"patients(uint256)": "93119a83",
			"transferNFT(uint256,uint256)": "b3b4712e",
			"transplants(uint256)": "2145efcb"
		}
	},
	"abi": [
		{
			"inputs": [
				{
					"internalType": "address",
					"name": "_nftContractAddress",
					"type": "address"
				}
			],
			"stateMutability": "nonpayable",
			"type": "constructor"
		},
		{
			"inputs": [
				{
					"internalType": "string",
					"name": "_name",
					"type": "string"
				},
				{
					"internalType": "address",
					"name": "_doctorAddress",
					"type": "address"
				}
			],
			"name": "addDoctor",
			"outputs": [],
			"stateMutability": "nonpayable",
			"type": "function"
		},
		{
			"inputs": [
				{
					"internalType": "string",
					"name": "_name",
					"type": "string"
				},
				{
					"internalType": "string",
					"name": "_bloodGroup",
					"type": "string"
				},
				{
					"internalType": "string",
					"name": "_gender",
					"type": "string"
				},
				{
					"internalType": "string",
					"name": "_organDonated",
					"type": "string"
				}
			],
			"name": "addDonor",
			"outputs": [],
			"stateMutability": "nonpayable",
			"type": "function"
		},
		{
			"inputs": [
				{
					"internalType": "string",
					"name": "_name",
					"type": "string"
				},
				{
					"internalType": "string",
					"name": "_bloodGroup",
					"type": "string"
				},
				{
					"internalType": "string",
					"name": "_gender",
					"type": "string"
				},
				{
					"internalType": "string",
					"name": "_organNeeded",
					"type": "string"
				}
			],
			"name": "addPatient",
			"outputs": [],
			"stateMutability": "nonpayable",
			"type": "function"
		},
		{
			"inputs": [
				{
					"internalType": "uint256",
					"name": "_donorId",
					"type": "uint256"
				},
				{
					"internalType": "address",
					"name": "_doctor",
					"type": "address"
				}
			],
			"name": "approveDonor",
			"outputs": [],
			"stateMutability": "nonpayable",
			"type": "function"
		},
		{
			"inputs": [
				{
					"internalType": "uint256",
					"name": "_patientId",
					"type": "uint256"
				},
				{
					"internalType": "address",
					"name": "_doctor",
					"type": "address"
				}
			],
			"name": "approvePatient",
			"outputs": [],
			"stateMutability": "nonpayable",
			"type": "function"
		},
		{
			"inputs": [
				{
					"internalType": "uint256",
					"name": "",
					"type": "uint256"
				}
			],
			"name": "doctors",
			"outputs": [
				{
					"internalType": "string",
					"name": "name",
					"type": "string"
				},
				{
					"internalType": "address",
					"name": "doctorAddress",
					"type": "address"
				}
			],
			"stateMutability": "view",
			"type": "function"
		},
		{
			"inputs": [
				{
					"internalType": "uint256",
					"name": "",
					"type": "uint256"
				}
			],
			"name": "donors",
			"outputs": [
				{
					"internalType": "string",
					"name": "name",
					"type": "string"
				},
				{
					"internalType": "string",
					"name": "bloodGroup",
					"type": "string"
				},
				{
					"internalType": "string",
					"name": "gender",
					"type": "string"
				},
				{
					"internalType": "string",
					"name": "organDonated",
					"type": "string"
				},
				{
					"internalType": "bool",
					"name": "isApproved",
					"type": "bool"
				},
				{
					"internalType": "address",
					"name": "doctor",
					"type": "address"
				},
				{
					"internalType": "address",
					"name": "donorAddress",
					"type": "address"
				}
			],
			"stateMutability": "view",
			"type": "function"
		},
		{
			"inputs": [
				{
					"internalType": "address",
					"name": "",
					"type": "address"
				}
			],
			"name": "isDoctor",
			"outputs": [
				{
					"internalType": "bool",
					"name": "",
					"type": "bool"
				}
			],
			"stateMutability": "view",
			"type": "function"
		},
		{
			"inputs": [
				{
					"internalType": "uint256",
					"name": "",
					"type": "uint256"
				}
			],
			"name": "isDonorApproved",
			"outputs": [
				{
					"internalType": "bool",
					"name": "",
					"type": "bool"
				}
			],
			"stateMutability": "view",
			"type": "function"
		},
		{
			"inputs": [
				{
					"internalType": "uint256",
					"name": "",
					"type": "uint256"
				}
			],
			"name": "isPatientApproved",
			"outputs": [
				{
					"internalType": "bool",
					"name": "",
					"type": "bool"
				}
			],
			"stateMutability": "view",
			"type": "function"
		},
		{
			"inputs": [],
			"name": "owner",
			"outputs": [
				{
					"internalType": "address",
					"name": "",
					"type": "address"
				}
			],
			"stateMutability": "view",
			"type": "function"
		},
		{
			"inputs": [
				{
					"internalType": "uint256",
					"name": "",
					"type": "uint256"
				}
			],
			"name": "patients",
			"outputs": [
				{
					"internalType": "string",
					"name": "name",
					"type": "string"
				},
				{
					"internalType": "string",
					"name": "bloodGroup",
					"type": "string"
				},
				{
					"internalType": "string",
					"name": "gender",
					"type": "string"
				},
				{
					"internalType": "string",
					"name": "organNeeded",
					"type": "string"
				},
				{
					"internalType": "bool",
					"name": "isApproved",
					"type": "bool"
				},
				{
					"internalType": "address",
					"name": "doctor",
					"type": "address"
				},
				{
					"internalType": "address",
					"name": "patientAddress",
					"type": "address"
				}
			],
			"stateMutability": "view",
			"type": "function"
		},
		{
			"inputs": [
				{
					"internalType": "uint256",
					"name": "_patientId",
					"type": "uint256"
				},
				{
					"internalType": "uint256",
					"name": "_donorId",
					"type": "uint256"
				}
			],
			"name": "transferNFT",
			"outputs": [],
			"stateMutability": "nonpayable",
			"type": "function"
		},
		{
			"inputs": [
				{
					"internalType": "uint256",
					"name": "",
					"type": "uint256"
				}
			],
			"name": "transplants",
			"outputs": [
				{
					"internalType": "uint256",
					"name": "patientId",
					"type": "uint256"
				},
				{
					"internalType": "uint256",
					"name": "donorId",
					"type": "uint256"
				},
				{
					"internalType": "address",
					"name": "doctor",
					"type": "address"
				},
				{
					"internalType": "bool",
					"name": "isCompleted",
					"type": "bool"
				}
			],
			"stateMutability": "view",
			"type": "function"
		}
	]
}