{
	"data": {
		"bytecode": {
			"linkReferences": {},
			"object": "6080604052348015600e575f80fd5b506112528061001c5f395ff3fe608060405234801561000f575f80fd5b5060043610610055575f3560e01c80630869cfbc1461005957806318a231a91461008d5780634ba0a020146100ab578063b5368e20146100c7578063babb1d41146100fb575b5f80fd5b610073600480360381019061006e9190610a58565b61012b565b604051610084959493929190610b02565b60405180910390f35b610095610393565b6040516100a29190610c26565b60405180910390f35b6100c560048036038101906100c09190610d72565b61041e565b005b6100e160048036038101906100dc9190610a58565b6106a1565b6040516100f2959493929190610b02565b60405180910390f35b61011560048036038101906101109190610e79565b6109b2565b6040516101229190610ea4565b60405180910390f35b5f602052805f5260405f205f91509050805f01805461014990610eea565b80601f016020809104026020016040519081016040528092919081815260200182805461017590610eea565b80156101c05780601f10610197576101008083540402835291602001916101c0565b820191905f5260205f20905b8154815290600101906020018083116101a357829003601f168201915b5050505050908060010180546101d590610eea565b80601f016020809104026020016040519081016040528092919081815260200182805461020190610eea565b801561024c5780601f106102235761010080835404028352916020019161024c565b820191905f5260205f20905b81548152906001019060200180831161022f57829003601f168201915b50505050509080600201805461026190610eea565b80601f016020809104026020016040519081016040528092919081815260200182805461028d90610eea565b80156102d85780601f106102af576101008083540402835291602001916102d8565b820191905f5260205f20905b8154815290600101906020018083116102bb57829003601f168201915b5050505050908060030180546102ed90610eea565b80601f016020809104026020016040519081016040528092919081815260200182805461031990610eea565b80156103645780601f1061033b57610100808354040283529160200191610364565b820191905f5260205f20905b81548152906001019060200180831161034757829003601f168201915b505050505090806004015f9054906101000a900473ffffffffffffffffffffffffffffffffffffffff16905085565b6060600180548060200260200160405190810160405280929190818152602001828054801561041457602002820191905f5260205f20905b815f9054906101000a900473ffffffffffffffffffffffffffffffffffffffff1673ffffffffffffffffffffffffffffffffffffffff16815260200190600101908083116103cb575b5050505050905090565b5f73ffffffffffffffffffffffffffffffffffffffff165f803373ffffffffffffffffffffffffffffffffffffffff1673ffffffffffffffffffffffffffffffffffffffff1681526020019081526020015f206004015f9054906101000a900473ffffffffffffffffffffffffffffffffffffffff1673ffffffffffffffffffffffffffffffffffffffff16146104ea576040517f08c379a00000000000000000000000000000000000000000000000000000000081526004016104e190610f64565b60405180910390fd5b6040518060a001604052808581526020018481526020018381526020018281526020013373ffffffffffffffffffffffffffffffffffffffff168152505f803373ffffffffffffffffffffffffffffffffffffffff1673ffffffffffffffffffffffffffffffffffffffff1681526020019081526020015f205f820151815f019081610576919061111f565b50602082015181600101908161058c919061111f565b5060408201518160020190816105a2919061111f565b5060608201518160030190816105b8919061111f565b506080820151816004015f6101000a81548173ffffffffffffffffffffffffffffffffffffffff021916908373ffffffffffffffffffffffffffffffffffffffff160217905550905050600133908060018154018082558091505060019003905f5260205f20015f9091909190916101000a81548173ffffffffffffffffffffffffffffffffffffffff021916908373ffffffffffffffffffffffffffffffffffffffff1602179055507fc85b128388b9c331a2a5485dce4cd0f3db9f7c279d327ce95d6d39d6c94644c733826040516106939291906111ee565b60405180910390a150505050565b6060806060805f805f808873ffffffffffffffffffffffffffffffffffffffff1673ffffffffffffffffffffffffffffffffffffffff1681526020019081526020015f206040518060a00160405290815f820180546106ff90610eea565b80601f016020809104026020016040519081016040528092919081815260200182805461072b90610eea565b80156107765780601f1061074d57610100808354040283529160200191610776565b820191905f5260205f20905b81548152906001019060200180831161075957829003601f168201915b5050505050815260200160018201805461078f90610eea565b80601f01602080910402602001604051908101604052809291908181526020018280546107bb90610eea565b80156108065780601f106107dd57610100808354040283529160200191610806565b820191905f5260205f20905b8154815290600101906020018083116107e957829003601f168201915b5050505050815260200160028201805461081f90610eea565b80601f016020809104026020016040519081016040528092919081815260200182805461084b90610eea565b80156108965780601f1061086d57610100808354040283529160200191610896565b820191905f5260205f20905b81548152906001019060200180831161087957829003601f168201915b505050505081526020016003820180546108af90610eea565b80601f01602080910402602001604051908101604052809291908181526020018280546108db90610eea565b80156109265780601f106108fd57610100808354040283529160200191610926565b820191905f5260205f20905b81548152906001019060200180831161090957829003601f168201915b50505050508152602001600482015f9054906101000a900473ffffffffffffffffffffffffffffffffffffffff1673ffffffffffffffffffffffffffffffffffffffff1673ffffffffffffffffffffffffffffffffffffffff16815250509050805f01518160200151826040015183606001518460800151955095509550955095505091939590929450565b600181815481106109c1575f80fd5b905f5260205f20015f915054906101000a900473ffffffffffffffffffffffffffffffffffffffff1681565b5f604051905090565b5f80fd5b5f80fd5b5f73ffffffffffffffffffffffffffffffffffffffff82169050919050565b5f610a27826109fe565b9050919050565b610a3781610a1d565b8114610a41575f80fd5b50565b5f81359050610a5281610a2e565b92915050565b5f60208284031215610a6d57610a6c6109f6565b5b5f610a7a84828501610a44565b91505092915050565b5f81519050919050565b5f82825260208201905092915050565b8281835e5f83830152505050565b5f601f19601f8301169050919050565b5f610ac582610a83565b610acf8185610a8d565b9350610adf818560208601610a9d565b610ae881610aab565b840191505092915050565b610afc81610a1d565b82525050565b5f60a0820190508181035f830152610b1a8188610abb565b90508181036020830152610b2e8187610abb565b90508181036040830152610b428186610abb565b90508181036060830152610b568185610abb565b9050610b656080830184610af3565b9695505050505050565b5f81519050919050565b5f82825260208201905092915050565b5f819050602082019050919050565b610ba181610a1d565b82525050565b5f610bb28383610b98565b60208301905092915050565b5f602082019050919050565b5f610bd482610b6f565b610bde8185610b79565b9350610be983610b89565b805f5b83811015610c19578151610c008882610ba7565b9750610c0b83610bbe565b925050600181019050610bec565b5085935050505092915050565b5f6020820190508181035f830152610c3e8184610bca565b905092915050565b5f80fd5b5f80fd5b7f4e487b71000000000000000000000000000000000000000000000000000000005f52604160045260245ffd5b610c8482610aab565b810181811067ffffffffffffffff82111715610ca357610ca2610c4e565b5b80604052505050565b5f610cb56109ed565b9050610cc18282610c7b565b919050565b5f67ffffffffffffffff821115610ce057610cdf610c4e565b5b610ce982610aab565b9050602081019050919050565b828183375f83830152505050565b5f610d16610d1184610cc6565b610cac565b905082815260208101848484011115610d3257610d31610c4a565b5b610d3d848285610cf6565b509392505050565b5f82601f830112610d5957610d58610c46565b5b8135610d69848260208601610d04565b91505092915050565b5f805f8060808587031215610d8a57610d896109f6565b5b5f85013567ffffffffffffffff811115610da757610da66109fa565b5b610db387828801610d45565b945050602085013567ffffffffffffffff811115610dd457610dd36109fa565b5b610de087828801610d45565b935050604085013567ffffffffffffffff811115610e0157610e006109fa565b5b610e0d87828801610d45565b925050606085013567ffffffffffffffff811115610e2e57610e2d6109fa565b5b610e3a87828801610d45565b91505092959194509250565b5f819050919050565b610e5881610e46565b8114610e62575f80fd5b50565b5f81359050610e7381610e4f565b92915050565b5f60208284031215610e8e57610e8d6109f6565b5b5f610e9b84828501610e65565b91505092915050565b5f602082019050610eb75f830184610af3565b92915050565b7f4e487b71000000000000000000000000000000000000000000000000000000005f52602260045260245ffd5b5f6002820490506001821680610f0157607f821691505b602082108103610f1457610f13610ebd565b5b50919050565b7f50617469656e7420616c726561647920726567697374657265640000000000005f82015250565b5f610f4e601a83610a8d565b9150610f5982610f1a565b602082019050919050565b5f6020820190508181035f830152610f7b81610f42565b9050919050565b5f819050815f5260205f209050919050565b5f6020601f8301049050919050565b5f82821b905092915050565b5f60088302610fde7fffffffffffffffffffffffffffffffffffffffffffffffffffffffffffffffff82610fa3565b610fe88683610fa3565b95508019841693508086168417925050509392505050565b5f819050919050565b5f61102361101e61101984610e46565b611000565b610e46565b9050919050565b5f819050919050565b61103c83611009565b6110506110488261102a565b848454610faf565b825550505050565b5f90565b611064611058565b61106f818484611033565b505050565b5b81811015611092576110875f8261105c565b600181019050611075565b5050565b601f8211156110d7576110a881610f82565b6110b184610f94565b810160208510156110c0578190505b6110d46110cc85610f94565b830182611074565b50505b505050565b5f82821c905092915050565b5f6110f75f19846008026110dc565b1980831691505092915050565b5f61110f83836110e8565b9150826002028217905092915050565b61112882610a83565b67ffffffffffffffff81111561114157611140610c4e565b5b61114b8254610eea565b611156828285611096565b5f60209050601f831160018114611187575f8415611175578287015190505b61117f8582611104565b8655506111e6565b601f19841661119586610f82565b5f5b828110156111bc57848901518255600182019150602085019450602081019050611197565b868310156111d957848901516111d5601f8916826110e8565b8355505b6001600288020188555050505b505050505050565b5f6040820190506112015f830185610af3565b81810360208301526112138184610abb565b9050939250505056fea2646970667358221220c5c20a1f22cbac7f44306183f9f35205f5dfd5d59a77de7a5c3fb9d7d706e4ea64736f6c634300081a0033",
			"opcodes": "PUSH1 0x80 PUSH1 0x40 MSTORE CALLVALUE DUP1 ISZERO PUSH1 0xE JUMPI PUSH0 DUP1 REVERT JUMPDEST POP PUSH2 0x1252 DUP1 PUSH2 0x1C PUSH0 CODECOPY PUSH0 RETURN INVALID PUSH1 0x80 PUSH1 0x40 MSTORE CALLVALUE DUP1 ISZERO PUSH2 0xF JUMPI PUSH0 DUP1 REVERT JUMPDEST POP PUSH1 0x4 CALLDATASIZE LT PUSH2 0x55 JUMPI PUSH0 CALLDATALOAD PUSH1 0xE0 SHR DUP1 PUSH4 0x869CFBC EQ PUSH2 0x59 JUMPI DUP1 PUSH4 0x18A231A9 EQ PUSH2 0x8D JUMPI DUP1 PUSH4 0x4BA0A020 EQ PUSH2 0xAB JUMPI DUP1 PUSH4 0xB5368E20 EQ PUSH2 0xC7 JUMPI DUP1 PUSH4 0xBABB1D41 EQ PUSH2 0xFB JUMPI JUMPDEST PUSH0 DUP1 REVERT JUMPDEST PUSH2 0x73 PUSH1 0x4 DUP1 CALLDATASIZE SUB DUP2 ADD SWAP1 PUSH2 0x6E SWAP2 SWAP1 PUSH2 0xA58 JUMP JUMPDEST PUSH2 0x12B JUMP JUMPDEST PUSH1 0x40 MLOAD PUSH2 0x84 SWAP6 SWAP5 SWAP4 SWAP3 SWAP2 SWAP1 PUSH2 0xB02 JUMP JUMPDEST PUSH1 0x40 MLOAD DUP1 SWAP2 SUB SWAP1 RETURN JUMPDEST PUSH2 0x95 PUSH2 0x393 JUMP JUMPDEST PUSH1 0x40 MLOAD PUSH2 0xA2 SWAP2 SWAP1 PUSH2 0xC26 JUMP JUMPDEST PUSH1 0x40 MLOAD DUP1 SWAP2 SUB SWAP1 RETURN JUMPDEST PUSH2 0xC5 PUSH1 0x4 DUP1 CALLDATASIZE SUB DUP2 ADD SWAP1 PUSH2 0xC0 SWAP2 SWAP1 PUSH2 0xD72 JUMP JUMPDEST PUSH2 0x41E JUMP JUMPDEST STOP JUMPDEST PUSH2 0xE1 PUSH1 0x4 DUP1 CALLDATASIZE SUB DUP2 ADD SWAP1 PUSH2 0xDC SWAP2 SWAP1 PUSH2 0xA58 JUMP JUMPDEST PUSH2 0x6A1 JUMP JUMPDEST PUSH1 0x40 MLOAD PUSH2 0xF2 SWAP6 SWAP5 SWAP4 SWAP3 SWAP2 SWAP1 PUSH2 0xB02 JUMP JUMPDEST PUSH1 0x40 MLOAD DUP1 SWAP2 SUB SWAP1 RETURN JUMPDEST PUSH2 0x115 PUSH1 0x4 DUP1 CALLDATASIZE SUB DUP2 ADD SWAP1 PUSH2 0x110 SWAP2 SWAP1 PUSH2 0xE79 JUMP JUMPDEST PUSH2 0x9B2 JUMP JUMPDEST PUSH1 0x40 MLOAD PUSH2 0x122 SWAP2 SWAP1 PUSH2 0xEA4 JUMP JUMPDEST PUSH1 0x40 MLOAD DUP1 SWAP2 SUB SWAP1 RETURN JUMPDEST PUSH0 PUSH1 0x20 MSTORE DUP1 PUSH0 MSTORE PUSH1 0x40 PUSH0 KECCAK256 PUSH0 SWAP2 POP SWAP1 POP DUP1 PUSH0 ADD DUP1 SLOAD PUSH2 0x149 SWAP1 PUSH2 0xEEA JUMP JUMPDEST DUP1 PUSH1 0x1F ADD PUSH1 0x20 DUP1 SWAP2 DIV MUL PUSH1 0x20 ADD PUSH1 0x40 MLOAD SWAP1 DUP2 ADD PUSH1 0x40 MSTORE DUP1 SWAP3 SWAP2 SWAP1 DUP2 DUP2 MSTORE PUSH1 0x20 ADD DUP3 DUP1 SLOAD PUSH2 0x175 SWAP1 PUSH2 0xEEA JUMP JUMPDEST DUP1 ISZERO PUSH2 0x1C0 JUMPI DUP1 PUSH1 0x1F LT PUSH2 0x197 JUMPI PUSH2 0x100 DUP1 DUP4 SLOAD DIV MUL DUP4 MSTORE SWAP2 PUSH1 0x20 ADD SWAP2 PUSH2 0x1C0 JUMP JUMPDEST DUP3 ADD SWAP2 SWAP1 PUSH0 MSTORE PUSH1 0x20 PUSH0 KECCAK256 SWAP1 JUMPDEST DUP2 SLOAD DUP2 MSTORE SWAP1 PUSH1 0x1 ADD SWAP1 PUSH1 0x20 ADD DUP1 DUP4 GT PUSH2 0x1A3 JUMPI DUP3 SWAP1 SUB PUSH1 0x1F AND DUP3 ADD SWAP2 JUMPDEST POP POP POP POP POP SWAP1 DUP1 PUSH1 0x1 ADD DUP1 SLOAD PUSH2 0x1D5 SWAP1 PUSH2 0xEEA JUMP JUMPDEST DUP1 PUSH1 0x1F ADD PUSH1 0x20 DUP1 SWAP2 DIV MUL PUSH1 0x20 ADD PUSH1 0x40 MLOAD SWAP1 DUP2 ADD PUSH1 0x40 MSTORE DUP1 SWAP3 SWAP2 SWAP1 DUP2 DUP2 MSTORE PUSH1 0x20 ADD DUP3 DUP1 SLOAD PUSH2 0x201 SWAP1 PUSH2 0xEEA JUMP JUMPDEST DUP1 ISZERO PUSH2 0x24C JUMPI DUP1 PUSH1 0x1F LT PUSH2 0x223 JUMPI PUSH2 0x100 DUP1 DUP4 SLOAD DIV MUL DUP4 MSTORE SWAP2 PUSH1 0x20 ADD SWAP2 PUSH2 0x24C JUMP JUMPDEST DUP3 ADD SWAP2 SWAP1 PUSH0 MSTORE PUSH1 0x20 PUSH0 KECCAK256 SWAP1 JUMPDEST DUP2 SLOAD DUP2 MSTORE SWAP1 PUSH1 0x1 ADD SWAP1 PUSH1 0x20 ADD DUP1 DUP4 GT PUSH2 0x22F JUMPI DUP3 SWAP1 SUB PUSH1 0x1F AND DUP3 ADD SWAP2 JUMPDEST POP POP POP POP POP SWAP1 DUP1 PUSH1 0x2 ADD DUP1 SLOAD PUSH2 0x261 SWAP1 PUSH2 0xEEA JUMP JUMPDEST DUP1 PUSH1 0x1F ADD PUSH1 0x20 DUP1 SWAP2 DIV MUL PUSH1 0x20 ADD PUSH1 0x40 MLOAD SWAP1 DUP2 ADD PUSH1 0x40 MSTORE DUP1 SWAP3 SWAP2 SWAP1 DUP2 DUP2 MSTORE PUSH1 0x20 ADD DUP3 DUP1 SLOAD PUSH2 0x28D SWAP1 PUSH2 0xEEA JUMP JUMPDEST DUP1 ISZERO PUSH2 0x2D8 JUMPI DUP1 PUSH1 0x1F LT PUSH2 0x2AF JUMPI PUSH2 0x100 DUP1 DUP4 SLOAD DIV MUL DUP4 MSTORE SWAP2 PUSH1 0x20 ADD SWAP2 PUSH2 0x2D8 JUMP JUMPDEST DUP3 ADD SWAP2 SWAP1 PUSH0 MSTORE PUSH1 0x20 PUSH0 KECCAK256 SWAP1 JUMPDEST DUP2 SLOAD DUP2 MSTORE SWAP1 PUSH1 0x1 ADD SWAP1 PUSH1 0x20 ADD DUP1 DUP4 GT PUSH2 0x2BB JUMPI DUP3 SWAP1 SUB PUSH1 0x1F AND DUP3 ADD SWAP2 JUMPDEST POP POP POP POP POP SWAP1 DUP1 PUSH1 0x3 ADD DUP1 SLOAD PUSH2 0x2ED SWAP1 PUSH2 0xEEA JUMP JUMPDEST DUP1 PUSH1 0x1F ADD PUSH1 0x20 DUP1 SWAP2 DIV MUL PUSH1 0x20 ADD PUSH1 0x40 MLOAD SWAP1 DUP2 ADD PUSH1 0x40 MSTORE DUP1 SWAP3 SWAP2 SWAP1 DUP2 DUP2 MSTORE PUSH1 0x20 ADD DUP3 DUP1 SLOAD PUSH2 0x319 SWAP1 PUSH2 0xEEA JUMP JUMPDEST DUP1 ISZERO PUSH2 0x364 JUMPI DUP1 PUSH1 0x1F LT PUSH2 0x33B JUMPI PUSH2 0x100 DUP1 DUP4 SLOAD DIV MUL DUP4 MSTORE SWAP2 PUSH1 0x20 ADD SWAP2 PUSH2 0x364 JUMP JUMPDEST DUP3 ADD SWAP2 SWAP1 PUSH0 MSTORE PUSH1 0x20 PUSH0 KECCAK256 SWAP1 JUMPDEST DUP2 SLOAD DUP2 MSTORE SWAP1 PUSH1 0x1 ADD SWAP1 PUSH1 0x20 ADD DUP1 DUP4 GT PUSH2 0x347 JUMPI DUP3 SWAP1 SUB PUSH1 0x1F AND DUP3 ADD SWAP2 JUMPDEST POP POP POP POP POP SWAP1 DUP1 PUSH1 0x4 ADD PUSH0 SWAP1 SLOAD SWAP1 PUSH2 0x100 EXP SWAP1 DIV PUSH20 0xFFFFFFFFFFFFFFFFFFFFFFFFFFFFFFFFFFFFFFFF AND SWAP1 POP DUP6 JUMP JUMPDEST PUSH1 0x60 PUSH1 0x1 DUP1 SLOAD DUP1 PUSH1 0x20 MUL PUSH1 0x20 ADD PUSH1 0x40 MLOAD SWAP1 DUP2 ADD PUSH1 0x40 MSTORE DUP1 SWAP3 SWAP2 SWAP1 DUP2 DUP2 MSTORE PUSH1 0x20 ADD DUP3 DUP1 SLOAD DUP1 ISZERO PUSH2 0x414 JUMPI PUSH1 0x20 MUL DUP3 ADD SWAP2 SWAP1 PUSH0 MSTORE PUSH1 0x20 PUSH0 KECCAK256 SWAP1 JUMPDEST DUP2 PUSH0 SWAP1 SLOAD SWAP1 PUSH2 0x100 EXP SWAP1 DIV PUSH20 0xFFFFFFFFFFFFFFFFFFFFFFFFFFFFFFFFFFFFFFFF AND PUSH20 0xFFFFFFFFFFFFFFFFFFFFFFFFFFFFFFFFFFFFFFFF AND DUP2 MSTORE PUSH1 0x20 ADD SWAP1 PUSH1 0x1 ADD SWAP1 DUP1 DUP4 GT PUSH2 0x3CB JUMPI JUMPDEST POP POP POP POP POP SWAP1 POP SWAP1 JUMP JUMPDEST PUSH0 PUSH20 0xFFFFFFFFFFFFFFFFFFFFFFFFFFFFFFFFFFFFFFFF AND PUSH0 DUP1 CALLER PUSH20 0xFFFFFFFFFFFFFFFFFFFFFFFFFFFFFFFFFFFFFFFF AND PUSH20 0xFFFFFFFFFFFFFFFFFFFFFFFFFFFFFFFFFFFFFFFF AND DUP2 MSTORE PUSH1 0x20 ADD SWAP1 DUP2 MSTORE PUSH1 0x20 ADD PUSH0 KECCAK256 PUSH1 0x4 ADD PUSH0 SWAP1 SLOAD SWAP1 PUSH2 0x100 EXP SWAP1 DIV PUSH20 0xFFFFFFFFFFFFFFFFFFFFFFFFFFFFFFFFFFFFFFFF AND PUSH20 0xFFFFFFFFFFFFFFFFFFFFFFFFFFFFFFFFFFFFFFFF AND EQ PUSH2 0x4EA JUMPI PUSH1 0x40 MLOAD PUSH32 0x8C379A000000000000000000000000000000000000000000000000000000000 DUP2 MSTORE PUSH1 0x4 ADD PUSH2 0x4E1 SWAP1 PUSH2 0xF64 JUMP JUMPDEST PUSH1 0x40 MLOAD DUP1 SWAP2 SUB SWAP1 REVERT JUMPDEST PUSH1 0x40 MLOAD DUP1 PUSH1 0xA0 ADD PUSH1 0x40 MSTORE DUP1 DUP6 DUP2 MSTORE PUSH1 0x20 ADD DUP5 DUP2 MSTORE PUSH1 0x20 ADD DUP4 DUP2 MSTORE PUSH1 0x20 ADD DUP3 DUP2 MSTORE PUSH1 0x20 ADD CALLER PUSH20 0xFFFFFFFFFFFFFFFFFFFFFFFFFFFFFFFFFFFFFFFF AND DUP2 MSTORE POP PUSH0 DUP1 CALLER PUSH20 0xFFFFFFFFFFFFFFFFFFFFFFFFFFFFFFFFFFFFFFFF AND PUSH20 0xFFFFFFFFFFFFFFFFFFFFFFFFFFFFFFFFFFFFFFFF AND DUP2 MSTORE PUSH1 0x20 ADD SWAP1 DUP2 MSTORE PUSH1 0x20 ADD PUSH0 KECCAK256 PUSH0 DUP3 ADD MLOAD DUP2 PUSH0 ADD SWAP1 DUP2 PUSH2 0x576 SWAP2 SWAP1 PUSH2 0x111F JUMP JUMPDEST POP PUSH1 0x20 DUP3 ADD MLOAD DUP2 PUSH1 0x1 ADD SWAP1 DUP2 PUSH2 0x58C SWAP2 SWAP1 PUSH2 0x111F JUMP JUMPDEST POP PUSH1 0x40 DUP3 ADD MLOAD DUP2 PUSH1 0x2 ADD SWAP1 DUP2 PUSH2 0x5A2 SWAP2 SWAP1 PUSH2 0x111F JUMP JUMPDEST POP PUSH1 0x60 DUP3 ADD MLOAD DUP2 PUSH1 0x3 ADD SWAP1 DUP2 PUSH2 0x5B8 SWAP2 SWAP1 PUSH2 0x111F JUMP JUMPDEST POP PUSH1 0x80 DUP3 ADD MLOAD DUP2 PUSH1 0x4 ADD PUSH0 PUSH2 0x100 EXP DUP2 SLOAD DUP2 PUSH20 0xFFFFFFFFFFFFFFFFFFFFFFFFFFFFFFFFFFFFFFFF MUL NOT AND SWAP1 DUP4 PUSH20 0xFFFFFFFFFFFFFFFFFFFFFFFFFFFFFFFFFFFFFFFF AND MUL OR SWAP1 SSTORE POP SWAP1 POP POP PUSH1 0x1 CALLER SWAP1 DUP1 PUSH1 0x1 DUP2 SLOAD ADD DUP1 DUP3 SSTORE DUP1 SWAP2 POP POP PUSH1 0x1 SWAP1 SUB SWAP1 PUSH0 MSTORE PUSH1 0x20 PUSH0 KECCAK256 ADD PUSH0 SWAP1 SWAP2 SWAP1 SWAP2 SWAP1 SWAP2 PUSH2 0x100 EXP DUP2 SLOAD DUP2 PUSH20 0xFFFFFFFFFFFFFFFFFFFFFFFFFFFFFFFFFFFFFFFF MUL NOT AND SWAP1 DUP4 PUSH20 0xFFFFFFFFFFFFFFFFFFFFFFFFFFFFFFFFFFFFFFFF AND MUL OR SWAP1 SSTORE POP PUSH32 0xC85B128388B9C331A2A5485DCE4CD0F3DB9F7C279D327CE95D6D39D6C94644C7 CALLER DUP3 PUSH1 0x40 MLOAD PUSH2 0x693 SWAP3 SWAP2 SWAP1 PUSH2 0x11EE JUMP JUMPDEST PUSH1 0x40 MLOAD DUP1 SWAP2 SUB SWAP1 LOG1 POP POP POP POP JUMP JUMPDEST PUSH1 0x60 DUP1 PUSH1 0x60 DUP1 PUSH0 DUP1 PUSH0 DUP1 DUP9 PUSH20 0xFFFFFFFFFFFFFFFFFFFFFFFFFFFFFFFFFFFFFFFF AND PUSH20 0xFFFFFFFFFFFFFFFFFFFFFFFFFFFFFFFFFFFFFFFF AND DUP2 MSTORE PUSH1 0x20 ADD SWAP1 DUP2 MSTORE PUSH1 0x20 ADD PUSH0 KECCAK256 PUSH1 0x40 MLOAD DUP1 PUSH1 0xA0 ADD PUSH1 0x40 MSTORE SWAP1 DUP2 PUSH0 DUP3 ADD DUP1 SLOAD PUSH2 0x6FF SWAP1 PUSH2 0xEEA JUMP JUMPDEST DUP1 PUSH1 0x1F ADD PUSH1 0x20 DUP1 SWAP2 DIV MUL PUSH1 0x20 ADD PUSH1 0x40 MLOAD SWAP1 DUP2 ADD PUSH1 0x40 MSTORE DUP1 SWAP3 SWAP2 SWAP1 DUP2 DUP2 MSTORE PUSH1 0x20 ADD DUP3 DUP1 SLOAD PUSH2 0x72B SWAP1 PUSH2 0xEEA JUMP JUMPDEST DUP1 ISZERO PUSH2 0x776 JUMPI DUP1 PUSH1 0x1F LT PUSH2 0x74D JUMPI PUSH2 0x100 DUP1 DUP4 SLOAD DIV MUL DUP4 MSTORE SWAP2 PUSH1 0x20 ADD SWAP2 PUSH2 0x776 JUMP JUMPDEST DUP3 ADD SWAP2 SWAP1 PUSH0 MSTORE PUSH1 0x20 PUSH0 KECCAK256 SWAP1 JUMPDEST DUP2 SLOAD DUP2 MSTORE SWAP1 PUSH1 0x1 ADD SWAP1 PUSH1 0x20 ADD DUP1 DUP4 GT PUSH2 0x759 JUMPI DUP3 SWAP1 SUB PUSH1 0x1F AND DUP3 ADD SWAP2 JUMPDEST POP POP POP POP POP DUP2 MSTORE PUSH1 0x20 ADD PUSH1 0x1 DUP3 ADD DUP1 SLOAD PUSH2 0x78F SWAP1 PUSH2 0xEEA JUMP JUMPDEST DUP1 PUSH1 0x1F ADD PUSH1 0x20 DUP1 SWAP2 DIV MUL PUSH1 0x20 ADD PUSH1 0x40 MLOAD SWAP1 DUP2 ADD PUSH1 0x40 MSTORE DUP1 SWAP3 SWAP2 SWAP1 DUP2 DUP2 MSTORE PUSH1 0x20 ADD DUP3 DUP1 SLOAD PUSH2 0x7BB SWAP1 PUSH2 0xEEA JUMP JUMPDEST DUP1 ISZERO PUSH2 0x806 JUMPI DUP1 PUSH1 0x1F LT PUSH2 0x7DD JUMPI PUSH2 0x100 DUP1 DUP4 SLOAD DIV MUL DUP4 MSTORE SWAP2 PUSH1 0x20 ADD SWAP2 PUSH2 0x806 JUMP JUMPDEST DUP3 ADD SWAP2 SWAP1 PUSH0 MSTORE PUSH1 0x20 PUSH0 KECCAK256 SWAP1 JUMPDEST DUP2 SLOAD DUP2 MSTORE SWAP1 PUSH1 0x1 ADD SWAP1 PUSH1 0x20 ADD DUP1 DUP4 GT PUSH2 0x7E9 JUMPI DUP3 SWAP1 SUB PUSH1 0x1F AND DUP3 ADD SWAP2 JUMPDEST POP POP POP POP POP DUP2 MSTORE PUSH1 0x20 ADD PUSH1 0x2 DUP3 ADD DUP1 SLOAD PUSH2 0x81F SWAP1 PUSH2 0xEEA JUMP JUMPDEST DUP1 PUSH1 0x1F ADD PUSH1 0x20 DUP1 SWAP2 DIV MUL PUSH1 0x20 ADD PUSH1 0x40 MLOAD SWAP1 DUP2 ADD PUSH1 0x40 MSTORE DUP1 SWAP3 SWAP2 SWAP1 DUP2 DUP2 MSTORE PUSH1 0x20 ADD DUP3 DUP1 SLOAD PUSH2 0x84B SWAP1 PUSH2 0xEEA JUMP JUMPDEST DUP1 ISZERO PUSH2 0x896 JUMPI DUP1 PUSH1 0x1F LT PUSH2 0x86D JUMPI PUSH2 0x100 DUP1 DUP4 SLOAD DIV MUL DUP4 MSTORE SWAP2 PUSH1 0x20 ADD SWAP2 PUSH2 0x896 JUMP JUMPDEST DUP3 ADD SWAP2 SWAP1 PUSH0 MSTORE PUSH1 0x20 PUSH0 KECCAK256 SWAP1 JUMPDEST DUP2 SLOAD DUP2 MSTORE SWAP1 PUSH1 0x1 ADD SWAP1 PUSH1 0x20 ADD DUP1 DUP4 GT PUSH2 0x879 JUMPI DUP3 SWAP1 SUB PUSH1 0x1F AND DUP3 ADD SWAP2 JUMPDEST POP POP POP POP POP DUP2 MSTORE PUSH1 0x20 ADD PUSH1 0x3 DUP3 ADD DUP1 SLOAD PUSH2 0x8AF SWAP1 PUSH2 0xEEA JUMP JUMPDEST DUP1 PUSH1 0x1F ADD PUSH1 0x20 DUP1 SWAP2 DIV MUL PUSH1 0x20 ADD PUSH1 0x40 MLOAD SWAP1 DUP2 ADD PUSH1 0x40 MSTORE DUP1 SWAP3 SWAP2 SWAP1 DUP2 DUP2 MSTORE PUSH1 0x20 ADD DUP3 DUP1 SLOAD PUSH2 0x8DB SWAP1 PUSH2 0xEEA JUMP JUMPDEST DUP1 ISZERO PUSH2 0x926 JUMPI DUP1 PUSH1 0x1F LT PUSH2 0x8FD JUMPI PUSH2 0x100 DUP1 DUP4 SLOAD DIV MUL DUP4 MSTORE SWAP2 PUSH1 0x20 ADD SWAP2 PUSH2 0x926 JUMP JUMPDEST DUP3 ADD SWAP2 SWAP1 PUSH0 MSTORE PUSH1 0x20 PUSH0 KECCAK256 SWAP1 JUMPDEST DUP2 SLOAD DUP2 MSTORE SWAP1 PUSH1 0x1 ADD SWAP1 PUSH1 0x20 ADD DUP1 DUP4 GT PUSH2 0x909 JUMPI DUP3 SWAP1 SUB PUSH1 0x1F AND DUP3 ADD SWAP2 JUMPDEST POP POP POP POP POP DUP2 MSTORE PUSH1 0x20 ADD PUSH1 0x4 DUP3 ADD PUSH0 SWAP1 SLOAD SWAP1 PUSH2 0x100 EXP SWAP1 DIV PUSH20 0xFFFFFFFFFFFFFFFFFFFFFFFFFFFFFFFFFFFFFFFF AND PUSH20 0xFFFFFFFFFFFFFFFFFFFFFFFFFFFFFFFFFFFFFFFF AND PUSH20 0xFFFFFFFFFFFFFFFFFFFFFFFFFFFFFFFFFFFFFFFF AND DUP2 MSTORE POP POP SWAP1 POP DUP1 PUSH0 ADD MLOAD DUP2 PUSH1 0x20 ADD MLOAD DUP3 PUSH1 0x40 ADD MLOAD DUP4 PUSH1 0x60 ADD MLOAD DUP5 PUSH1 0x80 ADD MLOAD SWAP6 POP SWAP6 POP SWAP6 POP SWAP6 POP SWAP6 POP POP SWAP2 SWAP4 SWAP6 SWAP1 SWAP3 SWAP5 POP JUMP JUMPDEST PUSH1 0x1 DUP2 DUP2 SLOAD DUP2 LT PUSH2 0x9C1 JUMPI PUSH0 DUP1 REVERT JUMPDEST SWAP1 PUSH0 MSTORE PUSH1 0x20 PUSH0 KECCAK256 ADD PUSH0 SWAP2 POP SLOAD SWAP1 PUSH2 0x100 EXP SWAP1 DIV PUSH20 0xFFFFFFFFFFFFFFFFFFFFFFFFFFFFFFFFFFFFFFFF AND DUP2 JUMP JUMPDEST PUSH0 PUSH1 0x40 MLOAD SWAP1 POP SWAP1 JUMP JUMPDEST PUSH0 DUP1 REVERT JUMPDEST PUSH0 DUP1 REVERT JUMPDEST PUSH0 PUSH20 0xFFFFFFFFFFFFFFFFFFFFFFFFFFFFFFFFFFFFFFFF DUP3 AND SWAP1 POP SWAP2 SWAP1 POP JUMP JUMPDEST PUSH0 PUSH2 0xA27 DUP3 PUSH2 0x9FE JUMP JUMPDEST SWAP1 POP SWAP2 SWAP1 POP JUMP JUMPDEST PUSH2 0xA37 DUP2 PUSH2 0xA1D JUMP JUMPDEST DUP2 EQ PUSH2 0xA41 JUMPI PUSH0 DUP1 REVERT JUMPDEST POP JUMP JUMPDEST PUSH0 DUP2 CALLDATALOAD SWAP1 POP PUSH2 0xA52 DUP2 PUSH2 0xA2E JUMP JUMPDEST SWAP3 SWAP2 POP POP JUMP JUMPDEST PUSH0 PUSH1 0x20 DUP3 DUP5 SUB SLT ISZERO PUSH2 0xA6D JUMPI PUSH2 0xA6C PUSH2 0x9F6 JUMP JUMPDEST JUMPDEST PUSH0 PUSH2 0xA7A DUP5 DUP3 DUP6 ADD PUSH2 0xA44 JUMP JUMPDEST SWAP2 POP POP SWAP3 SWAP2 POP POP JUMP JUMPDEST PUSH0 DUP2 MLOAD SWAP1 POP SWAP2 SWAP1 POP JUMP JUMPDEST PUSH0 DUP3 DUP3 MSTORE PUSH1 0x20 DUP3 ADD SWAP1 POP SWAP3 SWAP2 POP POP JUMP JUMPDEST DUP3 DUP2 DUP4 MCOPY PUSH0 DUP4 DUP4 ADD MSTORE POP POP POP JUMP JUMPDEST PUSH0 PUSH1 0x1F NOT PUSH1 0x1F DUP4 ADD AND SWAP1 POP SWAP2 SWAP1 POP JUMP JUMPDEST PUSH0 PUSH2 0xAC5 DUP3 PUSH2 0xA83 JUMP JUMPDEST PUSH2 0xACF DUP2 DUP6 PUSH2 0xA8D JUMP JUMPDEST SWAP4 POP PUSH2 0xADF DUP2 DUP6 PUSH1 0x20 DUP7 ADD PUSH2 0xA9D JUMP JUMPDEST PUSH2 0xAE8 DUP2 PUSH2 0xAAB JUMP JUMPDEST DUP5 ADD SWAP2 POP POP SWAP3 SWAP2 POP POP JUMP JUMPDEST PUSH2 0xAFC DUP2 PUSH2 0xA1D JUMP JUMPDEST DUP3 MSTORE POP POP JUMP JUMPDEST PUSH0 PUSH1 0xA0 DUP3 ADD SWAP1 POP DUP2 DUP2 SUB PUSH0 DUP4 ADD MSTORE PUSH2 0xB1A DUP2 DUP9 PUSH2 0xABB JUMP JUMPDEST SWAP1 POP DUP2 DUP2 SUB PUSH1 0x20 DUP4 ADD MSTORE PUSH2 0xB2E DUP2 DUP8 PUSH2 0xABB JUMP JUMPDEST SWAP1 POP DUP2 DUP2 SUB PUSH1 0x40 DUP4 ADD MSTORE PUSH2 0xB42 DUP2 DUP7 PUSH2 0xABB JUMP JUMPDEST SWAP1 POP DUP2 DUP2 SUB PUSH1 0x60 DUP4 ADD MSTORE PUSH2 0xB56 DUP2 DUP6 PUSH2 0xABB JUMP JUMPDEST SWAP1 POP PUSH2 0xB65 PUSH1 0x80 DUP4 ADD DUP5 PUSH2 0xAF3 JUMP JUMPDEST SWAP7 SWAP6 POP POP POP POP POP POP JUMP JUMPDEST PUSH0 DUP2 MLOAD SWAP1 POP SWAP2 SWAP1 POP JUMP JUMPDEST PUSH0 DUP3 DUP3 MSTORE PUSH1 0x20 DUP3 ADD SWAP1 POP SWAP3 SWAP2 POP POP JUMP JUMPDEST PUSH0 DUP2 SWAP1 POP PUSH1 0x20 DUP3 ADD SWAP1 POP SWAP2 SWAP1 POP JUMP JUMPDEST PUSH2 0xBA1 DUP2 PUSH2 0xA1D JUMP JUMPDEST DUP3 MSTORE POP POP JUMP JUMPDEST PUSH0 PUSH2 0xBB2 DUP4 DUP4 PUSH2 0xB98 JUMP JUMPDEST PUSH1 0x20 DUP4 ADD SWAP1 POP SWAP3 SWAP2 POP POP JUMP JUMPDEST PUSH0 PUSH1 0x20 DUP3 ADD SWAP1 POP SWAP2 SWAP1 POP JUMP JUMPDEST PUSH0 PUSH2 0xBD4 DUP3 PUSH2 0xB6F JUMP JUMPDEST PUSH2 0xBDE DUP2 DUP6 PUSH2 0xB79 JUMP JUMPDEST SWAP4 POP PUSH2 0xBE9 DUP4 PUSH2 0xB89 JUMP JUMPDEST DUP1 PUSH0 JUMPDEST DUP4 DUP2 LT ISZERO PUSH2 0xC19 JUMPI DUP2 MLOAD PUSH2 0xC00 DUP9 DUP3 PUSH2 0xBA7 JUMP JUMPDEST SWAP8 POP PUSH2 0xC0B DUP4 PUSH2 0xBBE JUMP JUMPDEST SWAP3 POP POP PUSH1 0x1 DUP2 ADD SWAP1 POP PUSH2 0xBEC JUMP JUMPDEST POP DUP6 SWAP4 POP POP POP POP SWAP3 SWAP2 POP POP JUMP JUMPDEST PUSH0 PUSH1 0x20 DUP3 ADD SWAP1 POP DUP2 DUP2 SUB PUSH0 DUP4 ADD MSTORE PUSH2 0xC3E DUP2 DUP5 PUSH2 0xBCA JUMP JUMPDEST SWAP1 POP SWAP3 SWAP2 POP POP JUMP JUMPDEST PUSH0 DUP1 REVERT JUMPDEST PUSH0 DUP1 REVERT JUMPDEST PUSH32 0x4E487B7100000000000000000000000000000000000000000000000000000000 PUSH0 MSTORE PUSH1 0x41 PUSH1 0x4 MSTORE PUSH1 0x24 PUSH0 REVERT JUMPDEST PUSH2 0xC84 DUP3 PUSH2 0xAAB JUMP JUMPDEST DUP2 ADD DUP2 DUP2 LT PUSH8 0xFFFFFFFFFFFFFFFF DUP3 GT OR ISZERO PUSH2 0xCA3 JUMPI PUSH2 0xCA2 PUSH2 0xC4E JUMP JUMPDEST JUMPDEST DUP1 PUSH1 0x40 MSTORE POP POP POP JUMP JUMPDEST PUSH0 PUSH2 0xCB5 PUSH2 0x9ED JUMP JUMPDEST SWAP1 POP PUSH2 0xCC1 DUP3 DUP3 PUSH2 0xC7B JUMP JUMPDEST SWAP2 SWAP1 POP JUMP JUMPDEST PUSH0 PUSH8 0xFFFFFFFFFFFFFFFF DUP3 GT ISZERO PUSH2 0xCE0 JUMPI PUSH2 0xCDF PUSH2 0xC4E JUMP JUMPDEST JUMPDEST PUSH2 0xCE9 DUP3 PUSH2 0xAAB JUMP JUMPDEST SWAP1 POP PUSH1 0x20 DUP2 ADD SWAP1 POP SWAP2 SWAP1 POP JUMP JUMPDEST DUP3 DUP2 DUP4 CALLDATACOPY PUSH0 DUP4 DUP4 ADD MSTORE POP POP POP JUMP JUMPDEST PUSH0 PUSH2 0xD16 PUSH2 0xD11 DUP5 PUSH2 0xCC6 JUMP JUMPDEST PUSH2 0xCAC JUMP JUMPDEST SWAP1 POP DUP3 DUP2 MSTORE PUSH1 0x20 DUP2 ADD DUP5 DUP5 DUP5 ADD GT ISZERO PUSH2 0xD32 JUMPI PUSH2 0xD31 PUSH2 0xC4A JUMP JUMPDEST JUMPDEST PUSH2 0xD3D DUP5 DUP3 DUP6 PUSH2 0xCF6 JUMP JUMPDEST POP SWAP4 SWAP3 POP POP POP JUMP JUMPDEST PUSH0 DUP3 PUSH1 0x1F DUP4 ADD SLT PUSH2 0xD59 JUMPI PUSH2 0xD58 PUSH2 0xC46 JUMP JUMPDEST JUMPDEST DUP2 CALLDATALOAD PUSH2 0xD69 DUP5 DUP3 PUSH1 0x20 DUP7 ADD PUSH2 0xD04 JUMP JUMPDEST SWAP2 POP POP SWAP3 SWAP2 POP POP JUMP JUMPDEST PUSH0 DUP1 PUSH0 DUP1 PUSH1 0x80 DUP6 DUP8 SUB SLT ISZERO PUSH2 0xD8A JUMPI PUSH2 0xD89 PUSH2 0x9F6 JUMP JUMPDEST JUMPDEST PUSH0 DUP6 ADD CALLDATALOAD PUSH8 0xFFFFFFFFFFFFFFFF DUP2 GT ISZERO PUSH2 0xDA7 JUMPI PUSH2 0xDA6 PUSH2 0x9FA JUMP JUMPDEST JUMPDEST PUSH2 0xDB3 DUP8 DUP3 DUP9 ADD PUSH2 0xD45 JUMP JUMPDEST SWAP5 POP POP PUSH1 0x20 DUP6 ADD CALLDATALOAD PUSH8 0xFFFFFFFFFFFFFFFF DUP2 GT ISZERO PUSH2 0xDD4 JUMPI PUSH2 0xDD3 PUSH2 0x9FA JUMP JUMPDEST JUMPDEST PUSH2 0xDE0 DUP8 DUP3 DUP9 ADD PUSH2 0xD45 JUMP JUMPDEST SWAP4 POP POP PUSH1 0x40 DUP6 ADD CALLDATALOAD PUSH8 0xFFFFFFFFFFFFFFFF DUP2 GT ISZERO PUSH2 0xE01 JUMPI PUSH2 0xE00 PUSH2 0x9FA JUMP JUMPDEST JUMPDEST PUSH2 0xE0D DUP8 DUP3 DUP9 ADD PUSH2 0xD45 JUMP JUMPDEST SWAP3 POP POP PUSH1 0x60 DUP6 ADD CALLDATALOAD PUSH8 0xFFFFFFFFFFFFFFFF DUP2 GT ISZERO PUSH2 0xE2E JUMPI PUSH2 0xE2D PUSH2 0x9FA JUMP JUMPDEST JUMPDEST PUSH2 0xE3A DUP8 DUP3 DUP9 ADD PUSH2 0xD45 JUMP JUMPDEST SWAP2 POP POP SWAP3 SWAP6 SWAP2 SWAP5 POP SWAP3 POP JUMP JUMPDEST PUSH0 DUP2 SWAP1 POP SWAP2 SWAP1 POP JUMP JUMPDEST PUSH2 0xE58 DUP2 PUSH2 0xE46 JUMP JUMPDEST DUP2 EQ PUSH2 0xE62 JUMPI PUSH0 DUP1 REVERT JUMPDEST POP JUMP JUMPDEST PUSH0 DUP2 CALLDATALOAD SWAP1 POP PUSH2 0xE73 DUP2 PUSH2 0xE4F JUMP JUMPDEST SWAP3 SWAP2 POP POP JUMP JUMPDEST PUSH0 PUSH1 0x20 DUP3 DUP5 SUB SLT ISZERO PUSH2 0xE8E JUMPI PUSH2 0xE8D PUSH2 0x9F6 JUMP JUMPDEST JUMPDEST PUSH0 PUSH2 0xE9B DUP5 DUP3 DUP6 ADD PUSH2 0xE65 JUMP JUMPDEST SWAP2 POP POP SWAP3 SWAP2 POP POP JUMP JUMPDEST PUSH0 PUSH1 0x20 DUP3 ADD SWAP1 POP PUSH2 0xEB7 PUSH0 DUP4 ADD DUP5 PUSH2 0xAF3 JUMP JUMPDEST SWAP3 SWAP2 POP POP JUMP JUMPDEST PUSH32 0x4E487B7100000000000000000000000000000000000000000000000000000000 PUSH0 MSTORE PUSH1 0x22 PUSH1 0x4 MSTORE PUSH1 0x24 PUSH0 REVERT JUMPDEST PUSH0 PUSH1 0x2 DUP3 DIV SWAP1 POP PUSH1 0x1 DUP3 AND DUP1 PUSH2 0xF01 JUMPI PUSH1 0x7F DUP3 AND SWAP2 POP JUMPDEST PUSH1 0x20 DUP3 LT DUP2 SUB PUSH2 0xF14 JUMPI PUSH2 0xF13 PUSH2 0xEBD JUMP JUMPDEST JUMPDEST POP SWAP2 SWAP1 POP JUMP JUMPDEST PUSH32 0x50617469656E7420616C72656164792072656769737465726564000000000000 PUSH0 DUP3 ADD MSTORE POP JUMP JUMPDEST PUSH0 PUSH2 0xF4E PUSH1 0x1A DUP4 PUSH2 0xA8D JUMP JUMPDEST SWAP2 POP PUSH2 0xF59 DUP3 PUSH2 0xF1A JUMP JUMPDEST PUSH1 0x20 DUP3 ADD SWAP1 POP SWAP2 SWAP1 POP JUMP JUMPDEST PUSH0 PUSH1 0x20 DUP3 ADD SWAP1 POP DUP2 DUP2 SUB PUSH0 DUP4 ADD MSTORE PUSH2 0xF7B DUP2 PUSH2 0xF42 JUMP JUMPDEST SWAP1 POP SWAP2 SWAP1 POP JUMP JUMPDEST PUSH0 DUP2 SWAP1 POP DUP2 PUSH0 MSTORE PUSH1 0x20 PUSH0 KECCAK256 SWAP1 POP SWAP2 SWAP1 POP JUMP JUMPDEST PUSH0 PUSH1 0x20 PUSH1 0x1F DUP4 ADD DIV SWAP1 POP SWAP2 SWAP1 POP JUMP JUMPDEST PUSH0 DUP3 DUP3 SHL SWAP1 POP SWAP3 SWAP2 POP POP JUMP JUMPDEST PUSH0 PUSH1 0x8 DUP4 MUL PUSH2 0xFDE PUSH32 0xFFFFFFFFFFFFFFFFFFFFFFFFFFFFFFFFFFFFFFFFFFFFFFFFFFFFFFFFFFFFFFFF DUP3 PUSH2 0xFA3 JUMP JUMPDEST PUSH2 0xFE8 DUP7 DUP4 PUSH2 0xFA3 JUMP JUMPDEST SWAP6 POP DUP1 NOT DUP5 AND SWAP4 POP DUP1 DUP7 AND DUP5 OR SWAP3 POP POP POP SWAP4 SWAP3 POP POP POP JUMP JUMPDEST PUSH0 DUP2 SWAP1 POP SWAP2 SWAP1 POP JUMP JUMPDEST PUSH0 PUSH2 0x1023 PUSH2 0x101E PUSH2 0x1019 DUP5 PUSH2 0xE46 JUMP JUMPDEST PUSH2 0x1000 JUMP JUMPDEST PUSH2 0xE46 JUMP JUMPDEST SWAP1 POP SWAP2 SWAP1 POP JUMP JUMPDEST PUSH0 DUP2 SWAP1 POP SWAP2 SWAP1 POP JUMP JUMPDEST PUSH2 0x103C DUP4 PUSH2 0x1009 JUMP JUMPDEST PUSH2 0x1050 PUSH2 0x1048 DUP3 PUSH2 0x102A JUMP JUMPDEST DUP5 DUP5 SLOAD PUSH2 0xFAF JUMP JUMPDEST DUP3 SSTORE POP POP POP POP JUMP JUMPDEST PUSH0 SWAP1 JUMP JUMPDEST PUSH2 0x1064 PUSH2 0x1058 JUMP JUMPDEST PUSH2 0x106F DUP2 DUP5 DUP5 PUSH2 0x1033 JUMP JUMPDEST POP POP POP JUMP JUMPDEST JUMPDEST DUP2 DUP2 LT ISZERO PUSH2 0x1092 JUMPI PUSH2 0x1087 PUSH0 DUP3 PUSH2 0x105C JUMP JUMPDEST PUSH1 0x1 DUP2 ADD SWAP1 POP PUSH2 0x1075 JUMP JUMPDEST POP POP JUMP JUMPDEST PUSH1 0x1F DUP3 GT ISZERO PUSH2 0x10D7 JUMPI PUSH2 0x10A8 DUP2 PUSH2 0xF82 JUMP JUMPDEST PUSH2 0x10B1 DUP5 PUSH2 0xF94 JUMP JUMPDEST DUP2 ADD PUSH1 0x20 DUP6 LT ISZERO PUSH2 0x10C0 JUMPI DUP2 SWAP1 POP JUMPDEST PUSH2 0x10D4 PUSH2 0x10CC DUP6 PUSH2 0xF94 JUMP JUMPDEST DUP4 ADD DUP3 PUSH2 0x1074 JUMP JUMPDEST POP POP JUMPDEST POP POP POP JUMP JUMPDEST PUSH0 DUP3 DUP3 SHR SWAP1 POP SWAP3 SWAP2 POP POP JUMP JUMPDEST PUSH0 PUSH2 0x10F7 PUSH0 NOT DUP5 PUSH1 0x8 MUL PUSH2 0x10DC JUMP JUMPDEST NOT DUP1 DUP4 AND SWAP2 POP POP SWAP3 SWAP2 POP POP JUMP JUMPDEST PUSH0 PUSH2 0x110F DUP4 DUP4 PUSH2 0x10E8 JUMP JUMPDEST SWAP2 POP DUP3 PUSH1 0x2 MUL DUP3 OR SWAP1 POP SWAP3 SWAP2 POP POP JUMP JUMPDEST PUSH2 0x1128 DUP3 PUSH2 0xA83 JUMP JUMPDEST PUSH8 0xFFFFFFFFFFFFFFFF DUP2 GT ISZERO PUSH2 0x1141 JUMPI PUSH2 0x1140 PUSH2 0xC4E JUMP JUMPDEST JUMPDEST PUSH2 0x114B DUP3 SLOAD PUSH2 0xEEA JUMP JUMPDEST PUSH2 0x1156 DUP3 DUP3 DUP6 PUSH2 0x1096 JUMP JUMPDEST PUSH0 PUSH1 0x20 SWAP1 POP PUSH1 0x1F DUP4 GT PUSH1 0x1 DUP2 EQ PUSH2 0x1187 JUMPI PUSH0 DUP5 ISZERO PUSH2 0x1175 JUMPI DUP3 DUP8 ADD MLOAD SWAP1 POP JUMPDEST PUSH2 0x117F DUP6 DUP3 PUSH2 0x1104 JUMP JUMPDEST DUP7 SSTORE POP PUSH2 0x11E6 JUMP JUMPDEST PUSH1 0x1F NOT DUP5 AND PUSH2 0x1195 DUP7 PUSH2 0xF82 JUMP JUMPDEST PUSH0 JUMPDEST DUP3 DUP2 LT ISZERO PUSH2 0x11BC JUMPI DUP5 DUP10 ADD MLOAD DUP3 SSTORE PUSH1 0x1 DUP3 ADD SWAP2 POP PUSH1 0x20 DUP6 ADD SWAP5 POP PUSH1 0x20 DUP2 ADD SWAP1 POP PUSH2 0x1197 JUMP JUMPDEST DUP7 DUP4 LT ISZERO PUSH2 0x11D9 JUMPI DUP5 DUP10 ADD MLOAD PUSH2 0x11D5 PUSH1 0x1F DUP10 AND DUP3 PUSH2 0x10E8 JUMP JUMPDEST DUP4 SSTORE POP JUMPDEST PUSH1 0x1 PUSH1 0x2 DUP9 MUL ADD DUP9 SSTORE POP POP POP JUMPDEST POP POP POP POP POP POP JUMP JUMPDEST PUSH0 PUSH1 0x40 DUP3 ADD SWAP1 POP PUSH2 0x1201 PUSH0 DUP4 ADD DUP6 PUSH2 0xAF3 JUMP JUMPDEST DUP2 DUP2 SUB PUSH1 0x20 DUP4 ADD MSTORE PUSH2 0x1213 DUP2 DUP5 PUSH2 0xABB JUMP JUMPDEST SWAP1 POP SWAP4 SWAP3 POP POP POP JUMP INVALID LOG2 PUSH5 0x6970667358 0x22 SLT KECCAK256 0xC5 0xC2 EXP 0x1F 0x22 0xCB 0xAC PUSH32 0x44306183F9F35205F5DFD5D59A77DE7A5C3FB9D7D706E4EA64736F6C63430008 BYTE STOP CALLER "
		},
		"gasEstimates": {
			"creation": {
				"codeDepositCost": "938000",
				"executionCost": "973",
				"totalCost": "938973"
			},
			"external": {
				"getAllPatients()": "infinite",
				"getPatient(address)": "infinite",
				"patientList(uint256)": "5010",
				"patients(address)": "infinite",
				"registerPatient(string,string,string,string)": "infinite"
			}
		},
		"methodIdentifiers": {
			"getAllPatients()": "18a231a9",
			"getPatient(address)": "b5368e20",
			"patientList(uint256)": "babb1d41",
			"patients(address)": "0869cfbc",
			"registerPatient(string,string,string,string)": "4ba0a020"
		}
	},
	"abi": [
		{
			"anonymous": false,
			"inputs": [
				{
					"indexed": false,
					"internalType": "address",
					"name": "patient",
					"type": "address"
				},
				{
					"indexed": false,
					"internalType": "string",
					"name": "organNeeded",
					"type": "string"
				}
			],
			"name": "PatientRegistered",
			"type": "event"
		},
		{
			"inputs": [],
			"name": "getAllPatients",
			"outputs": [
				{
					"internalType": "address[]",
					"name": "",
					"type": "address[]"
				}
			],
			"stateMutability": "view",
			"type": "function"
		},
		{
			"inputs": [
				{
					"internalType": "address",
					"name": "patient",
					"type": "address"
				}
			],
			"name": "getPatient",
			"outputs": [
				{
					"internalType": "string",
					"name": "",
					"type": "string"
				},
				{
					"internalType": "string",
					"name": "",
					"type": "string"
				},
				{
					"internalType": "string",
					"name": "",
					"type": "string"
				},
				{
					"internalType": "string",
					"name": "",
					"type": "string"
				},
				{
					"internalType": "address",
					"name": "",
					"type": "address"
				}
			],
			"stateMutability": "view",
			"type": "function"
		},
		{
			"inputs": [
				{
					"internalType": "uint256",
					"name": "",
					"type": "uint256"
				}
			],
			"name": "patientList",
			"outputs": [
				{
					"internalType": "address",
					"name": "",
					"type": "address"
				}
			],
			"stateMutability": "view",
			"type": "function"
		},
		{
			"inputs": [
				{
					"internalType": "address",
					"name": "",
					"type": "address"
				}
			],
			"name": "patients",
			"outputs": [
				{
					"internalType": "string",
					"name": "name",
					"type": "string"
				},
				{
					"internalType": "string",
					"name": "gender",
					"type": "string"
				},
				{
					"internalType": "string",
					"name": "bloodType",
					"type": "string"
				},
				{
					"internalType": "string",
					"name": "neededOrgan",
					"type": "string"
				},
				{
					"internalType": "address",
					"name": "patientAddress",
					"type": "address"
				}
			],
			"stateMutability": "view",
			"type": "function"
		},
		{
			"inputs": [
				{
					"internalType": "string",
					"name": "_name",
					"type": "string"
				},
				{
					"internalType": "string",
					"name": "_gender",
					"type": "string"
				},
				{
					"internalType": "string",
					"name": "_bloodType",
					"type": "string"
				},
				{
					"internalType": "string",
					"name": "_neededOrgan",
					"type": "string"
				}
			],
			"name": "registerPatient",
			"outputs": [],
			"stateMutability": "nonpayable",
			"type": "function"
		}
	]
}