{
	"mediHack/OrganEscrow.sol": {
		"OrganEscrow": {
			"abi": [
				{
					"inputs": [
						{
							"internalType": "address",
							"name": "_patientRegistry",
							"type": "address"
						},
						{
							"internalType": "address",
							"name": "_organNFT",
							"type": "address"
						}
					],
					"stateMutability": "nonpayable",
					"type": "constructor"
				},
				{
					"anonymous": false,
					"inputs": [
						{
							"indexed": true,
							"internalType": "uint256",
							"name": "escrowId",
							"type": "uint256"
						}
					],
					"name": "OrganApprovedByDoctor",
					"type": "event"
				},
				{
					"anonymous": false,
					"inputs": [
						{
							"indexed": true,
							"internalType": "uint256",
							"name": "escrowId",
							"type": "uint256"
						},
						{
							"indexed": true,
							"internalType": "address",
							"name": "donor",
							"type": "address"
						},
						{
							"indexed": true,
							"internalType": "address",
							"name": "patient",
							"type": "address"
						},
						{
							"indexed": false,
							"internalType": "uint256",
							"name": "tokenId",
							"type": "uint256"
						}
					],
					"name": "OrganEscrowCreated",
					"type": "event"
				},
				{
					"anonymous": false,
					"inputs": [
						{
							"indexed": true,
							"internalType": "uint256",
							"name": "escrowId",
							"type": "uint256"
						},
						{
							"indexed": true,
							"internalType": "address",
							"name": "recipient",
							"type": "address"
						}
					],
					"name": "OrganTransferred",
					"type": "event"
				},
				{
					"inputs": [
						{
							"internalType": "uint256",
							"name": "_tokenId",
							"type": "uint256"
						}
					],
					"name": "approveDonation",
					"outputs": [],
					"stateMutability": "nonpayable",
					"type": "function"
				},
				{
					"inputs": [
						{
							"internalType": "uint256",
							"name": "escrowId",
							"type": "uint256"
						}
					],
					"name": "approveTransfer",
					"outputs": [],
					"stateMutability": "nonpayable",
					"type": "function"
				},
				{
					"inputs": [
						{
							"internalType": "address",
							"name": "_patient",
							"type": "address"
						},
						{
							"internalType": "uint256",
							"name": "_tokenId",
							"type": "uint256"
						}
					],
					"name": "createEscrow",
					"outputs": [],
					"stateMutability": "nonpayable",
					"type": "function"
				},
				{
					"inputs": [],
					"name": "doctor",
					"outputs": [
						{
							"internalType": "address",
							"name": "",
							"type": "address"
						}
					],
					"stateMutability": "view",
					"type": "function"
				},
				{
					"inputs": [
						{
							"internalType": "uint256",
							"name": "",
							"type": "uint256"
						}
					],
					"name": "donorApproved",
					"outputs": [
						{
							"internalType": "bool",
							"name": "",
							"type": "bool"
						}
					],
					"stateMutability": "view",
					"type": "function"
				},
				{
					"inputs": [
						{
							"internalType": "uint256",
							"name": "",
							"type": "uint256"
						}
					],
					"name": "escrows",
					"outputs": [
						{
							"internalType": "address",
							"name": "donor",
							"type": "address"
						},
						{
							"internalType": "address",
							"name": "patient",
							"type": "address"
						},
						{
							"internalType": "uint256",
							"name": "tokenId",
							"type": "uint256"
						},
						{
							"internalType": "bool",
							"name": "approvedByDoctor",
							"type": "bool"
						}
					],
					"stateMutability": "view",
					"type": "function"
				},
				{
					"inputs": [],
					"name": "getEscrows",
					"outputs": [
						{
							"components": [
								{
									"internalType": "address",
									"name": "donor",
									"type": "address"
								},
								{
									"internalType": "address",
									"name": "patient",
									"type": "address"
								},
								{
									"internalType": "uint256",
									"name": "tokenId",
									"type": "uint256"
								},
								{
									"internalType": "bool",
									"name": "approvedByDoctor",
									"type": "bool"
								}
							],
							"internalType": "struct OrganEscrow.Escrow[]",
							"name": "",
							"type": "tuple[]"
						}
					],
					"stateMutability": "view",
					"type": "function"
				},
				{
					"inputs": [],
					"name": "organNFT",
					"outputs": [
						{
							"internalType": "contract IOrganNFT",
							"name": "",
							"type": "address"
						}
					],
					"stateMutability": "view",
					"type": "function"
				},
				{
					"inputs": [],
					"name": "patientRegistry",
					"outputs": [
						{
							"internalType": "contract IPatientRegistry",
							"name": "",
							"type": "address"
						}
					],
					"stateMutability": "view",
					"type": "function"
				}
			],
			"devdoc": {
				"kind": "dev",
				"methods": {},
				"version": 1
			},
			"evm": {
				"assembly": "    /* \"mediHack/OrganEscrow.sol\":796:4506  contract OrganEscrow {... */\n  mstore(0x40, 0x80)\n    /* \"mediHack/OrganEscrow.sol\":1527:1723  constructor(address _patientRegistry, address _organNFT) {... */\n  callvalue\n  dup1\n  iszero\n  tag_1\n  jumpi\n  0x00\n  dup1\n  revert\ntag_1:\n  pop\n  mload(0x40)\n  sub(codesize, bytecodeSize)\n  dup1\n  bytecodeSize\n  dup4\n  codecopy\n  dup2\n  dup2\n  add\n  0x40\n  mstore\n  dup2\n  add\n  swap1\n  tag_2\n  swap2\n  swap1\n  tag_3\n  jump\t// in\ntag_2:\n    /* \"mediHack/OrganEscrow.sol\":1603:1613  msg.sender */\n  caller\n    /* \"mediHack/OrganEscrow.sol\":1594:1600  doctor */\n  0x00\n  dup1\n    /* \"mediHack/OrganEscrow.sol\":1594:1613  doctor = msg.sender */\n  0x0100\n  exp\n  dup2\n  sload\n  dup2\n  0xffffffffffffffffffffffffffffffffffffffff\n  mul\n  not\n  and\n  swap1\n  dup4\n  0xffffffffffffffffffffffffffffffffffffffff\n  and\n  mul\n  or\n  swap1\n  sstore\n  pop\n    /* \"mediHack/OrganEscrow.sol\":1658:1674  _patientRegistry */\n  dup2\n    /* \"mediHack/OrganEscrow.sol\":1623:1638  patientRegistry */\n  0x01\n  0x00\n    /* \"mediHack/OrganEscrow.sol\":1623:1675  patientRegistry = IPatientRegistry(_patientRegistry) */\n  0x0100\n  exp\n  dup2\n  sload\n  dup2\n  0xffffffffffffffffffffffffffffffffffffffff\n  mul\n  not\n  and\n  swap1\n  dup4\n  0xffffffffffffffffffffffffffffffffffffffff\n  and\n  mul\n  or\n  swap1\n  sstore\n  pop\n    /* \"mediHack/OrganEscrow.sol\":1706:1715  _organNFT */\n  dup1\n    /* \"mediHack/OrganEscrow.sol\":1685:1693  organNFT */\n  0x02\n  0x00\n    /* \"mediHack/OrganEscrow.sol\":1685:1716  organNFT = IOrganNFT(_organNFT) */\n  0x0100\n  exp\n  dup2\n  sload\n  dup2\n  0xffffffffffffffffffffffffffffffffffffffff\n  mul\n  not\n  and\n  swap1\n  dup4\n  0xffffffffffffffffffffffffffffffffffffffff\n  and\n  mul\n  or\n  swap1\n  sstore\n  pop\n    /* \"mediHack/OrganEscrow.sol\":1527:1723  constructor(address _patientRegistry, address _organNFT) {... */\n  pop\n  pop\n    /* \"mediHack/OrganEscrow.sol\":796:4506  contract OrganEscrow {... */\n  jump(tag_6)\n    /* \"#utility.yul\":88:205   */\ntag_8:\n    /* \"#utility.yul\":197:198   */\n  0x00\n    /* \"#utility.yul\":194:195   */\n  dup1\n    /* \"#utility.yul\":187:199   */\n  revert\n    /* \"#utility.yul\":334:460   */\ntag_10:\n    /* \"#utility.yul\":371:378   */\n  0x00\n    /* \"#utility.yul\":411:453   */\n  0xffffffffffffffffffffffffffffffffffffffff\n    /* \"#utility.yul\":404:409   */\n  dup3\n    /* \"#utility.yul\":400:454   */\n  and\n    /* \"#utility.yul\":389:454   */\n  swap1\n  pop\n    /* \"#utility.yul\":334:460   */\n  swap2\n  swap1\n  pop\n  jump\t// out\n    /* \"#utility.yul\":466:562   */\ntag_11:\n    /* \"#utility.yul\":503:510   */\n  0x00\n    /* \"#utility.yul\":532:556   */\n  tag_20\n    /* \"#utility.yul\":550:555   */\n  dup3\n    /* \"#utility.yul\":532:556   */\n  tag_10\n  jump\t// in\ntag_20:\n    /* \"#utility.yul\":521:556   */\n  swap1\n  pop\n    /* \"#utility.yul\":466:562   */\n  swap2\n  swap1\n  pop\n  jump\t// out\n    /* \"#utility.yul\":568:690   */\ntag_12:\n    /* \"#utility.yul\":641:665   */\n  tag_22\n    /* \"#utility.yul\":659:664   */\n  dup2\n    /* \"#utility.yul\":641:665   */\n  tag_11\n  jump\t// in\ntag_22:\n    /* \"#utility.yul\":634:639   */\n  dup2\n    /* \"#utility.yul\":631:666   */\n  eq\n    /* \"#utility.yul\":621:684   */\n  tag_23\n  jumpi\n    /* \"#utility.yul\":680:681   */\n  0x00\n    /* \"#utility.yul\":677:678   */\n  dup1\n    /* \"#utility.yul\":670:682   */\n  revert\n    /* \"#utility.yul\":621:684   */\ntag_23:\n    /* \"#utility.yul\":568:690   */\n  pop\n  jump\t// out\n    /* \"#utility.yul\":696:839   */\ntag_13:\n    /* \"#utility.yul\":753:758   */\n  0x00\n    /* \"#utility.yul\":784:790   */\n  dup2\n    /* \"#utility.yul\":778:791   */\n  mload\n    /* \"#utility.yul\":769:791   */\n  swap1\n  pop\n    /* \"#utility.yul\":800:833   */\n  tag_25\n    /* \"#utility.yul\":827:832   */\n  dup2\n    /* \"#utility.yul\":800:833   */\n  tag_12\n  jump\t// in\ntag_25:\n    /* \"#utility.yul\":696:839   */\n  swap3\n  swap2\n  pop\n  pop\n  jump\t// out\n    /* \"#utility.yul\":845:1352   */\ntag_3:\n    /* \"#utility.yul\":924:930   */\n  0x00\n    /* \"#utility.yul\":932:938   */\n  dup1\n    /* \"#utility.yul\":981:983   */\n  0x40\n    /* \"#utility.yul\":969:978   */\n  dup4\n    /* \"#utility.yul\":960:967   */\n  dup6\n    /* \"#utility.yul\":956:979   */\n  sub\n    /* \"#utility.yul\":952:984   */\n  slt\n    /* \"#utility.yul\":949:1068   */\n  iszero\n  tag_27\n  jumpi\n    /* \"#utility.yul\":987:1066   */\n  tag_28\n  tag_8\n  jump\t// in\ntag_28:\n    /* \"#utility.yul\":949:1068   */\ntag_27:\n    /* \"#utility.yul\":1107:1108   */\n  0x00\n    /* \"#utility.yul\":1132:1196   */\n  tag_29\n    /* \"#utility.yul\":1188:1195   */\n  dup6\n    /* \"#utility.yul\":1179:1185   */\n  dup3\n    /* \"#utility.yul\":1168:1177   */\n  dup7\n    /* \"#utility.yul\":1164:1186   */\n  add\n    /* \"#utility.yul\":1132:1196   */\n  tag_13\n  jump\t// in\ntag_29:\n    /* \"#utility.yul\":1122:1196   */\n  swap3\n  pop\n    /* \"#utility.yul\":1078:1206   */\n  pop\n    /* \"#utility.yul\":1245:1247   */\n  0x20\n    /* \"#utility.yul\":1271:1335   */\n  tag_30\n    /* \"#utility.yul\":1327:1334   */\n  dup6\n    /* \"#utility.yul\":1318:1324   */\n  dup3\n    /* \"#utility.yul\":1307:1316   */\n  dup7\n    /* \"#utility.yul\":1303:1325   */\n  add\n    /* \"#utility.yul\":1271:1335   */\n  tag_13\n  jump\t// in\ntag_30:\n    /* \"#utility.yul\":1261:1335   */\n  swap2\n  pop\n    /* \"#utility.yul\":1216:1345   */\n  pop\n    /* \"#utility.yul\":845:1352   */\n  swap3\n  pop\n  swap3\n  swap1\n  pop\n  jump\t// out\n    /* \"mediHack/OrganEscrow.sol\":796:4506  contract OrganEscrow {... */\ntag_6:\n  dataSize(sub_0)\n  dup1\n  dataOffset(sub_0)\n  0x00\n  codecopy\n  0x00\n  return\nstop\n\nsub_0: assembly {\n        /* \"mediHack/OrganEscrow.sol\":796:4506  contract OrganEscrow {... */\n      mstore(0x40, 0x80)\n      callvalue\n      dup1\n      iszero\n      tag_1\n      jumpi\n      0x00\n      dup1\n      revert\n    tag_1:\n      pop\n      jumpi(tag_2, lt(calldatasize, 0x04))\n      shr(0xe0, calldataload(0x00))\n      dup1\n      0x6afcb6da\n      gt\n      tag_12\n      jumpi\n      dup1\n      0x6afcb6da\n      eq\n      tag_7\n      jumpi\n      dup1\n      0x7ea7118c\n      eq\n      tag_8\n      jumpi\n      dup1\n      0xb4e30b40\n      eq\n      tag_9\n      jumpi\n      dup1\n      0xc69f34a3\n      eq\n      tag_10\n      jumpi\n      dup1\n      0xcacca4a0\n      eq\n      tag_11\n      jumpi\n      jump(tag_2)\n    tag_12:\n      dup1\n      0x012f52ee\n      eq\n      tag_3\n      jumpi\n      dup1\n      0x4614874e\n      eq\n      tag_4\n      jumpi\n      dup1\n      0x5250c6e2\n      eq\n      tag_5\n      jumpi\n      dup1\n      0x6905351f\n      eq\n      tag_6\n      jumpi\n    tag_2:\n      0x00\n      dup1\n      revert\n        /* \"mediHack/OrganEscrow.sol\":1109:1132  Escrow[] public escrows */\n    tag_3:\n      tag_13\n      0x04\n      dup1\n      calldatasize\n      sub\n      dup2\n      add\n      swap1\n      tag_14\n      swap2\n      swap1\n      tag_15\n      jump\t// in\n    tag_14:\n      tag_16\n      jump\t// in\n    tag_13:\n      mload(0x40)\n      tag_17\n      swap5\n      swap4\n      swap3\n      swap2\n      swap1\n      tag_18\n      jump\t// in\n    tag_17:\n      mload(0x40)\n      dup1\n      swap2\n      sub\n      swap1\n      return\n        /* \"mediHack/OrganEscrow.sol\":1921:3506  function createEscrow(address _patient, uint256 _tokenId) public {... */\n    tag_4:\n      tag_19\n      0x04\n      dup1\n      calldatasize\n      sub\n      dup2\n      add\n      swap1\n      tag_20\n      swap2\n      swap1\n      tag_21\n      jump\t// in\n    tag_20:\n      tag_22\n      jump\t// in\n    tag_19:\n      stop\n        /* \"mediHack/OrganEscrow.sol\":850:889  IPatientRegistry public patientRegistry */\n    tag_5:\n      tag_23\n      tag_24\n      jump\t// in\n    tag_23:\n      mload(0x40)\n      tag_25\n      swap2\n      swap1\n      tag_26\n      jump\t// in\n    tag_25:\n      mload(0x40)\n      dup1\n      swap2\n      sub\n      swap1\n      return\n        /* \"mediHack/OrganEscrow.sol\":1058:1103  mapping(uint256 => bool) public donorApproved */\n    tag_6:\n      tag_27\n      0x04\n      dup1\n      calldatasize\n      sub\n      dup2\n      add\n      swap1\n      tag_28\n      swap2\n      swap1\n      tag_15\n      jump\t// in\n    tag_28:\n      tag_29\n      jump\t// in\n    tag_27:\n      mload(0x40)\n      tag_30\n      swap2\n      swap1\n      tag_31\n      jump\t// in\n    tag_30:\n      mload(0x40)\n      dup1\n      swap2\n      sub\n      swap1\n      return\n        /* \"mediHack/OrganEscrow.sol\":3932:4023  function getEscrows() public view returns (Escrow[] memory) {... */\n    tag_7:\n      tag_32\n      tag_33\n      jump\t// in\n    tag_32:\n      mload(0x40)\n      tag_34\n      swap2\n      swap1\n      tag_35\n      jump\t// in\n    tag_34:\n      mload(0x40)\n      dup1\n      swap2\n      sub\n      swap1\n      return\n        /* \"mediHack/OrganEscrow.sol\":823:844  address public doctor */\n    tag_8:\n      tag_36\n      tag_37\n      jump\t// in\n    tag_36:\n      mload(0x40)\n      tag_38\n      swap2\n      swap1\n      tag_39\n      jump\t// in\n    tag_38:\n      mload(0x40)\n      dup1\n      swap2\n      sub\n      swap1\n      return\n        /* \"mediHack/OrganEscrow.sol\":895:920  IOrganNFT public organNFT */\n    tag_9:\n      tag_40\n      tag_41\n      jump\t// in\n    tag_40:\n      mload(0x40)\n      tag_42\n      swap2\n      swap1\n      tag_43\n      jump\t// in\n    tag_42:\n      mload(0x40)\n      dup1\n      swap2\n      sub\n      swap1\n      return\n        /* \"mediHack/OrganEscrow.sol\":1729:1915  function approveDonation(uint256 _tokenId) public {... */\n    tag_10:\n      tag_44\n      0x04\n      dup1\n      calldatasize\n      sub\n      dup2\n      add\n      swap1\n      tag_45\n      swap2\n      swap1\n      tag_15\n      jump\t// in\n    tag_45:\n      tag_46\n      jump\t// in\n    tag_44:\n      stop\n        /* \"mediHack/OrganEscrow.sol\":3512:3926  function approveTransfer(uint256 escrowId) public onlyDoctor {... */\n    tag_11:\n      tag_47\n      0x04\n      dup1\n      calldatasize\n      sub\n      dup2\n      add\n      swap1\n      tag_48\n      swap2\n      swap1\n      tag_15\n      jump\t// in\n    tag_48:\n      tag_49\n      jump\t// in\n    tag_47:\n      stop\n        /* \"mediHack/OrganEscrow.sol\":1109:1132  Escrow[] public escrows */\n    tag_16:\n      0x04\n      dup2\n      dup2\n      sload\n      dup2\n      lt\n      tag_50\n      jumpi\n      0x00\n      dup1\n      revert\n    tag_50:\n      swap1\n      0x00\n      mstore\n      keccak256(0x00, 0x20)\n      swap1\n      0x04\n      mul\n      add\n      0x00\n      swap2\n      pop\n      swap1\n      pop\n      dup1\n      0x00\n      add\n      0x00\n      swap1\n      sload\n      swap1\n      0x0100\n      exp\n      swap1\n      div\n      0xffffffffffffffffffffffffffffffffffffffff\n      and\n      swap1\n      dup1\n      0x01\n      add\n      0x00\n      swap1\n      sload\n      swap1\n      0x0100\n      exp\n      swap1\n      div\n      0xffffffffffffffffffffffffffffffffffffffff\n      and\n      swap1\n      dup1\n      0x02\n      add\n      sload\n      swap1\n      dup1\n      0x03\n      add\n      0x00\n      swap1\n      sload\n      swap1\n      0x0100\n      exp\n      swap1\n      div\n      0xff\n      and\n      swap1\n      pop\n      dup5\n      jump\t// out\n        /* \"mediHack/OrganEscrow.sol\":1921:3506  function createEscrow(address _patient, uint256 _tokenId) public {... */\n    tag_22:\n        /* \"mediHack/OrganEscrow.sol\":2004:2017  donorApproved */\n      0x03\n        /* \"mediHack/OrganEscrow.sol\":2004:2027  donorApproved[_tokenId] */\n      0x00\n        /* \"mediHack/OrganEscrow.sol\":2018:2026  _tokenId */\n      dup3\n        /* \"mediHack/OrganEscrow.sol\":2004:2027  donorApproved[_tokenId] */\n      dup2\n      mstore\n      0x20\n      add\n      swap1\n      dup2\n      mstore\n      0x20\n      add\n      0x00\n      keccak256\n      0x00\n      swap1\n      sload\n      swap1\n      0x0100\n      exp\n      swap1\n      div\n      0xff\n      and\n        /* \"mediHack/OrganEscrow.sol\":1996:2065  require(donorApproved[_tokenId], \"Donor has not approved this organ\") */\n      tag_53\n      jumpi\n      mload(0x40)\n      0x08c379a000000000000000000000000000000000000000000000000000000000\n      dup2\n      mstore\n      0x04\n      add\n      tag_54\n      swap1\n      tag_55\n      jump\t// in\n    tag_54:\n      mload(0x40)\n      dup1\n      swap2\n      sub\n      swap1\n      revert\n    tag_53:\n        /* \"mediHack/OrganEscrow.sol\":2174:2205  string memory patientBloodGroup */\n      0x00\n        /* \"mediHack/OrganEscrow.sol\":2219:2244  string memory neededOrgan */\n      dup1\n        /* \"mediHack/OrganEscrow.sol\":2257:2272  patientRegistry */\n      0x01\n      0x00\n      swap1\n      sload\n      swap1\n      0x0100\n      exp\n      swap1\n      div\n      0xffffffffffffffffffffffffffffffffffffffff\n      and\n        /* \"mediHack/OrganEscrow.sol\":2257:2283  patientRegistry.getPatient */\n      0xffffffffffffffffffffffffffffffffffffffff\n      and\n      0xb5368e20\n        /* \"mediHack/OrganEscrow.sol\":2284:2292  _patient */\n      dup6\n        /* \"mediHack/OrganEscrow.sol\":2257:2293  patientRegistry.getPatient(_patient) */\n      mload(0x40)\n      dup3\n      0xffffffff\n      and\n      0xe0\n      shl\n      dup2\n      mstore\n      0x04\n      add\n      tag_56\n      swap2\n      swap1\n      tag_39\n      jump\t// in\n    tag_56:\n      0x00\n      mload(0x40)\n      dup1\n      dup4\n      sub\n      dup2\n      dup7\n      gas\n      staticcall\n      iszero\n      dup1\n      iszero\n      tag_58\n      jumpi\n      returndatasize\n      0x00\n      dup1\n      returndatacopy\n      revert(0x00, returndatasize)\n    tag_58:\n      pop\n      pop\n      pop\n      pop\n      mload(0x40)\n      returndatasize\n      0x00\n      dup3\n      returndatacopy\n      returndatasize\n      not(0x1f)\n      0x1f\n      dup3\n      add\n      and\n      dup3\n      add\n      dup1\n      0x40\n      mstore\n      pop\n      dup2\n      add\n      swap1\n      tag_59\n      swap2\n      swap1\n      tag_60\n      jump\t// in\n    tag_59:\n        /* \"mediHack/OrganEscrow.sol\":2122:2293  (... */\n      swap4\n      pop\n      swap4\n      pop\n      pop\n      pop\n        /* \"mediHack/OrganEscrow.sol\":2340:2341  0 */\n      0x00\n        /* \"mediHack/OrganEscrow.sol\":2318:2329  neededOrgan */\n      dup2\n        /* \"mediHack/OrganEscrow.sol\":2312:2337  bytes(neededOrgan).length */\n      mload\n        /* \"mediHack/OrganEscrow.sol\":2312:2341  bytes(neededOrgan).length > 0 */\n      gt\n        /* \"mediHack/OrganEscrow.sol\":2304:2368  require(bytes(neededOrgan).length > 0, \"Patient does not exist\") */\n      tag_61\n      jumpi\n      mload(0x40)\n      0x08c379a000000000000000000000000000000000000000000000000000000000\n      dup2\n      mstore\n      0x04\n      add\n      tag_62\n      swap1\n      tag_63\n      jump\t// in\n    tag_62:\n      mload(0x40)\n      dup1\n      swap2\n      sub\n      swap1\n      revert\n    tag_61:\n        /* \"mediHack/OrganEscrow.sol\":2424:2447  string memory organType */\n      0x00\n        /* \"mediHack/OrganEscrow.sol\":2449:2478  string memory organBloodGroup */\n      dup1\n        /* \"mediHack/OrganEscrow.sol\":2482:2490  organNFT */\n      0x02\n      0x00\n      swap1\n      sload\n      swap1\n      0x0100\n      exp\n      swap1\n      div\n      0xffffffffffffffffffffffffffffffffffffffff\n      and\n        /* \"mediHack/OrganEscrow.sol\":2482:2506  organNFT.getOrganDetails */\n      0xffffffffffffffffffffffffffffffffffffffff\n      and\n      0x6d43b120\n        /* \"mediHack/OrganEscrow.sol\":2507:2515  _tokenId */\n      dup7\n        /* \"mediHack/OrganEscrow.sol\":2482:2516  organNFT.getOrganDetails(_tokenId) */\n      mload(0x40)\n      dup3\n      0xffffffff\n      and\n      0xe0\n      shl\n      dup2\n      mstore\n      0x04\n      add\n      tag_64\n      swap2\n      swap1\n      tag_65\n      jump\t// in\n    tag_64:\n      0x00\n      mload(0x40)\n      dup1\n      dup4\n      sub\n      dup2\n      dup7\n      gas\n      staticcall\n      iszero\n      dup1\n      iszero\n      tag_67\n      jumpi\n      returndatasize\n      0x00\n      dup1\n      returndatacopy\n      revert(0x00, returndatasize)\n    tag_67:\n      pop\n      pop\n      pop\n      pop\n      mload(0x40)\n      returndatasize\n      0x00\n      dup3\n      returndatacopy\n      returndatasize\n      not(0x1f)\n      0x1f\n      dup3\n      add\n      and\n      dup3\n      add\n      dup1\n      0x40\n      mstore\n      pop\n      dup2\n      add\n      swap1\n      tag_68\n      swap2\n      swap1\n      tag_69\n      jump\t// in\n    tag_68:\n        /* \"mediHack/OrganEscrow.sol\":2423:2516  (string memory organType, string memory organBloodGroup) = organNFT.getOrganDetails(_tokenId) */\n      swap2\n      pop\n      swap2\n      pop\n        /* \"mediHack/OrganEscrow.sol\":2702:2724  cleanString(organType) */\n      tag_70\n        /* \"mediHack/OrganEscrow.sol\":2714:2723  organType */\n      dup3\n        /* \"mediHack/OrganEscrow.sol\":2702:2713  cleanString */\n      tag_71\n        /* \"mediHack/OrganEscrow.sol\":2702:2724  cleanString(organType) */\n      jump\t// in\n    tag_70:\n        /* \"mediHack/OrganEscrow.sol\":2685:2725  abi.encodePacked(cleanString(organType)) */\n      add(0x20, mload(0x40))\n      tag_72\n      swap2\n      swap1\n      tag_73\n      jump\t// in\n    tag_72:\n      mload(0x40)\n      0x20\n      dup2\n      dup4\n      sub\n      sub\n      dup2\n      mstore\n      swap1\n      0x40\n      mstore\n        /* \"mediHack/OrganEscrow.sol\":2675:2726  keccak256(abi.encodePacked(cleanString(organType))) */\n      dup1\n      mload\n      swap1\n      0x20\n      add\n      keccak256\n        /* \"mediHack/OrganEscrow.sol\":2645:2669  cleanString(neededOrgan) */\n      tag_74\n        /* \"mediHack/OrganEscrow.sol\":2657:2668  neededOrgan */\n      dup5\n        /* \"mediHack/OrganEscrow.sol\":2645:2656  cleanString */\n      tag_71\n        /* \"mediHack/OrganEscrow.sol\":2645:2669  cleanString(neededOrgan) */\n      jump\t// in\n    tag_74:\n        /* \"mediHack/OrganEscrow.sol\":2628:2670  abi.encodePacked(cleanString(neededOrgan)) */\n      add(0x20, mload(0x40))\n      tag_75\n      swap2\n      swap1\n      tag_73\n      jump\t// in\n    tag_75:\n      mload(0x40)\n      0x20\n      dup2\n      dup4\n      sub\n      sub\n      dup2\n      mstore\n      swap1\n      0x40\n      mstore\n        /* \"mediHack/OrganEscrow.sol\":2618:2671  keccak256(abi.encodePacked(cleanString(neededOrgan))) */\n      dup1\n      mload\n      swap1\n      0x20\n      add\n      keccak256\n        /* \"mediHack/OrganEscrow.sol\":2618:2726  keccak256(abi.encodePacked(cleanString(neededOrgan))) == keccak256(abi.encodePacked(cleanString(organType))) */\n      eq\n        /* \"mediHack/OrganEscrow.sol\":2597:2771  require(... */\n      tag_76\n      jumpi\n      mload(0x40)\n      0x08c379a000000000000000000000000000000000000000000000000000000000\n      dup2\n      mstore\n      0x04\n      add\n      tag_77\n      swap1\n      tag_78\n      jump\t// in\n    tag_77:\n      mload(0x40)\n      dup1\n      swap2\n      sub\n      swap1\n      revert\n    tag_76:\n        /* \"mediHack/OrganEscrow.sol\":2892:2920  cleanString(organBloodGroup) */\n      tag_79\n        /* \"mediHack/OrganEscrow.sol\":2904:2919  organBloodGroup */\n      dup2\n        /* \"mediHack/OrganEscrow.sol\":2892:2903  cleanString */\n      tag_71\n        /* \"mediHack/OrganEscrow.sol\":2892:2920  cleanString(organBloodGroup) */\n      jump\t// in\n    tag_79:\n        /* \"mediHack/OrganEscrow.sol\":2875:2921  abi.encodePacked(cleanString(organBloodGroup)) */\n      add(0x20, mload(0x40))\n      tag_80\n      swap2\n      swap1\n      tag_73\n      jump\t// in\n    tag_80:\n      mload(0x40)\n      0x20\n      dup2\n      dup4\n      sub\n      sub\n      dup2\n      mstore\n      swap1\n      0x40\n      mstore\n        /* \"mediHack/OrganEscrow.sol\":2865:2922  keccak256(abi.encodePacked(cleanString(organBloodGroup))) */\n      dup1\n      mload\n      swap1\n      0x20\n      add\n      keccak256\n        /* \"mediHack/OrganEscrow.sol\":2829:2859  cleanString(patientBloodGroup) */\n      tag_81\n        /* \"mediHack/OrganEscrow.sol\":2841:2858  patientBloodGroup */\n      dup6\n        /* \"mediHack/OrganEscrow.sol\":2829:2840  cleanString */\n      tag_71\n        /* \"mediHack/OrganEscrow.sol\":2829:2859  cleanString(patientBloodGroup) */\n      jump\t// in\n    tag_81:\n        /* \"mediHack/OrganEscrow.sol\":2812:2860  abi.encodePacked(cleanString(patientBloodGroup)) */\n      add(0x20, mload(0x40))\n      tag_82\n      swap2\n      swap1\n      tag_73\n      jump\t// in\n    tag_82:\n      mload(0x40)\n      0x20\n      dup2\n      dup4\n      sub\n      sub\n      dup2\n      mstore\n      swap1\n      0x40\n      mstore\n        /* \"mediHack/OrganEscrow.sol\":2802:2861  keccak256(abi.encodePacked(cleanString(patientBloodGroup))) */\n      dup1\n      mload\n      swap1\n      0x20\n      add\n      keccak256\n        /* \"mediHack/OrganEscrow.sol\":2802:2922  keccak256(abi.encodePacked(cleanString(patientBloodGroup))) == keccak256(abi.encodePacked(cleanString(organBloodGroup))) */\n      eq\n        /* \"mediHack/OrganEscrow.sol\":2781:2968  require(... */\n      tag_83\n      jumpi\n      mload(0x40)\n      0x08c379a000000000000000000000000000000000000000000000000000000000\n      dup2\n      mstore\n      0x04\n      add\n      tag_84\n      swap1\n      tag_85\n      jump\t// in\n    tag_84:\n      mload(0x40)\n      dup1\n      swap2\n      sub\n      swap1\n      revert\n    tag_83:\n        /* \"mediHack/OrganEscrow.sol\":3120:3124  this */\n      address\n        /* \"mediHack/OrganEscrow.sol\":3078:3125  organNFT.getApproved(_tokenId) == address(this) */\n      0xffffffffffffffffffffffffffffffffffffffff\n      and\n        /* \"mediHack/OrganEscrow.sol\":3078:3086  organNFT */\n      0x02\n      0x00\n      swap1\n      sload\n      swap1\n      0x0100\n      exp\n      swap1\n      div\n      0xffffffffffffffffffffffffffffffffffffffff\n      and\n        /* \"mediHack/OrganEscrow.sol\":3078:3098  organNFT.getApproved */\n      0xffffffffffffffffffffffffffffffffffffffff\n      and\n      0x081812fc\n        /* \"mediHack/OrganEscrow.sol\":3099:3107  _tokenId */\n      dup8\n        /* \"mediHack/OrganEscrow.sol\":3078:3108  organNFT.getApproved(_tokenId) */\n      mload(0x40)\n      dup3\n      0xffffffff\n      and\n      0xe0\n      shl\n      dup2\n      mstore\n      0x04\n      add\n      tag_86\n      swap2\n      swap1\n      tag_65\n      jump\t// in\n    tag_86:\n      0x20\n      mload(0x40)\n      dup1\n      dup4\n      sub\n      dup2\n      dup7\n      gas\n      staticcall\n      iszero\n      dup1\n      iszero\n      tag_88\n      jumpi\n      returndatasize\n      0x00\n      dup1\n      returndatacopy\n      revert(0x00, returndatasize)\n    tag_88:\n      pop\n      pop\n      pop\n      pop\n      mload(0x40)\n      returndatasize\n      not(0x1f)\n      0x1f\n      dup3\n      add\n      and\n      dup3\n      add\n      dup1\n      0x40\n      mstore\n      pop\n      dup2\n      add\n      swap1\n      tag_89\n      swap2\n      swap1\n      tag_90\n      jump\t// in\n    tag_89:\n        /* \"mediHack/OrganEscrow.sol\":3078:3125  organNFT.getApproved(_tokenId) == address(this) */\n      0xffffffffffffffffffffffffffffffffffffffff\n      and\n      eq\n        /* \"mediHack/OrganEscrow.sol\":3070:3164  require(organNFT.getApproved(_tokenId) == address(this), \"Contract not approved for transfer\") */\n      tag_91\n      jumpi\n      mload(0x40)\n      0x08c379a000000000000000000000000000000000000000000000000000000000\n      dup2\n      mstore\n      0x04\n      add\n      tag_92\n      swap1\n      tag_93\n      jump\t// in\n    tag_92:\n      mload(0x40)\n      dup1\n      swap2\n      sub\n      swap1\n      revert\n    tag_91:\n        /* \"mediHack/OrganEscrow.sol\":3239:3247  organNFT */\n      0x02\n      0x00\n      swap1\n      sload\n      swap1\n      0x0100\n      exp\n      swap1\n      div\n      0xffffffffffffffffffffffffffffffffffffffff\n      and\n        /* \"mediHack/OrganEscrow.sol\":3239:3260  organNFT.transferFrom */\n      0xffffffffffffffffffffffffffffffffffffffff\n      and\n      0x23b872dd\n        /* \"mediHack/OrganEscrow.sol\":3261:3271  msg.sender */\n      caller\n        /* \"mediHack/OrganEscrow.sol\":3281:3285  this */\n      address\n        /* \"mediHack/OrganEscrow.sol\":3288:3296  _tokenId */\n      dup9\n        /* \"mediHack/OrganEscrow.sol\":3239:3297  organNFT.transferFrom(msg.sender, address(this), _tokenId) */\n      mload(0x40)\n      dup5\n      0xffffffff\n      and\n      0xe0\n      shl\n      dup2\n      mstore\n      0x04\n      add\n      tag_94\n      swap4\n      swap3\n      swap2\n      swap1\n      tag_95\n      jump\t// in\n    tag_94:\n      0x00\n      mload(0x40)\n      dup1\n      dup4\n      sub\n      dup2\n      0x00\n      dup8\n      dup1\n      extcodesize\n      iszero\n      dup1\n      iszero\n      tag_96\n      jumpi\n      0x00\n      dup1\n      revert\n    tag_96:\n      pop\n      gas\n      call\n      iszero\n      dup1\n      iszero\n      tag_98\n      jumpi\n      returndatasize\n      0x00\n      dup1\n      returndatacopy\n      revert(0x00, returndatasize)\n    tag_98:\n      pop\n      pop\n      pop\n      pop\n        /* \"mediHack/OrganEscrow.sol\":3355:3362  escrows */\n      0x04\n        /* \"mediHack/OrganEscrow.sol\":3368:3413  Escrow(msg.sender, _patient, _tokenId, false) */\n      mload(0x40)\n      dup1\n      0x80\n      add\n      0x40\n      mstore\n      dup1\n        /* \"mediHack/OrganEscrow.sol\":3375:3385  msg.sender */\n      caller\n        /* \"mediHack/OrganEscrow.sol\":3368:3413  Escrow(msg.sender, _patient, _tokenId, false) */\n      0xffffffffffffffffffffffffffffffffffffffff\n      and\n      dup2\n      mstore\n      0x20\n      add\n        /* \"mediHack/OrganEscrow.sol\":3387:3395  _patient */\n      dup9\n        /* \"mediHack/OrganEscrow.sol\":3368:3413  Escrow(msg.sender, _patient, _tokenId, false) */\n      0xffffffffffffffffffffffffffffffffffffffff\n      and\n      dup2\n      mstore\n      0x20\n      add\n        /* \"mediHack/OrganEscrow.sol\":3397:3405  _tokenId */\n      dup8\n        /* \"mediHack/OrganEscrow.sol\":3368:3413  Escrow(msg.sender, _patient, _tokenId, false) */\n      dup2\n      mstore\n      0x20\n      add\n        /* \"mediHack/OrganEscrow.sol\":3407:3412  false */\n      0x00\n        /* \"mediHack/OrganEscrow.sol\":3368:3413  Escrow(msg.sender, _patient, _tokenId, false) */\n      iszero\n      iszero\n      dup2\n      mstore\n      pop\n        /* \"mediHack/OrganEscrow.sol\":3355:3414  escrows.push(Escrow(msg.sender, _patient, _tokenId, false)) */\n      swap1\n      dup1\n      0x01\n      dup2\n      sload\n      add\n      dup1\n      dup3\n      sstore\n      dup1\n      swap2\n      pop\n      pop\n      0x01\n      swap1\n      sub\n      swap1\n      0x00\n      mstore\n      keccak256(0x00, 0x20)\n      swap1\n      0x04\n      mul\n      add\n      0x00\n      swap1\n      swap2\n      swap1\n      swap2\n      swap1\n      swap2\n      pop\n      0x00\n      dup3\n      add\n      mload\n      dup2\n      0x00\n      add\n      exp(0x0100, 0x00)\n      dup2\n      sload\n      dup2\n      0xffffffffffffffffffffffffffffffffffffffff\n      mul\n      not\n      and\n      swap1\n      dup4\n      0xffffffffffffffffffffffffffffffffffffffff\n      and\n      mul\n      or\n      swap1\n      sstore\n      pop\n      0x20\n      dup3\n      add\n      mload\n      dup2\n      0x01\n      add\n      exp(0x0100, 0x00)\n      dup2\n      sload\n      dup2\n      0xffffffffffffffffffffffffffffffffffffffff\n      mul\n      not\n      and\n      swap1\n      dup4\n      0xffffffffffffffffffffffffffffffffffffffff\n      and\n      mul\n      or\n      swap1\n      sstore\n      pop\n      0x40\n      dup3\n      add\n      mload\n      dup2\n      0x02\n      add\n      sstore\n      0x60\n      dup3\n      add\n      mload\n      dup2\n      0x03\n      add\n      exp(0x0100, 0x00)\n      dup2\n      sload\n      dup2\n      0xff\n      mul\n      not\n      and\n      swap1\n      dup4\n      iszero\n      iszero\n      mul\n      or\n      swap1\n      sstore\n      pop\n      pop\n      pop\n        /* \"mediHack/OrganEscrow.sol\":3480:3488  _patient */\n      dup6\n        /* \"mediHack/OrganEscrow.sol\":3429:3499  OrganEscrowCreated(escrows.length - 1, msg.sender, _patient, _tokenId) */\n      0xffffffffffffffffffffffffffffffffffffffff\n      and\n        /* \"mediHack/OrganEscrow.sol\":3468:3478  msg.sender */\n      caller\n        /* \"mediHack/OrganEscrow.sol\":3429:3499  OrganEscrowCreated(escrows.length - 1, msg.sender, _patient, _tokenId) */\n      0xffffffffffffffffffffffffffffffffffffffff\n      and\n        /* \"mediHack/OrganEscrow.sol\":3465:3466  1 */\n      0x01\n        /* \"mediHack/OrganEscrow.sol\":3448:3455  escrows */\n      0x04\n        /* \"mediHack/OrganEscrow.sol\":3448:3462  escrows.length */\n      dup1\n      sload\n      swap1\n      pop\n        /* \"mediHack/OrganEscrow.sol\":3448:3466  escrows.length - 1 */\n      tag_100\n      swap2\n      swap1\n      tag_101\n      jump\t// in\n    tag_100:\n        /* \"mediHack/OrganEscrow.sol\":3429:3499  OrganEscrowCreated(escrows.length - 1, msg.sender, _patient, _tokenId) */\n      0x190dec4301154d8795b9e0a942495f78d2629bb02b82f6c6260a3daa00119f28\n        /* \"mediHack/OrganEscrow.sol\":3490:3498  _tokenId */\n      dup9\n        /* \"mediHack/OrganEscrow.sol\":3429:3499  OrganEscrowCreated(escrows.length - 1, msg.sender, _patient, _tokenId) */\n      mload(0x40)\n      tag_102\n      swap2\n      swap1\n      tag_65\n      jump\t// in\n    tag_102:\n      mload(0x40)\n      dup1\n      swap2\n      sub\n      swap1\n      log4\n        /* \"mediHack/OrganEscrow.sol\":1986:3506  {... */\n      pop\n      pop\n      pop\n      pop\n        /* \"mediHack/OrganEscrow.sol\":1921:3506  function createEscrow(address _patient, uint256 _tokenId) public {... */\n      pop\n      pop\n      jump\t// out\n        /* \"mediHack/OrganEscrow.sol\":850:889  IPatientRegistry public patientRegistry */\n    tag_24:\n      0x01\n      0x00\n      swap1\n      sload\n      swap1\n      0x0100\n      exp\n      swap1\n      div\n      0xffffffffffffffffffffffffffffffffffffffff\n      and\n      dup2\n      jump\t// out\n        /* \"mediHack/OrganEscrow.sol\":1058:1103  mapping(uint256 => bool) public donorApproved */\n    tag_29:\n      mstore(0x20, 0x03)\n      dup1\n      0x00\n      mstore\n      keccak256(0x00, 0x40)\n      0x00\n      swap2\n      pop\n      sload\n      swap1\n      0x0100\n      exp\n      swap1\n      div\n      0xff\n      and\n      dup2\n      jump\t// out\n        /* \"mediHack/OrganEscrow.sol\":3932:4023  function getEscrows() public view returns (Escrow[] memory) {... */\n    tag_33:\n        /* \"mediHack/OrganEscrow.sol\":3975:3990  Escrow[] memory */\n      0x60\n        /* \"mediHack/OrganEscrow.sol\":4009:4016  escrows */\n      0x04\n        /* \"mediHack/OrganEscrow.sol\":4002:4016  return escrows */\n      dup1\n      sload\n      dup1\n      0x20\n      mul\n      0x20\n      add\n      mload(0x40)\n      swap1\n      dup2\n      add\n      0x40\n      mstore\n      dup1\n      swap3\n      swap2\n      swap1\n      dup2\n      dup2\n      mstore\n      0x20\n      add\n      0x00\n      swap1\n    tag_104:\n      dup3\n      dup3\n      lt\n      iszero\n      tag_105\n      jumpi\n      dup4\n      dup3\n      swap1\n      0x00\n      mstore\n      keccak256(0x00, 0x20)\n      swap1\n      0x04\n      mul\n      add\n      mload(0x40)\n      dup1\n      0x80\n      add\n      0x40\n      mstore\n      swap1\n      dup2\n      0x00\n      dup3\n      add\n      0x00\n      swap1\n      sload\n      swap1\n      0x0100\n      exp\n      swap1\n      div\n      0xffffffffffffffffffffffffffffffffffffffff\n      and\n      0xffffffffffffffffffffffffffffffffffffffff\n      and\n      0xffffffffffffffffffffffffffffffffffffffff\n      and\n      dup2\n      mstore\n      0x20\n      add\n      0x01\n      dup3\n      add\n      0x00\n      swap1\n      sload\n      swap1\n      0x0100\n      exp\n      swap1\n      div\n      0xffffffffffffffffffffffffffffffffffffffff\n      and\n      0xffffffffffffffffffffffffffffffffffffffff\n      and\n      0xffffffffffffffffffffffffffffffffffffffff\n      and\n      dup2\n      mstore\n      0x20\n      add\n      0x02\n      dup3\n      add\n      sload\n      dup2\n      mstore\n      0x20\n      add\n      0x03\n      dup3\n      add\n      0x00\n      swap1\n      sload\n      swap1\n      0x0100\n      exp\n      swap1\n      div\n      0xff\n      and\n      iszero\n      iszero\n      iszero\n      iszero\n      dup2\n      mstore\n      pop\n      pop\n      dup2\n      mstore\n      0x20\n      add\n      swap1\n      0x01\n      add\n      swap1\n      jump(tag_104)\n    tag_105:\n      pop\n      pop\n      pop\n      pop\n      swap1\n      pop\n        /* \"mediHack/OrganEscrow.sol\":3932:4023  function getEscrows() public view returns (Escrow[] memory) {... */\n      swap1\n      jump\t// out\n        /* \"mediHack/OrganEscrow.sol\":823:844  address public doctor */\n    tag_37:\n      0x00\n      dup1\n      sload\n      swap1\n      0x0100\n      exp\n      swap1\n      div\n      0xffffffffffffffffffffffffffffffffffffffff\n      and\n      dup2\n      jump\t// out\n        /* \"mediHack/OrganEscrow.sol\":895:920  IOrganNFT public organNFT */\n    tag_41:\n      0x02\n      0x00\n      swap1\n      sload\n      swap1\n      0x0100\n      exp\n      swap1\n      div\n      0xffffffffffffffffffffffffffffffffffffffff\n      and\n      dup2\n      jump\t// out\n        /* \"mediHack/OrganEscrow.sol\":1729:1915  function approveDonation(uint256 _tokenId) public {... */\n    tag_46:\n        /* \"mediHack/OrganEscrow.sol\":1827:1837  msg.sender */\n      caller\n        /* \"mediHack/OrganEscrow.sol\":1797:1837  organNFT.ownerOf(_tokenId) == msg.sender */\n      0xffffffffffffffffffffffffffffffffffffffff\n      and\n        /* \"mediHack/OrganEscrow.sol\":1797:1805  organNFT */\n      0x02\n      0x00\n      swap1\n      sload\n      swap1\n      0x0100\n      exp\n      swap1\n      div\n      0xffffffffffffffffffffffffffffffffffffffff\n      and\n        /* \"mediHack/OrganEscrow.sol\":1797:1813  organNFT.ownerOf */\n      0xffffffffffffffffffffffffffffffffffffffff\n      and\n      0x6352211e\n        /* \"mediHack/OrganEscrow.sol\":1814:1822  _tokenId */\n      dup4\n        /* \"mediHack/OrganEscrow.sol\":1797:1823  organNFT.ownerOf(_tokenId) */\n      mload(0x40)\n      dup3\n      0xffffffff\n      and\n      0xe0\n      shl\n      dup2\n      mstore\n      0x04\n      add\n      tag_108\n      swap2\n      swap1\n      tag_65\n      jump\t// in\n    tag_108:\n      0x20\n      mload(0x40)\n      dup1\n      dup4\n      sub\n      dup2\n      dup7\n      gas\n      staticcall\n      iszero\n      dup1\n      iszero\n      tag_110\n      jumpi\n      returndatasize\n      0x00\n      dup1\n      returndatacopy\n      revert(0x00, returndatasize)\n    tag_110:\n      pop\n      pop\n      pop\n      pop\n      mload(0x40)\n      returndatasize\n      not(0x1f)\n      0x1f\n      dup3\n      add\n      and\n      dup3\n      add\n      dup1\n      0x40\n      mstore\n      pop\n      dup2\n      add\n      swap1\n      tag_111\n      swap2\n      swap1\n      tag_90\n      jump\t// in\n    tag_111:\n        /* \"mediHack/OrganEscrow.sol\":1797:1837  organNFT.ownerOf(_tokenId) == msg.sender */\n      0xffffffffffffffffffffffffffffffffffffffff\n      and\n      eq\n        /* \"mediHack/OrganEscrow.sol\":1789:1868  require(organNFT.ownerOf(_tokenId) == msg.sender, \"Only the donor can approve\") */\n      tag_112\n      jumpi\n      mload(0x40)\n      0x08c379a000000000000000000000000000000000000000000000000000000000\n      dup2\n      mstore\n      0x04\n      add\n      tag_113\n      swap1\n      tag_114\n      jump\t// in\n    tag_113:\n      mload(0x40)\n      dup1\n      swap2\n      sub\n      swap1\n      revert\n    tag_112:\n        /* \"mediHack/OrganEscrow.sol\":1904:1908  true */\n      0x01\n        /* \"mediHack/OrganEscrow.sol\":1878:1891  donorApproved */\n      0x03\n        /* \"mediHack/OrganEscrow.sol\":1878:1901  donorApproved[_tokenId] */\n      0x00\n        /* \"mediHack/OrganEscrow.sol\":1892:1900  _tokenId */\n      dup4\n        /* \"mediHack/OrganEscrow.sol\":1878:1901  donorApproved[_tokenId] */\n      dup2\n      mstore\n      0x20\n      add\n      swap1\n      dup2\n      mstore\n      0x20\n      add\n      0x00\n      keccak256\n      0x00\n        /* \"mediHack/OrganEscrow.sol\":1878:1908  donorApproved[_tokenId] = true */\n      0x0100\n      exp\n      dup2\n      sload\n      dup2\n      0xff\n      mul\n      not\n      and\n      swap1\n      dup4\n      iszero\n      iszero\n      mul\n      or\n      swap1\n      sstore\n      pop\n        /* \"mediHack/OrganEscrow.sol\":1729:1915  function approveDonation(uint256 _tokenId) public {... */\n      pop\n      jump\t// out\n        /* \"mediHack/OrganEscrow.sol\":3512:3926  function approveTransfer(uint256 escrowId) public onlyDoctor {... */\n    tag_49:\n        /* \"mediHack/OrganEscrow.sol\":1455:1461  doctor */\n      0x00\n      dup1\n      sload\n      swap1\n      0x0100\n      exp\n      swap1\n      div\n      0xffffffffffffffffffffffffffffffffffffffff\n      and\n        /* \"mediHack/OrganEscrow.sol\":1441:1461  msg.sender == doctor */\n      0xffffffffffffffffffffffffffffffffffffffff\n      and\n        /* \"mediHack/OrganEscrow.sol\":1441:1451  msg.sender */\n      caller\n        /* \"mediHack/OrganEscrow.sol\":1441:1461  msg.sender == doctor */\n      0xffffffffffffffffffffffffffffffffffffffff\n      and\n      eq\n        /* \"mediHack/OrganEscrow.sol\":1433:1503  require(msg.sender == doctor, \"Only the doctor can approve transfers\") */\n      tag_116\n      jumpi\n      mload(0x40)\n      0x08c379a000000000000000000000000000000000000000000000000000000000\n      dup2\n      mstore\n      0x04\n      add\n      tag_117\n      swap1\n      tag_118\n      jump\t// in\n    tag_117:\n      mload(0x40)\n      dup1\n      swap2\n      sub\n      swap1\n      revert\n    tag_116:\n        /* \"mediHack/OrganEscrow.sol\":3583:3604  Escrow storage escrow */\n      0x00\n        /* \"mediHack/OrganEscrow.sol\":3607:3614  escrows */\n      0x04\n        /* \"mediHack/OrganEscrow.sol\":3615:3623  escrowId */\n      dup3\n        /* \"mediHack/OrganEscrow.sol\":3607:3624  escrows[escrowId] */\n      dup2\n      sload\n      dup2\n      lt\n      tag_120\n      jumpi\n      tag_121\n      tag_122\n      jump\t// in\n    tag_121:\n    tag_120:\n      swap1\n      0x00\n      mstore\n      keccak256(0x00, 0x20)\n      swap1\n      0x04\n      mul\n      add\n        /* \"mediHack/OrganEscrow.sol\":3583:3624  Escrow storage escrow = escrows[escrowId] */\n      swap1\n      pop\n        /* \"mediHack/OrganEscrow.sol\":3643:3649  escrow */\n      dup1\n        /* \"mediHack/OrganEscrow.sol\":3643:3666  escrow.approvedByDoctor */\n      0x03\n      add\n      0x00\n      swap1\n      sload\n      swap1\n      0x0100\n      exp\n      swap1\n      div\n      0xff\n      and\n        /* \"mediHack/OrganEscrow.sol\":3642:3666  !escrow.approvedByDoctor */\n      iszero\n        /* \"mediHack/OrganEscrow.sol\":3634:3696  require(!escrow.approvedByDoctor, \"Transfer already approved\") */\n      tag_124\n      jumpi\n      mload(0x40)\n      0x08c379a000000000000000000000000000000000000000000000000000000000\n      dup2\n      mstore\n      0x04\n      add\n      tag_125\n      swap1\n      tag_126\n      jump\t// in\n    tag_125:\n      mload(0x40)\n      dup1\n      swap2\n      sub\n      swap1\n      revert\n    tag_124:\n        /* \"mediHack/OrganEscrow.sol\":3733:3737  true */\n      0x01\n        /* \"mediHack/OrganEscrow.sol\":3707:3713  escrow */\n      dup2\n        /* \"mediHack/OrganEscrow.sol\":3707:3730  escrow.approvedByDoctor */\n      0x03\n      add\n      0x00\n        /* \"mediHack/OrganEscrow.sol\":3707:3737  escrow.approvedByDoctor = true */\n      0x0100\n      exp\n      dup2\n      sload\n      dup2\n      0xff\n      mul\n      not\n      and\n      swap1\n      dup4\n      iszero\n      iszero\n      mul\n      or\n      swap1\n      sstore\n      pop\n        /* \"mediHack/OrganEscrow.sol\":3774:3782  escrowId */\n      dup2\n        /* \"mediHack/OrganEscrow.sol\":3752:3783  OrganApprovedByDoctor(escrowId) */\n      0xca65c146ed1e5572f583a0fbe70fdbd0443a39c1eb084a7e94c40190ae705b04\n      mload(0x40)\n      mload(0x40)\n      dup1\n      swap2\n      sub\n      swap1\n      log2\n        /* \"mediHack/OrganEscrow.sol\":3794:3802  organNFT */\n      0x02\n      0x00\n      swap1\n      sload\n      swap1\n      0x0100\n      exp\n      swap1\n      div\n      0xffffffffffffffffffffffffffffffffffffffff\n      and\n        /* \"mediHack/OrganEscrow.sol\":3794:3815  organNFT.transferFrom */\n      0xffffffffffffffffffffffffffffffffffffffff\n      and\n      0x23b872dd\n        /* \"mediHack/OrganEscrow.sol\":3824:3828  this */\n      address\n        /* \"mediHack/OrganEscrow.sol\":3831:3837  escrow */\n      dup4\n        /* \"mediHack/OrganEscrow.sol\":3831:3845  escrow.patient */\n      0x01\n      add\n      0x00\n      swap1\n      sload\n      swap1\n      0x0100\n      exp\n      swap1\n      div\n      0xffffffffffffffffffffffffffffffffffffffff\n      and\n        /* \"mediHack/OrganEscrow.sol\":3847:3853  escrow */\n      dup5\n        /* \"mediHack/OrganEscrow.sol\":3847:3861  escrow.tokenId */\n      0x02\n      add\n      sload\n        /* \"mediHack/OrganEscrow.sol\":3794:3862  organNFT.transferFrom(address(this), escrow.patient, escrow.tokenId) */\n      mload(0x40)\n      dup5\n      0xffffffff\n      and\n      0xe0\n      shl\n      dup2\n      mstore\n      0x04\n      add\n      tag_127\n      swap4\n      swap3\n      swap2\n      swap1\n      tag_95\n      jump\t// in\n    tag_127:\n      0x00\n      mload(0x40)\n      dup1\n      dup4\n      sub\n      dup2\n      0x00\n      dup8\n      dup1\n      extcodesize\n      iszero\n      dup1\n      iszero\n      tag_128\n      jumpi\n      0x00\n      dup1\n      revert\n    tag_128:\n      pop\n      gas\n      call\n      iszero\n      dup1\n      iszero\n      tag_130\n      jumpi\n      returndatasize\n      0x00\n      dup1\n      returndatacopy\n      revert(0x00, returndatasize)\n    tag_130:\n      pop\n      pop\n      pop\n      pop\n        /* \"mediHack/OrganEscrow.sol\":3904:3910  escrow */\n      dup1\n        /* \"mediHack/OrganEscrow.sol\":3904:3918  escrow.patient */\n      0x01\n      add\n      0x00\n      swap1\n      sload\n      swap1\n      0x0100\n      exp\n      swap1\n      div\n      0xffffffffffffffffffffffffffffffffffffffff\n      and\n        /* \"mediHack/OrganEscrow.sol\":3877:3919  OrganTransferred(escrowId, escrow.patient) */\n      0xffffffffffffffffffffffffffffffffffffffff\n      and\n        /* \"mediHack/OrganEscrow.sol\":3894:3902  escrowId */\n      dup3\n        /* \"mediHack/OrganEscrow.sol\":3877:3919  OrganTransferred(escrowId, escrow.patient) */\n      0x875e5dbc5245c14b7292f71bc2e944f8ff3f1dfce6ac08c5642995080b24565c\n      mload(0x40)\n      mload(0x40)\n      dup1\n      swap2\n      sub\n      swap1\n      log3\n        /* \"mediHack/OrganEscrow.sol\":3573:3926  {... */\n      pop\n        /* \"mediHack/OrganEscrow.sol\":3512:3926  function approveTransfer(uint256 escrowId) public onlyDoctor {... */\n      pop\n      jump\t// out\n        /* \"mediHack/OrganEscrow.sol\":4029:4504  function cleanString(string memory str) internal pure returns (string memory) {... */\n    tag_71:\n        /* \"mediHack/OrganEscrow.sol\":4092:4105  string memory */\n      0x60\n        /* \"mediHack/OrganEscrow.sol\":4117:4138  bytes memory strBytes */\n      0x00\n        /* \"mediHack/OrganEscrow.sol\":4147:4150  str */\n      dup3\n        /* \"mediHack/OrganEscrow.sol\":4117:4151  bytes memory strBytes = bytes(str) */\n      swap1\n      pop\n        /* \"mediHack/OrganEscrow.sol\":4161:4180  bytes memory result */\n      0x00\n        /* \"mediHack/OrganEscrow.sol\":4193:4201  strBytes */\n      dup2\n        /* \"mediHack/OrganEscrow.sol\":4193:4208  strBytes.length */\n      mload\n        /* \"mediHack/OrganEscrow.sol\":4183:4209  new bytes(strBytes.length) */\n      0xffffffffffffffff\n      dup2\n      gt\n      iszero\n      tag_132\n      jumpi\n      tag_133\n      tag_134\n      jump\t// in\n    tag_133:\n    tag_132:\n      mload(0x40)\n      swap1\n      dup1\n      dup3\n      mstore\n      dup1\n      0x1f\n      add\n      not(0x1f)\n      and\n      0x20\n      add\n      dup3\n      add\n      0x40\n      mstore\n      dup1\n      iszero\n      tag_135\n      jumpi\n      dup2\n      0x20\n      add\n      0x01\n      dup3\n      mul\n      dup1\n      calldatasize\n      dup4\n      calldatacopy\n      dup1\n      dup3\n      add\n      swap2\n      pop\n      pop\n      swap1\n      pop\n    tag_135:\n      pop\n        /* \"mediHack/OrganEscrow.sol\":4161:4209  bytes memory result = new bytes(strBytes.length) */\n      swap1\n      pop\n        /* \"mediHack/OrganEscrow.sol\":4219:4228  uint256 j */\n      0x00\n        /* \"mediHack/OrganEscrow.sol\":4247:4256  uint256 i */\n      dup1\n        /* \"mediHack/OrganEscrow.sol\":4242:4467  for (uint256 i = 0; i < strBytes.length; i++) {... */\n    tag_136:\n        /* \"mediHack/OrganEscrow.sol\":4266:4274  strBytes */\n      dup4\n        /* \"mediHack/OrganEscrow.sol\":4266:4281  strBytes.length */\n      mload\n        /* \"mediHack/OrganEscrow.sol\":4262:4263  i */\n      dup2\n        /* \"mediHack/OrganEscrow.sol\":4262:4281  i < strBytes.length */\n      lt\n        /* \"mediHack/OrganEscrow.sol\":4242:4467  for (uint256 i = 0; i < strBytes.length; i++) {... */\n      iszero\n      tag_137\n      jumpi\n        /* \"mediHack/OrganEscrow.sol\":4321:4325  0x20 */\n      0x20\n        /* \"mediHack/OrganEscrow.sol\":4306:4325  strBytes[i] != 0x20 */\n      0xf8\n      shl\n        /* \"mediHack/OrganEscrow.sol\":4306:4314  strBytes */\n      dup5\n        /* \"mediHack/OrganEscrow.sol\":4315:4316  i */\n      dup3\n        /* \"mediHack/OrganEscrow.sol\":4306:4317  strBytes[i] */\n      dup2\n      mload\n      dup2\n      lt\n      tag_139\n      jumpi\n      tag_140\n      tag_122\n      jump\t// in\n    tag_140:\n    tag_139:\n      0x20\n      add\n      add\n      mload\n      0xf8\n      shr\n      0xf8\n      shl\n        /* \"mediHack/OrganEscrow.sol\":4306:4325  strBytes[i] != 0x20 */\n      not(0xffffffffffffffffffffffffffffffffffffffffffffffffffffffffffffff)\n      and\n      eq\n        /* \"mediHack/OrganEscrow.sol\":4302:4457  if (strBytes[i] != 0x20) { // Eliminăm spațiile (0x20 = ASCII pentru „ ”)... */\n      tag_141\n      jumpi\n        /* \"mediHack/OrganEscrow.sol\":4410:4418  strBytes */\n      dup4\n        /* \"mediHack/OrganEscrow.sol\":4419:4420  i */\n      dup2\n        /* \"mediHack/OrganEscrow.sol\":4410:4421  strBytes[i] */\n      dup2\n      mload\n      dup2\n      lt\n      tag_142\n      jumpi\n      tag_143\n      tag_122\n      jump\t// in\n    tag_143:\n    tag_142:\n      0x20\n      add\n      add\n      mload\n      0xf8\n      shr\n      0xf8\n      shl\n        /* \"mediHack/OrganEscrow.sol\":4398:4404  result */\n      dup4\n        /* \"mediHack/OrganEscrow.sol\":4405:4406  j */\n      dup4\n        /* \"mediHack/OrganEscrow.sol\":4398:4407  result[j] */\n      dup2\n      mload\n      dup2\n      lt\n      tag_144\n      jumpi\n      tag_145\n      tag_122\n      jump\t// in\n    tag_145:\n    tag_144:\n      0x20\n      add\n      add\n        /* \"mediHack/OrganEscrow.sol\":4398:4421  result[j] = strBytes[i] */\n      swap1\n      not(0xffffffffffffffffffffffffffffffffffffffffffffffffffffffffffffff)\n      and\n      swap1\n      dup2\n      0x00\n      byte\n      swap1\n      mstore8\n      pop\n        /* \"mediHack/OrganEscrow.sol\":4439:4442  j++ */\n      dup2\n      dup1\n      tag_146\n      swap1\n      tag_147\n      jump\t// in\n    tag_146:\n      swap3\n      pop\n      pop\n        /* \"mediHack/OrganEscrow.sol\":4302:4457  if (strBytes[i] != 0x20) { // Eliminăm spațiile (0x20 = ASCII pentru „ ”)... */\n    tag_141:\n        /* \"mediHack/OrganEscrow.sol\":4283:4286  i++ */\n      dup1\n      dup1\n      0x01\n      add\n      swap2\n      pop\n      pop\n        /* \"mediHack/OrganEscrow.sol\":4242:4467  for (uint256 i = 0; i < strBytes.length; i++) {... */\n      jump(tag_136)\n    tag_137:\n      pop\n        /* \"mediHack/OrganEscrow.sol\":4490:4496  result */\n      dup2\n        /* \"mediHack/OrganEscrow.sol\":4476:4497  return string(result) */\n      swap4\n      pop\n      pop\n      pop\n      pop\n        /* \"mediHack/OrganEscrow.sol\":4029:4504  function cleanString(string memory str) internal pure returns (string memory) {... */\n      swap2\n      swap1\n      pop\n      jump\t// out\n        /* \"#utility.yul\":7:82   */\n    tag_148:\n        /* \"#utility.yul\":40:46   */\n      0x00\n        /* \"#utility.yul\":73:75   */\n      0x40\n        /* \"#utility.yul\":67:76   */\n      mload\n        /* \"#utility.yul\":57:76   */\n      swap1\n      pop\n        /* \"#utility.yul\":7:82   */\n      swap1\n      jump\t// out\n        /* \"#utility.yul\":88:205   */\n    tag_149:\n        /* \"#utility.yul\":197:198   */\n      0x00\n        /* \"#utility.yul\":194:195   */\n      dup1\n        /* \"#utility.yul\":187:199   */\n      revert\n        /* \"#utility.yul\":211:328   */\n    tag_150:\n        /* \"#utility.yul\":320:321   */\n      0x00\n        /* \"#utility.yul\":317:318   */\n      dup1\n        /* \"#utility.yul\":310:322   */\n      revert\n        /* \"#utility.yul\":334:411   */\n    tag_151:\n        /* \"#utility.yul\":371:378   */\n      0x00\n        /* \"#utility.yul\":400:405   */\n      dup2\n        /* \"#utility.yul\":389:405   */\n      swap1\n      pop\n        /* \"#utility.yul\":334:411   */\n      swap2\n      swap1\n      pop\n      jump\t// out\n        /* \"#utility.yul\":417:539   */\n    tag_152:\n        /* \"#utility.yul\":490:514   */\n      tag_216\n        /* \"#utility.yul\":508:513   */\n      dup2\n        /* \"#utility.yul\":490:514   */\n      tag_151\n      jump\t// in\n    tag_216:\n        /* \"#utility.yul\":483:488   */\n      dup2\n        /* \"#utility.yul\":480:515   */\n      eq\n        /* \"#utility.yul\":470:533   */\n      tag_217\n      jumpi\n        /* \"#utility.yul\":529:530   */\n      0x00\n        /* \"#utility.yul\":526:527   */\n      dup1\n        /* \"#utility.yul\":519:531   */\n      revert\n        /* \"#utility.yul\":470:533   */\n    tag_217:\n        /* \"#utility.yul\":417:539   */\n      pop\n      jump\t// out\n        /* \"#utility.yul\":545:684   */\n    tag_153:\n        /* \"#utility.yul\":591:596   */\n      0x00\n        /* \"#utility.yul\":629:635   */\n      dup2\n        /* \"#utility.yul\":616:636   */\n      calldataload\n        /* \"#utility.yul\":607:636   */\n      swap1\n      pop\n        /* \"#utility.yul\":645:678   */\n      tag_219\n        /* \"#utility.yul\":672:677   */\n      dup2\n        /* \"#utility.yul\":645:678   */\n      tag_152\n      jump\t// in\n    tag_219:\n        /* \"#utility.yul\":545:684   */\n      swap3\n      swap2\n      pop\n      pop\n      jump\t// out\n        /* \"#utility.yul\":690:1019   */\n    tag_15:\n        /* \"#utility.yul\":749:755   */\n      0x00\n        /* \"#utility.yul\":798:800   */\n      0x20\n        /* \"#utility.yul\":786:795   */\n      dup3\n        /* \"#utility.yul\":777:784   */\n      dup5\n        /* \"#utility.yul\":773:796   */\n      sub\n        /* \"#utility.yul\":769:801   */\n      slt\n        /* \"#utility.yul\":766:885   */\n      iszero\n      tag_221\n      jumpi\n        /* \"#utility.yul\":804:883   */\n      tag_222\n      tag_149\n      jump\t// in\n    tag_222:\n        /* \"#utility.yul\":766:885   */\n    tag_221:\n        /* \"#utility.yul\":924:925   */\n      0x00\n        /* \"#utility.yul\":949:1002   */\n      tag_223\n        /* \"#utility.yul\":994:1001   */\n      dup5\n        /* \"#utility.yul\":985:991   */\n      dup3\n        /* \"#utility.yul\":974:983   */\n      dup6\n        /* \"#utility.yul\":970:992   */\n      add\n        /* \"#utility.yul\":949:1002   */\n      tag_153\n      jump\t// in\n    tag_223:\n        /* \"#utility.yul\":939:1002   */\n      swap2\n      pop\n        /* \"#utility.yul\":895:1012   */\n      pop\n        /* \"#utility.yul\":690:1019   */\n      swap3\n      swap2\n      pop\n      pop\n      jump\t// out\n        /* \"#utility.yul\":1025:1151   */\n    tag_154:\n        /* \"#utility.yul\":1062:1069   */\n      0x00\n        /* \"#utility.yul\":1102:1144   */\n      0xffffffffffffffffffffffffffffffffffffffff\n        /* \"#utility.yul\":1095:1100   */\n      dup3\n        /* \"#utility.yul\":1091:1145   */\n      and\n        /* \"#utility.yul\":1080:1145   */\n      swap1\n      pop\n        /* \"#utility.yul\":1025:1151   */\n      swap2\n      swap1\n      pop\n      jump\t// out\n        /* \"#utility.yul\":1157:1253   */\n    tag_155:\n        /* \"#utility.yul\":1194:1201   */\n      0x00\n        /* \"#utility.yul\":1223:1247   */\n      tag_226\n        /* \"#utility.yul\":1241:1246   */\n      dup3\n        /* \"#utility.yul\":1223:1247   */\n      tag_154\n      jump\t// in\n    tag_226:\n        /* \"#utility.yul\":1212:1247   */\n      swap1\n      pop\n        /* \"#utility.yul\":1157:1253   */\n      swap2\n      swap1\n      pop\n      jump\t// out\n        /* \"#utility.yul\":1259:1377   */\n    tag_156:\n        /* \"#utility.yul\":1346:1370   */\n      tag_228\n        /* \"#utility.yul\":1364:1369   */\n      dup2\n        /* \"#utility.yul\":1346:1370   */\n      tag_155\n      jump\t// in\n    tag_228:\n        /* \"#utility.yul\":1341:1344   */\n      dup3\n        /* \"#utility.yul\":1334:1371   */\n      mstore\n        /* \"#utility.yul\":1259:1377   */\n      pop\n      pop\n      jump\t// out\n        /* \"#utility.yul\":1383:1501   */\n    tag_157:\n        /* \"#utility.yul\":1470:1494   */\n      tag_230\n        /* \"#utility.yul\":1488:1493   */\n      dup2\n        /* \"#utility.yul\":1470:1494   */\n      tag_151\n      jump\t// in\n    tag_230:\n        /* \"#utility.yul\":1465:1468   */\n      dup3\n        /* \"#utility.yul\":1458:1495   */\n      mstore\n        /* \"#utility.yul\":1383:1501   */\n      pop\n      pop\n      jump\t// out\n        /* \"#utility.yul\":1507:1597   */\n    tag_158:\n        /* \"#utility.yul\":1541:1548   */\n      0x00\n        /* \"#utility.yul\":1584:1589   */\n      dup2\n        /* \"#utility.yul\":1577:1590   */\n      iszero\n        /* \"#utility.yul\":1570:1591   */\n      iszero\n        /* \"#utility.yul\":1559:1591   */\n      swap1\n      pop\n        /* \"#utility.yul\":1507:1597   */\n      swap2\n      swap1\n      pop\n      jump\t// out\n        /* \"#utility.yul\":1603:1712   */\n    tag_159:\n        /* \"#utility.yul\":1684:1705   */\n      tag_233\n        /* \"#utility.yul\":1699:1704   */\n      dup2\n        /* \"#utility.yul\":1684:1705   */\n      tag_158\n      jump\t// in\n    tag_233:\n        /* \"#utility.yul\":1679:1682   */\n      dup3\n        /* \"#utility.yul\":1672:1706   */\n      mstore\n        /* \"#utility.yul\":1603:1712   */\n      pop\n      pop\n      jump\t// out\n        /* \"#utility.yul\":1718:2259   */\n    tag_18:\n        /* \"#utility.yul\":1889:1893   */\n      0x00\n        /* \"#utility.yul\":1927:1930   */\n      0x80\n        /* \"#utility.yul\":1916:1925   */\n      dup3\n        /* \"#utility.yul\":1912:1931   */\n      add\n        /* \"#utility.yul\":1904:1931   */\n      swap1\n      pop\n        /* \"#utility.yul\":1941:2012   */\n      tag_235\n        /* \"#utility.yul\":2009:2010   */\n      0x00\n        /* \"#utility.yul\":1998:2007   */\n      dup4\n        /* \"#utility.yul\":1994:2011   */\n      add\n        /* \"#utility.yul\":1985:1991   */\n      dup8\n        /* \"#utility.yul\":1941:2012   */\n      tag_156\n      jump\t// in\n    tag_235:\n        /* \"#utility.yul\":2022:2094   */\n      tag_236\n        /* \"#utility.yul\":2090:2092   */\n      0x20\n        /* \"#utility.yul\":2079:2088   */\n      dup4\n        /* \"#utility.yul\":2075:2093   */\n      add\n        /* \"#utility.yul\":2066:2072   */\n      dup7\n        /* \"#utility.yul\":2022:2094   */\n      tag_156\n      jump\t// in\n    tag_236:\n        /* \"#utility.yul\":2104:2176   */\n      tag_237\n        /* \"#utility.yul\":2172:2174   */\n      0x40\n        /* \"#utility.yul\":2161:2170   */\n      dup4\n        /* \"#utility.yul\":2157:2175   */\n      add\n        /* \"#utility.yul\":2148:2154   */\n      dup6\n        /* \"#utility.yul\":2104:2176   */\n      tag_157\n      jump\t// in\n    tag_237:\n        /* \"#utility.yul\":2186:2252   */\n      tag_238\n        /* \"#utility.yul\":2248:2250   */\n      0x60\n        /* \"#utility.yul\":2237:2246   */\n      dup4\n        /* \"#utility.yul\":2233:2251   */\n      add\n        /* \"#utility.yul\":2224:2230   */\n      dup5\n        /* \"#utility.yul\":2186:2252   */\n      tag_159\n      jump\t// in\n    tag_238:\n        /* \"#utility.yul\":1718:2259   */\n      swap6\n      swap5\n      pop\n      pop\n      pop\n      pop\n      pop\n      jump\t// out\n        /* \"#utility.yul\":2265:2387   */\n    tag_160:\n        /* \"#utility.yul\":2338:2362   */\n      tag_240\n        /* \"#utility.yul\":2356:2361   */\n      dup2\n        /* \"#utility.yul\":2338:2362   */\n      tag_155\n      jump\t// in\n    tag_240:\n        /* \"#utility.yul\":2331:2336   */\n      dup2\n        /* \"#utility.yul\":2328:2363   */\n      eq\n        /* \"#utility.yul\":2318:2381   */\n      tag_241\n      jumpi\n        /* \"#utility.yul\":2377:2378   */\n      0x00\n        /* \"#utility.yul\":2374:2375   */\n      dup1\n        /* \"#utility.yul\":2367:2379   */\n      revert\n        /* \"#utility.yul\":2318:2381   */\n    tag_241:\n        /* \"#utility.yul\":2265:2387   */\n      pop\n      jump\t// out\n        /* \"#utility.yul\":2393:2532   */\n    tag_161:\n        /* \"#utility.yul\":2439:2444   */\n      0x00\n        /* \"#utility.yul\":2477:2483   */\n      dup2\n        /* \"#utility.yul\":2464:2484   */\n      calldataload\n        /* \"#utility.yul\":2455:2484   */\n      swap1\n      pop\n        /* \"#utility.yul\":2493:2526   */\n      tag_243\n        /* \"#utility.yul\":2520:2525   */\n      dup2\n        /* \"#utility.yul\":2493:2526   */\n      tag_160\n      jump\t// in\n    tag_243:\n        /* \"#utility.yul\":2393:2532   */\n      swap3\n      swap2\n      pop\n      pop\n      jump\t// out\n        /* \"#utility.yul\":2538:3012   */\n    tag_21:\n        /* \"#utility.yul\":2606:2612   */\n      0x00\n        /* \"#utility.yul\":2614:2620   */\n      dup1\n        /* \"#utility.yul\":2663:2665   */\n      0x40\n        /* \"#utility.yul\":2651:2660   */\n      dup4\n        /* \"#utility.yul\":2642:2649   */\n      dup6\n        /* \"#utility.yul\":2638:2661   */\n      sub\n        /* \"#utility.yul\":2634:2666   */\n      slt\n        /* \"#utility.yul\":2631:2750   */\n      iszero\n      tag_245\n      jumpi\n        /* \"#utility.yul\":2669:2748   */\n      tag_246\n      tag_149\n      jump\t// in\n    tag_246:\n        /* \"#utility.yul\":2631:2750   */\n    tag_245:\n        /* \"#utility.yul\":2789:2790   */\n      0x00\n        /* \"#utility.yul\":2814:2867   */\n      tag_247\n        /* \"#utility.yul\":2859:2866   */\n      dup6\n        /* \"#utility.yul\":2850:2856   */\n      dup3\n        /* \"#utility.yul\":2839:2848   */\n      dup7\n        /* \"#utility.yul\":2835:2857   */\n      add\n        /* \"#utility.yul\":2814:2867   */\n      tag_161\n      jump\t// in\n    tag_247:\n        /* \"#utility.yul\":2804:2867   */\n      swap3\n      pop\n        /* \"#utility.yul\":2760:2877   */\n      pop\n        /* \"#utility.yul\":2916:2918   */\n      0x20\n        /* \"#utility.yul\":2942:2995   */\n      tag_248\n        /* \"#utility.yul\":2987:2994   */\n      dup6\n        /* \"#utility.yul\":2978:2984   */\n      dup3\n        /* \"#utility.yul\":2967:2976   */\n      dup7\n        /* \"#utility.yul\":2963:2985   */\n      add\n        /* \"#utility.yul\":2942:2995   */\n      tag_153\n      jump\t// in\n    tag_248:\n        /* \"#utility.yul\":2932:2995   */\n      swap2\n      pop\n        /* \"#utility.yul\":2887:3005   */\n      pop\n        /* \"#utility.yul\":2538:3012   */\n      swap3\n      pop\n      swap3\n      swap1\n      pop\n      jump\t// out\n        /* \"#utility.yul\":3018:3078   */\n    tag_162:\n        /* \"#utility.yul\":3046:3049   */\n      0x00\n        /* \"#utility.yul\":3067:3072   */\n      dup2\n        /* \"#utility.yul\":3060:3072   */\n      swap1\n      pop\n        /* \"#utility.yul\":3018:3078   */\n      swap2\n      swap1\n      pop\n      jump\t// out\n        /* \"#utility.yul\":3084:3226   */\n    tag_163:\n        /* \"#utility.yul\":3134:3143   */\n      0x00\n        /* \"#utility.yul\":3167:3220   */\n      tag_251\n        /* \"#utility.yul\":3185:3219   */\n      tag_252\n        /* \"#utility.yul\":3194:3218   */\n      tag_253\n        /* \"#utility.yul\":3212:3217   */\n      dup5\n        /* \"#utility.yul\":3194:3218   */\n      tag_154\n      jump\t// in\n    tag_253:\n        /* \"#utility.yul\":3185:3219   */\n      tag_162\n      jump\t// in\n    tag_252:\n        /* \"#utility.yul\":3167:3220   */\n      tag_154\n      jump\t// in\n    tag_251:\n        /* \"#utility.yul\":3154:3220   */\n      swap1\n      pop\n        /* \"#utility.yul\":3084:3226   */\n      swap2\n      swap1\n      pop\n      jump\t// out\n        /* \"#utility.yul\":3232:3358   */\n    tag_164:\n        /* \"#utility.yul\":3282:3291   */\n      0x00\n        /* \"#utility.yul\":3315:3352   */\n      tag_255\n        /* \"#utility.yul\":3346:3351   */\n      dup3\n        /* \"#utility.yul\":3315:3352   */\n      tag_163\n      jump\t// in\n    tag_255:\n        /* \"#utility.yul\":3302:3352   */\n      swap1\n      pop\n        /* \"#utility.yul\":3232:3358   */\n      swap2\n      swap1\n      pop\n      jump\t// out\n        /* \"#utility.yul\":3364:3513   */\n    tag_165:\n        /* \"#utility.yul\":3437:3446   */\n      0x00\n        /* \"#utility.yul\":3470:3507   */\n      tag_257\n        /* \"#utility.yul\":3501:3506   */\n      dup3\n        /* \"#utility.yul\":3470:3507   */\n      tag_164\n      jump\t// in\n    tag_257:\n        /* \"#utility.yul\":3457:3507   */\n      swap1\n      pop\n        /* \"#utility.yul\":3364:3513   */\n      swap2\n      swap1\n      pop\n      jump\t// out\n        /* \"#utility.yul\":3519:3696   */\n    tag_166:\n        /* \"#utility.yul\":3629:3689   */\n      tag_259\n        /* \"#utility.yul\":3683:3688   */\n      dup2\n        /* \"#utility.yul\":3629:3689   */\n      tag_165\n      jump\t// in\n    tag_259:\n        /* \"#utility.yul\":3624:3627   */\n      dup3\n        /* \"#utility.yul\":3617:3690   */\n      mstore\n        /* \"#utility.yul\":3519:3696   */\n      pop\n      pop\n      jump\t// out\n        /* \"#utility.yul\":3702:3970   */\n    tag_26:\n        /* \"#utility.yul\":3818:3822   */\n      0x00\n        /* \"#utility.yul\":3856:3858   */\n      0x20\n        /* \"#utility.yul\":3845:3854   */\n      dup3\n        /* \"#utility.yul\":3841:3859   */\n      add\n        /* \"#utility.yul\":3833:3859   */\n      swap1\n      pop\n        /* \"#utility.yul\":3869:3963   */\n      tag_261\n        /* \"#utility.yul\":3960:3961   */\n      0x00\n        /* \"#utility.yul\":3949:3958   */\n      dup4\n        /* \"#utility.yul\":3945:3962   */\n      add\n        /* \"#utility.yul\":3936:3942   */\n      dup5\n        /* \"#utility.yul\":3869:3963   */\n      tag_166\n      jump\t// in\n    tag_261:\n        /* \"#utility.yul\":3702:3970   */\n      swap3\n      swap2\n      pop\n      pop\n      jump\t// out\n        /* \"#utility.yul\":3976:4186   */\n    tag_31:\n        /* \"#utility.yul\":4063:4067   */\n      0x00\n        /* \"#utility.yul\":4101:4103   */\n      0x20\n        /* \"#utility.yul\":4090:4099   */\n      dup3\n        /* \"#utility.yul\":4086:4104   */\n      add\n        /* \"#utility.yul\":4078:4104   */\n      swap1\n      pop\n        /* \"#utility.yul\":4114:4179   */\n      tag_263\n        /* \"#utility.yul\":4176:4177   */\n      0x00\n        /* \"#utility.yul\":4165:4174   */\n      dup4\n        /* \"#utility.yul\":4161:4178   */\n      add\n        /* \"#utility.yul\":4152:4158   */\n      dup5\n        /* \"#utility.yul\":4114:4179   */\n      tag_159\n      jump\t// in\n    tag_263:\n        /* \"#utility.yul\":3976:4186   */\n      swap3\n      swap2\n      pop\n      pop\n      jump\t// out\n        /* \"#utility.yul\":4192:4328   */\n    tag_167:\n        /* \"#utility.yul\":4281:4287   */\n      0x00\n        /* \"#utility.yul\":4315:4320   */\n      dup2\n        /* \"#utility.yul\":4309:4321   */\n      mload\n        /* \"#utility.yul\":4299:4321   */\n      swap1\n      pop\n        /* \"#utility.yul\":4192:4328   */\n      swap2\n      swap1\n      pop\n      jump\t// out\n        /* \"#utility.yul\":4334:4540   */\n    tag_168:\n        /* \"#utility.yul\":4455:4466   */\n      0x00\n        /* \"#utility.yul\":4489:4495   */\n      dup3\n        /* \"#utility.yul\":4484:4487   */\n      dup3\n        /* \"#utility.yul\":4477:4496   */\n      mstore\n        /* \"#utility.yul\":4529:4533   */\n      0x20\n        /* \"#utility.yul\":4524:4527   */\n      dup3\n        /* \"#utility.yul\":4520:4534   */\n      add\n        /* \"#utility.yul\":4505:4534   */\n      swap1\n      pop\n        /* \"#utility.yul\":4334:4540   */\n      swap3\n      swap2\n      pop\n      pop\n      jump\t// out\n        /* \"#utility.yul\":4546:4700   */\n    tag_169:\n        /* \"#utility.yul\":4635:4639   */\n      0x00\n        /* \"#utility.yul\":4658:4661   */\n      dup2\n        /* \"#utility.yul\":4650:4661   */\n      swap1\n      pop\n        /* \"#utility.yul\":4688:4692   */\n      0x20\n        /* \"#utility.yul\":4683:4686   */\n      dup3\n        /* \"#utility.yul\":4679:4693   */\n      add\n        /* \"#utility.yul\":4671:4693   */\n      swap1\n      pop\n        /* \"#utility.yul\":4546:4700   */\n      swap2\n      swap1\n      pop\n      jump\t// out\n        /* \"#utility.yul\":4706:4814   */\n    tag_170:\n        /* \"#utility.yul\":4783:4807   */\n      tag_268\n        /* \"#utility.yul\":4801:4806   */\n      dup2\n        /* \"#utility.yul\":4783:4807   */\n      tag_155\n      jump\t// in\n    tag_268:\n        /* \"#utility.yul\":4778:4781   */\n      dup3\n        /* \"#utility.yul\":4771:4808   */\n      mstore\n        /* \"#utility.yul\":4706:4814   */\n      pop\n      pop\n      jump\t// out\n        /* \"#utility.yul\":4820:4928   */\n    tag_171:\n        /* \"#utility.yul\":4897:4921   */\n      tag_270\n        /* \"#utility.yul\":4915:4920   */\n      dup2\n        /* \"#utility.yul\":4897:4921   */\n      tag_151\n      jump\t// in\n    tag_270:\n        /* \"#utility.yul\":4892:4895   */\n      dup3\n        /* \"#utility.yul\":4885:4922   */\n      mstore\n        /* \"#utility.yul\":4820:4928   */\n      pop\n      pop\n      jump\t// out\n        /* \"#utility.yul\":4934:5033   */\n    tag_172:\n        /* \"#utility.yul\":5005:5026   */\n      tag_272\n        /* \"#utility.yul\":5020:5025   */\n      dup2\n        /* \"#utility.yul\":5005:5026   */\n      tag_158\n      jump\t// in\n    tag_272:\n        /* \"#utility.yul\":5000:5003   */\n      dup3\n        /* \"#utility.yul\":4993:5027   */\n      mstore\n        /* \"#utility.yul\":4934:5033   */\n      pop\n      pop\n      jump\t// out\n        /* \"#utility.yul\":5101:5953   */\n    tag_173:\n        /* \"#utility.yul\":5232:5236   */\n      0x80\n        /* \"#utility.yul\":5227:5230   */\n      dup3\n        /* \"#utility.yul\":5223:5237   */\n      add\n        /* \"#utility.yul\":5320:5324   */\n      0x00\n        /* \"#utility.yul\":5313:5318   */\n      dup3\n        /* \"#utility.yul\":5309:5325   */\n      add\n        /* \"#utility.yul\":5303:5326   */\n      mload\n        /* \"#utility.yul\":5339:5402   */\n      tag_274\n        /* \"#utility.yul\":5396:5400   */\n      0x00\n        /* \"#utility.yul\":5391:5394   */\n      dup6\n        /* \"#utility.yul\":5387:5401   */\n      add\n        /* \"#utility.yul\":5373:5385   */\n      dup3\n        /* \"#utility.yul\":5339:5402   */\n      tag_170\n      jump\t// in\n    tag_274:\n        /* \"#utility.yul\":5247:5412   */\n      pop\n        /* \"#utility.yul\":5497:5501   */\n      0x20\n        /* \"#utility.yul\":5490:5495   */\n      dup3\n        /* \"#utility.yul\":5486:5502   */\n      add\n        /* \"#utility.yul\":5480:5503   */\n      mload\n        /* \"#utility.yul\":5516:5579   */\n      tag_275\n        /* \"#utility.yul\":5573:5577   */\n      0x20\n        /* \"#utility.yul\":5568:5571   */\n      dup6\n        /* \"#utility.yul\":5564:5578   */\n      add\n        /* \"#utility.yul\":5550:5562   */\n      dup3\n        /* \"#utility.yul\":5516:5579   */\n      tag_170\n      jump\t// in\n    tag_275:\n        /* \"#utility.yul\":5422:5589   */\n      pop\n        /* \"#utility.yul\":5674:5678   */\n      0x40\n        /* \"#utility.yul\":5667:5672   */\n      dup3\n        /* \"#utility.yul\":5663:5679   */\n      add\n        /* \"#utility.yul\":5657:5680   */\n      mload\n        /* \"#utility.yul\":5693:5756   */\n      tag_276\n        /* \"#utility.yul\":5750:5754   */\n      0x40\n        /* \"#utility.yul\":5745:5748   */\n      dup6\n        /* \"#utility.yul\":5741:5755   */\n      add\n        /* \"#utility.yul\":5727:5739   */\n      dup3\n        /* \"#utility.yul\":5693:5756   */\n      tag_171\n      jump\t// in\n    tag_276:\n        /* \"#utility.yul\":5599:5766   */\n      pop\n        /* \"#utility.yul\":5860:5864   */\n      0x60\n        /* \"#utility.yul\":5853:5858   */\n      dup3\n        /* \"#utility.yul\":5849:5865   */\n      add\n        /* \"#utility.yul\":5843:5866   */\n      mload\n        /* \"#utility.yul\":5879:5936   */\n      tag_277\n        /* \"#utility.yul\":5930:5934   */\n      0x60\n        /* \"#utility.yul\":5925:5928   */\n      dup6\n        /* \"#utility.yul\":5921:5935   */\n      add\n        /* \"#utility.yul\":5907:5919   */\n      dup3\n        /* \"#utility.yul\":5879:5936   */\n      tag_172\n      jump\t// in\n    tag_277:\n        /* \"#utility.yul\":5776:5946   */\n      pop\n        /* \"#utility.yul\":5201:5953   */\n      pop\n        /* \"#utility.yul\":5101:5953   */\n      pop\n      pop\n      jump\t// out\n        /* \"#utility.yul\":5959:6226   */\n    tag_174:\n        /* \"#utility.yul\":6072:6082   */\n      0x00\n        /* \"#utility.yul\":6093:6183   */\n      tag_279\n        /* \"#utility.yul\":6179:6182   */\n      dup4\n        /* \"#utility.yul\":6171:6177   */\n      dup4\n        /* \"#utility.yul\":6093:6183   */\n      tag_173\n      jump\t// in\n    tag_279:\n        /* \"#utility.yul\":6215:6219   */\n      0x80\n        /* \"#utility.yul\":6210:6213   */\n      dup4\n        /* \"#utility.yul\":6206:6220   */\n      add\n        /* \"#utility.yul\":6192:6220   */\n      swap1\n      pop\n        /* \"#utility.yul\":5959:6226   */\n      swap3\n      swap2\n      pop\n      pop\n      jump\t// out\n        /* \"#utility.yul\":6232:6367   */\n    tag_175:\n        /* \"#utility.yul\":6324:6328   */\n      0x00\n        /* \"#utility.yul\":6356:6360   */\n      0x20\n        /* \"#utility.yul\":6351:6354   */\n      dup3\n        /* \"#utility.yul\":6347:6361   */\n      add\n        /* \"#utility.yul\":6339:6361   */\n      swap1\n      pop\n        /* \"#utility.yul\":6232:6367   */\n      swap2\n      swap1\n      pop\n      jump\t// out\n        /* \"#utility.yul\":6439:7347   */\n    tag_176:\n        /* \"#utility.yul\":6602:6605   */\n      0x00\n        /* \"#utility.yul\":6631:6707   */\n      tag_282\n        /* \"#utility.yul\":6701:6706   */\n      dup3\n        /* \"#utility.yul\":6631:6707   */\n      tag_167\n      jump\t// in\n    tag_282:\n        /* \"#utility.yul\":6723:6831   */\n      tag_283\n        /* \"#utility.yul\":6824:6830   */\n      dup2\n        /* \"#utility.yul\":6819:6822   */\n      dup6\n        /* \"#utility.yul\":6723:6831   */\n      tag_168\n      jump\t// in\n    tag_283:\n        /* \"#utility.yul\":6716:6831   */\n      swap4\n      pop\n        /* \"#utility.yul\":6855:6933   */\n      tag_284\n        /* \"#utility.yul\":6927:6932   */\n      dup4\n        /* \"#utility.yul\":6855:6933   */\n      tag_169\n      jump\t// in\n    tag_284:\n        /* \"#utility.yul\":6956:6963   */\n      dup1\n        /* \"#utility.yul\":6987:6988   */\n      0x00\n        /* \"#utility.yul\":6972:7322   */\n    tag_285:\n        /* \"#utility.yul\":6997:7003   */\n      dup4\n        /* \"#utility.yul\":6994:6995   */\n      dup2\n        /* \"#utility.yul\":6991:7004   */\n      lt\n        /* \"#utility.yul\":6972:7322   */\n      iszero\n      tag_287\n      jumpi\n        /* \"#utility.yul\":7073:7079   */\n      dup2\n        /* \"#utility.yul\":7067:7080   */\n      mload\n        /* \"#utility.yul\":7100:7207   */\n      tag_288\n        /* \"#utility.yul\":7203:7206   */\n      dup9\n        /* \"#utility.yul\":7188:7201   */\n      dup3\n        /* \"#utility.yul\":7100:7207   */\n      tag_174\n      jump\t// in\n    tag_288:\n        /* \"#utility.yul\":7093:7207   */\n      swap8\n      pop\n        /* \"#utility.yul\":7230:7312   */\n      tag_289\n        /* \"#utility.yul\":7305:7311   */\n      dup4\n        /* \"#utility.yul\":7230:7312   */\n      tag_175\n      jump\t// in\n    tag_289:\n        /* \"#utility.yul\":7220:7312   */\n      swap3\n      pop\n        /* \"#utility.yul\":7032:7322   */\n      pop\n        /* \"#utility.yul\":7019:7020   */\n      0x01\n        /* \"#utility.yul\":7016:7017   */\n      dup2\n        /* \"#utility.yul\":7012:7021   */\n      add\n        /* \"#utility.yul\":7007:7021   */\n      swap1\n      pop\n        /* \"#utility.yul\":6972:7322   */\n      jump(tag_285)\n    tag_287:\n        /* \"#utility.yul\":6976:6990   */\n      pop\n        /* \"#utility.yul\":7338:7341   */\n      dup6\n        /* \"#utility.yul\":7331:7341   */\n      swap4\n      pop\n        /* \"#utility.yul\":6607:7347   */\n      pop\n      pop\n      pop\n        /* \"#utility.yul\":6439:7347   */\n      swap3\n      swap2\n      pop\n      pop\n      jump\t// out\n        /* \"#utility.yul\":7353:7814   */\n    tag_35:\n        /* \"#utility.yul\":7540:7544   */\n      0x00\n        /* \"#utility.yul\":7578:7580   */\n      0x20\n        /* \"#utility.yul\":7567:7576   */\n      dup3\n        /* \"#utility.yul\":7563:7581   */\n      add\n        /* \"#utility.yul\":7555:7581   */\n      swap1\n      pop\n        /* \"#utility.yul\":7627:7636   */\n      dup2\n        /* \"#utility.yul\":7621:7625   */\n      dup2\n        /* \"#utility.yul\":7617:7637   */\n      sub\n        /* \"#utility.yul\":7613:7614   */\n      0x00\n        /* \"#utility.yul\":7602:7611   */\n      dup4\n        /* \"#utility.yul\":7598:7615   */\n      add\n        /* \"#utility.yul\":7591:7638   */\n      mstore\n        /* \"#utility.yul\":7655:7807   */\n      tag_291\n        /* \"#utility.yul\":7802:7806   */\n      dup2\n        /* \"#utility.yul\":7793:7799   */\n      dup5\n        /* \"#utility.yul\":7655:7807   */\n      tag_176\n      jump\t// in\n    tag_291:\n        /* \"#utility.yul\":7647:7807   */\n      swap1\n      pop\n        /* \"#utility.yul\":7353:7814   */\n      swap3\n      swap2\n      pop\n      pop\n      jump\t// out\n        /* \"#utility.yul\":7820:8042   */\n    tag_39:\n        /* \"#utility.yul\":7913:7917   */\n      0x00\n        /* \"#utility.yul\":7951:7953   */\n      0x20\n        /* \"#utility.yul\":7940:7949   */\n      dup3\n        /* \"#utility.yul\":7936:7954   */\n      add\n        /* \"#utility.yul\":7928:7954   */\n      swap1\n      pop\n        /* \"#utility.yul\":7964:8035   */\n      tag_293\n        /* \"#utility.yul\":8032:8033   */\n      0x00\n        /* \"#utility.yul\":8021:8030   */\n      dup4\n        /* \"#utility.yul\":8017:8034   */\n      add\n        /* \"#utility.yul\":8008:8014   */\n      dup5\n        /* \"#utility.yul\":7964:8035   */\n      tag_156\n      jump\t// in\n    tag_293:\n        /* \"#utility.yul\":7820:8042   */\n      swap3\n      swap2\n      pop\n      pop\n      jump\t// out\n        /* \"#utility.yul\":8048:8190   */\n    tag_177:\n        /* \"#utility.yul\":8114:8123   */\n      0x00\n        /* \"#utility.yul\":8147:8184   */\n      tag_295\n        /* \"#utility.yul\":8178:8183   */\n      dup3\n        /* \"#utility.yul\":8147:8184   */\n      tag_164\n      jump\t// in\n    tag_295:\n        /* \"#utility.yul\":8134:8184   */\n      swap1\n      pop\n        /* \"#utility.yul\":8048:8190   */\n      swap2\n      swap1\n      pop\n      jump\t// out\n        /* \"#utility.yul\":8196:8359   */\n    tag_178:\n        /* \"#utility.yul\":8299:8352   */\n      tag_297\n        /* \"#utility.yul\":8346:8351   */\n      dup2\n        /* \"#utility.yul\":8299:8352   */\n      tag_177\n      jump\t// in\n    tag_297:\n        /* \"#utility.yul\":8294:8297   */\n      dup3\n        /* \"#utility.yul\":8287:8353   */\n      mstore\n        /* \"#utility.yul\":8196:8359   */\n      pop\n      pop\n      jump\t// out\n        /* \"#utility.yul\":8365:8619   */\n    tag_43:\n        /* \"#utility.yul\":8474:8478   */\n      0x00\n        /* \"#utility.yul\":8512:8514   */\n      0x20\n        /* \"#utility.yul\":8501:8510   */\n      dup3\n        /* \"#utility.yul\":8497:8515   */\n      add\n        /* \"#utility.yul\":8489:8515   */\n      swap1\n      pop\n        /* \"#utility.yul\":8525:8612   */\n      tag_299\n        /* \"#utility.yul\":8609:8610   */\n      0x00\n        /* \"#utility.yul\":8598:8607   */\n      dup4\n        /* \"#utility.yul\":8594:8611   */\n      add\n        /* \"#utility.yul\":8585:8591   */\n      dup5\n        /* \"#utility.yul\":8525:8612   */\n      tag_178\n      jump\t// in\n    tag_299:\n        /* \"#utility.yul\":8365:8619   */\n      swap3\n      swap2\n      pop\n      pop\n      jump\t// out\n        /* \"#utility.yul\":8625:8794   */\n    tag_179:\n        /* \"#utility.yul\":8709:8720   */\n      0x00\n        /* \"#utility.yul\":8743:8749   */\n      dup3\n        /* \"#utility.yul\":8738:8741   */\n      dup3\n        /* \"#utility.yul\":8731:8750   */\n      mstore\n        /* \"#utility.yul\":8783:8787   */\n      0x20\n        /* \"#utility.yul\":8778:8781   */\n      dup3\n        /* \"#utility.yul\":8774:8788   */\n      add\n        /* \"#utility.yul\":8759:8788   */\n      swap1\n      pop\n        /* \"#utility.yul\":8625:8794   */\n      swap3\n      swap2\n      pop\n      pop\n      jump\t// out\n        /* \"#utility.yul\":8800:9020   */\n    tag_180:\n        /* \"#utility.yul\":8940:8974   */\n      0x446f6e6f7220686173206e6f7420617070726f7665642074686973206f726761\n        /* \"#utility.yul\":8936:8937   */\n      0x00\n        /* \"#utility.yul\":8928:8934   */\n      dup3\n        /* \"#utility.yul\":8924:8938   */\n      add\n        /* \"#utility.yul\":8917:8975   */\n      mstore\n        /* \"#utility.yul\":9009:9012   */\n      0x6e00000000000000000000000000000000000000000000000000000000000000\n        /* \"#utility.yul\":9004:9006   */\n      0x20\n        /* \"#utility.yul\":8996:9002   */\n      dup3\n        /* \"#utility.yul\":8992:9007   */\n      add\n        /* \"#utility.yul\":8985:9013   */\n      mstore\n        /* \"#utility.yul\":8800:9020   */\n      pop\n      jump\t// out\n        /* \"#utility.yul\":9026:9392   */\n    tag_181:\n        /* \"#utility.yul\":9168:9171   */\n      0x00\n        /* \"#utility.yul\":9189:9256   */\n      tag_303\n        /* \"#utility.yul\":9253:9255   */\n      0x21\n        /* \"#utility.yul\":9248:9251   */\n      dup4\n        /* \"#utility.yul\":9189:9256   */\n      tag_179\n      jump\t// in\n    tag_303:\n        /* \"#utility.yul\":9182:9256   */\n      swap2\n      pop\n        /* \"#utility.yul\":9265:9358   */\n      tag_304\n        /* \"#utility.yul\":9354:9357   */\n      dup3\n        /* \"#utility.yul\":9265:9358   */\n      tag_180\n      jump\t// in\n    tag_304:\n        /* \"#utility.yul\":9383:9385   */\n      0x40\n        /* \"#utility.yul\":9378:9381   */\n      dup3\n        /* \"#utility.yul\":9374:9386   */\n      add\n        /* \"#utility.yul\":9367:9386   */\n      swap1\n      pop\n        /* \"#utility.yul\":9026:9392   */\n      swap2\n      swap1\n      pop\n      jump\t// out\n        /* \"#utility.yul\":9398:9817   */\n    tag_55:\n        /* \"#utility.yul\":9564:9568   */\n      0x00\n        /* \"#utility.yul\":9602:9604   */\n      0x20\n        /* \"#utility.yul\":9591:9600   */\n      dup3\n        /* \"#utility.yul\":9587:9605   */\n      add\n        /* \"#utility.yul\":9579:9605   */\n      swap1\n      pop\n        /* \"#utility.yul\":9651:9660   */\n      dup2\n        /* \"#utility.yul\":9645:9649   */\n      dup2\n        /* \"#utility.yul\":9641:9661   */\n      sub\n        /* \"#utility.yul\":9637:9638   */\n      0x00\n        /* \"#utility.yul\":9626:9635   */\n      dup4\n        /* \"#utility.yul\":9622:9639   */\n      add\n        /* \"#utility.yul\":9615:9662   */\n      mstore\n        /* \"#utility.yul\":9679:9810   */\n      tag_306\n        /* \"#utility.yul\":9805:9809   */\n      dup2\n        /* \"#utility.yul\":9679:9810   */\n      tag_181\n      jump\t// in\n    tag_306:\n        /* \"#utility.yul\":9671:9810   */\n      swap1\n      pop\n        /* \"#utility.yul\":9398:9817   */\n      swap2\n      swap1\n      pop\n      jump\t// out\n        /* \"#utility.yul\":9823:9966   */\n    tag_182:\n        /* \"#utility.yul\":9880:9885   */\n      0x00\n        /* \"#utility.yul\":9911:9917   */\n      dup2\n        /* \"#utility.yul\":9905:9918   */\n      mload\n        /* \"#utility.yul\":9896:9918   */\n      swap1\n      pop\n        /* \"#utility.yul\":9927:9960   */\n      tag_308\n        /* \"#utility.yul\":9954:9959   */\n      dup2\n        /* \"#utility.yul\":9927:9960   */\n      tag_160\n      jump\t// in\n    tag_308:\n        /* \"#utility.yul\":9823:9966   */\n      swap3\n      swap2\n      pop\n      pop\n      jump\t// out\n        /* \"#utility.yul\":9972:10089   */\n    tag_183:\n        /* \"#utility.yul\":10081:10082   */\n      0x00\n        /* \"#utility.yul\":10078:10079   */\n      dup1\n        /* \"#utility.yul\":10071:10083   */\n      revert\n        /* \"#utility.yul\":10095:10212   */\n    tag_184:\n        /* \"#utility.yul\":10204:10205   */\n      0x00\n        /* \"#utility.yul\":10201:10202   */\n      dup1\n        /* \"#utility.yul\":10194:10206   */\n      revert\n        /* \"#utility.yul\":10218:10320   */\n    tag_185:\n        /* \"#utility.yul\":10259:10265   */\n      0x00\n        /* \"#utility.yul\":10310:10312   */\n      0x1f\n        /* \"#utility.yul\":10306:10313   */\n      not\n        /* \"#utility.yul\":10301:10303   */\n      0x1f\n        /* \"#utility.yul\":10294:10299   */\n      dup4\n        /* \"#utility.yul\":10290:10304   */\n      add\n        /* \"#utility.yul\":10286:10314   */\n      and\n        /* \"#utility.yul\":10276:10314   */\n      swap1\n      pop\n        /* \"#utility.yul\":10218:10320   */\n      swap2\n      swap1\n      pop\n      jump\t// out\n        /* \"#utility.yul\":10326:10506   */\n    tag_134:\n        /* \"#utility.yul\":10374:10451   */\n      0x4e487b7100000000000000000000000000000000000000000000000000000000\n        /* \"#utility.yul\":10371:10372   */\n      0x00\n        /* \"#utility.yul\":10364:10452   */\n      mstore\n        /* \"#utility.yul\":10471:10475   */\n      0x41\n        /* \"#utility.yul\":10468:10469   */\n      0x04\n        /* \"#utility.yul\":10461:10476   */\n      mstore\n        /* \"#utility.yul\":10495:10499   */\n      0x24\n        /* \"#utility.yul\":10492:10493   */\n      0x00\n        /* \"#utility.yul\":10485:10500   */\n      revert\n        /* \"#utility.yul\":10512:10793   */\n    tag_186:\n        /* \"#utility.yul\":10595:10622   */\n      tag_314\n        /* \"#utility.yul\":10617:10621   */\n      dup3\n        /* \"#utility.yul\":10595:10622   */\n      tag_185\n      jump\t// in\n    tag_314:\n        /* \"#utility.yul\":10587:10593   */\n      dup2\n        /* \"#utility.yul\":10583:10623   */\n      add\n        /* \"#utility.yul\":10725:10731   */\n      dup2\n        /* \"#utility.yul\":10713:10723   */\n      dup2\n        /* \"#utility.yul\":10710:10732   */\n      lt\n        /* \"#utility.yul\":10689:10707   */\n      0xffffffffffffffff\n        /* \"#utility.yul\":10677:10687   */\n      dup3\n        /* \"#utility.yul\":10674:10708   */\n      gt\n        /* \"#utility.yul\":10671:10733   */\n      or\n        /* \"#utility.yul\":10668:10756   */\n      iszero\n      tag_315\n      jumpi\n        /* \"#utility.yul\":10736:10754   */\n      tag_316\n      tag_134\n      jump\t// in\n    tag_316:\n        /* \"#utility.yul\":10668:10756   */\n    tag_315:\n        /* \"#utility.yul\":10776:10786   */\n      dup1\n        /* \"#utility.yul\":10772:10774   */\n      0x40\n        /* \"#utility.yul\":10765:10787   */\n      mstore\n        /* \"#utility.yul\":10555:10793   */\n      pop\n        /* \"#utility.yul\":10512:10793   */\n      pop\n      pop\n      jump\t// out\n        /* \"#utility.yul\":10799:10928   */\n    tag_187:\n        /* \"#utility.yul\":10833:10839   */\n      0x00\n        /* \"#utility.yul\":10860:10880   */\n      tag_318\n      tag_148\n      jump\t// in\n    tag_318:\n        /* \"#utility.yul\":10850:10880   */\n      swap1\n      pop\n        /* \"#utility.yul\":10889:10922   */\n      tag_319\n        /* \"#utility.yul\":10917:10921   */\n      dup3\n        /* \"#utility.yul\":10909:10915   */\n      dup3\n        /* \"#utility.yul\":10889:10922   */\n      tag_186\n      jump\t// in\n    tag_319:\n        /* \"#utility.yul\":10799:10928   */\n      swap2\n      swap1\n      pop\n      jump\t// out\n        /* \"#utility.yul\":10934:11242   */\n    tag_188:\n        /* \"#utility.yul\":10996:11000   */\n      0x00\n        /* \"#utility.yul\":11086:11104   */\n      0xffffffffffffffff\n        /* \"#utility.yul\":11078:11084   */\n      dup3\n        /* \"#utility.yul\":11075:11105   */\n      gt\n        /* \"#utility.yul\":11072:11128   */\n      iszero\n      tag_321\n      jumpi\n        /* \"#utility.yul\":11108:11126   */\n      tag_322\n      tag_134\n      jump\t// in\n    tag_322:\n        /* \"#utility.yul\":11072:11128   */\n    tag_321:\n        /* \"#utility.yul\":11146:11175   */\n      tag_323\n        /* \"#utility.yul\":11168:11174   */\n      dup3\n        /* \"#utility.yul\":11146:11175   */\n      tag_185\n      jump\t// in\n    tag_323:\n        /* \"#utility.yul\":11138:11175   */\n      swap1\n      pop\n        /* \"#utility.yul\":11230:11234   */\n      0x20\n        /* \"#utility.yul\":11224:11228   */\n      dup2\n        /* \"#utility.yul\":11220:11235   */\n      add\n        /* \"#utility.yul\":11212:11235   */\n      swap1\n      pop\n        /* \"#utility.yul\":10934:11242   */\n      swap2\n      swap1\n      pop\n      jump\t// out\n        /* \"#utility.yul\":11248:11387   */\n    tag_189:\n        /* \"#utility.yul\":11337:11343   */\n      dup3\n        /* \"#utility.yul\":11332:11335   */\n      dup2\n        /* \"#utility.yul\":11327:11330   */\n      dup4\n        /* \"#utility.yul\":11321:11344   */\n      mcopy\n        /* \"#utility.yul\":11378:11379   */\n      0x00\n        /* \"#utility.yul\":11369:11375   */\n      dup4\n        /* \"#utility.yul\":11364:11367   */\n      dup4\n        /* \"#utility.yul\":11360:11376   */\n      add\n        /* \"#utility.yul\":11353:11380   */\n      mstore\n        /* \"#utility.yul\":11248:11387   */\n      pop\n      pop\n      pop\n      jump\t// out\n        /* \"#utility.yul\":11393:11827   */\n    tag_190:\n        /* \"#utility.yul\":11482:11487   */\n      0x00\n        /* \"#utility.yul\":11507:11573   */\n      tag_326\n        /* \"#utility.yul\":11523:11572   */\n      tag_327\n        /* \"#utility.yul\":11565:11571   */\n      dup5\n        /* \"#utility.yul\":11523:11572   */\n      tag_188\n      jump\t// in\n    tag_327:\n        /* \"#utility.yul\":11507:11573   */\n      tag_187\n      jump\t// in\n    tag_326:\n        /* \"#utility.yul\":11498:11573   */\n      swap1\n      pop\n        /* \"#utility.yul\":11596:11602   */\n      dup3\n        /* \"#utility.yul\":11589:11594   */\n      dup2\n        /* \"#utility.yul\":11582:11603   */\n      mstore\n        /* \"#utility.yul\":11634:11638   */\n      0x20\n        /* \"#utility.yul\":11627:11632   */\n      dup2\n        /* \"#utility.yul\":11623:11639   */\n      add\n        /* \"#utility.yul\":11672:11675   */\n      dup5\n        /* \"#utility.yul\":11663:11669   */\n      dup5\n        /* \"#utility.yul\":11658:11661   */\n      dup5\n        /* \"#utility.yul\":11654:11670   */\n      add\n        /* \"#utility.yul\":11651:11676   */\n      gt\n        /* \"#utility.yul\":11648:11760   */\n      iszero\n      tag_328\n      jumpi\n        /* \"#utility.yul\":11679:11758   */\n      tag_329\n      tag_184\n      jump\t// in\n    tag_329:\n        /* \"#utility.yul\":11648:11760   */\n    tag_328:\n        /* \"#utility.yul\":11769:11821   */\n      tag_330\n        /* \"#utility.yul\":11814:11820   */\n      dup5\n        /* \"#utility.yul\":11809:11812   */\n      dup3\n        /* \"#utility.yul\":11804:11807   */\n      dup6\n        /* \"#utility.yul\":11769:11821   */\n      tag_189\n      jump\t// in\n    tag_330:\n        /* \"#utility.yul\":11488:11827   */\n      pop\n        /* \"#utility.yul\":11393:11827   */\n      swap4\n      swap3\n      pop\n      pop\n      pop\n      jump\t// out\n        /* \"#utility.yul\":11847:12202   */\n    tag_191:\n        /* \"#utility.yul\":11914:11919   */\n      0x00\n        /* \"#utility.yul\":11963:11966   */\n      dup3\n        /* \"#utility.yul\":11956:11960   */\n      0x1f\n        /* \"#utility.yul\":11948:11954   */\n      dup4\n        /* \"#utility.yul\":11944:11961   */\n      add\n        /* \"#utility.yul\":11940:11967   */\n      slt\n        /* \"#utility.yul\":11930:12052   */\n      tag_332\n      jumpi\n        /* \"#utility.yul\":11971:12050   */\n      tag_333\n      tag_183\n      jump\t// in\n    tag_333:\n        /* \"#utility.yul\":11930:12052   */\n    tag_332:\n        /* \"#utility.yul\":12081:12087   */\n      dup2\n        /* \"#utility.yul\":12075:12088   */\n      mload\n        /* \"#utility.yul\":12106:12196   */\n      tag_334\n        /* \"#utility.yul\":12192:12195   */\n      dup5\n        /* \"#utility.yul\":12184:12190   */\n      dup3\n        /* \"#utility.yul\":12177:12181   */\n      0x20\n        /* \"#utility.yul\":12169:12175   */\n      dup7\n        /* \"#utility.yul\":12165:12182   */\n      add\n        /* \"#utility.yul\":12106:12196   */\n      tag_190\n      jump\t// in\n    tag_334:\n        /* \"#utility.yul\":12097:12196   */\n      swap2\n      pop\n        /* \"#utility.yul\":11920:12202   */\n      pop\n        /* \"#utility.yul\":11847:12202   */\n      swap3\n      swap2\n      pop\n      pop\n      jump\t// out\n        /* \"#utility.yul\":12208:13547   */\n    tag_60:\n        /* \"#utility.yul\":12335:12341   */\n      0x00\n        /* \"#utility.yul\":12343:12349   */\n      dup1\n        /* \"#utility.yul\":12351:12357   */\n      0x00\n        /* \"#utility.yul\":12359:12365   */\n      dup1\n        /* \"#utility.yul\":12408:12411   */\n      0x80\n        /* \"#utility.yul\":12396:12405   */\n      dup6\n        /* \"#utility.yul\":12387:12394   */\n      dup8\n        /* \"#utility.yul\":12383:12406   */\n      sub\n        /* \"#utility.yul\":12379:12412   */\n      slt\n        /* \"#utility.yul\":12376:12496   */\n      iszero\n      tag_336\n      jumpi\n        /* \"#utility.yul\":12415:12494   */\n      tag_337\n      tag_149\n      jump\t// in\n    tag_337:\n        /* \"#utility.yul\":12376:12496   */\n    tag_336:\n        /* \"#utility.yul\":12535:12536   */\n      0x00\n        /* \"#utility.yul\":12560:12624   */\n      tag_338\n        /* \"#utility.yul\":12616:12623   */\n      dup8\n        /* \"#utility.yul\":12607:12613   */\n      dup3\n        /* \"#utility.yul\":12596:12605   */\n      dup9\n        /* \"#utility.yul\":12592:12614   */\n      add\n        /* \"#utility.yul\":12560:12624   */\n      tag_182\n      jump\t// in\n    tag_338:\n        /* \"#utility.yul\":12550:12624   */\n      swap5\n      pop\n        /* \"#utility.yul\":12506:12634   */\n      pop\n        /* \"#utility.yul\":12694:12696   */\n      0x20\n        /* \"#utility.yul\":12683:12692   */\n      dup6\n        /* \"#utility.yul\":12679:12697   */\n      add\n        /* \"#utility.yul\":12673:12698   */\n      mload\n        /* \"#utility.yul\":12725:12743   */\n      0xffffffffffffffff\n        /* \"#utility.yul\":12717:12723   */\n      dup2\n        /* \"#utility.yul\":12714:12744   */\n      gt\n        /* \"#utility.yul\":12711:12828   */\n      iszero\n      tag_339\n      jumpi\n        /* \"#utility.yul\":12747:12826   */\n      tag_340\n      tag_150\n      jump\t// in\n    tag_340:\n        /* \"#utility.yul\":12711:12828   */\n    tag_339:\n        /* \"#utility.yul\":12852:12926   */\n      tag_341\n        /* \"#utility.yul\":12918:12925   */\n      dup8\n        /* \"#utility.yul\":12909:12915   */\n      dup3\n        /* \"#utility.yul\":12898:12907   */\n      dup9\n        /* \"#utility.yul\":12894:12916   */\n      add\n        /* \"#utility.yul\":12852:12926   */\n      tag_191\n      jump\t// in\n    tag_341:\n        /* \"#utility.yul\":12842:12926   */\n      swap4\n      pop\n        /* \"#utility.yul\":12644:12936   */\n      pop\n        /* \"#utility.yul\":12996:12998   */\n      0x40\n        /* \"#utility.yul\":12985:12994   */\n      dup6\n        /* \"#utility.yul\":12981:12999   */\n      add\n        /* \"#utility.yul\":12975:13000   */\n      mload\n        /* \"#utility.yul\":13027:13045   */\n      0xffffffffffffffff\n        /* \"#utility.yul\":13019:13025   */\n      dup2\n        /* \"#utility.yul\":13016:13046   */\n      gt\n        /* \"#utility.yul\":13013:13130   */\n      iszero\n      tag_342\n      jumpi\n        /* \"#utility.yul\":13049:13128   */\n      tag_343\n      tag_150\n      jump\t// in\n    tag_343:\n        /* \"#utility.yul\":13013:13130   */\n    tag_342:\n        /* \"#utility.yul\":13154:13228   */\n      tag_344\n        /* \"#utility.yul\":13220:13227   */\n      dup8\n        /* \"#utility.yul\":13211:13217   */\n      dup3\n        /* \"#utility.yul\":13200:13209   */\n      dup9\n        /* \"#utility.yul\":13196:13218   */\n      add\n        /* \"#utility.yul\":13154:13228   */\n      tag_191\n      jump\t// in\n    tag_344:\n        /* \"#utility.yul\":13144:13228   */\n      swap3\n      pop\n        /* \"#utility.yul\":12946:13238   */\n      pop\n        /* \"#utility.yul\":13298:13300   */\n      0x60\n        /* \"#utility.yul\":13287:13296   */\n      dup6\n        /* \"#utility.yul\":13283:13301   */\n      add\n        /* \"#utility.yul\":13277:13302   */\n      mload\n        /* \"#utility.yul\":13329:13347   */\n      0xffffffffffffffff\n        /* \"#utility.yul\":13321:13327   */\n      dup2\n        /* \"#utility.yul\":13318:13348   */\n      gt\n        /* \"#utility.yul\":13315:13432   */\n      iszero\n      tag_345\n      jumpi\n        /* \"#utility.yul\":13351:13430   */\n      tag_346\n      tag_150\n      jump\t// in\n    tag_346:\n        /* \"#utility.yul\":13315:13432   */\n    tag_345:\n        /* \"#utility.yul\":13456:13530   */\n      tag_347\n        /* \"#utility.yul\":13522:13529   */\n      dup8\n        /* \"#utility.yul\":13513:13519   */\n      dup3\n        /* \"#utility.yul\":13502:13511   */\n      dup9\n        /* \"#utility.yul\":13498:13520   */\n      add\n        /* \"#utility.yul\":13456:13530   */\n      tag_191\n      jump\t// in\n    tag_347:\n        /* \"#utility.yul\":13446:13530   */\n      swap2\n      pop\n        /* \"#utility.yul\":13248:13540   */\n      pop\n        /* \"#utility.yul\":12208:13547   */\n      swap3\n      swap6\n      swap2\n      swap5\n      pop\n      swap3\n      pop\n      jump\t// out\n        /* \"#utility.yul\":13553:13725   */\n    tag_192:\n        /* \"#utility.yul\":13693:13717   */\n      0x50617469656e7420646f6573206e6f7420657869737400000000000000000000\n        /* \"#utility.yul\":13689:13690   */\n      0x00\n        /* \"#utility.yul\":13681:13687   */\n      dup3\n        /* \"#utility.yul\":13677:13691   */\n      add\n        /* \"#utility.yul\":13670:13718   */\n      mstore\n        /* \"#utility.yul\":13553:13725   */\n      pop\n      jump\t// out\n        /* \"#utility.yul\":13731:14097   */\n    tag_193:\n        /* \"#utility.yul\":13873:13876   */\n      0x00\n        /* \"#utility.yul\":13894:13961   */\n      tag_350\n        /* \"#utility.yul\":13958:13960   */\n      0x16\n        /* \"#utility.yul\":13953:13956   */\n      dup4\n        /* \"#utility.yul\":13894:13961   */\n      tag_179\n      jump\t// in\n    tag_350:\n        /* \"#utility.yul\":13887:13961   */\n      swap2\n      pop\n        /* \"#utility.yul\":13970:14063   */\n      tag_351\n        /* \"#utility.yul\":14059:14062   */\n      dup3\n        /* \"#utility.yul\":13970:14063   */\n      tag_192\n      jump\t// in\n    tag_351:\n        /* \"#utility.yul\":14088:14090   */\n      0x20\n        /* \"#utility.yul\":14083:14086   */\n      dup3\n        /* \"#utility.yul\":14079:14091   */\n      add\n        /* \"#utility.yul\":14072:14091   */\n      swap1\n      pop\n        /* \"#utility.yul\":13731:14097   */\n      swap2\n      swap1\n      pop\n      jump\t// out\n        /* \"#utility.yul\":14103:14522   */\n    tag_63:\n        /* \"#utility.yul\":14269:14273   */\n      0x00\n        /* \"#utility.yul\":14307:14309   */\n      0x20\n        /* \"#utility.yul\":14296:14305   */\n      dup3\n        /* \"#utility.yul\":14292:14310   */\n      add\n        /* \"#utility.yul\":14284:14310   */\n      swap1\n      pop\n        /* \"#utility.yul\":14356:14365   */\n      dup2\n        /* \"#utility.yul\":14350:14354   */\n      dup2\n        /* \"#utility.yul\":14346:14366   */\n      sub\n        /* \"#utility.yul\":14342:14343   */\n      0x00\n        /* \"#utility.yul\":14331:14340   */\n      dup4\n        /* \"#utility.yul\":14327:14344   */\n      add\n        /* \"#utility.yul\":14320:14367   */\n      mstore\n        /* \"#utility.yul\":14384:14515   */\n      tag_353\n        /* \"#utility.yul\":14510:14514   */\n      dup2\n        /* \"#utility.yul\":14384:14515   */\n      tag_193\n      jump\t// in\n    tag_353:\n        /* \"#utility.yul\":14376:14515   */\n      swap1\n      pop\n        /* \"#utility.yul\":14103:14522   */\n      swap2\n      swap1\n      pop\n      jump\t// out\n        /* \"#utility.yul\":14528:14750   */\n    tag_65:\n        /* \"#utility.yul\":14621:14625   */\n      0x00\n        /* \"#utility.yul\":14659:14661   */\n      0x20\n        /* \"#utility.yul\":14648:14657   */\n      dup3\n        /* \"#utility.yul\":14644:14662   */\n      add\n        /* \"#utility.yul\":14636:14662   */\n      swap1\n      pop\n        /* \"#utility.yul\":14672:14743   */\n      tag_355\n        /* \"#utility.yul\":14740:14741   */\n      0x00\n        /* \"#utility.yul\":14729:14738   */\n      dup4\n        /* \"#utility.yul\":14725:14742   */\n      add\n        /* \"#utility.yul\":14716:14722   */\n      dup5\n        /* \"#utility.yul\":14672:14743   */\n      tag_157\n      jump\t// in\n    tag_355:\n        /* \"#utility.yul\":14528:14750   */\n      swap3\n      swap2\n      pop\n      pop\n      jump\t// out\n        /* \"#utility.yul\":14756:15609   */\n    tag_69:\n        /* \"#utility.yul\":14855:14861   */\n      0x00\n        /* \"#utility.yul\":14863:14869   */\n      dup1\n        /* \"#utility.yul\":14912:14914   */\n      0x40\n        /* \"#utility.yul\":14900:14909   */\n      dup4\n        /* \"#utility.yul\":14891:14898   */\n      dup6\n        /* \"#utility.yul\":14887:14910   */\n      sub\n        /* \"#utility.yul\":14883:14915   */\n      slt\n        /* \"#utility.yul\":14880:14999   */\n      iszero\n      tag_357\n      jumpi\n        /* \"#utility.yul\":14918:14997   */\n      tag_358\n      tag_149\n      jump\t// in\n    tag_358:\n        /* \"#utility.yul\":14880:14999   */\n    tag_357:\n        /* \"#utility.yul\":15059:15060   */\n      0x00\n        /* \"#utility.yul\":15048:15057   */\n      dup4\n        /* \"#utility.yul\":15044:15061   */\n      add\n        /* \"#utility.yul\":15038:15062   */\n      mload\n        /* \"#utility.yul\":15089:15107   */\n      0xffffffffffffffff\n        /* \"#utility.yul\":15081:15087   */\n      dup2\n        /* \"#utility.yul\":15078:15108   */\n      gt\n        /* \"#utility.yul\":15075:15192   */\n      iszero\n      tag_359\n      jumpi\n        /* \"#utility.yul\":15111:15190   */\n      tag_360\n      tag_150\n      jump\t// in\n    tag_360:\n        /* \"#utility.yul\":15075:15192   */\n    tag_359:\n        /* \"#utility.yul\":15216:15290   */\n      tag_361\n        /* \"#utility.yul\":15282:15289   */\n      dup6\n        /* \"#utility.yul\":15273:15279   */\n      dup3\n        /* \"#utility.yul\":15262:15271   */\n      dup7\n        /* \"#utility.yul\":15258:15280   */\n      add\n        /* \"#utility.yul\":15216:15290   */\n      tag_191\n      jump\t// in\n    tag_361:\n        /* \"#utility.yul\":15206:15290   */\n      swap3\n      pop\n        /* \"#utility.yul\":15009:15300   */\n      pop\n        /* \"#utility.yul\":15360:15362   */\n      0x20\n        /* \"#utility.yul\":15349:15358   */\n      dup4\n        /* \"#utility.yul\":15345:15363   */\n      add\n        /* \"#utility.yul\":15339:15364   */\n      mload\n        /* \"#utility.yul\":15391:15409   */\n      0xffffffffffffffff\n        /* \"#utility.yul\":15383:15389   */\n      dup2\n        /* \"#utility.yul\":15380:15410   */\n      gt\n        /* \"#utility.yul\":15377:15494   */\n      iszero\n      tag_362\n      jumpi\n        /* \"#utility.yul\":15413:15492   */\n      tag_363\n      tag_150\n      jump\t// in\n    tag_363:\n        /* \"#utility.yul\":15377:15494   */\n    tag_362:\n        /* \"#utility.yul\":15518:15592   */\n      tag_364\n        /* \"#utility.yul\":15584:15591   */\n      dup6\n        /* \"#utility.yul\":15575:15581   */\n      dup3\n        /* \"#utility.yul\":15564:15573   */\n      dup7\n        /* \"#utility.yul\":15560:15582   */\n      add\n        /* \"#utility.yul\":15518:15592   */\n      tag_191\n      jump\t// in\n    tag_364:\n        /* \"#utility.yul\":15508:15592   */\n      swap2\n      pop\n        /* \"#utility.yul\":15310:15602   */\n      pop\n        /* \"#utility.yul\":14756:15609   */\n      swap3\n      pop\n      swap3\n      swap1\n      pop\n      jump\t// out\n        /* \"#utility.yul\":15615:15714   */\n    tag_194:\n        /* \"#utility.yul\":15667:15673   */\n      0x00\n        /* \"#utility.yul\":15701:15706   */\n      dup2\n        /* \"#utility.yul\":15695:15707   */\n      mload\n        /* \"#utility.yul\":15685:15707   */\n      swap1\n      pop\n        /* \"#utility.yul\":15615:15714   */\n      swap2\n      swap1\n      pop\n      jump\t// out\n        /* \"#utility.yul\":15720:15868   */\n    tag_195:\n        /* \"#utility.yul\":15822:15833   */\n      0x00\n        /* \"#utility.yul\":15859:15862   */\n      dup2\n        /* \"#utility.yul\":15844:15862   */\n      swap1\n      pop\n        /* \"#utility.yul\":15720:15868   */\n      swap3\n      swap2\n      pop\n      pop\n      jump\t// out\n        /* \"#utility.yul\":15874:16264   */\n    tag_196:\n        /* \"#utility.yul\":15980:15983   */\n      0x00\n        /* \"#utility.yul\":16008:16047   */\n      tag_368\n        /* \"#utility.yul\":16041:16046   */\n      dup3\n        /* \"#utility.yul\":16008:16047   */\n      tag_194\n      jump\t// in\n    tag_368:\n        /* \"#utility.yul\":16063:16152   */\n      tag_369\n        /* \"#utility.yul\":16145:16151   */\n      dup2\n        /* \"#utility.yul\":16140:16143   */\n      dup6\n        /* \"#utility.yul\":16063:16152   */\n      tag_195\n      jump\t// in\n    tag_369:\n        /* \"#utility.yul\":16056:16152   */\n      swap4\n      pop\n        /* \"#utility.yul\":16161:16226   */\n      tag_370\n        /* \"#utility.yul\":16219:16225   */\n      dup2\n        /* \"#utility.yul\":16214:16217   */\n      dup6\n        /* \"#utility.yul\":16207:16211   */\n      0x20\n        /* \"#utility.yul\":16200:16205   */\n      dup7\n        /* \"#utility.yul\":16196:16212   */\n      add\n        /* \"#utility.yul\":16161:16226   */\n      tag_189\n      jump\t// in\n    tag_370:\n        /* \"#utility.yul\":16251:16257   */\n      dup1\n        /* \"#utility.yul\":16246:16249   */\n      dup5\n        /* \"#utility.yul\":16242:16258   */\n      add\n        /* \"#utility.yul\":16235:16258   */\n      swap2\n      pop\n        /* \"#utility.yul\":15984:16264   */\n      pop\n        /* \"#utility.yul\":15874:16264   */\n      swap3\n      swap2\n      pop\n      pop\n      jump\t// out\n        /* \"#utility.yul\":16270:16545   */\n    tag_73:\n        /* \"#utility.yul\":16402:16405   */\n      0x00\n        /* \"#utility.yul\":16424:16519   */\n      tag_372\n        /* \"#utility.yul\":16515:16518   */\n      dup3\n        /* \"#utility.yul\":16506:16512   */\n      dup5\n        /* \"#utility.yul\":16424:16519   */\n      tag_196\n      jump\t// in\n    tag_372:\n        /* \"#utility.yul\":16417:16519   */\n      swap2\n      pop\n        /* \"#utility.yul\":16536:16539   */\n      dup2\n        /* \"#utility.yul\":16529:16539   */\n      swap1\n      pop\n        /* \"#utility.yul\":16270:16545   */\n      swap3\n      swap2\n      pop\n      pop\n      jump\t// out\n        /* \"#utility.yul\":16551:16720   */\n    tag_197:\n        /* \"#utility.yul\":16691:16712   */\n      0x4f7267616e2074797065206d69736d6174636800000000000000000000000000\n        /* \"#utility.yul\":16687:16688   */\n      0x00\n        /* \"#utility.yul\":16679:16685   */\n      dup3\n        /* \"#utility.yul\":16675:16689   */\n      add\n        /* \"#utility.yul\":16668:16713   */\n      mstore\n        /* \"#utility.yul\":16551:16720   */\n      pop\n      jump\t// out\n        /* \"#utility.yul\":16726:17092   */\n    tag_198:\n        /* \"#utility.yul\":16868:16871   */\n      0x00\n        /* \"#utility.yul\":16889:16956   */\n      tag_375\n        /* \"#utility.yul\":16953:16955   */\n      0x13\n        /* \"#utility.yul\":16948:16951   */\n      dup4\n        /* \"#utility.yul\":16889:16956   */\n      tag_179\n      jump\t// in\n    tag_375:\n        /* \"#utility.yul\":16882:16956   */\n      swap2\n      pop\n        /* \"#utility.yul\":16965:17058   */\n      tag_376\n        /* \"#utility.yul\":17054:17057   */\n      dup3\n        /* \"#utility.yul\":16965:17058   */\n      tag_197\n      jump\t// in\n    tag_376:\n        /* \"#utility.yul\":17083:17085   */\n      0x20\n        /* \"#utility.yul\":17078:17081   */\n      dup3\n        /* \"#utility.yul\":17074:17086   */\n      add\n        /* \"#utility.yul\":17067:17086   */\n      swap1\n      pop\n        /* \"#utility.yul\":16726:17092   */\n      swap2\n      swap1\n      pop\n      jump\t// out\n        /* \"#utility.yul\":17098:17517   */\n    tag_78:\n        /* \"#utility.yul\":17264:17268   */\n      0x00\n        /* \"#utility.yul\":17302:17304   */\n      0x20\n        /* \"#utility.yul\":17291:17300   */\n      dup3\n        /* \"#utility.yul\":17287:17305   */\n      add\n        /* \"#utility.yul\":17279:17305   */\n      swap1\n      pop\n        /* \"#utility.yul\":17351:17360   */\n      dup2\n        /* \"#utility.yul\":17345:17349   */\n      dup2\n        /* \"#utility.yul\":17341:17361   */\n      sub\n        /* \"#utility.yul\":17337:17338   */\n      0x00\n        /* \"#utility.yul\":17326:17335   */\n      dup4\n        /* \"#utility.yul\":17322:17339   */\n      add\n        /* \"#utility.yul\":17315:17362   */\n      mstore\n        /* \"#utility.yul\":17379:17510   */\n      tag_378\n        /* \"#utility.yul\":17505:17509   */\n      dup2\n        /* \"#utility.yul\":17379:17510   */\n      tag_198\n      jump\t// in\n    tag_378:\n        /* \"#utility.yul\":17371:17510   */\n      swap1\n      pop\n        /* \"#utility.yul\":17098:17517   */\n      swap2\n      swap1\n      pop\n      jump\t// out\n        /* \"#utility.yul\":17523:17693   */\n    tag_199:\n        /* \"#utility.yul\":17663:17685   */\n      0x426c6f6f642067726f7570206d69736d61746368000000000000000000000000\n        /* \"#utility.yul\":17659:17660   */\n      0x00\n        /* \"#utility.yul\":17651:17657   */\n      dup3\n        /* \"#utility.yul\":17647:17661   */\n      add\n        /* \"#utility.yul\":17640:17686   */\n      mstore\n        /* \"#utility.yul\":17523:17693   */\n      pop\n      jump\t// out\n        /* \"#utility.yul\":17699:18065   */\n    tag_200:\n        /* \"#utility.yul\":17841:17844   */\n      0x00\n        /* \"#utility.yul\":17862:17929   */\n      tag_381\n        /* \"#utility.yul\":17926:17928   */\n      0x14\n        /* \"#utility.yul\":17921:17924   */\n      dup4\n        /* \"#utility.yul\":17862:17929   */\n      tag_179\n      jump\t// in\n    tag_381:\n        /* \"#utility.yul\":17855:17929   */\n      swap2\n      pop\n        /* \"#utility.yul\":17938:18031   */\n      tag_382\n        /* \"#utility.yul\":18027:18030   */\n      dup3\n        /* \"#utility.yul\":17938:18031   */\n      tag_199\n      jump\t// in\n    tag_382:\n        /* \"#utility.yul\":18056:18058   */\n      0x20\n        /* \"#utility.yul\":18051:18054   */\n      dup3\n        /* \"#utility.yul\":18047:18059   */\n      add\n        /* \"#utility.yul\":18040:18059   */\n      swap1\n      pop\n        /* \"#utility.yul\":17699:18065   */\n      swap2\n      swap1\n      pop\n      jump\t// out\n        /* \"#utility.yul\":18071:18490   */\n    tag_85:\n        /* \"#utility.yul\":18237:18241   */\n      0x00\n        /* \"#utility.yul\":18275:18277   */\n      0x20\n        /* \"#utility.yul\":18264:18273   */\n      dup3\n        /* \"#utility.yul\":18260:18278   */\n      add\n        /* \"#utility.yul\":18252:18278   */\n      swap1\n      pop\n        /* \"#utility.yul\":18324:18333   */\n      dup2\n        /* \"#utility.yul\":18318:18322   */\n      dup2\n        /* \"#utility.yul\":18314:18334   */\n      sub\n        /* \"#utility.yul\":18310:18311   */\n      0x00\n        /* \"#utility.yul\":18299:18308   */\n      dup4\n        /* \"#utility.yul\":18295:18312   */\n      add\n        /* \"#utility.yul\":18288:18335   */\n      mstore\n        /* \"#utility.yul\":18352:18483   */\n      tag_384\n        /* \"#utility.yul\":18478:18482   */\n      dup2\n        /* \"#utility.yul\":18352:18483   */\n      tag_200\n      jump\t// in\n    tag_384:\n        /* \"#utility.yul\":18344:18483   */\n      swap1\n      pop\n        /* \"#utility.yul\":18071:18490   */\n      swap2\n      swap1\n      pop\n      jump\t// out\n        /* \"#utility.yul\":18496:18847   */\n    tag_90:\n        /* \"#utility.yul\":18566:18572   */\n      0x00\n        /* \"#utility.yul\":18615:18617   */\n      0x20\n        /* \"#utility.yul\":18603:18612   */\n      dup3\n        /* \"#utility.yul\":18594:18601   */\n      dup5\n        /* \"#utility.yul\":18590:18613   */\n      sub\n        /* \"#utility.yul\":18586:18618   */\n      slt\n        /* \"#utility.yul\":18583:18702   */\n      iszero\n      tag_386\n      jumpi\n        /* \"#utility.yul\":18621:18700   */\n      tag_387\n      tag_149\n      jump\t// in\n    tag_387:\n        /* \"#utility.yul\":18583:18702   */\n    tag_386:\n        /* \"#utility.yul\":18741:18742   */\n      0x00\n        /* \"#utility.yul\":18766:18830   */\n      tag_388\n        /* \"#utility.yul\":18822:18829   */\n      dup5\n        /* \"#utility.yul\":18813:18819   */\n      dup3\n        /* \"#utility.yul\":18802:18811   */\n      dup6\n        /* \"#utility.yul\":18798:18820   */\n      add\n        /* \"#utility.yul\":18766:18830   */\n      tag_182\n      jump\t// in\n    tag_388:\n        /* \"#utility.yul\":18756:18830   */\n      swap2\n      pop\n        /* \"#utility.yul\":18712:18840   */\n      pop\n        /* \"#utility.yul\":18496:18847   */\n      swap3\n      swap2\n      pop\n      pop\n      jump\t// out\n        /* \"#utility.yul\":18853:19074   */\n    tag_201:\n        /* \"#utility.yul\":18993:19027   */\n      0x436f6e7472616374206e6f7420617070726f76656420666f72207472616e7366\n        /* \"#utility.yul\":18989:18990   */\n      0x00\n        /* \"#utility.yul\":18981:18987   */\n      dup3\n        /* \"#utility.yul\":18977:18991   */\n      add\n        /* \"#utility.yul\":18970:19028   */\n      mstore\n        /* \"#utility.yul\":19062:19066   */\n      0x6572000000000000000000000000000000000000000000000000000000000000\n        /* \"#utility.yul\":19057:19059   */\n      0x20\n        /* \"#utility.yul\":19049:19055   */\n      dup3\n        /* \"#utility.yul\":19045:19060   */\n      add\n        /* \"#utility.yul\":19038:19067   */\n      mstore\n        /* \"#utility.yul\":18853:19074   */\n      pop\n      jump\t// out\n        /* \"#utility.yul\":19080:19446   */\n    tag_202:\n        /* \"#utility.yul\":19222:19225   */\n      0x00\n        /* \"#utility.yul\":19243:19310   */\n      tag_391\n        /* \"#utility.yul\":19307:19309   */\n      0x22\n        /* \"#utility.yul\":19302:19305   */\n      dup4\n        /* \"#utility.yul\":19243:19310   */\n      tag_179\n      jump\t// in\n    tag_391:\n        /* \"#utility.yul\":19236:19310   */\n      swap2\n      pop\n        /* \"#utility.yul\":19319:19412   */\n      tag_392\n        /* \"#utility.yul\":19408:19411   */\n      dup3\n        /* \"#utility.yul\":19319:19412   */\n      tag_201\n      jump\t// in\n    tag_392:\n        /* \"#utility.yul\":19437:19439   */\n      0x40\n        /* \"#utility.yul\":19432:19435   */\n      dup3\n        /* \"#utility.yul\":19428:19440   */\n      add\n        /* \"#utility.yul\":19421:19440   */\n      swap1\n      pop\n        /* \"#utility.yul\":19080:19446   */\n      swap2\n      swap1\n      pop\n      jump\t// out\n        /* \"#utility.yul\":19452:19871   */\n    tag_93:\n        /* \"#utility.yul\":19618:19622   */\n      0x00\n        /* \"#utility.yul\":19656:19658   */\n      0x20\n        /* \"#utility.yul\":19645:19654   */\n      dup3\n        /* \"#utility.yul\":19641:19659   */\n      add\n        /* \"#utility.yul\":19633:19659   */\n      swap1\n      pop\n        /* \"#utility.yul\":19705:19714   */\n      dup2\n        /* \"#utility.yul\":19699:19703   */\n      dup2\n        /* \"#utility.yul\":19695:19715   */\n      sub\n        /* \"#utility.yul\":19691:19692   */\n      0x00\n        /* \"#utility.yul\":19680:19689   */\n      dup4\n        /* \"#utility.yul\":19676:19693   */\n      add\n        /* \"#utility.yul\":19669:19716   */\n      mstore\n        /* \"#utility.yul\":19733:19864   */\n      tag_394\n        /* \"#utility.yul\":19859:19863   */\n      dup2\n        /* \"#utility.yul\":19733:19864   */\n      tag_202\n      jump\t// in\n    tag_394:\n        /* \"#utility.yul\":19725:19864   */\n      swap1\n      pop\n        /* \"#utility.yul\":19452:19871   */\n      swap2\n      swap1\n      pop\n      jump\t// out\n        /* \"#utility.yul\":19877:20319   */\n    tag_95:\n        /* \"#utility.yul\":20026:20030   */\n      0x00\n        /* \"#utility.yul\":20064:20066   */\n      0x60\n        /* \"#utility.yul\":20053:20062   */\n      dup3\n        /* \"#utility.yul\":20049:20067   */\n      add\n        /* \"#utility.yul\":20041:20067   */\n      swap1\n      pop\n        /* \"#utility.yul\":20077:20148   */\n      tag_396\n        /* \"#utility.yul\":20145:20146   */\n      0x00\n        /* \"#utility.yul\":20134:20143   */\n      dup4\n        /* \"#utility.yul\":20130:20147   */\n      add\n        /* \"#utility.yul\":20121:20127   */\n      dup7\n        /* \"#utility.yul\":20077:20148   */\n      tag_156\n      jump\t// in\n    tag_396:\n        /* \"#utility.yul\":20158:20230   */\n      tag_397\n        /* \"#utility.yul\":20226:20228   */\n      0x20\n        /* \"#utility.yul\":20215:20224   */\n      dup4\n        /* \"#utility.yul\":20211:20229   */\n      add\n        /* \"#utility.yul\":20202:20208   */\n      dup6\n        /* \"#utility.yul\":20158:20230   */\n      tag_156\n      jump\t// in\n    tag_397:\n        /* \"#utility.yul\":20240:20312   */\n      tag_398\n        /* \"#utility.yul\":20308:20310   */\n      0x40\n        /* \"#utility.yul\":20297:20306   */\n      dup4\n        /* \"#utility.yul\":20293:20311   */\n      add\n        /* \"#utility.yul\":20284:20290   */\n      dup5\n        /* \"#utility.yul\":20240:20312   */\n      tag_157\n      jump\t// in\n    tag_398:\n        /* \"#utility.yul\":19877:20319   */\n      swap5\n      swap4\n      pop\n      pop\n      pop\n      pop\n      jump\t// out\n        /* \"#utility.yul\":20325:20505   */\n    tag_203:\n        /* \"#utility.yul\":20373:20450   */\n      0x4e487b7100000000000000000000000000000000000000000000000000000000\n        /* \"#utility.yul\":20370:20371   */\n      0x00\n        /* \"#utility.yul\":20363:20451   */\n      mstore\n        /* \"#utility.yul\":20470:20474   */\n      0x11\n        /* \"#utility.yul\":20467:20468   */\n      0x04\n        /* \"#utility.yul\":20460:20475   */\n      mstore\n        /* \"#utility.yul\":20494:20498   */\n      0x24\n        /* \"#utility.yul\":20491:20492   */\n      0x00\n        /* \"#utility.yul\":20484:20499   */\n      revert\n        /* \"#utility.yul\":20511:20705   */\n    tag_101:\n        /* \"#utility.yul\":20551:20555   */\n      0x00\n        /* \"#utility.yul\":20571:20591   */\n      tag_401\n        /* \"#utility.yul\":20589:20590   */\n      dup3\n        /* \"#utility.yul\":20571:20591   */\n      tag_151\n      jump\t// in\n    tag_401:\n        /* \"#utility.yul\":20566:20591   */\n      swap2\n      pop\n        /* \"#utility.yul\":20605:20625   */\n      tag_402\n        /* \"#utility.yul\":20623:20624   */\n      dup4\n        /* \"#utility.yul\":20605:20625   */\n      tag_151\n      jump\t// in\n    tag_402:\n        /* \"#utility.yul\":20600:20625   */\n      swap3\n      pop\n        /* \"#utility.yul\":20649:20650   */\n      dup3\n        /* \"#utility.yul\":20646:20647   */\n      dup3\n        /* \"#utility.yul\":20642:20651   */\n      sub\n        /* \"#utility.yul\":20634:20651   */\n      swap1\n      pop\n        /* \"#utility.yul\":20673:20674   */\n      dup2\n        /* \"#utility.yul\":20667:20671   */\n      dup2\n        /* \"#utility.yul\":20664:20675   */\n      gt\n        /* \"#utility.yul\":20661:20698   */\n      iszero\n      tag_403\n      jumpi\n        /* \"#utility.yul\":20678:20696   */\n      tag_404\n      tag_203\n      jump\t// in\n    tag_404:\n        /* \"#utility.yul\":20661:20698   */\n    tag_403:\n        /* \"#utility.yul\":20511:20705   */\n      swap3\n      swap2\n      pop\n      pop\n      jump\t// out\n        /* \"#utility.yul\":20711:20887   */\n    tag_204:\n        /* \"#utility.yul\":20851:20879   */\n      0x4f6e6c792074686520646f6e6f722063616e20617070726f7665000000000000\n        /* \"#utility.yul\":20847:20848   */\n      0x00\n        /* \"#utility.yul\":20839:20845   */\n      dup3\n        /* \"#utility.yul\":20835:20849   */\n      add\n        /* \"#utility.yul\":20828:20880   */\n      mstore\n        /* \"#utility.yul\":20711:20887   */\n      pop\n      jump\t// out\n        /* \"#utility.yul\":20893:21259   */\n    tag_205:\n        /* \"#utility.yul\":21035:21038   */\n      0x00\n        /* \"#utility.yul\":21056:21123   */\n      tag_407\n        /* \"#utility.yul\":21120:21122   */\n      0x1a\n        /* \"#utility.yul\":21115:21118   */\n      dup4\n        /* \"#utility.yul\":21056:21123   */\n      tag_179\n      jump\t// in\n    tag_407:\n        /* \"#utility.yul\":21049:21123   */\n      swap2\n      pop\n        /* \"#utility.yul\":21132:21225   */\n      tag_408\n        /* \"#utility.yul\":21221:21224   */\n      dup3\n        /* \"#utility.yul\":21132:21225   */\n      tag_204\n      jump\t// in\n    tag_408:\n        /* \"#utility.yul\":21250:21252   */\n      0x20\n        /* \"#utility.yul\":21245:21248   */\n      dup3\n        /* \"#utility.yul\":21241:21253   */\n      add\n        /* \"#utility.yul\":21234:21253   */\n      swap1\n      pop\n        /* \"#utility.yul\":20893:21259   */\n      swap2\n      swap1\n      pop\n      jump\t// out\n        /* \"#utility.yul\":21265:21684   */\n    tag_114:\n        /* \"#utility.yul\":21431:21435   */\n      0x00\n        /* \"#utility.yul\":21469:21471   */\n      0x20\n        /* \"#utility.yul\":21458:21467   */\n      dup3\n        /* \"#utility.yul\":21454:21472   */\n      add\n        /* \"#utility.yul\":21446:21472   */\n      swap1\n      pop\n        /* \"#utility.yul\":21518:21527   */\n      dup2\n        /* \"#utility.yul\":21512:21516   */\n      dup2\n        /* \"#utility.yul\":21508:21528   */\n      sub\n        /* \"#utility.yul\":21504:21505   */\n      0x00\n        /* \"#utility.yul\":21493:21502   */\n      dup4\n        /* \"#utility.yul\":21489:21506   */\n      add\n        /* \"#utility.yul\":21482:21529   */\n      mstore\n        /* \"#utility.yul\":21546:21677   */\n      tag_410\n        /* \"#utility.yul\":21672:21676   */\n      dup2\n        /* \"#utility.yul\":21546:21677   */\n      tag_205\n      jump\t// in\n    tag_410:\n        /* \"#utility.yul\":21538:21677   */\n      swap1\n      pop\n        /* \"#utility.yul\":21265:21684   */\n      swap2\n      swap1\n      pop\n      jump\t// out\n        /* \"#utility.yul\":21690:21914   */\n    tag_206:\n        /* \"#utility.yul\":21830:21864   */\n      0x4f6e6c792074686520646f63746f722063616e20617070726f7665207472616e\n        /* \"#utility.yul\":21826:21827   */\n      0x00\n        /* \"#utility.yul\":21818:21824   */\n      dup3\n        /* \"#utility.yul\":21814:21828   */\n      add\n        /* \"#utility.yul\":21807:21865   */\n      mstore\n        /* \"#utility.yul\":21899:21906   */\n      0x7366657273000000000000000000000000000000000000000000000000000000\n        /* \"#utility.yul\":21894:21896   */\n      0x20\n        /* \"#utility.yul\":21886:21892   */\n      dup3\n        /* \"#utility.yul\":21882:21897   */\n      add\n        /* \"#utility.yul\":21875:21907   */\n      mstore\n        /* \"#utility.yul\":21690:21914   */\n      pop\n      jump\t// out\n        /* \"#utility.yul\":21920:22286   */\n    tag_207:\n        /* \"#utility.yul\":22062:22065   */\n      0x00\n        /* \"#utility.yul\":22083:22150   */\n      tag_413\n        /* \"#utility.yul\":22147:22149   */\n      0x25\n        /* \"#utility.yul\":22142:22145   */\n      dup4\n        /* \"#utility.yul\":22083:22150   */\n      tag_179\n      jump\t// in\n    tag_413:\n        /* \"#utility.yul\":22076:22150   */\n      swap2\n      pop\n        /* \"#utility.yul\":22159:22252   */\n      tag_414\n        /* \"#utility.yul\":22248:22251   */\n      dup3\n        /* \"#utility.yul\":22159:22252   */\n      tag_206\n      jump\t// in\n    tag_414:\n        /* \"#utility.yul\":22277:22279   */\n      0x40\n        /* \"#utility.yul\":22272:22275   */\n      dup3\n        /* \"#utility.yul\":22268:22280   */\n      add\n        /* \"#utility.yul\":22261:22280   */\n      swap1\n      pop\n        /* \"#utility.yul\":21920:22286   */\n      swap2\n      swap1\n      pop\n      jump\t// out\n        /* \"#utility.yul\":22292:22711   */\n    tag_118:\n        /* \"#utility.yul\":22458:22462   */\n      0x00\n        /* \"#utility.yul\":22496:22498   */\n      0x20\n        /* \"#utility.yul\":22485:22494   */\n      dup3\n        /* \"#utility.yul\":22481:22499   */\n      add\n        /* \"#utility.yul\":22473:22499   */\n      swap1\n      pop\n        /* \"#utility.yul\":22545:22554   */\n      dup2\n        /* \"#utility.yul\":22539:22543   */\n      dup2\n        /* \"#utility.yul\":22535:22555   */\n      sub\n        /* \"#utility.yul\":22531:22532   */\n      0x00\n        /* \"#utility.yul\":22520:22529   */\n      dup4\n        /* \"#utility.yul\":22516:22533   */\n      add\n        /* \"#utility.yul\":22509:22556   */\n      mstore\n        /* \"#utility.yul\":22573:22704   */\n      tag_416\n        /* \"#utility.yul\":22699:22703   */\n      dup2\n        /* \"#utility.yul\":22573:22704   */\n      tag_207\n      jump\t// in\n    tag_416:\n        /* \"#utility.yul\":22565:22704   */\n      swap1\n      pop\n        /* \"#utility.yul\":22292:22711   */\n      swap2\n      swap1\n      pop\n      jump\t// out\n        /* \"#utility.yul\":22717:22897   */\n    tag_122:\n        /* \"#utility.yul\":22765:22842   */\n      0x4e487b7100000000000000000000000000000000000000000000000000000000\n        /* \"#utility.yul\":22762:22763   */\n      0x00\n        /* \"#utility.yul\":22755:22843   */\n      mstore\n        /* \"#utility.yul\":22862:22866   */\n      0x32\n        /* \"#utility.yul\":22859:22860   */\n      0x04\n        /* \"#utility.yul\":22852:22867   */\n      mstore\n        /* \"#utility.yul\":22886:22890   */\n      0x24\n        /* \"#utility.yul\":22883:22884   */\n      0x00\n        /* \"#utility.yul\":22876:22891   */\n      revert\n        /* \"#utility.yul\":22903:23078   */\n    tag_208:\n        /* \"#utility.yul\":23043:23070   */\n      0x5472616e7366657220616c726561647920617070726f76656400000000000000\n        /* \"#utility.yul\":23039:23040   */\n      0x00\n        /* \"#utility.yul\":23031:23037   */\n      dup3\n        /* \"#utility.yul\":23027:23041   */\n      add\n        /* \"#utility.yul\":23020:23071   */\n      mstore\n        /* \"#utility.yul\":22903:23078   */\n      pop\n      jump\t// out\n        /* \"#utility.yul\":23084:23450   */\n    tag_209:\n        /* \"#utility.yul\":23226:23229   */\n      0x00\n        /* \"#utility.yul\":23247:23314   */\n      tag_420\n        /* \"#utility.yul\":23311:23313   */\n      0x19\n        /* \"#utility.yul\":23306:23309   */\n      dup4\n        /* \"#utility.yul\":23247:23314   */\n      tag_179\n      jump\t// in\n    tag_420:\n        /* \"#utility.yul\":23240:23314   */\n      swap2\n      pop\n        /* \"#utility.yul\":23323:23416   */\n      tag_421\n        /* \"#utility.yul\":23412:23415   */\n      dup3\n        /* \"#utility.yul\":23323:23416   */\n      tag_208\n      jump\t// in\n    tag_421:\n        /* \"#utility.yul\":23441:23443   */\n      0x20\n        /* \"#utility.yul\":23436:23439   */\n      dup3\n        /* \"#utility.yul\":23432:23444   */\n      add\n        /* \"#utility.yul\":23425:23444   */\n      swap1\n      pop\n        /* \"#utility.yul\":23084:23450   */\n      swap2\n      swap1\n      pop\n      jump\t// out\n        /* \"#utility.yul\":23456:23875   */\n    tag_126:\n        /* \"#utility.yul\":23622:23626   */\n      0x00\n        /* \"#utility.yul\":23660:23662   */\n      0x20\n        /* \"#utility.yul\":23649:23658   */\n      dup3\n        /* \"#utility.yul\":23645:23663   */\n      add\n        /* \"#utility.yul\":23637:23663   */\n      swap1\n      pop\n        /* \"#utility.yul\":23709:23718   */\n      dup2\n        /* \"#utility.yul\":23703:23707   */\n      dup2\n        /* \"#utility.yul\":23699:23719   */\n      sub\n        /* \"#utility.yul\":23695:23696   */\n      0x00\n        /* \"#utility.yul\":23684:23693   */\n      dup4\n        /* \"#utility.yul\":23680:23697   */\n      add\n        /* \"#utility.yul\":23673:23720   */\n      mstore\n        /* \"#utility.yul\":23737:23868   */\n      tag_423\n        /* \"#utility.yul\":23863:23867   */\n      dup2\n        /* \"#utility.yul\":23737:23868   */\n      tag_209\n      jump\t// in\n    tag_423:\n        /* \"#utility.yul\":23729:23868   */\n      swap1\n      pop\n        /* \"#utility.yul\":23456:23875   */\n      swap2\n      swap1\n      pop\n      jump\t// out\n        /* \"#utility.yul\":23881:24114   */\n    tag_147:\n        /* \"#utility.yul\":23920:23923   */\n      0x00\n        /* \"#utility.yul\":23943:23967   */\n      tag_425\n        /* \"#utility.yul\":23961:23966   */\n      dup3\n        /* \"#utility.yul\":23943:23967   */\n      tag_151\n      jump\t// in\n    tag_425:\n        /* \"#utility.yul\":23934:23967   */\n      swap2\n      pop\n        /* \"#utility.yul\":23989:24055   */\n      0xffffffffffffffffffffffffffffffffffffffffffffffffffffffffffffffff\n        /* \"#utility.yul\":23982:23987   */\n      dup3\n        /* \"#utility.yul\":23979:24056   */\n      sub\n        /* \"#utility.yul\":23976:24079   */\n      tag_426\n      jumpi\n        /* \"#utility.yul\":24059:24077   */\n      tag_427\n      tag_203\n      jump\t// in\n    tag_427:\n        /* \"#utility.yul\":23976:24079   */\n    tag_426:\n        /* \"#utility.yul\":24106:24107   */\n      0x01\n        /* \"#utility.yul\":24099:24104   */\n      dup3\n        /* \"#utility.yul\":24095:24108   */\n      add\n        /* \"#utility.yul\":24088:24108   */\n      swap1\n      pop\n        /* \"#utility.yul\":23881:24114   */\n      swap2\n      swap1\n      pop\n      jump\t// out\n\n    auxdata: 0xa2646970667358221220462d27c7ff5d6ccabf0bde57875b8058c4a8d4e5d208176045c713ca30d320f764736f6c634300081a0033\n}\n",
				"bytecode": {
					"linkReferences": {},
					"object": "608060405234801561000f575f80fd5b50604051611c8d380380611c8d83398181016040528101906100319190610155565b335f806101000a81548173ffffffffffffffffffffffffffffffffffffffff021916908373ffffffffffffffffffffffffffffffffffffffff1602179055508160015f6101000a81548173ffffffffffffffffffffffffffffffffffffffff021916908373ffffffffffffffffffffffffffffffffffffffff1602179055508060025f6101000a81548173ffffffffffffffffffffffffffffffffffffffff021916908373ffffffffffffffffffffffffffffffffffffffff1602179055505050610193565b5f80fd5b5f73ffffffffffffffffffffffffffffffffffffffff82169050919050565b5f610124826100fb565b9050919050565b6101348161011a565b811461013e575f80fd5b50565b5f8151905061014f8161012b565b92915050565b5f806040838503121561016b5761016a6100f7565b5b5f61017885828601610141565b925050602061018985828601610141565b9150509250929050565b611aed806101a05f395ff3fe608060405234801561000f575f80fd5b5060043610610091575f3560e01c80636afcb6da116100645780636afcb6da146101325780637ea7118c14610150578063b4e30b401461016e578063c69f34a31461018c578063cacca4a0146101a857610091565b8063012f52ee146100955780634614874e146100c85780635250c6e2146100e45780636905351f14610102575b5f80fd5b6100af60048036038101906100aa9190610f6b565b6101c4565b6040516100bf9493929190610ffe565b60405180910390f35b6100e260048036038101906100dd919061106b565b610249565b005b6100ec6108a7565b6040516100f99190611104565b60405180910390f35b61011c60048036038101906101179190610f6b565b6108cc565b604051610129919061111d565b60405180910390f35b61013a6108e9565b604051610147919061125e565b60405180910390f35b610158610a12565b604051610165919061127e565b60405180910390f35b610176610a35565b60405161018391906112b7565b60405180910390f35b6101a660048036038101906101a19190610f6b565b610a5a565b005b6101c260048036038101906101bd9190610f6b565b610b8c565b005b600481815481106101d3575f80fd5b905f5260205f2090600402015f91509050805f015f9054906101000a900473ffffffffffffffffffffffffffffffffffffffff1690806001015f9054906101000a900473ffffffffffffffffffffffffffffffffffffffff1690806002015490806003015f9054906101000a900460ff16905084565b60035f8281526020019081526020015f205f9054906101000a900460ff166102a6576040517f08c379a000000000000000000000000000000000000000000000000000000000815260040161029d90611350565b60405180910390fd5b5f8060015f9054906101000a900473ffffffffffffffffffffffffffffffffffffffff1673ffffffffffffffffffffffffffffffffffffffff1663b5368e20856040518263ffffffff1660e01b8152600401610302919061127e565b5f60405180830381865afa15801561031c573d5f803e3d5ffd5b505050506040513d5f823e3d601f19601f8201168201806040525081019061034491906114be565b9350935050505f81511161038d576040517f08c379a0000000000000000000000000000000000000000000000000000000008152600401610384906115c0565b60405180910390fd5b5f8060025f9054906101000a900473ffffffffffffffffffffffffffffffffffffffff1673ffffffffffffffffffffffffffffffffffffffff16636d43b120866040518263ffffffff1660e01b81526004016103e991906115de565b5f60405180830381865afa158015610403573d5f803e3d5ffd5b505050506040513d5f823e3d601f19601f8201168201806040525081019061042b91906115f7565b9150915061043882610df3565b60405160200161044891906116b1565b6040516020818303038152906040528051906020012061046784610df3565b60405160200161047791906116b1565b60405160208183030381529060405280519060200120146104cd576040517f08c379a00000000000000000000000000000000000000000000000000000000081526004016104c490611711565b60405180910390fd5b6104d681610df3565b6040516020016104e691906116b1565b6040516020818303038152906040528051906020012061050585610df3565b60405160200161051591906116b1565b604051602081830303815290604052805190602001201461056b576040517f08c379a000000000000000000000000000000000000000000000000000000000815260040161056290611779565b60405180910390fd5b3073ffffffffffffffffffffffffffffffffffffffff1660025f9054906101000a900473ffffffffffffffffffffffffffffffffffffffff1673ffffffffffffffffffffffffffffffffffffffff1663081812fc876040518263ffffffff1660e01b81526004016105dc91906115de565b602060405180830381865afa1580156105f7573d5f803e3d5ffd5b505050506040513d601f19601f8201168201806040525081019061061b9190611797565b73ffffffffffffffffffffffffffffffffffffffff1614610671576040517f08c379a000000000000000000000000000000000000000000000000000000000815260040161066890611832565b60405180910390fd5b60025f9054906101000a900473ffffffffffffffffffffffffffffffffffffffff1673ffffffffffffffffffffffffffffffffffffffff166323b872dd3330886040518463ffffffff1660e01b81526004016106cf93929190611850565b5f604051808303815f87803b1580156106e6575f80fd5b505af11580156106f8573d5f803e3d5ffd5b50505050600460405180608001604052803373ffffffffffffffffffffffffffffffffffffffff1681526020018873ffffffffffffffffffffffffffffffffffffffff1681526020018781526020015f1515815250908060018154018082558091505060019003905f5260205f2090600402015f909190919091505f820151815f015f6101000a81548173ffffffffffffffffffffffffffffffffffffffff021916908373ffffffffffffffffffffffffffffffffffffffff1602179055506020820151816001015f6101000a81548173ffffffffffffffffffffffffffffffffffffffff021916908373ffffffffffffffffffffffffffffffffffffffff160217905550604082015181600201556060820151816003015f6101000a81548160ff02191690831515021790555050508573ffffffffffffffffffffffffffffffffffffffff163373ffffffffffffffffffffffffffffffffffffffff16600160048054905061086891906118b2565b7f190dec4301154d8795b9e0a942495f78d2629bb02b82f6c6260a3daa00119f288860405161089791906115de565b60405180910390a4505050505050565b60015f9054906101000a900473ffffffffffffffffffffffffffffffffffffffff1681565b6003602052805f5260405f205f915054906101000a900460ff1681565b60606004805480602002602001604051908101604052809291908181526020015f905b82821015610a09578382905f5260205f2090600402016040518060800160405290815f82015f9054906101000a900473ffffffffffffffffffffffffffffffffffffffff1673ffffffffffffffffffffffffffffffffffffffff1673ffffffffffffffffffffffffffffffffffffffff168152602001600182015f9054906101000a900473ffffffffffffffffffffffffffffffffffffffff1673ffffffffffffffffffffffffffffffffffffffff1673ffffffffffffffffffffffffffffffffffffffff16815260200160028201548152602001600382015f9054906101000a900460ff1615151515815250508152602001906001019061090c565b50505050905090565b5f8054906101000a900473ffffffffffffffffffffffffffffffffffffffff1681565b60025f9054906101000a900473ffffffffffffffffffffffffffffffffffffffff1681565b3373ffffffffffffffffffffffffffffffffffffffff1660025f9054906101000a900473ffffffffffffffffffffffffffffffffffffffff1673ffffffffffffffffffffffffffffffffffffffff16636352211e836040518263ffffffff1660e01b8152600401610acb91906115de565b602060405180830381865afa158015610ae6573d5f803e3d5ffd5b505050506040513d601f19601f82011682018060405250810190610b0a9190611797565b73ffffffffffffffffffffffffffffffffffffffff1614610b60576040517f08c379a0000000000000000000000000000000000000000000000000000000008152600401610b579061192f565b60405180910390fd5b600160035f8381526020019081526020015f205f6101000a81548160ff02191690831515021790555050565b5f8054906101000a900473ffffffffffffffffffffffffffffffffffffffff1673ffffffffffffffffffffffffffffffffffffffff163373ffffffffffffffffffffffffffffffffffffffff1614610c19576040517f08c379a0000000000000000000000000000000000000000000000000000000008152600401610c10906119bd565b60405180910390fd5b5f60048281548110610c2e57610c2d6119db565b5b905f5260205f2090600402019050806003015f9054906101000a900460ff1615610c8d576040517f08c379a0000000000000000000000000000000000000000000000000000000008152600401610c8490611a52565b60405180910390fd5b6001816003015f6101000a81548160ff021916908315150217905550817fca65c146ed1e5572f583a0fbe70fdbd0443a39c1eb084a7e94c40190ae705b0460405160405180910390a260025f9054906101000a900473ffffffffffffffffffffffffffffffffffffffff1673ffffffffffffffffffffffffffffffffffffffff166323b872dd30836001015f9054906101000a900473ffffffffffffffffffffffffffffffffffffffff1684600201546040518463ffffffff1660e01b8152600401610d5b93929190611850565b5f604051808303815f87803b158015610d72575f80fd5b505af1158015610d84573d5f803e3d5ffd5b50505050806001015f9054906101000a900473ffffffffffffffffffffffffffffffffffffffff1673ffffffffffffffffffffffffffffffffffffffff16827f875e5dbc5245c14b7292f71bc2e944f8ff3f1dfce6ac08c5642995080b24565c60405160405180910390a35050565b60605f8290505f815167ffffffffffffffff811115610e1557610e1461139a565b5b6040519080825280601f01601f191660200182016040528015610e475781602001600182028036833780820191505090505b5090505f805b8351811015610f1b57602060f81b848281518110610e6e57610e6d6119db565b5b602001015160f81c60f81b7effffffffffffffffffffffffffffffffffffffffffffffffffffffffffffff191614610f0e57838181518110610eb357610eb26119db565b5b602001015160f81c60f81b838381518110610ed157610ed06119db565b5b60200101907effffffffffffffffffffffffffffffffffffffffffffffffffffffffffffff191690815f1a9053508180610f0a90611a70565b9250505b8080600101915050610e4d565b50819350505050919050565b5f604051905090565b5f80fd5b5f80fd5b5f819050919050565b610f4a81610f38565b8114610f54575f80fd5b50565b5f81359050610f6581610f41565b92915050565b5f60208284031215610f8057610f7f610f30565b5b5f610f8d84828501610f57565b91505092915050565b5f73ffffffffffffffffffffffffffffffffffffffff82169050919050565b5f610fbf82610f96565b9050919050565b610fcf81610fb5565b82525050565b610fde81610f38565b82525050565b5f8115159050919050565b610ff881610fe4565b82525050565b5f6080820190506110115f830187610fc6565b61101e6020830186610fc6565b61102b6040830185610fd5565b6110386060830184610fef565b95945050505050565b61104a81610fb5565b8114611054575f80fd5b50565b5f8135905061106581611041565b92915050565b5f806040838503121561108157611080610f30565b5b5f61108e85828601611057565b925050602061109f85828601610f57565b9150509250929050565b5f819050919050565b5f6110cc6110c76110c284610f96565b6110a9565b610f96565b9050919050565b5f6110dd826110b2565b9050919050565b5f6110ee826110d3565b9050919050565b6110fe816110e4565b82525050565b5f6020820190506111175f8301846110f5565b92915050565b5f6020820190506111305f830184610fef565b92915050565b5f81519050919050565b5f82825260208201905092915050565b5f819050602082019050919050565b61116881610fb5565b82525050565b61117781610f38565b82525050565b61118681610fe4565b82525050565b608082015f8201516111a05f85018261115f565b5060208201516111b3602085018261115f565b5060408201516111c6604085018261116e565b5060608201516111d9606085018261117d565b50505050565b5f6111ea838361118c565b60808301905092915050565b5f602082019050919050565b5f61120c82611136565b6112168185611140565b935061122183611150565b805f5b8381101561125157815161123888826111df565b9750611243836111f6565b925050600181019050611224565b5085935050505092915050565b5f6020820190508181035f8301526112768184611202565b905092915050565b5f6020820190506112915f830184610fc6565b92915050565b5f6112a1826110d3565b9050919050565b6112b181611297565b82525050565b5f6020820190506112ca5f8301846112a8565b92915050565b5f82825260208201905092915050565b7f446f6e6f7220686173206e6f7420617070726f7665642074686973206f7267615f8201527f6e00000000000000000000000000000000000000000000000000000000000000602082015250565b5f61133a6021836112d0565b9150611345826112e0565b604082019050919050565b5f6020820190508181035f8301526113678161132e565b9050919050565b5f8151905061137c81611041565b92915050565b5f80fd5b5f80fd5b5f601f19601f8301169050919050565b7f4e487b71000000000000000000000000000000000000000000000000000000005f52604160045260245ffd5b6113d08261138a565b810181811067ffffffffffffffff821117156113ef576113ee61139a565b5b80604052505050565b5f611401610f27565b905061140d82826113c7565b919050565b5f67ffffffffffffffff82111561142c5761142b61139a565b5b6114358261138a565b9050602081019050919050565b8281835e5f83830152505050565b5f61146261145d84611412565b6113f8565b90508281526020810184848401111561147e5761147d611386565b5b611489848285611442565b509392505050565b5f82601f8301126114a5576114a4611382565b5b81516114b5848260208601611450565b91505092915050565b5f805f80608085870312156114d6576114d5610f30565b5b5f6114e38782880161136e565b945050602085015167ffffffffffffffff81111561150457611503610f34565b5b61151087828801611491565b935050604085015167ffffffffffffffff81111561153157611530610f34565b5b61153d87828801611491565b925050606085015167ffffffffffffffff81111561155e5761155d610f34565b5b61156a87828801611491565b91505092959194509250565b7f50617469656e7420646f6573206e6f74206578697374000000000000000000005f82015250565b5f6115aa6016836112d0565b91506115b582611576565b602082019050919050565b5f6020820190508181035f8301526115d78161159e565b9050919050565b5f6020820190506115f15f830184610fd5565b92915050565b5f806040838503121561160d5761160c610f30565b5b5f83015167ffffffffffffffff81111561162a57611629610f34565b5b61163685828601611491565b925050602083015167ffffffffffffffff81111561165757611656610f34565b5b61166385828601611491565b9150509250929050565b5f81519050919050565b5f81905092915050565b5f61168b8261166d565b6116958185611677565b93506116a5818560208601611442565b80840191505092915050565b5f6116bc8284611681565b915081905092915050565b7f4f7267616e2074797065206d69736d61746368000000000000000000000000005f82015250565b5f6116fb6013836112d0565b9150611706826116c7565b602082019050919050565b5f6020820190508181035f830152611728816116ef565b9050919050565b7f426c6f6f642067726f7570206d69736d617463680000000000000000000000005f82015250565b5f6117636014836112d0565b915061176e8261172f565b602082019050919050565b5f6020820190508181035f83015261179081611757565b9050919050565b5f602082840312156117ac576117ab610f30565b5b5f6117b98482850161136e565b91505092915050565b7f436f6e7472616374206e6f7420617070726f76656420666f72207472616e73665f8201527f6572000000000000000000000000000000000000000000000000000000000000602082015250565b5f61181c6022836112d0565b9150611827826117c2565b604082019050919050565b5f6020820190508181035f83015261184981611810565b9050919050565b5f6060820190506118635f830186610fc6565b6118706020830185610fc6565b61187d6040830184610fd5565b949350505050565b7f4e487b71000000000000000000000000000000000000000000000000000000005f52601160045260245ffd5b5f6118bc82610f38565b91506118c783610f38565b92508282039050818111156118df576118de611885565b5b92915050565b7f4f6e6c792074686520646f6e6f722063616e20617070726f76650000000000005f82015250565b5f611919601a836112d0565b9150611924826118e5565b602082019050919050565b5f6020820190508181035f8301526119468161190d565b9050919050565b7f4f6e6c792074686520646f63746f722063616e20617070726f7665207472616e5f8201527f7366657273000000000000000000000000000000000000000000000000000000602082015250565b5f6119a76025836112d0565b91506119b28261194d565b604082019050919050565b5f6020820190508181035f8301526119d48161199b565b9050919050565b7f4e487b71000000000000000000000000000000000000000000000000000000005f52603260045260245ffd5b7f5472616e7366657220616c726561647920617070726f766564000000000000005f82015250565b5f611a3c6019836112d0565b9150611a4782611a08565b602082019050919050565b5f6020820190508181035f830152611a6981611a30565b9050919050565b5f611a7a82610f38565b91507fffffffffffffffffffffffffffffffffffffffffffffffffffffffffffffffff8203611aac57611aab611885565b5b60018201905091905056fea2646970667358221220462d27c7ff5d6ccabf0bde57875b8058c4a8d4e5d208176045c713ca30d320f764736f6c634300081a0033",
					"opcodes": "PUSH1 0x80 PUSH1 0x40 MSTORE CALLVALUE DUP1 ISZERO PUSH2 0xF JUMPI PUSH0 DUP1 REVERT JUMPDEST POP PUSH1 0x40 MLOAD PUSH2 0x1C8D CODESIZE SUB DUP1 PUSH2 0x1C8D DUP4 CODECOPY DUP2 DUP2 ADD PUSH1 0x40 MSTORE DUP2 ADD SWAP1 PUSH2 0x31 SWAP2 SWAP1 PUSH2 0x155 JUMP JUMPDEST CALLER PUSH0 DUP1 PUSH2 0x100 EXP DUP2 SLOAD DUP2 PUSH20 0xFFFFFFFFFFFFFFFFFFFFFFFFFFFFFFFFFFFFFFFF MUL NOT AND SWAP1 DUP4 PUSH20 0xFFFFFFFFFFFFFFFFFFFFFFFFFFFFFFFFFFFFFFFF AND MUL OR SWAP1 SSTORE POP DUP2 PUSH1 0x1 PUSH0 PUSH2 0x100 EXP DUP2 SLOAD DUP2 PUSH20 0xFFFFFFFFFFFFFFFFFFFFFFFFFFFFFFFFFFFFFFFF MUL NOT AND SWAP1 DUP4 PUSH20 0xFFFFFFFFFFFFFFFFFFFFFFFFFFFFFFFFFFFFFFFF AND MUL OR SWAP1 SSTORE POP DUP1 PUSH1 0x2 PUSH0 PUSH2 0x100 EXP DUP2 SLOAD DUP2 PUSH20 0xFFFFFFFFFFFFFFFFFFFFFFFFFFFFFFFFFFFFFFFF MUL NOT AND SWAP1 DUP4 PUSH20 0xFFFFFFFFFFFFFFFFFFFFFFFFFFFFFFFFFFFFFFFF AND MUL OR SWAP1 SSTORE POP POP POP PUSH2 0x193 JUMP JUMPDEST PUSH0 DUP1 REVERT JUMPDEST PUSH0 PUSH20 0xFFFFFFFFFFFFFFFFFFFFFFFFFFFFFFFFFFFFFFFF DUP3 AND SWAP1 POP SWAP2 SWAP1 POP JUMP JUMPDEST PUSH0 PUSH2 0x124 DUP3 PUSH2 0xFB JUMP JUMPDEST SWAP1 POP SWAP2 SWAP1 POP JUMP JUMPDEST PUSH2 0x134 DUP2 PUSH2 0x11A JUMP JUMPDEST DUP2 EQ PUSH2 0x13E JUMPI PUSH0 DUP1 REVERT JUMPDEST POP JUMP JUMPDEST PUSH0 DUP2 MLOAD SWAP1 POP PUSH2 0x14F DUP2 PUSH2 0x12B JUMP JUMPDEST SWAP3 SWAP2 POP POP JUMP JUMPDEST PUSH0 DUP1 PUSH1 0x40 DUP4 DUP6 SUB SLT ISZERO PUSH2 0x16B JUMPI PUSH2 0x16A PUSH2 0xF7 JUMP JUMPDEST JUMPDEST PUSH0 PUSH2 0x178 DUP6 DUP3 DUP7 ADD PUSH2 0x141 JUMP JUMPDEST SWAP3 POP POP PUSH1 0x20 PUSH2 0x189 DUP6 DUP3 DUP7 ADD PUSH2 0x141 JUMP JUMPDEST SWAP2 POP POP SWAP3 POP SWAP3 SWAP1 POP JUMP JUMPDEST PUSH2 0x1AED DUP1 PUSH2 0x1A0 PUSH0 CODECOPY PUSH0 RETURN INVALID PUSH1 0x80 PUSH1 0x40 MSTORE CALLVALUE DUP1 ISZERO PUSH2 0xF JUMPI PUSH0 DUP1 REVERT JUMPDEST POP PUSH1 0x4 CALLDATASIZE LT PUSH2 0x91 JUMPI PUSH0 CALLDATALOAD PUSH1 0xE0 SHR DUP1 PUSH4 0x6AFCB6DA GT PUSH2 0x64 JUMPI DUP1 PUSH4 0x6AFCB6DA EQ PUSH2 0x132 JUMPI DUP1 PUSH4 0x7EA7118C EQ PUSH2 0x150 JUMPI DUP1 PUSH4 0xB4E30B40 EQ PUSH2 0x16E JUMPI DUP1 PUSH4 0xC69F34A3 EQ PUSH2 0x18C JUMPI DUP1 PUSH4 0xCACCA4A0 EQ PUSH2 0x1A8 JUMPI PUSH2 0x91 JUMP JUMPDEST DUP1 PUSH4 0x12F52EE EQ PUSH2 0x95 JUMPI DUP1 PUSH4 0x4614874E EQ PUSH2 0xC8 JUMPI DUP1 PUSH4 0x5250C6E2 EQ PUSH2 0xE4 JUMPI DUP1 PUSH4 0x6905351F EQ PUSH2 0x102 JUMPI JUMPDEST PUSH0 DUP1 REVERT JUMPDEST PUSH2 0xAF PUSH1 0x4 DUP1 CALLDATASIZE SUB DUP2 ADD SWAP1 PUSH2 0xAA SWAP2 SWAP1 PUSH2 0xF6B JUMP JUMPDEST PUSH2 0x1C4 JUMP JUMPDEST PUSH1 0x40 MLOAD PUSH2 0xBF SWAP5 SWAP4 SWAP3 SWAP2 SWAP1 PUSH2 0xFFE JUMP JUMPDEST PUSH1 0x40 MLOAD DUP1 SWAP2 SUB SWAP1 RETURN JUMPDEST PUSH2 0xE2 PUSH1 0x4 DUP1 CALLDATASIZE SUB DUP2 ADD SWAP1 PUSH2 0xDD SWAP2 SWAP1 PUSH2 0x106B JUMP JUMPDEST PUSH2 0x249 JUMP JUMPDEST STOP JUMPDEST PUSH2 0xEC PUSH2 0x8A7 JUMP JUMPDEST PUSH1 0x40 MLOAD PUSH2 0xF9 SWAP2 SWAP1 PUSH2 0x1104 JUMP JUMPDEST PUSH1 0x40 MLOAD DUP1 SWAP2 SUB SWAP1 RETURN JUMPDEST PUSH2 0x11C PUSH1 0x4 DUP1 CALLDATASIZE SUB DUP2 ADD SWAP1 PUSH2 0x117 SWAP2 SWAP1 PUSH2 0xF6B JUMP JUMPDEST PUSH2 0x8CC JUMP JUMPDEST PUSH1 0x40 MLOAD PUSH2 0x129 SWAP2 SWAP1 PUSH2 0x111D JUMP JUMPDEST PUSH1 0x40 MLOAD DUP1 SWAP2 SUB SWAP1 RETURN JUMPDEST PUSH2 0x13A PUSH2 0x8E9 JUMP JUMPDEST PUSH1 0x40 MLOAD PUSH2 0x147 SWAP2 SWAP1 PUSH2 0x125E JUMP JUMPDEST PUSH1 0x40 MLOAD DUP1 SWAP2 SUB SWAP1 RETURN JUMPDEST PUSH2 0x158 PUSH2 0xA12 JUMP JUMPDEST PUSH1 0x40 MLOAD PUSH2 0x165 SWAP2 SWAP1 PUSH2 0x127E JUMP JUMPDEST PUSH1 0x40 MLOAD DUP1 SWAP2 SUB SWAP1 RETURN JUMPDEST PUSH2 0x176 PUSH2 0xA35 JUMP JUMPDEST PUSH1 0x40 MLOAD PUSH2 0x183 SWAP2 SWAP1 PUSH2 0x12B7 JUMP JUMPDEST PUSH1 0x40 MLOAD DUP1 SWAP2 SUB SWAP1 RETURN JUMPDEST PUSH2 0x1A6 PUSH1 0x4 DUP1 CALLDATASIZE SUB DUP2 ADD SWAP1 PUSH2 0x1A1 SWAP2 SWAP1 PUSH2 0xF6B JUMP JUMPDEST PUSH2 0xA5A JUMP JUMPDEST STOP JUMPDEST PUSH2 0x1C2 PUSH1 0x4 DUP1 CALLDATASIZE SUB DUP2 ADD SWAP1 PUSH2 0x1BD SWAP2 SWAP1 PUSH2 0xF6B JUMP JUMPDEST PUSH2 0xB8C JUMP JUMPDEST STOP JUMPDEST PUSH1 0x4 DUP2 DUP2 SLOAD DUP2 LT PUSH2 0x1D3 JUMPI PUSH0 DUP1 REVERT JUMPDEST SWAP1 PUSH0 MSTORE PUSH1 0x20 PUSH0 KECCAK256 SWAP1 PUSH1 0x4 MUL ADD PUSH0 SWAP2 POP SWAP1 POP DUP1 PUSH0 ADD PUSH0 SWAP1 SLOAD SWAP1 PUSH2 0x100 EXP SWAP1 DIV PUSH20 0xFFFFFFFFFFFFFFFFFFFFFFFFFFFFFFFFFFFFFFFF AND SWAP1 DUP1 PUSH1 0x1 ADD PUSH0 SWAP1 SLOAD SWAP1 PUSH2 0x100 EXP SWAP1 DIV PUSH20 0xFFFFFFFFFFFFFFFFFFFFFFFFFFFFFFFFFFFFFFFF AND SWAP1 DUP1 PUSH1 0x2 ADD SLOAD SWAP1 DUP1 PUSH1 0x3 ADD PUSH0 SWAP1 SLOAD SWAP1 PUSH2 0x100 EXP SWAP1 DIV PUSH1 0xFF AND SWAP1 POP DUP5 JUMP JUMPDEST PUSH1 0x3 PUSH0 DUP3 DUP2 MSTORE PUSH1 0x20 ADD SWAP1 DUP2 MSTORE PUSH1 0x20 ADD PUSH0 KECCAK256 PUSH0 SWAP1 SLOAD SWAP1 PUSH2 0x100 EXP SWAP1 DIV PUSH1 0xFF AND PUSH2 0x2A6 JUMPI PUSH1 0x40 MLOAD PUSH32 0x8C379A000000000000000000000000000000000000000000000000000000000 DUP2 MSTORE PUSH1 0x4 ADD PUSH2 0x29D SWAP1 PUSH2 0x1350 JUMP JUMPDEST PUSH1 0x40 MLOAD DUP1 SWAP2 SUB SWAP1 REVERT JUMPDEST PUSH0 DUP1 PUSH1 0x1 PUSH0 SWAP1 SLOAD SWAP1 PUSH2 0x100 EXP SWAP1 DIV PUSH20 0xFFFFFFFFFFFFFFFFFFFFFFFFFFFFFFFFFFFFFFFF AND PUSH20 0xFFFFFFFFFFFFFFFFFFFFFFFFFFFFFFFFFFFFFFFF AND PUSH4 0xB5368E20 DUP6 PUSH1 0x40 MLOAD DUP3 PUSH4 0xFFFFFFFF AND PUSH1 0xE0 SHL DUP2 MSTORE PUSH1 0x4 ADD PUSH2 0x302 SWAP2 SWAP1 PUSH2 0x127E JUMP JUMPDEST PUSH0 PUSH1 0x40 MLOAD DUP1 DUP4 SUB DUP2 DUP7 GAS STATICCALL ISZERO DUP1 ISZERO PUSH2 0x31C JUMPI RETURNDATASIZE PUSH0 DUP1 RETURNDATACOPY RETURNDATASIZE PUSH0 REVERT JUMPDEST POP POP POP POP PUSH1 0x40 MLOAD RETURNDATASIZE PUSH0 DUP3 RETURNDATACOPY RETURNDATASIZE PUSH1 0x1F NOT PUSH1 0x1F DUP3 ADD AND DUP3 ADD DUP1 PUSH1 0x40 MSTORE POP DUP2 ADD SWAP1 PUSH2 0x344 SWAP2 SWAP1 PUSH2 0x14BE JUMP JUMPDEST SWAP4 POP SWAP4 POP POP POP PUSH0 DUP2 MLOAD GT PUSH2 0x38D JUMPI PUSH1 0x40 MLOAD PUSH32 0x8C379A000000000000000000000000000000000000000000000000000000000 DUP2 MSTORE PUSH1 0x4 ADD PUSH2 0x384 SWAP1 PUSH2 0x15C0 JUMP JUMPDEST PUSH1 0x40 MLOAD DUP1 SWAP2 SUB SWAP1 REVERT JUMPDEST PUSH0 DUP1 PUSH1 0x2 PUSH0 SWAP1 SLOAD SWAP1 PUSH2 0x100 EXP SWAP1 DIV PUSH20 0xFFFFFFFFFFFFFFFFFFFFFFFFFFFFFFFFFFFFFFFF AND PUSH20 0xFFFFFFFFFFFFFFFFFFFFFFFFFFFFFFFFFFFFFFFF AND PUSH4 0x6D43B120 DUP7 PUSH1 0x40 MLOAD DUP3 PUSH4 0xFFFFFFFF AND PUSH1 0xE0 SHL DUP2 MSTORE PUSH1 0x4 ADD PUSH2 0x3E9 SWAP2 SWAP1 PUSH2 0x15DE JUMP JUMPDEST PUSH0 PUSH1 0x40 MLOAD DUP1 DUP4 SUB DUP2 DUP7 GAS STATICCALL ISZERO DUP1 ISZERO PUSH2 0x403 JUMPI RETURNDATASIZE PUSH0 DUP1 RETURNDATACOPY RETURNDATASIZE PUSH0 REVERT JUMPDEST POP POP POP POP PUSH1 0x40 MLOAD RETURNDATASIZE PUSH0 DUP3 RETURNDATACOPY RETURNDATASIZE PUSH1 0x1F NOT PUSH1 0x1F DUP3 ADD AND DUP3 ADD DUP1 PUSH1 0x40 MSTORE POP DUP2 ADD SWAP1 PUSH2 0x42B SWAP2 SWAP1 PUSH2 0x15F7 JUMP JUMPDEST SWAP2 POP SWAP2 POP PUSH2 0x438 DUP3 PUSH2 0xDF3 JUMP JUMPDEST PUSH1 0x40 MLOAD PUSH1 0x20 ADD PUSH2 0x448 SWAP2 SWAP1 PUSH2 0x16B1 JUMP JUMPDEST PUSH1 0x40 MLOAD PUSH1 0x20 DUP2 DUP4 SUB SUB DUP2 MSTORE SWAP1 PUSH1 0x40 MSTORE DUP1 MLOAD SWAP1 PUSH1 0x20 ADD KECCAK256 PUSH2 0x467 DUP5 PUSH2 0xDF3 JUMP JUMPDEST PUSH1 0x40 MLOAD PUSH1 0x20 ADD PUSH2 0x477 SWAP2 SWAP1 PUSH2 0x16B1 JUMP JUMPDEST PUSH1 0x40 MLOAD PUSH1 0x20 DUP2 DUP4 SUB SUB DUP2 MSTORE SWAP1 PUSH1 0x40 MSTORE DUP1 MLOAD SWAP1 PUSH1 0x20 ADD KECCAK256 EQ PUSH2 0x4CD JUMPI PUSH1 0x40 MLOAD PUSH32 0x8C379A000000000000000000000000000000000000000000000000000000000 DUP2 MSTORE PUSH1 0x4 ADD PUSH2 0x4C4 SWAP1 PUSH2 0x1711 JUMP JUMPDEST PUSH1 0x40 MLOAD DUP1 SWAP2 SUB SWAP1 REVERT JUMPDEST PUSH2 0x4D6 DUP2 PUSH2 0xDF3 JUMP JUMPDEST PUSH1 0x40 MLOAD PUSH1 0x20 ADD PUSH2 0x4E6 SWAP2 SWAP1 PUSH2 0x16B1 JUMP JUMPDEST PUSH1 0x40 MLOAD PUSH1 0x20 DUP2 DUP4 SUB SUB DUP2 MSTORE SWAP1 PUSH1 0x40 MSTORE DUP1 MLOAD SWAP1 PUSH1 0x20 ADD KECCAK256 PUSH2 0x505 DUP6 PUSH2 0xDF3 JUMP JUMPDEST PUSH1 0x40 MLOAD PUSH1 0x20 ADD PUSH2 0x515 SWAP2 SWAP1 PUSH2 0x16B1 JUMP JUMPDEST PUSH1 0x40 MLOAD PUSH1 0x20 DUP2 DUP4 SUB SUB DUP2 MSTORE SWAP1 PUSH1 0x40 MSTORE DUP1 MLOAD SWAP1 PUSH1 0x20 ADD KECCAK256 EQ PUSH2 0x56B JUMPI PUSH1 0x40 MLOAD PUSH32 0x8C379A000000000000000000000000000000000000000000000000000000000 DUP2 MSTORE PUSH1 0x4 ADD PUSH2 0x562 SWAP1 PUSH2 0x1779 JUMP JUMPDEST PUSH1 0x40 MLOAD DUP1 SWAP2 SUB SWAP1 REVERT JUMPDEST ADDRESS PUSH20 0xFFFFFFFFFFFFFFFFFFFFFFFFFFFFFFFFFFFFFFFF AND PUSH1 0x2 PUSH0 SWAP1 SLOAD SWAP1 PUSH2 0x100 EXP SWAP1 DIV PUSH20 0xFFFFFFFFFFFFFFFFFFFFFFFFFFFFFFFFFFFFFFFF AND PUSH20 0xFFFFFFFFFFFFFFFFFFFFFFFFFFFFFFFFFFFFFFFF AND PUSH4 0x81812FC DUP8 PUSH1 0x40 MLOAD DUP3 PUSH4 0xFFFFFFFF AND PUSH1 0xE0 SHL DUP2 MSTORE PUSH1 0x4 ADD PUSH2 0x5DC SWAP2 SWAP1 PUSH2 0x15DE JUMP JUMPDEST PUSH1 0x20 PUSH1 0x40 MLOAD DUP1 DUP4 SUB DUP2 DUP7 GAS STATICCALL ISZERO DUP1 ISZERO PUSH2 0x5F7 JUMPI RETURNDATASIZE PUSH0 DUP1 RETURNDATACOPY RETURNDATASIZE PUSH0 REVERT JUMPDEST POP POP POP POP PUSH1 0x40 MLOAD RETURNDATASIZE PUSH1 0x1F NOT PUSH1 0x1F DUP3 ADD AND DUP3 ADD DUP1 PUSH1 0x40 MSTORE POP DUP2 ADD SWAP1 PUSH2 0x61B SWAP2 SWAP1 PUSH2 0x1797 JUMP JUMPDEST PUSH20 0xFFFFFFFFFFFFFFFFFFFFFFFFFFFFFFFFFFFFFFFF AND EQ PUSH2 0x671 JUMPI PUSH1 0x40 MLOAD PUSH32 0x8C379A000000000000000000000000000000000000000000000000000000000 DUP2 MSTORE PUSH1 0x4 ADD PUSH2 0x668 SWAP1 PUSH2 0x1832 JUMP JUMPDEST PUSH1 0x40 MLOAD DUP1 SWAP2 SUB SWAP1 REVERT JUMPDEST PUSH1 0x2 PUSH0 SWAP1 SLOAD SWAP1 PUSH2 0x100 EXP SWAP1 DIV PUSH20 0xFFFFFFFFFFFFFFFFFFFFFFFFFFFFFFFFFFFFFFFF AND PUSH20 0xFFFFFFFFFFFFFFFFFFFFFFFFFFFFFFFFFFFFFFFF AND PUSH4 0x23B872DD CALLER ADDRESS DUP9 PUSH1 0x40 MLOAD DUP5 PUSH4 0xFFFFFFFF AND PUSH1 0xE0 SHL DUP2 MSTORE PUSH1 0x4 ADD PUSH2 0x6CF SWAP4 SWAP3 SWAP2 SWAP1 PUSH2 0x1850 JUMP JUMPDEST PUSH0 PUSH1 0x40 MLOAD DUP1 DUP4 SUB DUP2 PUSH0 DUP8 DUP1 EXTCODESIZE ISZERO DUP1 ISZERO PUSH2 0x6E6 JUMPI PUSH0 DUP1 REVERT JUMPDEST POP GAS CALL ISZERO DUP1 ISZERO PUSH2 0x6F8 JUMPI RETURNDATASIZE PUSH0 DUP1 RETURNDATACOPY RETURNDATASIZE PUSH0 REVERT JUMPDEST POP POP POP POP PUSH1 0x4 PUSH1 0x40 MLOAD DUP1 PUSH1 0x80 ADD PUSH1 0x40 MSTORE DUP1 CALLER PUSH20 0xFFFFFFFFFFFFFFFFFFFFFFFFFFFFFFFFFFFFFFFF AND DUP2 MSTORE PUSH1 0x20 ADD DUP9 PUSH20 0xFFFFFFFFFFFFFFFFFFFFFFFFFFFFFFFFFFFFFFFF AND DUP2 MSTORE PUSH1 0x20 ADD DUP8 DUP2 MSTORE PUSH1 0x20 ADD PUSH0 ISZERO ISZERO DUP2 MSTORE POP SWAP1 DUP1 PUSH1 0x1 DUP2 SLOAD ADD DUP1 DUP3 SSTORE DUP1 SWAP2 POP POP PUSH1 0x1 SWAP1 SUB SWAP1 PUSH0 MSTORE PUSH1 0x20 PUSH0 KECCAK256 SWAP1 PUSH1 0x4 MUL ADD PUSH0 SWAP1 SWAP2 SWAP1 SWAP2 SWAP1 SWAP2 POP PUSH0 DUP3 ADD MLOAD DUP2 PUSH0 ADD PUSH0 PUSH2 0x100 EXP DUP2 SLOAD DUP2 PUSH20 0xFFFFFFFFFFFFFFFFFFFFFFFFFFFFFFFFFFFFFFFF MUL NOT AND SWAP1 DUP4 PUSH20 0xFFFFFFFFFFFFFFFFFFFFFFFFFFFFFFFFFFFFFFFF AND MUL OR SWAP1 SSTORE POP PUSH1 0x20 DUP3 ADD MLOAD DUP2 PUSH1 0x1 ADD PUSH0 PUSH2 0x100 EXP DUP2 SLOAD DUP2 PUSH20 0xFFFFFFFFFFFFFFFFFFFFFFFFFFFFFFFFFFFFFFFF MUL NOT AND SWAP1 DUP4 PUSH20 0xFFFFFFFFFFFFFFFFFFFFFFFFFFFFFFFFFFFFFFFF AND MUL OR SWAP1 SSTORE POP PUSH1 0x40 DUP3 ADD MLOAD DUP2 PUSH1 0x2 ADD SSTORE PUSH1 0x60 DUP3 ADD MLOAD DUP2 PUSH1 0x3 ADD PUSH0 PUSH2 0x100 EXP DUP2 SLOAD DUP2 PUSH1 0xFF MUL NOT AND SWAP1 DUP4 ISZERO ISZERO MUL OR SWAP1 SSTORE POP POP POP DUP6 PUSH20 0xFFFFFFFFFFFFFFFFFFFFFFFFFFFFFFFFFFFFFFFF AND CALLER PUSH20 0xFFFFFFFFFFFFFFFFFFFFFFFFFFFFFFFFFFFFFFFF AND PUSH1 0x1 PUSH1 0x4 DUP1 SLOAD SWAP1 POP PUSH2 0x868 SWAP2 SWAP1 PUSH2 0x18B2 JUMP JUMPDEST PUSH32 0x190DEC4301154D8795B9E0A942495F78D2629BB02B82F6C6260A3DAA00119F28 DUP9 PUSH1 0x40 MLOAD PUSH2 0x897 SWAP2 SWAP1 PUSH2 0x15DE JUMP JUMPDEST PUSH1 0x40 MLOAD DUP1 SWAP2 SUB SWAP1 LOG4 POP POP POP POP POP POP JUMP JUMPDEST PUSH1 0x1 PUSH0 SWAP1 SLOAD SWAP1 PUSH2 0x100 EXP SWAP1 DIV PUSH20 0xFFFFFFFFFFFFFFFFFFFFFFFFFFFFFFFFFFFFFFFF AND DUP2 JUMP JUMPDEST PUSH1 0x3 PUSH1 0x20 MSTORE DUP1 PUSH0 MSTORE PUSH1 0x40 PUSH0 KECCAK256 PUSH0 SWAP2 POP SLOAD SWAP1 PUSH2 0x100 EXP SWAP1 DIV PUSH1 0xFF AND DUP2 JUMP JUMPDEST PUSH1 0x60 PUSH1 0x4 DUP1 SLOAD DUP1 PUSH1 0x20 MUL PUSH1 0x20 ADD PUSH1 0x40 MLOAD SWAP1 DUP2 ADD PUSH1 0x40 MSTORE DUP1 SWAP3 SWAP2 SWAP1 DUP2 DUP2 MSTORE PUSH1 0x20 ADD PUSH0 SWAP1 JUMPDEST DUP3 DUP3 LT ISZERO PUSH2 0xA09 JUMPI DUP4 DUP3 SWAP1 PUSH0 MSTORE PUSH1 0x20 PUSH0 KECCAK256 SWAP1 PUSH1 0x4 MUL ADD PUSH1 0x40 MLOAD DUP1 PUSH1 0x80 ADD PUSH1 0x40 MSTORE SWAP1 DUP2 PUSH0 DUP3 ADD PUSH0 SWAP1 SLOAD SWAP1 PUSH2 0x100 EXP SWAP1 DIV PUSH20 0xFFFFFFFFFFFFFFFFFFFFFFFFFFFFFFFFFFFFFFFF AND PUSH20 0xFFFFFFFFFFFFFFFFFFFFFFFFFFFFFFFFFFFFFFFF AND PUSH20 0xFFFFFFFFFFFFFFFFFFFFFFFFFFFFFFFFFFFFFFFF AND DUP2 MSTORE PUSH1 0x20 ADD PUSH1 0x1 DUP3 ADD PUSH0 SWAP1 SLOAD SWAP1 PUSH2 0x100 EXP SWAP1 DIV PUSH20 0xFFFFFFFFFFFFFFFFFFFFFFFFFFFFFFFFFFFFFFFF AND PUSH20 0xFFFFFFFFFFFFFFFFFFFFFFFFFFFFFFFFFFFFFFFF AND PUSH20 0xFFFFFFFFFFFFFFFFFFFFFFFFFFFFFFFFFFFFFFFF AND DUP2 MSTORE PUSH1 0x20 ADD PUSH1 0x2 DUP3 ADD SLOAD DUP2 MSTORE PUSH1 0x20 ADD PUSH1 0x3 DUP3 ADD PUSH0 SWAP1 SLOAD SWAP1 PUSH2 0x100 EXP SWAP1 DIV PUSH1 0xFF AND ISZERO ISZERO ISZERO ISZERO DUP2 MSTORE POP POP DUP2 MSTORE PUSH1 0x20 ADD SWAP1 PUSH1 0x1 ADD SWAP1 PUSH2 0x90C JUMP JUMPDEST POP POP POP POP SWAP1 POP SWAP1 JUMP JUMPDEST PUSH0 DUP1 SLOAD SWAP1 PUSH2 0x100 EXP SWAP1 DIV PUSH20 0xFFFFFFFFFFFFFFFFFFFFFFFFFFFFFFFFFFFFFFFF AND DUP2 JUMP JUMPDEST PUSH1 0x2 PUSH0 SWAP1 SLOAD SWAP1 PUSH2 0x100 EXP SWAP1 DIV PUSH20 0xFFFFFFFFFFFFFFFFFFFFFFFFFFFFFFFFFFFFFFFF AND DUP2 JUMP JUMPDEST CALLER PUSH20 0xFFFFFFFFFFFFFFFFFFFFFFFFFFFFFFFFFFFFFFFF AND PUSH1 0x2 PUSH0 SWAP1 SLOAD SWAP1 PUSH2 0x100 EXP SWAP1 DIV PUSH20 0xFFFFFFFFFFFFFFFFFFFFFFFFFFFFFFFFFFFFFFFF AND PUSH20 0xFFFFFFFFFFFFFFFFFFFFFFFFFFFFFFFFFFFFFFFF AND PUSH4 0x6352211E DUP4 PUSH1 0x40 MLOAD DUP3 PUSH4 0xFFFFFFFF AND PUSH1 0xE0 SHL DUP2 MSTORE PUSH1 0x4 ADD PUSH2 0xACB SWAP2 SWAP1 PUSH2 0x15DE JUMP JUMPDEST PUSH1 0x20 PUSH1 0x40 MLOAD DUP1 DUP4 SUB DUP2 DUP7 GAS STATICCALL ISZERO DUP1 ISZERO PUSH2 0xAE6 JUMPI RETURNDATASIZE PUSH0 DUP1 RETURNDATACOPY RETURNDATASIZE PUSH0 REVERT JUMPDEST POP POP POP POP PUSH1 0x40 MLOAD RETURNDATASIZE PUSH1 0x1F NOT PUSH1 0x1F DUP3 ADD AND DUP3 ADD DUP1 PUSH1 0x40 MSTORE POP DUP2 ADD SWAP1 PUSH2 0xB0A SWAP2 SWAP1 PUSH2 0x1797 JUMP JUMPDEST PUSH20 0xFFFFFFFFFFFFFFFFFFFFFFFFFFFFFFFFFFFFFFFF AND EQ PUSH2 0xB60 JUMPI PUSH1 0x40 MLOAD PUSH32 0x8C379A000000000000000000000000000000000000000000000000000000000 DUP2 MSTORE PUSH1 0x4 ADD PUSH2 0xB57 SWAP1 PUSH2 0x192F JUMP JUMPDEST PUSH1 0x40 MLOAD DUP1 SWAP2 SUB SWAP1 REVERT JUMPDEST PUSH1 0x1 PUSH1 0x3 PUSH0 DUP4 DUP2 MSTORE PUSH1 0x20 ADD SWAP1 DUP2 MSTORE PUSH1 0x20 ADD PUSH0 KECCAK256 PUSH0 PUSH2 0x100 EXP DUP2 SLOAD DUP2 PUSH1 0xFF MUL NOT AND SWAP1 DUP4 ISZERO ISZERO MUL OR SWAP1 SSTORE POP POP JUMP JUMPDEST PUSH0 DUP1 SLOAD SWAP1 PUSH2 0x100 EXP SWAP1 DIV PUSH20 0xFFFFFFFFFFFFFFFFFFFFFFFFFFFFFFFFFFFFFFFF AND PUSH20 0xFFFFFFFFFFFFFFFFFFFFFFFFFFFFFFFFFFFFFFFF AND CALLER PUSH20 0xFFFFFFFFFFFFFFFFFFFFFFFFFFFFFFFFFFFFFFFF AND EQ PUSH2 0xC19 JUMPI PUSH1 0x40 MLOAD PUSH32 0x8C379A000000000000000000000000000000000000000000000000000000000 DUP2 MSTORE PUSH1 0x4 ADD PUSH2 0xC10 SWAP1 PUSH2 0x19BD JUMP JUMPDEST PUSH1 0x40 MLOAD DUP1 SWAP2 SUB SWAP1 REVERT JUMPDEST PUSH0 PUSH1 0x4 DUP3 DUP2 SLOAD DUP2 LT PUSH2 0xC2E JUMPI PUSH2 0xC2D PUSH2 0x19DB JUMP JUMPDEST JUMPDEST SWAP1 PUSH0 MSTORE PUSH1 0x20 PUSH0 KECCAK256 SWAP1 PUSH1 0x4 MUL ADD SWAP1 POP DUP1 PUSH1 0x3 ADD PUSH0 SWAP1 SLOAD SWAP1 PUSH2 0x100 EXP SWAP1 DIV PUSH1 0xFF AND ISZERO PUSH2 0xC8D JUMPI PUSH1 0x40 MLOAD PUSH32 0x8C379A000000000000000000000000000000000000000000000000000000000 DUP2 MSTORE PUSH1 0x4 ADD PUSH2 0xC84 SWAP1 PUSH2 0x1A52 JUMP JUMPDEST PUSH1 0x40 MLOAD DUP1 SWAP2 SUB SWAP1 REVERT JUMPDEST PUSH1 0x1 DUP2 PUSH1 0x3 ADD PUSH0 PUSH2 0x100 EXP DUP2 SLOAD DUP2 PUSH1 0xFF MUL NOT AND SWAP1 DUP4 ISZERO ISZERO MUL OR SWAP1 SSTORE POP DUP2 PUSH32 0xCA65C146ED1E5572F583A0FBE70FDBD0443A39C1EB084A7E94C40190AE705B04 PUSH1 0x40 MLOAD PUSH1 0x40 MLOAD DUP1 SWAP2 SUB SWAP1 LOG2 PUSH1 0x2 PUSH0 SWAP1 SLOAD SWAP1 PUSH2 0x100 EXP SWAP1 DIV PUSH20 0xFFFFFFFFFFFFFFFFFFFFFFFFFFFFFFFFFFFFFFFF AND PUSH20 0xFFFFFFFFFFFFFFFFFFFFFFFFFFFFFFFFFFFFFFFF AND PUSH4 0x23B872DD ADDRESS DUP4 PUSH1 0x1 ADD PUSH0 SWAP1 SLOAD SWAP1 PUSH2 0x100 EXP SWAP1 DIV PUSH20 0xFFFFFFFFFFFFFFFFFFFFFFFFFFFFFFFFFFFFFFFF AND DUP5 PUSH1 0x2 ADD SLOAD PUSH1 0x40 MLOAD DUP5 PUSH4 0xFFFFFFFF AND PUSH1 0xE0 SHL DUP2 MSTORE PUSH1 0x4 ADD PUSH2 0xD5B SWAP4 SWAP3 SWAP2 SWAP1 PUSH2 0x1850 JUMP JUMPDEST PUSH0 PUSH1 0x40 MLOAD DUP1 DUP4 SUB DUP2 PUSH0 DUP8 DUP1 EXTCODESIZE ISZERO DUP1 ISZERO PUSH2 0xD72 JUMPI PUSH0 DUP1 REVERT JUMPDEST POP GAS CALL ISZERO DUP1 ISZERO PUSH2 0xD84 JUMPI RETURNDATASIZE PUSH0 DUP1 RETURNDATACOPY RETURNDATASIZE PUSH0 REVERT JUMPDEST POP POP POP POP DUP1 PUSH1 0x1 ADD PUSH0 SWAP1 SLOAD SWAP1 PUSH2 0x100 EXP SWAP1 DIV PUSH20 0xFFFFFFFFFFFFFFFFFFFFFFFFFFFFFFFFFFFFFFFF AND PUSH20 0xFFFFFFFFFFFFFFFFFFFFFFFFFFFFFFFFFFFFFFFF AND DUP3 PUSH32 0x875E5DBC5245C14B7292F71BC2E944F8FF3F1DFCE6AC08C5642995080B24565C PUSH1 0x40 MLOAD PUSH1 0x40 MLOAD DUP1 SWAP2 SUB SWAP1 LOG3 POP POP JUMP JUMPDEST PUSH1 0x60 PUSH0 DUP3 SWAP1 POP PUSH0 DUP2 MLOAD PUSH8 0xFFFFFFFFFFFFFFFF DUP2 GT ISZERO PUSH2 0xE15 JUMPI PUSH2 0xE14 PUSH2 0x139A JUMP JUMPDEST JUMPDEST PUSH1 0x40 MLOAD SWAP1 DUP1 DUP3 MSTORE DUP1 PUSH1 0x1F ADD PUSH1 0x1F NOT AND PUSH1 0x20 ADD DUP3 ADD PUSH1 0x40 MSTORE DUP1 ISZERO PUSH2 0xE47 JUMPI DUP2 PUSH1 0x20 ADD PUSH1 0x1 DUP3 MUL DUP1 CALLDATASIZE DUP4 CALLDATACOPY DUP1 DUP3 ADD SWAP2 POP POP SWAP1 POP JUMPDEST POP SWAP1 POP PUSH0 DUP1 JUMPDEST DUP4 MLOAD DUP2 LT ISZERO PUSH2 0xF1B JUMPI PUSH1 0x20 PUSH1 0xF8 SHL DUP5 DUP3 DUP2 MLOAD DUP2 LT PUSH2 0xE6E JUMPI PUSH2 0xE6D PUSH2 0x19DB JUMP JUMPDEST JUMPDEST PUSH1 0x20 ADD ADD MLOAD PUSH1 0xF8 SHR PUSH1 0xF8 SHL PUSH31 0xFFFFFFFFFFFFFFFFFFFFFFFFFFFFFFFFFFFFFFFFFFFFFFFFFFFFFFFFFFFFFF NOT AND EQ PUSH2 0xF0E JUMPI DUP4 DUP2 DUP2 MLOAD DUP2 LT PUSH2 0xEB3 JUMPI PUSH2 0xEB2 PUSH2 0x19DB JUMP JUMPDEST JUMPDEST PUSH1 0x20 ADD ADD MLOAD PUSH1 0xF8 SHR PUSH1 0xF8 SHL DUP4 DUP4 DUP2 MLOAD DUP2 LT PUSH2 0xED1 JUMPI PUSH2 0xED0 PUSH2 0x19DB JUMP JUMPDEST JUMPDEST PUSH1 0x20 ADD ADD SWAP1 PUSH31 0xFFFFFFFFFFFFFFFFFFFFFFFFFFFFFFFFFFFFFFFFFFFFFFFFFFFFFFFFFFFFFF NOT AND SWAP1 DUP2 PUSH0 BYTE SWAP1 MSTORE8 POP DUP2 DUP1 PUSH2 0xF0A SWAP1 PUSH2 0x1A70 JUMP JUMPDEST SWAP3 POP POP JUMPDEST DUP1 DUP1 PUSH1 0x1 ADD SWAP2 POP POP PUSH2 0xE4D JUMP JUMPDEST POP DUP2 SWAP4 POP POP POP POP SWAP2 SWAP1 POP JUMP JUMPDEST PUSH0 PUSH1 0x40 MLOAD SWAP1 POP SWAP1 JUMP JUMPDEST PUSH0 DUP1 REVERT JUMPDEST PUSH0 DUP1 REVERT JUMPDEST PUSH0 DUP2 SWAP1 POP SWAP2 SWAP1 POP JUMP JUMPDEST PUSH2 0xF4A DUP2 PUSH2 0xF38 JUMP JUMPDEST DUP2 EQ PUSH2 0xF54 JUMPI PUSH0 DUP1 REVERT JUMPDEST POP JUMP JUMPDEST PUSH0 DUP2 CALLDATALOAD SWAP1 POP PUSH2 0xF65 DUP2 PUSH2 0xF41 JUMP JUMPDEST SWAP3 SWAP2 POP POP JUMP JUMPDEST PUSH0 PUSH1 0x20 DUP3 DUP5 SUB SLT ISZERO PUSH2 0xF80 JUMPI PUSH2 0xF7F PUSH2 0xF30 JUMP JUMPDEST JUMPDEST PUSH0 PUSH2 0xF8D DUP5 DUP3 DUP6 ADD PUSH2 0xF57 JUMP JUMPDEST SWAP2 POP POP SWAP3 SWAP2 POP POP JUMP JUMPDEST PUSH0 PUSH20 0xFFFFFFFFFFFFFFFFFFFFFFFFFFFFFFFFFFFFFFFF DUP3 AND SWAP1 POP SWAP2 SWAP1 POP JUMP JUMPDEST PUSH0 PUSH2 0xFBF DUP3 PUSH2 0xF96 JUMP JUMPDEST SWAP1 POP SWAP2 SWAP1 POP JUMP JUMPDEST PUSH2 0xFCF DUP2 PUSH2 0xFB5 JUMP JUMPDEST DUP3 MSTORE POP POP JUMP JUMPDEST PUSH2 0xFDE DUP2 PUSH2 0xF38 JUMP JUMPDEST DUP3 MSTORE POP POP JUMP JUMPDEST PUSH0 DUP2 ISZERO ISZERO SWAP1 POP SWAP2 SWAP1 POP JUMP JUMPDEST PUSH2 0xFF8 DUP2 PUSH2 0xFE4 JUMP JUMPDEST DUP3 MSTORE POP POP JUMP JUMPDEST PUSH0 PUSH1 0x80 DUP3 ADD SWAP1 POP PUSH2 0x1011 PUSH0 DUP4 ADD DUP8 PUSH2 0xFC6 JUMP JUMPDEST PUSH2 0x101E PUSH1 0x20 DUP4 ADD DUP7 PUSH2 0xFC6 JUMP JUMPDEST PUSH2 0x102B PUSH1 0x40 DUP4 ADD DUP6 PUSH2 0xFD5 JUMP JUMPDEST PUSH2 0x1038 PUSH1 0x60 DUP4 ADD DUP5 PUSH2 0xFEF JUMP JUMPDEST SWAP6 SWAP5 POP POP POP POP POP JUMP JUMPDEST PUSH2 0x104A DUP2 PUSH2 0xFB5 JUMP JUMPDEST DUP2 EQ PUSH2 0x1054 JUMPI PUSH0 DUP1 REVERT JUMPDEST POP JUMP JUMPDEST PUSH0 DUP2 CALLDATALOAD SWAP1 POP PUSH2 0x1065 DUP2 PUSH2 0x1041 JUMP JUMPDEST SWAP3 SWAP2 POP POP JUMP JUMPDEST PUSH0 DUP1 PUSH1 0x40 DUP4 DUP6 SUB SLT ISZERO PUSH2 0x1081 JUMPI PUSH2 0x1080 PUSH2 0xF30 JUMP JUMPDEST JUMPDEST PUSH0 PUSH2 0x108E DUP6 DUP3 DUP7 ADD PUSH2 0x1057 JUMP JUMPDEST SWAP3 POP POP PUSH1 0x20 PUSH2 0x109F DUP6 DUP3 DUP7 ADD PUSH2 0xF57 JUMP JUMPDEST SWAP2 POP POP SWAP3 POP SWAP3 SWAP1 POP JUMP JUMPDEST PUSH0 DUP2 SWAP1 POP SWAP2 SWAP1 POP JUMP JUMPDEST PUSH0 PUSH2 0x10CC PUSH2 0x10C7 PUSH2 0x10C2 DUP5 PUSH2 0xF96 JUMP JUMPDEST PUSH2 0x10A9 JUMP JUMPDEST PUSH2 0xF96 JUMP JUMPDEST SWAP1 POP SWAP2 SWAP1 POP JUMP JUMPDEST PUSH0 PUSH2 0x10DD DUP3 PUSH2 0x10B2 JUMP JUMPDEST SWAP1 POP SWAP2 SWAP1 POP JUMP JUMPDEST PUSH0 PUSH2 0x10EE DUP3 PUSH2 0x10D3 JUMP JUMPDEST SWAP1 POP SWAP2 SWAP1 POP JUMP JUMPDEST PUSH2 0x10FE DUP2 PUSH2 0x10E4 JUMP JUMPDEST DUP3 MSTORE POP POP JUMP JUMPDEST PUSH0 PUSH1 0x20 DUP3 ADD SWAP1 POP PUSH2 0x1117 PUSH0 DUP4 ADD DUP5 PUSH2 0x10F5 JUMP JUMPDEST SWAP3 SWAP2 POP POP JUMP JUMPDEST PUSH0 PUSH1 0x20 DUP3 ADD SWAP1 POP PUSH2 0x1130 PUSH0 DUP4 ADD DUP5 PUSH2 0xFEF JUMP JUMPDEST SWAP3 SWAP2 POP POP JUMP JUMPDEST PUSH0 DUP2 MLOAD SWAP1 POP SWAP2 SWAP1 POP JUMP JUMPDEST PUSH0 DUP3 DUP3 MSTORE PUSH1 0x20 DUP3 ADD SWAP1 POP SWAP3 SWAP2 POP POP JUMP JUMPDEST PUSH0 DUP2 SWAP1 POP PUSH1 0x20 DUP3 ADD SWAP1 POP SWAP2 SWAP1 POP JUMP JUMPDEST PUSH2 0x1168 DUP2 PUSH2 0xFB5 JUMP JUMPDEST DUP3 MSTORE POP POP JUMP JUMPDEST PUSH2 0x1177 DUP2 PUSH2 0xF38 JUMP JUMPDEST DUP3 MSTORE POP POP JUMP JUMPDEST PUSH2 0x1186 DUP2 PUSH2 0xFE4 JUMP JUMPDEST DUP3 MSTORE POP POP JUMP JUMPDEST PUSH1 0x80 DUP3 ADD PUSH0 DUP3 ADD MLOAD PUSH2 0x11A0 PUSH0 DUP6 ADD DUP3 PUSH2 0x115F JUMP JUMPDEST POP PUSH1 0x20 DUP3 ADD MLOAD PUSH2 0x11B3 PUSH1 0x20 DUP6 ADD DUP3 PUSH2 0x115F JUMP JUMPDEST POP PUSH1 0x40 DUP3 ADD MLOAD PUSH2 0x11C6 PUSH1 0x40 DUP6 ADD DUP3 PUSH2 0x116E JUMP JUMPDEST POP PUSH1 0x60 DUP3 ADD MLOAD PUSH2 0x11D9 PUSH1 0x60 DUP6 ADD DUP3 PUSH2 0x117D JUMP JUMPDEST POP POP POP POP JUMP JUMPDEST PUSH0 PUSH2 0x11EA DUP4 DUP4 PUSH2 0x118C JUMP JUMPDEST PUSH1 0x80 DUP4 ADD SWAP1 POP SWAP3 SWAP2 POP POP JUMP JUMPDEST PUSH0 PUSH1 0x20 DUP3 ADD SWAP1 POP SWAP2 SWAP1 POP JUMP JUMPDEST PUSH0 PUSH2 0x120C DUP3 PUSH2 0x1136 JUMP JUMPDEST PUSH2 0x1216 DUP2 DUP6 PUSH2 0x1140 JUMP JUMPDEST SWAP4 POP PUSH2 0x1221 DUP4 PUSH2 0x1150 JUMP JUMPDEST DUP1 PUSH0 JUMPDEST DUP4 DUP2 LT ISZERO PUSH2 0x1251 JUMPI DUP2 MLOAD PUSH2 0x1238 DUP9 DUP3 PUSH2 0x11DF JUMP JUMPDEST SWAP8 POP PUSH2 0x1243 DUP4 PUSH2 0x11F6 JUMP JUMPDEST SWAP3 POP POP PUSH1 0x1 DUP2 ADD SWAP1 POP PUSH2 0x1224 JUMP JUMPDEST POP DUP6 SWAP4 POP POP POP POP SWAP3 SWAP2 POP POP JUMP JUMPDEST PUSH0 PUSH1 0x20 DUP3 ADD SWAP1 POP DUP2 DUP2 SUB PUSH0 DUP4 ADD MSTORE PUSH2 0x1276 DUP2 DUP5 PUSH2 0x1202 JUMP JUMPDEST SWAP1 POP SWAP3 SWAP2 POP POP JUMP JUMPDEST PUSH0 PUSH1 0x20 DUP3 ADD SWAP1 POP PUSH2 0x1291 PUSH0 DUP4 ADD DUP5 PUSH2 0xFC6 JUMP JUMPDEST SWAP3 SWAP2 POP POP JUMP JUMPDEST PUSH0 PUSH2 0x12A1 DUP3 PUSH2 0x10D3 JUMP JUMPDEST SWAP1 POP SWAP2 SWAP1 POP JUMP JUMPDEST PUSH2 0x12B1 DUP2 PUSH2 0x1297 JUMP JUMPDEST DUP3 MSTORE POP POP JUMP JUMPDEST PUSH0 PUSH1 0x20 DUP3 ADD SWAP1 POP PUSH2 0x12CA PUSH0 DUP4 ADD DUP5 PUSH2 0x12A8 JUMP JUMPDEST SWAP3 SWAP2 POP POP JUMP JUMPDEST PUSH0 DUP3 DUP3 MSTORE PUSH1 0x20 DUP3 ADD SWAP1 POP SWAP3 SWAP2 POP POP JUMP JUMPDEST PUSH32 0x446F6E6F7220686173206E6F7420617070726F7665642074686973206F726761 PUSH0 DUP3 ADD MSTORE PUSH32 0x6E00000000000000000000000000000000000000000000000000000000000000 PUSH1 0x20 DUP3 ADD MSTORE POP JUMP JUMPDEST PUSH0 PUSH2 0x133A PUSH1 0x21 DUP4 PUSH2 0x12D0 JUMP JUMPDEST SWAP2 POP PUSH2 0x1345 DUP3 PUSH2 0x12E0 JUMP JUMPDEST PUSH1 0x40 DUP3 ADD SWAP1 POP SWAP2 SWAP1 POP JUMP JUMPDEST PUSH0 PUSH1 0x20 DUP3 ADD SWAP1 POP DUP2 DUP2 SUB PUSH0 DUP4 ADD MSTORE PUSH2 0x1367 DUP2 PUSH2 0x132E JUMP JUMPDEST SWAP1 POP SWAP2 SWAP1 POP JUMP JUMPDEST PUSH0 DUP2 MLOAD SWAP1 POP PUSH2 0x137C DUP2 PUSH2 0x1041 JUMP JUMPDEST SWAP3 SWAP2 POP POP JUMP JUMPDEST PUSH0 DUP1 REVERT JUMPDEST PUSH0 DUP1 REVERT JUMPDEST PUSH0 PUSH1 0x1F NOT PUSH1 0x1F DUP4 ADD AND SWAP1 POP SWAP2 SWAP1 POP JUMP JUMPDEST PUSH32 0x4E487B7100000000000000000000000000000000000000000000000000000000 PUSH0 MSTORE PUSH1 0x41 PUSH1 0x4 MSTORE PUSH1 0x24 PUSH0 REVERT JUMPDEST PUSH2 0x13D0 DUP3 PUSH2 0x138A JUMP JUMPDEST DUP2 ADD DUP2 DUP2 LT PUSH8 0xFFFFFFFFFFFFFFFF DUP3 GT OR ISZERO PUSH2 0x13EF JUMPI PUSH2 0x13EE PUSH2 0x139A JUMP JUMPDEST JUMPDEST DUP1 PUSH1 0x40 MSTORE POP POP POP JUMP JUMPDEST PUSH0 PUSH2 0x1401 PUSH2 0xF27 JUMP JUMPDEST SWAP1 POP PUSH2 0x140D DUP3 DUP3 PUSH2 0x13C7 JUMP JUMPDEST SWAP2 SWAP1 POP JUMP JUMPDEST PUSH0 PUSH8 0xFFFFFFFFFFFFFFFF DUP3 GT ISZERO PUSH2 0x142C JUMPI PUSH2 0x142B PUSH2 0x139A JUMP JUMPDEST JUMPDEST PUSH2 0x1435 DUP3 PUSH2 0x138A JUMP JUMPDEST SWAP1 POP PUSH1 0x20 DUP2 ADD SWAP1 POP SWAP2 SWAP1 POP JUMP JUMPDEST DUP3 DUP2 DUP4 MCOPY PUSH0 DUP4 DUP4 ADD MSTORE POP POP POP JUMP JUMPDEST PUSH0 PUSH2 0x1462 PUSH2 0x145D DUP5 PUSH2 0x1412 JUMP JUMPDEST PUSH2 0x13F8 JUMP JUMPDEST SWAP1 POP DUP3 DUP2 MSTORE PUSH1 0x20 DUP2 ADD DUP5 DUP5 DUP5 ADD GT ISZERO PUSH2 0x147E JUMPI PUSH2 0x147D PUSH2 0x1386 JUMP JUMPDEST JUMPDEST PUSH2 0x1489 DUP5 DUP3 DUP6 PUSH2 0x1442 JUMP JUMPDEST POP SWAP4 SWAP3 POP POP POP JUMP JUMPDEST PUSH0 DUP3 PUSH1 0x1F DUP4 ADD SLT PUSH2 0x14A5 JUMPI PUSH2 0x14A4 PUSH2 0x1382 JUMP JUMPDEST JUMPDEST DUP2 MLOAD PUSH2 0x14B5 DUP5 DUP3 PUSH1 0x20 DUP7 ADD PUSH2 0x1450 JUMP JUMPDEST SWAP2 POP POP SWAP3 SWAP2 POP POP JUMP JUMPDEST PUSH0 DUP1 PUSH0 DUP1 PUSH1 0x80 DUP6 DUP8 SUB SLT ISZERO PUSH2 0x14D6 JUMPI PUSH2 0x14D5 PUSH2 0xF30 JUMP JUMPDEST JUMPDEST PUSH0 PUSH2 0x14E3 DUP8 DUP3 DUP9 ADD PUSH2 0x136E JUMP JUMPDEST SWAP5 POP POP PUSH1 0x20 DUP6 ADD MLOAD PUSH8 0xFFFFFFFFFFFFFFFF DUP2 GT ISZERO PUSH2 0x1504 JUMPI PUSH2 0x1503 PUSH2 0xF34 JUMP JUMPDEST JUMPDEST PUSH2 0x1510 DUP8 DUP3 DUP9 ADD PUSH2 0x1491 JUMP JUMPDEST SWAP4 POP POP PUSH1 0x40 DUP6 ADD MLOAD PUSH8 0xFFFFFFFFFFFFFFFF DUP2 GT ISZERO PUSH2 0x1531 JUMPI PUSH2 0x1530 PUSH2 0xF34 JUMP JUMPDEST JUMPDEST PUSH2 0x153D DUP8 DUP3 DUP9 ADD PUSH2 0x1491 JUMP JUMPDEST SWAP3 POP POP PUSH1 0x60 DUP6 ADD MLOAD PUSH8 0xFFFFFFFFFFFFFFFF DUP2 GT ISZERO PUSH2 0x155E JUMPI PUSH2 0x155D PUSH2 0xF34 JUMP JUMPDEST JUMPDEST PUSH2 0x156A DUP8 DUP3 DUP9 ADD PUSH2 0x1491 JUMP JUMPDEST SWAP2 POP POP SWAP3 SWAP6 SWAP2 SWAP5 POP SWAP3 POP JUMP JUMPDEST PUSH32 0x50617469656E7420646F6573206E6F7420657869737400000000000000000000 PUSH0 DUP3 ADD MSTORE POP JUMP JUMPDEST PUSH0 PUSH2 0x15AA PUSH1 0x16 DUP4 PUSH2 0x12D0 JUMP JUMPDEST SWAP2 POP PUSH2 0x15B5 DUP3 PUSH2 0x1576 JUMP JUMPDEST PUSH1 0x20 DUP3 ADD SWAP1 POP SWAP2 SWAP1 POP JUMP JUMPDEST PUSH0 PUSH1 0x20 DUP3 ADD SWAP1 POP DUP2 DUP2 SUB PUSH0 DUP4 ADD MSTORE PUSH2 0x15D7 DUP2 PUSH2 0x159E JUMP JUMPDEST SWAP1 POP SWAP2 SWAP1 POP JUMP JUMPDEST PUSH0 PUSH1 0x20 DUP3 ADD SWAP1 POP PUSH2 0x15F1 PUSH0 DUP4 ADD DUP5 PUSH2 0xFD5 JUMP JUMPDEST SWAP3 SWAP2 POP POP JUMP JUMPDEST PUSH0 DUP1 PUSH1 0x40 DUP4 DUP6 SUB SLT ISZERO PUSH2 0x160D JUMPI PUSH2 0x160C PUSH2 0xF30 JUMP JUMPDEST JUMPDEST PUSH0 DUP4 ADD MLOAD PUSH8 0xFFFFFFFFFFFFFFFF DUP2 GT ISZERO PUSH2 0x162A JUMPI PUSH2 0x1629 PUSH2 0xF34 JUMP JUMPDEST JUMPDEST PUSH2 0x1636 DUP6 DUP3 DUP7 ADD PUSH2 0x1491 JUMP JUMPDEST SWAP3 POP POP PUSH1 0x20 DUP4 ADD MLOAD PUSH8 0xFFFFFFFFFFFFFFFF DUP2 GT ISZERO PUSH2 0x1657 JUMPI PUSH2 0x1656 PUSH2 0xF34 JUMP JUMPDEST JUMPDEST PUSH2 0x1663 DUP6 DUP3 DUP7 ADD PUSH2 0x1491 JUMP JUMPDEST SWAP2 POP POP SWAP3 POP SWAP3 SWAP1 POP JUMP JUMPDEST PUSH0 DUP2 MLOAD SWAP1 POP SWAP2 SWAP1 POP JUMP JUMPDEST PUSH0 DUP2 SWAP1 POP SWAP3 SWAP2 POP POP JUMP JUMPDEST PUSH0 PUSH2 0x168B DUP3 PUSH2 0x166D JUMP JUMPDEST PUSH2 0x1695 DUP2 DUP6 PUSH2 0x1677 JUMP JUMPDEST SWAP4 POP PUSH2 0x16A5 DUP2 DUP6 PUSH1 0x20 DUP7 ADD PUSH2 0x1442 JUMP JUMPDEST DUP1 DUP5 ADD SWAP2 POP POP SWAP3 SWAP2 POP POP JUMP JUMPDEST PUSH0 PUSH2 0x16BC DUP3 DUP5 PUSH2 0x1681 JUMP JUMPDEST SWAP2 POP DUP2 SWAP1 POP SWAP3 SWAP2 POP POP JUMP JUMPDEST PUSH32 0x4F7267616E2074797065206D69736D6174636800000000000000000000000000 PUSH0 DUP3 ADD MSTORE POP JUMP JUMPDEST PUSH0 PUSH2 0x16FB PUSH1 0x13 DUP4 PUSH2 0x12D0 JUMP JUMPDEST SWAP2 POP PUSH2 0x1706 DUP3 PUSH2 0x16C7 JUMP JUMPDEST PUSH1 0x20 DUP3 ADD SWAP1 POP SWAP2 SWAP1 POP JUMP JUMPDEST PUSH0 PUSH1 0x20 DUP3 ADD SWAP1 POP DUP2 DUP2 SUB PUSH0 DUP4 ADD MSTORE PUSH2 0x1728 DUP2 PUSH2 0x16EF JUMP JUMPDEST SWAP1 POP SWAP2 SWAP1 POP JUMP JUMPDEST PUSH32 0x426C6F6F642067726F7570206D69736D61746368000000000000000000000000 PUSH0 DUP3 ADD MSTORE POP JUMP JUMPDEST PUSH0 PUSH2 0x1763 PUSH1 0x14 DUP4 PUSH2 0x12D0 JUMP JUMPDEST SWAP2 POP PUSH2 0x176E DUP3 PUSH2 0x172F JUMP JUMPDEST PUSH1 0x20 DUP3 ADD SWAP1 POP SWAP2 SWAP1 POP JUMP JUMPDEST PUSH0 PUSH1 0x20 DUP3 ADD SWAP1 POP DUP2 DUP2 SUB PUSH0 DUP4 ADD MSTORE PUSH2 0x1790 DUP2 PUSH2 0x1757 JUMP JUMPDEST SWAP1 POP SWAP2 SWAP1 POP JUMP JUMPDEST PUSH0 PUSH1 0x20 DUP3 DUP5 SUB SLT ISZERO PUSH2 0x17AC JUMPI PUSH2 0x17AB PUSH2 0xF30 JUMP JUMPDEST JUMPDEST PUSH0 PUSH2 0x17B9 DUP5 DUP3 DUP6 ADD PUSH2 0x136E JUMP JUMPDEST SWAP2 POP POP SWAP3 SWAP2 POP POP JUMP JUMPDEST PUSH32 0x436F6E7472616374206E6F7420617070726F76656420666F72207472616E7366 PUSH0 DUP3 ADD MSTORE PUSH32 0x6572000000000000000000000000000000000000000000000000000000000000 PUSH1 0x20 DUP3 ADD MSTORE POP JUMP JUMPDEST PUSH0 PUSH2 0x181C PUSH1 0x22 DUP4 PUSH2 0x12D0 JUMP JUMPDEST SWAP2 POP PUSH2 0x1827 DUP3 PUSH2 0x17C2 JUMP JUMPDEST PUSH1 0x40 DUP3 ADD SWAP1 POP SWAP2 SWAP1 POP JUMP JUMPDEST PUSH0 PUSH1 0x20 DUP3 ADD SWAP1 POP DUP2 DUP2 SUB PUSH0 DUP4 ADD MSTORE PUSH2 0x1849 DUP2 PUSH2 0x1810 JUMP JUMPDEST SWAP1 POP SWAP2 SWAP1 POP JUMP JUMPDEST PUSH0 PUSH1 0x60 DUP3 ADD SWAP1 POP PUSH2 0x1863 PUSH0 DUP4 ADD DUP7 PUSH2 0xFC6 JUMP JUMPDEST PUSH2 0x1870 PUSH1 0x20 DUP4 ADD DUP6 PUSH2 0xFC6 JUMP JUMPDEST PUSH2 0x187D PUSH1 0x40 DUP4 ADD DUP5 PUSH2 0xFD5 JUMP JUMPDEST SWAP5 SWAP4 POP POP POP POP JUMP JUMPDEST PUSH32 0x4E487B7100000000000000000000000000000000000000000000000000000000 PUSH0 MSTORE PUSH1 0x11 PUSH1 0x4 MSTORE PUSH1 0x24 PUSH0 REVERT JUMPDEST PUSH0 PUSH2 0x18BC DUP3 PUSH2 0xF38 JUMP JUMPDEST SWAP2 POP PUSH2 0x18C7 DUP4 PUSH2 0xF38 JUMP JUMPDEST SWAP3 POP DUP3 DUP3 SUB SWAP1 POP DUP2 DUP2 GT ISZERO PUSH2 0x18DF JUMPI PUSH2 0x18DE PUSH2 0x1885 JUMP JUMPDEST JUMPDEST SWAP3 SWAP2 POP POP JUMP JUMPDEST PUSH32 0x4F6E6C792074686520646F6E6F722063616E20617070726F7665000000000000 PUSH0 DUP3 ADD MSTORE POP JUMP JUMPDEST PUSH0 PUSH2 0x1919 PUSH1 0x1A DUP4 PUSH2 0x12D0 JUMP JUMPDEST SWAP2 POP PUSH2 0x1924 DUP3 PUSH2 0x18E5 JUMP JUMPDEST PUSH1 0x20 DUP3 ADD SWAP1 POP SWAP2 SWAP1 POP JUMP JUMPDEST PUSH0 PUSH1 0x20 DUP3 ADD SWAP1 POP DUP2 DUP2 SUB PUSH0 DUP4 ADD MSTORE PUSH2 0x1946 DUP2 PUSH2 0x190D JUMP JUMPDEST SWAP1 POP SWAP2 SWAP1 POP JUMP JUMPDEST PUSH32 0x4F6E6C792074686520646F63746F722063616E20617070726F7665207472616E PUSH0 DUP3 ADD MSTORE PUSH32 0x7366657273000000000000000000000000000000000000000000000000000000 PUSH1 0x20 DUP3 ADD MSTORE POP JUMP JUMPDEST PUSH0 PUSH2 0x19A7 PUSH1 0x25 DUP4 PUSH2 0x12D0 JUMP JUMPDEST SWAP2 POP PUSH2 0x19B2 DUP3 PUSH2 0x194D JUMP JUMPDEST PUSH1 0x40 DUP3 ADD SWAP1 POP SWAP2 SWAP1 POP JUMP JUMPDEST PUSH0 PUSH1 0x20 DUP3 ADD SWAP1 POP DUP2 DUP2 SUB PUSH0 DUP4 ADD MSTORE PUSH2 0x19D4 DUP2 PUSH2 0x199B JUMP JUMPDEST SWAP1 POP SWAP2 SWAP1 POP JUMP JUMPDEST PUSH32 0x4E487B7100000000000000000000000000000000000000000000000000000000 PUSH0 MSTORE PUSH1 0x32 PUSH1 0x4 MSTORE PUSH1 0x24 PUSH0 REVERT JUMPDEST PUSH32 0x5472616E7366657220616C726561647920617070726F76656400000000000000 PUSH0 DUP3 ADD MSTORE POP JUMP JUMPDEST PUSH0 PUSH2 0x1A3C PUSH1 0x19 DUP4 PUSH2 0x12D0 JUMP JUMPDEST SWAP2 POP PUSH2 0x1A47 DUP3 PUSH2 0x1A08 JUMP JUMPDEST PUSH1 0x20 DUP3 ADD SWAP1 POP SWAP2 SWAP1 POP JUMP JUMPDEST PUSH0 PUSH1 0x20 DUP3 ADD SWAP1 POP DUP2 DUP2 SUB PUSH0 DUP4 ADD MSTORE PUSH2 0x1A69 DUP2 PUSH2 0x1A30 JUMP JUMPDEST SWAP1 POP SWAP2 SWAP1 POP JUMP JUMPDEST PUSH0 PUSH2 0x1A7A DUP3 PUSH2 0xF38 JUMP JUMPDEST SWAP2 POP PUSH32 0xFFFFFFFFFFFFFFFFFFFFFFFFFFFFFFFFFFFFFFFFFFFFFFFFFFFFFFFFFFFFFFFF DUP3 SUB PUSH2 0x1AAC JUMPI PUSH2 0x1AAB PUSH2 0x1885 JUMP JUMPDEST JUMPDEST PUSH1 0x1 DUP3 ADD SWAP1 POP SWAP2 SWAP1 POP JUMP INVALID LOG2 PUSH5 0x6970667358 0x22 SLT KECCAK256 CHAINID 0x2D 0x27 0xC7 SELFDESTRUCT TSTORE PUSH13 0xCABF0BDE57875B8058C4A8D4E5 0xD2 ADDMOD OR PUSH1 0x45 0xC7 SGT 0xCA ADDRESS 0xD3 KECCAK256 0xF7 PUSH5 0x736F6C6343 STOP ADDMOD BYTE STOP CALLER "
				},
				"gasEstimates": {
					"creation": {
						"codeDepositCost": "1378600",
						"executionCost": "infinite",
						"totalCost": "infinite"
					},
					"external": {
						"approveDonation(uint256)": "infinite",
						"approveTransfer(uint256)": "infinite",
						"createEscrow(address,uint256)": "infinite",
						"doctor()": "2527",
						"donorApproved(uint256)": "2852",
						"escrows(uint256)": "infinite",
						"getEscrows()": "infinite",
						"organNFT()": "infinite",
						"patientRegistry()": "infinite"
					},
					"internal": {
						"cleanString(string memory)": "infinite"
					}
				},
				"methodIdentifiers": {
					"approveDonation(uint256)": "c69f34a3",
					"approveTransfer(uint256)": "cacca4a0",
					"createEscrow(address,uint256)": "4614874e",
					"doctor()": "7ea7118c",
					"donorApproved(uint256)": "6905351f",
					"escrows(uint256)": "012f52ee",
					"getEscrows()": "6afcb6da",
					"organNFT()": "b4e30b40",
					"patientRegistry()": "5250c6e2"
				}
			},
			"storageLayout": {
				"storage": [
					{
						"astId": 57,
						"contract": "mediHack/OrganEscrow.sol:OrganEscrow",
						"label": "doctor",
						"offset": 0,
						"slot": "0",
						"type": "t_address"
					},
					{
						"astId": 60,
						"contract": "mediHack/OrganEscrow.sol:OrganEscrow",
						"label": "patientRegistry",
						"offset": 0,
						"slot": "1",
						"type": "t_contract(IPatientRegistry)15"
					},
					{
						"astId": 63,
						"contract": "mediHack/OrganEscrow.sol:OrganEscrow",
						"label": "organNFT",
						"offset": 0,
						"slot": "2",
						"type": "t_contract(IOrganNFT)55"
					},
					{
						"astId": 76,
						"contract": "mediHack/OrganEscrow.sol:OrganEscrow",
						"label": "donorApproved",
						"offset": 0,
						"slot": "3",
						"type": "t_mapping(t_uint256,t_bool)"
					},
					{
						"astId": 80,
						"contract": "mediHack/OrganEscrow.sol:OrganEscrow",
						"label": "escrows",
						"offset": 0,
						"slot": "4",
						"type": "t_array(t_struct(Escrow)72_storage)dyn_storage"
					}
				],
				"types": {
					"t_address": {
						"encoding": "inplace",
						"label": "address",
						"numberOfBytes": "20"
					},
					"t_array(t_struct(Escrow)72_storage)dyn_storage": {
						"base": "t_struct(Escrow)72_storage",
						"encoding": "dynamic_array",
						"label": "struct OrganEscrow.Escrow[]",
						"numberOfBytes": "32"
					},
					"t_bool": {
						"encoding": "inplace",
						"label": "bool",
						"numberOfBytes": "1"
					},
					"t_contract(IOrganNFT)55": {
						"encoding": "inplace",
						"label": "contract IOrganNFT",
						"numberOfBytes": "20"
					},
					"t_contract(IPatientRegistry)15": {
						"encoding": "inplace",
						"label": "contract IPatientRegistry",
						"numberOfBytes": "20"
					},
					"t_mapping(t_uint256,t_bool)": {
						"encoding": "mapping",
						"key": "t_uint256",
						"label": "mapping(uint256 => bool)",
						"numberOfBytes": "32",
						"value": "t_bool"
					},
					"t_struct(Escrow)72_storage": {
						"encoding": "inplace",
						"label": "struct OrganEscrow.Escrow",
						"members": [
							{
								"astId": 65,
								"contract": "mediHack/OrganEscrow.sol:OrganEscrow",
								"label": "donor",
								"offset": 0,
								"slot": "0",
								"type": "t_address"
							},
							{
								"astId": 67,
								"contract": "mediHack/OrganEscrow.sol:OrganEscrow",
								"label": "patient",
								"offset": 0,
								"slot": "1",
								"type": "t_address"
							},
							{
								"astId": 69,
								"contract": "mediHack/OrganEscrow.sol:OrganEscrow",
								"label": "tokenId",
								"offset": 0,
								"slot": "2",
								"type": "t_uint256"
							},
							{
								"astId": 71,
								"contract": "mediHack/OrganEscrow.sol:OrganEscrow",
								"label": "approvedByDoctor",
								"offset": 0,
								"slot": "3",
								"type": "t_bool"
							}
						],
						"numberOfBytes": "128"
					},
					"t_uint256": {
						"encoding": "inplace",
						"label": "uint256",
						"numberOfBytes": "32"
					}
				}
			},
			"userdoc": {
				"kind": "user",
				"methods": {},
				"version": 1
			}
		}
	}
}