{
	"mediHack/PacientRegistry.sol": {
		"PatientRegistry": {
			"abi": [
				{
					"anonymous": false,
					"inputs": [
						{
							"indexed": true,
							"internalType": "address",
							"name": "patient",
							"type": "address"
						},
						{
							"indexed": false,
							"internalType": "string",
							"name": "organNeeded",
							"type": "string"
						}
					],
					"name": "PatientRegistered",
					"type": "event"
				},
				{
					"inputs": [],
					"name": "getAllPatients",
					"outputs": [
						{
							"internalType": "address[]",
							"name": "",
							"type": "address[]"
						}
					],
					"stateMutability": "view",
					"type": "function"
				},
				{
					"inputs": [
						{
							"internalType": "address",
							"name": "patient",
							"type": "address"
						}
					],
					"name": "getPatientInfo",
					"outputs": [
						{
							"internalType": "string",
							"name": "",
							"type": "string"
						},
						{
							"internalType": "string",
							"name": "",
							"type": "string"
						},
						{
							"internalType": "string",
							"name": "",
							"type": "string"
						},
						{
							"internalType": "string",
							"name": "",
							"type": "string"
						},
						{
							"internalType": "address",
							"name": "",
							"type": "address"
						}
					],
					"stateMutability": "view",
					"type": "function"
				},
				{
					"inputs": [
						{
							"internalType": "uint256",
							"name": "",
							"type": "uint256"
						}
					],
					"name": "patientList",
					"outputs": [
						{
							"internalType": "address",
							"name": "",
							"type": "address"
						}
					],
					"stateMutability": "view",
					"type": "function"
				},
				{
					"inputs": [
						{
							"internalType": "address",
							"name": "",
							"type": "address"
						}
					],
					"name": "patients",
					"outputs": [
						{
							"internalType": "string",
							"name": "name",
							"type": "string"
						},
						{
							"internalType": "string",
							"name": "gender",
							"type": "string"
						},
						{
							"internalType": "string",
							"name": "bloodType",
							"type": "string"
						},
						{
							"internalType": "string",
							"name": "neededOrgan",
							"type": "string"
						},
						{
							"internalType": "address",
							"name": "patientAddress",
							"type": "address"
						},
						{
							"internalType": "bool",
							"name": "registered",
							"type": "bool"
						}
					],
					"stateMutability": "view",
					"type": "function"
				},
				{
					"inputs": [
						{
							"internalType": "string",
							"name": "_name",
							"type": "string"
						},
						{
							"internalType": "string",
							"name": "_gender",
							"type": "string"
						},
						{
							"internalType": "string",
							"name": "_bloodType",
							"type": "string"
						},
						{
							"internalType": "string",
							"name": "_neededOrgan",
							"type": "string"
						}
					],
					"name": "registerPatient",
					"outputs": [],
					"stateMutability": "nonpayable",
					"type": "function"
				}
			],
			"devdoc": {
				"kind": "dev",
				"methods": {},
				"version": 1
			},
			"evm": {
				"assembly": "    /* \"mediHack/PacientRegistry.sol\":63:1269  contract PatientRegistry {... */\n  mstore(0x40, 0x80)\n  callvalue\n  dup1\n  iszero\n  tag_1\n  jumpi\n  0x00\n  dup1\n  revert\ntag_1:\n  pop\n  dataSize(sub_0)\n  dup1\n  dataOffset(sub_0)\n  0x00\n  codecopy\n  0x00\n  return\nstop\n\nsub_0: assembly {\n        /* \"mediHack/PacientRegistry.sol\":63:1269  contract PatientRegistry {... */\n      mstore(0x40, 0x80)\n      callvalue\n      dup1\n      iszero\n      tag_1\n      jumpi\n      0x00\n      dup1\n      revert\n    tag_1:\n      pop\n      jumpi(tag_2, lt(calldatasize, 0x04))\n      shr(0xe0, calldataload(0x00))\n      dup1\n      0x0869cfbc\n      eq\n      tag_3\n      jumpi\n      dup1\n      0x18a231a9\n      eq\n      tag_4\n      jumpi\n      dup1\n      0x4b426178\n      eq\n      tag_5\n      jumpi\n      dup1\n      0x4ba0a020\n      eq\n      tag_6\n      jumpi\n      dup1\n      0xbabb1d41\n      eq\n      tag_7\n      jumpi\n    tag_2:\n      0x00\n      dup1\n      revert\n        /* \"mediHack/PacientRegistry.sol\":277:320  mapping(address => Patient) public patients */\n    tag_3:\n      tag_8\n      0x04\n      dup1\n      calldatasize\n      sub\n      dup2\n      add\n      swap1\n      tag_9\n      swap2\n      swap1\n      tag_10\n      jump\t// in\n    tag_9:\n      tag_11\n      jump\t// in\n    tag_8:\n      mload(0x40)\n      tag_12\n      swap7\n      swap6\n      swap5\n      swap4\n      swap3\n      swap2\n      swap1\n      tag_13\n      jump\t// in\n    tag_12:\n      mload(0x40)\n      dup1\n      swap2\n      sub\n      swap1\n      return\n        /* \"mediHack/PacientRegistry.sol\":896:996  function getAllPatients() public view returns (address[] memory) {... */\n    tag_4:\n      tag_14\n      tag_15\n      jump\t// in\n    tag_14:\n      mload(0x40)\n      tag_16\n      swap2\n      swap1\n      tag_17\n      jump\t// in\n    tag_16:\n      mload(0x40)\n      dup1\n      swap2\n      sub\n      swap1\n      return\n        /* \"mediHack/PacientRegistry.sol\":1002:1267  function getPatientInfo(address patient) public view returns (string memory, string memory, string memory, string memory, address) {... */\n    tag_5:\n      tag_18\n      0x04\n      dup1\n      calldatasize\n      sub\n      dup2\n      add\n      swap1\n      tag_19\n      swap2\n      swap1\n      tag_10\n      jump\t// in\n    tag_19:\n      tag_20\n      jump\t// in\n    tag_18:\n      mload(0x40)\n      tag_21\n      swap6\n      swap5\n      swap4\n      swap3\n      swap2\n      swap1\n      tag_22\n      jump\t// in\n    tag_21:\n      mload(0x40)\n      dup1\n      swap2\n      sub\n      swap1\n      return\n        /* \"mediHack/PacientRegistry.sol\":436:890  function registerPatient(... */\n    tag_6:\n      tag_23\n      0x04\n      dup1\n      calldatasize\n      sub\n      dup2\n      add\n      swap1\n      tag_24\n      swap2\n      swap1\n      tag_25\n      jump\t// in\n    tag_24:\n      tag_26\n      jump\t// in\n    tag_23:\n      stop\n        /* \"mediHack/PacientRegistry.sol\":326:354  address[] public patientList */\n    tag_7:\n      tag_27\n      0x04\n      dup1\n      calldatasize\n      sub\n      dup2\n      add\n      swap1\n      tag_28\n      swap2\n      swap1\n      tag_29\n      jump\t// in\n    tag_28:\n      tag_30\n      jump\t// in\n    tag_27:\n      mload(0x40)\n      tag_31\n      swap2\n      swap1\n      tag_32\n      jump\t// in\n    tag_31:\n      mload(0x40)\n      dup1\n      swap2\n      sub\n      swap1\n      return\n        /* \"mediHack/PacientRegistry.sol\":277:320  mapping(address => Patient) public patients */\n    tag_11:\n      mstore(0x20, 0x00)\n      dup1\n      0x00\n      mstore\n      keccak256(0x00, 0x40)\n      0x00\n      swap2\n      pop\n      swap1\n      pop\n      dup1\n      0x00\n      add\n      dup1\n      sload\n      tag_33\n      swap1\n      tag_34\n      jump\t// in\n    tag_33:\n      dup1\n      0x1f\n      add\n      0x20\n      dup1\n      swap2\n      div\n      mul\n      0x20\n      add\n      mload(0x40)\n      swap1\n      dup2\n      add\n      0x40\n      mstore\n      dup1\n      swap3\n      swap2\n      swap1\n      dup2\n      dup2\n      mstore\n      0x20\n      add\n      dup3\n      dup1\n      sload\n      tag_35\n      swap1\n      tag_34\n      jump\t// in\n    tag_35:\n      dup1\n      iszero\n      tag_36\n      jumpi\n      dup1\n      0x1f\n      lt\n      tag_37\n      jumpi\n      0x0100\n      dup1\n      dup4\n      sload\n      div\n      mul\n      dup4\n      mstore\n      swap2\n      0x20\n      add\n      swap2\n      jump(tag_36)\n    tag_37:\n      dup3\n      add\n      swap2\n      swap1\n      0x00\n      mstore\n      keccak256(0x00, 0x20)\n      swap1\n    tag_38:\n      dup2\n      sload\n      dup2\n      mstore\n      swap1\n      0x01\n      add\n      swap1\n      0x20\n      add\n      dup1\n      dup4\n      gt\n      tag_38\n      jumpi\n      dup3\n      swap1\n      sub\n      0x1f\n      and\n      dup3\n      add\n      swap2\n    tag_36:\n      pop\n      pop\n      pop\n      pop\n      pop\n      swap1\n      dup1\n      0x01\n      add\n      dup1\n      sload\n      tag_39\n      swap1\n      tag_34\n      jump\t// in\n    tag_39:\n      dup1\n      0x1f\n      add\n      0x20\n      dup1\n      swap2\n      div\n      mul\n      0x20\n      add\n      mload(0x40)\n      swap1\n      dup2\n      add\n      0x40\n      mstore\n      dup1\n      swap3\n      swap2\n      swap1\n      dup2\n      dup2\n      mstore\n      0x20\n      add\n      dup3\n      dup1\n      sload\n      tag_40\n      swap1\n      tag_34\n      jump\t// in\n    tag_40:\n      dup1\n      iszero\n      tag_41\n      jumpi\n      dup1\n      0x1f\n      lt\n      tag_42\n      jumpi\n      0x0100\n      dup1\n      dup4\n      sload\n      div\n      mul\n      dup4\n      mstore\n      swap2\n      0x20\n      add\n      swap2\n      jump(tag_41)\n    tag_42:\n      dup3\n      add\n      swap2\n      swap1\n      0x00\n      mstore\n      keccak256(0x00, 0x20)\n      swap1\n    tag_43:\n      dup2\n      sload\n      dup2\n      mstore\n      swap1\n      0x01\n      add\n      swap1\n      0x20\n      add\n      dup1\n      dup4\n      gt\n      tag_43\n      jumpi\n      dup3\n      swap1\n      sub\n      0x1f\n      and\n      dup3\n      add\n      swap2\n    tag_41:\n      pop\n      pop\n      pop\n      pop\n      pop\n      swap1\n      dup1\n      0x02\n      add\n      dup1\n      sload\n      tag_44\n      swap1\n      tag_34\n      jump\t// in\n    tag_44:\n      dup1\n      0x1f\n      add\n      0x20\n      dup1\n      swap2\n      div\n      mul\n      0x20\n      add\n      mload(0x40)\n      swap1\n      dup2\n      add\n      0x40\n      mstore\n      dup1\n      swap3\n      swap2\n      swap1\n      dup2\n      dup2\n      mstore\n      0x20\n      add\n      dup3\n      dup1\n      sload\n      tag_45\n      swap1\n      tag_34\n      jump\t// in\n    tag_45:\n      dup1\n      iszero\n      tag_46\n      jumpi\n      dup1\n      0x1f\n      lt\n      tag_47\n      jumpi\n      0x0100\n      dup1\n      dup4\n      sload\n      div\n      mul\n      dup4\n      mstore\n      swap2\n      0x20\n      add\n      swap2\n      jump(tag_46)\n    tag_47:\n      dup3\n      add\n      swap2\n      swap1\n      0x00\n      mstore\n      keccak256(0x00, 0x20)\n      swap1\n    tag_48:\n      dup2\n      sload\n      dup2\n      mstore\n      swap1\n      0x01\n      add\n      swap1\n      0x20\n      add\n      dup1\n      dup4\n      gt\n      tag_48\n      jumpi\n      dup3\n      swap1\n      sub\n      0x1f\n      and\n      dup3\n      add\n      swap2\n    tag_46:\n      pop\n      pop\n      pop\n      pop\n      pop\n      swap1\n      dup1\n      0x03\n      add\n      dup1\n      sload\n      tag_49\n      swap1\n      tag_34\n      jump\t// in\n    tag_49:\n      dup1\n      0x1f\n      add\n      0x20\n      dup1\n      swap2\n      div\n      mul\n      0x20\n      add\n      mload(0x40)\n      swap1\n      dup2\n      add\n      0x40\n      mstore\n      dup1\n      swap3\n      swap2\n      swap1\n      dup2\n      dup2\n      mstore\n      0x20\n      add\n      dup3\n      dup1\n      sload\n      tag_50\n      swap1\n      tag_34\n      jump\t// in\n    tag_50:\n      dup1\n      iszero\n      tag_51\n      jumpi\n      dup1\n      0x1f\n      lt\n      tag_52\n      jumpi\n      0x0100\n      dup1\n      dup4\n      sload\n      div\n      mul\n      dup4\n      mstore\n      swap2\n      0x20\n      add\n      swap2\n      jump(tag_51)\n    tag_52:\n      dup3\n      add\n      swap2\n      swap1\n      0x00\n      mstore\n      keccak256(0x00, 0x20)\n      swap1\n    tag_53:\n      dup2\n      sload\n      dup2\n      mstore\n      swap1\n      0x01\n      add\n      swap1\n      0x20\n      add\n      dup1\n      dup4\n      gt\n      tag_53\n      jumpi\n      dup3\n      swap1\n      sub\n      0x1f\n      and\n      dup3\n      add\n      swap2\n    tag_51:\n      pop\n      pop\n      pop\n      pop\n      pop\n      swap1\n      dup1\n      0x04\n      add\n      0x00\n      swap1\n      sload\n      swap1\n      0x0100\n      exp\n      swap1\n      div\n      0xffffffffffffffffffffffffffffffffffffffff\n      and\n      swap1\n      dup1\n      0x04\n      add\n      0x14\n      swap1\n      sload\n      swap1\n      0x0100\n      exp\n      swap1\n      div\n      0xff\n      and\n      swap1\n      pop\n      dup7\n      jump\t// out\n        /* \"mediHack/PacientRegistry.sol\":896:996  function getAllPatients() public view returns (address[] memory) {... */\n    tag_15:\n        /* \"mediHack/PacientRegistry.sol\":943:959  address[] memory */\n      0x60\n        /* \"mediHack/PacientRegistry.sol\":978:989  patientList */\n      0x01\n        /* \"mediHack/PacientRegistry.sol\":971:989  return patientList */\n      dup1\n      sload\n      dup1\n      0x20\n      mul\n      0x20\n      add\n      mload(0x40)\n      swap1\n      dup2\n      add\n      0x40\n      mstore\n      dup1\n      swap3\n      swap2\n      swap1\n      dup2\n      dup2\n      mstore\n      0x20\n      add\n      dup3\n      dup1\n      sload\n      dup1\n      iszero\n      tag_55\n      jumpi\n      0x20\n      mul\n      dup3\n      add\n      swap2\n      swap1\n      0x00\n      mstore\n      keccak256(0x00, 0x20)\n      swap1\n    tag_56:\n      dup2\n      0x00\n      swap1\n      sload\n      swap1\n      0x0100\n      exp\n      swap1\n      div\n      0xffffffffffffffffffffffffffffffffffffffff\n      and\n      0xffffffffffffffffffffffffffffffffffffffff\n      and\n      dup2\n      mstore\n      0x20\n      add\n      swap1\n      0x01\n      add\n      swap1\n      dup1\n      dup4\n      gt\n      tag_56\n      jumpi\n    tag_55:\n      pop\n      pop\n      pop\n      pop\n      pop\n      swap1\n      pop\n        /* \"mediHack/PacientRegistry.sol\":896:996  function getAllPatients() public view returns (address[] memory) {... */\n      swap1\n      jump\t// out\n        /* \"mediHack/PacientRegistry.sol\":1002:1267  function getPatientInfo(address patient) public view returns (string memory, string memory, string memory, string memory, address) {... */\n    tag_20:\n        /* \"mediHack/PacientRegistry.sol\":1064:1077  string memory */\n      0x60\n        /* \"mediHack/PacientRegistry.sol\":1079:1092  string memory */\n      dup1\n        /* \"mediHack/PacientRegistry.sol\":1094:1107  string memory */\n      0x60\n        /* \"mediHack/PacientRegistry.sol\":1109:1122  string memory */\n      dup1\n        /* \"mediHack/PacientRegistry.sol\":1124:1131  address */\n      0x00\n        /* \"mediHack/PacientRegistry.sol\":1143:1159  Patient memory p */\n      dup1\n        /* \"mediHack/PacientRegistry.sol\":1162:1170  patients */\n      0x00\n        /* \"mediHack/PacientRegistry.sol\":1162:1179  patients[patient] */\n      dup1\n        /* \"mediHack/PacientRegistry.sol\":1171:1178  patient */\n      dup9\n        /* \"mediHack/PacientRegistry.sol\":1162:1179  patients[patient] */\n      0xffffffffffffffffffffffffffffffffffffffff\n      and\n      0xffffffffffffffffffffffffffffffffffffffff\n      and\n      dup2\n      mstore\n      0x20\n      add\n      swap1\n      dup2\n      mstore\n      0x20\n      add\n      0x00\n      keccak256\n        /* \"mediHack/PacientRegistry.sol\":1143:1179  Patient memory p = patients[patient] */\n      mload(0x40)\n      dup1\n      0xc0\n      add\n      0x40\n      mstore\n      swap1\n      dup2\n      0x00\n      dup3\n      add\n      dup1\n      sload\n      tag_58\n      swap1\n      tag_34\n      jump\t// in\n    tag_58:\n      dup1\n      0x1f\n      add\n      0x20\n      dup1\n      swap2\n      div\n      mul\n      0x20\n      add\n      mload(0x40)\n      swap1\n      dup2\n      add\n      0x40\n      mstore\n      dup1\n      swap3\n      swap2\n      swap1\n      dup2\n      dup2\n      mstore\n      0x20\n      add\n      dup3\n      dup1\n      sload\n      tag_59\n      swap1\n      tag_34\n      jump\t// in\n    tag_59:\n      dup1\n      iszero\n      tag_60\n      jumpi\n      dup1\n      0x1f\n      lt\n      tag_61\n      jumpi\n      0x0100\n      dup1\n      dup4\n      sload\n      div\n      mul\n      dup4\n      mstore\n      swap2\n      0x20\n      add\n      swap2\n      jump(tag_60)\n    tag_61:\n      dup3\n      add\n      swap2\n      swap1\n      0x00\n      mstore\n      keccak256(0x00, 0x20)\n      swap1\n    tag_62:\n      dup2\n      sload\n      dup2\n      mstore\n      swap1\n      0x01\n      add\n      swap1\n      0x20\n      add\n      dup1\n      dup4\n      gt\n      tag_62\n      jumpi\n      dup3\n      swap1\n      sub\n      0x1f\n      and\n      dup3\n      add\n      swap2\n    tag_60:\n      pop\n      pop\n      pop\n      pop\n      pop\n      dup2\n      mstore\n      0x20\n      add\n      0x01\n      dup3\n      add\n      dup1\n      sload\n      tag_63\n      swap1\n      tag_34\n      jump\t// in\n    tag_63:\n      dup1\n      0x1f\n      add\n      0x20\n      dup1\n      swap2\n      div\n      mul\n      0x20\n      add\n      mload(0x40)\n      swap1\n      dup2\n      add\n      0x40\n      mstore\n      dup1\n      swap3\n      swap2\n      swap1\n      dup2\n      dup2\n      mstore\n      0x20\n      add\n      dup3\n      dup1\n      sload\n      tag_64\n      swap1\n      tag_34\n      jump\t// in\n    tag_64:\n      dup1\n      iszero\n      tag_65\n      jumpi\n      dup1\n      0x1f\n      lt\n      tag_66\n      jumpi\n      0x0100\n      dup1\n      dup4\n      sload\n      div\n      mul\n      dup4\n      mstore\n      swap2\n      0x20\n      add\n      swap2\n      jump(tag_65)\n    tag_66:\n      dup3\n      add\n      swap2\n      swap1\n      0x00\n      mstore\n      keccak256(0x00, 0x20)\n      swap1\n    tag_67:\n      dup2\n      sload\n      dup2\n      mstore\n      swap1\n      0x01\n      add\n      swap1\n      0x20\n      add\n      dup1\n      dup4\n      gt\n      tag_67\n      jumpi\n      dup3\n      swap1\n      sub\n      0x1f\n      and\n      dup3\n      add\n      swap2\n    tag_65:\n      pop\n      pop\n      pop\n      pop\n      pop\n      dup2\n      mstore\n      0x20\n      add\n      0x02\n      dup3\n      add\n      dup1\n      sload\n      tag_68\n      swap1\n      tag_34\n      jump\t// in\n    tag_68:\n      dup1\n      0x1f\n      add\n      0x20\n      dup1\n      swap2\n      div\n      mul\n      0x20\n      add\n      mload(0x40)\n      swap1\n      dup2\n      add\n      0x40\n      mstore\n      dup1\n      swap3\n      swap2\n      swap1\n      dup2\n      dup2\n      mstore\n      0x20\n      add\n      dup3\n      dup1\n      sload\n      tag_69\n      swap1\n      tag_34\n      jump\t// in\n    tag_69:\n      dup1\n      iszero\n      tag_70\n      jumpi\n      dup1\n      0x1f\n      lt\n      tag_71\n      jumpi\n      0x0100\n      dup1\n      dup4\n      sload\n      div\n      mul\n      dup4\n      mstore\n      swap2\n      0x20\n      add\n      swap2\n      jump(tag_70)\n    tag_71:\n      dup3\n      add\n      swap2\n      swap1\n      0x00\n      mstore\n      keccak256(0x00, 0x20)\n      swap1\n    tag_72:\n      dup2\n      sload\n      dup2\n      mstore\n      swap1\n      0x01\n      add\n      swap1\n      0x20\n      add\n      dup1\n      dup4\n      gt\n      tag_72\n      jumpi\n      dup3\n      swap1\n      sub\n      0x1f\n      and\n      dup3\n      add\n      swap2\n    tag_70:\n      pop\n      pop\n      pop\n      pop\n      pop\n      dup2\n      mstore\n      0x20\n      add\n      0x03\n      dup3\n      add\n      dup1\n      sload\n      tag_73\n      swap1\n      tag_34\n      jump\t// in\n    tag_73:\n      dup1\n      0x1f\n      add\n      0x20\n      dup1\n      swap2\n      div\n      mul\n      0x20\n      add\n      mload(0x40)\n      swap1\n      dup2\n      add\n      0x40\n      mstore\n      dup1\n      swap3\n      swap2\n      swap1\n      dup2\n      dup2\n      mstore\n      0x20\n      add\n      dup3\n      dup1\n      sload\n      tag_74\n      swap1\n      tag_34\n      jump\t// in\n    tag_74:\n      dup1\n      iszero\n      tag_75\n      jumpi\n      dup1\n      0x1f\n      lt\n      tag_76\n      jumpi\n      0x0100\n      dup1\n      dup4\n      sload\n      div\n      mul\n      dup4\n      mstore\n      swap2\n      0x20\n      add\n      swap2\n      jump(tag_75)\n    tag_76:\n      dup3\n      add\n      swap2\n      swap1\n      0x00\n      mstore\n      keccak256(0x00, 0x20)\n      swap1\n    tag_77:\n      dup2\n      sload\n      dup2\n      mstore\n      swap1\n      0x01\n      add\n      swap1\n      0x20\n      add\n      dup1\n      dup4\n      gt\n      tag_77\n      jumpi\n      dup3\n      swap1\n      sub\n      0x1f\n      and\n      dup3\n      add\n      swap2\n    tag_75:\n      pop\n      pop\n      pop\n      pop\n      pop\n      dup2\n      mstore\n      0x20\n      add\n      0x04\n      dup3\n      add\n      0x00\n      swap1\n      sload\n      swap1\n      0x0100\n      exp\n      swap1\n      div\n      0xffffffffffffffffffffffffffffffffffffffff\n      and\n      0xffffffffffffffffffffffffffffffffffffffff\n      and\n      0xffffffffffffffffffffffffffffffffffffffff\n      and\n      dup2\n      mstore\n      0x20\n      add\n      0x04\n      dup3\n      add\n      0x14\n      swap1\n      sload\n      swap1\n      0x0100\n      exp\n      swap1\n      div\n      0xff\n      and\n      iszero\n      iszero\n      iszero\n      iszero\n      dup2\n      mstore\n      pop\n      pop\n      swap1\n      pop\n        /* \"mediHack/PacientRegistry.sol\":1197:1198  p */\n      dup1\n        /* \"mediHack/PacientRegistry.sol\":1197:1203  p.name */\n      0x00\n      add\n      mload\n        /* \"mediHack/PacientRegistry.sol\":1205:1206  p */\n      dup2\n        /* \"mediHack/PacientRegistry.sol\":1205:1213  p.gender */\n      0x20\n      add\n      mload\n        /* \"mediHack/PacientRegistry.sol\":1215:1216  p */\n      dup3\n        /* \"mediHack/PacientRegistry.sol\":1215:1226  p.bloodType */\n      0x40\n      add\n      mload\n        /* \"mediHack/PacientRegistry.sol\":1228:1229  p */\n      dup4\n        /* \"mediHack/PacientRegistry.sol\":1228:1241  p.neededOrgan */\n      0x60\n      add\n      mload\n        /* \"mediHack/PacientRegistry.sol\":1243:1244  p */\n      dup5\n        /* \"mediHack/PacientRegistry.sol\":1243:1259  p.patientAddress */\n      0x80\n      add\n      mload\n        /* \"mediHack/PacientRegistry.sol\":1189:1260  return (p.name, p.gender, p.bloodType, p.neededOrgan, p.patientAddress) */\n      swap6\n      pop\n      swap6\n      pop\n      swap6\n      pop\n      swap6\n      pop\n      swap6\n      pop\n      pop\n        /* \"mediHack/PacientRegistry.sol\":1002:1267  function getPatientInfo(address patient) public view returns (string memory, string memory, string memory, string memory, address) {... */\n      swap2\n      swap4\n      swap6\n      swap1\n      swap3\n      swap5\n      pop\n      jump\t// out\n        /* \"mediHack/PacientRegistry.sol\":436:890  function registerPatient(... */\n    tag_26:\n        /* \"mediHack/PacientRegistry.sol\":623:631  patients */\n      0x00\n        /* \"mediHack/PacientRegistry.sol\":623:643  patients[msg.sender] */\n      dup1\n        /* \"mediHack/PacientRegistry.sol\":632:642  msg.sender */\n      caller\n        /* \"mediHack/PacientRegistry.sol\":623:643  patients[msg.sender] */\n      0xffffffffffffffffffffffffffffffffffffffff\n      and\n      0xffffffffffffffffffffffffffffffffffffffff\n      and\n      dup2\n      mstore\n      0x20\n      add\n      swap1\n      dup2\n      mstore\n      0x20\n      add\n      0x00\n      keccak256\n        /* \"mediHack/PacientRegistry.sol\":623:654  patients[msg.sender].registered */\n      0x04\n      add\n      0x14\n      swap1\n      sload\n      swap1\n      0x0100\n      exp\n      swap1\n      div\n      0xff\n      and\n        /* \"mediHack/PacientRegistry.sol\":622:654  !patients[msg.sender].registered */\n      iszero\n        /* \"mediHack/PacientRegistry.sol\":614:685  require(!patients[msg.sender].registered, \"You are already registered\") */\n      tag_79\n      jumpi\n      mload(0x40)\n      0x08c379a000000000000000000000000000000000000000000000000000000000\n      dup2\n      mstore\n      0x04\n      add\n      tag_80\n      swap1\n      tag_81\n      jump\t// in\n    tag_80:\n      mload(0x40)\n      dup1\n      swap2\n      sub\n      swap1\n      revert\n    tag_79:\n        /* \"mediHack/PacientRegistry.sol\":719:786  Patient(_name, _gender, _bloodType, _neededOrgan, msg.sender, true) */\n      mload(0x40)\n      dup1\n      0xc0\n      add\n      0x40\n      mstore\n      dup1\n        /* \"mediHack/PacientRegistry.sol\":727:732  _name */\n      dup6\n        /* \"mediHack/PacientRegistry.sol\":719:786  Patient(_name, _gender, _bloodType, _neededOrgan, msg.sender, true) */\n      dup2\n      mstore\n      0x20\n      add\n        /* \"mediHack/PacientRegistry.sol\":734:741  _gender */\n      dup5\n        /* \"mediHack/PacientRegistry.sol\":719:786  Patient(_name, _gender, _bloodType, _neededOrgan, msg.sender, true) */\n      dup2\n      mstore\n      0x20\n      add\n        /* \"mediHack/PacientRegistry.sol\":743:753  _bloodType */\n      dup4\n        /* \"mediHack/PacientRegistry.sol\":719:786  Patient(_name, _gender, _bloodType, _neededOrgan, msg.sender, true) */\n      dup2\n      mstore\n      0x20\n      add\n        /* \"mediHack/PacientRegistry.sol\":755:767  _neededOrgan */\n      dup3\n        /* \"mediHack/PacientRegistry.sol\":719:786  Patient(_name, _gender, _bloodType, _neededOrgan, msg.sender, true) */\n      dup2\n      mstore\n      0x20\n      add\n        /* \"mediHack/PacientRegistry.sol\":769:779  msg.sender */\n      caller\n        /* \"mediHack/PacientRegistry.sol\":719:786  Patient(_name, _gender, _bloodType, _neededOrgan, msg.sender, true) */\n      0xffffffffffffffffffffffffffffffffffffffff\n      and\n      dup2\n      mstore\n      0x20\n      add\n        /* \"mediHack/PacientRegistry.sol\":781:785  true */\n      0x01\n        /* \"mediHack/PacientRegistry.sol\":719:786  Patient(_name, _gender, _bloodType, _neededOrgan, msg.sender, true) */\n      iszero\n      iszero\n      dup2\n      mstore\n      pop\n        /* \"mediHack/PacientRegistry.sol\":696:704  patients */\n      0x00\n        /* \"mediHack/PacientRegistry.sol\":696:716  patients[msg.sender] */\n      dup1\n        /* \"mediHack/PacientRegistry.sol\":705:715  msg.sender */\n      caller\n        /* \"mediHack/PacientRegistry.sol\":696:716  patients[msg.sender] */\n      0xffffffffffffffffffffffffffffffffffffffff\n      and\n      0xffffffffffffffffffffffffffffffffffffffff\n      and\n      dup2\n      mstore\n      0x20\n      add\n      swap1\n      dup2\n      mstore\n      0x20\n      add\n      0x00\n      keccak256\n        /* \"mediHack/PacientRegistry.sol\":696:786  patients[msg.sender] = Patient(_name, _gender, _bloodType, _neededOrgan, msg.sender, true) */\n      0x00\n      dup3\n      add\n      mload\n      dup2\n      0x00\n      add\n      swap1\n      dup2\n      tag_82\n      swap2\n      swap1\n      tag_83\n      jump\t// in\n    tag_82:\n      pop\n      0x20\n      dup3\n      add\n      mload\n      dup2\n      0x01\n      add\n      swap1\n      dup2\n      tag_84\n      swap2\n      swap1\n      tag_83\n      jump\t// in\n    tag_84:\n      pop\n      0x40\n      dup3\n      add\n      mload\n      dup2\n      0x02\n      add\n      swap1\n      dup2\n      tag_85\n      swap2\n      swap1\n      tag_83\n      jump\t// in\n    tag_85:\n      pop\n      0x60\n      dup3\n      add\n      mload\n      dup2\n      0x03\n      add\n      swap1\n      dup2\n      tag_86\n      swap2\n      swap1\n      tag_83\n      jump\t// in\n    tag_86:\n      pop\n      0x80\n      dup3\n      add\n      mload\n      dup2\n      0x04\n      add\n      exp(0x0100, 0x00)\n      dup2\n      sload\n      dup2\n      0xffffffffffffffffffffffffffffffffffffffff\n      mul\n      not\n      and\n      swap1\n      dup4\n      0xffffffffffffffffffffffffffffffffffffffff\n      and\n      mul\n      or\n      swap1\n      sstore\n      pop\n      0xa0\n      dup3\n      add\n      mload\n      dup2\n      0x04\n      add\n      exp(0x0100, 0x14)\n      dup2\n      sload\n      dup2\n      0xff\n      mul\n      not\n      and\n      swap1\n      dup4\n      iszero\n      iszero\n      mul\n      or\n      swap1\n      sstore\n      pop\n      swap1\n      pop\n      pop\n        /* \"mediHack/PacientRegistry.sol\":796:807  patientList */\n      0x01\n        /* \"mediHack/PacientRegistry.sol\":813:823  msg.sender */\n      caller\n        /* \"mediHack/PacientRegistry.sol\":796:824  patientList.push(msg.sender) */\n      swap1\n      dup1\n      0x01\n      dup2\n      sload\n      add\n      dup1\n      dup3\n      sstore\n      dup1\n      swap2\n      pop\n      pop\n      0x01\n      swap1\n      sub\n      swap1\n      0x00\n      mstore\n      keccak256(0x00, 0x20)\n      add\n      0x00\n      swap1\n      swap2\n      swap1\n      swap2\n      swap1\n      swap2\n      0x0100\n      exp\n      dup2\n      sload\n      dup2\n      0xffffffffffffffffffffffffffffffffffffffff\n      mul\n      not\n      and\n      swap1\n      dup4\n      0xffffffffffffffffffffffffffffffffffffffff\n      and\n      mul\n      or\n      swap1\n      sstore\n      pop\n        /* \"mediHack/PacientRegistry.sol\":858:868  msg.sender */\n      caller\n        /* \"mediHack/PacientRegistry.sol\":840:883  PatientRegistered(msg.sender, _neededOrgan) */\n      0xffffffffffffffffffffffffffffffffffffffff\n      and\n      0xc85b128388b9c331a2a5485dce4cd0f3db9f7c279d327ce95d6d39d6c94644c7\n        /* \"mediHack/PacientRegistry.sol\":870:882  _neededOrgan */\n      dup3\n        /* \"mediHack/PacientRegistry.sol\":840:883  PatientRegistered(msg.sender, _neededOrgan) */\n      mload(0x40)\n      tag_88\n      swap2\n      swap1\n      tag_89\n      jump\t// in\n    tag_88:\n      mload(0x40)\n      dup1\n      swap2\n      sub\n      swap1\n      log2\n        /* \"mediHack/PacientRegistry.sol\":436:890  function registerPatient(... */\n      pop\n      pop\n      pop\n      pop\n      jump\t// out\n        /* \"mediHack/PacientRegistry.sol\":326:354  address[] public patientList */\n    tag_30:\n      0x01\n      dup2\n      dup2\n      sload\n      dup2\n      lt\n      tag_90\n      jumpi\n      0x00\n      dup1\n      revert\n    tag_90:\n      swap1\n      0x00\n      mstore\n      keccak256(0x00, 0x20)\n      add\n      0x00\n      swap2\n      pop\n      sload\n      swap1\n      0x0100\n      exp\n      swap1\n      div\n      0xffffffffffffffffffffffffffffffffffffffff\n      and\n      dup2\n      jump\t// out\n        /* \"#utility.yul\":7:82   */\n    tag_92:\n        /* \"#utility.yul\":40:46   */\n      0x00\n        /* \"#utility.yul\":73:75   */\n      0x40\n        /* \"#utility.yul\":67:76   */\n      mload\n        /* \"#utility.yul\":57:76   */\n      swap1\n      pop\n        /* \"#utility.yul\":7:82   */\n      swap1\n      jump\t// out\n        /* \"#utility.yul\":88:205   */\n    tag_93:\n        /* \"#utility.yul\":197:198   */\n      0x00\n        /* \"#utility.yul\":194:195   */\n      dup1\n        /* \"#utility.yul\":187:199   */\n      revert\n        /* \"#utility.yul\":211:328   */\n    tag_94:\n        /* \"#utility.yul\":320:321   */\n      0x00\n        /* \"#utility.yul\":317:318   */\n      dup1\n        /* \"#utility.yul\":310:322   */\n      revert\n        /* \"#utility.yul\":334:460   */\n    tag_95:\n        /* \"#utility.yul\":371:378   */\n      0x00\n        /* \"#utility.yul\":411:453   */\n      0xffffffffffffffffffffffffffffffffffffffff\n        /* \"#utility.yul\":404:409   */\n      dup3\n        /* \"#utility.yul\":400:454   */\n      and\n        /* \"#utility.yul\":389:454   */\n      swap1\n      pop\n        /* \"#utility.yul\":334:460   */\n      swap2\n      swap1\n      pop\n      jump\t// out\n        /* \"#utility.yul\":466:562   */\n    tag_96:\n        /* \"#utility.yul\":503:510   */\n      0x00\n        /* \"#utility.yul\":532:556   */\n      tag_150\n        /* \"#utility.yul\":550:555   */\n      dup3\n        /* \"#utility.yul\":532:556   */\n      tag_95\n      jump\t// in\n    tag_150:\n        /* \"#utility.yul\":521:556   */\n      swap1\n      pop\n        /* \"#utility.yul\":466:562   */\n      swap2\n      swap1\n      pop\n      jump\t// out\n        /* \"#utility.yul\":568:690   */\n    tag_97:\n        /* \"#utility.yul\":641:665   */\n      tag_152\n        /* \"#utility.yul\":659:664   */\n      dup2\n        /* \"#utility.yul\":641:665   */\n      tag_96\n      jump\t// in\n    tag_152:\n        /* \"#utility.yul\":634:639   */\n      dup2\n        /* \"#utility.yul\":631:666   */\n      eq\n        /* \"#utility.yul\":621:684   */\n      tag_153\n      jumpi\n        /* \"#utility.yul\":680:681   */\n      0x00\n        /* \"#utility.yul\":677:678   */\n      dup1\n        /* \"#utility.yul\":670:682   */\n      revert\n        /* \"#utility.yul\":621:684   */\n    tag_153:\n        /* \"#utility.yul\":568:690   */\n      pop\n      jump\t// out\n        /* \"#utility.yul\":696:835   */\n    tag_98:\n        /* \"#utility.yul\":742:747   */\n      0x00\n        /* \"#utility.yul\":780:786   */\n      dup2\n        /* \"#utility.yul\":767:787   */\n      calldataload\n        /* \"#utility.yul\":758:787   */\n      swap1\n      pop\n        /* \"#utility.yul\":796:829   */\n      tag_155\n        /* \"#utility.yul\":823:828   */\n      dup2\n        /* \"#utility.yul\":796:829   */\n      tag_97\n      jump\t// in\n    tag_155:\n        /* \"#utility.yul\":696:835   */\n      swap3\n      swap2\n      pop\n      pop\n      jump\t// out\n        /* \"#utility.yul\":841:1170   */\n    tag_10:\n        /* \"#utility.yul\":900:906   */\n      0x00\n        /* \"#utility.yul\":949:951   */\n      0x20\n        /* \"#utility.yul\":937:946   */\n      dup3\n        /* \"#utility.yul\":928:935   */\n      dup5\n        /* \"#utility.yul\":924:947   */\n      sub\n        /* \"#utility.yul\":920:952   */\n      slt\n        /* \"#utility.yul\":917:1036   */\n      iszero\n      tag_157\n      jumpi\n        /* \"#utility.yul\":955:1034   */\n      tag_158\n      tag_93\n      jump\t// in\n    tag_158:\n        /* \"#utility.yul\":917:1036   */\n    tag_157:\n        /* \"#utility.yul\":1075:1076   */\n      0x00\n        /* \"#utility.yul\":1100:1153   */\n      tag_159\n        /* \"#utility.yul\":1145:1152   */\n      dup5\n        /* \"#utility.yul\":1136:1142   */\n      dup3\n        /* \"#utility.yul\":1125:1134   */\n      dup6\n        /* \"#utility.yul\":1121:1143   */\n      add\n        /* \"#utility.yul\":1100:1153   */\n      tag_98\n      jump\t// in\n    tag_159:\n        /* \"#utility.yul\":1090:1153   */\n      swap2\n      pop\n        /* \"#utility.yul\":1046:1163   */\n      pop\n        /* \"#utility.yul\":841:1170   */\n      swap3\n      swap2\n      pop\n      pop\n      jump\t// out\n        /* \"#utility.yul\":1176:1275   */\n    tag_99:\n        /* \"#utility.yul\":1228:1234   */\n      0x00\n        /* \"#utility.yul\":1262:1267   */\n      dup2\n        /* \"#utility.yul\":1256:1268   */\n      mload\n        /* \"#utility.yul\":1246:1268   */\n      swap1\n      pop\n        /* \"#utility.yul\":1176:1275   */\n      swap2\n      swap1\n      pop\n      jump\t// out\n        /* \"#utility.yul\":1281:1450   */\n    tag_100:\n        /* \"#utility.yul\":1365:1376   */\n      0x00\n        /* \"#utility.yul\":1399:1405   */\n      dup3\n        /* \"#utility.yul\":1394:1397   */\n      dup3\n        /* \"#utility.yul\":1387:1406   */\n      mstore\n        /* \"#utility.yul\":1439:1443   */\n      0x20\n        /* \"#utility.yul\":1434:1437   */\n      dup3\n        /* \"#utility.yul\":1430:1444   */\n      add\n        /* \"#utility.yul\":1415:1444   */\n      swap1\n      pop\n        /* \"#utility.yul\":1281:1450   */\n      swap3\n      swap2\n      pop\n      pop\n      jump\t// out\n        /* \"#utility.yul\":1456:1595   */\n    tag_101:\n        /* \"#utility.yul\":1545:1551   */\n      dup3\n        /* \"#utility.yul\":1540:1543   */\n      dup2\n        /* \"#utility.yul\":1535:1538   */\n      dup4\n        /* \"#utility.yul\":1529:1552   */\n      mcopy\n        /* \"#utility.yul\":1586:1587   */\n      0x00\n        /* \"#utility.yul\":1577:1583   */\n      dup4\n        /* \"#utility.yul\":1572:1575   */\n      dup4\n        /* \"#utility.yul\":1568:1584   */\n      add\n        /* \"#utility.yul\":1561:1588   */\n      mstore\n        /* \"#utility.yul\":1456:1595   */\n      pop\n      pop\n      pop\n      jump\t// out\n        /* \"#utility.yul\":1601:1703   */\n    tag_102:\n        /* \"#utility.yul\":1642:1648   */\n      0x00\n        /* \"#utility.yul\":1693:1695   */\n      0x1f\n        /* \"#utility.yul\":1689:1696   */\n      not\n        /* \"#utility.yul\":1684:1686   */\n      0x1f\n        /* \"#utility.yul\":1677:1682   */\n      dup4\n        /* \"#utility.yul\":1673:1687   */\n      add\n        /* \"#utility.yul\":1669:1697   */\n      and\n        /* \"#utility.yul\":1659:1697   */\n      swap1\n      pop\n        /* \"#utility.yul\":1601:1703   */\n      swap2\n      swap1\n      pop\n      jump\t// out\n        /* \"#utility.yul\":1709:2086   */\n    tag_103:\n        /* \"#utility.yul\":1797:1800   */\n      0x00\n        /* \"#utility.yul\":1825:1864   */\n      tag_165\n        /* \"#utility.yul\":1858:1863   */\n      dup3\n        /* \"#utility.yul\":1825:1864   */\n      tag_99\n      jump\t// in\n    tag_165:\n        /* \"#utility.yul\":1880:1951   */\n      tag_166\n        /* \"#utility.yul\":1944:1950   */\n      dup2\n        /* \"#utility.yul\":1939:1942   */\n      dup6\n        /* \"#utility.yul\":1880:1951   */\n      tag_100\n      jump\t// in\n    tag_166:\n        /* \"#utility.yul\":1873:1951   */\n      swap4\n      pop\n        /* \"#utility.yul\":1960:2025   */\n      tag_167\n        /* \"#utility.yul\":2018:2024   */\n      dup2\n        /* \"#utility.yul\":2013:2016   */\n      dup6\n        /* \"#utility.yul\":2006:2010   */\n      0x20\n        /* \"#utility.yul\":1999:2004   */\n      dup7\n        /* \"#utility.yul\":1995:2011   */\n      add\n        /* \"#utility.yul\":1960:2025   */\n      tag_101\n      jump\t// in\n    tag_167:\n        /* \"#utility.yul\":2050:2079   */\n      tag_168\n        /* \"#utility.yul\":2072:2078   */\n      dup2\n        /* \"#utility.yul\":2050:2079   */\n      tag_102\n      jump\t// in\n    tag_168:\n        /* \"#utility.yul\":2045:2048   */\n      dup5\n        /* \"#utility.yul\":2041:2080   */\n      add\n        /* \"#utility.yul\":2034:2080   */\n      swap2\n      pop\n        /* \"#utility.yul\":1801:2086   */\n      pop\n        /* \"#utility.yul\":1709:2086   */\n      swap3\n      swap2\n      pop\n      pop\n      jump\t// out\n        /* \"#utility.yul\":2092:2210   */\n    tag_104:\n        /* \"#utility.yul\":2179:2203   */\n      tag_170\n        /* \"#utility.yul\":2197:2202   */\n      dup2\n        /* \"#utility.yul\":2179:2203   */\n      tag_96\n      jump\t// in\n    tag_170:\n        /* \"#utility.yul\":2174:2177   */\n      dup3\n        /* \"#utility.yul\":2167:2204   */\n      mstore\n        /* \"#utility.yul\":2092:2210   */\n      pop\n      pop\n      jump\t// out\n        /* \"#utility.yul\":2216:2306   */\n    tag_105:\n        /* \"#utility.yul\":2250:2257   */\n      0x00\n        /* \"#utility.yul\":2293:2298   */\n      dup2\n        /* \"#utility.yul\":2286:2299   */\n      iszero\n        /* \"#utility.yul\":2279:2300   */\n      iszero\n        /* \"#utility.yul\":2268:2300   */\n      swap1\n      pop\n        /* \"#utility.yul\":2216:2306   */\n      swap2\n      swap1\n      pop\n      jump\t// out\n        /* \"#utility.yul\":2312:2421   */\n    tag_106:\n        /* \"#utility.yul\":2393:2414   */\n      tag_173\n        /* \"#utility.yul\":2408:2413   */\n      dup2\n        /* \"#utility.yul\":2393:2414   */\n      tag_105\n      jump\t// in\n    tag_173:\n        /* \"#utility.yul\":2388:2391   */\n      dup3\n        /* \"#utility.yul\":2381:2415   */\n      mstore\n        /* \"#utility.yul\":2312:2421   */\n      pop\n      pop\n      jump\t// out\n        /* \"#utility.yul\":2427:3554   */\n    tag_13:\n        /* \"#utility.yul\":2734:2738   */\n      0x00\n        /* \"#utility.yul\":2772:2775   */\n      0xc0\n        /* \"#utility.yul\":2761:2770   */\n      dup3\n        /* \"#utility.yul\":2757:2776   */\n      add\n        /* \"#utility.yul\":2749:2776   */\n      swap1\n      pop\n        /* \"#utility.yul\":2822:2831   */\n      dup2\n        /* \"#utility.yul\":2816:2820   */\n      dup2\n        /* \"#utility.yul\":2812:2832   */\n      sub\n        /* \"#utility.yul\":2808:2809   */\n      0x00\n        /* \"#utility.yul\":2797:2806   */\n      dup4\n        /* \"#utility.yul\":2793:2810   */\n      add\n        /* \"#utility.yul\":2786:2833   */\n      mstore\n        /* \"#utility.yul\":2850:2928   */\n      tag_175\n        /* \"#utility.yul\":2923:2927   */\n      dup2\n        /* \"#utility.yul\":2914:2920   */\n      dup10\n        /* \"#utility.yul\":2850:2928   */\n      tag_103\n      jump\t// in\n    tag_175:\n        /* \"#utility.yul\":2842:2928   */\n      swap1\n      pop\n        /* \"#utility.yul\":2975:2984   */\n      dup2\n        /* \"#utility.yul\":2969:2973   */\n      dup2\n        /* \"#utility.yul\":2965:2985   */\n      sub\n        /* \"#utility.yul\":2960:2962   */\n      0x20\n        /* \"#utility.yul\":2949:2958   */\n      dup4\n        /* \"#utility.yul\":2945:2963   */\n      add\n        /* \"#utility.yul\":2938:2986   */\n      mstore\n        /* \"#utility.yul\":3003:3081   */\n      tag_176\n        /* \"#utility.yul\":3076:3080   */\n      dup2\n        /* \"#utility.yul\":3067:3073   */\n      dup9\n        /* \"#utility.yul\":3003:3081   */\n      tag_103\n      jump\t// in\n    tag_176:\n        /* \"#utility.yul\":2995:3081   */\n      swap1\n      pop\n        /* \"#utility.yul\":3128:3137   */\n      dup2\n        /* \"#utility.yul\":3122:3126   */\n      dup2\n        /* \"#utility.yul\":3118:3138   */\n      sub\n        /* \"#utility.yul\":3113:3115   */\n      0x40\n        /* \"#utility.yul\":3102:3111   */\n      dup4\n        /* \"#utility.yul\":3098:3116   */\n      add\n        /* \"#utility.yul\":3091:3139   */\n      mstore\n        /* \"#utility.yul\":3156:3234   */\n      tag_177\n        /* \"#utility.yul\":3229:3233   */\n      dup2\n        /* \"#utility.yul\":3220:3226   */\n      dup8\n        /* \"#utility.yul\":3156:3234   */\n      tag_103\n      jump\t// in\n    tag_177:\n        /* \"#utility.yul\":3148:3234   */\n      swap1\n      pop\n        /* \"#utility.yul\":3281:3290   */\n      dup2\n        /* \"#utility.yul\":3275:3279   */\n      dup2\n        /* \"#utility.yul\":3271:3291   */\n      sub\n        /* \"#utility.yul\":3266:3268   */\n      0x60\n        /* \"#utility.yul\":3255:3264   */\n      dup4\n        /* \"#utility.yul\":3251:3269   */\n      add\n        /* \"#utility.yul\":3244:3292   */\n      mstore\n        /* \"#utility.yul\":3309:3387   */\n      tag_178\n        /* \"#utility.yul\":3382:3386   */\n      dup2\n        /* \"#utility.yul\":3373:3379   */\n      dup7\n        /* \"#utility.yul\":3309:3387   */\n      tag_103\n      jump\t// in\n    tag_178:\n        /* \"#utility.yul\":3301:3387   */\n      swap1\n      pop\n        /* \"#utility.yul\":3397:3470   */\n      tag_179\n        /* \"#utility.yul\":3465:3468   */\n      0x80\n        /* \"#utility.yul\":3454:3463   */\n      dup4\n        /* \"#utility.yul\":3450:3469   */\n      add\n        /* \"#utility.yul\":3441:3447   */\n      dup6\n        /* \"#utility.yul\":3397:3470   */\n      tag_104\n      jump\t// in\n    tag_179:\n        /* \"#utility.yul\":3480:3547   */\n      tag_180\n        /* \"#utility.yul\":3542:3545   */\n      0xa0\n        /* \"#utility.yul\":3531:3540   */\n      dup4\n        /* \"#utility.yul\":3527:3546   */\n      add\n        /* \"#utility.yul\":3518:3524   */\n      dup5\n        /* \"#utility.yul\":3480:3547   */\n      tag_106\n      jump\t// in\n    tag_180:\n        /* \"#utility.yul\":2427:3554   */\n      swap8\n      swap7\n      pop\n      pop\n      pop\n      pop\n      pop\n      pop\n      pop\n      jump\t// out\n        /* \"#utility.yul\":3560:3674   */\n    tag_107:\n        /* \"#utility.yul\":3627:3633   */\n      0x00\n        /* \"#utility.yul\":3661:3666   */\n      dup2\n        /* \"#utility.yul\":3655:3667   */\n      mload\n        /* \"#utility.yul\":3645:3667   */\n      swap1\n      pop\n        /* \"#utility.yul\":3560:3674   */\n      swap2\n      swap1\n      pop\n      jump\t// out\n        /* \"#utility.yul\":3680:3864   */\n    tag_108:\n        /* \"#utility.yul\":3779:3790   */\n      0x00\n        /* \"#utility.yul\":3813:3819   */\n      dup3\n        /* \"#utility.yul\":3808:3811   */\n      dup3\n        /* \"#utility.yul\":3801:3820   */\n      mstore\n        /* \"#utility.yul\":3853:3857   */\n      0x20\n        /* \"#utility.yul\":3848:3851   */\n      dup3\n        /* \"#utility.yul\":3844:3858   */\n      add\n        /* \"#utility.yul\":3829:3858   */\n      swap1\n      pop\n        /* \"#utility.yul\":3680:3864   */\n      swap3\n      swap2\n      pop\n      pop\n      jump\t// out\n        /* \"#utility.yul\":3870:4002   */\n    tag_109:\n        /* \"#utility.yul\":3937:3941   */\n      0x00\n        /* \"#utility.yul\":3960:3963   */\n      dup2\n        /* \"#utility.yul\":3952:3963   */\n      swap1\n      pop\n        /* \"#utility.yul\":3990:3994   */\n      0x20\n        /* \"#utility.yul\":3985:3988   */\n      dup3\n        /* \"#utility.yul\":3981:3995   */\n      add\n        /* \"#utility.yul\":3973:3995   */\n      swap1\n      pop\n        /* \"#utility.yul\":3870:4002   */\n      swap2\n      swap1\n      pop\n      jump\t// out\n        /* \"#utility.yul\":4008:4116   */\n    tag_110:\n        /* \"#utility.yul\":4085:4109   */\n      tag_185\n        /* \"#utility.yul\":4103:4108   */\n      dup2\n        /* \"#utility.yul\":4085:4109   */\n      tag_96\n      jump\t// in\n    tag_185:\n        /* \"#utility.yul\":4080:4083   */\n      dup3\n        /* \"#utility.yul\":4073:4110   */\n      mstore\n        /* \"#utility.yul\":4008:4116   */\n      pop\n      pop\n      jump\t// out\n        /* \"#utility.yul\":4122:4301   */\n    tag_111:\n        /* \"#utility.yul\":4191:4201   */\n      0x00\n        /* \"#utility.yul\":4212:4258   */\n      tag_187\n        /* \"#utility.yul\":4254:4257   */\n      dup4\n        /* \"#utility.yul\":4246:4252   */\n      dup4\n        /* \"#utility.yul\":4212:4258   */\n      tag_110\n      jump\t// in\n    tag_187:\n        /* \"#utility.yul\":4290:4294   */\n      0x20\n        /* \"#utility.yul\":4285:4288   */\n      dup4\n        /* \"#utility.yul\":4281:4295   */\n      add\n        /* \"#utility.yul\":4267:4295   */\n      swap1\n      pop\n        /* \"#utility.yul\":4122:4301   */\n      swap3\n      swap2\n      pop\n      pop\n      jump\t// out\n        /* \"#utility.yul\":4307:4420   */\n    tag_112:\n        /* \"#utility.yul\":4377:4381   */\n      0x00\n        /* \"#utility.yul\":4409:4413   */\n      0x20\n        /* \"#utility.yul\":4404:4407   */\n      dup3\n        /* \"#utility.yul\":4400:4414   */\n      add\n        /* \"#utility.yul\":4392:4414   */\n      swap1\n      pop\n        /* \"#utility.yul\":4307:4420   */\n      swap2\n      swap1\n      pop\n      jump\t// out\n        /* \"#utility.yul\":4456:5188   */\n    tag_113:\n        /* \"#utility.yul\":4575:4578   */\n      0x00\n        /* \"#utility.yul\":4604:4658   */\n      tag_190\n        /* \"#utility.yul\":4652:4657   */\n      dup3\n        /* \"#utility.yul\":4604:4658   */\n      tag_107\n      jump\t// in\n    tag_190:\n        /* \"#utility.yul\":4674:4760   */\n      tag_191\n        /* \"#utility.yul\":4753:4759   */\n      dup2\n        /* \"#utility.yul\":4748:4751   */\n      dup6\n        /* \"#utility.yul\":4674:4760   */\n      tag_108\n      jump\t// in\n    tag_191:\n        /* \"#utility.yul\":4667:4760   */\n      swap4\n      pop\n        /* \"#utility.yul\":4784:4840   */\n      tag_192\n        /* \"#utility.yul\":4834:4839   */\n      dup4\n        /* \"#utility.yul\":4784:4840   */\n      tag_109\n      jump\t// in\n    tag_192:\n        /* \"#utility.yul\":4863:4870   */\n      dup1\n        /* \"#utility.yul\":4894:4895   */\n      0x00\n        /* \"#utility.yul\":4879:5163   */\n    tag_193:\n        /* \"#utility.yul\":4904:4910   */\n      dup4\n        /* \"#utility.yul\":4901:4902   */\n      dup2\n        /* \"#utility.yul\":4898:4911   */\n      lt\n        /* \"#utility.yul\":4879:5163   */\n      iszero\n      tag_195\n      jumpi\n        /* \"#utility.yul\":4980:4986   */\n      dup2\n        /* \"#utility.yul\":4974:4987   */\n      mload\n        /* \"#utility.yul\":5007:5070   */\n      tag_196\n        /* \"#utility.yul\":5066:5069   */\n      dup9\n        /* \"#utility.yul\":5051:5064   */\n      dup3\n        /* \"#utility.yul\":5007:5070   */\n      tag_111\n      jump\t// in\n    tag_196:\n        /* \"#utility.yul\":5000:5070   */\n      swap8\n      pop\n        /* \"#utility.yul\":5093:5153   */\n      tag_197\n        /* \"#utility.yul\":5146:5152   */\n      dup4\n        /* \"#utility.yul\":5093:5153   */\n      tag_112\n      jump\t// in\n    tag_197:\n        /* \"#utility.yul\":5083:5153   */\n      swap3\n      pop\n        /* \"#utility.yul\":4939:5163   */\n      pop\n        /* \"#utility.yul\":4926:4927   */\n      0x01\n        /* \"#utility.yul\":4923:4924   */\n      dup2\n        /* \"#utility.yul\":4919:4928   */\n      add\n        /* \"#utility.yul\":4914:4928   */\n      swap1\n      pop\n        /* \"#utility.yul\":4879:5163   */\n      jump(tag_193)\n    tag_195:\n        /* \"#utility.yul\":4883:4897   */\n      pop\n        /* \"#utility.yul\":5179:5182   */\n      dup6\n        /* \"#utility.yul\":5172:5182   */\n      swap4\n      pop\n        /* \"#utility.yul\":4580:5188   */\n      pop\n      pop\n      pop\n        /* \"#utility.yul\":4456:5188   */\n      swap3\n      swap2\n      pop\n      pop\n      jump\t// out\n        /* \"#utility.yul\":5194:5567   */\n    tag_17:\n        /* \"#utility.yul\":5337:5341   */\n      0x00\n        /* \"#utility.yul\":5375:5377   */\n      0x20\n        /* \"#utility.yul\":5364:5373   */\n      dup3\n        /* \"#utility.yul\":5360:5378   */\n      add\n        /* \"#utility.yul\":5352:5378   */\n      swap1\n      pop\n        /* \"#utility.yul\":5424:5433   */\n      dup2\n        /* \"#utility.yul\":5418:5422   */\n      dup2\n        /* \"#utility.yul\":5414:5434   */\n      sub\n        /* \"#utility.yul\":5410:5411   */\n      0x00\n        /* \"#utility.yul\":5399:5408   */\n      dup4\n        /* \"#utility.yul\":5395:5412   */\n      add\n        /* \"#utility.yul\":5388:5435   */\n      mstore\n        /* \"#utility.yul\":5452:5560   */\n      tag_199\n        /* \"#utility.yul\":5555:5559   */\n      dup2\n        /* \"#utility.yul\":5546:5552   */\n      dup5\n        /* \"#utility.yul\":5452:5560   */\n      tag_113\n      jump\t// in\n    tag_199:\n        /* \"#utility.yul\":5444:5560   */\n      swap1\n      pop\n        /* \"#utility.yul\":5194:5567   */\n      swap3\n      swap2\n      pop\n      pop\n      jump\t// out\n        /* \"#utility.yul\":5573:6601   */\n    tag_22:\n        /* \"#utility.yul\":5858:5862   */\n      0x00\n        /* \"#utility.yul\":5896:5899   */\n      0xa0\n        /* \"#utility.yul\":5885:5894   */\n      dup3\n        /* \"#utility.yul\":5881:5900   */\n      add\n        /* \"#utility.yul\":5873:5900   */\n      swap1\n      pop\n        /* \"#utility.yul\":5946:5955   */\n      dup2\n        /* \"#utility.yul\":5940:5944   */\n      dup2\n        /* \"#utility.yul\":5936:5956   */\n      sub\n        /* \"#utility.yul\":5932:5933   */\n      0x00\n        /* \"#utility.yul\":5921:5930   */\n      dup4\n        /* \"#utility.yul\":5917:5934   */\n      add\n        /* \"#utility.yul\":5910:5957   */\n      mstore\n        /* \"#utility.yul\":5974:6052   */\n      tag_201\n        /* \"#utility.yul\":6047:6051   */\n      dup2\n        /* \"#utility.yul\":6038:6044   */\n      dup9\n        /* \"#utility.yul\":5974:6052   */\n      tag_103\n      jump\t// in\n    tag_201:\n        /* \"#utility.yul\":5966:6052   */\n      swap1\n      pop\n        /* \"#utility.yul\":6099:6108   */\n      dup2\n        /* \"#utility.yul\":6093:6097   */\n      dup2\n        /* \"#utility.yul\":6089:6109   */\n      sub\n        /* \"#utility.yul\":6084:6086   */\n      0x20\n        /* \"#utility.yul\":6073:6082   */\n      dup4\n        /* \"#utility.yul\":6069:6087   */\n      add\n        /* \"#utility.yul\":6062:6110   */\n      mstore\n        /* \"#utility.yul\":6127:6205   */\n      tag_202\n        /* \"#utility.yul\":6200:6204   */\n      dup2\n        /* \"#utility.yul\":6191:6197   */\n      dup8\n        /* \"#utility.yul\":6127:6205   */\n      tag_103\n      jump\t// in\n    tag_202:\n        /* \"#utility.yul\":6119:6205   */\n      swap1\n      pop\n        /* \"#utility.yul\":6252:6261   */\n      dup2\n        /* \"#utility.yul\":6246:6250   */\n      dup2\n        /* \"#utility.yul\":6242:6262   */\n      sub\n        /* \"#utility.yul\":6237:6239   */\n      0x40\n        /* \"#utility.yul\":6226:6235   */\n      dup4\n        /* \"#utility.yul\":6222:6240   */\n      add\n        /* \"#utility.yul\":6215:6263   */\n      mstore\n        /* \"#utility.yul\":6280:6358   */\n      tag_203\n        /* \"#utility.yul\":6353:6357   */\n      dup2\n        /* \"#utility.yul\":6344:6350   */\n      dup7\n        /* \"#utility.yul\":6280:6358   */\n      tag_103\n      jump\t// in\n    tag_203:\n        /* \"#utility.yul\":6272:6358   */\n      swap1\n      pop\n        /* \"#utility.yul\":6405:6414   */\n      dup2\n        /* \"#utility.yul\":6399:6403   */\n      dup2\n        /* \"#utility.yul\":6395:6415   */\n      sub\n        /* \"#utility.yul\":6390:6392   */\n      0x60\n        /* \"#utility.yul\":6379:6388   */\n      dup4\n        /* \"#utility.yul\":6375:6393   */\n      add\n        /* \"#utility.yul\":6368:6416   */\n      mstore\n        /* \"#utility.yul\":6433:6511   */\n      tag_204\n        /* \"#utility.yul\":6506:6510   */\n      dup2\n        /* \"#utility.yul\":6497:6503   */\n      dup6\n        /* \"#utility.yul\":6433:6511   */\n      tag_103\n      jump\t// in\n    tag_204:\n        /* \"#utility.yul\":6425:6511   */\n      swap1\n      pop\n        /* \"#utility.yul\":6521:6594   */\n      tag_205\n        /* \"#utility.yul\":6589:6592   */\n      0x80\n        /* \"#utility.yul\":6578:6587   */\n      dup4\n        /* \"#utility.yul\":6574:6593   */\n      add\n        /* \"#utility.yul\":6565:6571   */\n      dup5\n        /* \"#utility.yul\":6521:6594   */\n      tag_104\n      jump\t// in\n    tag_205:\n        /* \"#utility.yul\":5573:6601   */\n      swap7\n      swap6\n      pop\n      pop\n      pop\n      pop\n      pop\n      pop\n      jump\t// out\n        /* \"#utility.yul\":6607:6724   */\n    tag_114:\n        /* \"#utility.yul\":6716:6717   */\n      0x00\n        /* \"#utility.yul\":6713:6714   */\n      dup1\n        /* \"#utility.yul\":6706:6718   */\n      revert\n        /* \"#utility.yul\":6730:6847   */\n    tag_115:\n        /* \"#utility.yul\":6839:6840   */\n      0x00\n        /* \"#utility.yul\":6836:6837   */\n      dup1\n        /* \"#utility.yul\":6829:6841   */\n      revert\n        /* \"#utility.yul\":6853:7033   */\n    tag_116:\n        /* \"#utility.yul\":6901:6978   */\n      0x4e487b7100000000000000000000000000000000000000000000000000000000\n        /* \"#utility.yul\":6898:6899   */\n      0x00\n        /* \"#utility.yul\":6891:6979   */\n      mstore\n        /* \"#utility.yul\":6998:7002   */\n      0x41\n        /* \"#utility.yul\":6995:6996   */\n      0x04\n        /* \"#utility.yul\":6988:7003   */\n      mstore\n        /* \"#utility.yul\":7022:7026   */\n      0x24\n        /* \"#utility.yul\":7019:7020   */\n      0x00\n        /* \"#utility.yul\":7012:7027   */\n      revert\n        /* \"#utility.yul\":7039:7320   */\n    tag_117:\n        /* \"#utility.yul\":7122:7149   */\n      tag_210\n        /* \"#utility.yul\":7144:7148   */\n      dup3\n        /* \"#utility.yul\":7122:7149   */\n      tag_102\n      jump\t// in\n    tag_210:\n        /* \"#utility.yul\":7114:7120   */\n      dup2\n        /* \"#utility.yul\":7110:7150   */\n      add\n        /* \"#utility.yul\":7252:7258   */\n      dup2\n        /* \"#utility.yul\":7240:7250   */\n      dup2\n        /* \"#utility.yul\":7237:7259   */\n      lt\n        /* \"#utility.yul\":7216:7234   */\n      0xffffffffffffffff\n        /* \"#utility.yul\":7204:7214   */\n      dup3\n        /* \"#utility.yul\":7201:7235   */\n      gt\n        /* \"#utility.yul\":7198:7260   */\n      or\n        /* \"#utility.yul\":7195:7283   */\n      iszero\n      tag_211\n      jumpi\n        /* \"#utility.yul\":7263:7281   */\n      tag_212\n      tag_116\n      jump\t// in\n    tag_212:\n        /* \"#utility.yul\":7195:7283   */\n    tag_211:\n        /* \"#utility.yul\":7303:7313   */\n      dup1\n        /* \"#utility.yul\":7299:7301   */\n      0x40\n        /* \"#utility.yul\":7292:7314   */\n      mstore\n        /* \"#utility.yul\":7082:7320   */\n      pop\n        /* \"#utility.yul\":7039:7320   */\n      pop\n      pop\n      jump\t// out\n        /* \"#utility.yul\":7326:7455   */\n    tag_118:\n        /* \"#utility.yul\":7360:7366   */\n      0x00\n        /* \"#utility.yul\":7387:7407   */\n      tag_214\n      tag_92\n      jump\t// in\n    tag_214:\n        /* \"#utility.yul\":7377:7407   */\n      swap1\n      pop\n        /* \"#utility.yul\":7416:7449   */\n      tag_215\n        /* \"#utility.yul\":7444:7448   */\n      dup3\n        /* \"#utility.yul\":7436:7442   */\n      dup3\n        /* \"#utility.yul\":7416:7449   */\n      tag_117\n      jump\t// in\n    tag_215:\n        /* \"#utility.yul\":7326:7455   */\n      swap2\n      swap1\n      pop\n      jump\t// out\n        /* \"#utility.yul\":7461:7769   */\n    tag_119:\n        /* \"#utility.yul\":7523:7527   */\n      0x00\n        /* \"#utility.yul\":7613:7631   */\n      0xffffffffffffffff\n        /* \"#utility.yul\":7605:7611   */\n      dup3\n        /* \"#utility.yul\":7602:7632   */\n      gt\n        /* \"#utility.yul\":7599:7655   */\n      iszero\n      tag_217\n      jumpi\n        /* \"#utility.yul\":7635:7653   */\n      tag_218\n      tag_116\n      jump\t// in\n    tag_218:\n        /* \"#utility.yul\":7599:7655   */\n    tag_217:\n        /* \"#utility.yul\":7673:7702   */\n      tag_219\n        /* \"#utility.yul\":7695:7701   */\n      dup3\n        /* \"#utility.yul\":7673:7702   */\n      tag_102\n      jump\t// in\n    tag_219:\n        /* \"#utility.yul\":7665:7702   */\n      swap1\n      pop\n        /* \"#utility.yul\":7757:7761   */\n      0x20\n        /* \"#utility.yul\":7751:7755   */\n      dup2\n        /* \"#utility.yul\":7747:7762   */\n      add\n        /* \"#utility.yul\":7739:7762   */\n      swap1\n      pop\n        /* \"#utility.yul\":7461:7769   */\n      swap2\n      swap1\n      pop\n      jump\t// out\n        /* \"#utility.yul\":7775:7923   */\n    tag_120:\n        /* \"#utility.yul\":7873:7879   */\n      dup3\n        /* \"#utility.yul\":7868:7871   */\n      dup2\n        /* \"#utility.yul\":7863:7866   */\n      dup4\n        /* \"#utility.yul\":7850:7880   */\n      calldatacopy\n        /* \"#utility.yul\":7914:7915   */\n      0x00\n        /* \"#utility.yul\":7905:7911   */\n      dup4\n        /* \"#utility.yul\":7900:7903   */\n      dup4\n        /* \"#utility.yul\":7896:7912   */\n      add\n        /* \"#utility.yul\":7889:7916   */\n      mstore\n        /* \"#utility.yul\":7775:7923   */\n      pop\n      pop\n      pop\n      jump\t// out\n        /* \"#utility.yul\":7929:8354   */\n    tag_121:\n        /* \"#utility.yul\":8007:8012   */\n      0x00\n        /* \"#utility.yul\":8032:8098   */\n      tag_222\n        /* \"#utility.yul\":8048:8097   */\n      tag_223\n        /* \"#utility.yul\":8090:8096   */\n      dup5\n        /* \"#utility.yul\":8048:8097   */\n      tag_119\n      jump\t// in\n    tag_223:\n        /* \"#utility.yul\":8032:8098   */\n      tag_118\n      jump\t// in\n    tag_222:\n        /* \"#utility.yul\":8023:8098   */\n      swap1\n      pop\n        /* \"#utility.yul\":8121:8127   */\n      dup3\n        /* \"#utility.yul\":8114:8119   */\n      dup2\n        /* \"#utility.yul\":8107:8128   */\n      mstore\n        /* \"#utility.yul\":8159:8163   */\n      0x20\n        /* \"#utility.yul\":8152:8157   */\n      dup2\n        /* \"#utility.yul\":8148:8164   */\n      add\n        /* \"#utility.yul\":8197:8200   */\n      dup5\n        /* \"#utility.yul\":8188:8194   */\n      dup5\n        /* \"#utility.yul\":8183:8186   */\n      dup5\n        /* \"#utility.yul\":8179:8195   */\n      add\n        /* \"#utility.yul\":8176:8201   */\n      gt\n        /* \"#utility.yul\":8173:8285   */\n      iszero\n      tag_224\n      jumpi\n        /* \"#utility.yul\":8204:8283   */\n      tag_225\n      tag_115\n      jump\t// in\n    tag_225:\n        /* \"#utility.yul\":8173:8285   */\n    tag_224:\n        /* \"#utility.yul\":8294:8348   */\n      tag_226\n        /* \"#utility.yul\":8341:8347   */\n      dup5\n        /* \"#utility.yul\":8336:8339   */\n      dup3\n        /* \"#utility.yul\":8331:8334   */\n      dup6\n        /* \"#utility.yul\":8294:8348   */\n      tag_120\n      jump\t// in\n    tag_226:\n        /* \"#utility.yul\":8013:8354   */\n      pop\n        /* \"#utility.yul\":7929:8354   */\n      swap4\n      swap3\n      pop\n      pop\n      pop\n      jump\t// out\n        /* \"#utility.yul\":8374:8714   */\n    tag_122:\n        /* \"#utility.yul\":8430:8435   */\n      0x00\n        /* \"#utility.yul\":8479:8482   */\n      dup3\n        /* \"#utility.yul\":8472:8476   */\n      0x1f\n        /* \"#utility.yul\":8464:8470   */\n      dup4\n        /* \"#utility.yul\":8460:8477   */\n      add\n        /* \"#utility.yul\":8456:8483   */\n      slt\n        /* \"#utility.yul\":8446:8568   */\n      tag_228\n      jumpi\n        /* \"#utility.yul\":8487:8566   */\n      tag_229\n      tag_114\n      jump\t// in\n    tag_229:\n        /* \"#utility.yul\":8446:8568   */\n    tag_228:\n        /* \"#utility.yul\":8604:8610   */\n      dup2\n        /* \"#utility.yul\":8591:8611   */\n      calldataload\n        /* \"#utility.yul\":8629:8708   */\n      tag_230\n        /* \"#utility.yul\":8704:8707   */\n      dup5\n        /* \"#utility.yul\":8696:8702   */\n      dup3\n        /* \"#utility.yul\":8689:8693   */\n      0x20\n        /* \"#utility.yul\":8681:8687   */\n      dup7\n        /* \"#utility.yul\":8677:8694   */\n      add\n        /* \"#utility.yul\":8629:8708   */\n      tag_121\n      jump\t// in\n    tag_230:\n        /* \"#utility.yul\":8620:8708   */\n      swap2\n      pop\n        /* \"#utility.yul\":8436:8714   */\n      pop\n        /* \"#utility.yul\":8374:8714   */\n      swap3\n      swap2\n      pop\n      pop\n      jump\t// out\n        /* \"#utility.yul\":8720:10205   */\n    tag_25:\n        /* \"#utility.yul\":8846:8852   */\n      0x00\n        /* \"#utility.yul\":8854:8860   */\n      dup1\n        /* \"#utility.yul\":8862:8868   */\n      0x00\n        /* \"#utility.yul\":8870:8876   */\n      dup1\n        /* \"#utility.yul\":8919:8922   */\n      0x80\n        /* \"#utility.yul\":8907:8916   */\n      dup6\n        /* \"#utility.yul\":8898:8905   */\n      dup8\n        /* \"#utility.yul\":8894:8917   */\n      sub\n        /* \"#utility.yul\":8890:8923   */\n      slt\n        /* \"#utility.yul\":8887:9007   */\n      iszero\n      tag_232\n      jumpi\n        /* \"#utility.yul\":8926:9005   */\n      tag_233\n      tag_93\n      jump\t// in\n    tag_233:\n        /* \"#utility.yul\":8887:9007   */\n    tag_232:\n        /* \"#utility.yul\":9074:9075   */\n      0x00\n        /* \"#utility.yul\":9063:9072   */\n      dup6\n        /* \"#utility.yul\":9059:9076   */\n      add\n        /* \"#utility.yul\":9046:9077   */\n      calldataload\n        /* \"#utility.yul\":9104:9122   */\n      0xffffffffffffffff\n        /* \"#utility.yul\":9096:9102   */\n      dup2\n        /* \"#utility.yul\":9093:9123   */\n      gt\n        /* \"#utility.yul\":9090:9207   */\n      iszero\n      tag_234\n      jumpi\n        /* \"#utility.yul\":9126:9205   */\n      tag_235\n      tag_94\n      jump\t// in\n    tag_235:\n        /* \"#utility.yul\":9090:9207   */\n    tag_234:\n        /* \"#utility.yul\":9231:9294   */\n      tag_236\n        /* \"#utility.yul\":9286:9293   */\n      dup8\n        /* \"#utility.yul\":9277:9283   */\n      dup3\n        /* \"#utility.yul\":9266:9275   */\n      dup9\n        /* \"#utility.yul\":9262:9284   */\n      add\n        /* \"#utility.yul\":9231:9294   */\n      tag_122\n      jump\t// in\n    tag_236:\n        /* \"#utility.yul\":9221:9294   */\n      swap5\n      pop\n        /* \"#utility.yul\":9017:9304   */\n      pop\n        /* \"#utility.yul\":9371:9373   */\n      0x20\n        /* \"#utility.yul\":9360:9369   */\n      dup6\n        /* \"#utility.yul\":9356:9374   */\n      add\n        /* \"#utility.yul\":9343:9375   */\n      calldataload\n        /* \"#utility.yul\":9402:9420   */\n      0xffffffffffffffff\n        /* \"#utility.yul\":9394:9400   */\n      dup2\n        /* \"#utility.yul\":9391:9421   */\n      gt\n        /* \"#utility.yul\":9388:9505   */\n      iszero\n      tag_237\n      jumpi\n        /* \"#utility.yul\":9424:9503   */\n      tag_238\n      tag_94\n      jump\t// in\n    tag_238:\n        /* \"#utility.yul\":9388:9505   */\n    tag_237:\n        /* \"#utility.yul\":9529:9592   */\n      tag_239\n        /* \"#utility.yul\":9584:9591   */\n      dup8\n        /* \"#utility.yul\":9575:9581   */\n      dup3\n        /* \"#utility.yul\":9564:9573   */\n      dup9\n        /* \"#utility.yul\":9560:9582   */\n      add\n        /* \"#utility.yul\":9529:9592   */\n      tag_122\n      jump\t// in\n    tag_239:\n        /* \"#utility.yul\":9519:9592   */\n      swap4\n      pop\n        /* \"#utility.yul\":9314:9602   */\n      pop\n        /* \"#utility.yul\":9669:9671   */\n      0x40\n        /* \"#utility.yul\":9658:9667   */\n      dup6\n        /* \"#utility.yul\":9654:9672   */\n      add\n        /* \"#utility.yul\":9641:9673   */\n      calldataload\n        /* \"#utility.yul\":9700:9718   */\n      0xffffffffffffffff\n        /* \"#utility.yul\":9692:9698   */\n      dup2\n        /* \"#utility.yul\":9689:9719   */\n      gt\n        /* \"#utility.yul\":9686:9803   */\n      iszero\n      tag_240\n      jumpi\n        /* \"#utility.yul\":9722:9801   */\n      tag_241\n      tag_94\n      jump\t// in\n    tag_241:\n        /* \"#utility.yul\":9686:9803   */\n    tag_240:\n        /* \"#utility.yul\":9827:9890   */\n      tag_242\n        /* \"#utility.yul\":9882:9889   */\n      dup8\n        /* \"#utility.yul\":9873:9879   */\n      dup3\n        /* \"#utility.yul\":9862:9871   */\n      dup9\n        /* \"#utility.yul\":9858:9880   */\n      add\n        /* \"#utility.yul\":9827:9890   */\n      tag_122\n      jump\t// in\n    tag_242:\n        /* \"#utility.yul\":9817:9890   */\n      swap3\n      pop\n        /* \"#utility.yul\":9612:9900   */\n      pop\n        /* \"#utility.yul\":9967:9969   */\n      0x60\n        /* \"#utility.yul\":9956:9965   */\n      dup6\n        /* \"#utility.yul\":9952:9970   */\n      add\n        /* \"#utility.yul\":9939:9971   */\n      calldataload\n        /* \"#utility.yul\":9998:10016   */\n      0xffffffffffffffff\n        /* \"#utility.yul\":9990:9996   */\n      dup2\n        /* \"#utility.yul\":9987:10017   */\n      gt\n        /* \"#utility.yul\":9984:10101   */\n      iszero\n      tag_243\n      jumpi\n        /* \"#utility.yul\":10020:10099   */\n      tag_244\n      tag_94\n      jump\t// in\n    tag_244:\n        /* \"#utility.yul\":9984:10101   */\n    tag_243:\n        /* \"#utility.yul\":10125:10188   */\n      tag_245\n        /* \"#utility.yul\":10180:10187   */\n      dup8\n        /* \"#utility.yul\":10171:10177   */\n      dup3\n        /* \"#utility.yul\":10160:10169   */\n      dup9\n        /* \"#utility.yul\":10156:10178   */\n      add\n        /* \"#utility.yul\":10125:10188   */\n      tag_122\n      jump\t// in\n    tag_245:\n        /* \"#utility.yul\":10115:10188   */\n      swap2\n      pop\n        /* \"#utility.yul\":9910:10198   */\n      pop\n        /* \"#utility.yul\":8720:10205   */\n      swap3\n      swap6\n      swap2\n      swap5\n      pop\n      swap3\n      pop\n      jump\t// out\n        /* \"#utility.yul\":10211:10288   */\n    tag_123:\n        /* \"#utility.yul\":10248:10255   */\n      0x00\n        /* \"#utility.yul\":10277:10282   */\n      dup2\n        /* \"#utility.yul\":10266:10282   */\n      swap1\n      pop\n        /* \"#utility.yul\":10211:10288   */\n      swap2\n      swap1\n      pop\n      jump\t// out\n        /* \"#utility.yul\":10294:10416   */\n    tag_124:\n        /* \"#utility.yul\":10367:10391   */\n      tag_248\n        /* \"#utility.yul\":10385:10390   */\n      dup2\n        /* \"#utility.yul\":10367:10391   */\n      tag_123\n      jump\t// in\n    tag_248:\n        /* \"#utility.yul\":10360:10365   */\n      dup2\n        /* \"#utility.yul\":10357:10392   */\n      eq\n        /* \"#utility.yul\":10347:10410   */\n      tag_249\n      jumpi\n        /* \"#utility.yul\":10406:10407   */\n      0x00\n        /* \"#utility.yul\":10403:10404   */\n      dup1\n        /* \"#utility.yul\":10396:10408   */\n      revert\n        /* \"#utility.yul\":10347:10410   */\n    tag_249:\n        /* \"#utility.yul\":10294:10416   */\n      pop\n      jump\t// out\n        /* \"#utility.yul\":10422:10561   */\n    tag_125:\n        /* \"#utility.yul\":10468:10473   */\n      0x00\n        /* \"#utility.yul\":10506:10512   */\n      dup2\n        /* \"#utility.yul\":10493:10513   */\n      calldataload\n        /* \"#utility.yul\":10484:10513   */\n      swap1\n      pop\n        /* \"#utility.yul\":10522:10555   */\n      tag_251\n        /* \"#utility.yul\":10549:10554   */\n      dup2\n        /* \"#utility.yul\":10522:10555   */\n      tag_124\n      jump\t// in\n    tag_251:\n        /* \"#utility.yul\":10422:10561   */\n      swap3\n      swap2\n      pop\n      pop\n      jump\t// out\n        /* \"#utility.yul\":10567:10896   */\n    tag_29:\n        /* \"#utility.yul\":10626:10632   */\n      0x00\n        /* \"#utility.yul\":10675:10677   */\n      0x20\n        /* \"#utility.yul\":10663:10672   */\n      dup3\n        /* \"#utility.yul\":10654:10661   */\n      dup5\n        /* \"#utility.yul\":10650:10673   */\n      sub\n        /* \"#utility.yul\":10646:10678   */\n      slt\n        /* \"#utility.yul\":10643:10762   */\n      iszero\n      tag_253\n      jumpi\n        /* \"#utility.yul\":10681:10760   */\n      tag_254\n      tag_93\n      jump\t// in\n    tag_254:\n        /* \"#utility.yul\":10643:10762   */\n    tag_253:\n        /* \"#utility.yul\":10801:10802   */\n      0x00\n        /* \"#utility.yul\":10826:10879   */\n      tag_255\n        /* \"#utility.yul\":10871:10878   */\n      dup5\n        /* \"#utility.yul\":10862:10868   */\n      dup3\n        /* \"#utility.yul\":10851:10860   */\n      dup6\n        /* \"#utility.yul\":10847:10869   */\n      add\n        /* \"#utility.yul\":10826:10879   */\n      tag_125\n      jump\t// in\n    tag_255:\n        /* \"#utility.yul\":10816:10879   */\n      swap2\n      pop\n        /* \"#utility.yul\":10772:10889   */\n      pop\n        /* \"#utility.yul\":10567:10896   */\n      swap3\n      swap2\n      pop\n      pop\n      jump\t// out\n        /* \"#utility.yul\":10902:11124   */\n    tag_32:\n        /* \"#utility.yul\":10995:10999   */\n      0x00\n        /* \"#utility.yul\":11033:11035   */\n      0x20\n        /* \"#utility.yul\":11022:11031   */\n      dup3\n        /* \"#utility.yul\":11018:11036   */\n      add\n        /* \"#utility.yul\":11010:11036   */\n      swap1\n      pop\n        /* \"#utility.yul\":11046:11117   */\n      tag_257\n        /* \"#utility.yul\":11114:11115   */\n      0x00\n        /* \"#utility.yul\":11103:11112   */\n      dup4\n        /* \"#utility.yul\":11099:11116   */\n      add\n        /* \"#utility.yul\":11090:11096   */\n      dup5\n        /* \"#utility.yul\":11046:11117   */\n      tag_104\n      jump\t// in\n    tag_257:\n        /* \"#utility.yul\":10902:11124   */\n      swap3\n      swap2\n      pop\n      pop\n      jump\t// out\n        /* \"#utility.yul\":11130:11310   */\n    tag_126:\n        /* \"#utility.yul\":11178:11255   */\n      0x4e487b7100000000000000000000000000000000000000000000000000000000\n        /* \"#utility.yul\":11175:11176   */\n      0x00\n        /* \"#utility.yul\":11168:11256   */\n      mstore\n        /* \"#utility.yul\":11275:11279   */\n      0x22\n        /* \"#utility.yul\":11272:11273   */\n      0x04\n        /* \"#utility.yul\":11265:11280   */\n      mstore\n        /* \"#utility.yul\":11299:11303   */\n      0x24\n        /* \"#utility.yul\":11296:11297   */\n      0x00\n        /* \"#utility.yul\":11289:11304   */\n      revert\n        /* \"#utility.yul\":11316:11636   */\n    tag_34:\n        /* \"#utility.yul\":11360:11366   */\n      0x00\n        /* \"#utility.yul\":11397:11398   */\n      0x02\n        /* \"#utility.yul\":11391:11395   */\n      dup3\n        /* \"#utility.yul\":11387:11399   */\n      div\n        /* \"#utility.yul\":11377:11399   */\n      swap1\n      pop\n        /* \"#utility.yul\":11444:11445   */\n      0x01\n        /* \"#utility.yul\":11438:11442   */\n      dup3\n        /* \"#utility.yul\":11434:11446   */\n      and\n        /* \"#utility.yul\":11465:11483   */\n      dup1\n        /* \"#utility.yul\":11455:11536   */\n      tag_260\n      jumpi\n        /* \"#utility.yul\":11521:11525   */\n      0x7f\n        /* \"#utility.yul\":11513:11519   */\n      dup3\n        /* \"#utility.yul\":11509:11526   */\n      and\n        /* \"#utility.yul\":11499:11526   */\n      swap2\n      pop\n        /* \"#utility.yul\":11455:11536   */\n    tag_260:\n        /* \"#utility.yul\":11583:11585   */\n      0x20\n        /* \"#utility.yul\":11575:11581   */\n      dup3\n        /* \"#utility.yul\":11572:11586   */\n      lt\n        /* \"#utility.yul\":11552:11570   */\n      dup2\n        /* \"#utility.yul\":11549:11587   */\n      sub\n        /* \"#utility.yul\":11546:11630   */\n      tag_261\n      jumpi\n        /* \"#utility.yul\":11602:11620   */\n      tag_262\n      tag_126\n      jump\t// in\n    tag_262:\n        /* \"#utility.yul\":11546:11630   */\n    tag_261:\n        /* \"#utility.yul\":11367:11636   */\n      pop\n        /* \"#utility.yul\":11316:11636   */\n      swap2\n      swap1\n      pop\n      jump\t// out\n        /* \"#utility.yul\":11642:11818   */\n    tag_127:\n        /* \"#utility.yul\":11782:11810   */\n      0x596f752061726520616c72656164792072656769737465726564000000000000\n        /* \"#utility.yul\":11778:11779   */\n      0x00\n        /* \"#utility.yul\":11770:11776   */\n      dup3\n        /* \"#utility.yul\":11766:11780   */\n      add\n        /* \"#utility.yul\":11759:11811   */\n      mstore\n        /* \"#utility.yul\":11642:11818   */\n      pop\n      jump\t// out\n        /* \"#utility.yul\":11824:12190   */\n    tag_128:\n        /* \"#utility.yul\":11966:11969   */\n      0x00\n        /* \"#utility.yul\":11987:12054   */\n      tag_265\n        /* \"#utility.yul\":12051:12053   */\n      0x1a\n        /* \"#utility.yul\":12046:12049   */\n      dup4\n        /* \"#utility.yul\":11987:12054   */\n      tag_100\n      jump\t// in\n    tag_265:\n        /* \"#utility.yul\":11980:12054   */\n      swap2\n      pop\n        /* \"#utility.yul\":12063:12156   */\n      tag_266\n        /* \"#utility.yul\":12152:12155   */\n      dup3\n        /* \"#utility.yul\":12063:12156   */\n      tag_127\n      jump\t// in\n    tag_266:\n        /* \"#utility.yul\":12181:12183   */\n      0x20\n        /* \"#utility.yul\":12176:12179   */\n      dup3\n        /* \"#utility.yul\":12172:12184   */\n      add\n        /* \"#utility.yul\":12165:12184   */\n      swap1\n      pop\n        /* \"#utility.yul\":11824:12190   */\n      swap2\n      swap1\n      pop\n      jump\t// out\n        /* \"#utility.yul\":12196:12615   */\n    tag_81:\n        /* \"#utility.yul\":12362:12366   */\n      0x00\n        /* \"#utility.yul\":12400:12402   */\n      0x20\n        /* \"#utility.yul\":12389:12398   */\n      dup3\n        /* \"#utility.yul\":12385:12403   */\n      add\n        /* \"#utility.yul\":12377:12403   */\n      swap1\n      pop\n        /* \"#utility.yul\":12449:12458   */\n      dup2\n        /* \"#utility.yul\":12443:12447   */\n      dup2\n        /* \"#utility.yul\":12439:12459   */\n      sub\n        /* \"#utility.yul\":12435:12436   */\n      0x00\n        /* \"#utility.yul\":12424:12433   */\n      dup4\n        /* \"#utility.yul\":12420:12437   */\n      add\n        /* \"#utility.yul\":12413:12460   */\n      mstore\n        /* \"#utility.yul\":12477:12608   */\n      tag_268\n        /* \"#utility.yul\":12603:12607   */\n      dup2\n        /* \"#utility.yul\":12477:12608   */\n      tag_128\n      jump\t// in\n    tag_268:\n        /* \"#utility.yul\":12469:12608   */\n      swap1\n      pop\n        /* \"#utility.yul\":12196:12615   */\n      swap2\n      swap1\n      pop\n      jump\t// out\n        /* \"#utility.yul\":12621:12762   */\n    tag_129:\n        /* \"#utility.yul\":12670:12674   */\n      0x00\n        /* \"#utility.yul\":12693:12696   */\n      dup2\n        /* \"#utility.yul\":12685:12696   */\n      swap1\n      pop\n        /* \"#utility.yul\":12716:12719   */\n      dup2\n        /* \"#utility.yul\":12713:12714   */\n      0x00\n        /* \"#utility.yul\":12706:12720   */\n      mstore\n        /* \"#utility.yul\":12750:12754   */\n      0x20\n        /* \"#utility.yul\":12747:12748   */\n      0x00\n        /* \"#utility.yul\":12737:12755   */\n      keccak256\n        /* \"#utility.yul\":12729:12755   */\n      swap1\n      pop\n        /* \"#utility.yul\":12621:12762   */\n      swap2\n      swap1\n      pop\n      jump\t// out\n        /* \"#utility.yul\":12768:12861   */\n    tag_130:\n        /* \"#utility.yul\":12805:12811   */\n      0x00\n        /* \"#utility.yul\":12852:12854   */\n      0x20\n        /* \"#utility.yul\":12847:12849   */\n      0x1f\n        /* \"#utility.yul\":12840:12845   */\n      dup4\n        /* \"#utility.yul\":12836:12850   */\n      add\n        /* \"#utility.yul\":12832:12855   */\n      div\n        /* \"#utility.yul\":12822:12855   */\n      swap1\n      pop\n        /* \"#utility.yul\":12768:12861   */\n      swap2\n      swap1\n      pop\n      jump\t// out\n        /* \"#utility.yul\":12867:12974   */\n    tag_131:\n        /* \"#utility.yul\":12911:12919   */\n      0x00\n        /* \"#utility.yul\":12961:12966   */\n      dup3\n        /* \"#utility.yul\":12955:12959   */\n      dup3\n        /* \"#utility.yul\":12951:12967   */\n      shl\n        /* \"#utility.yul\":12930:12967   */\n      swap1\n      pop\n        /* \"#utility.yul\":12867:12974   */\n      swap3\n      swap2\n      pop\n      pop\n      jump\t// out\n        /* \"#utility.yul\":12980:13373   */\n    tag_132:\n        /* \"#utility.yul\":13049:13055   */\n      0x00\n        /* \"#utility.yul\":13099:13100   */\n      0x08\n        /* \"#utility.yul\":13087:13097   */\n      dup4\n        /* \"#utility.yul\":13083:13101   */\n      mul\n        /* \"#utility.yul\":13122:13219   */\n      tag_273\n        /* \"#utility.yul\":13152:13218   */\n      0xffffffffffffffffffffffffffffffffffffffffffffffffffffffffffffffff\n        /* \"#utility.yul\":13141:13150   */\n      dup3\n        /* \"#utility.yul\":13122:13219   */\n      tag_131\n      jump\t// in\n    tag_273:\n        /* \"#utility.yul\":13240:13279   */\n      tag_274\n        /* \"#utility.yul\":13270:13278   */\n      dup7\n        /* \"#utility.yul\":13259:13268   */\n      dup4\n        /* \"#utility.yul\":13240:13279   */\n      tag_131\n      jump\t// in\n    tag_274:\n        /* \"#utility.yul\":13228:13279   */\n      swap6\n      pop\n        /* \"#utility.yul\":13312:13316   */\n      dup1\n        /* \"#utility.yul\":13308:13317   */\n      not\n        /* \"#utility.yul\":13301:13306   */\n      dup5\n        /* \"#utility.yul\":13297:13318   */\n      and\n        /* \"#utility.yul\":13288:13318   */\n      swap4\n      pop\n        /* \"#utility.yul\":13361:13365   */\n      dup1\n        /* \"#utility.yul\":13351:13359   */\n      dup7\n        /* \"#utility.yul\":13347:13366   */\n      and\n        /* \"#utility.yul\":13340:13345   */\n      dup5\n        /* \"#utility.yul\":13337:13367   */\n      or\n        /* \"#utility.yul\":13327:13367   */\n      swap3\n      pop\n        /* \"#utility.yul\":13056:13373   */\n      pop\n      pop\n        /* \"#utility.yul\":12980:13373   */\n      swap4\n      swap3\n      pop\n      pop\n      pop\n      jump\t// out\n        /* \"#utility.yul\":13379:13439   */\n    tag_133:\n        /* \"#utility.yul\":13407:13410   */\n      0x00\n        /* \"#utility.yul\":13428:13433   */\n      dup2\n        /* \"#utility.yul\":13421:13433   */\n      swap1\n      pop\n        /* \"#utility.yul\":13379:13439   */\n      swap2\n      swap1\n      pop\n      jump\t// out\n        /* \"#utility.yul\":13445:13587   */\n    tag_134:\n        /* \"#utility.yul\":13495:13504   */\n      0x00\n        /* \"#utility.yul\":13528:13581   */\n      tag_277\n        /* \"#utility.yul\":13546:13580   */\n      tag_278\n        /* \"#utility.yul\":13555:13579   */\n      tag_279\n        /* \"#utility.yul\":13573:13578   */\n      dup5\n        /* \"#utility.yul\":13555:13579   */\n      tag_123\n      jump\t// in\n    tag_279:\n        /* \"#utility.yul\":13546:13580   */\n      tag_133\n      jump\t// in\n    tag_278:\n        /* \"#utility.yul\":13528:13581   */\n      tag_123\n      jump\t// in\n    tag_277:\n        /* \"#utility.yul\":13515:13581   */\n      swap1\n      pop\n        /* \"#utility.yul\":13445:13587   */\n      swap2\n      swap1\n      pop\n      jump\t// out\n        /* \"#utility.yul\":13593:13668   */\n    tag_135:\n        /* \"#utility.yul\":13636:13639   */\n      0x00\n        /* \"#utility.yul\":13657:13662   */\n      dup2\n        /* \"#utility.yul\":13650:13662   */\n      swap1\n      pop\n        /* \"#utility.yul\":13593:13668   */\n      swap2\n      swap1\n      pop\n      jump\t// out\n        /* \"#utility.yul\":13674:13943   */\n    tag_136:\n        /* \"#utility.yul\":13784:13823   */\n      tag_282\n        /* \"#utility.yul\":13815:13822   */\n      dup4\n        /* \"#utility.yul\":13784:13823   */\n      tag_134\n      jump\t// in\n    tag_282:\n        /* \"#utility.yul\":13845:13936   */\n      tag_283\n        /* \"#utility.yul\":13894:13935   */\n      tag_284\n        /* \"#utility.yul\":13918:13934   */\n      dup3\n        /* \"#utility.yul\":13894:13935   */\n      tag_135\n      jump\t// in\n    tag_284:\n        /* \"#utility.yul\":13886:13892   */\n      dup5\n        /* \"#utility.yul\":13879:13883   */\n      dup5\n        /* \"#utility.yul\":13873:13884   */\n      sload\n        /* \"#utility.yul\":13845:13936   */\n      tag_132\n      jump\t// in\n    tag_283:\n        /* \"#utility.yul\":13839:13843   */\n      dup3\n        /* \"#utility.yul\":13832:13937   */\n      sstore\n        /* \"#utility.yul\":13750:13943   */\n      pop\n        /* \"#utility.yul\":13674:13943   */\n      pop\n      pop\n      pop\n      jump\t// out\n        /* \"#utility.yul\":13949:14022   */\n    tag_137:\n        /* \"#utility.yul\":13994:13997   */\n      0x00\n        /* \"#utility.yul\":13949:14022   */\n      swap1\n      jump\t// out\n        /* \"#utility.yul\":14028:14217   */\n    tag_138:\n        /* \"#utility.yul\":14105:14137   */\n      tag_287\n      tag_137\n      jump\t// in\n    tag_287:\n        /* \"#utility.yul\":14146:14211   */\n      tag_288\n        /* \"#utility.yul\":14204:14210   */\n      dup2\n        /* \"#utility.yul\":14196:14202   */\n      dup5\n        /* \"#utility.yul\":14190:14194   */\n      dup5\n        /* \"#utility.yul\":14146:14211   */\n      tag_136\n      jump\t// in\n    tag_288:\n        /* \"#utility.yul\":14081:14217   */\n      pop\n        /* \"#utility.yul\":14028:14217   */\n      pop\n      pop\n      jump\t// out\n        /* \"#utility.yul\":14223:14409   */\n    tag_139:\n        /* \"#utility.yul\":14283:14403   */\n    tag_290:\n        /* \"#utility.yul\":14300:14303   */\n      dup2\n        /* \"#utility.yul\":14293:14298   */\n      dup2\n        /* \"#utility.yul\":14290:14304   */\n      lt\n        /* \"#utility.yul\":14283:14403   */\n      iszero\n      tag_292\n      jumpi\n        /* \"#utility.yul\":14354:14393   */\n      tag_293\n        /* \"#utility.yul\":14391:14392   */\n      0x00\n        /* \"#utility.yul\":14384:14389   */\n      dup3\n        /* \"#utility.yul\":14354:14393   */\n      tag_138\n      jump\t// in\n    tag_293:\n        /* \"#utility.yul\":14327:14328   */\n      0x01\n        /* \"#utility.yul\":14320:14325   */\n      dup2\n        /* \"#utility.yul\":14316:14329   */\n      add\n        /* \"#utility.yul\":14307:14329   */\n      swap1\n      pop\n        /* \"#utility.yul\":14283:14403   */\n      jump(tag_290)\n    tag_292:\n        /* \"#utility.yul\":14223:14409   */\n      pop\n      pop\n      jump\t// out\n        /* \"#utility.yul\":14415:14958   */\n    tag_140:\n        /* \"#utility.yul\":14516:14518   */\n      0x1f\n        /* \"#utility.yul\":14511:14514   */\n      dup3\n        /* \"#utility.yul\":14508:14519   */\n      gt\n        /* \"#utility.yul\":14505:14951   */\n      iszero\n      tag_295\n      jumpi\n        /* \"#utility.yul\":14550:14588   */\n      tag_296\n        /* \"#utility.yul\":14582:14587   */\n      dup2\n        /* \"#utility.yul\":14550:14588   */\n      tag_129\n      jump\t// in\n    tag_296:\n        /* \"#utility.yul\":14634:14663   */\n      tag_297\n        /* \"#utility.yul\":14652:14662   */\n      dup5\n        /* \"#utility.yul\":14634:14663   */\n      tag_130\n      jump\t// in\n    tag_297:\n        /* \"#utility.yul\":14624:14632   */\n      dup2\n        /* \"#utility.yul\":14620:14664   */\n      add\n        /* \"#utility.yul\":14817:14819   */\n      0x20\n        /* \"#utility.yul\":14805:14815   */\n      dup6\n        /* \"#utility.yul\":14802:14820   */\n      lt\n        /* \"#utility.yul\":14799:14848   */\n      iszero\n      tag_298\n      jumpi\n        /* \"#utility.yul\":14838:14846   */\n      dup2\n        /* \"#utility.yul\":14823:14846   */\n      swap1\n      pop\n        /* \"#utility.yul\":14799:14848   */\n    tag_298:\n        /* \"#utility.yul\":14861:14941   */\n      tag_299\n        /* \"#utility.yul\":14917:14939   */\n      tag_300\n        /* \"#utility.yul\":14935:14938   */\n      dup6\n        /* \"#utility.yul\":14917:14939   */\n      tag_130\n      jump\t// in\n    tag_300:\n        /* \"#utility.yul\":14907:14915   */\n      dup4\n        /* \"#utility.yul\":14903:14940   */\n      add\n        /* \"#utility.yul\":14890:14901   */\n      dup3\n        /* \"#utility.yul\":14861:14941   */\n      tag_139\n      jump\t// in\n    tag_299:\n        /* \"#utility.yul\":14520:14951   */\n      pop\n      pop\n        /* \"#utility.yul\":14505:14951   */\n    tag_295:\n        /* \"#utility.yul\":14415:14958   */\n      pop\n      pop\n      pop\n      jump\t// out\n        /* \"#utility.yul\":14964:15081   */\n    tag_141:\n        /* \"#utility.yul\":15018:15026   */\n      0x00\n        /* \"#utility.yul\":15068:15073   */\n      dup3\n        /* \"#utility.yul\":15062:15066   */\n      dup3\n        /* \"#utility.yul\":15058:15074   */\n      shr\n        /* \"#utility.yul\":15037:15074   */\n      swap1\n      pop\n        /* \"#utility.yul\":14964:15081   */\n      swap3\n      swap2\n      pop\n      pop\n      jump\t// out\n        /* \"#utility.yul\":15087:15256   */\n    tag_142:\n        /* \"#utility.yul\":15131:15137   */\n      0x00\n        /* \"#utility.yul\":15164:15215   */\n      tag_303\n        /* \"#utility.yul\":15212:15213   */\n      0x00\n        /* \"#utility.yul\":15208:15214   */\n      not\n        /* \"#utility.yul\":15200:15205   */\n      dup5\n        /* \"#utility.yul\":15197:15198   */\n      0x08\n        /* \"#utility.yul\":15193:15206   */\n      mul\n        /* \"#utility.yul\":15164:15215   */\n      tag_141\n      jump\t// in\n    tag_303:\n        /* \"#utility.yul\":15160:15216   */\n      not\n        /* \"#utility.yul\":15245:15249   */\n      dup1\n        /* \"#utility.yul\":15239:15243   */\n      dup4\n        /* \"#utility.yul\":15235:15250   */\n      and\n        /* \"#utility.yul\":15225:15250   */\n      swap2\n      pop\n        /* \"#utility.yul\":15138:15256   */\n      pop\n        /* \"#utility.yul\":15087:15256   */\n      swap3\n      swap2\n      pop\n      pop\n      jump\t// out\n        /* \"#utility.yul\":15261:15556   */\n    tag_143:\n        /* \"#utility.yul\":15337:15341   */\n      0x00\n        /* \"#utility.yul\":15483:15512   */\n      tag_305\n        /* \"#utility.yul\":15508:15511   */\n      dup4\n        /* \"#utility.yul\":15502:15506   */\n      dup4\n        /* \"#utility.yul\":15483:15512   */\n      tag_142\n      jump\t// in\n    tag_305:\n        /* \"#utility.yul\":15475:15512   */\n      swap2\n      pop\n        /* \"#utility.yul\":15545:15548   */\n      dup3\n        /* \"#utility.yul\":15542:15543   */\n      0x02\n        /* \"#utility.yul\":15538:15549   */\n      mul\n        /* \"#utility.yul\":15532:15536   */\n      dup3\n        /* \"#utility.yul\":15529:15550   */\n      or\n        /* \"#utility.yul\":15521:15550   */\n      swap1\n      pop\n        /* \"#utility.yul\":15261:15556   */\n      swap3\n      swap2\n      pop\n      pop\n      jump\t// out\n        /* \"#utility.yul\":15561:16956   */\n    tag_83:\n        /* \"#utility.yul\":15678:15715   */\n      tag_307\n        /* \"#utility.yul\":15711:15714   */\n      dup3\n        /* \"#utility.yul\":15678:15715   */\n      tag_99\n      jump\t// in\n    tag_307:\n        /* \"#utility.yul\":15780:15798   */\n      0xffffffffffffffff\n        /* \"#utility.yul\":15772:15778   */\n      dup2\n        /* \"#utility.yul\":15769:15799   */\n      gt\n        /* \"#utility.yul\":15766:15822   */\n      iszero\n      tag_308\n      jumpi\n        /* \"#utility.yul\":15802:15820   */\n      tag_309\n      tag_116\n      jump\t// in\n    tag_309:\n        /* \"#utility.yul\":15766:15822   */\n    tag_308:\n        /* \"#utility.yul\":15846:15884   */\n      tag_310\n        /* \"#utility.yul\":15878:15882   */\n      dup3\n        /* \"#utility.yul\":15872:15883   */\n      sload\n        /* \"#utility.yul\":15846:15884   */\n      tag_34\n      jump\t// in\n    tag_310:\n        /* \"#utility.yul\":15931:15998   */\n      tag_311\n        /* \"#utility.yul\":15991:15997   */\n      dup3\n        /* \"#utility.yul\":15983:15989   */\n      dup3\n        /* \"#utility.yul\":15977:15981   */\n      dup6\n        /* \"#utility.yul\":15931:15998   */\n      tag_140\n      jump\t// in\n    tag_311:\n        /* \"#utility.yul\":16025:16026   */\n      0x00\n        /* \"#utility.yul\":16049:16053   */\n      0x20\n        /* \"#utility.yul\":16036:16053   */\n      swap1\n      pop\n        /* \"#utility.yul\":16081:16083   */\n      0x1f\n        /* \"#utility.yul\":16073:16079   */\n      dup4\n        /* \"#utility.yul\":16070:16084   */\n      gt\n        /* \"#utility.yul\":16098:16099   */\n      0x01\n        /* \"#utility.yul\":16093:16711   */\n      dup2\n      eq\n      tag_313\n      jumpi\n        /* \"#utility.yul\":16755:16756   */\n      0x00\n        /* \"#utility.yul\":16772:16778   */\n      dup5\n        /* \"#utility.yul\":16769:16846   */\n      iszero\n      tag_314\n      jumpi\n        /* \"#utility.yul\":16821:16830   */\n      dup3\n        /* \"#utility.yul\":16816:16819   */\n      dup8\n        /* \"#utility.yul\":16812:16831   */\n      add\n        /* \"#utility.yul\":16806:16832   */\n      mload\n        /* \"#utility.yul\":16797:16832   */\n      swap1\n      pop\n        /* \"#utility.yul\":16769:16846   */\n    tag_314:\n        /* \"#utility.yul\":16872:16939   */\n      tag_315\n        /* \"#utility.yul\":16932:16938   */\n      dup6\n        /* \"#utility.yul\":16925:16930   */\n      dup3\n        /* \"#utility.yul\":16872:16939   */\n      tag_143\n      jump\t// in\n    tag_315:\n        /* \"#utility.yul\":16866:16870   */\n      dup7\n        /* \"#utility.yul\":16859:16940   */\n      sstore\n        /* \"#utility.yul\":16728:16950   */\n      pop\n        /* \"#utility.yul\":16063:16950   */\n      jump(tag_312)\n        /* \"#utility.yul\":16093:16711   */\n    tag_313:\n        /* \"#utility.yul\":16145:16149   */\n      0x1f\n        /* \"#utility.yul\":16141:16150   */\n      not\n        /* \"#utility.yul\":16133:16139   */\n      dup5\n        /* \"#utility.yul\":16129:16151   */\n      and\n        /* \"#utility.yul\":16179:16216   */\n      tag_316\n        /* \"#utility.yul\":16211:16215   */\n      dup7\n        /* \"#utility.yul\":16179:16216   */\n      tag_129\n      jump\t// in\n    tag_316:\n        /* \"#utility.yul\":16238:16239   */\n      0x00\n        /* \"#utility.yul\":16252:16460   */\n    tag_317:\n        /* \"#utility.yul\":16266:16273   */\n      dup3\n        /* \"#utility.yul\":16263:16264   */\n      dup2\n        /* \"#utility.yul\":16260:16274   */\n      lt\n        /* \"#utility.yul\":16252:16460   */\n      iszero\n      tag_319\n      jumpi\n        /* \"#utility.yul\":16345:16354   */\n      dup5\n        /* \"#utility.yul\":16340:16343   */\n      dup10\n        /* \"#utility.yul\":16336:16355   */\n      add\n        /* \"#utility.yul\":16330:16356   */\n      mload\n        /* \"#utility.yul\":16322:16328   */\n      dup3\n        /* \"#utility.yul\":16315:16357   */\n      sstore\n        /* \"#utility.yul\":16396:16397   */\n      0x01\n        /* \"#utility.yul\":16388:16394   */\n      dup3\n        /* \"#utility.yul\":16384:16398   */\n      add\n        /* \"#utility.yul\":16374:16398   */\n      swap2\n      pop\n        /* \"#utility.yul\":16443:16445   */\n      0x20\n        /* \"#utility.yul\":16432:16441   */\n      dup6\n        /* \"#utility.yul\":16428:16446   */\n      add\n        /* \"#utility.yul\":16415:16446   */\n      swap5\n      pop\n        /* \"#utility.yul\":16289:16293   */\n      0x20\n        /* \"#utility.yul\":16286:16287   */\n      dup2\n        /* \"#utility.yul\":16282:16294   */\n      add\n        /* \"#utility.yul\":16277:16294   */\n      swap1\n      pop\n        /* \"#utility.yul\":16252:16460   */\n      jump(tag_317)\n    tag_319:\n        /* \"#utility.yul\":16488:16494   */\n      dup7\n        /* \"#utility.yul\":16479:16486   */\n      dup4\n        /* \"#utility.yul\":16476:16495   */\n      lt\n        /* \"#utility.yul\":16473:16652   */\n      iszero\n      tag_320\n      jumpi\n        /* \"#utility.yul\":16546:16555   */\n      dup5\n        /* \"#utility.yul\":16541:16544   */\n      dup10\n        /* \"#utility.yul\":16537:16556   */\n      add\n        /* \"#utility.yul\":16531:16557   */\n      mload\n        /* \"#utility.yul\":16589:16637   */\n      tag_321\n        /* \"#utility.yul\":16631:16635   */\n      0x1f\n        /* \"#utility.yul\":16623:16629   */\n      dup10\n        /* \"#utility.yul\":16619:16636   */\n      and\n        /* \"#utility.yul\":16608:16617   */\n      dup3\n        /* \"#utility.yul\":16589:16637   */\n      tag_142\n      jump\t// in\n    tag_321:\n        /* \"#utility.yul\":16581:16587   */\n      dup4\n        /* \"#utility.yul\":16574:16638   */\n      sstore\n        /* \"#utility.yul\":16496:16652   */\n      pop\n        /* \"#utility.yul\":16473:16652   */\n    tag_320:\n        /* \"#utility.yul\":16698:16699   */\n      0x01\n        /* \"#utility.yul\":16694:16695   */\n      0x02\n        /* \"#utility.yul\":16686:16692   */\n      dup9\n        /* \"#utility.yul\":16682:16696   */\n      mul\n        /* \"#utility.yul\":16678:16700   */\n      add\n        /* \"#utility.yul\":16672:16676   */\n      dup9\n        /* \"#utility.yul\":16665:16701   */\n      sstore\n        /* \"#utility.yul\":16100:16711   */\n      pop\n      pop\n      pop\n        /* \"#utility.yul\":16063:16950   */\n    tag_312:\n      pop\n        /* \"#utility.yul\":15653:16956   */\n      pop\n      pop\n      pop\n        /* \"#utility.yul\":15561:16956   */\n      pop\n      pop\n      jump\t// out\n        /* \"#utility.yul\":16962:17275   */\n    tag_89:\n        /* \"#utility.yul\":17075:17079   */\n      0x00\n        /* \"#utility.yul\":17113:17115   */\n      0x20\n        /* \"#utility.yul\":17102:17111   */\n      dup3\n        /* \"#utility.yul\":17098:17116   */\n      add\n        /* \"#utility.yul\":17090:17116   */\n      swap1\n      pop\n        /* \"#utility.yul\":17162:17171   */\n      dup2\n        /* \"#utility.yul\":17156:17160   */\n      dup2\n        /* \"#utility.yul\":17152:17172   */\n      sub\n        /* \"#utility.yul\":17148:17149   */\n      0x00\n        /* \"#utility.yul\":17137:17146   */\n      dup4\n        /* \"#utility.yul\":17133:17150   */\n      add\n        /* \"#utility.yul\":17126:17173   */\n      mstore\n        /* \"#utility.yul\":17190:17268   */\n      tag_323\n        /* \"#utility.yul\":17263:17267   */\n      dup2\n        /* \"#utility.yul\":17254:17260   */\n      dup5\n        /* \"#utility.yul\":17190:17268   */\n      tag_103\n      jump\t// in\n    tag_323:\n        /* \"#utility.yul\":17182:17268   */\n      swap1\n      pop\n        /* \"#utility.yul\":16962:17275   */\n      swap3\n      swap2\n      pop\n      pop\n      jump\t// out\n\n    auxdata: 0xa264697066735822122018700032647901a1335adb8216f09716edb65f372612b4dbb7388d94db1c521164736f6c634300081a0033\n}\n",
				"bytecode": {
					"linkReferences": {},
					"object": "6080604052348015600e575f80fd5b506113078061001c5f395ff3fe608060405234801561000f575f80fd5b5060043610610055575f3560e01c80630869cfbc1461005957806318a231a91461008e5780634b426178146100ac5780634ba0a020146100e0578063babb1d41146100fc575b5f80fd5b610073600480360381019061006e9190610a86565b61012c565b60405161008596959493929190610b4a565b60405180910390f35b6100966103a7565b6040516100a39190610c7c565b60405180910390f35b6100c660048036038101906100c19190610a86565b610432565b6040516100d7959493929190610c9c565b60405180910390f35b6100fa60048036038101906100f59190610e35565b61075e565b005b61011660048036038101906101119190610f3c565b6109e0565b6040516101239190610f67565b60405180910390f35b5f602052805f5260405f205f91509050805f01805461014a90610fad565b80601f016020809104026020016040519081016040528092919081815260200182805461017690610fad565b80156101c15780601f10610198576101008083540402835291602001916101c1565b820191905f5260205f20905b8154815290600101906020018083116101a457829003601f168201915b5050505050908060010180546101d690610fad565b80601f016020809104026020016040519081016040528092919081815260200182805461020290610fad565b801561024d5780601f106102245761010080835404028352916020019161024d565b820191905f5260205f20905b81548152906001019060200180831161023057829003601f168201915b50505050509080600201805461026290610fad565b80601f016020809104026020016040519081016040528092919081815260200182805461028e90610fad565b80156102d95780601f106102b0576101008083540402835291602001916102d9565b820191905f5260205f20905b8154815290600101906020018083116102bc57829003601f168201915b5050505050908060030180546102ee90610fad565b80601f016020809104026020016040519081016040528092919081815260200182805461031a90610fad565b80156103655780601f1061033c57610100808354040283529160200191610365565b820191905f5260205f20905b81548152906001019060200180831161034857829003601f168201915b505050505090806004015f9054906101000a900473ffffffffffffffffffffffffffffffffffffffff16908060040160149054906101000a900460ff16905086565b6060600180548060200260200160405190810160405280929190818152602001828054801561042857602002820191905f5260205f20905b815f9054906101000a900473ffffffffffffffffffffffffffffffffffffffff1673ffffffffffffffffffffffffffffffffffffffff16815260200190600101908083116103df575b5050505050905090565b6060806060805f805f808873ffffffffffffffffffffffffffffffffffffffff1673ffffffffffffffffffffffffffffffffffffffff1681526020019081526020015f206040518060c00160405290815f8201805461049090610fad565b80601f01602080910402602001604051908101604052809291908181526020018280546104bc90610fad565b80156105075780601f106104de57610100808354040283529160200191610507565b820191905f5260205f20905b8154815290600101906020018083116104ea57829003601f168201915b5050505050815260200160018201805461052090610fad565b80601f016020809104026020016040519081016040528092919081815260200182805461054c90610fad565b80156105975780601f1061056e57610100808354040283529160200191610597565b820191905f5260205f20905b81548152906001019060200180831161057a57829003601f168201915b505050505081526020016002820180546105b090610fad565b80601f01602080910402602001604051908101604052809291908181526020018280546105dc90610fad565b80156106275780601f106105fe57610100808354040283529160200191610627565b820191905f5260205f20905b81548152906001019060200180831161060a57829003601f168201915b5050505050815260200160038201805461064090610fad565b80601f016020809104026020016040519081016040528092919081815260200182805461066c90610fad565b80156106b75780601f1061068e576101008083540402835291602001916106b7565b820191905f5260205f20905b81548152906001019060200180831161069a57829003601f168201915b50505050508152602001600482015f9054906101000a900473ffffffffffffffffffffffffffffffffffffffff1673ffffffffffffffffffffffffffffffffffffffff1673ffffffffffffffffffffffffffffffffffffffff1681526020016004820160149054906101000a900460ff1615151515815250509050805f01518160200151826040015183606001518460800151955095509550955095505091939590929450565b5f803373ffffffffffffffffffffffffffffffffffffffff1673ffffffffffffffffffffffffffffffffffffffff1681526020019081526020015f2060040160149054906101000a900460ff16156107eb576040517f08c379a00000000000000000000000000000000000000000000000000000000081526004016107e290611027565b60405180910390fd5b6040518060c001604052808581526020018481526020018381526020018281526020013373ffffffffffffffffffffffffffffffffffffffff168152602001600115158152505f803373ffffffffffffffffffffffffffffffffffffffff1673ffffffffffffffffffffffffffffffffffffffff1681526020019081526020015f205f820151815f01908161088091906111e2565b50602082015181600101908161089691906111e2565b5060408201518160020190816108ac91906111e2565b5060608201518160030190816108c291906111e2565b506080820151816004015f6101000a81548173ffffffffffffffffffffffffffffffffffffffff021916908373ffffffffffffffffffffffffffffffffffffffff16021790555060a08201518160040160146101000a81548160ff021916908315150217905550905050600133908060018154018082558091505060019003905f5260205f20015f9091909190916101000a81548173ffffffffffffffffffffffffffffffffffffffff021916908373ffffffffffffffffffffffffffffffffffffffff1602179055503373ffffffffffffffffffffffffffffffffffffffff167fc85b128388b9c331a2a5485dce4cd0f3db9f7c279d327ce95d6d39d6c94644c7826040516109d291906112b1565b60405180910390a250505050565b600181815481106109ef575f80fd5b905f5260205f20015f915054906101000a900473ffffffffffffffffffffffffffffffffffffffff1681565b5f604051905090565b5f80fd5b5f80fd5b5f73ffffffffffffffffffffffffffffffffffffffff82169050919050565b5f610a5582610a2c565b9050919050565b610a6581610a4b565b8114610a6f575f80fd5b50565b5f81359050610a8081610a5c565b92915050565b5f60208284031215610a9b57610a9a610a24565b5b5f610aa884828501610a72565b91505092915050565b5f81519050919050565b5f82825260208201905092915050565b8281835e5f83830152505050565b5f601f19601f8301169050919050565b5f610af382610ab1565b610afd8185610abb565b9350610b0d818560208601610acb565b610b1681610ad9565b840191505092915050565b610b2a81610a4b565b82525050565b5f8115159050919050565b610b4481610b30565b82525050565b5f60c0820190508181035f830152610b628189610ae9565b90508181036020830152610b768188610ae9565b90508181036040830152610b8a8187610ae9565b90508181036060830152610b9e8186610ae9565b9050610bad6080830185610b21565b610bba60a0830184610b3b565b979650505050505050565b5f81519050919050565b5f82825260208201905092915050565b5f819050602082019050919050565b610bf781610a4b565b82525050565b5f610c088383610bee565b60208301905092915050565b5f602082019050919050565b5f610c2a82610bc5565b610c348185610bcf565b9350610c3f83610bdf565b805f5b83811015610c6f578151610c568882610bfd565b9750610c6183610c14565b925050600181019050610c42565b5085935050505092915050565b5f6020820190508181035f830152610c948184610c20565b905092915050565b5f60a0820190508181035f830152610cb48188610ae9565b90508181036020830152610cc88187610ae9565b90508181036040830152610cdc8186610ae9565b90508181036060830152610cf08185610ae9565b9050610cff6080830184610b21565b9695505050505050565b5f80fd5b5f80fd5b7f4e487b71000000000000000000000000000000000000000000000000000000005f52604160045260245ffd5b610d4782610ad9565b810181811067ffffffffffffffff82111715610d6657610d65610d11565b5b80604052505050565b5f610d78610a1b565b9050610d848282610d3e565b919050565b5f67ffffffffffffffff821115610da357610da2610d11565b5b610dac82610ad9565b9050602081019050919050565b828183375f83830152505050565b5f610dd9610dd484610d89565b610d6f565b905082815260208101848484011115610df557610df4610d0d565b5b610e00848285610db9565b509392505050565b5f82601f830112610e1c57610e1b610d09565b5b8135610e2c848260208601610dc7565b91505092915050565b5f805f8060808587031215610e4d57610e4c610a24565b5b5f85013567ffffffffffffffff811115610e6a57610e69610a28565b5b610e7687828801610e08565b945050602085013567ffffffffffffffff811115610e9757610e96610a28565b5b610ea387828801610e08565b935050604085013567ffffffffffffffff811115610ec457610ec3610a28565b5b610ed087828801610e08565b925050606085013567ffffffffffffffff811115610ef157610ef0610a28565b5b610efd87828801610e08565b91505092959194509250565b5f819050919050565b610f1b81610f09565b8114610f25575f80fd5b50565b5f81359050610f3681610f12565b92915050565b5f60208284031215610f5157610f50610a24565b5b5f610f5e84828501610f28565b91505092915050565b5f602082019050610f7a5f830184610b21565b92915050565b7f4e487b71000000000000000000000000000000000000000000000000000000005f52602260045260245ffd5b5f6002820490506001821680610fc457607f821691505b602082108103610fd757610fd6610f80565b5b50919050565b7f596f752061726520616c726561647920726567697374657265640000000000005f82015250565b5f611011601a83610abb565b915061101c82610fdd565b602082019050919050565b5f6020820190508181035f83015261103e81611005565b9050919050565b5f819050815f5260205f209050919050565b5f6020601f8301049050919050565b5f82821b905092915050565b5f600883026110a17fffffffffffffffffffffffffffffffffffffffffffffffffffffffffffffffff82611066565b6110ab8683611066565b95508019841693508086168417925050509392505050565b5f819050919050565b5f6110e66110e16110dc84610f09565b6110c3565b610f09565b9050919050565b5f819050919050565b6110ff836110cc565b61111361110b826110ed565b848454611072565b825550505050565b5f90565b61112761111b565b6111328184846110f6565b505050565b5b818110156111555761114a5f8261111f565b600181019050611138565b5050565b601f82111561119a5761116b81611045565b61117484611057565b81016020851015611183578190505b61119761118f85611057565b830182611137565b50505b505050565b5f82821c905092915050565b5f6111ba5f198460080261119f565b1980831691505092915050565b5f6111d283836111ab565b9150826002028217905092915050565b6111eb82610ab1565b67ffffffffffffffff81111561120457611203610d11565b5b61120e8254610fad565b611219828285611159565b5f60209050601f83116001811461124a575f8415611238578287015190505b61124285826111c7565b8655506112a9565b601f19841661125886611045565b5f5b8281101561127f5784890151825560018201915060208501945060208101905061125a565b8683101561129c5784890151611298601f8916826111ab565b8355505b6001600288020188555050505b505050505050565b5f6020820190508181035f8301526112c98184610ae9565b90509291505056fea264697066735822122018700032647901a1335adb8216f09716edb65f372612b4dbb7388d94db1c521164736f6c634300081a0033",
					"opcodes": "PUSH1 0x80 PUSH1 0x40 MSTORE CALLVALUE DUP1 ISZERO PUSH1 0xE JUMPI PUSH0 DUP1 REVERT JUMPDEST POP PUSH2 0x1307 DUP1 PUSH2 0x1C PUSH0 CODECOPY PUSH0 RETURN INVALID PUSH1 0x80 PUSH1 0x40 MSTORE CALLVALUE DUP1 ISZERO PUSH2 0xF JUMPI PUSH0 DUP1 REVERT JUMPDEST POP PUSH1 0x4 CALLDATASIZE LT PUSH2 0x55 JUMPI PUSH0 CALLDATALOAD PUSH1 0xE0 SHR DUP1 PUSH4 0x869CFBC EQ PUSH2 0x59 JUMPI DUP1 PUSH4 0x18A231A9 EQ PUSH2 0x8E JUMPI DUP1 PUSH4 0x4B426178 EQ PUSH2 0xAC JUMPI DUP1 PUSH4 0x4BA0A020 EQ PUSH2 0xE0 JUMPI DUP1 PUSH4 0xBABB1D41 EQ PUSH2 0xFC JUMPI JUMPDEST PUSH0 DUP1 REVERT JUMPDEST PUSH2 0x73 PUSH1 0x4 DUP1 CALLDATASIZE SUB DUP2 ADD SWAP1 PUSH2 0x6E SWAP2 SWAP1 PUSH2 0xA86 JUMP JUMPDEST PUSH2 0x12C JUMP JUMPDEST PUSH1 0x40 MLOAD PUSH2 0x85 SWAP7 SWAP6 SWAP5 SWAP4 SWAP3 SWAP2 SWAP1 PUSH2 0xB4A JUMP JUMPDEST PUSH1 0x40 MLOAD DUP1 SWAP2 SUB SWAP1 RETURN JUMPDEST PUSH2 0x96 PUSH2 0x3A7 JUMP JUMPDEST PUSH1 0x40 MLOAD PUSH2 0xA3 SWAP2 SWAP1 PUSH2 0xC7C JUMP JUMPDEST PUSH1 0x40 MLOAD DUP1 SWAP2 SUB SWAP1 RETURN JUMPDEST PUSH2 0xC6 PUSH1 0x4 DUP1 CALLDATASIZE SUB DUP2 ADD SWAP1 PUSH2 0xC1 SWAP2 SWAP1 PUSH2 0xA86 JUMP JUMPDEST PUSH2 0x432 JUMP JUMPDEST PUSH1 0x40 MLOAD PUSH2 0xD7 SWAP6 SWAP5 SWAP4 SWAP3 SWAP2 SWAP1 PUSH2 0xC9C JUMP JUMPDEST PUSH1 0x40 MLOAD DUP1 SWAP2 SUB SWAP1 RETURN JUMPDEST PUSH2 0xFA PUSH1 0x4 DUP1 CALLDATASIZE SUB DUP2 ADD SWAP1 PUSH2 0xF5 SWAP2 SWAP1 PUSH2 0xE35 JUMP JUMPDEST PUSH2 0x75E JUMP JUMPDEST STOP JUMPDEST PUSH2 0x116 PUSH1 0x4 DUP1 CALLDATASIZE SUB DUP2 ADD SWAP1 PUSH2 0x111 SWAP2 SWAP1 PUSH2 0xF3C JUMP JUMPDEST PUSH2 0x9E0 JUMP JUMPDEST PUSH1 0x40 MLOAD PUSH2 0x123 SWAP2 SWAP1 PUSH2 0xF67 JUMP JUMPDEST PUSH1 0x40 MLOAD DUP1 SWAP2 SUB SWAP1 RETURN JUMPDEST PUSH0 PUSH1 0x20 MSTORE DUP1 PUSH0 MSTORE PUSH1 0x40 PUSH0 KECCAK256 PUSH0 SWAP2 POP SWAP1 POP DUP1 PUSH0 ADD DUP1 SLOAD PUSH2 0x14A SWAP1 PUSH2 0xFAD JUMP JUMPDEST DUP1 PUSH1 0x1F ADD PUSH1 0x20 DUP1 SWAP2 DIV MUL PUSH1 0x20 ADD PUSH1 0x40 MLOAD SWAP1 DUP2 ADD PUSH1 0x40 MSTORE DUP1 SWAP3 SWAP2 SWAP1 DUP2 DUP2 MSTORE PUSH1 0x20 ADD DUP3 DUP1 SLOAD PUSH2 0x176 SWAP1 PUSH2 0xFAD JUMP JUMPDEST DUP1 ISZERO PUSH2 0x1C1 JUMPI DUP1 PUSH1 0x1F LT PUSH2 0x198 JUMPI PUSH2 0x100 DUP1 DUP4 SLOAD DIV MUL DUP4 MSTORE SWAP2 PUSH1 0x20 ADD SWAP2 PUSH2 0x1C1 JUMP JUMPDEST DUP3 ADD SWAP2 SWAP1 PUSH0 MSTORE PUSH1 0x20 PUSH0 KECCAK256 SWAP1 JUMPDEST DUP2 SLOAD DUP2 MSTORE SWAP1 PUSH1 0x1 ADD SWAP1 PUSH1 0x20 ADD DUP1 DUP4 GT PUSH2 0x1A4 JUMPI DUP3 SWAP1 SUB PUSH1 0x1F AND DUP3 ADD SWAP2 JUMPDEST POP POP POP POP POP SWAP1 DUP1 PUSH1 0x1 ADD DUP1 SLOAD PUSH2 0x1D6 SWAP1 PUSH2 0xFAD JUMP JUMPDEST DUP1 PUSH1 0x1F ADD PUSH1 0x20 DUP1 SWAP2 DIV MUL PUSH1 0x20 ADD PUSH1 0x40 MLOAD SWAP1 DUP2 ADD PUSH1 0x40 MSTORE DUP1 SWAP3 SWAP2 SWAP1 DUP2 DUP2 MSTORE PUSH1 0x20 ADD DUP3 DUP1 SLOAD PUSH2 0x202 SWAP1 PUSH2 0xFAD JUMP JUMPDEST DUP1 ISZERO PUSH2 0x24D JUMPI DUP1 PUSH1 0x1F LT PUSH2 0x224 JUMPI PUSH2 0x100 DUP1 DUP4 SLOAD DIV MUL DUP4 MSTORE SWAP2 PUSH1 0x20 ADD SWAP2 PUSH2 0x24D JUMP JUMPDEST DUP3 ADD SWAP2 SWAP1 PUSH0 MSTORE PUSH1 0x20 PUSH0 KECCAK256 SWAP1 JUMPDEST DUP2 SLOAD DUP2 MSTORE SWAP1 PUSH1 0x1 ADD SWAP1 PUSH1 0x20 ADD DUP1 DUP4 GT PUSH2 0x230 JUMPI DUP3 SWAP1 SUB PUSH1 0x1F AND DUP3 ADD SWAP2 JUMPDEST POP POP POP POP POP SWAP1 DUP1 PUSH1 0x2 ADD DUP1 SLOAD PUSH2 0x262 SWAP1 PUSH2 0xFAD JUMP JUMPDEST DUP1 PUSH1 0x1F ADD PUSH1 0x20 DUP1 SWAP2 DIV MUL PUSH1 0x20 ADD PUSH1 0x40 MLOAD SWAP1 DUP2 ADD PUSH1 0x40 MSTORE DUP1 SWAP3 SWAP2 SWAP1 DUP2 DUP2 MSTORE PUSH1 0x20 ADD DUP3 DUP1 SLOAD PUSH2 0x28E SWAP1 PUSH2 0xFAD JUMP JUMPDEST DUP1 ISZERO PUSH2 0x2D9 JUMPI DUP1 PUSH1 0x1F LT PUSH2 0x2B0 JUMPI PUSH2 0x100 DUP1 DUP4 SLOAD DIV MUL DUP4 MSTORE SWAP2 PUSH1 0x20 ADD SWAP2 PUSH2 0x2D9 JUMP JUMPDEST DUP3 ADD SWAP2 SWAP1 PUSH0 MSTORE PUSH1 0x20 PUSH0 KECCAK256 SWAP1 JUMPDEST DUP2 SLOAD DUP2 MSTORE SWAP1 PUSH1 0x1 ADD SWAP1 PUSH1 0x20 ADD DUP1 DUP4 GT PUSH2 0x2BC JUMPI DUP3 SWAP1 SUB PUSH1 0x1F AND DUP3 ADD SWAP2 JUMPDEST POP POP POP POP POP SWAP1 DUP1 PUSH1 0x3 ADD DUP1 SLOAD PUSH2 0x2EE SWAP1 PUSH2 0xFAD JUMP JUMPDEST DUP1 PUSH1 0x1F ADD PUSH1 0x20 DUP1 SWAP2 DIV MUL PUSH1 0x20 ADD PUSH1 0x40 MLOAD SWAP1 DUP2 ADD PUSH1 0x40 MSTORE DUP1 SWAP3 SWAP2 SWAP1 DUP2 DUP2 MSTORE PUSH1 0x20 ADD DUP3 DUP1 SLOAD PUSH2 0x31A SWAP1 PUSH2 0xFAD JUMP JUMPDEST DUP1 ISZERO PUSH2 0x365 JUMPI DUP1 PUSH1 0x1F LT PUSH2 0x33C JUMPI PUSH2 0x100 DUP1 DUP4 SLOAD DIV MUL DUP4 MSTORE SWAP2 PUSH1 0x20 ADD SWAP2 PUSH2 0x365 JUMP JUMPDEST DUP3 ADD SWAP2 SWAP1 PUSH0 MSTORE PUSH1 0x20 PUSH0 KECCAK256 SWAP1 JUMPDEST DUP2 SLOAD DUP2 MSTORE SWAP1 PUSH1 0x1 ADD SWAP1 PUSH1 0x20 ADD DUP1 DUP4 GT PUSH2 0x348 JUMPI DUP3 SWAP1 SUB PUSH1 0x1F AND DUP3 ADD SWAP2 JUMPDEST POP POP POP POP POP SWAP1 DUP1 PUSH1 0x4 ADD PUSH0 SWAP1 SLOAD SWAP1 PUSH2 0x100 EXP SWAP1 DIV PUSH20 0xFFFFFFFFFFFFFFFFFFFFFFFFFFFFFFFFFFFFFFFF AND SWAP1 DUP1 PUSH1 0x4 ADD PUSH1 0x14 SWAP1 SLOAD SWAP1 PUSH2 0x100 EXP SWAP1 DIV PUSH1 0xFF AND SWAP1 POP DUP7 JUMP JUMPDEST PUSH1 0x60 PUSH1 0x1 DUP1 SLOAD DUP1 PUSH1 0x20 MUL PUSH1 0x20 ADD PUSH1 0x40 MLOAD SWAP1 DUP2 ADD PUSH1 0x40 MSTORE DUP1 SWAP3 SWAP2 SWAP1 DUP2 DUP2 MSTORE PUSH1 0x20 ADD DUP3 DUP1 SLOAD DUP1 ISZERO PUSH2 0x428 JUMPI PUSH1 0x20 MUL DUP3 ADD SWAP2 SWAP1 PUSH0 MSTORE PUSH1 0x20 PUSH0 KECCAK256 SWAP1 JUMPDEST DUP2 PUSH0 SWAP1 SLOAD SWAP1 PUSH2 0x100 EXP SWAP1 DIV PUSH20 0xFFFFFFFFFFFFFFFFFFFFFFFFFFFFFFFFFFFFFFFF AND PUSH20 0xFFFFFFFFFFFFFFFFFFFFFFFFFFFFFFFFFFFFFFFF AND DUP2 MSTORE PUSH1 0x20 ADD SWAP1 PUSH1 0x1 ADD SWAP1 DUP1 DUP4 GT PUSH2 0x3DF JUMPI JUMPDEST POP POP POP POP POP SWAP1 POP SWAP1 JUMP JUMPDEST PUSH1 0x60 DUP1 PUSH1 0x60 DUP1 PUSH0 DUP1 PUSH0 DUP1 DUP9 PUSH20 0xFFFFFFFFFFFFFFFFFFFFFFFFFFFFFFFFFFFFFFFF AND PUSH20 0xFFFFFFFFFFFFFFFFFFFFFFFFFFFFFFFFFFFFFFFF AND DUP2 MSTORE PUSH1 0x20 ADD SWAP1 DUP2 MSTORE PUSH1 0x20 ADD PUSH0 KECCAK256 PUSH1 0x40 MLOAD DUP1 PUSH1 0xC0 ADD PUSH1 0x40 MSTORE SWAP1 DUP2 PUSH0 DUP3 ADD DUP1 SLOAD PUSH2 0x490 SWAP1 PUSH2 0xFAD JUMP JUMPDEST DUP1 PUSH1 0x1F ADD PUSH1 0x20 DUP1 SWAP2 DIV MUL PUSH1 0x20 ADD PUSH1 0x40 MLOAD SWAP1 DUP2 ADD PUSH1 0x40 MSTORE DUP1 SWAP3 SWAP2 SWAP1 DUP2 DUP2 MSTORE PUSH1 0x20 ADD DUP3 DUP1 SLOAD PUSH2 0x4BC SWAP1 PUSH2 0xFAD JUMP JUMPDEST DUP1 ISZERO PUSH2 0x507 JUMPI DUP1 PUSH1 0x1F LT PUSH2 0x4DE JUMPI PUSH2 0x100 DUP1 DUP4 SLOAD DIV MUL DUP4 MSTORE SWAP2 PUSH1 0x20 ADD SWAP2 PUSH2 0x507 JUMP JUMPDEST DUP3 ADD SWAP2 SWAP1 PUSH0 MSTORE PUSH1 0x20 PUSH0 KECCAK256 SWAP1 JUMPDEST DUP2 SLOAD DUP2 MSTORE SWAP1 PUSH1 0x1 ADD SWAP1 PUSH1 0x20 ADD DUP1 DUP4 GT PUSH2 0x4EA JUMPI DUP3 SWAP1 SUB PUSH1 0x1F AND DUP3 ADD SWAP2 JUMPDEST POP POP POP POP POP DUP2 MSTORE PUSH1 0x20 ADD PUSH1 0x1 DUP3 ADD DUP1 SLOAD PUSH2 0x520 SWAP1 PUSH2 0xFAD JUMP JUMPDEST DUP1 PUSH1 0x1F ADD PUSH1 0x20 DUP1 SWAP2 DIV MUL PUSH1 0x20 ADD PUSH1 0x40 MLOAD SWAP1 DUP2 ADD PUSH1 0x40 MSTORE DUP1 SWAP3 SWAP2 SWAP1 DUP2 DUP2 MSTORE PUSH1 0x20 ADD DUP3 DUP1 SLOAD PUSH2 0x54C SWAP1 PUSH2 0xFAD JUMP JUMPDEST DUP1 ISZERO PUSH2 0x597 JUMPI DUP1 PUSH1 0x1F LT PUSH2 0x56E JUMPI PUSH2 0x100 DUP1 DUP4 SLOAD DIV MUL DUP4 MSTORE SWAP2 PUSH1 0x20 ADD SWAP2 PUSH2 0x597 JUMP JUMPDEST DUP3 ADD SWAP2 SWAP1 PUSH0 MSTORE PUSH1 0x20 PUSH0 KECCAK256 SWAP1 JUMPDEST DUP2 SLOAD DUP2 MSTORE SWAP1 PUSH1 0x1 ADD SWAP1 PUSH1 0x20 ADD DUP1 DUP4 GT PUSH2 0x57A JUMPI DUP3 SWAP1 SUB PUSH1 0x1F AND DUP3 ADD SWAP2 JUMPDEST POP POP POP POP POP DUP2 MSTORE PUSH1 0x20 ADD PUSH1 0x2 DUP3 ADD DUP1 SLOAD PUSH2 0x5B0 SWAP1 PUSH2 0xFAD JUMP JUMPDEST DUP1 PUSH1 0x1F ADD PUSH1 0x20 DUP1 SWAP2 DIV MUL PUSH1 0x20 ADD PUSH1 0x40 MLOAD SWAP1 DUP2 ADD PUSH1 0x40 MSTORE DUP1 SWAP3 SWAP2 SWAP1 DUP2 DUP2 MSTORE PUSH1 0x20 ADD DUP3 DUP1 SLOAD PUSH2 0x5DC SWAP1 PUSH2 0xFAD JUMP JUMPDEST DUP1 ISZERO PUSH2 0x627 JUMPI DUP1 PUSH1 0x1F LT PUSH2 0x5FE JUMPI PUSH2 0x100 DUP1 DUP4 SLOAD DIV MUL DUP4 MSTORE SWAP2 PUSH1 0x20 ADD SWAP2 PUSH2 0x627 JUMP JUMPDEST DUP3 ADD SWAP2 SWAP1 PUSH0 MSTORE PUSH1 0x20 PUSH0 KECCAK256 SWAP1 JUMPDEST DUP2 SLOAD DUP2 MSTORE SWAP1 PUSH1 0x1 ADD SWAP1 PUSH1 0x20 ADD DUP1 DUP4 GT PUSH2 0x60A JUMPI DUP3 SWAP1 SUB PUSH1 0x1F AND DUP3 ADD SWAP2 JUMPDEST POP POP POP POP POP DUP2 MSTORE PUSH1 0x20 ADD PUSH1 0x3 DUP3 ADD DUP1 SLOAD PUSH2 0x640 SWAP1 PUSH2 0xFAD JUMP JUMPDEST DUP1 PUSH1 0x1F ADD PUSH1 0x20 DUP1 SWAP2 DIV MUL PUSH1 0x20 ADD PUSH1 0x40 MLOAD SWAP1 DUP2 ADD PUSH1 0x40 MSTORE DUP1 SWAP3 SWAP2 SWAP1 DUP2 DUP2 MSTORE PUSH1 0x20 ADD DUP3 DUP1 SLOAD PUSH2 0x66C SWAP1 PUSH2 0xFAD JUMP JUMPDEST DUP1 ISZERO PUSH2 0x6B7 JUMPI DUP1 PUSH1 0x1F LT PUSH2 0x68E JUMPI PUSH2 0x100 DUP1 DUP4 SLOAD DIV MUL DUP4 MSTORE SWAP2 PUSH1 0x20 ADD SWAP2 PUSH2 0x6B7 JUMP JUMPDEST DUP3 ADD SWAP2 SWAP1 PUSH0 MSTORE PUSH1 0x20 PUSH0 KECCAK256 SWAP1 JUMPDEST DUP2 SLOAD DUP2 MSTORE SWAP1 PUSH1 0x1 ADD SWAP1 PUSH1 0x20 ADD DUP1 DUP4 GT PUSH2 0x69A JUMPI DUP3 SWAP1 SUB PUSH1 0x1F AND DUP3 ADD SWAP2 JUMPDEST POP POP POP POP POP DUP2 MSTORE PUSH1 0x20 ADD PUSH1 0x4 DUP3 ADD PUSH0 SWAP1 SLOAD SWAP1 PUSH2 0x100 EXP SWAP1 DIV PUSH20 0xFFFFFFFFFFFFFFFFFFFFFFFFFFFFFFFFFFFFFFFF AND PUSH20 0xFFFFFFFFFFFFFFFFFFFFFFFFFFFFFFFFFFFFFFFF AND PUSH20 0xFFFFFFFFFFFFFFFFFFFFFFFFFFFFFFFFFFFFFFFF AND DUP2 MSTORE PUSH1 0x20 ADD PUSH1 0x4 DUP3 ADD PUSH1 0x14 SWAP1 SLOAD SWAP1 PUSH2 0x100 EXP SWAP1 DIV PUSH1 0xFF AND ISZERO ISZERO ISZERO ISZERO DUP2 MSTORE POP POP SWAP1 POP DUP1 PUSH0 ADD MLOAD DUP2 PUSH1 0x20 ADD MLOAD DUP3 PUSH1 0x40 ADD MLOAD DUP4 PUSH1 0x60 ADD MLOAD DUP5 PUSH1 0x80 ADD MLOAD SWAP6 POP SWAP6 POP SWAP6 POP SWAP6 POP SWAP6 POP POP SWAP2 SWAP4 SWAP6 SWAP1 SWAP3 SWAP5 POP JUMP JUMPDEST PUSH0 DUP1 CALLER PUSH20 0xFFFFFFFFFFFFFFFFFFFFFFFFFFFFFFFFFFFFFFFF AND PUSH20 0xFFFFFFFFFFFFFFFFFFFFFFFFFFFFFFFFFFFFFFFF AND DUP2 MSTORE PUSH1 0x20 ADD SWAP1 DUP2 MSTORE PUSH1 0x20 ADD PUSH0 KECCAK256 PUSH1 0x4 ADD PUSH1 0x14 SWAP1 SLOAD SWAP1 PUSH2 0x100 EXP SWAP1 DIV PUSH1 0xFF AND ISZERO PUSH2 0x7EB JUMPI PUSH1 0x40 MLOAD PUSH32 0x8C379A000000000000000000000000000000000000000000000000000000000 DUP2 MSTORE PUSH1 0x4 ADD PUSH2 0x7E2 SWAP1 PUSH2 0x1027 JUMP JUMPDEST PUSH1 0x40 MLOAD DUP1 SWAP2 SUB SWAP1 REVERT JUMPDEST PUSH1 0x40 MLOAD DUP1 PUSH1 0xC0 ADD PUSH1 0x40 MSTORE DUP1 DUP6 DUP2 MSTORE PUSH1 0x20 ADD DUP5 DUP2 MSTORE PUSH1 0x20 ADD DUP4 DUP2 MSTORE PUSH1 0x20 ADD DUP3 DUP2 MSTORE PUSH1 0x20 ADD CALLER PUSH20 0xFFFFFFFFFFFFFFFFFFFFFFFFFFFFFFFFFFFFFFFF AND DUP2 MSTORE PUSH1 0x20 ADD PUSH1 0x1 ISZERO ISZERO DUP2 MSTORE POP PUSH0 DUP1 CALLER PUSH20 0xFFFFFFFFFFFFFFFFFFFFFFFFFFFFFFFFFFFFFFFF AND PUSH20 0xFFFFFFFFFFFFFFFFFFFFFFFFFFFFFFFFFFFFFFFF AND DUP2 MSTORE PUSH1 0x20 ADD SWAP1 DUP2 MSTORE PUSH1 0x20 ADD PUSH0 KECCAK256 PUSH0 DUP3 ADD MLOAD DUP2 PUSH0 ADD SWAP1 DUP2 PUSH2 0x880 SWAP2 SWAP1 PUSH2 0x11E2 JUMP JUMPDEST POP PUSH1 0x20 DUP3 ADD MLOAD DUP2 PUSH1 0x1 ADD SWAP1 DUP2 PUSH2 0x896 SWAP2 SWAP1 PUSH2 0x11E2 JUMP JUMPDEST POP PUSH1 0x40 DUP3 ADD MLOAD DUP2 PUSH1 0x2 ADD SWAP1 DUP2 PUSH2 0x8AC SWAP2 SWAP1 PUSH2 0x11E2 JUMP JUMPDEST POP PUSH1 0x60 DUP3 ADD MLOAD DUP2 PUSH1 0x3 ADD SWAP1 DUP2 PUSH2 0x8C2 SWAP2 SWAP1 PUSH2 0x11E2 JUMP JUMPDEST POP PUSH1 0x80 DUP3 ADD MLOAD DUP2 PUSH1 0x4 ADD PUSH0 PUSH2 0x100 EXP DUP2 SLOAD DUP2 PUSH20 0xFFFFFFFFFFFFFFFFFFFFFFFFFFFFFFFFFFFFFFFF MUL NOT AND SWAP1 DUP4 PUSH20 0xFFFFFFFFFFFFFFFFFFFFFFFFFFFFFFFFFFFFFFFF AND MUL OR SWAP1 SSTORE POP PUSH1 0xA0 DUP3 ADD MLOAD DUP2 PUSH1 0x4 ADD PUSH1 0x14 PUSH2 0x100 EXP DUP2 SLOAD DUP2 PUSH1 0xFF MUL NOT AND SWAP1 DUP4 ISZERO ISZERO MUL OR SWAP1 SSTORE POP SWAP1 POP POP PUSH1 0x1 CALLER SWAP1 DUP1 PUSH1 0x1 DUP2 SLOAD ADD DUP1 DUP3 SSTORE DUP1 SWAP2 POP POP PUSH1 0x1 SWAP1 SUB SWAP1 PUSH0 MSTORE PUSH1 0x20 PUSH0 KECCAK256 ADD PUSH0 SWAP1 SWAP2 SWAP1 SWAP2 SWAP1 SWAP2 PUSH2 0x100 EXP DUP2 SLOAD DUP2 PUSH20 0xFFFFFFFFFFFFFFFFFFFFFFFFFFFFFFFFFFFFFFFF MUL NOT AND SWAP1 DUP4 PUSH20 0xFFFFFFFFFFFFFFFFFFFFFFFFFFFFFFFFFFFFFFFF AND MUL OR SWAP1 SSTORE POP CALLER PUSH20 0xFFFFFFFFFFFFFFFFFFFFFFFFFFFFFFFFFFFFFFFF AND PUSH32 0xC85B128388B9C331A2A5485DCE4CD0F3DB9F7C279D327CE95D6D39D6C94644C7 DUP3 PUSH1 0x40 MLOAD PUSH2 0x9D2 SWAP2 SWAP1 PUSH2 0x12B1 JUMP JUMPDEST PUSH1 0x40 MLOAD DUP1 SWAP2 SUB SWAP1 LOG2 POP POP POP POP JUMP JUMPDEST PUSH1 0x1 DUP2 DUP2 SLOAD DUP2 LT PUSH2 0x9EF JUMPI PUSH0 DUP1 REVERT JUMPDEST SWAP1 PUSH0 MSTORE PUSH1 0x20 PUSH0 KECCAK256 ADD PUSH0 SWAP2 POP SLOAD SWAP1 PUSH2 0x100 EXP SWAP1 DIV PUSH20 0xFFFFFFFFFFFFFFFFFFFFFFFFFFFFFFFFFFFFFFFF AND DUP2 JUMP JUMPDEST PUSH0 PUSH1 0x40 MLOAD SWAP1 POP SWAP1 JUMP JUMPDEST PUSH0 DUP1 REVERT JUMPDEST PUSH0 DUP1 REVERT JUMPDEST PUSH0 PUSH20 0xFFFFFFFFFFFFFFFFFFFFFFFFFFFFFFFFFFFFFFFF DUP3 AND SWAP1 POP SWAP2 SWAP1 POP JUMP JUMPDEST PUSH0 PUSH2 0xA55 DUP3 PUSH2 0xA2C JUMP JUMPDEST SWAP1 POP SWAP2 SWAP1 POP JUMP JUMPDEST PUSH2 0xA65 DUP2 PUSH2 0xA4B JUMP JUMPDEST DUP2 EQ PUSH2 0xA6F JUMPI PUSH0 DUP1 REVERT JUMPDEST POP JUMP JUMPDEST PUSH0 DUP2 CALLDATALOAD SWAP1 POP PUSH2 0xA80 DUP2 PUSH2 0xA5C JUMP JUMPDEST SWAP3 SWAP2 POP POP JUMP JUMPDEST PUSH0 PUSH1 0x20 DUP3 DUP5 SUB SLT ISZERO PUSH2 0xA9B JUMPI PUSH2 0xA9A PUSH2 0xA24 JUMP JUMPDEST JUMPDEST PUSH0 PUSH2 0xAA8 DUP5 DUP3 DUP6 ADD PUSH2 0xA72 JUMP JUMPDEST SWAP2 POP POP SWAP3 SWAP2 POP POP JUMP JUMPDEST PUSH0 DUP2 MLOAD SWAP1 POP SWAP2 SWAP1 POP JUMP JUMPDEST PUSH0 DUP3 DUP3 MSTORE PUSH1 0x20 DUP3 ADD SWAP1 POP SWAP3 SWAP2 POP POP JUMP JUMPDEST DUP3 DUP2 DUP4 MCOPY PUSH0 DUP4 DUP4 ADD MSTORE POP POP POP JUMP JUMPDEST PUSH0 PUSH1 0x1F NOT PUSH1 0x1F DUP4 ADD AND SWAP1 POP SWAP2 SWAP1 POP JUMP JUMPDEST PUSH0 PUSH2 0xAF3 DUP3 PUSH2 0xAB1 JUMP JUMPDEST PUSH2 0xAFD DUP2 DUP6 PUSH2 0xABB JUMP JUMPDEST SWAP4 POP PUSH2 0xB0D DUP2 DUP6 PUSH1 0x20 DUP7 ADD PUSH2 0xACB JUMP JUMPDEST PUSH2 0xB16 DUP2 PUSH2 0xAD9 JUMP JUMPDEST DUP5 ADD SWAP2 POP POP SWAP3 SWAP2 POP POP JUMP JUMPDEST PUSH2 0xB2A DUP2 PUSH2 0xA4B JUMP JUMPDEST DUP3 MSTORE POP POP JUMP JUMPDEST PUSH0 DUP2 ISZERO ISZERO SWAP1 POP SWAP2 SWAP1 POP JUMP JUMPDEST PUSH2 0xB44 DUP2 PUSH2 0xB30 JUMP JUMPDEST DUP3 MSTORE POP POP JUMP JUMPDEST PUSH0 PUSH1 0xC0 DUP3 ADD SWAP1 POP DUP2 DUP2 SUB PUSH0 DUP4 ADD MSTORE PUSH2 0xB62 DUP2 DUP10 PUSH2 0xAE9 JUMP JUMPDEST SWAP1 POP DUP2 DUP2 SUB PUSH1 0x20 DUP4 ADD MSTORE PUSH2 0xB76 DUP2 DUP9 PUSH2 0xAE9 JUMP JUMPDEST SWAP1 POP DUP2 DUP2 SUB PUSH1 0x40 DUP4 ADD MSTORE PUSH2 0xB8A DUP2 DUP8 PUSH2 0xAE9 JUMP JUMPDEST SWAP1 POP DUP2 DUP2 SUB PUSH1 0x60 DUP4 ADD MSTORE PUSH2 0xB9E DUP2 DUP7 PUSH2 0xAE9 JUMP JUMPDEST SWAP1 POP PUSH2 0xBAD PUSH1 0x80 DUP4 ADD DUP6 PUSH2 0xB21 JUMP JUMPDEST PUSH2 0xBBA PUSH1 0xA0 DUP4 ADD DUP5 PUSH2 0xB3B JUMP JUMPDEST SWAP8 SWAP7 POP POP POP POP POP POP POP JUMP JUMPDEST PUSH0 DUP2 MLOAD SWAP1 POP SWAP2 SWAP1 POP JUMP JUMPDEST PUSH0 DUP3 DUP3 MSTORE PUSH1 0x20 DUP3 ADD SWAP1 POP SWAP3 SWAP2 POP POP JUMP JUMPDEST PUSH0 DUP2 SWAP1 POP PUSH1 0x20 DUP3 ADD SWAP1 POP SWAP2 SWAP1 POP JUMP JUMPDEST PUSH2 0xBF7 DUP2 PUSH2 0xA4B JUMP JUMPDEST DUP3 MSTORE POP POP JUMP JUMPDEST PUSH0 PUSH2 0xC08 DUP4 DUP4 PUSH2 0xBEE JUMP JUMPDEST PUSH1 0x20 DUP4 ADD SWAP1 POP SWAP3 SWAP2 POP POP JUMP JUMPDEST PUSH0 PUSH1 0x20 DUP3 ADD SWAP1 POP SWAP2 SWAP1 POP JUMP JUMPDEST PUSH0 PUSH2 0xC2A DUP3 PUSH2 0xBC5 JUMP JUMPDEST PUSH2 0xC34 DUP2 DUP6 PUSH2 0xBCF JUMP JUMPDEST SWAP4 POP PUSH2 0xC3F DUP4 PUSH2 0xBDF JUMP JUMPDEST DUP1 PUSH0 JUMPDEST DUP4 DUP2 LT ISZERO PUSH2 0xC6F JUMPI DUP2 MLOAD PUSH2 0xC56 DUP9 DUP3 PUSH2 0xBFD JUMP JUMPDEST SWAP8 POP PUSH2 0xC61 DUP4 PUSH2 0xC14 JUMP JUMPDEST SWAP3 POP POP PUSH1 0x1 DUP2 ADD SWAP1 POP PUSH2 0xC42 JUMP JUMPDEST POP DUP6 SWAP4 POP POP POP POP SWAP3 SWAP2 POP POP JUMP JUMPDEST PUSH0 PUSH1 0x20 DUP3 ADD SWAP1 POP DUP2 DUP2 SUB PUSH0 DUP4 ADD MSTORE PUSH2 0xC94 DUP2 DUP5 PUSH2 0xC20 JUMP JUMPDEST SWAP1 POP SWAP3 SWAP2 POP POP JUMP JUMPDEST PUSH0 PUSH1 0xA0 DUP3 ADD SWAP1 POP DUP2 DUP2 SUB PUSH0 DUP4 ADD MSTORE PUSH2 0xCB4 DUP2 DUP9 PUSH2 0xAE9 JUMP JUMPDEST SWAP1 POP DUP2 DUP2 SUB PUSH1 0x20 DUP4 ADD MSTORE PUSH2 0xCC8 DUP2 DUP8 PUSH2 0xAE9 JUMP JUMPDEST SWAP1 POP DUP2 DUP2 SUB PUSH1 0x40 DUP4 ADD MSTORE PUSH2 0xCDC DUP2 DUP7 PUSH2 0xAE9 JUMP JUMPDEST SWAP1 POP DUP2 DUP2 SUB PUSH1 0x60 DUP4 ADD MSTORE PUSH2 0xCF0 DUP2 DUP6 PUSH2 0xAE9 JUMP JUMPDEST SWAP1 POP PUSH2 0xCFF PUSH1 0x80 DUP4 ADD DUP5 PUSH2 0xB21 JUMP JUMPDEST SWAP7 SWAP6 POP POP POP POP POP POP JUMP JUMPDEST PUSH0 DUP1 REVERT JUMPDEST PUSH0 DUP1 REVERT JUMPDEST PUSH32 0x4E487B7100000000000000000000000000000000000000000000000000000000 PUSH0 MSTORE PUSH1 0x41 PUSH1 0x4 MSTORE PUSH1 0x24 PUSH0 REVERT JUMPDEST PUSH2 0xD47 DUP3 PUSH2 0xAD9 JUMP JUMPDEST DUP2 ADD DUP2 DUP2 LT PUSH8 0xFFFFFFFFFFFFFFFF DUP3 GT OR ISZERO PUSH2 0xD66 JUMPI PUSH2 0xD65 PUSH2 0xD11 JUMP JUMPDEST JUMPDEST DUP1 PUSH1 0x40 MSTORE POP POP POP JUMP JUMPDEST PUSH0 PUSH2 0xD78 PUSH2 0xA1B JUMP JUMPDEST SWAP1 POP PUSH2 0xD84 DUP3 DUP3 PUSH2 0xD3E JUMP JUMPDEST SWAP2 SWAP1 POP JUMP JUMPDEST PUSH0 PUSH8 0xFFFFFFFFFFFFFFFF DUP3 GT ISZERO PUSH2 0xDA3 JUMPI PUSH2 0xDA2 PUSH2 0xD11 JUMP JUMPDEST JUMPDEST PUSH2 0xDAC DUP3 PUSH2 0xAD9 JUMP JUMPDEST SWAP1 POP PUSH1 0x20 DUP2 ADD SWAP1 POP SWAP2 SWAP1 POP JUMP JUMPDEST DUP3 DUP2 DUP4 CALLDATACOPY PUSH0 DUP4 DUP4 ADD MSTORE POP POP POP JUMP JUMPDEST PUSH0 PUSH2 0xDD9 PUSH2 0xDD4 DUP5 PUSH2 0xD89 JUMP JUMPDEST PUSH2 0xD6F JUMP JUMPDEST SWAP1 POP DUP3 DUP2 MSTORE PUSH1 0x20 DUP2 ADD DUP5 DUP5 DUP5 ADD GT ISZERO PUSH2 0xDF5 JUMPI PUSH2 0xDF4 PUSH2 0xD0D JUMP JUMPDEST JUMPDEST PUSH2 0xE00 DUP5 DUP3 DUP6 PUSH2 0xDB9 JUMP JUMPDEST POP SWAP4 SWAP3 POP POP POP JUMP JUMPDEST PUSH0 DUP3 PUSH1 0x1F DUP4 ADD SLT PUSH2 0xE1C JUMPI PUSH2 0xE1B PUSH2 0xD09 JUMP JUMPDEST JUMPDEST DUP2 CALLDATALOAD PUSH2 0xE2C DUP5 DUP3 PUSH1 0x20 DUP7 ADD PUSH2 0xDC7 JUMP JUMPDEST SWAP2 POP POP SWAP3 SWAP2 POP POP JUMP JUMPDEST PUSH0 DUP1 PUSH0 DUP1 PUSH1 0x80 DUP6 DUP8 SUB SLT ISZERO PUSH2 0xE4D JUMPI PUSH2 0xE4C PUSH2 0xA24 JUMP JUMPDEST JUMPDEST PUSH0 DUP6 ADD CALLDATALOAD PUSH8 0xFFFFFFFFFFFFFFFF DUP2 GT ISZERO PUSH2 0xE6A JUMPI PUSH2 0xE69 PUSH2 0xA28 JUMP JUMPDEST JUMPDEST PUSH2 0xE76 DUP8 DUP3 DUP9 ADD PUSH2 0xE08 JUMP JUMPDEST SWAP5 POP POP PUSH1 0x20 DUP6 ADD CALLDATALOAD PUSH8 0xFFFFFFFFFFFFFFFF DUP2 GT ISZERO PUSH2 0xE97 JUMPI PUSH2 0xE96 PUSH2 0xA28 JUMP JUMPDEST JUMPDEST PUSH2 0xEA3 DUP8 DUP3 DUP9 ADD PUSH2 0xE08 JUMP JUMPDEST SWAP4 POP POP PUSH1 0x40 DUP6 ADD CALLDATALOAD PUSH8 0xFFFFFFFFFFFFFFFF DUP2 GT ISZERO PUSH2 0xEC4 JUMPI PUSH2 0xEC3 PUSH2 0xA28 JUMP JUMPDEST JUMPDEST PUSH2 0xED0 DUP8 DUP3 DUP9 ADD PUSH2 0xE08 JUMP JUMPDEST SWAP3 POP POP PUSH1 0x60 DUP6 ADD CALLDATALOAD PUSH8 0xFFFFFFFFFFFFFFFF DUP2 GT ISZERO PUSH2 0xEF1 JUMPI PUSH2 0xEF0 PUSH2 0xA28 JUMP JUMPDEST JUMPDEST PUSH2 0xEFD DUP8 DUP3 DUP9 ADD PUSH2 0xE08 JUMP JUMPDEST SWAP2 POP POP SWAP3 SWAP6 SWAP2 SWAP5 POP SWAP3 POP JUMP JUMPDEST PUSH0 DUP2 SWAP1 POP SWAP2 SWAP1 POP JUMP JUMPDEST PUSH2 0xF1B DUP2 PUSH2 0xF09 JUMP JUMPDEST DUP2 EQ PUSH2 0xF25 JUMPI PUSH0 DUP1 REVERT JUMPDEST POP JUMP JUMPDEST PUSH0 DUP2 CALLDATALOAD SWAP1 POP PUSH2 0xF36 DUP2 PUSH2 0xF12 JUMP JUMPDEST SWAP3 SWAP2 POP POP JUMP JUMPDEST PUSH0 PUSH1 0x20 DUP3 DUP5 SUB SLT ISZERO PUSH2 0xF51 JUMPI PUSH2 0xF50 PUSH2 0xA24 JUMP JUMPDEST JUMPDEST PUSH0 PUSH2 0xF5E DUP5 DUP3 DUP6 ADD PUSH2 0xF28 JUMP JUMPDEST SWAP2 POP POP SWAP3 SWAP2 POP POP JUMP JUMPDEST PUSH0 PUSH1 0x20 DUP3 ADD SWAP1 POP PUSH2 0xF7A PUSH0 DUP4 ADD DUP5 PUSH2 0xB21 JUMP JUMPDEST SWAP3 SWAP2 POP POP JUMP JUMPDEST PUSH32 0x4E487B7100000000000000000000000000000000000000000000000000000000 PUSH0 MSTORE PUSH1 0x22 PUSH1 0x4 MSTORE PUSH1 0x24 PUSH0 REVERT JUMPDEST PUSH0 PUSH1 0x2 DUP3 DIV SWAP1 POP PUSH1 0x1 DUP3 AND DUP1 PUSH2 0xFC4 JUMPI PUSH1 0x7F DUP3 AND SWAP2 POP JUMPDEST PUSH1 0x20 DUP3 LT DUP2 SUB PUSH2 0xFD7 JUMPI PUSH2 0xFD6 PUSH2 0xF80 JUMP JUMPDEST JUMPDEST POP SWAP2 SWAP1 POP JUMP JUMPDEST PUSH32 0x596F752061726520616C72656164792072656769737465726564000000000000 PUSH0 DUP3 ADD MSTORE POP JUMP JUMPDEST PUSH0 PUSH2 0x1011 PUSH1 0x1A DUP4 PUSH2 0xABB JUMP JUMPDEST SWAP2 POP PUSH2 0x101C DUP3 PUSH2 0xFDD JUMP JUMPDEST PUSH1 0x20 DUP3 ADD SWAP1 POP SWAP2 SWAP1 POP JUMP JUMPDEST PUSH0 PUSH1 0x20 DUP3 ADD SWAP1 POP DUP2 DUP2 SUB PUSH0 DUP4 ADD MSTORE PUSH2 0x103E DUP2 PUSH2 0x1005 JUMP JUMPDEST SWAP1 POP SWAP2 SWAP1 POP JUMP JUMPDEST PUSH0 DUP2 SWAP1 POP DUP2 PUSH0 MSTORE PUSH1 0x20 PUSH0 KECCAK256 SWAP1 POP SWAP2 SWAP1 POP JUMP JUMPDEST PUSH0 PUSH1 0x20 PUSH1 0x1F DUP4 ADD DIV SWAP1 POP SWAP2 SWAP1 POP JUMP JUMPDEST PUSH0 DUP3 DUP3 SHL SWAP1 POP SWAP3 SWAP2 POP POP JUMP JUMPDEST PUSH0 PUSH1 0x8 DUP4 MUL PUSH2 0x10A1 PUSH32 0xFFFFFFFFFFFFFFFFFFFFFFFFFFFFFFFFFFFFFFFFFFFFFFFFFFFFFFFFFFFFFFFF DUP3 PUSH2 0x1066 JUMP JUMPDEST PUSH2 0x10AB DUP7 DUP4 PUSH2 0x1066 JUMP JUMPDEST SWAP6 POP DUP1 NOT DUP5 AND SWAP4 POP DUP1 DUP7 AND DUP5 OR SWAP3 POP POP POP SWAP4 SWAP3 POP POP POP JUMP JUMPDEST PUSH0 DUP2 SWAP1 POP SWAP2 SWAP1 POP JUMP JUMPDEST PUSH0 PUSH2 0x10E6 PUSH2 0x10E1 PUSH2 0x10DC DUP5 PUSH2 0xF09 JUMP JUMPDEST PUSH2 0x10C3 JUMP JUMPDEST PUSH2 0xF09 JUMP JUMPDEST SWAP1 POP SWAP2 SWAP1 POP JUMP JUMPDEST PUSH0 DUP2 SWAP1 POP SWAP2 SWAP1 POP JUMP JUMPDEST PUSH2 0x10FF DUP4 PUSH2 0x10CC JUMP JUMPDEST PUSH2 0x1113 PUSH2 0x110B DUP3 PUSH2 0x10ED JUMP JUMPDEST DUP5 DUP5 SLOAD PUSH2 0x1072 JUMP JUMPDEST DUP3 SSTORE POP POP POP POP JUMP JUMPDEST PUSH0 SWAP1 JUMP JUMPDEST PUSH2 0x1127 PUSH2 0x111B JUMP JUMPDEST PUSH2 0x1132 DUP2 DUP5 DUP5 PUSH2 0x10F6 JUMP JUMPDEST POP POP POP JUMP JUMPDEST JUMPDEST DUP2 DUP2 LT ISZERO PUSH2 0x1155 JUMPI PUSH2 0x114A PUSH0 DUP3 PUSH2 0x111F JUMP JUMPDEST PUSH1 0x1 DUP2 ADD SWAP1 POP PUSH2 0x1138 JUMP JUMPDEST POP POP JUMP JUMPDEST PUSH1 0x1F DUP3 GT ISZERO PUSH2 0x119A JUMPI PUSH2 0x116B DUP2 PUSH2 0x1045 JUMP JUMPDEST PUSH2 0x1174 DUP5 PUSH2 0x1057 JUMP JUMPDEST DUP2 ADD PUSH1 0x20 DUP6 LT ISZERO PUSH2 0x1183 JUMPI DUP2 SWAP1 POP JUMPDEST PUSH2 0x1197 PUSH2 0x118F DUP6 PUSH2 0x1057 JUMP JUMPDEST DUP4 ADD DUP3 PUSH2 0x1137 JUMP JUMPDEST POP POP JUMPDEST POP POP POP JUMP JUMPDEST PUSH0 DUP3 DUP3 SHR SWAP1 POP SWAP3 SWAP2 POP POP JUMP JUMPDEST PUSH0 PUSH2 0x11BA PUSH0 NOT DUP5 PUSH1 0x8 MUL PUSH2 0x119F JUMP JUMPDEST NOT DUP1 DUP4 AND SWAP2 POP POP SWAP3 SWAP2 POP POP JUMP JUMPDEST PUSH0 PUSH2 0x11D2 DUP4 DUP4 PUSH2 0x11AB JUMP JUMPDEST SWAP2 POP DUP3 PUSH1 0x2 MUL DUP3 OR SWAP1 POP SWAP3 SWAP2 POP POP JUMP JUMPDEST PUSH2 0x11EB DUP3 PUSH2 0xAB1 JUMP JUMPDEST PUSH8 0xFFFFFFFFFFFFFFFF DUP2 GT ISZERO PUSH2 0x1204 JUMPI PUSH2 0x1203 PUSH2 0xD11 JUMP JUMPDEST JUMPDEST PUSH2 0x120E DUP3 SLOAD PUSH2 0xFAD JUMP JUMPDEST PUSH2 0x1219 DUP3 DUP3 DUP6 PUSH2 0x1159 JUMP JUMPDEST PUSH0 PUSH1 0x20 SWAP1 POP PUSH1 0x1F DUP4 GT PUSH1 0x1 DUP2 EQ PUSH2 0x124A JUMPI PUSH0 DUP5 ISZERO PUSH2 0x1238 JUMPI DUP3 DUP8 ADD MLOAD SWAP1 POP JUMPDEST PUSH2 0x1242 DUP6 DUP3 PUSH2 0x11C7 JUMP JUMPDEST DUP7 SSTORE POP PUSH2 0x12A9 JUMP JUMPDEST PUSH1 0x1F NOT DUP5 AND PUSH2 0x1258 DUP7 PUSH2 0x1045 JUMP JUMPDEST PUSH0 JUMPDEST DUP3 DUP2 LT ISZERO PUSH2 0x127F JUMPI DUP5 DUP10 ADD MLOAD DUP3 SSTORE PUSH1 0x1 DUP3 ADD SWAP2 POP PUSH1 0x20 DUP6 ADD SWAP5 POP PUSH1 0x20 DUP2 ADD SWAP1 POP PUSH2 0x125A JUMP JUMPDEST DUP7 DUP4 LT ISZERO PUSH2 0x129C JUMPI DUP5 DUP10 ADD MLOAD PUSH2 0x1298 PUSH1 0x1F DUP10 AND DUP3 PUSH2 0x11AB JUMP JUMPDEST DUP4 SSTORE POP JUMPDEST PUSH1 0x1 PUSH1 0x2 DUP9 MUL ADD DUP9 SSTORE POP POP POP JUMPDEST POP POP POP POP POP POP JUMP JUMPDEST PUSH0 PUSH1 0x20 DUP3 ADD SWAP1 POP DUP2 DUP2 SUB PUSH0 DUP4 ADD MSTORE PUSH2 0x12C9 DUP2 DUP5 PUSH2 0xAE9 JUMP JUMPDEST SWAP1 POP SWAP3 SWAP2 POP POP JUMP INVALID LOG2 PUSH5 0x6970667358 0x22 SLT KECCAK256 XOR PUSH17 0x32647901A1335ADB8216F09716EDB65F CALLDATACOPY 0x26 SLT 0xB4 0xDB 0xB7 CODESIZE DUP14 SWAP5 0xDB SHR MSTORE GT PUSH5 0x736F6C6343 STOP ADDMOD BYTE STOP CALLER "
				},
				"gasEstimates": {
					"creation": {
						"codeDepositCost": "974200",
						"executionCost": "1012",
						"totalCost": "975212"
					},
					"external": {
						"getAllPatients()": "infinite",
						"getPatientInfo(address)": "infinite",
						"patientList(uint256)": "5010",
						"patients(address)": "infinite",
						"registerPatient(string,string,string,string)": "infinite"
					}
				},
				"methodIdentifiers": {
					"getAllPatients()": "18a231a9",
					"getPatientInfo(address)": "4b426178",
					"patientList(uint256)": "babb1d41",
					"patients(address)": "0869cfbc",
					"registerPatient(string,string,string,string)": "4ba0a020"
				}
			},
			"storageLayout": {
				"storage": [
					{
						"astId": 19,
						"contract": "mediHack/PacientRegistry.sol:PatientRegistry",
						"label": "patients",
						"offset": 0,
						"slot": "0",
						"type": "t_mapping(t_address,t_struct(Patient)14_storage)"
					},
					{
						"astId": 22,
						"contract": "mediHack/PacientRegistry.sol:PatientRegistry",
						"label": "patientList",
						"offset": 0,
						"slot": "1",
						"type": "t_array(t_address)dyn_storage"
					}
				],
				"types": {
					"t_address": {
						"encoding": "inplace",
						"label": "address",
						"numberOfBytes": "20"
					},
					"t_array(t_address)dyn_storage": {
						"base": "t_address",
						"encoding": "dynamic_array",
						"label": "address[]",
						"numberOfBytes": "32"
					},
					"t_bool": {
						"encoding": "inplace",
						"label": "bool",
						"numberOfBytes": "1"
					},
					"t_mapping(t_address,t_struct(Patient)14_storage)": {
						"encoding": "mapping",
						"key": "t_address",
						"label": "mapping(address => struct PatientRegistry.Patient)",
						"numberOfBytes": "32",
						"value": "t_struct(Patient)14_storage"
					},
					"t_string_storage": {
						"encoding": "bytes",
						"label": "string",
						"numberOfBytes": "32"
					},
					"t_struct(Patient)14_storage": {
						"encoding": "inplace",
						"label": "struct PatientRegistry.Patient",
						"members": [
							{
								"astId": 3,
								"contract": "mediHack/PacientRegistry.sol:PatientRegistry",
								"label": "name",
								"offset": 0,
								"slot": "0",
								"type": "t_string_storage"
							},
							{
								"astId": 5,
								"contract": "mediHack/PacientRegistry.sol:PatientRegistry",
								"label": "gender",
								"offset": 0,
								"slot": "1",
								"type": "t_string_storage"
							},
							{
								"astId": 7,
								"contract": "mediHack/PacientRegistry.sol:PatientRegistry",
								"label": "bloodType",
								"offset": 0,
								"slot": "2",
								"type": "t_string_storage"
							},
							{
								"astId": 9,
								"contract": "mediHack/PacientRegistry.sol:PatientRegistry",
								"label": "neededOrgan",
								"offset": 0,
								"slot": "3",
								"type": "t_string_storage"
							},
							{
								"astId": 11,
								"contract": "mediHack/PacientRegistry.sol:PatientRegistry",
								"label": "patientAddress",
								"offset": 0,
								"slot": "4",
								"type": "t_address"
							},
							{
								"astId": 13,
								"contract": "mediHack/PacientRegistry.sol:PatientRegistry",
								"label": "registered",
								"offset": 20,
								"slot": "4",
								"type": "t_bool"
							}
						],
						"numberOfBytes": "160"
					}
				}
			},
			"userdoc": {
				"kind": "user",
				"methods": {},
				"version": 1
			}
		}
	}
}