{
	"mediHack/PatientRegistry.sol": {
		"PatientRegistry": {
			"abi": [
				{
					"inputs": [
						{
							"internalType": "address",
							"name": "_patient",
							"type": "address"
						}
					],
					"name": "getPatient",
					"outputs": [
						{
							"components": [
								{
									"internalType": "address",
									"name": "wallet",
									"type": "address"
								},
								{
									"internalType": "string",
									"name": "name",
									"type": "string"
								},
								{
									"internalType": "string",
									"name": "bloodGroup",
									"type": "string"
								},
								{
									"internalType": "string",
									"name": "neededOrgan",
									"type": "string"
								}
							],
							"internalType": "struct PatientRegistry.Patient",
							"name": "",
							"type": "tuple"
						}
					],
					"stateMutability": "view",
					"type": "function"
				},
				{
					"inputs": [
						{
							"internalType": "address",
							"name": "",
							"type": "address"
						}
					],
					"name": "patients",
					"outputs": [
						{
							"internalType": "address",
							"name": "wallet",
							"type": "address"
						},
						{
							"internalType": "string",
							"name": "name",
							"type": "string"
						},
						{
							"internalType": "string",
							"name": "bloodGroup",
							"type": "string"
						},
						{
							"internalType": "string",
							"name": "neededOrgan",
							"type": "string"
						}
					],
					"stateMutability": "view",
					"type": "function"
				},
				{
					"inputs": [
						{
							"internalType": "string",
							"name": "_name",
							"type": "string"
						},
						{
							"internalType": "string",
							"name": "_bloodGroup",
							"type": "string"
						},
						{
							"internalType": "string",
							"name": "_neededOrgan",
							"type": "string"
						}
					],
					"name": "registerPatient",
					"outputs": [],
					"stateMutability": "nonpayable",
					"type": "function"
				}
			],
			"devdoc": {
				"kind": "dev",
				"methods": {},
				"version": 1
			},
			"evm": {
				"assembly": "    /* \"mediHack/PatientRegistry.sol\":57:592  contract PatientRegistry {... */\n  mstore(0x40, 0x80)\n  callvalue\n  dup1\n  iszero\n  tag_1\n  jumpi\n  0x00\n  dup1\n  revert\ntag_1:\n  pop\n  dataSize(sub_0)\n  dup1\n  dataOffset(sub_0)\n  0x00\n  codecopy\n  0x00\n  return\nstop\n\nsub_0: assembly {\n        /* \"mediHack/PatientRegistry.sol\":57:592  contract PatientRegistry {... */\n      mstore(0x40, 0x80)\n      callvalue\n      dup1\n      iszero\n      tag_1\n      jumpi\n      0x00\n      dup1\n      revert\n    tag_1:\n      pop\n      jumpi(tag_2, lt(calldatasize, 0x04))\n      shr(0xe0, calldataload(0x00))\n      dup1\n      0x0869cfbc\n      eq\n      tag_3\n      jumpi\n      dup1\n      0xb5368e20\n      eq\n      tag_4\n      jumpi\n      dup1\n      0xbe65437a\n      eq\n      tag_5\n      jumpi\n    tag_2:\n      0x00\n      dup1\n      revert\n        /* \"mediHack/PatientRegistry.sol\":216:259  mapping(address => Patient) public patients */\n    tag_3:\n      tag_6\n      0x04\n      dup1\n      calldatasize\n      sub\n      dup2\n      add\n      swap1\n      tag_7\n      swap2\n      swap1\n      tag_8\n      jump\t// in\n    tag_7:\n      tag_9\n      jump\t// in\n    tag_6:\n      mload(0x40)\n      tag_10\n      swap5\n      swap4\n      swap3\n      swap2\n      swap1\n      tag_11\n      jump\t// in\n    tag_10:\n      mload(0x40)\n      dup1\n      swap2\n      sub\n      swap1\n      return\n        /* \"mediHack/PatientRegistry.sol\":473:590  function getPatient(address _patient) public view returns (Patient memory) {... */\n    tag_4:\n      tag_12\n      0x04\n      dup1\n      calldatasize\n      sub\n      dup2\n      add\n      swap1\n      tag_13\n      swap2\n      swap1\n      tag_8\n      jump\t// in\n    tag_13:\n      tag_14\n      jump\t// in\n    tag_12:\n      mload(0x40)\n      tag_15\n      swap2\n      swap1\n      tag_16\n      jump\t// in\n    tag_15:\n      mload(0x40)\n      dup1\n      swap2\n      sub\n      swap1\n      return\n        /* \"mediHack/PatientRegistry.sol\":266:467  function registerPatient(string memory _name, string memory _bloodGroup, string memory _neededOrgan) public {... */\n    tag_5:\n      tag_17\n      0x04\n      dup1\n      calldatasize\n      sub\n      dup2\n      add\n      swap1\n      tag_18\n      swap2\n      swap1\n      tag_19\n      jump\t// in\n    tag_18:\n      tag_20\n      jump\t// in\n    tag_17:\n      stop\n        /* \"mediHack/PatientRegistry.sol\":216:259  mapping(address => Patient) public patients */\n    tag_9:\n      mstore(0x20, 0x00)\n      dup1\n      0x00\n      mstore\n      keccak256(0x00, 0x40)\n      0x00\n      swap2\n      pop\n      swap1\n      pop\n      dup1\n      0x00\n      add\n      0x00\n      swap1\n      sload\n      swap1\n      0x0100\n      exp\n      swap1\n      div\n      0xffffffffffffffffffffffffffffffffffffffff\n      and\n      swap1\n      dup1\n      0x01\n      add\n      dup1\n      sload\n      tag_21\n      swap1\n      tag_22\n      jump\t// in\n    tag_21:\n      dup1\n      0x1f\n      add\n      0x20\n      dup1\n      swap2\n      div\n      mul\n      0x20\n      add\n      mload(0x40)\n      swap1\n      dup2\n      add\n      0x40\n      mstore\n      dup1\n      swap3\n      swap2\n      swap1\n      dup2\n      dup2\n      mstore\n      0x20\n      add\n      dup3\n      dup1\n      sload\n      tag_23\n      swap1\n      tag_22\n      jump\t// in\n    tag_23:\n      dup1\n      iszero\n      tag_24\n      jumpi\n      dup1\n      0x1f\n      lt\n      tag_25\n      jumpi\n      0x0100\n      dup1\n      dup4\n      sload\n      div\n      mul\n      dup4\n      mstore\n      swap2\n      0x20\n      add\n      swap2\n      jump(tag_24)\n    tag_25:\n      dup3\n      add\n      swap2\n      swap1\n      0x00\n      mstore\n      keccak256(0x00, 0x20)\n      swap1\n    tag_26:\n      dup2\n      sload\n      dup2\n      mstore\n      swap1\n      0x01\n      add\n      swap1\n      0x20\n      add\n      dup1\n      dup4\n      gt\n      tag_26\n      jumpi\n      dup3\n      swap1\n      sub\n      0x1f\n      and\n      dup3\n      add\n      swap2\n    tag_24:\n      pop\n      pop\n      pop\n      pop\n      pop\n      swap1\n      dup1\n      0x02\n      add\n      dup1\n      sload\n      tag_27\n      swap1\n      tag_22\n      jump\t// in\n    tag_27:\n      dup1\n      0x1f\n      add\n      0x20\n      dup1\n      swap2\n      div\n      mul\n      0x20\n      add\n      mload(0x40)\n      swap1\n      dup2\n      add\n      0x40\n      mstore\n      dup1\n      swap3\n      swap2\n      swap1\n      dup2\n      dup2\n      mstore\n      0x20\n      add\n      dup3\n      dup1\n      sload\n      tag_28\n      swap1\n      tag_22\n      jump\t// in\n    tag_28:\n      dup1\n      iszero\n      tag_29\n      jumpi\n      dup1\n      0x1f\n      lt\n      tag_30\n      jumpi\n      0x0100\n      dup1\n      dup4\n      sload\n      div\n      mul\n      dup4\n      mstore\n      swap2\n      0x20\n      add\n      swap2\n      jump(tag_29)\n    tag_30:\n      dup3\n      add\n      swap2\n      swap1\n      0x00\n      mstore\n      keccak256(0x00, 0x20)\n      swap1\n    tag_31:\n      dup2\n      sload\n      dup2\n      mstore\n      swap1\n      0x01\n      add\n      swap1\n      0x20\n      add\n      dup1\n      dup4\n      gt\n      tag_31\n      jumpi\n      dup3\n      swap1\n      sub\n      0x1f\n      and\n      dup3\n      add\n      swap2\n    tag_29:\n      pop\n      pop\n      pop\n      pop\n      pop\n      swap1\n      dup1\n      0x03\n      add\n      dup1\n      sload\n      tag_32\n      swap1\n      tag_22\n      jump\t// in\n    tag_32:\n      dup1\n      0x1f\n      add\n      0x20\n      dup1\n      swap2\n      div\n      mul\n      0x20\n      add\n      mload(0x40)\n      swap1\n      dup2\n      add\n      0x40\n      mstore\n      dup1\n      swap3\n      swap2\n      swap1\n      dup2\n      dup2\n      mstore\n      0x20\n      add\n      dup3\n      dup1\n      sload\n      tag_33\n      swap1\n      tag_22\n      jump\t// in\n    tag_33:\n      dup1\n      iszero\n      tag_34\n      jumpi\n      dup1\n      0x1f\n      lt\n      tag_35\n      jumpi\n      0x0100\n      dup1\n      dup4\n      sload\n      div\n      mul\n      dup4\n      mstore\n      swap2\n      0x20\n      add\n      swap2\n      jump(tag_34)\n    tag_35:\n      dup3\n      add\n      swap2\n      swap1\n      0x00\n      mstore\n      keccak256(0x00, 0x20)\n      swap1\n    tag_36:\n      dup2\n      sload\n      dup2\n      mstore\n      swap1\n      0x01\n      add\n      swap1\n      0x20\n      add\n      dup1\n      dup4\n      gt\n      tag_36\n      jumpi\n      dup3\n      swap1\n      sub\n      0x1f\n      and\n      dup3\n      add\n      swap2\n    tag_34:\n      pop\n      pop\n      pop\n      pop\n      pop\n      swap1\n      pop\n      dup5\n      jump\t// out\n        /* \"mediHack/PatientRegistry.sol\":473:590  function getPatient(address _patient) public view returns (Patient memory) {... */\n    tag_14:\n        /* \"mediHack/PatientRegistry.sol\":532:546  Patient memory */\n      tag_37\n      tag_38\n      jump\t// in\n    tag_37:\n        /* \"mediHack/PatientRegistry.sol\":565:573  patients */\n      0x00\n        /* \"mediHack/PatientRegistry.sol\":565:583  patients[_patient] */\n      dup1\n        /* \"mediHack/PatientRegistry.sol\":574:582  _patient */\n      dup4\n        /* \"mediHack/PatientRegistry.sol\":565:583  patients[_patient] */\n      0xffffffffffffffffffffffffffffffffffffffff\n      and\n      0xffffffffffffffffffffffffffffffffffffffff\n      and\n      dup2\n      mstore\n      0x20\n      add\n      swap1\n      dup2\n      mstore\n      0x20\n      add\n      0x00\n      keccak256\n        /* \"mediHack/PatientRegistry.sol\":558:583  return patients[_patient] */\n      mload(0x40)\n      dup1\n      0x80\n      add\n      0x40\n      mstore\n      swap1\n      dup2\n      0x00\n      dup3\n      add\n      0x00\n      swap1\n      sload\n      swap1\n      0x0100\n      exp\n      swap1\n      div\n      0xffffffffffffffffffffffffffffffffffffffff\n      and\n      0xffffffffffffffffffffffffffffffffffffffff\n      and\n      0xffffffffffffffffffffffffffffffffffffffff\n      and\n      dup2\n      mstore\n      0x20\n      add\n      0x01\n      dup3\n      add\n      dup1\n      sload\n      tag_40\n      swap1\n      tag_22\n      jump\t// in\n    tag_40:\n      dup1\n      0x1f\n      add\n      0x20\n      dup1\n      swap2\n      div\n      mul\n      0x20\n      add\n      mload(0x40)\n      swap1\n      dup2\n      add\n      0x40\n      mstore\n      dup1\n      swap3\n      swap2\n      swap1\n      dup2\n      dup2\n      mstore\n      0x20\n      add\n      dup3\n      dup1\n      sload\n      tag_41\n      swap1\n      tag_22\n      jump\t// in\n    tag_41:\n      dup1\n      iszero\n      tag_42\n      jumpi\n      dup1\n      0x1f\n      lt\n      tag_43\n      jumpi\n      0x0100\n      dup1\n      dup4\n      sload\n      div\n      mul\n      dup4\n      mstore\n      swap2\n      0x20\n      add\n      swap2\n      jump(tag_42)\n    tag_43:\n      dup3\n      add\n      swap2\n      swap1\n      0x00\n      mstore\n      keccak256(0x00, 0x20)\n      swap1\n    tag_44:\n      dup2\n      sload\n      dup2\n      mstore\n      swap1\n      0x01\n      add\n      swap1\n      0x20\n      add\n      dup1\n      dup4\n      gt\n      tag_44\n      jumpi\n      dup3\n      swap1\n      sub\n      0x1f\n      and\n      dup3\n      add\n      swap2\n    tag_42:\n      pop\n      pop\n      pop\n      pop\n      pop\n      dup2\n      mstore\n      0x20\n      add\n      0x02\n      dup3\n      add\n      dup1\n      sload\n      tag_45\n      swap1\n      tag_22\n      jump\t// in\n    tag_45:\n      dup1\n      0x1f\n      add\n      0x20\n      dup1\n      swap2\n      div\n      mul\n      0x20\n      add\n      mload(0x40)\n      swap1\n      dup2\n      add\n      0x40\n      mstore\n      dup1\n      swap3\n      swap2\n      swap1\n      dup2\n      dup2\n      mstore\n      0x20\n      add\n      dup3\n      dup1\n      sload\n      tag_46\n      swap1\n      tag_22\n      jump\t// in\n    tag_46:\n      dup1\n      iszero\n      tag_47\n      jumpi\n      dup1\n      0x1f\n      lt\n      tag_48\n      jumpi\n      0x0100\n      dup1\n      dup4\n      sload\n      div\n      mul\n      dup4\n      mstore\n      swap2\n      0x20\n      add\n      swap2\n      jump(tag_47)\n    tag_48:\n      dup3\n      add\n      swap2\n      swap1\n      0x00\n      mstore\n      keccak256(0x00, 0x20)\n      swap1\n    tag_49:\n      dup2\n      sload\n      dup2\n      mstore\n      swap1\n      0x01\n      add\n      swap1\n      0x20\n      add\n      dup1\n      dup4\n      gt\n      tag_49\n      jumpi\n      dup3\n      swap1\n      sub\n      0x1f\n      and\n      dup3\n      add\n      swap2\n    tag_47:\n      pop\n      pop\n      pop\n      pop\n      pop\n      dup2\n      mstore\n      0x20\n      add\n      0x03\n      dup3\n      add\n      dup1\n      sload\n      tag_50\n      swap1\n      tag_22\n      jump\t// in\n    tag_50:\n      dup1\n      0x1f\n      add\n      0x20\n      dup1\n      swap2\n      div\n      mul\n      0x20\n      add\n      mload(0x40)\n      swap1\n      dup2\n      add\n      0x40\n      mstore\n      dup1\n      swap3\n      swap2\n      swap1\n      dup2\n      dup2\n      mstore\n      0x20\n      add\n      dup3\n      dup1\n      sload\n      tag_51\n      swap1\n      tag_22\n      jump\t// in\n    tag_51:\n      dup1\n      iszero\n      tag_52\n      jumpi\n      dup1\n      0x1f\n      lt\n      tag_53\n      jumpi\n      0x0100\n      dup1\n      dup4\n      sload\n      div\n      mul\n      dup4\n      mstore\n      swap2\n      0x20\n      add\n      swap2\n      jump(tag_52)\n    tag_53:\n      dup3\n      add\n      swap2\n      swap1\n      0x00\n      mstore\n      keccak256(0x00, 0x20)\n      swap1\n    tag_54:\n      dup2\n      sload\n      dup2\n      mstore\n      swap1\n      0x01\n      add\n      swap1\n      0x20\n      add\n      dup1\n      dup4\n      gt\n      tag_54\n      jumpi\n      dup3\n      swap1\n      sub\n      0x1f\n      and\n      dup3\n      add\n      swap2\n    tag_52:\n      pop\n      pop\n      pop\n      pop\n      pop\n      dup2\n      mstore\n      pop\n      pop\n      swap1\n      pop\n        /* \"mediHack/PatientRegistry.sol\":473:590  function getPatient(address _patient) public view returns (Patient memory) {... */\n      swap2\n      swap1\n      pop\n      jump\t// out\n        /* \"mediHack/PatientRegistry.sol\":266:467  function registerPatient(string memory _name, string memory _bloodGroup, string memory _neededOrgan) public {... */\n    tag_20:\n        /* \"mediHack/PatientRegistry.sol\":407:460  Patient(msg.sender, _name, _bloodGroup, _neededOrgan) */\n      mload(0x40)\n      dup1\n      0x80\n      add\n      0x40\n      mstore\n      dup1\n        /* \"mediHack/PatientRegistry.sol\":415:425  msg.sender */\n      caller\n        /* \"mediHack/PatientRegistry.sol\":407:460  Patient(msg.sender, _name, _bloodGroup, _neededOrgan) */\n      0xffffffffffffffffffffffffffffffffffffffff\n      and\n      dup2\n      mstore\n      0x20\n      add\n        /* \"mediHack/PatientRegistry.sol\":427:432  _name */\n      dup5\n        /* \"mediHack/PatientRegistry.sol\":407:460  Patient(msg.sender, _name, _bloodGroup, _neededOrgan) */\n      dup2\n      mstore\n      0x20\n      add\n        /* \"mediHack/PatientRegistry.sol\":434:445  _bloodGroup */\n      dup4\n        /* \"mediHack/PatientRegistry.sol\":407:460  Patient(msg.sender, _name, _bloodGroup, _neededOrgan) */\n      dup2\n      mstore\n      0x20\n      add\n        /* \"mediHack/PatientRegistry.sol\":447:459  _neededOrgan */\n      dup3\n        /* \"mediHack/PatientRegistry.sol\":407:460  Patient(msg.sender, _name, _bloodGroup, _neededOrgan) */\n      dup2\n      mstore\n      pop\n        /* \"mediHack/PatientRegistry.sol\":384:392  patients */\n      0x00\n        /* \"mediHack/PatientRegistry.sol\":384:404  patients[msg.sender] */\n      dup1\n        /* \"mediHack/PatientRegistry.sol\":393:403  msg.sender */\n      caller\n        /* \"mediHack/PatientRegistry.sol\":384:404  patients[msg.sender] */\n      0xffffffffffffffffffffffffffffffffffffffff\n      and\n      0xffffffffffffffffffffffffffffffffffffffff\n      and\n      dup2\n      mstore\n      0x20\n      add\n      swap1\n      dup2\n      mstore\n      0x20\n      add\n      0x00\n      keccak256\n        /* \"mediHack/PatientRegistry.sol\":384:460  patients[msg.sender] = Patient(msg.sender, _name, _bloodGroup, _neededOrgan) */\n      0x00\n      dup3\n      add\n      mload\n      dup2\n      0x00\n      add\n      exp(0x0100, 0x00)\n      dup2\n      sload\n      dup2\n      0xffffffffffffffffffffffffffffffffffffffff\n      mul\n      not\n      and\n      swap1\n      dup4\n      0xffffffffffffffffffffffffffffffffffffffff\n      and\n      mul\n      or\n      swap1\n      sstore\n      pop\n      0x20\n      dup3\n      add\n      mload\n      dup2\n      0x01\n      add\n      swap1\n      dup2\n      tag_56\n      swap2\n      swap1\n      tag_57\n      jump\t// in\n    tag_56:\n      pop\n      0x40\n      dup3\n      add\n      mload\n      dup2\n      0x02\n      add\n      swap1\n      dup2\n      tag_58\n      swap2\n      swap1\n      tag_57\n      jump\t// in\n    tag_58:\n      pop\n      0x60\n      dup3\n      add\n      mload\n      dup2\n      0x03\n      add\n      swap1\n      dup2\n      tag_59\n      swap2\n      swap1\n      tag_57\n      jump\t// in\n    tag_59:\n      pop\n      swap1\n      pop\n      pop\n        /* \"mediHack/PatientRegistry.sol\":266:467  function registerPatient(string memory _name, string memory _bloodGroup, string memory _neededOrgan) public {... */\n      pop\n      pop\n      pop\n      jump\t// out\n    tag_38:\n      mload(0x40)\n      dup1\n      0x80\n      add\n      0x40\n      mstore\n      dup1\n      and(0xffffffffffffffffffffffffffffffffffffffff, 0x00)\n      dup2\n      mstore\n      0x20\n      add\n      0x60\n      dup2\n      mstore\n      0x20\n      add\n      0x60\n      dup2\n      mstore\n      0x20\n      add\n      0x60\n      dup2\n      mstore\n      pop\n      swap1\n      jump\t// out\n        /* \"#utility.yul\":7:82   */\n    tag_60:\n        /* \"#utility.yul\":40:46   */\n      0x00\n        /* \"#utility.yul\":73:75   */\n      0x40\n        /* \"#utility.yul\":67:76   */\n      mload\n        /* \"#utility.yul\":57:76   */\n      swap1\n      pop\n        /* \"#utility.yul\":7:82   */\n      swap1\n      jump\t// out\n        /* \"#utility.yul\":88:205   */\n    tag_61:\n        /* \"#utility.yul\":197:198   */\n      0x00\n        /* \"#utility.yul\":194:195   */\n      dup1\n        /* \"#utility.yul\":187:199   */\n      revert\n        /* \"#utility.yul\":211:328   */\n    tag_62:\n        /* \"#utility.yul\":320:321   */\n      0x00\n        /* \"#utility.yul\":317:318   */\n      dup1\n        /* \"#utility.yul\":310:322   */\n      revert\n        /* \"#utility.yul\":334:460   */\n    tag_63:\n        /* \"#utility.yul\":371:378   */\n      0x00\n        /* \"#utility.yul\":411:453   */\n      0xffffffffffffffffffffffffffffffffffffffff\n        /* \"#utility.yul\":404:409   */\n      dup3\n        /* \"#utility.yul\":400:454   */\n      and\n        /* \"#utility.yul\":389:454   */\n      swap1\n      pop\n        /* \"#utility.yul\":334:460   */\n      swap2\n      swap1\n      pop\n      jump\t// out\n        /* \"#utility.yul\":466:562   */\n    tag_64:\n        /* \"#utility.yul\":503:510   */\n      0x00\n        /* \"#utility.yul\":532:556   */\n      tag_109\n        /* \"#utility.yul\":550:555   */\n      dup3\n        /* \"#utility.yul\":532:556   */\n      tag_63\n      jump\t// in\n    tag_109:\n        /* \"#utility.yul\":521:556   */\n      swap1\n      pop\n        /* \"#utility.yul\":466:562   */\n      swap2\n      swap1\n      pop\n      jump\t// out\n        /* \"#utility.yul\":568:690   */\n    tag_65:\n        /* \"#utility.yul\":641:665   */\n      tag_111\n        /* \"#utility.yul\":659:664   */\n      dup2\n        /* \"#utility.yul\":641:665   */\n      tag_64\n      jump\t// in\n    tag_111:\n        /* \"#utility.yul\":634:639   */\n      dup2\n        /* \"#utility.yul\":631:666   */\n      eq\n        /* \"#utility.yul\":621:684   */\n      tag_112\n      jumpi\n        /* \"#utility.yul\":680:681   */\n      0x00\n        /* \"#utility.yul\":677:678   */\n      dup1\n        /* \"#utility.yul\":670:682   */\n      revert\n        /* \"#utility.yul\":621:684   */\n    tag_112:\n        /* \"#utility.yul\":568:690   */\n      pop\n      jump\t// out\n        /* \"#utility.yul\":696:835   */\n    tag_66:\n        /* \"#utility.yul\":742:747   */\n      0x00\n        /* \"#utility.yul\":780:786   */\n      dup2\n        /* \"#utility.yul\":767:787   */\n      calldataload\n        /* \"#utility.yul\":758:787   */\n      swap1\n      pop\n        /* \"#utility.yul\":796:829   */\n      tag_114\n        /* \"#utility.yul\":823:828   */\n      dup2\n        /* \"#utility.yul\":796:829   */\n      tag_65\n      jump\t// in\n    tag_114:\n        /* \"#utility.yul\":696:835   */\n      swap3\n      swap2\n      pop\n      pop\n      jump\t// out\n        /* \"#utility.yul\":841:1170   */\n    tag_8:\n        /* \"#utility.yul\":900:906   */\n      0x00\n        /* \"#utility.yul\":949:951   */\n      0x20\n        /* \"#utility.yul\":937:946   */\n      dup3\n        /* \"#utility.yul\":928:935   */\n      dup5\n        /* \"#utility.yul\":924:947   */\n      sub\n        /* \"#utility.yul\":920:952   */\n      slt\n        /* \"#utility.yul\":917:1036   */\n      iszero\n      tag_116\n      jumpi\n        /* \"#utility.yul\":955:1034   */\n      tag_117\n      tag_61\n      jump\t// in\n    tag_117:\n        /* \"#utility.yul\":917:1036   */\n    tag_116:\n        /* \"#utility.yul\":1075:1076   */\n      0x00\n        /* \"#utility.yul\":1100:1153   */\n      tag_118\n        /* \"#utility.yul\":1145:1152   */\n      dup5\n        /* \"#utility.yul\":1136:1142   */\n      dup3\n        /* \"#utility.yul\":1125:1134   */\n      dup6\n        /* \"#utility.yul\":1121:1143   */\n      add\n        /* \"#utility.yul\":1100:1153   */\n      tag_66\n      jump\t// in\n    tag_118:\n        /* \"#utility.yul\":1090:1153   */\n      swap2\n      pop\n        /* \"#utility.yul\":1046:1163   */\n      pop\n        /* \"#utility.yul\":841:1170   */\n      swap3\n      swap2\n      pop\n      pop\n      jump\t// out\n        /* \"#utility.yul\":1176:1294   */\n    tag_67:\n        /* \"#utility.yul\":1263:1287   */\n      tag_120\n        /* \"#utility.yul\":1281:1286   */\n      dup2\n        /* \"#utility.yul\":1263:1287   */\n      tag_64\n      jump\t// in\n    tag_120:\n        /* \"#utility.yul\":1258:1261   */\n      dup3\n        /* \"#utility.yul\":1251:1288   */\n      mstore\n        /* \"#utility.yul\":1176:1294   */\n      pop\n      pop\n      jump\t// out\n        /* \"#utility.yul\":1300:1399   */\n    tag_68:\n        /* \"#utility.yul\":1352:1358   */\n      0x00\n        /* \"#utility.yul\":1386:1391   */\n      dup2\n        /* \"#utility.yul\":1380:1392   */\n      mload\n        /* \"#utility.yul\":1370:1392   */\n      swap1\n      pop\n        /* \"#utility.yul\":1300:1399   */\n      swap2\n      swap1\n      pop\n      jump\t// out\n        /* \"#utility.yul\":1405:1574   */\n    tag_69:\n        /* \"#utility.yul\":1489:1500   */\n      0x00\n        /* \"#utility.yul\":1523:1529   */\n      dup3\n        /* \"#utility.yul\":1518:1521   */\n      dup3\n        /* \"#utility.yul\":1511:1530   */\n      mstore\n        /* \"#utility.yul\":1563:1567   */\n      0x20\n        /* \"#utility.yul\":1558:1561   */\n      dup3\n        /* \"#utility.yul\":1554:1568   */\n      add\n        /* \"#utility.yul\":1539:1568   */\n      swap1\n      pop\n        /* \"#utility.yul\":1405:1574   */\n      swap3\n      swap2\n      pop\n      pop\n      jump\t// out\n        /* \"#utility.yul\":1580:1719   */\n    tag_70:\n        /* \"#utility.yul\":1669:1675   */\n      dup3\n        /* \"#utility.yul\":1664:1667   */\n      dup2\n        /* \"#utility.yul\":1659:1662   */\n      dup4\n        /* \"#utility.yul\":1653:1676   */\n      mcopy\n        /* \"#utility.yul\":1710:1711   */\n      0x00\n        /* \"#utility.yul\":1701:1707   */\n      dup4\n        /* \"#utility.yul\":1696:1699   */\n      dup4\n        /* \"#utility.yul\":1692:1708   */\n      add\n        /* \"#utility.yul\":1685:1712   */\n      mstore\n        /* \"#utility.yul\":1580:1719   */\n      pop\n      pop\n      pop\n      jump\t// out\n        /* \"#utility.yul\":1725:1827   */\n    tag_71:\n        /* \"#utility.yul\":1766:1772   */\n      0x00\n        /* \"#utility.yul\":1817:1819   */\n      0x1f\n        /* \"#utility.yul\":1813:1820   */\n      not\n        /* \"#utility.yul\":1808:1810   */\n      0x1f\n        /* \"#utility.yul\":1801:1806   */\n      dup4\n        /* \"#utility.yul\":1797:1811   */\n      add\n        /* \"#utility.yul\":1793:1821   */\n      and\n        /* \"#utility.yul\":1783:1821   */\n      swap1\n      pop\n        /* \"#utility.yul\":1725:1827   */\n      swap2\n      swap1\n      pop\n      jump\t// out\n        /* \"#utility.yul\":1833:2210   */\n    tag_72:\n        /* \"#utility.yul\":1921:1924   */\n      0x00\n        /* \"#utility.yul\":1949:1988   */\n      tag_126\n        /* \"#utility.yul\":1982:1987   */\n      dup3\n        /* \"#utility.yul\":1949:1988   */\n      tag_68\n      jump\t// in\n    tag_126:\n        /* \"#utility.yul\":2004:2075   */\n      tag_127\n        /* \"#utility.yul\":2068:2074   */\n      dup2\n        /* \"#utility.yul\":2063:2066   */\n      dup6\n        /* \"#utility.yul\":2004:2075   */\n      tag_69\n      jump\t// in\n    tag_127:\n        /* \"#utility.yul\":1997:2075   */\n      swap4\n      pop\n        /* \"#utility.yul\":2084:2149   */\n      tag_128\n        /* \"#utility.yul\":2142:2148   */\n      dup2\n        /* \"#utility.yul\":2137:2140   */\n      dup6\n        /* \"#utility.yul\":2130:2134   */\n      0x20\n        /* \"#utility.yul\":2123:2128   */\n      dup7\n        /* \"#utility.yul\":2119:2135   */\n      add\n        /* \"#utility.yul\":2084:2149   */\n      tag_70\n      jump\t// in\n    tag_128:\n        /* \"#utility.yul\":2174:2203   */\n      tag_129\n        /* \"#utility.yul\":2196:2202   */\n      dup2\n        /* \"#utility.yul\":2174:2203   */\n      tag_71\n      jump\t// in\n    tag_129:\n        /* \"#utility.yul\":2169:2172   */\n      dup5\n        /* \"#utility.yul\":2165:2204   */\n      add\n        /* \"#utility.yul\":2158:2204   */\n      swap2\n      pop\n        /* \"#utility.yul\":1925:2210   */\n      pop\n        /* \"#utility.yul\":1833:2210   */\n      swap3\n      swap2\n      pop\n      pop\n      jump\t// out\n        /* \"#utility.yul\":2216:3042   */\n    tag_11:\n        /* \"#utility.yul\":2453:2457   */\n      0x00\n        /* \"#utility.yul\":2491:2494   */\n      0x80\n        /* \"#utility.yul\":2480:2489   */\n      dup3\n        /* \"#utility.yul\":2476:2495   */\n      add\n        /* \"#utility.yul\":2468:2495   */\n      swap1\n      pop\n        /* \"#utility.yul\":2505:2576   */\n      tag_131\n        /* \"#utility.yul\":2573:2574   */\n      0x00\n        /* \"#utility.yul\":2562:2571   */\n      dup4\n        /* \"#utility.yul\":2558:2575   */\n      add\n        /* \"#utility.yul\":2549:2555   */\n      dup8\n        /* \"#utility.yul\":2505:2576   */\n      tag_67\n      jump\t// in\n    tag_131:\n        /* \"#utility.yul\":2623:2632   */\n      dup2\n        /* \"#utility.yul\":2617:2621   */\n      dup2\n        /* \"#utility.yul\":2613:2633   */\n      sub\n        /* \"#utility.yul\":2608:2610   */\n      0x20\n        /* \"#utility.yul\":2597:2606   */\n      dup4\n        /* \"#utility.yul\":2593:2611   */\n      add\n        /* \"#utility.yul\":2586:2634   */\n      mstore\n        /* \"#utility.yul\":2651:2729   */\n      tag_132\n        /* \"#utility.yul\":2724:2728   */\n      dup2\n        /* \"#utility.yul\":2715:2721   */\n      dup7\n        /* \"#utility.yul\":2651:2729   */\n      tag_72\n      jump\t// in\n    tag_132:\n        /* \"#utility.yul\":2643:2729   */\n      swap1\n      pop\n        /* \"#utility.yul\":2776:2785   */\n      dup2\n        /* \"#utility.yul\":2770:2774   */\n      dup2\n        /* \"#utility.yul\":2766:2786   */\n      sub\n        /* \"#utility.yul\":2761:2763   */\n      0x40\n        /* \"#utility.yul\":2750:2759   */\n      dup4\n        /* \"#utility.yul\":2746:2764   */\n      add\n        /* \"#utility.yul\":2739:2787   */\n      mstore\n        /* \"#utility.yul\":2804:2882   */\n      tag_133\n        /* \"#utility.yul\":2877:2881   */\n      dup2\n        /* \"#utility.yul\":2868:2874   */\n      dup6\n        /* \"#utility.yul\":2804:2882   */\n      tag_72\n      jump\t// in\n    tag_133:\n        /* \"#utility.yul\":2796:2882   */\n      swap1\n      pop\n        /* \"#utility.yul\":2929:2938   */\n      dup2\n        /* \"#utility.yul\":2923:2927   */\n      dup2\n        /* \"#utility.yul\":2919:2939   */\n      sub\n        /* \"#utility.yul\":2914:2916   */\n      0x60\n        /* \"#utility.yul\":2903:2912   */\n      dup4\n        /* \"#utility.yul\":2899:2917   */\n      add\n        /* \"#utility.yul\":2892:2940   */\n      mstore\n        /* \"#utility.yul\":2957:3035   */\n      tag_134\n        /* \"#utility.yul\":3030:3034   */\n      dup2\n        /* \"#utility.yul\":3021:3027   */\n      dup5\n        /* \"#utility.yul\":2957:3035   */\n      tag_72\n      jump\t// in\n    tag_134:\n        /* \"#utility.yul\":2949:3035   */\n      swap1\n      pop\n        /* \"#utility.yul\":2216:3042   */\n      swap6\n      swap5\n      pop\n      pop\n      pop\n      pop\n      pop\n      jump\t// out\n        /* \"#utility.yul\":3048:3156   */\n    tag_73:\n        /* \"#utility.yul\":3125:3149   */\n      tag_136\n        /* \"#utility.yul\":3143:3148   */\n      dup2\n        /* \"#utility.yul\":3125:3149   */\n      tag_64\n      jump\t// in\n    tag_136:\n        /* \"#utility.yul\":3120:3123   */\n      dup3\n        /* \"#utility.yul\":3113:3150   */\n      mstore\n        /* \"#utility.yul\":3048:3156   */\n      pop\n      pop\n      jump\t// out\n        /* \"#utility.yul\":3162:3321   */\n    tag_74:\n        /* \"#utility.yul\":3236:3247   */\n      0x00\n        /* \"#utility.yul\":3270:3276   */\n      dup3\n        /* \"#utility.yul\":3265:3268   */\n      dup3\n        /* \"#utility.yul\":3258:3277   */\n      mstore\n        /* \"#utility.yul\":3310:3314   */\n      0x20\n        /* \"#utility.yul\":3305:3308   */\n      dup3\n        /* \"#utility.yul\":3301:3315   */\n      add\n        /* \"#utility.yul\":3286:3315   */\n      swap1\n      pop\n        /* \"#utility.yul\":3162:3321   */\n      swap3\n      swap2\n      pop\n      pop\n      jump\t// out\n        /* \"#utility.yul\":3327:3684   */\n    tag_75:\n        /* \"#utility.yul\":3405:3408   */\n      0x00\n        /* \"#utility.yul\":3433:3472   */\n      tag_139\n        /* \"#utility.yul\":3466:3471   */\n      dup3\n        /* \"#utility.yul\":3433:3472   */\n      tag_68\n      jump\t// in\n    tag_139:\n        /* \"#utility.yul\":3488:3549   */\n      tag_140\n        /* \"#utility.yul\":3542:3548   */\n      dup2\n        /* \"#utility.yul\":3537:3540   */\n      dup6\n        /* \"#utility.yul\":3488:3549   */\n      tag_74\n      jump\t// in\n    tag_140:\n        /* \"#utility.yul\":3481:3549   */\n      swap4\n      pop\n        /* \"#utility.yul\":3558:3623   */\n      tag_141\n        /* \"#utility.yul\":3616:3622   */\n      dup2\n        /* \"#utility.yul\":3611:3614   */\n      dup6\n        /* \"#utility.yul\":3604:3608   */\n      0x20\n        /* \"#utility.yul\":3597:3602   */\n      dup7\n        /* \"#utility.yul\":3593:3609   */\n      add\n        /* \"#utility.yul\":3558:3623   */\n      tag_70\n      jump\t// in\n    tag_141:\n        /* \"#utility.yul\":3648:3677   */\n      tag_142\n        /* \"#utility.yul\":3670:3676   */\n      dup2\n        /* \"#utility.yul\":3648:3677   */\n      tag_71\n      jump\t// in\n    tag_142:\n        /* \"#utility.yul\":3643:3646   */\n      dup5\n        /* \"#utility.yul\":3639:3678   */\n      add\n        /* \"#utility.yul\":3632:3678   */\n      swap2\n      pop\n        /* \"#utility.yul\":3409:3684   */\n      pop\n        /* \"#utility.yul\":3327:3684   */\n      swap3\n      swap2\n      pop\n      pop\n      jump\t// out\n        /* \"#utility.yul\":3762:4869   */\n    tag_76:\n        /* \"#utility.yul\":3877:3880   */\n      0x00\n        /* \"#utility.yul\":3913:3917   */\n      0x80\n        /* \"#utility.yul\":3908:3911   */\n      dup4\n        /* \"#utility.yul\":3904:3918   */\n      add\n        /* \"#utility.yul\":4002:4006   */\n      0x00\n        /* \"#utility.yul\":3995:4000   */\n      dup4\n        /* \"#utility.yul\":3991:4007   */\n      add\n        /* \"#utility.yul\":3985:4008   */\n      mload\n        /* \"#utility.yul\":4021:4084   */\n      tag_144\n        /* \"#utility.yul\":4078:4082   */\n      0x00\n        /* \"#utility.yul\":4073:4076   */\n      dup7\n        /* \"#utility.yul\":4069:4083   */\n      add\n        /* \"#utility.yul\":4055:4067   */\n      dup3\n        /* \"#utility.yul\":4021:4084   */\n      tag_73\n      jump\t// in\n    tag_144:\n        /* \"#utility.yul\":3928:4094   */\n      pop\n        /* \"#utility.yul\":4176:4180   */\n      0x20\n        /* \"#utility.yul\":4169:4174   */\n      dup4\n        /* \"#utility.yul\":4165:4181   */\n      add\n        /* \"#utility.yul\":4159:4182   */\n      mload\n        /* \"#utility.yul\":4229:4232   */\n      dup5\n        /* \"#utility.yul\":4223:4227   */\n      dup3\n        /* \"#utility.yul\":4219:4233   */\n      sub\n        /* \"#utility.yul\":4212:4216   */\n      0x20\n        /* \"#utility.yul\":4207:4210   */\n      dup7\n        /* \"#utility.yul\":4203:4217   */\n      add\n        /* \"#utility.yul\":4196:4234   */\n      mstore\n        /* \"#utility.yul\":4255:4328   */\n      tag_145\n        /* \"#utility.yul\":4323:4327   */\n      dup3\n        /* \"#utility.yul\":4309:4321   */\n      dup3\n        /* \"#utility.yul\":4255:4328   */\n      tag_75\n      jump\t// in\n    tag_145:\n        /* \"#utility.yul\":4247:4328   */\n      swap2\n      pop\n        /* \"#utility.yul\":4104:4339   */\n      pop\n        /* \"#utility.yul\":4427:4431   */\n      0x40\n        /* \"#utility.yul\":4420:4425   */\n      dup4\n        /* \"#utility.yul\":4416:4432   */\n      add\n        /* \"#utility.yul\":4410:4433   */\n      mload\n        /* \"#utility.yul\":4480:4483   */\n      dup5\n        /* \"#utility.yul\":4474:4478   */\n      dup3\n        /* \"#utility.yul\":4470:4484   */\n      sub\n        /* \"#utility.yul\":4463:4467   */\n      0x40\n        /* \"#utility.yul\":4458:4461   */\n      dup7\n        /* \"#utility.yul\":4454:4468   */\n      add\n        /* \"#utility.yul\":4447:4485   */\n      mstore\n        /* \"#utility.yul\":4506:4579   */\n      tag_146\n        /* \"#utility.yul\":4574:4578   */\n      dup3\n        /* \"#utility.yul\":4560:4572   */\n      dup3\n        /* \"#utility.yul\":4506:4579   */\n      tag_75\n      jump\t// in\n    tag_146:\n        /* \"#utility.yul\":4498:4579   */\n      swap2\n      pop\n        /* \"#utility.yul\":4349:4590   */\n      pop\n        /* \"#utility.yul\":4679:4683   */\n      0x60\n        /* \"#utility.yul\":4672:4677   */\n      dup4\n        /* \"#utility.yul\":4668:4684   */\n      add\n        /* \"#utility.yul\":4662:4685   */\n      mload\n        /* \"#utility.yul\":4732:4735   */\n      dup5\n        /* \"#utility.yul\":4726:4730   */\n      dup3\n        /* \"#utility.yul\":4722:4736   */\n      sub\n        /* \"#utility.yul\":4715:4719   */\n      0x60\n        /* \"#utility.yul\":4710:4713   */\n      dup7\n        /* \"#utility.yul\":4706:4720   */\n      add\n        /* \"#utility.yul\":4699:4737   */\n      mstore\n        /* \"#utility.yul\":4758:4831   */\n      tag_147\n        /* \"#utility.yul\":4826:4830   */\n      dup3\n        /* \"#utility.yul\":4812:4824   */\n      dup3\n        /* \"#utility.yul\":4758:4831   */\n      tag_75\n      jump\t// in\n    tag_147:\n        /* \"#utility.yul\":4750:4831   */\n      swap2\n      pop\n        /* \"#utility.yul\":4600:4842   */\n      pop\n        /* \"#utility.yul\":4859:4863   */\n      dup1\n        /* \"#utility.yul\":4852:4863   */\n      swap2\n      pop\n        /* \"#utility.yul\":3882:4869   */\n      pop\n        /* \"#utility.yul\":3762:4869   */\n      swap3\n      swap2\n      pop\n      pop\n      jump\t// out\n        /* \"#utility.yul\":4875:5240   */\n    tag_16:\n        /* \"#utility.yul\":5014:5018   */\n      0x00\n        /* \"#utility.yul\":5052:5054   */\n      0x20\n        /* \"#utility.yul\":5041:5050   */\n      dup3\n        /* \"#utility.yul\":5037:5055   */\n      add\n        /* \"#utility.yul\":5029:5055   */\n      swap1\n      pop\n        /* \"#utility.yul\":5101:5110   */\n      dup2\n        /* \"#utility.yul\":5095:5099   */\n      dup2\n        /* \"#utility.yul\":5091:5111   */\n      sub\n        /* \"#utility.yul\":5087:5088   */\n      0x00\n        /* \"#utility.yul\":5076:5085   */\n      dup4\n        /* \"#utility.yul\":5072:5089   */\n      add\n        /* \"#utility.yul\":5065:5112   */\n      mstore\n        /* \"#utility.yul\":5129:5233   */\n      tag_149\n        /* \"#utility.yul\":5228:5232   */\n      dup2\n        /* \"#utility.yul\":5219:5225   */\n      dup5\n        /* \"#utility.yul\":5129:5233   */\n      tag_76\n      jump\t// in\n    tag_149:\n        /* \"#utility.yul\":5121:5233   */\n      swap1\n      pop\n        /* \"#utility.yul\":4875:5240   */\n      swap3\n      swap2\n      pop\n      pop\n      jump\t// out\n        /* \"#utility.yul\":5246:5363   */\n    tag_77:\n        /* \"#utility.yul\":5355:5356   */\n      0x00\n        /* \"#utility.yul\":5352:5353   */\n      dup1\n        /* \"#utility.yul\":5345:5357   */\n      revert\n        /* \"#utility.yul\":5369:5486   */\n    tag_78:\n        /* \"#utility.yul\":5478:5479   */\n      0x00\n        /* \"#utility.yul\":5475:5476   */\n      dup1\n        /* \"#utility.yul\":5468:5480   */\n      revert\n        /* \"#utility.yul\":5492:5672   */\n    tag_79:\n        /* \"#utility.yul\":5540:5617   */\n      0x4e487b7100000000000000000000000000000000000000000000000000000000\n        /* \"#utility.yul\":5537:5538   */\n      0x00\n        /* \"#utility.yul\":5530:5618   */\n      mstore\n        /* \"#utility.yul\":5637:5641   */\n      0x41\n        /* \"#utility.yul\":5634:5635   */\n      0x04\n        /* \"#utility.yul\":5627:5642   */\n      mstore\n        /* \"#utility.yul\":5661:5665   */\n      0x24\n        /* \"#utility.yul\":5658:5659   */\n      0x00\n        /* \"#utility.yul\":5651:5666   */\n      revert\n        /* \"#utility.yul\":5678:5959   */\n    tag_80:\n        /* \"#utility.yul\":5761:5788   */\n      tag_154\n        /* \"#utility.yul\":5783:5787   */\n      dup3\n        /* \"#utility.yul\":5761:5788   */\n      tag_71\n      jump\t// in\n    tag_154:\n        /* \"#utility.yul\":5753:5759   */\n      dup2\n        /* \"#utility.yul\":5749:5789   */\n      add\n        /* \"#utility.yul\":5891:5897   */\n      dup2\n        /* \"#utility.yul\":5879:5889   */\n      dup2\n        /* \"#utility.yul\":5876:5898   */\n      lt\n        /* \"#utility.yul\":5855:5873   */\n      0xffffffffffffffff\n        /* \"#utility.yul\":5843:5853   */\n      dup3\n        /* \"#utility.yul\":5840:5874   */\n      gt\n        /* \"#utility.yul\":5837:5899   */\n      or\n        /* \"#utility.yul\":5834:5922   */\n      iszero\n      tag_155\n      jumpi\n        /* \"#utility.yul\":5902:5920   */\n      tag_156\n      tag_79\n      jump\t// in\n    tag_156:\n        /* \"#utility.yul\":5834:5922   */\n    tag_155:\n        /* \"#utility.yul\":5942:5952   */\n      dup1\n        /* \"#utility.yul\":5938:5940   */\n      0x40\n        /* \"#utility.yul\":5931:5953   */\n      mstore\n        /* \"#utility.yul\":5721:5959   */\n      pop\n        /* \"#utility.yul\":5678:5959   */\n      pop\n      pop\n      jump\t// out\n        /* \"#utility.yul\":5965:6094   */\n    tag_81:\n        /* \"#utility.yul\":5999:6005   */\n      0x00\n        /* \"#utility.yul\":6026:6046   */\n      tag_158\n      tag_60\n      jump\t// in\n    tag_158:\n        /* \"#utility.yul\":6016:6046   */\n      swap1\n      pop\n        /* \"#utility.yul\":6055:6088   */\n      tag_159\n        /* \"#utility.yul\":6083:6087   */\n      dup3\n        /* \"#utility.yul\":6075:6081   */\n      dup3\n        /* \"#utility.yul\":6055:6088   */\n      tag_80\n      jump\t// in\n    tag_159:\n        /* \"#utility.yul\":5965:6094   */\n      swap2\n      swap1\n      pop\n      jump\t// out\n        /* \"#utility.yul\":6100:6408   */\n    tag_82:\n        /* \"#utility.yul\":6162:6166   */\n      0x00\n        /* \"#utility.yul\":6252:6270   */\n      0xffffffffffffffff\n        /* \"#utility.yul\":6244:6250   */\n      dup3\n        /* \"#utility.yul\":6241:6271   */\n      gt\n        /* \"#utility.yul\":6238:6294   */\n      iszero\n      tag_161\n      jumpi\n        /* \"#utility.yul\":6274:6292   */\n      tag_162\n      tag_79\n      jump\t// in\n    tag_162:\n        /* \"#utility.yul\":6238:6294   */\n    tag_161:\n        /* \"#utility.yul\":6312:6341   */\n      tag_163\n        /* \"#utility.yul\":6334:6340   */\n      dup3\n        /* \"#utility.yul\":6312:6341   */\n      tag_71\n      jump\t// in\n    tag_163:\n        /* \"#utility.yul\":6304:6341   */\n      swap1\n      pop\n        /* \"#utility.yul\":6396:6400   */\n      0x20\n        /* \"#utility.yul\":6390:6394   */\n      dup2\n        /* \"#utility.yul\":6386:6401   */\n      add\n        /* \"#utility.yul\":6378:6401   */\n      swap1\n      pop\n        /* \"#utility.yul\":6100:6408   */\n      swap2\n      swap1\n      pop\n      jump\t// out\n        /* \"#utility.yul\":6414:6562   */\n    tag_83:\n        /* \"#utility.yul\":6512:6518   */\n      dup3\n        /* \"#utility.yul\":6507:6510   */\n      dup2\n        /* \"#utility.yul\":6502:6505   */\n      dup4\n        /* \"#utility.yul\":6489:6519   */\n      calldatacopy\n        /* \"#utility.yul\":6553:6554   */\n      0x00\n        /* \"#utility.yul\":6544:6550   */\n      dup4\n        /* \"#utility.yul\":6539:6542   */\n      dup4\n        /* \"#utility.yul\":6535:6551   */\n      add\n        /* \"#utility.yul\":6528:6555   */\n      mstore\n        /* \"#utility.yul\":6414:6562   */\n      pop\n      pop\n      pop\n      jump\t// out\n        /* \"#utility.yul\":6568:6993   */\n    tag_84:\n        /* \"#utility.yul\":6646:6651   */\n      0x00\n        /* \"#utility.yul\":6671:6737   */\n      tag_166\n        /* \"#utility.yul\":6687:6736   */\n      tag_167\n        /* \"#utility.yul\":6729:6735   */\n      dup5\n        /* \"#utility.yul\":6687:6736   */\n      tag_82\n      jump\t// in\n    tag_167:\n        /* \"#utility.yul\":6671:6737   */\n      tag_81\n      jump\t// in\n    tag_166:\n        /* \"#utility.yul\":6662:6737   */\n      swap1\n      pop\n        /* \"#utility.yul\":6760:6766   */\n      dup3\n        /* \"#utility.yul\":6753:6758   */\n      dup2\n        /* \"#utility.yul\":6746:6767   */\n      mstore\n        /* \"#utility.yul\":6798:6802   */\n      0x20\n        /* \"#utility.yul\":6791:6796   */\n      dup2\n        /* \"#utility.yul\":6787:6803   */\n      add\n        /* \"#utility.yul\":6836:6839   */\n      dup5\n        /* \"#utility.yul\":6827:6833   */\n      dup5\n        /* \"#utility.yul\":6822:6825   */\n      dup5\n        /* \"#utility.yul\":6818:6834   */\n      add\n        /* \"#utility.yul\":6815:6840   */\n      gt\n        /* \"#utility.yul\":6812:6924   */\n      iszero\n      tag_168\n      jumpi\n        /* \"#utility.yul\":6843:6922   */\n      tag_169\n      tag_78\n      jump\t// in\n    tag_169:\n        /* \"#utility.yul\":6812:6924   */\n    tag_168:\n        /* \"#utility.yul\":6933:6987   */\n      tag_170\n        /* \"#utility.yul\":6980:6986   */\n      dup5\n        /* \"#utility.yul\":6975:6978   */\n      dup3\n        /* \"#utility.yul\":6970:6973   */\n      dup6\n        /* \"#utility.yul\":6933:6987   */\n      tag_83\n      jump\t// in\n    tag_170:\n        /* \"#utility.yul\":6652:6993   */\n      pop\n        /* \"#utility.yul\":6568:6993   */\n      swap4\n      swap3\n      pop\n      pop\n      pop\n      jump\t// out\n        /* \"#utility.yul\":7013:7353   */\n    tag_85:\n        /* \"#utility.yul\":7069:7074   */\n      0x00\n        /* \"#utility.yul\":7118:7121   */\n      dup3\n        /* \"#utility.yul\":7111:7115   */\n      0x1f\n        /* \"#utility.yul\":7103:7109   */\n      dup4\n        /* \"#utility.yul\":7099:7116   */\n      add\n        /* \"#utility.yul\":7095:7122   */\n      slt\n        /* \"#utility.yul\":7085:7207   */\n      tag_172\n      jumpi\n        /* \"#utility.yul\":7126:7205   */\n      tag_173\n      tag_77\n      jump\t// in\n    tag_173:\n        /* \"#utility.yul\":7085:7207   */\n    tag_172:\n        /* \"#utility.yul\":7243:7249   */\n      dup2\n        /* \"#utility.yul\":7230:7250   */\n      calldataload\n        /* \"#utility.yul\":7268:7347   */\n      tag_174\n        /* \"#utility.yul\":7343:7346   */\n      dup5\n        /* \"#utility.yul\":7335:7341   */\n      dup3\n        /* \"#utility.yul\":7328:7332   */\n      0x20\n        /* \"#utility.yul\":7320:7326   */\n      dup7\n        /* \"#utility.yul\":7316:7333   */\n      add\n        /* \"#utility.yul\":7268:7347   */\n      tag_84\n      jump\t// in\n    tag_174:\n        /* \"#utility.yul\":7259:7347   */\n      swap2\n      pop\n        /* \"#utility.yul\":7075:7353   */\n      pop\n        /* \"#utility.yul\":7013:7353   */\n      swap3\n      swap2\n      pop\n      pop\n      jump\t// out\n        /* \"#utility.yul\":7359:8518   */\n    tag_19:\n        /* \"#utility.yul\":7466:7472   */\n      0x00\n        /* \"#utility.yul\":7474:7480   */\n      dup1\n        /* \"#utility.yul\":7482:7488   */\n      0x00\n        /* \"#utility.yul\":7531:7533   */\n      0x60\n        /* \"#utility.yul\":7519:7528   */\n      dup5\n        /* \"#utility.yul\":7510:7517   */\n      dup7\n        /* \"#utility.yul\":7506:7529   */\n      sub\n        /* \"#utility.yul\":7502:7534   */\n      slt\n        /* \"#utility.yul\":7499:7618   */\n      iszero\n      tag_176\n      jumpi\n        /* \"#utility.yul\":7537:7616   */\n      tag_177\n      tag_61\n      jump\t// in\n    tag_177:\n        /* \"#utility.yul\":7499:7618   */\n    tag_176:\n        /* \"#utility.yul\":7685:7686   */\n      0x00\n        /* \"#utility.yul\":7674:7683   */\n      dup5\n        /* \"#utility.yul\":7670:7687   */\n      add\n        /* \"#utility.yul\":7657:7688   */\n      calldataload\n        /* \"#utility.yul\":7715:7733   */\n      0xffffffffffffffff\n        /* \"#utility.yul\":7707:7713   */\n      dup2\n        /* \"#utility.yul\":7704:7734   */\n      gt\n        /* \"#utility.yul\":7701:7818   */\n      iszero\n      tag_178\n      jumpi\n        /* \"#utility.yul\":7737:7816   */\n      tag_179\n      tag_62\n      jump\t// in\n    tag_179:\n        /* \"#utility.yul\":7701:7818   */\n    tag_178:\n        /* \"#utility.yul\":7842:7905   */\n      tag_180\n        /* \"#utility.yul\":7897:7904   */\n      dup7\n        /* \"#utility.yul\":7888:7894   */\n      dup3\n        /* \"#utility.yul\":7877:7886   */\n      dup8\n        /* \"#utility.yul\":7873:7895   */\n      add\n        /* \"#utility.yul\":7842:7905   */\n      tag_85\n      jump\t// in\n    tag_180:\n        /* \"#utility.yul\":7832:7905   */\n      swap4\n      pop\n        /* \"#utility.yul\":7628:7915   */\n      pop\n        /* \"#utility.yul\":7982:7984   */\n      0x20\n        /* \"#utility.yul\":7971:7980   */\n      dup5\n        /* \"#utility.yul\":7967:7985   */\n      add\n        /* \"#utility.yul\":7954:7986   */\n      calldataload\n        /* \"#utility.yul\":8013:8031   */\n      0xffffffffffffffff\n        /* \"#utility.yul\":8005:8011   */\n      dup2\n        /* \"#utility.yul\":8002:8032   */\n      gt\n        /* \"#utility.yul\":7999:8116   */\n      iszero\n      tag_181\n      jumpi\n        /* \"#utility.yul\":8035:8114   */\n      tag_182\n      tag_62\n      jump\t// in\n    tag_182:\n        /* \"#utility.yul\":7999:8116   */\n    tag_181:\n        /* \"#utility.yul\":8140:8203   */\n      tag_183\n        /* \"#utility.yul\":8195:8202   */\n      dup7\n        /* \"#utility.yul\":8186:8192   */\n      dup3\n        /* \"#utility.yul\":8175:8184   */\n      dup8\n        /* \"#utility.yul\":8171:8193   */\n      add\n        /* \"#utility.yul\":8140:8203   */\n      tag_85\n      jump\t// in\n    tag_183:\n        /* \"#utility.yul\":8130:8203   */\n      swap3\n      pop\n        /* \"#utility.yul\":7925:8213   */\n      pop\n        /* \"#utility.yul\":8280:8282   */\n      0x40\n        /* \"#utility.yul\":8269:8278   */\n      dup5\n        /* \"#utility.yul\":8265:8283   */\n      add\n        /* \"#utility.yul\":8252:8284   */\n      calldataload\n        /* \"#utility.yul\":8311:8329   */\n      0xffffffffffffffff\n        /* \"#utility.yul\":8303:8309   */\n      dup2\n        /* \"#utility.yul\":8300:8330   */\n      gt\n        /* \"#utility.yul\":8297:8414   */\n      iszero\n      tag_184\n      jumpi\n        /* \"#utility.yul\":8333:8412   */\n      tag_185\n      tag_62\n      jump\t// in\n    tag_185:\n        /* \"#utility.yul\":8297:8414   */\n    tag_184:\n        /* \"#utility.yul\":8438:8501   */\n      tag_186\n        /* \"#utility.yul\":8493:8500   */\n      dup7\n        /* \"#utility.yul\":8484:8490   */\n      dup3\n        /* \"#utility.yul\":8473:8482   */\n      dup8\n        /* \"#utility.yul\":8469:8491   */\n      add\n        /* \"#utility.yul\":8438:8501   */\n      tag_85\n      jump\t// in\n    tag_186:\n        /* \"#utility.yul\":8428:8501   */\n      swap2\n      pop\n        /* \"#utility.yul\":8223:8511   */\n      pop\n        /* \"#utility.yul\":7359:8518   */\n      swap3\n      pop\n      swap3\n      pop\n      swap3\n      jump\t// out\n        /* \"#utility.yul\":8524:8704   */\n    tag_86:\n        /* \"#utility.yul\":8572:8649   */\n      0x4e487b7100000000000000000000000000000000000000000000000000000000\n        /* \"#utility.yul\":8569:8570   */\n      0x00\n        /* \"#utility.yul\":8562:8650   */\n      mstore\n        /* \"#utility.yul\":8669:8673   */\n      0x22\n        /* \"#utility.yul\":8666:8667   */\n      0x04\n        /* \"#utility.yul\":8659:8674   */\n      mstore\n        /* \"#utility.yul\":8693:8697   */\n      0x24\n        /* \"#utility.yul\":8690:8691   */\n      0x00\n        /* \"#utility.yul\":8683:8698   */\n      revert\n        /* \"#utility.yul\":8710:9030   */\n    tag_22:\n        /* \"#utility.yul\":8754:8760   */\n      0x00\n        /* \"#utility.yul\":8791:8792   */\n      0x02\n        /* \"#utility.yul\":8785:8789   */\n      dup3\n        /* \"#utility.yul\":8781:8793   */\n      div\n        /* \"#utility.yul\":8771:8793   */\n      swap1\n      pop\n        /* \"#utility.yul\":8838:8839   */\n      0x01\n        /* \"#utility.yul\":8832:8836   */\n      dup3\n        /* \"#utility.yul\":8828:8840   */\n      and\n        /* \"#utility.yul\":8859:8877   */\n      dup1\n        /* \"#utility.yul\":8849:8930   */\n      tag_189\n      jumpi\n        /* \"#utility.yul\":8915:8919   */\n      0x7f\n        /* \"#utility.yul\":8907:8913   */\n      dup3\n        /* \"#utility.yul\":8903:8920   */\n      and\n        /* \"#utility.yul\":8893:8920   */\n      swap2\n      pop\n        /* \"#utility.yul\":8849:8930   */\n    tag_189:\n        /* \"#utility.yul\":8977:8979   */\n      0x20\n        /* \"#utility.yul\":8969:8975   */\n      dup3\n        /* \"#utility.yul\":8966:8980   */\n      lt\n        /* \"#utility.yul\":8946:8964   */\n      dup2\n        /* \"#utility.yul\":8943:8981   */\n      sub\n        /* \"#utility.yul\":8940:9024   */\n      tag_190\n      jumpi\n        /* \"#utility.yul\":8996:9014   */\n      tag_191\n      tag_86\n      jump\t// in\n    tag_191:\n        /* \"#utility.yul\":8940:9024   */\n    tag_190:\n        /* \"#utility.yul\":8761:9030   */\n      pop\n        /* \"#utility.yul\":8710:9030   */\n      swap2\n      swap1\n      pop\n      jump\t// out\n        /* \"#utility.yul\":9036:9177   */\n    tag_87:\n        /* \"#utility.yul\":9085:9089   */\n      0x00\n        /* \"#utility.yul\":9108:9111   */\n      dup2\n        /* \"#utility.yul\":9100:9111   */\n      swap1\n      pop\n        /* \"#utility.yul\":9131:9134   */\n      dup2\n        /* \"#utility.yul\":9128:9129   */\n      0x00\n        /* \"#utility.yul\":9121:9135   */\n      mstore\n        /* \"#utility.yul\":9165:9169   */\n      0x20\n        /* \"#utility.yul\":9162:9163   */\n      0x00\n        /* \"#utility.yul\":9152:9170   */\n      keccak256\n        /* \"#utility.yul\":9144:9170   */\n      swap1\n      pop\n        /* \"#utility.yul\":9036:9177   */\n      swap2\n      swap1\n      pop\n      jump\t// out\n        /* \"#utility.yul\":9183:9276   */\n    tag_88:\n        /* \"#utility.yul\":9220:9226   */\n      0x00\n        /* \"#utility.yul\":9267:9269   */\n      0x20\n        /* \"#utility.yul\":9262:9264   */\n      0x1f\n        /* \"#utility.yul\":9255:9260   */\n      dup4\n        /* \"#utility.yul\":9251:9265   */\n      add\n        /* \"#utility.yul\":9247:9270   */\n      div\n        /* \"#utility.yul\":9237:9270   */\n      swap1\n      pop\n        /* \"#utility.yul\":9183:9276   */\n      swap2\n      swap1\n      pop\n      jump\t// out\n        /* \"#utility.yul\":9282:9389   */\n    tag_89:\n        /* \"#utility.yul\":9326:9334   */\n      0x00\n        /* \"#utility.yul\":9376:9381   */\n      dup3\n        /* \"#utility.yul\":9370:9374   */\n      dup3\n        /* \"#utility.yul\":9366:9382   */\n      shl\n        /* \"#utility.yul\":9345:9382   */\n      swap1\n      pop\n        /* \"#utility.yul\":9282:9389   */\n      swap3\n      swap2\n      pop\n      pop\n      jump\t// out\n        /* \"#utility.yul\":9395:9788   */\n    tag_90:\n        /* \"#utility.yul\":9464:9470   */\n      0x00\n        /* \"#utility.yul\":9514:9515   */\n      0x08\n        /* \"#utility.yul\":9502:9512   */\n      dup4\n        /* \"#utility.yul\":9498:9516   */\n      mul\n        /* \"#utility.yul\":9537:9634   */\n      tag_196\n        /* \"#utility.yul\":9567:9633   */\n      0xffffffffffffffffffffffffffffffffffffffffffffffffffffffffffffffff\n        /* \"#utility.yul\":9556:9565   */\n      dup3\n        /* \"#utility.yul\":9537:9634   */\n      tag_89\n      jump\t// in\n    tag_196:\n        /* \"#utility.yul\":9655:9694   */\n      tag_197\n        /* \"#utility.yul\":9685:9693   */\n      dup7\n        /* \"#utility.yul\":9674:9683   */\n      dup4\n        /* \"#utility.yul\":9655:9694   */\n      tag_89\n      jump\t// in\n    tag_197:\n        /* \"#utility.yul\":9643:9694   */\n      swap6\n      pop\n        /* \"#utility.yul\":9727:9731   */\n      dup1\n        /* \"#utility.yul\":9723:9732   */\n      not\n        /* \"#utility.yul\":9716:9721   */\n      dup5\n        /* \"#utility.yul\":9712:9733   */\n      and\n        /* \"#utility.yul\":9703:9733   */\n      swap4\n      pop\n        /* \"#utility.yul\":9776:9780   */\n      dup1\n        /* \"#utility.yul\":9766:9774   */\n      dup7\n        /* \"#utility.yul\":9762:9781   */\n      and\n        /* \"#utility.yul\":9755:9760   */\n      dup5\n        /* \"#utility.yul\":9752:9782   */\n      or\n        /* \"#utility.yul\":9742:9782   */\n      swap3\n      pop\n        /* \"#utility.yul\":9471:9788   */\n      pop\n      pop\n        /* \"#utility.yul\":9395:9788   */\n      swap4\n      swap3\n      pop\n      pop\n      pop\n      jump\t// out\n        /* \"#utility.yul\":9794:9871   */\n    tag_91:\n        /* \"#utility.yul\":9831:9838   */\n      0x00\n        /* \"#utility.yul\":9860:9865   */\n      dup2\n        /* \"#utility.yul\":9849:9865   */\n      swap1\n      pop\n        /* \"#utility.yul\":9794:9871   */\n      swap2\n      swap1\n      pop\n      jump\t// out\n        /* \"#utility.yul\":9877:9937   */\n    tag_92:\n        /* \"#utility.yul\":9905:9908   */\n      0x00\n        /* \"#utility.yul\":9926:9931   */\n      dup2\n        /* \"#utility.yul\":9919:9931   */\n      swap1\n      pop\n        /* \"#utility.yul\":9877:9937   */\n      swap2\n      swap1\n      pop\n      jump\t// out\n        /* \"#utility.yul\":9943:10085   */\n    tag_93:\n        /* \"#utility.yul\":9993:10002   */\n      0x00\n        /* \"#utility.yul\":10026:10079   */\n      tag_201\n        /* \"#utility.yul\":10044:10078   */\n      tag_202\n        /* \"#utility.yul\":10053:10077   */\n      tag_203\n        /* \"#utility.yul\":10071:10076   */\n      dup5\n        /* \"#utility.yul\":10053:10077   */\n      tag_91\n      jump\t// in\n    tag_203:\n        /* \"#utility.yul\":10044:10078   */\n      tag_92\n      jump\t// in\n    tag_202:\n        /* \"#utility.yul\":10026:10079   */\n      tag_91\n      jump\t// in\n    tag_201:\n        /* \"#utility.yul\":10013:10079   */\n      swap1\n      pop\n        /* \"#utility.yul\":9943:10085   */\n      swap2\n      swap1\n      pop\n      jump\t// out\n        /* \"#utility.yul\":10091:10166   */\n    tag_94:\n        /* \"#utility.yul\":10134:10137   */\n      0x00\n        /* \"#utility.yul\":10155:10160   */\n      dup2\n        /* \"#utility.yul\":10148:10160   */\n      swap1\n      pop\n        /* \"#utility.yul\":10091:10166   */\n      swap2\n      swap1\n      pop\n      jump\t// out\n        /* \"#utility.yul\":10172:10441   */\n    tag_95:\n        /* \"#utility.yul\":10282:10321   */\n      tag_206\n        /* \"#utility.yul\":10313:10320   */\n      dup4\n        /* \"#utility.yul\":10282:10321   */\n      tag_93\n      jump\t// in\n    tag_206:\n        /* \"#utility.yul\":10343:10434   */\n      tag_207\n        /* \"#utility.yul\":10392:10433   */\n      tag_208\n        /* \"#utility.yul\":10416:10432   */\n      dup3\n        /* \"#utility.yul\":10392:10433   */\n      tag_94\n      jump\t// in\n    tag_208:\n        /* \"#utility.yul\":10384:10390   */\n      dup5\n        /* \"#utility.yul\":10377:10381   */\n      dup5\n        /* \"#utility.yul\":10371:10382   */\n      sload\n        /* \"#utility.yul\":10343:10434   */\n      tag_90\n      jump\t// in\n    tag_207:\n        /* \"#utility.yul\":10337:10341   */\n      dup3\n        /* \"#utility.yul\":10330:10435   */\n      sstore\n        /* \"#utility.yul\":10248:10441   */\n      pop\n        /* \"#utility.yul\":10172:10441   */\n      pop\n      pop\n      pop\n      jump\t// out\n        /* \"#utility.yul\":10447:10520   */\n    tag_96:\n        /* \"#utility.yul\":10492:10495   */\n      0x00\n        /* \"#utility.yul\":10447:10520   */\n      swap1\n      jump\t// out\n        /* \"#utility.yul\":10526:10715   */\n    tag_97:\n        /* \"#utility.yul\":10603:10635   */\n      tag_211\n      tag_96\n      jump\t// in\n    tag_211:\n        /* \"#utility.yul\":10644:10709   */\n      tag_212\n        /* \"#utility.yul\":10702:10708   */\n      dup2\n        /* \"#utility.yul\":10694:10700   */\n      dup5\n        /* \"#utility.yul\":10688:10692   */\n      dup5\n        /* \"#utility.yul\":10644:10709   */\n      tag_95\n      jump\t// in\n    tag_212:\n        /* \"#utility.yul\":10579:10715   */\n      pop\n        /* \"#utility.yul\":10526:10715   */\n      pop\n      pop\n      jump\t// out\n        /* \"#utility.yul\":10721:10907   */\n    tag_98:\n        /* \"#utility.yul\":10781:10901   */\n    tag_214:\n        /* \"#utility.yul\":10798:10801   */\n      dup2\n        /* \"#utility.yul\":10791:10796   */\n      dup2\n        /* \"#utility.yul\":10788:10802   */\n      lt\n        /* \"#utility.yul\":10781:10901   */\n      iszero\n      tag_216\n      jumpi\n        /* \"#utility.yul\":10852:10891   */\n      tag_217\n        /* \"#utility.yul\":10889:10890   */\n      0x00\n        /* \"#utility.yul\":10882:10887   */\n      dup3\n        /* \"#utility.yul\":10852:10891   */\n      tag_97\n      jump\t// in\n    tag_217:\n        /* \"#utility.yul\":10825:10826   */\n      0x01\n        /* \"#utility.yul\":10818:10823   */\n      dup2\n        /* \"#utility.yul\":10814:10827   */\n      add\n        /* \"#utility.yul\":10805:10827   */\n      swap1\n      pop\n        /* \"#utility.yul\":10781:10901   */\n      jump(tag_214)\n    tag_216:\n        /* \"#utility.yul\":10721:10907   */\n      pop\n      pop\n      jump\t// out\n        /* \"#utility.yul\":10913:11456   */\n    tag_99:\n        /* \"#utility.yul\":11014:11016   */\n      0x1f\n        /* \"#utility.yul\":11009:11012   */\n      dup3\n        /* \"#utility.yul\":11006:11017   */\n      gt\n        /* \"#utility.yul\":11003:11449   */\n      iszero\n      tag_219\n      jumpi\n        /* \"#utility.yul\":11048:11086   */\n      tag_220\n        /* \"#utility.yul\":11080:11085   */\n      dup2\n        /* \"#utility.yul\":11048:11086   */\n      tag_87\n      jump\t// in\n    tag_220:\n        /* \"#utility.yul\":11132:11161   */\n      tag_221\n        /* \"#utility.yul\":11150:11160   */\n      dup5\n        /* \"#utility.yul\":11132:11161   */\n      tag_88\n      jump\t// in\n    tag_221:\n        /* \"#utility.yul\":11122:11130   */\n      dup2\n        /* \"#utility.yul\":11118:11162   */\n      add\n        /* \"#utility.yul\":11315:11317   */\n      0x20\n        /* \"#utility.yul\":11303:11313   */\n      dup6\n        /* \"#utility.yul\":11300:11318   */\n      lt\n        /* \"#utility.yul\":11297:11346   */\n      iszero\n      tag_222\n      jumpi\n        /* \"#utility.yul\":11336:11344   */\n      dup2\n        /* \"#utility.yul\":11321:11344   */\n      swap1\n      pop\n        /* \"#utility.yul\":11297:11346   */\n    tag_222:\n        /* \"#utility.yul\":11359:11439   */\n      tag_223\n        /* \"#utility.yul\":11415:11437   */\n      tag_224\n        /* \"#utility.yul\":11433:11436   */\n      dup6\n        /* \"#utility.yul\":11415:11437   */\n      tag_88\n      jump\t// in\n    tag_224:\n        /* \"#utility.yul\":11405:11413   */\n      dup4\n        /* \"#utility.yul\":11401:11438   */\n      add\n        /* \"#utility.yul\":11388:11399   */\n      dup3\n        /* \"#utility.yul\":11359:11439   */\n      tag_98\n      jump\t// in\n    tag_223:\n        /* \"#utility.yul\":11018:11449   */\n      pop\n      pop\n        /* \"#utility.yul\":11003:11449   */\n    tag_219:\n        /* \"#utility.yul\":10913:11456   */\n      pop\n      pop\n      pop\n      jump\t// out\n        /* \"#utility.yul\":11462:11579   */\n    tag_100:\n        /* \"#utility.yul\":11516:11524   */\n      0x00\n        /* \"#utility.yul\":11566:11571   */\n      dup3\n        /* \"#utility.yul\":11560:11564   */\n      dup3\n        /* \"#utility.yul\":11556:11572   */\n      shr\n        /* \"#utility.yul\":11535:11572   */\n      swap1\n      pop\n        /* \"#utility.yul\":11462:11579   */\n      swap3\n      swap2\n      pop\n      pop\n      jump\t// out\n        /* \"#utility.yul\":11585:11754   */\n    tag_101:\n        /* \"#utility.yul\":11629:11635   */\n      0x00\n        /* \"#utility.yul\":11662:11713   */\n      tag_227\n        /* \"#utility.yul\":11710:11711   */\n      0x00\n        /* \"#utility.yul\":11706:11712   */\n      not\n        /* \"#utility.yul\":11698:11703   */\n      dup5\n        /* \"#utility.yul\":11695:11696   */\n      0x08\n        /* \"#utility.yul\":11691:11704   */\n      mul\n        /* \"#utility.yul\":11662:11713   */\n      tag_100\n      jump\t// in\n    tag_227:\n        /* \"#utility.yul\":11658:11714   */\n      not\n        /* \"#utility.yul\":11743:11747   */\n      dup1\n        /* \"#utility.yul\":11737:11741   */\n      dup4\n        /* \"#utility.yul\":11733:11748   */\n      and\n        /* \"#utility.yul\":11723:11748   */\n      swap2\n      pop\n        /* \"#utility.yul\":11636:11754   */\n      pop\n        /* \"#utility.yul\":11585:11754   */\n      swap3\n      swap2\n      pop\n      pop\n      jump\t// out\n        /* \"#utility.yul\":11759:12054   */\n    tag_102:\n        /* \"#utility.yul\":11835:11839   */\n      0x00\n        /* \"#utility.yul\":11981:12010   */\n      tag_229\n        /* \"#utility.yul\":12006:12009   */\n      dup4\n        /* \"#utility.yul\":12000:12004   */\n      dup4\n        /* \"#utility.yul\":11981:12010   */\n      tag_101\n      jump\t// in\n    tag_229:\n        /* \"#utility.yul\":11973:12010   */\n      swap2\n      pop\n        /* \"#utility.yul\":12043:12046   */\n      dup3\n        /* \"#utility.yul\":12040:12041   */\n      0x02\n        /* \"#utility.yul\":12036:12047   */\n      mul\n        /* \"#utility.yul\":12030:12034   */\n      dup3\n        /* \"#utility.yul\":12027:12048   */\n      or\n        /* \"#utility.yul\":12019:12048   */\n      swap1\n      pop\n        /* \"#utility.yul\":11759:12054   */\n      swap3\n      swap2\n      pop\n      pop\n      jump\t// out\n        /* \"#utility.yul\":12059:13454   */\n    tag_57:\n        /* \"#utility.yul\":12176:12213   */\n      tag_231\n        /* \"#utility.yul\":12209:12212   */\n      dup3\n        /* \"#utility.yul\":12176:12213   */\n      tag_68\n      jump\t// in\n    tag_231:\n        /* \"#utility.yul\":12278:12296   */\n      0xffffffffffffffff\n        /* \"#utility.yul\":12270:12276   */\n      dup2\n        /* \"#utility.yul\":12267:12297   */\n      gt\n        /* \"#utility.yul\":12264:12320   */\n      iszero\n      tag_232\n      jumpi\n        /* \"#utility.yul\":12300:12318   */\n      tag_233\n      tag_79\n      jump\t// in\n    tag_233:\n        /* \"#utility.yul\":12264:12320   */\n    tag_232:\n        /* \"#utility.yul\":12344:12382   */\n      tag_234\n        /* \"#utility.yul\":12376:12380   */\n      dup3\n        /* \"#utility.yul\":12370:12381   */\n      sload\n        /* \"#utility.yul\":12344:12382   */\n      tag_22\n      jump\t// in\n    tag_234:\n        /* \"#utility.yul\":12429:12496   */\n      tag_235\n        /* \"#utility.yul\":12489:12495   */\n      dup3\n        /* \"#utility.yul\":12481:12487   */\n      dup3\n        /* \"#utility.yul\":12475:12479   */\n      dup6\n        /* \"#utility.yul\":12429:12496   */\n      tag_99\n      jump\t// in\n    tag_235:\n        /* \"#utility.yul\":12523:12524   */\n      0x00\n        /* \"#utility.yul\":12547:12551   */\n      0x20\n        /* \"#utility.yul\":12534:12551   */\n      swap1\n      pop\n        /* \"#utility.yul\":12579:12581   */\n      0x1f\n        /* \"#utility.yul\":12571:12577   */\n      dup4\n        /* \"#utility.yul\":12568:12582   */\n      gt\n        /* \"#utility.yul\":12596:12597   */\n      0x01\n        /* \"#utility.yul\":12591:13209   */\n      dup2\n      eq\n      tag_237\n      jumpi\n        /* \"#utility.yul\":13253:13254   */\n      0x00\n        /* \"#utility.yul\":13270:13276   */\n      dup5\n        /* \"#utility.yul\":13267:13344   */\n      iszero\n      tag_238\n      jumpi\n        /* \"#utility.yul\":13319:13328   */\n      dup3\n        /* \"#utility.yul\":13314:13317   */\n      dup8\n        /* \"#utility.yul\":13310:13329   */\n      add\n        /* \"#utility.yul\":13304:13330   */\n      mload\n        /* \"#utility.yul\":13295:13330   */\n      swap1\n      pop\n        /* \"#utility.yul\":13267:13344   */\n    tag_238:\n        /* \"#utility.yul\":13370:13437   */\n      tag_239\n        /* \"#utility.yul\":13430:13436   */\n      dup6\n        /* \"#utility.yul\":13423:13428   */\n      dup3\n        /* \"#utility.yul\":13370:13437   */\n      tag_102\n      jump\t// in\n    tag_239:\n        /* \"#utility.yul\":13364:13368   */\n      dup7\n        /* \"#utility.yul\":13357:13438   */\n      sstore\n        /* \"#utility.yul\":13226:13448   */\n      pop\n        /* \"#utility.yul\":12561:13448   */\n      jump(tag_236)\n        /* \"#utility.yul\":12591:13209   */\n    tag_237:\n        /* \"#utility.yul\":12643:12647   */\n      0x1f\n        /* \"#utility.yul\":12639:12648   */\n      not\n        /* \"#utility.yul\":12631:12637   */\n      dup5\n        /* \"#utility.yul\":12627:12649   */\n      and\n        /* \"#utility.yul\":12677:12714   */\n      tag_240\n        /* \"#utility.yul\":12709:12713   */\n      dup7\n        /* \"#utility.yul\":12677:12714   */\n      tag_87\n      jump\t// in\n    tag_240:\n        /* \"#utility.yul\":12736:12737   */\n      0x00\n        /* \"#utility.yul\":12750:12958   */\n    tag_241:\n        /* \"#utility.yul\":12764:12771   */\n      dup3\n        /* \"#utility.yul\":12761:12762   */\n      dup2\n        /* \"#utility.yul\":12758:12772   */\n      lt\n        /* \"#utility.yul\":12750:12958   */\n      iszero\n      tag_243\n      jumpi\n        /* \"#utility.yul\":12843:12852   */\n      dup5\n        /* \"#utility.yul\":12838:12841   */\n      dup10\n        /* \"#utility.yul\":12834:12853   */\n      add\n        /* \"#utility.yul\":12828:12854   */\n      mload\n        /* \"#utility.yul\":12820:12826   */\n      dup3\n        /* \"#utility.yul\":12813:12855   */\n      sstore\n        /* \"#utility.yul\":12894:12895   */\n      0x01\n        /* \"#utility.yul\":12886:12892   */\n      dup3\n        /* \"#utility.yul\":12882:12896   */\n      add\n        /* \"#utility.yul\":12872:12896   */\n      swap2\n      pop\n        /* \"#utility.yul\":12941:12943   */\n      0x20\n        /* \"#utility.yul\":12930:12939   */\n      dup6\n        /* \"#utility.yul\":12926:12944   */\n      add\n        /* \"#utility.yul\":12913:12944   */\n      swap5\n      pop\n        /* \"#utility.yul\":12787:12791   */\n      0x20\n        /* \"#utility.yul\":12784:12785   */\n      dup2\n        /* \"#utility.yul\":12780:12792   */\n      add\n        /* \"#utility.yul\":12775:12792   */\n      swap1\n      pop\n        /* \"#utility.yul\":12750:12958   */\n      jump(tag_241)\n    tag_243:\n        /* \"#utility.yul\":12986:12992   */\n      dup7\n        /* \"#utility.yul\":12977:12984   */\n      dup4\n        /* \"#utility.yul\":12974:12993   */\n      lt\n        /* \"#utility.yul\":12971:13150   */\n      iszero\n      tag_244\n      jumpi\n        /* \"#utility.yul\":13044:13053   */\n      dup5\n        /* \"#utility.yul\":13039:13042   */\n      dup10\n        /* \"#utility.yul\":13035:13054   */\n      add\n        /* \"#utility.yul\":13029:13055   */\n      mload\n        /* \"#utility.yul\":13087:13135   */\n      tag_245\n        /* \"#utility.yul\":13129:13133   */\n      0x1f\n        /* \"#utility.yul\":13121:13127   */\n      dup10\n        /* \"#utility.yul\":13117:13134   */\n      and\n        /* \"#utility.yul\":13106:13115   */\n      dup3\n        /* \"#utility.yul\":13087:13135   */\n      tag_101\n      jump\t// in\n    tag_245:\n        /* \"#utility.yul\":13079:13085   */\n      dup4\n        /* \"#utility.yul\":13072:13136   */\n      sstore\n        /* \"#utility.yul\":12994:13150   */\n      pop\n        /* \"#utility.yul\":12971:13150   */\n    tag_244:\n        /* \"#utility.yul\":13196:13197   */\n      0x01\n        /* \"#utility.yul\":13192:13193   */\n      0x02\n        /* \"#utility.yul\":13184:13190   */\n      dup9\n        /* \"#utility.yul\":13180:13194   */\n      mul\n        /* \"#utility.yul\":13176:13198   */\n      add\n        /* \"#utility.yul\":13170:13174   */\n      dup9\n        /* \"#utility.yul\":13163:13199   */\n      sstore\n        /* \"#utility.yul\":12598:13209   */\n      pop\n      pop\n      pop\n        /* \"#utility.yul\":12561:13448   */\n    tag_236:\n      pop\n        /* \"#utility.yul\":12151:13454   */\n      pop\n      pop\n      pop\n        /* \"#utility.yul\":12059:13454   */\n      pop\n      pop\n      jump\t// out\n\n    auxdata: 0xa2646970667358221220c9ad785ebbf8833af823da12e82ff868a537c3c656ae09482213dd9feee8407f64736f6c634300081a0033\n}\n",
				"bytecode": {
					"linkReferences": {},
					"object": "6080604052348015600e575f80fd5b50610d608061001c5f395ff3fe608060405234801561000f575f80fd5b506004361061003f575f3560e01c80630869cfbc14610043578063b5368e2014610076578063be65437a146100a6575b5f80fd5b61005d600480360381019061005891906106a1565b6100c2565b60405161006d949392919061074b565b60405180910390f35b610090600480360381019061008b91906106a1565b61029e565b60405161009d9190610868565b60405180910390f35b6100c060048036038101906100bb91906109b4565b6104f8565b005b5f602052805f5260405f205f91509050805f015f9054906101000a900473ffffffffffffffffffffffffffffffffffffffff169080600101805461010590610a85565b80601f016020809104026020016040519081016040528092919081815260200182805461013190610a85565b801561017c5780601f106101535761010080835404028352916020019161017c565b820191905f5260205f20905b81548152906001019060200180831161015f57829003601f168201915b50505050509080600201805461019190610a85565b80601f01602080910402602001604051908101604052809291908181526020018280546101bd90610a85565b80156102085780601f106101df57610100808354040283529160200191610208565b820191905f5260205f20905b8154815290600101906020018083116101eb57829003601f168201915b50505050509080600301805461021d90610a85565b80601f016020809104026020016040519081016040528092919081815260200182805461024990610a85565b80156102945780601f1061026b57610100808354040283529160200191610294565b820191905f5260205f20905b81548152906001019060200180831161027757829003601f168201915b5050505050905084565b6102a66105f9565b5f808373ffffffffffffffffffffffffffffffffffffffff1673ffffffffffffffffffffffffffffffffffffffff1681526020019081526020015f206040518060800160405290815f82015f9054906101000a900473ffffffffffffffffffffffffffffffffffffffff1673ffffffffffffffffffffffffffffffffffffffff1673ffffffffffffffffffffffffffffffffffffffff16815260200160018201805461035190610a85565b80601f016020809104026020016040519081016040528092919081815260200182805461037d90610a85565b80156103c85780601f1061039f576101008083540402835291602001916103c8565b820191905f5260205f20905b8154815290600101906020018083116103ab57829003601f168201915b505050505081526020016002820180546103e190610a85565b80601f016020809104026020016040519081016040528092919081815260200182805461040d90610a85565b80156104585780601f1061042f57610100808354040283529160200191610458565b820191905f5260205f20905b81548152906001019060200180831161043b57829003601f168201915b5050505050815260200160038201805461047190610a85565b80601f016020809104026020016040519081016040528092919081815260200182805461049d90610a85565b80156104e85780601f106104bf576101008083540402835291602001916104e8565b820191905f5260205f20905b8154815290600101906020018083116104cb57829003601f168201915b5050505050815250509050919050565b60405180608001604052803373ffffffffffffffffffffffffffffffffffffffff168152602001848152602001838152602001828152505f803373ffffffffffffffffffffffffffffffffffffffff1673ffffffffffffffffffffffffffffffffffffffff1681526020019081526020015f205f820151815f015f6101000a81548173ffffffffffffffffffffffffffffffffffffffff021916908373ffffffffffffffffffffffffffffffffffffffff16021790555060208201518160010190816105c49190610c5b565b5060408201518160020190816105da9190610c5b565b5060608201518160030190816105f09190610c5b565b50905050505050565b60405180608001604052805f73ffffffffffffffffffffffffffffffffffffffff1681526020016060815260200160608152602001606081525090565b5f604051905090565b5f80fd5b5f80fd5b5f73ffffffffffffffffffffffffffffffffffffffff82169050919050565b5f61067082610647565b9050919050565b61068081610666565b811461068a575f80fd5b50565b5f8135905061069b81610677565b92915050565b5f602082840312156106b6576106b561063f565b5b5f6106c38482850161068d565b91505092915050565b6106d581610666565b82525050565b5f81519050919050565b5f82825260208201905092915050565b8281835e5f83830152505050565b5f601f19601f8301169050919050565b5f61071d826106db565b61072781856106e5565b93506107378185602086016106f5565b61074081610703565b840191505092915050565b5f60808201905061075e5f8301876106cc565b81810360208301526107708186610713565b905081810360408301526107848185610713565b905081810360608301526107988184610713565b905095945050505050565b6107ac81610666565b82525050565b5f82825260208201905092915050565b5f6107cc826106db565b6107d681856107b2565b93506107e68185602086016106f5565b6107ef81610703565b840191505092915050565b5f608083015f83015161080f5f8601826107a3565b506020830151848203602086015261082782826107c2565b9150506040830151848203604086015261084182826107c2565b9150506060830151848203606086015261085b82826107c2565b9150508091505092915050565b5f6020820190508181035f83015261088081846107fa565b905092915050565b5f80fd5b5f80fd5b7f4e487b71000000000000000000000000000000000000000000000000000000005f52604160045260245ffd5b6108c682610703565b810181811067ffffffffffffffff821117156108e5576108e4610890565b5b80604052505050565b5f6108f7610636565b905061090382826108bd565b919050565b5f67ffffffffffffffff82111561092257610921610890565b5b61092b82610703565b9050602081019050919050565b828183375f83830152505050565b5f61095861095384610908565b6108ee565b9050828152602081018484840111156109745761097361088c565b5b61097f848285610938565b509392505050565b5f82601f83011261099b5761099a610888565b5b81356109ab848260208601610946565b91505092915050565b5f805f606084860312156109cb576109ca61063f565b5b5f84013567ffffffffffffffff8111156109e8576109e7610643565b5b6109f486828701610987565b935050602084013567ffffffffffffffff811115610a1557610a14610643565b5b610a2186828701610987565b925050604084013567ffffffffffffffff811115610a4257610a41610643565b5b610a4e86828701610987565b9150509250925092565b7f4e487b71000000000000000000000000000000000000000000000000000000005f52602260045260245ffd5b5f6002820490506001821680610a9c57607f821691505b602082108103610aaf57610aae610a58565b5b50919050565b5f819050815f5260205f209050919050565b5f6020601f8301049050919050565b5f82821b905092915050565b5f60088302610b117fffffffffffffffffffffffffffffffffffffffffffffffffffffffffffffffff82610ad6565b610b1b8683610ad6565b95508019841693508086168417925050509392505050565b5f819050919050565b5f819050919050565b5f610b5f610b5a610b5584610b33565b610b3c565b610b33565b9050919050565b5f819050919050565b610b7883610b45565b610b8c610b8482610b66565b848454610ae2565b825550505050565b5f90565b610ba0610b94565b610bab818484610b6f565b505050565b5b81811015610bce57610bc35f82610b98565b600181019050610bb1565b5050565b601f821115610c1357610be481610ab5565b610bed84610ac7565b81016020851015610bfc578190505b610c10610c0885610ac7565b830182610bb0565b50505b505050565b5f82821c905092915050565b5f610c335f1984600802610c18565b1980831691505092915050565b5f610c4b8383610c24565b9150826002028217905092915050565b610c64826106db565b67ffffffffffffffff811115610c7d57610c7c610890565b5b610c878254610a85565b610c92828285610bd2565b5f60209050601f831160018114610cc3575f8415610cb1578287015190505b610cbb8582610c40565b865550610d22565b601f198416610cd186610ab5565b5f5b82811015610cf857848901518255600182019150602085019450602081019050610cd3565b86831015610d155784890151610d11601f891682610c24565b8355505b6001600288020188555050505b50505050505056fea2646970667358221220c9ad785ebbf8833af823da12e82ff868a537c3c656ae09482213dd9feee8407f64736f6c634300081a0033",
					"opcodes": "PUSH1 0x80 PUSH1 0x40 MSTORE CALLVALUE DUP1 ISZERO PUSH1 0xE JUMPI PUSH0 DUP1 REVERT JUMPDEST POP PUSH2 0xD60 DUP1 PUSH2 0x1C PUSH0 CODECOPY PUSH0 RETURN INVALID PUSH1 0x80 PUSH1 0x40 MSTORE CALLVALUE DUP1 ISZERO PUSH2 0xF JUMPI PUSH0 DUP1 REVERT JUMPDEST POP PUSH1 0x4 CALLDATASIZE LT PUSH2 0x3F JUMPI PUSH0 CALLDATALOAD PUSH1 0xE0 SHR DUP1 PUSH4 0x869CFBC EQ PUSH2 0x43 JUMPI DUP1 PUSH4 0xB5368E20 EQ PUSH2 0x76 JUMPI DUP1 PUSH4 0xBE65437A EQ PUSH2 0xA6 JUMPI JUMPDEST PUSH0 DUP1 REVERT JUMPDEST PUSH2 0x5D PUSH1 0x4 DUP1 CALLDATASIZE SUB DUP2 ADD SWAP1 PUSH2 0x58 SWAP2 SWAP1 PUSH2 0x6A1 JUMP JUMPDEST PUSH2 0xC2 JUMP JUMPDEST PUSH1 0x40 MLOAD PUSH2 0x6D SWAP5 SWAP4 SWAP3 SWAP2 SWAP1 PUSH2 0x74B JUMP JUMPDEST PUSH1 0x40 MLOAD DUP1 SWAP2 SUB SWAP1 RETURN JUMPDEST PUSH2 0x90 PUSH1 0x4 DUP1 CALLDATASIZE SUB DUP2 ADD SWAP1 PUSH2 0x8B SWAP2 SWAP1 PUSH2 0x6A1 JUMP JUMPDEST PUSH2 0x29E JUMP JUMPDEST PUSH1 0x40 MLOAD PUSH2 0x9D SWAP2 SWAP1 PUSH2 0x868 JUMP JUMPDEST PUSH1 0x40 MLOAD DUP1 SWAP2 SUB SWAP1 RETURN JUMPDEST PUSH2 0xC0 PUSH1 0x4 DUP1 CALLDATASIZE SUB DUP2 ADD SWAP1 PUSH2 0xBB SWAP2 SWAP1 PUSH2 0x9B4 JUMP JUMPDEST PUSH2 0x4F8 JUMP JUMPDEST STOP JUMPDEST PUSH0 PUSH1 0x20 MSTORE DUP1 PUSH0 MSTORE PUSH1 0x40 PUSH0 KECCAK256 PUSH0 SWAP2 POP SWAP1 POP DUP1 PUSH0 ADD PUSH0 SWAP1 SLOAD SWAP1 PUSH2 0x100 EXP SWAP1 DIV PUSH20 0xFFFFFFFFFFFFFFFFFFFFFFFFFFFFFFFFFFFFFFFF AND SWAP1 DUP1 PUSH1 0x1 ADD DUP1 SLOAD PUSH2 0x105 SWAP1 PUSH2 0xA85 JUMP JUMPDEST DUP1 PUSH1 0x1F ADD PUSH1 0x20 DUP1 SWAP2 DIV MUL PUSH1 0x20 ADD PUSH1 0x40 MLOAD SWAP1 DUP2 ADD PUSH1 0x40 MSTORE DUP1 SWAP3 SWAP2 SWAP1 DUP2 DUP2 MSTORE PUSH1 0x20 ADD DUP3 DUP1 SLOAD PUSH2 0x131 SWAP1 PUSH2 0xA85 JUMP JUMPDEST DUP1 ISZERO PUSH2 0x17C JUMPI DUP1 PUSH1 0x1F LT PUSH2 0x153 JUMPI PUSH2 0x100 DUP1 DUP4 SLOAD DIV MUL DUP4 MSTORE SWAP2 PUSH1 0x20 ADD SWAP2 PUSH2 0x17C JUMP JUMPDEST DUP3 ADD SWAP2 SWAP1 PUSH0 MSTORE PUSH1 0x20 PUSH0 KECCAK256 SWAP1 JUMPDEST DUP2 SLOAD DUP2 MSTORE SWAP1 PUSH1 0x1 ADD SWAP1 PUSH1 0x20 ADD DUP1 DUP4 GT PUSH2 0x15F JUMPI DUP3 SWAP1 SUB PUSH1 0x1F AND DUP3 ADD SWAP2 JUMPDEST POP POP POP POP POP SWAP1 DUP1 PUSH1 0x2 ADD DUP1 SLOAD PUSH2 0x191 SWAP1 PUSH2 0xA85 JUMP JUMPDEST DUP1 PUSH1 0x1F ADD PUSH1 0x20 DUP1 SWAP2 DIV MUL PUSH1 0x20 ADD PUSH1 0x40 MLOAD SWAP1 DUP2 ADD PUSH1 0x40 MSTORE DUP1 SWAP3 SWAP2 SWAP1 DUP2 DUP2 MSTORE PUSH1 0x20 ADD DUP3 DUP1 SLOAD PUSH2 0x1BD SWAP1 PUSH2 0xA85 JUMP JUMPDEST DUP1 ISZERO PUSH2 0x208 JUMPI DUP1 PUSH1 0x1F LT PUSH2 0x1DF JUMPI PUSH2 0x100 DUP1 DUP4 SLOAD DIV MUL DUP4 MSTORE SWAP2 PUSH1 0x20 ADD SWAP2 PUSH2 0x208 JUMP JUMPDEST DUP3 ADD SWAP2 SWAP1 PUSH0 MSTORE PUSH1 0x20 PUSH0 KECCAK256 SWAP1 JUMPDEST DUP2 SLOAD DUP2 MSTORE SWAP1 PUSH1 0x1 ADD SWAP1 PUSH1 0x20 ADD DUP1 DUP4 GT PUSH2 0x1EB JUMPI DUP3 SWAP1 SUB PUSH1 0x1F AND DUP3 ADD SWAP2 JUMPDEST POP POP POP POP POP SWAP1 DUP1 PUSH1 0x3 ADD DUP1 SLOAD PUSH2 0x21D SWAP1 PUSH2 0xA85 JUMP JUMPDEST DUP1 PUSH1 0x1F ADD PUSH1 0x20 DUP1 SWAP2 DIV MUL PUSH1 0x20 ADD PUSH1 0x40 MLOAD SWAP1 DUP2 ADD PUSH1 0x40 MSTORE DUP1 SWAP3 SWAP2 SWAP1 DUP2 DUP2 MSTORE PUSH1 0x20 ADD DUP3 DUP1 SLOAD PUSH2 0x249 SWAP1 PUSH2 0xA85 JUMP JUMPDEST DUP1 ISZERO PUSH2 0x294 JUMPI DUP1 PUSH1 0x1F LT PUSH2 0x26B JUMPI PUSH2 0x100 DUP1 DUP4 SLOAD DIV MUL DUP4 MSTORE SWAP2 PUSH1 0x20 ADD SWAP2 PUSH2 0x294 JUMP JUMPDEST DUP3 ADD SWAP2 SWAP1 PUSH0 MSTORE PUSH1 0x20 PUSH0 KECCAK256 SWAP1 JUMPDEST DUP2 SLOAD DUP2 MSTORE SWAP1 PUSH1 0x1 ADD SWAP1 PUSH1 0x20 ADD DUP1 DUP4 GT PUSH2 0x277 JUMPI DUP3 SWAP1 SUB PUSH1 0x1F AND DUP3 ADD SWAP2 JUMPDEST POP POP POP POP POP SWAP1 POP DUP5 JUMP JUMPDEST PUSH2 0x2A6 PUSH2 0x5F9 JUMP JUMPDEST PUSH0 DUP1 DUP4 PUSH20 0xFFFFFFFFFFFFFFFFFFFFFFFFFFFFFFFFFFFFFFFF AND PUSH20 0xFFFFFFFFFFFFFFFFFFFFFFFFFFFFFFFFFFFFFFFF AND DUP2 MSTORE PUSH1 0x20 ADD SWAP1 DUP2 MSTORE PUSH1 0x20 ADD PUSH0 KECCAK256 PUSH1 0x40 MLOAD DUP1 PUSH1 0x80 ADD PUSH1 0x40 MSTORE SWAP1 DUP2 PUSH0 DUP3 ADD PUSH0 SWAP1 SLOAD SWAP1 PUSH2 0x100 EXP SWAP1 DIV PUSH20 0xFFFFFFFFFFFFFFFFFFFFFFFFFFFFFFFFFFFFFFFF AND PUSH20 0xFFFFFFFFFFFFFFFFFFFFFFFFFFFFFFFFFFFFFFFF AND PUSH20 0xFFFFFFFFFFFFFFFFFFFFFFFFFFFFFFFFFFFFFFFF AND DUP2 MSTORE PUSH1 0x20 ADD PUSH1 0x1 DUP3 ADD DUP1 SLOAD PUSH2 0x351 SWAP1 PUSH2 0xA85 JUMP JUMPDEST DUP1 PUSH1 0x1F ADD PUSH1 0x20 DUP1 SWAP2 DIV MUL PUSH1 0x20 ADD PUSH1 0x40 MLOAD SWAP1 DUP2 ADD PUSH1 0x40 MSTORE DUP1 SWAP3 SWAP2 SWAP1 DUP2 DUP2 MSTORE PUSH1 0x20 ADD DUP3 DUP1 SLOAD PUSH2 0x37D SWAP1 PUSH2 0xA85 JUMP JUMPDEST DUP1 ISZERO PUSH2 0x3C8 JUMPI DUP1 PUSH1 0x1F LT PUSH2 0x39F JUMPI PUSH2 0x100 DUP1 DUP4 SLOAD DIV MUL DUP4 MSTORE SWAP2 PUSH1 0x20 ADD SWAP2 PUSH2 0x3C8 JUMP JUMPDEST DUP3 ADD SWAP2 SWAP1 PUSH0 MSTORE PUSH1 0x20 PUSH0 KECCAK256 SWAP1 JUMPDEST DUP2 SLOAD DUP2 MSTORE SWAP1 PUSH1 0x1 ADD SWAP1 PUSH1 0x20 ADD DUP1 DUP4 GT PUSH2 0x3AB JUMPI DUP3 SWAP1 SUB PUSH1 0x1F AND DUP3 ADD SWAP2 JUMPDEST POP POP POP POP POP DUP2 MSTORE PUSH1 0x20 ADD PUSH1 0x2 DUP3 ADD DUP1 SLOAD PUSH2 0x3E1 SWAP1 PUSH2 0xA85 JUMP JUMPDEST DUP1 PUSH1 0x1F ADD PUSH1 0x20 DUP1 SWAP2 DIV MUL PUSH1 0x20 ADD PUSH1 0x40 MLOAD SWAP1 DUP2 ADD PUSH1 0x40 MSTORE DUP1 SWAP3 SWAP2 SWAP1 DUP2 DUP2 MSTORE PUSH1 0x20 ADD DUP3 DUP1 SLOAD PUSH2 0x40D SWAP1 PUSH2 0xA85 JUMP JUMPDEST DUP1 ISZERO PUSH2 0x458 JUMPI DUP1 PUSH1 0x1F LT PUSH2 0x42F JUMPI PUSH2 0x100 DUP1 DUP4 SLOAD DIV MUL DUP4 MSTORE SWAP2 PUSH1 0x20 ADD SWAP2 PUSH2 0x458 JUMP JUMPDEST DUP3 ADD SWAP2 SWAP1 PUSH0 MSTORE PUSH1 0x20 PUSH0 KECCAK256 SWAP1 JUMPDEST DUP2 SLOAD DUP2 MSTORE SWAP1 PUSH1 0x1 ADD SWAP1 PUSH1 0x20 ADD DUP1 DUP4 GT PUSH2 0x43B JUMPI DUP3 SWAP1 SUB PUSH1 0x1F AND DUP3 ADD SWAP2 JUMPDEST POP POP POP POP POP DUP2 MSTORE PUSH1 0x20 ADD PUSH1 0x3 DUP3 ADD DUP1 SLOAD PUSH2 0x471 SWAP1 PUSH2 0xA85 JUMP JUMPDEST DUP1 PUSH1 0x1F ADD PUSH1 0x20 DUP1 SWAP2 DIV MUL PUSH1 0x20 ADD PUSH1 0x40 MLOAD SWAP1 DUP2 ADD PUSH1 0x40 MSTORE DUP1 SWAP3 SWAP2 SWAP1 DUP2 DUP2 MSTORE PUSH1 0x20 ADD DUP3 DUP1 SLOAD PUSH2 0x49D SWAP1 PUSH2 0xA85 JUMP JUMPDEST DUP1 ISZERO PUSH2 0x4E8 JUMPI DUP1 PUSH1 0x1F LT PUSH2 0x4BF JUMPI PUSH2 0x100 DUP1 DUP4 SLOAD DIV MUL DUP4 MSTORE SWAP2 PUSH1 0x20 ADD SWAP2 PUSH2 0x4E8 JUMP JUMPDEST DUP3 ADD SWAP2 SWAP1 PUSH0 MSTORE PUSH1 0x20 PUSH0 KECCAK256 SWAP1 JUMPDEST DUP2 SLOAD DUP2 MSTORE SWAP1 PUSH1 0x1 ADD SWAP1 PUSH1 0x20 ADD DUP1 DUP4 GT PUSH2 0x4CB JUMPI DUP3 SWAP1 SUB PUSH1 0x1F AND DUP3 ADD SWAP2 JUMPDEST POP POP POP POP POP DUP2 MSTORE POP POP SWAP1 POP SWAP2 SWAP1 POP JUMP JUMPDEST PUSH1 0x40 MLOAD DUP1 PUSH1 0x80 ADD PUSH1 0x40 MSTORE DUP1 CALLER PUSH20 0xFFFFFFFFFFFFFFFFFFFFFFFFFFFFFFFFFFFFFFFF AND DUP2 MSTORE PUSH1 0x20 ADD DUP5 DUP2 MSTORE PUSH1 0x20 ADD DUP4 DUP2 MSTORE PUSH1 0x20 ADD DUP3 DUP2 MSTORE POP PUSH0 DUP1 CALLER PUSH20 0xFFFFFFFFFFFFFFFFFFFFFFFFFFFFFFFFFFFFFFFF AND PUSH20 0xFFFFFFFFFFFFFFFFFFFFFFFFFFFFFFFFFFFFFFFF AND DUP2 MSTORE PUSH1 0x20 ADD SWAP1 DUP2 MSTORE PUSH1 0x20 ADD PUSH0 KECCAK256 PUSH0 DUP3 ADD MLOAD DUP2 PUSH0 ADD PUSH0 PUSH2 0x100 EXP DUP2 SLOAD DUP2 PUSH20 0xFFFFFFFFFFFFFFFFFFFFFFFFFFFFFFFFFFFFFFFF MUL NOT AND SWAP1 DUP4 PUSH20 0xFFFFFFFFFFFFFFFFFFFFFFFFFFFFFFFFFFFFFFFF AND MUL OR SWAP1 SSTORE POP PUSH1 0x20 DUP3 ADD MLOAD DUP2 PUSH1 0x1 ADD SWAP1 DUP2 PUSH2 0x5C4 SWAP2 SWAP1 PUSH2 0xC5B JUMP JUMPDEST POP PUSH1 0x40 DUP3 ADD MLOAD DUP2 PUSH1 0x2 ADD SWAP1 DUP2 PUSH2 0x5DA SWAP2 SWAP1 PUSH2 0xC5B JUMP JUMPDEST POP PUSH1 0x60 DUP3 ADD MLOAD DUP2 PUSH1 0x3 ADD SWAP1 DUP2 PUSH2 0x5F0 SWAP2 SWAP1 PUSH2 0xC5B JUMP JUMPDEST POP SWAP1 POP POP POP POP POP JUMP JUMPDEST PUSH1 0x40 MLOAD DUP1 PUSH1 0x80 ADD PUSH1 0x40 MSTORE DUP1 PUSH0 PUSH20 0xFFFFFFFFFFFFFFFFFFFFFFFFFFFFFFFFFFFFFFFF AND DUP2 MSTORE PUSH1 0x20 ADD PUSH1 0x60 DUP2 MSTORE PUSH1 0x20 ADD PUSH1 0x60 DUP2 MSTORE PUSH1 0x20 ADD PUSH1 0x60 DUP2 MSTORE POP SWAP1 JUMP JUMPDEST PUSH0 PUSH1 0x40 MLOAD SWAP1 POP SWAP1 JUMP JUMPDEST PUSH0 DUP1 REVERT JUMPDEST PUSH0 DUP1 REVERT JUMPDEST PUSH0 PUSH20 0xFFFFFFFFFFFFFFFFFFFFFFFFFFFFFFFFFFFFFFFF DUP3 AND SWAP1 POP SWAP2 SWAP1 POP JUMP JUMPDEST PUSH0 PUSH2 0x670 DUP3 PUSH2 0x647 JUMP JUMPDEST SWAP1 POP SWAP2 SWAP1 POP JUMP JUMPDEST PUSH2 0x680 DUP2 PUSH2 0x666 JUMP JUMPDEST DUP2 EQ PUSH2 0x68A JUMPI PUSH0 DUP1 REVERT JUMPDEST POP JUMP JUMPDEST PUSH0 DUP2 CALLDATALOAD SWAP1 POP PUSH2 0x69B DUP2 PUSH2 0x677 JUMP JUMPDEST SWAP3 SWAP2 POP POP JUMP JUMPDEST PUSH0 PUSH1 0x20 DUP3 DUP5 SUB SLT ISZERO PUSH2 0x6B6 JUMPI PUSH2 0x6B5 PUSH2 0x63F JUMP JUMPDEST JUMPDEST PUSH0 PUSH2 0x6C3 DUP5 DUP3 DUP6 ADD PUSH2 0x68D JUMP JUMPDEST SWAP2 POP POP SWAP3 SWAP2 POP POP JUMP JUMPDEST PUSH2 0x6D5 DUP2 PUSH2 0x666 JUMP JUMPDEST DUP3 MSTORE POP POP JUMP JUMPDEST PUSH0 DUP2 MLOAD SWAP1 POP SWAP2 SWAP1 POP JUMP JUMPDEST PUSH0 DUP3 DUP3 MSTORE PUSH1 0x20 DUP3 ADD SWAP1 POP SWAP3 SWAP2 POP POP JUMP JUMPDEST DUP3 DUP2 DUP4 MCOPY PUSH0 DUP4 DUP4 ADD MSTORE POP POP POP JUMP JUMPDEST PUSH0 PUSH1 0x1F NOT PUSH1 0x1F DUP4 ADD AND SWAP1 POP SWAP2 SWAP1 POP JUMP JUMPDEST PUSH0 PUSH2 0x71D DUP3 PUSH2 0x6DB JUMP JUMPDEST PUSH2 0x727 DUP2 DUP6 PUSH2 0x6E5 JUMP JUMPDEST SWAP4 POP PUSH2 0x737 DUP2 DUP6 PUSH1 0x20 DUP7 ADD PUSH2 0x6F5 JUMP JUMPDEST PUSH2 0x740 DUP2 PUSH2 0x703 JUMP JUMPDEST DUP5 ADD SWAP2 POP POP SWAP3 SWAP2 POP POP JUMP JUMPDEST PUSH0 PUSH1 0x80 DUP3 ADD SWAP1 POP PUSH2 0x75E PUSH0 DUP4 ADD DUP8 PUSH2 0x6CC JUMP JUMPDEST DUP2 DUP2 SUB PUSH1 0x20 DUP4 ADD MSTORE PUSH2 0x770 DUP2 DUP7 PUSH2 0x713 JUMP JUMPDEST SWAP1 POP DUP2 DUP2 SUB PUSH1 0x40 DUP4 ADD MSTORE PUSH2 0x784 DUP2 DUP6 PUSH2 0x713 JUMP JUMPDEST SWAP1 POP DUP2 DUP2 SUB PUSH1 0x60 DUP4 ADD MSTORE PUSH2 0x798 DUP2 DUP5 PUSH2 0x713 JUMP JUMPDEST SWAP1 POP SWAP6 SWAP5 POP POP POP POP POP JUMP JUMPDEST PUSH2 0x7AC DUP2 PUSH2 0x666 JUMP JUMPDEST DUP3 MSTORE POP POP JUMP JUMPDEST PUSH0 DUP3 DUP3 MSTORE PUSH1 0x20 DUP3 ADD SWAP1 POP SWAP3 SWAP2 POP POP JUMP JUMPDEST PUSH0 PUSH2 0x7CC DUP3 PUSH2 0x6DB JUMP JUMPDEST PUSH2 0x7D6 DUP2 DUP6 PUSH2 0x7B2 JUMP JUMPDEST SWAP4 POP PUSH2 0x7E6 DUP2 DUP6 PUSH1 0x20 DUP7 ADD PUSH2 0x6F5 JUMP JUMPDEST PUSH2 0x7EF DUP2 PUSH2 0x703 JUMP JUMPDEST DUP5 ADD SWAP2 POP POP SWAP3 SWAP2 POP POP JUMP JUMPDEST PUSH0 PUSH1 0x80 DUP4 ADD PUSH0 DUP4 ADD MLOAD PUSH2 0x80F PUSH0 DUP7 ADD DUP3 PUSH2 0x7A3 JUMP JUMPDEST POP PUSH1 0x20 DUP4 ADD MLOAD DUP5 DUP3 SUB PUSH1 0x20 DUP7 ADD MSTORE PUSH2 0x827 DUP3 DUP3 PUSH2 0x7C2 JUMP JUMPDEST SWAP2 POP POP PUSH1 0x40 DUP4 ADD MLOAD DUP5 DUP3 SUB PUSH1 0x40 DUP7 ADD MSTORE PUSH2 0x841 DUP3 DUP3 PUSH2 0x7C2 JUMP JUMPDEST SWAP2 POP POP PUSH1 0x60 DUP4 ADD MLOAD DUP5 DUP3 SUB PUSH1 0x60 DUP7 ADD MSTORE PUSH2 0x85B DUP3 DUP3 PUSH2 0x7C2 JUMP JUMPDEST SWAP2 POP POP DUP1 SWAP2 POP POP SWAP3 SWAP2 POP POP JUMP JUMPDEST PUSH0 PUSH1 0x20 DUP3 ADD SWAP1 POP DUP2 DUP2 SUB PUSH0 DUP4 ADD MSTORE PUSH2 0x880 DUP2 DUP5 PUSH2 0x7FA JUMP JUMPDEST SWAP1 POP SWAP3 SWAP2 POP POP JUMP JUMPDEST PUSH0 DUP1 REVERT JUMPDEST PUSH0 DUP1 REVERT JUMPDEST PUSH32 0x4E487B7100000000000000000000000000000000000000000000000000000000 PUSH0 MSTORE PUSH1 0x41 PUSH1 0x4 MSTORE PUSH1 0x24 PUSH0 REVERT JUMPDEST PUSH2 0x8C6 DUP3 PUSH2 0x703 JUMP JUMPDEST DUP2 ADD DUP2 DUP2 LT PUSH8 0xFFFFFFFFFFFFFFFF DUP3 GT OR ISZERO PUSH2 0x8E5 JUMPI PUSH2 0x8E4 PUSH2 0x890 JUMP JUMPDEST JUMPDEST DUP1 PUSH1 0x40 MSTORE POP POP POP JUMP JUMPDEST PUSH0 PUSH2 0x8F7 PUSH2 0x636 JUMP JUMPDEST SWAP1 POP PUSH2 0x903 DUP3 DUP3 PUSH2 0x8BD JUMP JUMPDEST SWAP2 SWAP1 POP JUMP JUMPDEST PUSH0 PUSH8 0xFFFFFFFFFFFFFFFF DUP3 GT ISZERO PUSH2 0x922 JUMPI PUSH2 0x921 PUSH2 0x890 JUMP JUMPDEST JUMPDEST PUSH2 0x92B DUP3 PUSH2 0x703 JUMP JUMPDEST SWAP1 POP PUSH1 0x20 DUP2 ADD SWAP1 POP SWAP2 SWAP1 POP JUMP JUMPDEST DUP3 DUP2 DUP4 CALLDATACOPY PUSH0 DUP4 DUP4 ADD MSTORE POP POP POP JUMP JUMPDEST PUSH0 PUSH2 0x958 PUSH2 0x953 DUP5 PUSH2 0x908 JUMP JUMPDEST PUSH2 0x8EE JUMP JUMPDEST SWAP1 POP DUP3 DUP2 MSTORE PUSH1 0x20 DUP2 ADD DUP5 DUP5 DUP5 ADD GT ISZERO PUSH2 0x974 JUMPI PUSH2 0x973 PUSH2 0x88C JUMP JUMPDEST JUMPDEST PUSH2 0x97F DUP5 DUP3 DUP6 PUSH2 0x938 JUMP JUMPDEST POP SWAP4 SWAP3 POP POP POP JUMP JUMPDEST PUSH0 DUP3 PUSH1 0x1F DUP4 ADD SLT PUSH2 0x99B JUMPI PUSH2 0x99A PUSH2 0x888 JUMP JUMPDEST JUMPDEST DUP2 CALLDATALOAD PUSH2 0x9AB DUP5 DUP3 PUSH1 0x20 DUP7 ADD PUSH2 0x946 JUMP JUMPDEST SWAP2 POP POP SWAP3 SWAP2 POP POP JUMP JUMPDEST PUSH0 DUP1 PUSH0 PUSH1 0x60 DUP5 DUP7 SUB SLT ISZERO PUSH2 0x9CB JUMPI PUSH2 0x9CA PUSH2 0x63F JUMP JUMPDEST JUMPDEST PUSH0 DUP5 ADD CALLDATALOAD PUSH8 0xFFFFFFFFFFFFFFFF DUP2 GT ISZERO PUSH2 0x9E8 JUMPI PUSH2 0x9E7 PUSH2 0x643 JUMP JUMPDEST JUMPDEST PUSH2 0x9F4 DUP7 DUP3 DUP8 ADD PUSH2 0x987 JUMP JUMPDEST SWAP4 POP POP PUSH1 0x20 DUP5 ADD CALLDATALOAD PUSH8 0xFFFFFFFFFFFFFFFF DUP2 GT ISZERO PUSH2 0xA15 JUMPI PUSH2 0xA14 PUSH2 0x643 JUMP JUMPDEST JUMPDEST PUSH2 0xA21 DUP7 DUP3 DUP8 ADD PUSH2 0x987 JUMP JUMPDEST SWAP3 POP POP PUSH1 0x40 DUP5 ADD CALLDATALOAD PUSH8 0xFFFFFFFFFFFFFFFF DUP2 GT ISZERO PUSH2 0xA42 JUMPI PUSH2 0xA41 PUSH2 0x643 JUMP JUMPDEST JUMPDEST PUSH2 0xA4E DUP7 DUP3 DUP8 ADD PUSH2 0x987 JUMP JUMPDEST SWAP2 POP POP SWAP3 POP SWAP3 POP SWAP3 JUMP JUMPDEST PUSH32 0x4E487B7100000000000000000000000000000000000000000000000000000000 PUSH0 MSTORE PUSH1 0x22 PUSH1 0x4 MSTORE PUSH1 0x24 PUSH0 REVERT JUMPDEST PUSH0 PUSH1 0x2 DUP3 DIV SWAP1 POP PUSH1 0x1 DUP3 AND DUP1 PUSH2 0xA9C JUMPI PUSH1 0x7F DUP3 AND SWAP2 POP JUMPDEST PUSH1 0x20 DUP3 LT DUP2 SUB PUSH2 0xAAF JUMPI PUSH2 0xAAE PUSH2 0xA58 JUMP JUMPDEST JUMPDEST POP SWAP2 SWAP1 POP JUMP JUMPDEST PUSH0 DUP2 SWAP1 POP DUP2 PUSH0 MSTORE PUSH1 0x20 PUSH0 KECCAK256 SWAP1 POP SWAP2 SWAP1 POP JUMP JUMPDEST PUSH0 PUSH1 0x20 PUSH1 0x1F DUP4 ADD DIV SWAP1 POP SWAP2 SWAP1 POP JUMP JUMPDEST PUSH0 DUP3 DUP3 SHL SWAP1 POP SWAP3 SWAP2 POP POP JUMP JUMPDEST PUSH0 PUSH1 0x8 DUP4 MUL PUSH2 0xB11 PUSH32 0xFFFFFFFFFFFFFFFFFFFFFFFFFFFFFFFFFFFFFFFFFFFFFFFFFFFFFFFFFFFFFFFF DUP3 PUSH2 0xAD6 JUMP JUMPDEST PUSH2 0xB1B DUP7 DUP4 PUSH2 0xAD6 JUMP JUMPDEST SWAP6 POP DUP1 NOT DUP5 AND SWAP4 POP DUP1 DUP7 AND DUP5 OR SWAP3 POP POP POP SWAP4 SWAP3 POP POP POP JUMP JUMPDEST PUSH0 DUP2 SWAP1 POP SWAP2 SWAP1 POP JUMP JUMPDEST PUSH0 DUP2 SWAP1 POP SWAP2 SWAP1 POP JUMP JUMPDEST PUSH0 PUSH2 0xB5F PUSH2 0xB5A PUSH2 0xB55 DUP5 PUSH2 0xB33 JUMP JUMPDEST PUSH2 0xB3C JUMP JUMPDEST PUSH2 0xB33 JUMP JUMPDEST SWAP1 POP SWAP2 SWAP1 POP JUMP JUMPDEST PUSH0 DUP2 SWAP1 POP SWAP2 SWAP1 POP JUMP JUMPDEST PUSH2 0xB78 DUP4 PUSH2 0xB45 JUMP JUMPDEST PUSH2 0xB8C PUSH2 0xB84 DUP3 PUSH2 0xB66 JUMP JUMPDEST DUP5 DUP5 SLOAD PUSH2 0xAE2 JUMP JUMPDEST DUP3 SSTORE POP POP POP POP JUMP JUMPDEST PUSH0 SWAP1 JUMP JUMPDEST PUSH2 0xBA0 PUSH2 0xB94 JUMP JUMPDEST PUSH2 0xBAB DUP2 DUP5 DUP5 PUSH2 0xB6F JUMP JUMPDEST POP POP POP JUMP JUMPDEST JUMPDEST DUP2 DUP2 LT ISZERO PUSH2 0xBCE JUMPI PUSH2 0xBC3 PUSH0 DUP3 PUSH2 0xB98 JUMP JUMPDEST PUSH1 0x1 DUP2 ADD SWAP1 POP PUSH2 0xBB1 JUMP JUMPDEST POP POP JUMP JUMPDEST PUSH1 0x1F DUP3 GT ISZERO PUSH2 0xC13 JUMPI PUSH2 0xBE4 DUP2 PUSH2 0xAB5 JUMP JUMPDEST PUSH2 0xBED DUP5 PUSH2 0xAC7 JUMP JUMPDEST DUP2 ADD PUSH1 0x20 DUP6 LT ISZERO PUSH2 0xBFC JUMPI DUP2 SWAP1 POP JUMPDEST PUSH2 0xC10 PUSH2 0xC08 DUP6 PUSH2 0xAC7 JUMP JUMPDEST DUP4 ADD DUP3 PUSH2 0xBB0 JUMP JUMPDEST POP POP JUMPDEST POP POP POP JUMP JUMPDEST PUSH0 DUP3 DUP3 SHR SWAP1 POP SWAP3 SWAP2 POP POP JUMP JUMPDEST PUSH0 PUSH2 0xC33 PUSH0 NOT DUP5 PUSH1 0x8 MUL PUSH2 0xC18 JUMP JUMPDEST NOT DUP1 DUP4 AND SWAP2 POP POP SWAP3 SWAP2 POP POP JUMP JUMPDEST PUSH0 PUSH2 0xC4B DUP4 DUP4 PUSH2 0xC24 JUMP JUMPDEST SWAP2 POP DUP3 PUSH1 0x2 MUL DUP3 OR SWAP1 POP SWAP3 SWAP2 POP POP JUMP JUMPDEST PUSH2 0xC64 DUP3 PUSH2 0x6DB JUMP JUMPDEST PUSH8 0xFFFFFFFFFFFFFFFF DUP2 GT ISZERO PUSH2 0xC7D JUMPI PUSH2 0xC7C PUSH2 0x890 JUMP JUMPDEST JUMPDEST PUSH2 0xC87 DUP3 SLOAD PUSH2 0xA85 JUMP JUMPDEST PUSH2 0xC92 DUP3 DUP3 DUP6 PUSH2 0xBD2 JUMP JUMPDEST PUSH0 PUSH1 0x20 SWAP1 POP PUSH1 0x1F DUP4 GT PUSH1 0x1 DUP2 EQ PUSH2 0xCC3 JUMPI PUSH0 DUP5 ISZERO PUSH2 0xCB1 JUMPI DUP3 DUP8 ADD MLOAD SWAP1 POP JUMPDEST PUSH2 0xCBB DUP6 DUP3 PUSH2 0xC40 JUMP JUMPDEST DUP7 SSTORE POP PUSH2 0xD22 JUMP JUMPDEST PUSH1 0x1F NOT DUP5 AND PUSH2 0xCD1 DUP7 PUSH2 0xAB5 JUMP JUMPDEST PUSH0 JUMPDEST DUP3 DUP2 LT ISZERO PUSH2 0xCF8 JUMPI DUP5 DUP10 ADD MLOAD DUP3 SSTORE PUSH1 0x1 DUP3 ADD SWAP2 POP PUSH1 0x20 DUP6 ADD SWAP5 POP PUSH1 0x20 DUP2 ADD SWAP1 POP PUSH2 0xCD3 JUMP JUMPDEST DUP7 DUP4 LT ISZERO PUSH2 0xD15 JUMPI DUP5 DUP10 ADD MLOAD PUSH2 0xD11 PUSH1 0x1F DUP10 AND DUP3 PUSH2 0xC24 JUMP JUMPDEST DUP4 SSTORE POP JUMPDEST PUSH1 0x1 PUSH1 0x2 DUP9 MUL ADD DUP9 SSTORE POP POP POP JUMPDEST POP POP POP POP POP POP JUMP INVALID LOG2 PUSH5 0x6970667358 0x22 SLT KECCAK256 0xC9 0xAD PUSH25 0x5EBBF8833AF823DA12E82FF868A537C3C656AE09482213DD9F 0xEE 0xE8 BLOCKHASH PUSH32 0x64736F6C634300081A0033000000000000000000000000000000000000000000 "
				},
				"gasEstimates": {
					"creation": {
						"codeDepositCost": "684800",
						"executionCost": "713",
						"totalCost": "685513"
					},
					"external": {
						"getPatient(address)": "infinite",
						"patients(address)": "infinite",
						"registerPatient(string,string,string)": "infinite"
					}
				},
				"methodIdentifiers": {
					"getPatient(address)": "b5368e20",
					"patients(address)": "0869cfbc",
					"registerPatient(string,string,string)": "be65437a"
				}
			},
			"storageLayout": {
				"storage": [
					{
						"astId": 15,
						"contract": "mediHack/PatientRegistry.sol:PatientRegistry",
						"label": "patients",
						"offset": 0,
						"slot": "0",
						"type": "t_mapping(t_address,t_struct(Patient)10_storage)"
					}
				],
				"types": {
					"t_address": {
						"encoding": "inplace",
						"label": "address",
						"numberOfBytes": "20"
					},
					"t_mapping(t_address,t_struct(Patient)10_storage)": {
						"encoding": "mapping",
						"key": "t_address",
						"label": "mapping(address => struct PatientRegistry.Patient)",
						"numberOfBytes": "32",
						"value": "t_struct(Patient)10_storage"
					},
					"t_string_storage": {
						"encoding": "bytes",
						"label": "string",
						"numberOfBytes": "32"
					},
					"t_struct(Patient)10_storage": {
						"encoding": "inplace",
						"label": "struct PatientRegistry.Patient",
						"members": [
							{
								"astId": 3,
								"contract": "mediHack/PatientRegistry.sol:PatientRegistry",
								"label": "wallet",
								"offset": 0,
								"slot": "0",
								"type": "t_address"
							},
							{
								"astId": 5,
								"contract": "mediHack/PatientRegistry.sol:PatientRegistry",
								"label": "name",
								"offset": 0,
								"slot": "1",
								"type": "t_string_storage"
							},
							{
								"astId": 7,
								"contract": "mediHack/PatientRegistry.sol:PatientRegistry",
								"label": "bloodGroup",
								"offset": 0,
								"slot": "2",
								"type": "t_string_storage"
							},
							{
								"astId": 9,
								"contract": "mediHack/PatientRegistry.sol:PatientRegistry",
								"label": "neededOrgan",
								"offset": 0,
								"slot": "3",
								"type": "t_string_storage"
							}
						],
						"numberOfBytes": "128"
					}
				}
			},
			"userdoc": {
				"kind": "user",
				"methods": {},
				"version": 1
			}
		}
	}
}